{
	"contracts/OracleMaster.sol": {
		"OracleMaster": {
			"abi": [
				{
					"anonymous": false,
					"inputs": [
						{
							"indexed": false,
							"internalType": "uint8",
							"name": "version",
							"type": "uint8"
						}
					],
					"name": "Initialized",
					"type": "event"
				},
				{
					"anonymous": false,
					"inputs": [
						{
							"indexed": false,
							"internalType": "address",
							"name": "member",
							"type": "address"
						}
					],
					"name": "MemberAdded",
					"type": "event"
				},
				{
					"anonymous": false,
					"inputs": [
						{
							"indexed": false,
							"internalType": "address",
							"name": "member",
							"type": "address"
						}
					],
					"name": "MemberRemoved",
					"type": "event"
				},
				{
					"anonymous": false,
					"inputs": [
						{
							"indexed": false,
							"internalType": "address",
							"name": "account",
							"type": "address"
						}
					],
					"name": "Paused",
					"type": "event"
				},
				{
					"anonymous": false,
					"inputs": [
						{
							"indexed": false,
							"internalType": "uint8",
							"name": "QUORUM",
							"type": "uint8"
						}
					],
					"name": "QuorumChanged",
					"type": "event"
				},
				{
					"anonymous": false,
					"inputs": [
						{
							"indexed": false,
							"internalType": "address",
							"name": "account",
							"type": "address"
						}
					],
					"name": "Unpaused",
					"type": "event"
				},
				{
					"inputs": [],
					"name": "AUTH_MANAGER",
					"outputs": [
						{
							"internalType": "address",
							"name": "",
							"type": "address"
						}
					],
					"stateMutability": "view",
					"type": "function"
				},
				{
					"inputs": [],
					"name": "INACTIVITY_COVER",
					"outputs": [
						{
							"internalType": "address payable",
							"name": "",
							"type": "address"
						}
					],
					"stateMutability": "view",
					"type": "function"
				},
				{
					"inputs": [],
					"name": "MAX_MEMBERS",
					"outputs": [
						{
							"internalType": "uint256",
							"name": "",
							"type": "uint256"
						}
					],
					"stateMutability": "view",
					"type": "function"
				},
				{
					"inputs": [],
					"name": "ORACLE",
					"outputs": [
						{
							"internalType": "address",
							"name": "",
							"type": "address"
						}
					],
					"stateMutability": "view",
					"type": "function"
				},
				{
					"inputs": [],
					"name": "ORACLE_CLONE",
					"outputs": [
						{
							"internalType": "address",
							"name": "",
							"type": "address"
						}
					],
					"stateMutability": "view",
					"type": "function"
				},
				{
					"inputs": [],
					"name": "QUORUM",
					"outputs": [
						{
							"internalType": "uint8",
							"name": "",
							"type": "uint8"
						}
					],
					"stateMutability": "view",
					"type": "function"
				},
				{
					"inputs": [
						{
							"internalType": "address",
							"name": "_member",
							"type": "address"
						}
					],
					"name": "addOracleMember",
					"outputs": [],
					"stateMutability": "nonpayable",
					"type": "function"
				},
				{
					"inputs": [],
					"name": "eraId",
					"outputs": [
						{
							"internalType": "uint64",
							"name": "",
							"type": "uint64"
						}
					],
					"stateMutability": "view",
					"type": "function"
				},
				{
					"inputs": [
						{
							"internalType": "address",
							"name": "_ledger",
							"type": "address"
						}
					],
					"name": "getOracle",
					"outputs": [
						{
							"internalType": "address",
							"name": "",
							"type": "address"
						}
					],
					"stateMutability": "view",
					"type": "function"
				},
				{
					"inputs": [
						{
							"internalType": "address",
							"name": "_auth_manager",
							"type": "address"
						},
						{
							"internalType": "address",
							"name": "_oracle",
							"type": "address"
						},
						{
							"internalType": "address payable",
							"name": "_inactivity_cover",
							"type": "address"
						},
						{
							"internalType": "uint8",
							"name": "_quorum",
							"type": "uint8"
						}
					],
					"name": "initialize",
					"outputs": [],
					"stateMutability": "nonpayable",
					"type": "function"
				},
				{
					"inputs": [
						{
							"internalType": "address",
							"name": "_oracleMember",
							"type": "address"
						}
					],
					"name": "isReportedLastEra",
					"outputs": [
						{
							"internalType": "uint64",
							"name": "lastEra",
							"type": "uint64"
						},
						{
							"internalType": "bool",
							"name": "isReported",
							"type": "bool"
						}
					],
					"stateMutability": "view",
					"type": "function"
				},
				{
					"inputs": [
						{
							"internalType": "uint256",
							"name": "",
							"type": "uint256"
						}
					],
					"name": "members",
					"outputs": [
						{
							"internalType": "address",
							"name": "",
							"type": "address"
						}
					],
					"stateMutability": "view",
					"type": "function"
				},
				{
					"inputs": [],
					"name": "pause",
					"outputs": [],
					"stateMutability": "nonpayable",
					"type": "function"
				},
				{
					"inputs": [],
					"name": "paused",
					"outputs": [
						{
							"internalType": "bool",
							"name": "",
							"type": "bool"
						}
					],
					"stateMutability": "view",
					"type": "function"
				},
				{
					"inputs": [
						{
							"internalType": "address",
							"name": "_member",
							"type": "address"
						}
					],
					"name": "removeOracleMember",
					"outputs": [],
					"stateMutability": "nonpayable",
					"type": "function"
				},
				{
					"inputs": [
						{
							"internalType": "uint64",
							"name": "_eraId",
							"type": "uint64"
						},
						{
							"components": [
								{
									"internalType": "uint256",
									"name": "totalStaked",
									"type": "uint256"
								},
								{
									"internalType": "uint128",
									"name": "totalSelected",
									"type": "uint128"
								},
								{
									"internalType": "uint128",
									"name": "orbitersCount",
									"type": "uint128"
								},
								{
									"internalType": "uint128",
									"name": "round",
									"type": "uint128"
								},
								{
									"internalType": "bytes32",
									"name": "blockHash",
									"type": "bytes32"
								},
								{
									"internalType": "uint128",
									"name": "blockNumber",
									"type": "uint128"
								},
								{
									"internalType": "uint128",
									"name": "awarded",
									"type": "uint128"
								},
								{
									"components": [
										{
											"internalType": "address",
											"name": "collatorAccount",
											"type": "address"
										},
										{
											"internalType": "uint128",
											"name": "points",
											"type": "uint128"
										},
										{
											"internalType": "bool",
											"name": "active",
											"type": "bool"
										},
										{
											"internalType": "uint256",
											"name": "bond",
											"type": "uint256"
										},
										{
											"internalType": "uint256",
											"name": "delegationsTotal",
											"type": "uint256"
										},
										{
											"components": [
												{
													"internalType": "address",
													"name": "ownerAccount",
													"type": "address"
												},
												{
													"internalType": "uint256",
													"name": "amount",
													"type": "uint256"
												}
											],
											"internalType": "struct Types.DelegationsData[]",
											"name": "topActiveDelegations",
											"type": "tuple[]"
										}
									],
									"internalType": "struct Types.CollatorData[]",
									"name": "collators",
									"type": "tuple[]"
								}
							],
							"internalType": "struct Types.OracleData",
							"name": "_report",
							"type": "tuple"
						}
					],
					"name": "reportRelay",
					"outputs": [],
					"stateMutability": "nonpayable",
					"type": "function"
				},
				{
					"inputs": [],
					"name": "resume",
					"outputs": [],
					"stateMutability": "nonpayable",
					"type": "function"
				},
				{
					"inputs": [
						{
							"internalType": "uint8",
							"name": "_quorum",
							"type": "uint8"
						}
					],
					"name": "setQuorum",
					"outputs": [],
					"stateMutability": "nonpayable",
					"type": "function"
				}
			],
			"devdoc": {
				"kind": "dev",
				"methods": {
					"addOracleMember(address)": {
						"params": {
							"_member": "proposed member address"
						}
					},
					"getOracle(address)": {
						"params": {
							"_ledger": "ledger contract address"
						},
						"returns": {
							"_0": "linked oracle address"
						}
					},
					"initialize(address,address,address,uint8)": {
						"params": {
							"_quorum": "inital quorum threshold"
						}
					},
					"isReportedLastEra(address)": {
						"params": {
							"_oracleMember": "- oracle member address"
						},
						"returns": {
							"isReported": "- true if oracle member already reported for given stash, else false",
							"lastEra": "- last reported era"
						}
					},
					"paused()": {
						"details": "Returns true if the contract is paused, and false otherwise."
					},
					"reportRelay(uint64,(uint256,uint128,uint128,uint128,bytes32,uint128,uint128,(address,uint128,bool,uint256,uint256,(address,uint256)[])[]))": {
						"params": {
							"_eraId": "relaychain era",
							"_report": "relaychain data report"
						}
					},
					"setQuorum(uint8)": {
						"params": {
							"_quorum": "new value of quorum threshold"
						}
					}
				},
				"version": 1
			},
			"evm": {
				"assembly": "    /* \"contracts/OracleMaster.sol\":327:7592  contract OracleMaster is Pausable, Initializable {... */\n  mstore(0x40, 0x80)\n  callvalue\n  dup1\n  iszero\n  tag_1\n  jumpi\n  0x00\n  dup1\n  revert\ntag_1:\n  pop\n    /* \"@openzeppelin/contracts/security/Pausable.sol\":1006:1011  false */\n  0x00\n    /* \"@openzeppelin/contracts/security/Pausable.sol\":996:1003  _paused */\n  dup1\n  0x00\n    /* \"@openzeppelin/contracts/security/Pausable.sol\":996:1011  _paused = false */\n  0x0100\n  exp\n  dup2\n  sload\n  dup2\n  0xff\n  mul\n  not\n  and\n  swap1\n  dup4\n  iszero\n  iszero\n  mul\n  or\n  swap1\n  sstore\n  pop\n    /* \"contracts/OracleMaster.sol\":327:7592  contract OracleMaster is Pausable, Initializable {... */\n  dataSize(sub_0)\n  dup1\n  dataOffset(sub_0)\n  0x00\n  codecopy\n  0x00\n  return\nstop\n\nsub_0: assembly {\n        /* \"contracts/OracleMaster.sol\":327:7592  contract OracleMaster is Pausable, Initializable {... */\n      mstore(0x40, 0x80)\n      callvalue\n      dup1\n      iszero\n      tag_1\n      jumpi\n      0x00\n      dup1\n      revert\n    tag_1:\n      pop\n      jumpi(tag_2, lt(calldatasize, 0x04))\n      shr(0xe0, calldataload(0x00))\n      dup1\n      0x5daf08ca\n      gt\n      tag_21\n      jumpi\n      dup1\n      0xa1e206c7\n      gt\n      tag_22\n      jumpi\n      dup1\n      0xa1e206c7\n      eq\n      tag_16\n      jumpi\n      dup1\n      0xb164e437\n      eq\n      tag_17\n      jumpi\n      dup1\n      0xc4f305d9\n      eq\n      tag_18\n      jumpi\n      dup1\n      0xea0e35b1\n      eq\n      tag_19\n      jumpi\n      dup1\n      0xf98fae81\n      eq\n      tag_20\n      jumpi\n      jump(tag_2)\n    tag_22:\n      dup1\n      0x5daf08ca\n      eq\n      tag_12\n      jumpi\n      dup1\n      0x6dcab78f\n      eq\n      tag_13\n      jumpi\n      dup1\n      0x8456cb59\n      eq\n      tag_14\n      jumpi\n      dup1\n      0x8fbad6b4\n      eq\n      tag_15\n      jumpi\n      jump(tag_2)\n    tag_21:\n      dup1\n      0x33bc7090\n      gt\n      tag_23\n      jumpi\n      dup1\n      0x33bc7090\n      eq\n      tag_7\n      jumpi\n      dup1\n      0x38013f02\n      eq\n      tag_8\n      jumpi\n      dup1\n      0x3f109d23\n      eq\n      tag_9\n      jumpi\n      dup1\n      0x5c510b05\n      eq\n      tag_10\n      jumpi\n      dup1\n      0x5c975abb\n      eq\n      tag_11\n      jumpi\n      jump(tag_2)\n    tag_23:\n      dup1\n      0x046f7da2\n      eq\n      tag_3\n      jumpi\n      dup1\n      0x10d3d22e\n      eq\n      tag_4\n      jumpi\n      dup1\n      0x2e80d9b6\n      eq\n      tag_5\n      jumpi\n      dup1\n      0x3073cecf\n      eq\n      tag_6\n      jumpi\n    tag_2:\n      0x00\n      dup1\n      revert\n        /* \"contracts/OracleMaster.sol\":4853:4932  function resume() external auth(ROLE_PAUSE_MANAGER) {... */\n    tag_3:\n      tag_24\n      tag_25\n      jump\t// in\n    tag_24:\n      stop\n        /* \"contracts/OracleMaster.sol\":3758:3856  function getOracle(address _ledger) external view returns (address) {... */\n    tag_4:\n      tag_26\n      0x04\n      dup1\n      calldatasize\n      sub\n      dup2\n      add\n      swap1\n      tag_27\n      swap2\n      swap1\n      tag_28\n      jump\t// in\n    tag_27:\n      tag_29\n      jump\t// in\n    tag_26:\n      mload(0x40)\n      tag_30\n      swap2\n      swap1\n      tag_31\n      jump\t// in\n    tag_30:\n      mload(0x40)\n      dup1\n      swap2\n      sub\n      swap1\n      return\n        /* \"contracts/OracleMaster.sol\":955:974  uint8 public QUORUM */\n    tag_5:\n      tag_32\n      tag_33\n      jump\t// in\n    tag_32:\n      mload(0x40)\n      tag_34\n      swap2\n      swap1\n      tag_35\n      jump\t// in\n    tag_34:\n      mload(0x40)\n      dup1\n      swap2\n      sub\n      swap1\n      return\n        /* \"contracts/OracleMaster.sol\":2399:2862  function initialize(... */\n    tag_6:\n      tag_36\n      0x04\n      dup1\n      calldatasize\n      sub\n      dup2\n      add\n      swap1\n      tag_37\n      swap2\n      swap1\n      tag_38\n      jump\t// in\n    tag_37:\n      tag_39\n      jump\t// in\n    tag_36:\n      stop\n        /* \"contracts/OracleMaster.sol\":897:924  address public ORACLE_CLONE */\n    tag_7:\n      tag_40\n      tag_41\n      jump\t// in\n    tag_40:\n      mload(0x40)\n      tag_42\n      swap2\n      swap1\n      tag_31\n      jump\t// in\n    tag_42:\n      mload(0x40)\n      dup1\n      swap2\n      sub\n      swap1\n      return\n        /* \"contracts/OracleMaster.sol\":820:841  address public ORACLE */\n    tag_8:\n      tag_43\n      tag_44\n      jump\t// in\n    tag_43:\n      mload(0x40)\n      tag_45\n      swap2\n      swap1\n      tag_31\n      jump\t// in\n    tag_45:\n      mload(0x40)\n      dup1\n      swap2\n      sub\n      swap1\n      return\n        /* \"contracts/OracleMaster.sol\":555:574  uint64 public eraId */\n    tag_9:\n      tag_46\n      tag_47\n      jump\t// in\n    tag_46:\n      mload(0x40)\n      tag_48\n      swap2\n      swap1\n      tag_49\n      jump\t// in\n    tag_48:\n      mload(0x40)\n      dup1\n      swap2\n      sub\n      swap1\n      return\n        /* \"contracts/OracleMaster.sol\":6330:6955  function reportRelay(uint64 _eraId, Types.OracleData calldata _report)... */\n    tag_10:\n      tag_50\n      0x04\n      dup1\n      calldatasize\n      sub\n      dup2\n      add\n      swap1\n      tag_51\n      swap2\n      swap1\n      tag_52\n      jump\t// in\n    tag_51:\n      tag_53\n      jump\t// in\n    tag_50:\n      stop\n        /* \"@openzeppelin/contracts/security/Pausable.sol\":1615:1699  function paused() public view virtual returns (bool) {... */\n    tag_11:\n      tag_54\n      tag_55\n      jump\t// in\n    tag_54:\n      mload(0x40)\n      tag_56\n      swap2\n      swap1\n      tag_57\n      jump\t// in\n    tag_56:\n      mload(0x40)\n      dup1\n      swap2\n      sub\n      swap1\n      return\n        /* \"contracts/OracleMaster.sol\":603:627  address[] public members */\n    tag_12:\n      tag_58\n      0x04\n      dup1\n      calldatasize\n      sub\n      dup2\n      add\n      swap1\n      tag_59\n      swap2\n      swap1\n      tag_60\n      jump\t// in\n    tag_59:\n      tag_61\n      jump\t// in\n    tag_58:\n      mload(0x40)\n      tag_62\n      swap2\n      swap1\n      tag_31\n      jump\t// in\n    tag_62:\n      mload(0x40)\n      dup1\n      swap2\n      sub\n      swap1\n      return\n        /* \"contracts/OracleMaster.sol\":3083:3593  function setQuorum(uint8 _quorum)... */\n    tag_13:\n      tag_63\n      0x04\n      dup1\n      calldatasize\n      sub\n      dup2\n      add\n      swap1\n      tag_64\n      swap2\n      swap1\n      tag_65\n      jump\t// in\n    tag_64:\n      tag_66\n      jump\t// in\n    tag_63:\n      stop\n        /* \"contracts/OracleMaster.sol\":4651:4727  function pause() external auth(ROLE_PAUSE_MANAGER) {... */\n    tag_14:\n      tag_67\n      tag_68\n      jump\t// in\n    tag_67:\n      stop\n        /* \"contracts/OracleMaster.sol\":4149:4527  function isReportedLastEra(address _oracleMember)... */\n    tag_15:\n      tag_69\n      0x04\n      dup1\n      calldatasize\n      sub\n      dup2\n      add\n      swap1\n      tag_70\n      swap2\n      swap1\n      tag_28\n      jump\t// in\n    tag_70:\n      tag_71\n      jump\t// in\n    tag_69:\n      mload(0x40)\n      tag_72\n      swap3\n      swap2\n      swap1\n      tag_73\n      jump\t// in\n    tag_72:\n      mload(0x40)\n      dup1\n      swap2\n      sub\n      swap1\n      return\n        /* \"contracts/OracleMaster.sol\":757:784  address public AUTH_MANAGER */\n    tag_16:\n      tag_74\n      tag_75\n      jump\t// in\n    tag_74:\n      mload(0x40)\n      tag_76\n      swap2\n      swap1\n      tag_31\n      jump\t// in\n    tag_76:\n      mload(0x40)\n      dup1\n      swap2\n      sub\n      swap1\n      return\n        /* \"contracts/OracleMaster.sol\":5119:5508  function addOracleMember(address _member)... */\n    tag_17:\n      tag_77\n      0x04\n      dup1\n      calldatasize\n      sub\n      dup2\n      add\n      swap1\n      tag_78\n      swap2\n      swap1\n      tag_28\n      jump\t// in\n    tag_78:\n      tag_79\n      jump\t// in\n    tag_77:\n      stop\n        /* \"contracts/OracleMaster.sol\":675:714  address payable public INACTIVITY_COVER */\n    tag_18:\n      tag_80\n      tag_81\n      jump\t// in\n    tag_80:\n      mload(0x40)\n      tag_82\n      swap2\n      swap1\n      tag_83\n      jump\t// in\n    tag_82:\n      mload(0x40)\n      dup1\n      swap2\n      sub\n      swap1\n      return\n        /* \"contracts/OracleMaster.sol\":1032:1073  uint256 public constant MAX_MEMBERS = 255 */\n    tag_19:\n      tag_84\n      tag_85\n      jump\t// in\n    tag_84:\n      mload(0x40)\n      tag_86\n      swap2\n      swap1\n      tag_87\n      jump\t// in\n    tag_86:\n      mload(0x40)\n      dup1\n      swap2\n      sub\n      swap1\n      return\n        /* \"contracts/OracleMaster.sol\":5653:6153  function removeOracleMember(address _member)... */\n    tag_20:\n      tag_88\n      0x04\n      dup1\n      calldatasize\n      sub\n      dup2\n      add\n      swap1\n      tag_89\n      swap2\n      swap1\n      tag_28\n      jump\t// in\n    tag_89:\n      tag_90\n      jump\t// in\n    tag_88:\n      stop\n        /* \"contracts/OracleMaster.sol\":4853:4932  function resume() external auth(ROLE_PAUSE_MANAGER) {... */\n    tag_25:\n        /* \"contracts/OracleMaster.sol\":1381:1412  keccak256(\"ROLE_PAUSE_MANAGER\") */\n      0xd76e3374742c17bd14ffaf46cd349ec292baf7d8425512fa8fe132557a4c967b\n        /* \"contracts/OracleMaster.sol\":1939:1951  AUTH_MANAGER */\n      0x03\n      0x00\n      swap1\n      sload\n      swap1\n      0x0100\n      exp\n      swap1\n      div\n      0xffffffffffffffffffffffffffffffffffffffff\n      and\n        /* \"contracts/OracleMaster.sol\":1926:1956  IAuthManager(AUTH_MANAGER).has */\n      0xffffffffffffffffffffffffffffffffffffffff\n      and\n      0xeff11b2c\n        /* \"contracts/OracleMaster.sol\":1957:1961  role */\n      dup3\n        /* \"contracts/OracleMaster.sol\":1963:1973  msg.sender */\n      caller\n        /* \"contracts/OracleMaster.sol\":1926:1974  IAuthManager(AUTH_MANAGER).has(role, msg.sender) */\n      mload(0x40)\n      dup4\n      0xffffffff\n      and\n      0xe0\n      shl\n      dup2\n      mstore\n      0x04\n      add\n      tag_92\n      swap3\n      swap2\n      swap1\n      tag_93\n      jump\t// in\n    tag_92:\n      0x20\n      mload(0x40)\n      dup1\n      dup4\n      sub\n      dup2\n      dup7\n      dup1\n      extcodesize\n      iszero\n      dup1\n      iszero\n      tag_94\n      jumpi\n      0x00\n      dup1\n      revert\n    tag_94:\n      pop\n      gas\n      staticcall\n      iszero\n      dup1\n      iszero\n      tag_96\n      jumpi\n      returndatasize\n      0x00\n      dup1\n      returndatacopy\n      revert(0x00, returndatasize)\n    tag_96:\n      pop\n      pop\n      pop\n      pop\n      mload(0x40)\n      returndatasize\n      not(0x1f)\n      0x1f\n      dup3\n      add\n      and\n      dup3\n      add\n      dup1\n      0x40\n      mstore\n      pop\n      dup2\n      add\n      swap1\n      tag_97\n      swap2\n      swap1\n      tag_98\n      jump\t// in\n    tag_97:\n        /* \"contracts/OracleMaster.sol\":1905:2010  require(... */\n      tag_99\n      jumpi\n      mload(0x40)\n      0x08c379a000000000000000000000000000000000000000000000000000000000\n      dup2\n      mstore\n      0x04\n      add\n      tag_100\n      swap1\n      tag_101\n      jump\t// in\n    tag_100:\n      mload(0x40)\n      dup1\n      swap2\n      sub\n      swap1\n      revert\n    tag_99:\n        /* \"contracts/OracleMaster.sol\":4915:4925  _unpause() */\n      tag_103\n        /* \"contracts/OracleMaster.sol\":4915:4923  _unpause */\n      tag_104\n        /* \"contracts/OracleMaster.sol\":4915:4925  _unpause() */\n      jump\t// in\n    tag_103:\n        /* \"contracts/OracleMaster.sol\":4853:4932  function resume() external auth(ROLE_PAUSE_MANAGER) {... */\n      pop\n      jump\t// out\n        /* \"contracts/OracleMaster.sol\":3758:3856  function getOracle(address _ledger) external view returns (address) {... */\n    tag_29:\n        /* \"contracts/OracleMaster.sol\":3817:3824  address */\n      0x00\n        /* \"contracts/OracleMaster.sol\":3843:3849  ORACLE */\n      0x04\n      0x00\n      swap1\n      sload\n      swap1\n      0x0100\n      exp\n      swap1\n      div\n      0xffffffffffffffffffffffffffffffffffffffff\n      and\n        /* \"contracts/OracleMaster.sol\":3836:3849  return ORACLE */\n      swap1\n      pop\n        /* \"contracts/OracleMaster.sol\":3758:3856  function getOracle(address _ledger) external view returns (address) {... */\n      swap2\n      swap1\n      pop\n      jump\t// out\n        /* \"contracts/OracleMaster.sol\":955:974  uint8 public QUORUM */\n    tag_33:\n      0x05\n      0x14\n      swap1\n      sload\n      swap1\n      0x0100\n      exp\n      swap1\n      div\n      0xff\n      and\n      dup2\n      jump\t// out\n        /* \"contracts/OracleMaster.sol\":2399:2862  function initialize(... */\n    tag_39:\n        /* \"@openzeppelin/contracts/proxy/utils/Initializable.sol\":3100:3119  bool isTopLevelCall */\n      0x00\n        /* \"@openzeppelin/contracts/proxy/utils/Initializable.sol\":3123:3136  _initializing */\n      dup1\n      0x02\n      swap1\n      sload\n      swap1\n      0x0100\n      exp\n      swap1\n      div\n      0xff\n      and\n        /* \"@openzeppelin/contracts/proxy/utils/Initializable.sol\":3122:3136  !_initializing */\n      iszero\n        /* \"@openzeppelin/contracts/proxy/utils/Initializable.sol\":3100:3136  bool isTopLevelCall = !_initializing */\n      swap1\n      pop\n        /* \"@openzeppelin/contracts/proxy/utils/Initializable.sol\":3168:3182  isTopLevelCall */\n      dup1\n        /* \"@openzeppelin/contracts/proxy/utils/Initializable.sol\":3168:3202  isTopLevelCall && _initialized < 1 */\n      dup1\n      iszero\n      tag_107\n      jumpi\n      pop\n        /* \"@openzeppelin/contracts/proxy/utils/Initializable.sol\":3201:3202  1 */\n      0x01\n        /* \"@openzeppelin/contracts/proxy/utils/Initializable.sol\":3186:3198  _initialized */\n      0x00\n      0x01\n      swap1\n      sload\n      swap1\n      0x0100\n      exp\n      swap1\n      div\n      0xff\n      and\n        /* \"@openzeppelin/contracts/proxy/utils/Initializable.sol\":3186:3202  _initialized < 1 */\n      0xff\n      and\n      lt\n        /* \"@openzeppelin/contracts/proxy/utils/Initializable.sol\":3168:3202  isTopLevelCall && _initialized < 1 */\n    tag_107:\n        /* \"@openzeppelin/contracts/proxy/utils/Initializable.sol\":3167:3264  (isTopLevelCall && _initialized < 1) || (!Address.isContract(address(this)) && _initialized == 1) */\n      dup1\n      tag_108\n      jumpi\n      pop\n        /* \"@openzeppelin/contracts/proxy/utils/Initializable.sol\":3209:3242  Address.isContract(address(this)) */\n      tag_109\n        /* \"@openzeppelin/contracts/proxy/utils/Initializable.sol\":3236:3240  this */\n      address\n        /* \"@openzeppelin/contracts/proxy/utils/Initializable.sol\":3209:3227  Address.isContract */\n      tag_110\n        /* \"@openzeppelin/contracts/proxy/utils/Initializable.sol\":3209:3242  Address.isContract(address(this)) */\n      jump\t// in\n    tag_109:\n        /* \"@openzeppelin/contracts/proxy/utils/Initializable.sol\":3208:3242  !Address.isContract(address(this)) */\n      iszero\n        /* \"@openzeppelin/contracts/proxy/utils/Initializable.sol\":3208:3263  !Address.isContract(address(this)) && _initialized == 1 */\n      dup1\n      iszero\n      tag_111\n      jumpi\n      pop\n        /* \"@openzeppelin/contracts/proxy/utils/Initializable.sol\":3262:3263  1 */\n      0x01\n        /* \"@openzeppelin/contracts/proxy/utils/Initializable.sol\":3246:3258  _initialized */\n      0x00\n      0x01\n      swap1\n      sload\n      swap1\n      0x0100\n      exp\n      swap1\n      div\n      0xff\n      and\n        /* \"@openzeppelin/contracts/proxy/utils/Initializable.sol\":3246:3263  _initialized == 1 */\n      0xff\n      and\n      eq\n        /* \"@openzeppelin/contracts/proxy/utils/Initializable.sol\":3208:3263  !Address.isContract(address(this)) && _initialized == 1 */\n    tag_111:\n        /* \"@openzeppelin/contracts/proxy/utils/Initializable.sol\":3167:3264  (isTopLevelCall && _initialized < 1) || (!Address.isContract(address(this)) && _initialized == 1) */\n    tag_108:\n        /* \"@openzeppelin/contracts/proxy/utils/Initializable.sol\":3146:3336  require(... */\n      tag_112\n      jumpi\n      mload(0x40)\n      0x08c379a000000000000000000000000000000000000000000000000000000000\n      dup2\n      mstore\n      0x04\n      add\n      tag_113\n      swap1\n      tag_114\n      jump\t// in\n    tag_113:\n      mload(0x40)\n      dup1\n      swap2\n      sub\n      swap1\n      revert\n    tag_112:\n        /* \"@openzeppelin/contracts/proxy/utils/Initializable.sol\":3361:3362  1 */\n      0x01\n        /* \"@openzeppelin/contracts/proxy/utils/Initializable.sol\":3346:3358  _initialized */\n      0x00\n      0x01\n        /* \"@openzeppelin/contracts/proxy/utils/Initializable.sol\":3346:3362  _initialized = 1 */\n      0x0100\n      exp\n      dup2\n      sload\n      dup2\n      0xff\n      mul\n      not\n      and\n      swap1\n      dup4\n      0xff\n      and\n      mul\n      or\n      swap1\n      sstore\n      pop\n        /* \"@openzeppelin/contracts/proxy/utils/Initializable.sol\":3376:3390  isTopLevelCall */\n      dup1\n        /* \"@openzeppelin/contracts/proxy/utils/Initializable.sol\":3372:3437  if (isTopLevelCall) {... */\n      iszero\n      tag_115\n      jumpi\n        /* \"@openzeppelin/contracts/proxy/utils/Initializable.sol\":3422:3426  true */\n      0x01\n        /* \"@openzeppelin/contracts/proxy/utils/Initializable.sol\":3406:3419  _initializing */\n      0x00\n      0x02\n        /* \"@openzeppelin/contracts/proxy/utils/Initializable.sol\":3406:3426  _initializing = true */\n      0x0100\n      exp\n      dup2\n      sload\n      dup2\n      0xff\n      mul\n      not\n      and\n      swap1\n      dup4\n      iszero\n      iszero\n      mul\n      or\n      swap1\n      sstore\n      pop\n        /* \"@openzeppelin/contracts/proxy/utils/Initializable.sol\":3372:3437  if (isTopLevelCall) {... */\n    tag_115:\n        /* \"contracts/OracleMaster.sol\":2610:2611  0 */\n      0x00\n        /* \"contracts/OracleMaster.sol\":2586:2612  ORACLE_CLONE == address(0) */\n      0xffffffffffffffffffffffffffffffffffffffff\n      and\n        /* \"contracts/OracleMaster.sol\":2586:2598  ORACLE_CLONE */\n      0x05\n      0x00\n      swap1\n      sload\n      swap1\n      0x0100\n      exp\n      swap1\n      div\n      0xffffffffffffffffffffffffffffffffffffffff\n      and\n        /* \"contracts/OracleMaster.sol\":2586:2612  ORACLE_CLONE == address(0) */\n      0xffffffffffffffffffffffffffffffffffffffff\n      and\n      eq\n        /* \"contracts/OracleMaster.sol\":2578:2640  require(ORACLE_CLONE == address(0), \"OM: ALREADY_INITIALIZED\") */\n      tag_117\n      jumpi\n      mload(0x40)\n      0x08c379a000000000000000000000000000000000000000000000000000000000\n      dup2\n      mstore\n      0x04\n      add\n      tag_118\n      swap1\n      tag_119\n      jump\t// in\n    tag_118:\n      mload(0x40)\n      dup1\n      swap2\n      sub\n      swap1\n      revert\n    tag_117:\n        /* \"contracts/OracleMaster.sol\":2668:2669  0 */\n      0x00\n        /* \"contracts/OracleMaster.sol\":2658:2665  _quorum */\n      dup3\n        /* \"contracts/OracleMaster.sol\":2658:2669  _quorum > 0 */\n      0xff\n      and\n      gt\n        /* \"contracts/OracleMaster.sol\":2658:2694  _quorum > 0 && _quorum < MAX_MEMBERS */\n      dup1\n      iszero\n      tag_120\n      jumpi\n      pop\n        /* \"contracts/OracleMaster.sol\":1070:1073  255 */\n      0xff\n        /* \"contracts/OracleMaster.sol\":2673:2680  _quorum */\n      dup3\n        /* \"contracts/OracleMaster.sol\":2673:2694  _quorum < MAX_MEMBERS */\n      0xff\n      and\n      lt\n        /* \"contracts/OracleMaster.sol\":2658:2694  _quorum > 0 && _quorum < MAX_MEMBERS */\n    tag_120:\n        /* \"contracts/OracleMaster.sol\":2650:2719  require(_quorum > 0 && _quorum < MAX_MEMBERS, \"OM: INCORRECT_QUORUM\") */\n      tag_121\n      jumpi\n      mload(0x40)\n      0x08c379a000000000000000000000000000000000000000000000000000000000\n      dup2\n      mstore\n      0x04\n      add\n      tag_122\n      swap1\n      tag_123\n      jump\t// in\n    tag_122:\n      mload(0x40)\n      dup1\n      swap2\n      sub\n      swap1\n      revert\n    tag_121:\n        /* \"contracts/OracleMaster.sol\":2744:2757  _auth_manager */\n      dup5\n        /* \"contracts/OracleMaster.sol\":2729:2741  AUTH_MANAGER */\n      0x03\n      0x00\n        /* \"contracts/OracleMaster.sol\":2729:2757  AUTH_MANAGER = _auth_manager */\n      0x0100\n      exp\n      dup2\n      sload\n      dup2\n      0xffffffffffffffffffffffffffffffffffffffff\n      mul\n      not\n      and\n      swap1\n      dup4\n      0xffffffffffffffffffffffffffffffffffffffff\n      and\n      mul\n      or\n      swap1\n      sstore\n      pop\n        /* \"contracts/OracleMaster.sol\":2776:2783  _oracle */\n      dup4\n        /* \"contracts/OracleMaster.sol\":2767:2773  ORACLE */\n      0x04\n      0x00\n        /* \"contracts/OracleMaster.sol\":2767:2783  ORACLE = _oracle */\n      0x0100\n      exp\n      dup2\n      sload\n      dup2\n      0xffffffffffffffffffffffffffffffffffffffff\n      mul\n      not\n      and\n      swap1\n      dup4\n      0xffffffffffffffffffffffffffffffffffffffff\n      and\n      mul\n      or\n      swap1\n      sstore\n      pop\n        /* \"contracts/OracleMaster.sol\":2812:2829  _inactivity_cover */\n      dup3\n        /* \"contracts/OracleMaster.sol\":2793:2809  INACTIVITY_COVER */\n      0x02\n      0x00\n        /* \"contracts/OracleMaster.sol\":2793:2829  INACTIVITY_COVER = _inactivity_cover */\n      0x0100\n      exp\n      dup2\n      sload\n      dup2\n      0xffffffffffffffffffffffffffffffffffffffff\n      mul\n      not\n      and\n      swap1\n      dup4\n      0xffffffffffffffffffffffffffffffffffffffff\n      and\n      mul\n      or\n      swap1\n      sstore\n      pop\n        /* \"contracts/OracleMaster.sol\":2848:2855  _quorum */\n      dup2\n        /* \"contracts/OracleMaster.sol\":2839:2845  QUORUM */\n      0x05\n      0x14\n        /* \"contracts/OracleMaster.sol\":2839:2855  QUORUM = _quorum */\n      0x0100\n      exp\n      dup2\n      sload\n      dup2\n      0xff\n      mul\n      not\n      and\n      swap1\n      dup4\n      0xff\n      and\n      mul\n      or\n      swap1\n      sstore\n      pop\n        /* \"@openzeppelin/contracts/proxy/utils/Initializable.sol\":3461:3475  isTopLevelCall */\n      dup1\n        /* \"@openzeppelin/contracts/proxy/utils/Initializable.sol\":3457:3556  if (isTopLevelCall) {... */\n      iszero\n      tag_124\n      jumpi\n        /* \"@openzeppelin/contracts/proxy/utils/Initializable.sol\":3507:3512  false */\n      0x00\n        /* \"@openzeppelin/contracts/proxy/utils/Initializable.sol\":3491:3504  _initializing */\n      dup1\n      0x02\n        /* \"@openzeppelin/contracts/proxy/utils/Initializable.sol\":3491:3512  _initializing = false */\n      0x0100\n      exp\n      dup2\n      sload\n      dup2\n      0xff\n      mul\n      not\n      and\n      swap1\n      dup4\n      iszero\n      iszero\n      mul\n      or\n      swap1\n      sstore\n      pop\n        /* \"@openzeppelin/contracts/proxy/utils/Initializable.sol\":3531:3545  Initialized(1) */\n      0x7f26b83ff96e1f2b6a682f133852f6798a09c465da95921460cefb3847402498\n        /* \"@openzeppelin/contracts/proxy/utils/Initializable.sol\":3543:3544  1 */\n      0x01\n        /* \"@openzeppelin/contracts/proxy/utils/Initializable.sol\":3531:3545  Initialized(1) */\n      mload(0x40)\n      tag_125\n      swap2\n      swap1\n      tag_126\n      jump\t// in\n    tag_125:\n      mload(0x40)\n      dup1\n      swap2\n      sub\n      swap1\n      log1\n        /* \"@openzeppelin/contracts/proxy/utils/Initializable.sol\":3457:3556  if (isTopLevelCall) {... */\n    tag_124:\n        /* \"@openzeppelin/contracts/proxy/utils/Initializable.sol\":3090:3562  {... */\n      pop\n        /* \"contracts/OracleMaster.sol\":2399:2862  function initialize(... */\n      pop\n      pop\n      pop\n      pop\n      jump\t// out\n        /* \"contracts/OracleMaster.sol\":897:924  address public ORACLE_CLONE */\n    tag_41:\n      0x05\n      0x00\n      swap1\n      sload\n      swap1\n      0x0100\n      exp\n      swap1\n      div\n      0xffffffffffffffffffffffffffffffffffffffff\n      and\n      dup2\n      jump\t// out\n        /* \"contracts/OracleMaster.sol\":820:841  address public ORACLE */\n    tag_44:\n      0x04\n      0x00\n      swap1\n      sload\n      swap1\n      0x0100\n      exp\n      swap1\n      div\n      0xffffffffffffffffffffffffffffffffffffffff\n      and\n      dup2\n      jump\t// out\n        /* \"contracts/OracleMaster.sol\":555:574  uint64 public eraId */\n    tag_47:\n      0x00\n      0x03\n      swap1\n      sload\n      swap1\n      0x0100\n      exp\n      swap1\n      div\n      0xffffffffffffffff\n      and\n      dup2\n      jump\t// out\n        /* \"contracts/OracleMaster.sol\":6330:6955  function reportRelay(uint64 _eraId, Types.OracleData calldata _report)... */\n    tag_53:\n        /* \"@openzeppelin/contracts/security/Pausable.sol\":1239:1258  _requireNotPaused() */\n      tag_128\n        /* \"@openzeppelin/contracts/security/Pausable.sol\":1239:1256  _requireNotPaused */\n      tag_129\n        /* \"@openzeppelin/contracts/security/Pausable.sol\":1239:1258  _requireNotPaused() */\n      jump\t// in\n    tag_128:\n        /* \"contracts/OracleMaster.sol\":6523:6542  uint256 memberIndex */\n      0x00\n        /* \"contracts/OracleMaster.sol\":6545:6569  _getMemberId(msg.sender) */\n      tag_131\n        /* \"contracts/OracleMaster.sol\":6558:6568  msg.sender */\n      caller\n        /* \"contracts/OracleMaster.sol\":6545:6557  _getMemberId */\n      tag_132\n        /* \"contracts/OracleMaster.sol\":6545:6569  _getMemberId(msg.sender) */\n      jump\t// in\n    tag_131:\n        /* \"contracts/OracleMaster.sol\":6523:6569  uint256 memberIndex = _getMemberId(msg.sender) */\n      swap1\n      pop\n        /* \"contracts/OracleMaster.sol\":1151:1168  type(uint256).max */\n      0xffffffffffffffffffffffffffffffffffffffffffffffffffffffffffffffff\n        /* \"contracts/OracleMaster.sol\":6587:6598  memberIndex */\n      dup2\n        /* \"contracts/OracleMaster.sol\":6587:6616  memberIndex != MEMBER_N_FOUND */\n      eq\n      iszero\n        /* \"contracts/OracleMaster.sol\":6579:6639  require(memberIndex != MEMBER_N_FOUND, \"OM: MEMBER_N_FOUND\") */\n      tag_133\n      jumpi\n      mload(0x40)\n      0x08c379a000000000000000000000000000000000000000000000000000000000\n      dup2\n      mstore\n      0x04\n      add\n      tag_134\n      swap1\n      tag_135\n      jump\t// in\n    tag_134:\n      mload(0x40)\n      dup1\n      swap2\n      sub\n      swap1\n      revert\n    tag_133:\n        /* \"contracts/OracleMaster.sol\":6675:6676  0 */\n      0x00\n        /* \"contracts/OracleMaster.sol\":6657:6677  ORACLE != address(0) */\n      0xffffffffffffffffffffffffffffffffffffffff\n      and\n        /* \"contracts/OracleMaster.sol\":6657:6663  ORACLE */\n      0x04\n      0x00\n      swap1\n      sload\n      swap1\n      0x0100\n      exp\n      swap1\n      div\n      0xffffffffffffffffffffffffffffffffffffffff\n      and\n        /* \"contracts/OracleMaster.sol\":6657:6677  ORACLE != address(0) */\n      0xffffffffffffffffffffffffffffffffffffffff\n      and\n      eq\n      iszero\n        /* \"contracts/OracleMaster.sol\":6649:6700  require(ORACLE != address(0), \"OM: ORACLE_N_FOUND\") */\n      tag_136\n      jumpi\n      mload(0x40)\n      0x08c379a000000000000000000000000000000000000000000000000000000000\n      dup2\n      mstore\n      0x04\n      add\n      tag_137\n      swap1\n      tag_138\n      jump\t// in\n    tag_137:\n      mload(0x40)\n      dup1\n      swap2\n      sub\n      swap1\n      revert\n    tag_136:\n        /* \"contracts/OracleMaster.sol\":6728:6733  eraId */\n      0x00\n      0x03\n      swap1\n      sload\n      swap1\n      0x0100\n      exp\n      swap1\n      div\n      0xffffffffffffffff\n      and\n        /* \"contracts/OracleMaster.sol\":6718:6733  _eraId >= eraId */\n      0xffffffffffffffff\n      and\n        /* \"contracts/OracleMaster.sol\":6718:6724  _eraId */\n      dup4\n        /* \"contracts/OracleMaster.sol\":6718:6733  _eraId >= eraId */\n      0xffffffffffffffff\n      and\n      lt\n      iszero\n        /* \"contracts/OracleMaster.sol\":6710:6753  require(_eraId >= eraId, \"OM: ERA_TOO_OLD\") */\n      tag_139\n      jumpi\n      mload(0x40)\n      0x08c379a000000000000000000000000000000000000000000000000000000000\n      dup2\n      mstore\n      0x04\n      add\n      tag_140\n      swap1\n      tag_141\n      jump\t// in\n    tag_140:\n      mload(0x40)\n      dup1\n      swap2\n      sub\n      swap1\n      revert\n    tag_139:\n        /* \"contracts/OracleMaster.sol\":6796:6801  eraId */\n      0x00\n      0x03\n      swap1\n      sload\n      swap1\n      0x0100\n      exp\n      swap1\n      div\n      0xffffffffffffffff\n      and\n        /* \"contracts/OracleMaster.sol\":6787:6801  _eraId > eraId */\n      0xffffffffffffffff\n      and\n        /* \"contracts/OracleMaster.sol\":6787:6793  _eraId */\n      dup4\n        /* \"contracts/OracleMaster.sol\":6787:6801  _eraId > eraId */\n      0xffffffffffffffff\n      and\n      gt\n        /* \"contracts/OracleMaster.sol\":6783:6873  if (_eraId > eraId) {... */\n      iszero\n      tag_142\n      jumpi\n        /* \"contracts/OracleMaster.sol\":6825:6831  _eraId */\n      dup3\n        /* \"contracts/OracleMaster.sol\":6817:6822  eraId */\n      0x00\n      0x03\n        /* \"contracts/OracleMaster.sol\":6817:6831  eraId = _eraId */\n      0x0100\n      exp\n      dup2\n      sload\n      dup2\n      0xffffffffffffffff\n      mul\n      not\n      and\n      swap1\n      dup4\n      0xffffffffffffffff\n      and\n      mul\n      or\n      swap1\n      sstore\n      pop\n        /* \"contracts/OracleMaster.sol\":6845:6862  _clearReporting() */\n      tag_143\n        /* \"contracts/OracleMaster.sol\":6845:6860  _clearReporting */\n      tag_144\n        /* \"contracts/OracleMaster.sol\":6845:6862  _clearReporting() */\n      jump\t// in\n    tag_143:\n        /* \"contracts/OracleMaster.sol\":6783:6873  if (_eraId > eraId) {... */\n    tag_142:\n        /* \"contracts/OracleMaster.sol\":6891:6897  ORACLE */\n      0x04\n      0x00\n      swap1\n      sload\n      swap1\n      0x0100\n      exp\n      swap1\n      div\n      0xffffffffffffffffffffffffffffffffffffffff\n      and\n        /* \"contracts/OracleMaster.sol\":6883:6910  IOracle(ORACLE).reportRelay */\n      0xffffffffffffffffffffffffffffffffffffffff\n      and\n      0x7650b11d\n        /* \"contracts/OracleMaster.sol\":6911:6922  memberIndex */\n      dup3\n        /* \"contracts/OracleMaster.sol\":6924:6930  QUORUM */\n      0x05\n      0x14\n      swap1\n      sload\n      swap1\n      0x0100\n      exp\n      swap1\n      div\n      0xff\n      and\n        /* \"contracts/OracleMaster.sol\":6932:6938  _eraId */\n      dup7\n        /* \"contracts/OracleMaster.sol\":6940:6947  _report */\n      dup7\n        /* \"contracts/OracleMaster.sol\":6883:6948  IOracle(ORACLE).reportRelay(memberIndex, QUORUM, _eraId, _report) */\n      mload(0x40)\n      dup6\n      0xffffffff\n      and\n      0xe0\n      shl\n      dup2\n      mstore\n      0x04\n      add\n      tag_145\n      swap5\n      swap4\n      swap3\n      swap2\n      swap1\n      tag_146\n      jump\t// in\n    tag_145:\n      0x00\n      mload(0x40)\n      dup1\n      dup4\n      sub\n      dup2\n      0x00\n      dup8\n      dup1\n      extcodesize\n      iszero\n      dup1\n      iszero\n      tag_147\n      jumpi\n      0x00\n      dup1\n      revert\n    tag_147:\n      pop\n      gas\n      call\n      iszero\n      dup1\n      iszero\n      tag_149\n      jumpi\n      returndatasize\n      0x00\n      dup1\n      returndatacopy\n      revert(0x00, returndatasize)\n    tag_149:\n      pop\n      pop\n      pop\n      pop\n        /* \"contracts/OracleMaster.sol\":6444:6955  {... */\n      pop\n        /* \"contracts/OracleMaster.sol\":6330:6955  function reportRelay(uint64 _eraId, Types.OracleData calldata _report)... */\n      pop\n      pop\n      jump\t// out\n        /* \"@openzeppelin/contracts/security/Pausable.sol\":1615:1699  function paused() public view virtual returns (bool) {... */\n    tag_55:\n        /* \"@openzeppelin/contracts/security/Pausable.sol\":1662:1666  bool */\n      0x00\n        /* \"@openzeppelin/contracts/security/Pausable.sol\":1685:1692  _paused */\n      dup1\n      0x00\n      swap1\n      sload\n      swap1\n      0x0100\n      exp\n      swap1\n      div\n      0xff\n      and\n        /* \"@openzeppelin/contracts/security/Pausable.sol\":1678:1692  return _paused */\n      swap1\n      pop\n        /* \"@openzeppelin/contracts/security/Pausable.sol\":1615:1699  function paused() public view virtual returns (bool) {... */\n      swap1\n      jump\t// out\n        /* \"contracts/OracleMaster.sol\":603:627  address[] public members */\n    tag_61:\n      0x01\n      dup2\n      dup2\n      sload\n      dup2\n      lt\n      tag_151\n      jumpi\n      0x00\n      dup1\n      revert\n    tag_151:\n      swap1\n      0x00\n      mstore\n      keccak256(0x00, 0x20)\n      add\n      0x00\n      swap2\n      pop\n      sload\n      swap1\n      0x0100\n      exp\n      swap1\n      div\n      0xffffffffffffffffffffffffffffffffffffffff\n      and\n      dup2\n      jump\t// out\n        /* \"contracts/OracleMaster.sol\":3083:3593  function setQuorum(uint8 _quorum)... */\n    tag_66:\n        /* \"contracts/OracleMaster.sol\":1663:1702  keccak256(\"ROLE_ORACLE_QUORUM_MANAGER\") */\n      0x8ac38a2a3c56dddd46cb8bc53ef71a94590a3862aefd3143ed3126454af63731\n        /* \"contracts/OracleMaster.sol\":1939:1951  AUTH_MANAGER */\n      0x03\n      0x00\n      swap1\n      sload\n      swap1\n      0x0100\n      exp\n      swap1\n      div\n      0xffffffffffffffffffffffffffffffffffffffff\n      and\n        /* \"contracts/OracleMaster.sol\":1926:1956  IAuthManager(AUTH_MANAGER).has */\n      0xffffffffffffffffffffffffffffffffffffffff\n      and\n      0xeff11b2c\n        /* \"contracts/OracleMaster.sol\":1957:1961  role */\n      dup3\n        /* \"contracts/OracleMaster.sol\":1963:1973  msg.sender */\n      caller\n        /* \"contracts/OracleMaster.sol\":1926:1974  IAuthManager(AUTH_MANAGER).has(role, msg.sender) */\n      mload(0x40)\n      dup4\n      0xffffffff\n      and\n      0xe0\n      shl\n      dup2\n      mstore\n      0x04\n      add\n      tag_154\n      swap3\n      swap2\n      swap1\n      tag_93\n      jump\t// in\n    tag_154:\n      0x20\n      mload(0x40)\n      dup1\n      dup4\n      sub\n      dup2\n      dup7\n      dup1\n      extcodesize\n      iszero\n      dup1\n      iszero\n      tag_155\n      jumpi\n      0x00\n      dup1\n      revert\n    tag_155:\n      pop\n      gas\n      staticcall\n      iszero\n      dup1\n      iszero\n      tag_157\n      jumpi\n      returndatasize\n      0x00\n      dup1\n      returndatacopy\n      revert(0x00, returndatasize)\n    tag_157:\n      pop\n      pop\n      pop\n      pop\n      mload(0x40)\n      returndatasize\n      not(0x1f)\n      0x1f\n      dup3\n      add\n      and\n      dup3\n      add\n      dup1\n      0x40\n      mstore\n      pop\n      dup2\n      add\n      swap1\n      tag_158\n      swap2\n      swap1\n      tag_98\n      jump\t// in\n    tag_158:\n        /* \"contracts/OracleMaster.sol\":1905:2010  require(... */\n      tag_159\n      jumpi\n      mload(0x40)\n      0x08c379a000000000000000000000000000000000000000000000000000000000\n      dup2\n      mstore\n      0x04\n      add\n      tag_160\n      swap1\n      tag_101\n      jump\t// in\n    tag_160:\n      mload(0x40)\n      dup1\n      swap2\n      sub\n      swap1\n      revert\n    tag_159:\n        /* \"contracts/OracleMaster.sol\":3220:3221  0 */\n      0x00\n        /* \"contracts/OracleMaster.sol\":3210:3217  _quorum */\n      dup3\n        /* \"contracts/OracleMaster.sol\":3210:3221  _quorum > 0 */\n      0xff\n      and\n      gt\n        /* \"contracts/OracleMaster.sol\":3210:3246  _quorum > 0 && _quorum < MAX_MEMBERS */\n      dup1\n      iszero\n      tag_162\n      jumpi\n      pop\n        /* \"contracts/OracleMaster.sol\":1070:1073  255 */\n      0xff\n        /* \"contracts/OracleMaster.sol\":3225:3232  _quorum */\n      dup3\n        /* \"contracts/OracleMaster.sol\":3225:3246  _quorum < MAX_MEMBERS */\n      0xff\n      and\n      lt\n        /* \"contracts/OracleMaster.sol\":3210:3246  _quorum > 0 && _quorum < MAX_MEMBERS */\n    tag_162:\n        /* \"contracts/OracleMaster.sol\":3189:3295  require(... */\n      tag_163\n      jumpi\n      mload(0x40)\n      0x08c379a000000000000000000000000000000000000000000000000000000000\n      dup2\n      mstore\n      0x04\n      add\n      tag_164\n      swap1\n      tag_165\n      jump\t// in\n    tag_164:\n      mload(0x40)\n      dup1\n      swap2\n      sub\n      swap1\n      revert\n    tag_163:\n        /* \"contracts/OracleMaster.sol\":3305:3320  uint8 oldQuorum */\n      0x00\n        /* \"contracts/OracleMaster.sol\":3323:3329  QUORUM */\n      0x05\n      0x14\n      swap1\n      sload\n      swap1\n      0x0100\n      exp\n      swap1\n      div\n      0xff\n      and\n        /* \"contracts/OracleMaster.sol\":3305:3329  uint8 oldQuorum = QUORUM */\n      swap1\n      pop\n        /* \"contracts/OracleMaster.sol\":3348:3355  _quorum */\n      dup3\n        /* \"contracts/OracleMaster.sol\":3339:3345  QUORUM */\n      0x05\n      0x14\n        /* \"contracts/OracleMaster.sol\":3339:3355  QUORUM = _quorum */\n      0x0100\n      exp\n      dup2\n      sload\n      dup2\n      0xff\n      mul\n      not\n      and\n      swap1\n      dup4\n      0xff\n      and\n      mul\n      or\n      swap1\n      sstore\n      pop\n        /* \"contracts/OracleMaster.sol\":3472:3479  _quorum */\n      dup3\n        /* \"contracts/OracleMaster.sol\":3460:3479  oldQuorum > _quorum */\n      0xff\n      and\n        /* \"contracts/OracleMaster.sol\":3460:3469  oldQuorum */\n      dup2\n        /* \"contracts/OracleMaster.sol\":3460:3479  oldQuorum > _quorum */\n      0xff\n      and\n      gt\n        /* \"contracts/OracleMaster.sol\":3456:3550  if (oldQuorum > _quorum) {... */\n      iszero\n      tag_166\n      jumpi\n        /* \"contracts/OracleMaster.sol\":3503:3509  ORACLE */\n      0x04\n      0x00\n      swap1\n      sload\n      swap1\n      0x0100\n      exp\n      swap1\n      div\n      0xffffffffffffffffffffffffffffffffffffffff\n      and\n        /* \"contracts/OracleMaster.sol\":3495:3523  IOracle(ORACLE).softenQuorum */\n      0xffffffffffffffffffffffffffffffffffffffff\n      and\n      0xcb35cf31\n        /* \"contracts/OracleMaster.sol\":3524:3531  _quorum */\n      dup5\n        /* \"contracts/OracleMaster.sol\":3533:3538  eraId */\n      0x00\n      0x03\n      swap1\n      sload\n      swap1\n      0x0100\n      exp\n      swap1\n      div\n      0xffffffffffffffff\n      and\n        /* \"contracts/OracleMaster.sol\":3495:3539  IOracle(ORACLE).softenQuorum(_quorum, eraId) */\n      mload(0x40)\n      dup4\n      0xffffffff\n      and\n      0xe0\n      shl\n      dup2\n      mstore\n      0x04\n      add\n      tag_167\n      swap3\n      swap2\n      swap1\n      tag_168\n      jump\t// in\n    tag_167:\n      0x00\n      mload(0x40)\n      dup1\n      dup4\n      sub\n      dup2\n      0x00\n      dup8\n      dup1\n      extcodesize\n      iszero\n      dup1\n      iszero\n      tag_169\n      jumpi\n      0x00\n      dup1\n      revert\n    tag_169:\n      pop\n      gas\n      call\n      iszero\n      dup1\n      iszero\n      tag_171\n      jumpi\n      returndatasize\n      0x00\n      dup1\n      returndatacopy\n      revert(0x00, returndatasize)\n    tag_171:\n      pop\n      pop\n      pop\n      pop\n        /* \"contracts/OracleMaster.sol\":3456:3550  if (oldQuorum > _quorum) {... */\n    tag_166:\n        /* \"contracts/OracleMaster.sol\":3564:3586  QuorumChanged(_quorum) */\n      0xd6ecd940f5784ceceeeb048268900f819851986dbe41c49f6e754b988868df87\n        /* \"contracts/OracleMaster.sol\":3578:3585  _quorum */\n      dup4\n        /* \"contracts/OracleMaster.sol\":3564:3586  QuorumChanged(_quorum) */\n      mload(0x40)\n      tag_172\n      swap2\n      swap1\n      tag_35\n      jump\t// in\n    tag_172:\n      mload(0x40)\n      dup1\n      swap2\n      sub\n      swap1\n      log1\n        /* \"contracts/OracleMaster.sol\":3179:3593  {... */\n      pop\n        /* \"contracts/OracleMaster.sol\":3083:3593  function setQuorum(uint8 _quorum)... */\n      pop\n      pop\n      jump\t// out\n        /* \"contracts/OracleMaster.sol\":4651:4727  function pause() external auth(ROLE_PAUSE_MANAGER) {... */\n    tag_68:\n        /* \"contracts/OracleMaster.sol\":1381:1412  keccak256(\"ROLE_PAUSE_MANAGER\") */\n      0xd76e3374742c17bd14ffaf46cd349ec292baf7d8425512fa8fe132557a4c967b\n        /* \"contracts/OracleMaster.sol\":1939:1951  AUTH_MANAGER */\n      0x03\n      0x00\n      swap1\n      sload\n      swap1\n      0x0100\n      exp\n      swap1\n      div\n      0xffffffffffffffffffffffffffffffffffffffff\n      and\n        /* \"contracts/OracleMaster.sol\":1926:1956  IAuthManager(AUTH_MANAGER).has */\n      0xffffffffffffffffffffffffffffffffffffffff\n      and\n      0xeff11b2c\n        /* \"contracts/OracleMaster.sol\":1957:1961  role */\n      dup3\n        /* \"contracts/OracleMaster.sol\":1963:1973  msg.sender */\n      caller\n        /* \"contracts/OracleMaster.sol\":1926:1974  IAuthManager(AUTH_MANAGER).has(role, msg.sender) */\n      mload(0x40)\n      dup4\n      0xffffffff\n      and\n      0xe0\n      shl\n      dup2\n      mstore\n      0x04\n      add\n      tag_174\n      swap3\n      swap2\n      swap1\n      tag_93\n      jump\t// in\n    tag_174:\n      0x20\n      mload(0x40)\n      dup1\n      dup4\n      sub\n      dup2\n      dup7\n      dup1\n      extcodesize\n      iszero\n      dup1\n      iszero\n      tag_175\n      jumpi\n      0x00\n      dup1\n      revert\n    tag_175:\n      pop\n      gas\n      staticcall\n      iszero\n      dup1\n      iszero\n      tag_177\n      jumpi\n      returndatasize\n      0x00\n      dup1\n      returndatacopy\n      revert(0x00, returndatasize)\n    tag_177:\n      pop\n      pop\n      pop\n      pop\n      mload(0x40)\n      returndatasize\n      not(0x1f)\n      0x1f\n      dup3\n      add\n      and\n      dup3\n      add\n      dup1\n      0x40\n      mstore\n      pop\n      dup2\n      add\n      swap1\n      tag_178\n      swap2\n      swap1\n      tag_98\n      jump\t// in\n    tag_178:\n        /* \"contracts/OracleMaster.sol\":1905:2010  require(... */\n      tag_179\n      jumpi\n      mload(0x40)\n      0x08c379a000000000000000000000000000000000000000000000000000000000\n      dup2\n      mstore\n      0x04\n      add\n      tag_180\n      swap1\n      tag_101\n      jump\t// in\n    tag_180:\n      mload(0x40)\n      dup1\n      swap2\n      sub\n      swap1\n      revert\n    tag_179:\n        /* \"contracts/OracleMaster.sol\":4712:4720  _pause() */\n      tag_182\n        /* \"contracts/OracleMaster.sol\":4712:4718  _pause */\n      tag_183\n        /* \"contracts/OracleMaster.sol\":4712:4720  _pause() */\n      jump\t// in\n    tag_182:\n        /* \"contracts/OracleMaster.sol\":4651:4727  function pause() external auth(ROLE_PAUSE_MANAGER) {... */\n      pop\n      jump\t// out\n        /* \"contracts/OracleMaster.sol\":4149:4527  function isReportedLastEra(address _oracleMember)... */\n    tag_71:\n        /* \"contracts/OracleMaster.sol\":4246:4260  uint64 lastEra */\n      0x00\n        /* \"contracts/OracleMaster.sol\":4262:4277  bool isReported */\n      dup1\n        /* \"contracts/OracleMaster.sol\":4303:4308  eraId */\n      0x00\n      0x03\n      swap1\n      sload\n      swap1\n      0x0100\n      exp\n      swap1\n      div\n      0xffffffffffffffff\n      and\n        /* \"contracts/OracleMaster.sol\":4293:4308  lastEra = eraId */\n      swap2\n      pop\n        /* \"contracts/OracleMaster.sol\":4318:4335  uint256 memberIdx */\n      0x00\n        /* \"contracts/OracleMaster.sol\":4338:4365  _getMemberId(_oracleMember) */\n      tag_185\n        /* \"contracts/OracleMaster.sol\":4351:4364  _oracleMember */\n      dup5\n        /* \"contracts/OracleMaster.sol\":4338:4350  _getMemberId */\n      tag_132\n        /* \"contracts/OracleMaster.sol\":4338:4365  _getMemberId(_oracleMember) */\n      jump\t// in\n    tag_185:\n        /* \"contracts/OracleMaster.sol\":4318:4365  uint256 memberIdx = _getMemberId(_oracleMember) */\n      swap1\n      pop\n        /* \"contracts/OracleMaster.sol\":1151:1168  type(uint256).max */\n      0xffffffffffffffffffffffffffffffffffffffffffffffffffffffffffffffff\n        /* \"contracts/OracleMaster.sol\":4379:4388  memberIdx */\n      dup2\n        /* \"contracts/OracleMaster.sol\":4379:4406  memberIdx == MEMBER_N_FOUND */\n      eq\n        /* \"contracts/OracleMaster.sol\":4375:4456  if (memberIdx == MEMBER_N_FOUND) {... */\n      iszero\n      tag_186\n      jumpi\n        /* \"contracts/OracleMaster.sol\":4430:4437  lastEra */\n      dup3\n        /* \"contracts/OracleMaster.sol\":4439:4444  false */\n      0x00\n        /* \"contracts/OracleMaster.sol\":4422:4445  return (lastEra, false) */\n      swap3\n      pop\n      swap3\n      pop\n      pop\n      jump(tag_184)\n        /* \"contracts/OracleMaster.sol\":4375:4456  if (memberIdx == MEMBER_N_FOUND) {... */\n    tag_186:\n        /* \"contracts/OracleMaster.sol\":4473:4480  lastEra */\n      dup3\n        /* \"contracts/OracleMaster.sol\":4490:4496  ORACLE */\n      0x04\n      0x00\n      swap1\n      sload\n      swap1\n      0x0100\n      exp\n      swap1\n      div\n      0xffffffffffffffffffffffffffffffffffffffff\n      and\n        /* \"contracts/OracleMaster.sol\":4482:4508  IOracle(ORACLE).isReported */\n      0xffffffffffffffffffffffffffffffffffffffff\n      and\n      0x89b80361\n        /* \"contracts/OracleMaster.sol\":4509:4518  memberIdx */\n      dup4\n        /* \"contracts/OracleMaster.sol\":4482:4519  IOracle(ORACLE).isReported(memberIdx) */\n      mload(0x40)\n      dup3\n      0xffffffff\n      and\n      0xe0\n      shl\n      dup2\n      mstore\n      0x04\n      add\n      tag_187\n      swap2\n      swap1\n      tag_87\n      jump\t// in\n    tag_187:\n      0x20\n      mload(0x40)\n      dup1\n      dup4\n      sub\n      dup2\n      dup7\n      dup1\n      extcodesize\n      iszero\n      dup1\n      iszero\n      tag_188\n      jumpi\n      0x00\n      dup1\n      revert\n    tag_188:\n      pop\n      gas\n      staticcall\n      iszero\n      dup1\n      iszero\n      tag_190\n      jumpi\n      returndatasize\n      0x00\n      dup1\n      returndatacopy\n      revert(0x00, returndatasize)\n    tag_190:\n      pop\n      pop\n      pop\n      pop\n      mload(0x40)\n      returndatasize\n      not(0x1f)\n      0x1f\n      dup3\n      add\n      and\n      dup3\n      add\n      dup1\n      0x40\n      mstore\n      pop\n      dup2\n      add\n      swap1\n      tag_191\n      swap2\n      swap1\n      tag_98\n      jump\t// in\n    tag_191:\n        /* \"contracts/OracleMaster.sol\":4465:4520  return (lastEra, IOracle(ORACLE).isReported(memberIdx)) */\n      swap3\n      pop\n      swap3\n      pop\n      pop\n        /* \"contracts/OracleMaster.sol\":4149:4527  function isReportedLastEra(address _oracleMember)... */\n    tag_184:\n      swap2\n      pop\n      swap2\n      jump\t// out\n        /* \"contracts/OracleMaster.sol\":757:784  address public AUTH_MANAGER */\n    tag_75:\n      0x03\n      0x00\n      swap1\n      sload\n      swap1\n      0x0100\n      exp\n      swap1\n      div\n      0xffffffffffffffffffffffffffffffffffffffff\n      and\n      dup2\n      jump\t// out\n        /* \"contracts/OracleMaster.sol\":5119:5508  function addOracleMember(address _member)... */\n    tag_79:\n        /* \"contracts/OracleMaster.sol\":1518:1558  keccak256(\"ROLE_ORACLE_MEMBERS_MANAGER\") */\n      0x390fb325ad2241104ec9502c1fe8ca89f34a50b811d77948772f75454c563ceb\n        /* \"contracts/OracleMaster.sol\":1939:1951  AUTH_MANAGER */\n      0x03\n      0x00\n      swap1\n      sload\n      swap1\n      0x0100\n      exp\n      swap1\n      div\n      0xffffffffffffffffffffffffffffffffffffffff\n      and\n        /* \"contracts/OracleMaster.sol\":1926:1956  IAuthManager(AUTH_MANAGER).has */\n      0xffffffffffffffffffffffffffffffffffffffff\n      and\n      0xeff11b2c\n        /* \"contracts/OracleMaster.sol\":1957:1961  role */\n      dup3\n        /* \"contracts/OracleMaster.sol\":1963:1973  msg.sender */\n      caller\n        /* \"contracts/OracleMaster.sol\":1926:1974  IAuthManager(AUTH_MANAGER).has(role, msg.sender) */\n      mload(0x40)\n      dup4\n      0xffffffff\n      and\n      0xe0\n      shl\n      dup2\n      mstore\n      0x04\n      add\n      tag_193\n      swap3\n      swap2\n      swap1\n      tag_93\n      jump\t// in\n    tag_193:\n      0x20\n      mload(0x40)\n      dup1\n      dup4\n      sub\n      dup2\n      dup7\n      dup1\n      extcodesize\n      iszero\n      dup1\n      iszero\n      tag_194\n      jumpi\n      0x00\n      dup1\n      revert\n    tag_194:\n      pop\n      gas\n      staticcall\n      iszero\n      dup1\n      iszero\n      tag_196\n      jumpi\n      returndatasize\n      0x00\n      dup1\n      returndatacopy\n      revert(0x00, returndatasize)\n    tag_196:\n      pop\n      pop\n      pop\n      pop\n      mload(0x40)\n      returndatasize\n      not(0x1f)\n      0x1f\n      dup3\n      add\n      and\n      dup3\n      add\n      dup1\n      0x40\n      mstore\n      pop\n      dup2\n      add\n      swap1\n      tag_197\n      swap2\n      swap1\n      tag_98\n      jump\t// in\n    tag_197:\n        /* \"contracts/OracleMaster.sol\":1905:2010  require(... */\n      tag_198\n      jumpi\n      mload(0x40)\n      0x08c379a000000000000000000000000000000000000000000000000000000000\n      dup2\n      mstore\n      0x04\n      add\n      tag_199\n      swap1\n      tag_101\n      jump\t// in\n    tag_199:\n      mload(0x40)\n      dup1\n      swap2\n      sub\n      swap1\n      revert\n    tag_198:\n        /* \"contracts/OracleMaster.sol\":5261:5262  0 */\n      0x00\n        /* \"contracts/OracleMaster.sol\":5242:5263  _member != address(0) */\n      0xffffffffffffffffffffffffffffffffffffffff\n      and\n        /* \"contracts/OracleMaster.sol\":5242:5249  _member */\n      dup3\n        /* \"contracts/OracleMaster.sol\":5242:5263  _member != address(0) */\n      0xffffffffffffffffffffffffffffffffffffffff\n      and\n      eq\n      iszero\n        /* \"contracts/OracleMaster.sol\":5234:5284  require(_member != address(0), \"OM: BAD_ARGUMENT\") */\n      tag_201\n      jumpi\n      mload(0x40)\n      0x08c379a000000000000000000000000000000000000000000000000000000000\n      dup2\n      mstore\n      0x04\n      add\n      tag_202\n      swap1\n      tag_203\n      jump\t// in\n    tag_202:\n      mload(0x40)\n      dup1\n      swap2\n      sub\n      swap1\n      revert\n    tag_201:\n        /* \"contracts/OracleMaster.sol\":1151:1168  type(uint256).max */\n      0xffffffffffffffffffffffffffffffffffffffffffffffffffffffffffffffff\n        /* \"contracts/OracleMaster.sol\":5302:5323  _getMemberId(_member) */\n      tag_204\n        /* \"contracts/OracleMaster.sol\":5315:5322  _member */\n      dup4\n        /* \"contracts/OracleMaster.sol\":5302:5314  _getMemberId */\n      tag_132\n        /* \"contracts/OracleMaster.sol\":5302:5323  _getMemberId(_member) */\n      jump\t// in\n    tag_204:\n        /* \"contracts/OracleMaster.sol\":5302:5341  _getMemberId(_member) == MEMBER_N_FOUND */\n      eq\n        /* \"contracts/OracleMaster.sol\":5294:5363  require(_getMemberId(_member) == MEMBER_N_FOUND, \"OM: MEMBER_EXISTS\") */\n      tag_205\n      jumpi\n      mload(0x40)\n      0x08c379a000000000000000000000000000000000000000000000000000000000\n      dup2\n      mstore\n      0x04\n      add\n      tag_206\n      swap1\n      tag_207\n      jump\t// in\n    tag_206:\n      mload(0x40)\n      dup1\n      swap2\n      sub\n      swap1\n      revert\n    tag_205:\n        /* \"contracts/OracleMaster.sol\":1070:1073  255 */\n      0xff\n        /* \"contracts/OracleMaster.sol\":5381:5388  members */\n      0x01\n        /* \"contracts/OracleMaster.sol\":5381:5395  members.length */\n      dup1\n      sload\n      swap1\n      pop\n        /* \"contracts/OracleMaster.sol\":5381:5409  members.length < MAX_MEMBERS */\n      lt\n        /* \"contracts/OracleMaster.sol\":5373:5434  require(members.length < MAX_MEMBERS, \"OM: MEMBERS_TOO_MANY\") */\n      tag_208\n      jumpi\n      mload(0x40)\n      0x08c379a000000000000000000000000000000000000000000000000000000000\n      dup2\n      mstore\n      0x04\n      add\n      tag_209\n      swap1\n      tag_210\n      jump\t// in\n    tag_209:\n      mload(0x40)\n      dup1\n      swap2\n      sub\n      swap1\n      revert\n    tag_208:\n        /* \"contracts/OracleMaster.sol\":5445:5452  members */\n      0x01\n        /* \"contracts/OracleMaster.sol\":5458:5465  _member */\n      dup3\n        /* \"contracts/OracleMaster.sol\":5445:5466  members.push(_member) */\n      swap1\n      dup1\n      0x01\n      dup2\n      sload\n      add\n      dup1\n      dup3\n      sstore\n      dup1\n      swap2\n      pop\n      pop\n      0x01\n      swap1\n      sub\n      swap1\n      0x00\n      mstore\n      keccak256(0x00, 0x20)\n      add\n      0x00\n      swap1\n      swap2\n      swap1\n      swap2\n      swap1\n      swap2\n      0x0100\n      exp\n      dup2\n      sload\n      dup2\n      0xffffffffffffffffffffffffffffffffffffffff\n      mul\n      not\n      and\n      swap1\n      dup4\n      0xffffffffffffffffffffffffffffffffffffffff\n      and\n      mul\n      or\n      swap1\n      sstore\n      pop\n        /* \"contracts/OracleMaster.sol\":5481:5501  MemberAdded(_member) */\n      0xb251eb052afc73ffd02ffe85ad79990a8b3fed60d76dbc2fa2fdd7123dffd914\n        /* \"contracts/OracleMaster.sol\":5493:5500  _member */\n      dup3\n        /* \"contracts/OracleMaster.sol\":5481:5501  MemberAdded(_member) */\n      mload(0x40)\n      tag_212\n      swap2\n      swap1\n      tag_31\n      jump\t// in\n    tag_212:\n      mload(0x40)\n      dup1\n      swap2\n      sub\n      swap1\n      log1\n        /* \"contracts/OracleMaster.sol\":5119:5508  function addOracleMember(address _member)... */\n      pop\n      pop\n      jump\t// out\n        /* \"contracts/OracleMaster.sol\":675:714  address payable public INACTIVITY_COVER */\n    tag_81:\n      0x02\n      0x00\n      swap1\n      sload\n      swap1\n      0x0100\n      exp\n      swap1\n      div\n      0xffffffffffffffffffffffffffffffffffffffff\n      and\n      dup2\n      jump\t// out\n        /* \"contracts/OracleMaster.sol\":1032:1073  uint256 public constant MAX_MEMBERS = 255 */\n    tag_85:\n        /* \"contracts/OracleMaster.sol\":1070:1073  255 */\n      0xff\n        /* \"contracts/OracleMaster.sol\":1032:1073  uint256 public constant MAX_MEMBERS = 255 */\n      dup2\n      jump\t// out\n        /* \"contracts/OracleMaster.sol\":5653:6153  function removeOracleMember(address _member)... */\n    tag_90:\n        /* \"contracts/OracleMaster.sol\":1518:1558  keccak256(\"ROLE_ORACLE_MEMBERS_MANAGER\") */\n      0x390fb325ad2241104ec9502c1fe8ca89f34a50b811d77948772f75454c563ceb\n        /* \"contracts/OracleMaster.sol\":1939:1951  AUTH_MANAGER */\n      0x03\n      0x00\n      swap1\n      sload\n      swap1\n      0x0100\n      exp\n      swap1\n      div\n      0xffffffffffffffffffffffffffffffffffffffff\n      and\n        /* \"contracts/OracleMaster.sol\":1926:1956  IAuthManager(AUTH_MANAGER).has */\n      0xffffffffffffffffffffffffffffffffffffffff\n      and\n      0xeff11b2c\n        /* \"contracts/OracleMaster.sol\":1957:1961  role */\n      dup3\n        /* \"contracts/OracleMaster.sol\":1963:1973  msg.sender */\n      caller\n        /* \"contracts/OracleMaster.sol\":1926:1974  IAuthManager(AUTH_MANAGER).has(role, msg.sender) */\n      mload(0x40)\n      dup4\n      0xffffffff\n      and\n      0xe0\n      shl\n      dup2\n      mstore\n      0x04\n      add\n      tag_214\n      swap3\n      swap2\n      swap1\n      tag_93\n      jump\t// in\n    tag_214:\n      0x20\n      mload(0x40)\n      dup1\n      dup4\n      sub\n      dup2\n      dup7\n      dup1\n      extcodesize\n      iszero\n      dup1\n      iszero\n      tag_215\n      jumpi\n      0x00\n      dup1\n      revert\n    tag_215:\n      pop\n      gas\n      staticcall\n      iszero\n      dup1\n      iszero\n      tag_217\n      jumpi\n      returndatasize\n      0x00\n      dup1\n      returndatacopy\n      revert(0x00, returndatasize)\n    tag_217:\n      pop\n      pop\n      pop\n      pop\n      mload(0x40)\n      returndatasize\n      not(0x1f)\n      0x1f\n      dup3\n      add\n      and\n      dup3\n      add\n      dup1\n      0x40\n      mstore\n      pop\n      dup2\n      add\n      swap1\n      tag_218\n      swap2\n      swap1\n      tag_98\n      jump\t// in\n    tag_218:\n        /* \"contracts/OracleMaster.sol\":1905:2010  require(... */\n      tag_219\n      jumpi\n      mload(0x40)\n      0x08c379a000000000000000000000000000000000000000000000000000000000\n      dup2\n      mstore\n      0x04\n      add\n      tag_220\n      swap1\n      tag_101\n      jump\t// in\n    tag_220:\n      mload(0x40)\n      dup1\n      swap2\n      sub\n      swap1\n      revert\n    tag_219:\n        /* \"contracts/OracleMaster.sol\":5771:5784  uint256 index */\n      0x00\n        /* \"contracts/OracleMaster.sol\":5787:5808  _getMemberId(_member) */\n      tag_222\n        /* \"contracts/OracleMaster.sol\":5800:5807  _member */\n      dup4\n        /* \"contracts/OracleMaster.sol\":5787:5799  _getMemberId */\n      tag_132\n        /* \"contracts/OracleMaster.sol\":5787:5808  _getMemberId(_member) */\n      jump\t// in\n    tag_222:\n        /* \"contracts/OracleMaster.sol\":5771:5808  uint256 index = _getMemberId(_member) */\n      swap1\n      pop\n        /* \"contracts/OracleMaster.sol\":1151:1168  type(uint256).max */\n      0xffffffffffffffffffffffffffffffffffffffffffffffffffffffffffffffff\n        /* \"contracts/OracleMaster.sol\":5826:5831  index */\n      dup2\n        /* \"contracts/OracleMaster.sol\":5826:5849  index != MEMBER_N_FOUND */\n      eq\n      iszero\n        /* \"contracts/OracleMaster.sol\":5818:5872  require(index != MEMBER_N_FOUND, \"OM: MEMBER_N_FOUND\") */\n      tag_223\n      jumpi\n      mload(0x40)\n      0x08c379a000000000000000000000000000000000000000000000000000000000\n      dup2\n      mstore\n      0x04\n      add\n      tag_224\n      swap1\n      tag_135\n      jump\t// in\n    tag_224:\n      mload(0x40)\n      dup1\n      swap2\n      sub\n      swap1\n      revert\n    tag_223:\n        /* \"contracts/OracleMaster.sol\":5882:5894  uint256 last */\n      0x00\n        /* \"contracts/OracleMaster.sol\":5914:5915  1 */\n      0x01\n        /* \"contracts/OracleMaster.sol\":5897:5904  members */\n      dup1\n        /* \"contracts/OracleMaster.sol\":5897:5911  members.length */\n      dup1\n      sload\n      swap1\n      pop\n        /* \"contracts/OracleMaster.sol\":5897:5915  members.length - 1 */\n      tag_225\n      swap2\n      swap1\n      tag_226\n      jump\t// in\n    tag_225:\n        /* \"contracts/OracleMaster.sol\":5882:5915  uint256 last = members.length - 1 */\n      swap1\n      pop\n        /* \"contracts/OracleMaster.sol\":5938:5942  last */\n      dup1\n        /* \"contracts/OracleMaster.sol\":5929:5934  index */\n      dup3\n        /* \"contracts/OracleMaster.sol\":5929:5942  index != last */\n      eq\n        /* \"contracts/OracleMaster.sol\":5925:5974  if (index != last) members[index] = members[last] */\n      tag_227\n      jumpi\n        /* \"contracts/OracleMaster.sol\":5961:5968  members */\n      0x01\n        /* \"contracts/OracleMaster.sol\":5969:5973  last */\n      dup2\n        /* \"contracts/OracleMaster.sol\":5961:5974  members[last] */\n      dup2\n      sload\n      dup2\n      lt\n      tag_228\n      jumpi\n      tag_229\n      tag_230\n      jump\t// in\n    tag_229:\n    tag_228:\n      swap1\n      0x00\n      mstore\n      keccak256(0x00, 0x20)\n      add\n      0x00\n      swap1\n      sload\n      swap1\n      0x0100\n      exp\n      swap1\n      div\n      0xffffffffffffffffffffffffffffffffffffffff\n      and\n        /* \"contracts/OracleMaster.sol\":5944:5951  members */\n      0x01\n        /* \"contracts/OracleMaster.sol\":5952:5957  index */\n      dup4\n        /* \"contracts/OracleMaster.sol\":5944:5958  members[index] */\n      dup2\n      sload\n      dup2\n      lt\n      tag_232\n      jumpi\n      tag_233\n      tag_230\n      jump\t// in\n    tag_233:\n    tag_232:\n      swap1\n      0x00\n      mstore\n      keccak256(0x00, 0x20)\n      add\n      0x00\n        /* \"contracts/OracleMaster.sol\":5944:5974  members[index] = members[last] */\n      0x0100\n      exp\n      dup2\n      sload\n      dup2\n      0xffffffffffffffffffffffffffffffffffffffff\n      mul\n      not\n      and\n      swap1\n      dup4\n      0xffffffffffffffffffffffffffffffffffffffff\n      and\n      mul\n      or\n      swap1\n      sstore\n      pop\n        /* \"contracts/OracleMaster.sol\":5925:5974  if (index != last) members[index] = members[last] */\n    tag_227:\n        /* \"contracts/OracleMaster.sol\":5984:5991  members */\n      0x01\n        /* \"contracts/OracleMaster.sol\":5984:5997  members.pop() */\n      dup1\n      sload\n      dup1\n      tag_235\n      jumpi\n      tag_236\n      tag_237\n      jump\t// in\n    tag_236:\n    tag_235:\n      0x01\n      swap1\n      sub\n      dup2\n      dup2\n      swap1\n      0x00\n      mstore\n      keccak256(0x00, 0x20)\n      add\n      exp(0x0100, 0x00)\n      dup2\n      sload\n      swap1\n      0xffffffffffffffffffffffffffffffffffffffff\n      mul\n      not\n      and\n      swap1\n      sstore\n      swap1\n      sstore\n        /* \"contracts/OracleMaster.sol\":6012:6034  MemberRemoved(_member) */\n      0x6e76fb4c77256006d9c38ec7d82b45a8c8f3c27b1d6766fffc42dfb8de684492\n        /* \"contracts/OracleMaster.sol\":6026:6033  _member */\n      dup5\n        /* \"contracts/OracleMaster.sol\":6012:6034  MemberRemoved(_member) */\n      mload(0x40)\n      tag_239\n      swap2\n      swap1\n      tag_31\n      jump\t// in\n    tag_239:\n      mload(0x40)\n      dup1\n      swap2\n      sub\n      swap1\n      log1\n        /* \"contracts/OracleMaster.sol\":6129:6146  _clearReporting() */\n      tag_240\n        /* \"contracts/OracleMaster.sol\":6129:6144  _clearReporting */\n      tag_144\n        /* \"contracts/OracleMaster.sol\":6129:6146  _clearReporting() */\n      jump\t// in\n    tag_240:\n        /* \"contracts/OracleMaster.sol\":5761:6153  {... */\n      pop\n      pop\n        /* \"contracts/OracleMaster.sol\":5653:6153  function removeOracleMember(address _member)... */\n      pop\n      pop\n      jump\t// out\n        /* \"@openzeppelin/contracts/security/Pausable.sol\":2433:2550  function _unpause() internal virtual whenPaused {... */\n    tag_104:\n        /* \"@openzeppelin/contracts/security/Pausable.sol\":1486:1502  _requirePaused() */\n      tag_242\n        /* \"@openzeppelin/contracts/security/Pausable.sol\":1486:1500  _requirePaused */\n      tag_243\n        /* \"@openzeppelin/contracts/security/Pausable.sol\":1486:1502  _requirePaused() */\n      jump\t// in\n    tag_242:\n        /* \"@openzeppelin/contracts/security/Pausable.sol\":2501:2506  false */\n      0x00\n        /* \"@openzeppelin/contracts/security/Pausable.sol\":2491:2498  _paused */\n      dup1\n      0x00\n        /* \"@openzeppelin/contracts/security/Pausable.sol\":2491:2506  _paused = false */\n      0x0100\n      exp\n      dup2\n      sload\n      dup2\n      0xff\n      mul\n      not\n      and\n      swap1\n      dup4\n      iszero\n      iszero\n      mul\n      or\n      swap1\n      sstore\n      pop\n        /* \"@openzeppelin/contracts/security/Pausable.sol\":2521:2543  Unpaused(_msgSender()) */\n      0x5db9ee0a495bf2e6ff9c91a7834c1ba4fdd244a5e8aa4e537bd38aeae4b073aa\n        /* \"@openzeppelin/contracts/security/Pausable.sol\":2530:2542  _msgSender() */\n      tag_245\n        /* \"@openzeppelin/contracts/security/Pausable.sol\":2530:2540  _msgSender */\n      tag_246\n        /* \"@openzeppelin/contracts/security/Pausable.sol\":2530:2542  _msgSender() */\n      jump\t// in\n    tag_245:\n        /* \"@openzeppelin/contracts/security/Pausable.sol\":2521:2543  Unpaused(_msgSender()) */\n      mload(0x40)\n      tag_247\n      swap2\n      swap1\n      tag_31\n      jump\t// in\n    tag_247:\n      mload(0x40)\n      dup1\n      swap2\n      sub\n      swap1\n      log1\n        /* \"@openzeppelin/contracts/security/Pausable.sol\":2433:2550  function _unpause() internal virtual whenPaused {... */\n      jump\t// out\n        /* \"@openzeppelin/contracts/utils/Address.sol\":1175:1495  function isContract(address account) internal view returns (bool) {... */\n    tag_110:\n        /* \"@openzeppelin/contracts/utils/Address.sol\":1235:1239  bool */\n      0x00\n        /* \"@openzeppelin/contracts/utils/Address.sol\":1487:1488  0 */\n      dup1\n        /* \"@openzeppelin/contracts/utils/Address.sol\":1465:1472  account */\n      dup3\n        /* \"@openzeppelin/contracts/utils/Address.sol\":1465:1484  account.code.length */\n      0xffffffffffffffffffffffffffffffffffffffff\n      and\n      extcodesize\n        /* \"@openzeppelin/contracts/utils/Address.sol\":1465:1488  account.code.length > 0 */\n      gt\n        /* \"@openzeppelin/contracts/utils/Address.sol\":1458:1488  return account.code.length > 0 */\n      swap1\n      pop\n        /* \"@openzeppelin/contracts/utils/Address.sol\":1175:1495  function isContract(address account) internal view returns (bool) {... */\n      swap2\n      swap1\n      pop\n      jump\t// out\n        /* \"@openzeppelin/contracts/security/Pausable.sol\":1767:1873  function _requireNotPaused() internal view virtual {... */\n    tag_129:\n        /* \"@openzeppelin/contracts/security/Pausable.sol\":1837:1845  paused() */\n      tag_250\n        /* \"@openzeppelin/contracts/security/Pausable.sol\":1837:1843  paused */\n      tag_55\n        /* \"@openzeppelin/contracts/security/Pausable.sol\":1837:1845  paused() */\n      jump\t// in\n    tag_250:\n        /* \"@openzeppelin/contracts/security/Pausable.sol\":1836:1845  !paused() */\n      iszero\n        /* \"@openzeppelin/contracts/security/Pausable.sol\":1828:1866  require(!paused(), \"Pausable: paused\") */\n      tag_251\n      jumpi\n      mload(0x40)\n      0x08c379a000000000000000000000000000000000000000000000000000000000\n      dup2\n      mstore\n      0x04\n      add\n      tag_252\n      swap1\n      tag_253\n      jump\t// in\n    tag_252:\n      mload(0x40)\n      dup1\n      swap2\n      sub\n      swap1\n      revert\n    tag_251:\n        /* \"@openzeppelin/contracts/security/Pausable.sol\":1767:1873  function _requireNotPaused() internal view virtual {... */\n      jump\t// out\n        /* \"contracts/OracleMaster.sol\":7106:7394  function _getMemberId(address _member) internal view returns (uint256) {... */\n    tag_132:\n        /* \"contracts/OracleMaster.sol\":7168:7175  uint256 */\n      0x00\n        /* \"contracts/OracleMaster.sol\":7187:7201  uint256 length */\n      dup1\n        /* \"contracts/OracleMaster.sol\":7204:7211  members */\n      0x01\n        /* \"contracts/OracleMaster.sol\":7204:7218  members.length */\n      dup1\n      sload\n      swap1\n      pop\n        /* \"contracts/OracleMaster.sol\":7187:7218  uint256 length = members.length */\n      swap1\n      pop\n        /* \"contracts/OracleMaster.sol\":7233:7242  uint256 i */\n      0x00\n        /* \"contracts/OracleMaster.sol\":7228:7357  for (uint256 i = 0; i < length; ++i) {... */\n    tag_255:\n        /* \"contracts/OracleMaster.sol\":7252:7258  length */\n      dup2\n        /* \"contracts/OracleMaster.sol\":7248:7249  i */\n      dup2\n        /* \"contracts/OracleMaster.sol\":7248:7258  i < length */\n      lt\n        /* \"contracts/OracleMaster.sol\":7228:7357  for (uint256 i = 0; i < length; ++i) {... */\n      iszero\n      tag_256\n      jumpi\n        /* \"contracts/OracleMaster.sol\":7297:7304  _member */\n      dup4\n        /* \"contracts/OracleMaster.sol\":7283:7304  members[i] == _member */\n      0xffffffffffffffffffffffffffffffffffffffff\n      and\n        /* \"contracts/OracleMaster.sol\":7283:7290  members */\n      0x01\n        /* \"contracts/OracleMaster.sol\":7291:7292  i */\n      dup3\n        /* \"contracts/OracleMaster.sol\":7283:7293  members[i] */\n      dup2\n      sload\n      dup2\n      lt\n      tag_258\n      jumpi\n      tag_259\n      tag_230\n      jump\t// in\n    tag_259:\n    tag_258:\n      swap1\n      0x00\n      mstore\n      keccak256(0x00, 0x20)\n      add\n      0x00\n      swap1\n      sload\n      swap1\n      0x0100\n      exp\n      swap1\n      div\n      0xffffffffffffffffffffffffffffffffffffffff\n      and\n        /* \"contracts/OracleMaster.sol\":7283:7304  members[i] == _member */\n      0xffffffffffffffffffffffffffffffffffffffff\n      and\n      eq\n        /* \"contracts/OracleMaster.sol\":7279:7347  if (members[i] == _member) {... */\n      iszero\n      tag_261\n      jumpi\n        /* \"contracts/OracleMaster.sol\":7331:7332  i */\n      dup1\n        /* \"contracts/OracleMaster.sol\":7324:7332  return i */\n      swap3\n      pop\n      pop\n      pop\n      jump(tag_254)\n        /* \"contracts/OracleMaster.sol\":7279:7347  if (members[i] == _member) {... */\n    tag_261:\n        /* \"contracts/OracleMaster.sol\":7260:7263  ++i */\n      dup1\n      tag_262\n      swap1\n      tag_263\n      jump\t// in\n    tag_262:\n      swap1\n      pop\n        /* \"contracts/OracleMaster.sol\":7228:7357  for (uint256 i = 0; i < length; ++i) {... */\n      jump(tag_255)\n    tag_256:\n      pop\n        /* \"contracts/OracleMaster.sol\":1151:1168  type(uint256).max */\n      0xffffffffffffffffffffffffffffffffffffffffffffffffffffffffffffffff\n        /* \"contracts/OracleMaster.sol\":7366:7387  return MEMBER_N_FOUND */\n      swap2\n      pop\n      pop\n        /* \"contracts/OracleMaster.sol\":7106:7394  function _getMemberId(address _member) internal view returns (uint256) {... */\n    tag_254:\n      swap2\n      swap1\n      pop\n      jump\t// out\n        /* \"contracts/OracleMaster.sol\":7504:7589  function _clearReporting() internal {... */\n    tag_144:\n        /* \"contracts/OracleMaster.sol\":7558:7564  ORACLE */\n      0x04\n      0x00\n      swap1\n      sload\n      swap1\n      0x0100\n      exp\n      swap1\n      div\n      0xffffffffffffffffffffffffffffffffffffffff\n      and\n        /* \"contracts/OracleMaster.sol\":7550:7580  IOracle(ORACLE).clearReporting */\n      0xffffffffffffffffffffffffffffffffffffffff\n      and\n      0xb75b518c\n        /* \"contracts/OracleMaster.sol\":7550:7582  IOracle(ORACLE).clearReporting() */\n      mload(0x40)\n      dup2\n      0xffffffff\n      and\n      0xe0\n      shl\n      dup2\n      mstore\n      0x04\n      add\n      0x00\n      mload(0x40)\n      dup1\n      dup4\n      sub\n      dup2\n      0x00\n      dup8\n      dup1\n      extcodesize\n      iszero\n      dup1\n      iszero\n      tag_265\n      jumpi\n      0x00\n      dup1\n      revert\n    tag_265:\n      pop\n      gas\n      call\n      iszero\n      dup1\n      iszero\n      tag_267\n      jumpi\n      returndatasize\n      0x00\n      dup1\n      returndatacopy\n      revert(0x00, returndatasize)\n    tag_267:\n      pop\n      pop\n      pop\n      pop\n        /* \"contracts/OracleMaster.sol\":7504:7589  function _clearReporting() internal {... */\n      jump\t// out\n        /* \"@openzeppelin/contracts/security/Pausable.sol\":2186:2301  function _pause() internal virtual whenNotPaused {... */\n    tag_183:\n        /* \"@openzeppelin/contracts/security/Pausable.sol\":1239:1258  _requireNotPaused() */\n      tag_269\n        /* \"@openzeppelin/contracts/security/Pausable.sol\":1239:1256  _requireNotPaused */\n      tag_129\n        /* \"@openzeppelin/contracts/security/Pausable.sol\":1239:1258  _requireNotPaused() */\n      jump\t// in\n    tag_269:\n        /* \"@openzeppelin/contracts/security/Pausable.sol\":2255:2259  true */\n      0x01\n        /* \"@openzeppelin/contracts/security/Pausable.sol\":2245:2252  _paused */\n      0x00\n      dup1\n        /* \"@openzeppelin/contracts/security/Pausable.sol\":2245:2259  _paused = true */\n      0x0100\n      exp\n      dup2\n      sload\n      dup2\n      0xff\n      mul\n      not\n      and\n      swap1\n      dup4\n      iszero\n      iszero\n      mul\n      or\n      swap1\n      sstore\n      pop\n        /* \"@openzeppelin/contracts/security/Pausable.sol\":2274:2294  Paused(_msgSender()) */\n      0x62e78cea01bee320cd4e420270b5ea74000d11b0c9f74754ebdbfc544b05a258\n        /* \"@openzeppelin/contracts/security/Pausable.sol\":2281:2293  _msgSender() */\n      tag_271\n        /* \"@openzeppelin/contracts/security/Pausable.sol\":2281:2291  _msgSender */\n      tag_246\n        /* \"@openzeppelin/contracts/security/Pausable.sol\":2281:2293  _msgSender() */\n      jump\t// in\n    tag_271:\n        /* \"@openzeppelin/contracts/security/Pausable.sol\":2274:2294  Paused(_msgSender()) */\n      mload(0x40)\n      tag_272\n      swap2\n      swap1\n      tag_31\n      jump\t// in\n    tag_272:\n      mload(0x40)\n      dup1\n      swap2\n      sub\n      swap1\n      log1\n        /* \"@openzeppelin/contracts/security/Pausable.sol\":2186:2301  function _pause() internal virtual whenNotPaused {... */\n      jump\t// out\n        /* \"@openzeppelin/contracts/security/Pausable.sol\":1945:2051  function _requirePaused() internal view virtual {... */\n    tag_243:\n        /* \"@openzeppelin/contracts/security/Pausable.sol\":2011:2019  paused() */\n      tag_274\n        /* \"@openzeppelin/contracts/security/Pausable.sol\":2011:2017  paused */\n      tag_55\n        /* \"@openzeppelin/contracts/security/Pausable.sol\":2011:2019  paused() */\n      jump\t// in\n    tag_274:\n        /* \"@openzeppelin/contracts/security/Pausable.sol\":2003:2044  require(paused(), \"Pausable: not paused\") */\n      tag_275\n      jumpi\n      mload(0x40)\n      0x08c379a000000000000000000000000000000000000000000000000000000000\n      dup2\n      mstore\n      0x04\n      add\n      tag_276\n      swap1\n      tag_277\n      jump\t// in\n    tag_276:\n      mload(0x40)\n      dup1\n      swap2\n      sub\n      swap1\n      revert\n    tag_275:\n        /* \"@openzeppelin/contracts/security/Pausable.sol\":1945:2051  function _requirePaused() internal view virtual {... */\n      jump\t// out\n        /* \"@openzeppelin/contracts/utils/Context.sol\":640:736  function _msgSender() internal view virtual returns (address) {... */\n    tag_246:\n        /* \"@openzeppelin/contracts/utils/Context.sol\":693:700  address */\n      0x00\n        /* \"@openzeppelin/contracts/utils/Context.sol\":719:729  msg.sender */\n      caller\n        /* \"@openzeppelin/contracts/utils/Context.sol\":712:729  return msg.sender */\n      swap1\n      pop\n        /* \"@openzeppelin/contracts/utils/Context.sol\":640:736  function _msgSender() internal view virtual returns (address) {... */\n      swap1\n      jump\t// out\n        /* \"#utility.yul\":7:146   */\n    tag_280:\n        /* \"#utility.yul\":53:58   */\n      0x00\n        /* \"#utility.yul\":91:97   */\n      dup2\n        /* \"#utility.yul\":78:98   */\n      calldataload\n        /* \"#utility.yul\":69:98   */\n      swap1\n      pop\n        /* \"#utility.yul\":107:140   */\n      tag_282\n        /* \"#utility.yul\":134:139   */\n      dup2\n        /* \"#utility.yul\":107:140   */\n      tag_283\n      jump\t// in\n    tag_282:\n        /* \"#utility.yul\":7:146   */\n      swap3\n      swap2\n      pop\n      pop\n      jump\t// out\n        /* \"#utility.yul\":152:307   */\n    tag_284:\n        /* \"#utility.yul\":206:211   */\n      0x00\n        /* \"#utility.yul\":244:250   */\n      dup2\n        /* \"#utility.yul\":231:251   */\n      calldataload\n        /* \"#utility.yul\":222:251   */\n      swap1\n      pop\n        /* \"#utility.yul\":260:301   */\n      tag_286\n        /* \"#utility.yul\":295:300   */\n      dup2\n        /* \"#utility.yul\":260:301   */\n      tag_287\n      jump\t// in\n    tag_286:\n        /* \"#utility.yul\":152:307   */\n      swap3\n      swap2\n      pop\n      pop\n      jump\t// out\n        /* \"#utility.yul\":313:446   */\n    tag_288:\n        /* \"#utility.yul\":356:361   */\n      0x00\n        /* \"#utility.yul\":394:400   */\n      dup2\n        /* \"#utility.yul\":381:401   */\n      calldataload\n        /* \"#utility.yul\":372:401   */\n      swap1\n      pop\n        /* \"#utility.yul\":410:440   */\n      tag_290\n        /* \"#utility.yul\":434:439   */\n      dup2\n        /* \"#utility.yul\":410:440   */\n      tag_291\n      jump\t// in\n    tag_290:\n        /* \"#utility.yul\":313:446   */\n      swap3\n      swap2\n      pop\n      pop\n      jump\t// out\n        /* \"#utility.yul\":452:589   */\n    tag_292:\n        /* \"#utility.yul\":506:511   */\n      0x00\n        /* \"#utility.yul\":537:543   */\n      dup2\n        /* \"#utility.yul\":531:544   */\n      mload\n        /* \"#utility.yul\":522:544   */\n      swap1\n      pop\n        /* \"#utility.yul\":553:583   */\n      tag_294\n        /* \"#utility.yul\":577:582   */\n      dup2\n        /* \"#utility.yul\":553:583   */\n      tag_291\n      jump\t// in\n    tag_294:\n        /* \"#utility.yul\":452:589   */\n      swap3\n      swap2\n      pop\n      pop\n      jump\t// out\n        /* \"#utility.yul\":595:734   */\n    tag_295:\n        /* \"#utility.yul\":641:646   */\n      0x00\n        /* \"#utility.yul\":679:685   */\n      dup2\n        /* \"#utility.yul\":666:686   */\n      calldataload\n        /* \"#utility.yul\":657:686   */\n      swap1\n      pop\n        /* \"#utility.yul\":695:728   */\n      tag_297\n        /* \"#utility.yul\":722:727   */\n      dup2\n        /* \"#utility.yul\":695:728   */\n      tag_298\n      jump\t// in\n    tag_297:\n        /* \"#utility.yul\":595:734   */\n      swap3\n      swap2\n      pop\n      pop\n      jump\t// out\n        /* \"#utility.yul\":771:1006   */\n    tag_299:\n        /* \"#utility.yul\":847:852   */\n      0x00\n        /* \"#utility.yul\":888:891   */\n      0x0100\n        /* \"#utility.yul\":879:885   */\n      dup3\n        /* \"#utility.yul\":874:877   */\n      dup5\n        /* \"#utility.yul\":870:886   */\n      sub\n        /* \"#utility.yul\":866:892   */\n      slt\n        /* \"#utility.yul\":863:976   */\n      iszero\n      tag_301\n      jumpi\n        /* \"#utility.yul\":895:974   */\n      tag_302\n      tag_303\n      jump\t// in\n    tag_302:\n        /* \"#utility.yul\":863:976   */\n    tag_301:\n        /* \"#utility.yul\":994:1000   */\n      dup2\n        /* \"#utility.yul\":985:1000   */\n      swap1\n      pop\n        /* \"#utility.yul\":771:1006   */\n      swap3\n      swap2\n      pop\n      pop\n      jump\t// out\n        /* \"#utility.yul\":1012:1151   */\n    tag_304:\n        /* \"#utility.yul\":1058:1063   */\n      0x00\n        /* \"#utility.yul\":1096:1102   */\n      dup2\n        /* \"#utility.yul\":1083:1103   */\n      calldataload\n        /* \"#utility.yul\":1074:1103   */\n      swap1\n      pop\n        /* \"#utility.yul\":1112:1145   */\n      tag_306\n        /* \"#utility.yul\":1139:1144   */\n      dup2\n        /* \"#utility.yul\":1112:1145   */\n      tag_307\n      jump\t// in\n    tag_306:\n        /* \"#utility.yul\":1012:1151   */\n      swap3\n      swap2\n      pop\n      pop\n      jump\t// out\n        /* \"#utility.yul\":1157:1296   */\n    tag_308:\n        /* \"#utility.yul\":1203:1208   */\n      0x00\n        /* \"#utility.yul\":1241:1247   */\n      dup2\n        /* \"#utility.yul\":1228:1248   */\n      calldataload\n        /* \"#utility.yul\":1219:1248   */\n      swap1\n      pop\n        /* \"#utility.yul\":1257:1290   */\n      tag_310\n        /* \"#utility.yul\":1284:1289   */\n      dup2\n        /* \"#utility.yul\":1257:1290   */\n      tag_311\n      jump\t// in\n    tag_310:\n        /* \"#utility.yul\":1157:1296   */\n      swap3\n      swap2\n      pop\n      pop\n      jump\t// out\n        /* \"#utility.yul\":1302:1439   */\n    tag_312:\n        /* \"#utility.yul\":1347:1352   */\n      0x00\n        /* \"#utility.yul\":1385:1391   */\n      dup2\n        /* \"#utility.yul\":1372:1392   */\n      calldataload\n        /* \"#utility.yul\":1363:1392   */\n      swap1\n      pop\n        /* \"#utility.yul\":1401:1433   */\n      tag_314\n        /* \"#utility.yul\":1427:1432   */\n      dup2\n        /* \"#utility.yul\":1401:1433   */\n      tag_315\n      jump\t// in\n    tag_314:\n        /* \"#utility.yul\":1302:1439   */\n      swap3\n      swap2\n      pop\n      pop\n      jump\t// out\n        /* \"#utility.yul\":1445:1580   */\n    tag_316:\n        /* \"#utility.yul\":1489:1494   */\n      0x00\n        /* \"#utility.yul\":1527:1533   */\n      dup2\n        /* \"#utility.yul\":1514:1534   */\n      calldataload\n        /* \"#utility.yul\":1505:1534   */\n      swap1\n      pop\n        /* \"#utility.yul\":1543:1574   */\n      tag_318\n        /* \"#utility.yul\":1568:1573   */\n      dup2\n        /* \"#utility.yul\":1543:1574   */\n      tag_319\n      jump\t// in\n    tag_318:\n        /* \"#utility.yul\":1445:1580   */\n      swap3\n      swap2\n      pop\n      pop\n      jump\t// out\n        /* \"#utility.yul\":1586:1915   */\n    tag_28:\n        /* \"#utility.yul\":1645:1651   */\n      0x00\n        /* \"#utility.yul\":1694:1696   */\n      0x20\n        /* \"#utility.yul\":1682:1691   */\n      dup3\n        /* \"#utility.yul\":1673:1680   */\n      dup5\n        /* \"#utility.yul\":1669:1692   */\n      sub\n        /* \"#utility.yul\":1665:1697   */\n      slt\n        /* \"#utility.yul\":1662:1781   */\n      iszero\n      tag_321\n      jumpi\n        /* \"#utility.yul\":1700:1779   */\n      tag_322\n      tag_323\n      jump\t// in\n    tag_322:\n        /* \"#utility.yul\":1662:1781   */\n    tag_321:\n        /* \"#utility.yul\":1820:1821   */\n      0x00\n        /* \"#utility.yul\":1845:1898   */\n      tag_324\n        /* \"#utility.yul\":1890:1897   */\n      dup5\n        /* \"#utility.yul\":1881:1887   */\n      dup3\n        /* \"#utility.yul\":1870:1879   */\n      dup6\n        /* \"#utility.yul\":1866:1888   */\n      add\n        /* \"#utility.yul\":1845:1898   */\n      tag_280\n      jump\t// in\n    tag_324:\n        /* \"#utility.yul\":1835:1898   */\n      swap2\n      pop\n        /* \"#utility.yul\":1791:1908   */\n      pop\n        /* \"#utility.yul\":1586:1915   */\n      swap3\n      swap2\n      pop\n      pop\n      jump\t// out\n        /* \"#utility.yul\":1921:2698   */\n    tag_38:\n        /* \"#utility.yul\":2013:2019   */\n      0x00\n        /* \"#utility.yul\":2021:2027   */\n      dup1\n        /* \"#utility.yul\":2029:2035   */\n      0x00\n        /* \"#utility.yul\":2037:2043   */\n      dup1\n        /* \"#utility.yul\":2086:2089   */\n      0x80\n        /* \"#utility.yul\":2074:2083   */\n      dup6\n        /* \"#utility.yul\":2065:2072   */\n      dup8\n        /* \"#utility.yul\":2061:2084   */\n      sub\n        /* \"#utility.yul\":2057:2090   */\n      slt\n        /* \"#utility.yul\":2054:2174   */\n      iszero\n      tag_326\n      jumpi\n        /* \"#utility.yul\":2093:2172   */\n      tag_327\n      tag_323\n      jump\t// in\n    tag_327:\n        /* \"#utility.yul\":2054:2174   */\n    tag_326:\n        /* \"#utility.yul\":2213:2214   */\n      0x00\n        /* \"#utility.yul\":2238:2291   */\n      tag_328\n        /* \"#utility.yul\":2283:2290   */\n      dup8\n        /* \"#utility.yul\":2274:2280   */\n      dup3\n        /* \"#utility.yul\":2263:2272   */\n      dup9\n        /* \"#utility.yul\":2259:2281   */\n      add\n        /* \"#utility.yul\":2238:2291   */\n      tag_280\n      jump\t// in\n    tag_328:\n        /* \"#utility.yul\":2228:2291   */\n      swap5\n      pop\n        /* \"#utility.yul\":2184:2301   */\n      pop\n        /* \"#utility.yul\":2340:2342   */\n      0x20\n        /* \"#utility.yul\":2366:2419   */\n      tag_329\n        /* \"#utility.yul\":2411:2418   */\n      dup8\n        /* \"#utility.yul\":2402:2408   */\n      dup3\n        /* \"#utility.yul\":2391:2400   */\n      dup9\n        /* \"#utility.yul\":2387:2409   */\n      add\n        /* \"#utility.yul\":2366:2419   */\n      tag_280\n      jump\t// in\n    tag_329:\n        /* \"#utility.yul\":2356:2419   */\n      swap4\n      pop\n        /* \"#utility.yul\":2311:2429   */\n      pop\n        /* \"#utility.yul\":2468:2470   */\n      0x40\n        /* \"#utility.yul\":2494:2555   */\n      tag_330\n        /* \"#utility.yul\":2547:2554   */\n      dup8\n        /* \"#utility.yul\":2538:2544   */\n      dup3\n        /* \"#utility.yul\":2527:2536   */\n      dup9\n        /* \"#utility.yul\":2523:2545   */\n      add\n        /* \"#utility.yul\":2494:2555   */\n      tag_284\n      jump\t// in\n    tag_330:\n        /* \"#utility.yul\":2484:2555   */\n      swap3\n      pop\n        /* \"#utility.yul\":2439:2565   */\n      pop\n        /* \"#utility.yul\":2604:2606   */\n      0x60\n        /* \"#utility.yul\":2630:2681   */\n      tag_331\n        /* \"#utility.yul\":2673:2680   */\n      dup8\n        /* \"#utility.yul\":2664:2670   */\n      dup3\n        /* \"#utility.yul\":2653:2662   */\n      dup9\n        /* \"#utility.yul\":2649:2671   */\n      add\n        /* \"#utility.yul\":2630:2681   */\n      tag_316\n      jump\t// in\n    tag_331:\n        /* \"#utility.yul\":2620:2681   */\n      swap2\n      pop\n        /* \"#utility.yul\":2575:2691   */\n      pop\n        /* \"#utility.yul\":1921:2698   */\n      swap3\n      swap6\n      swap2\n      swap5\n      pop\n      swap3\n      pop\n      jump\t// out\n        /* \"#utility.yul\":2704:3049   */\n    tag_98:\n        /* \"#utility.yul\":2771:2777   */\n      0x00\n        /* \"#utility.yul\":2820:2822   */\n      0x20\n        /* \"#utility.yul\":2808:2817   */\n      dup3\n        /* \"#utility.yul\":2799:2806   */\n      dup5\n        /* \"#utility.yul\":2795:2818   */\n      sub\n        /* \"#utility.yul\":2791:2823   */\n      slt\n        /* \"#utility.yul\":2788:2907   */\n      iszero\n      tag_333\n      jumpi\n        /* \"#utility.yul\":2826:2905   */\n      tag_334\n      tag_323\n      jump\t// in\n    tag_334:\n        /* \"#utility.yul\":2788:2907   */\n    tag_333:\n        /* \"#utility.yul\":2946:2947   */\n      0x00\n        /* \"#utility.yul\":2971:3032   */\n      tag_335\n        /* \"#utility.yul\":3024:3031   */\n      dup5\n        /* \"#utility.yul\":3015:3021   */\n      dup3\n        /* \"#utility.yul\":3004:3013   */\n      dup6\n        /* \"#utility.yul\":3000:3022   */\n      add\n        /* \"#utility.yul\":2971:3032   */\n      tag_292\n      jump\t// in\n    tag_335:\n        /* \"#utility.yul\":2961:3032   */\n      swap2\n      pop\n        /* \"#utility.yul\":2917:3042   */\n      pop\n        /* \"#utility.yul\":2704:3049   */\n      swap3\n      swap2\n      pop\n      pop\n      jump\t// out\n        /* \"#utility.yul\":3055:3384   */\n    tag_60:\n        /* \"#utility.yul\":3114:3120   */\n      0x00\n        /* \"#utility.yul\":3163:3165   */\n      0x20\n        /* \"#utility.yul\":3151:3160   */\n      dup3\n        /* \"#utility.yul\":3142:3149   */\n      dup5\n        /* \"#utility.yul\":3138:3161   */\n      sub\n        /* \"#utility.yul\":3134:3166   */\n      slt\n        /* \"#utility.yul\":3131:3250   */\n      iszero\n      tag_337\n      jumpi\n        /* \"#utility.yul\":3169:3248   */\n      tag_338\n      tag_323\n      jump\t// in\n    tag_338:\n        /* \"#utility.yul\":3131:3250   */\n    tag_337:\n        /* \"#utility.yul\":3289:3290   */\n      0x00\n        /* \"#utility.yul\":3314:3367   */\n      tag_339\n        /* \"#utility.yul\":3359:3366   */\n      dup5\n        /* \"#utility.yul\":3350:3356   */\n      dup3\n        /* \"#utility.yul\":3339:3348   */\n      dup6\n        /* \"#utility.yul\":3335:3357   */\n      add\n        /* \"#utility.yul\":3314:3367   */\n      tag_308\n      jump\t// in\n    tag_339:\n        /* \"#utility.yul\":3304:3367   */\n      swap2\n      pop\n        /* \"#utility.yul\":3260:3377   */\n      pop\n        /* \"#utility.yul\":3055:3384   */\n      swap3\n      swap2\n      pop\n      pop\n      jump\t// out\n        /* \"#utility.yul\":3390:4082   */\n    tag_52:\n        /* \"#utility.yul\":3487:3493   */\n      0x00\n        /* \"#utility.yul\":3495:3501   */\n      dup1\n        /* \"#utility.yul\":3544:3546   */\n      0x40\n        /* \"#utility.yul\":3532:3541   */\n      dup4\n        /* \"#utility.yul\":3523:3530   */\n      dup6\n        /* \"#utility.yul\":3519:3542   */\n      sub\n        /* \"#utility.yul\":3515:3547   */\n      slt\n        /* \"#utility.yul\":3512:3631   */\n      iszero\n      tag_341\n      jumpi\n        /* \"#utility.yul\":3550:3629   */\n      tag_342\n      tag_323\n      jump\t// in\n    tag_342:\n        /* \"#utility.yul\":3512:3631   */\n    tag_341:\n        /* \"#utility.yul\":3670:3671   */\n      0x00\n        /* \"#utility.yul\":3695:3747   */\n      tag_343\n        /* \"#utility.yul\":3739:3746   */\n      dup6\n        /* \"#utility.yul\":3730:3736   */\n      dup3\n        /* \"#utility.yul\":3719:3728   */\n      dup7\n        /* \"#utility.yul\":3715:3737   */\n      add\n        /* \"#utility.yul\":3695:3747   */\n      tag_312\n      jump\t// in\n    tag_343:\n        /* \"#utility.yul\":3685:3747   */\n      swap3\n      pop\n        /* \"#utility.yul\":3641:3757   */\n      pop\n        /* \"#utility.yul\":3824:3826   */\n      0x20\n        /* \"#utility.yul\":3813:3822   */\n      dup4\n        /* \"#utility.yul\":3809:3827   */\n      add\n        /* \"#utility.yul\":3796:3828   */\n      calldataload\n        /* \"#utility.yul\":3855:3873   */\n      0xffffffffffffffff\n        /* \"#utility.yul\":3847:3853   */\n      dup2\n        /* \"#utility.yul\":3844:3874   */\n      gt\n        /* \"#utility.yul\":3841:3958   */\n      iszero\n      tag_344\n      jumpi\n        /* \"#utility.yul\":3877:3956   */\n      tag_345\n      tag_346\n      jump\t// in\n    tag_345:\n        /* \"#utility.yul\":3841:3958   */\n    tag_344:\n        /* \"#utility.yul\":3982:4065   */\n      tag_347\n        /* \"#utility.yul\":4057:4064   */\n      dup6\n        /* \"#utility.yul\":4048:4054   */\n      dup3\n        /* \"#utility.yul\":4037:4046   */\n      dup7\n        /* \"#utility.yul\":4033:4055   */\n      add\n        /* \"#utility.yul\":3982:4065   */\n      tag_299\n      jump\t// in\n    tag_347:\n        /* \"#utility.yul\":3972:4065   */\n      swap2\n      pop\n        /* \"#utility.yul\":3767:4075   */\n      pop\n        /* \"#utility.yul\":3390:4082   */\n      swap3\n      pop\n      swap3\n      swap1\n      pop\n      jump\t// out\n        /* \"#utility.yul\":4088:4413   */\n    tag_65:\n        /* \"#utility.yul\":4145:4151   */\n      0x00\n        /* \"#utility.yul\":4194:4196   */\n      0x20\n        /* \"#utility.yul\":4182:4191   */\n      dup3\n        /* \"#utility.yul\":4173:4180   */\n      dup5\n        /* \"#utility.yul\":4169:4192   */\n      sub\n        /* \"#utility.yul\":4165:4197   */\n      slt\n        /* \"#utility.yul\":4162:4281   */\n      iszero\n      tag_349\n      jumpi\n        /* \"#utility.yul\":4200:4279   */\n      tag_350\n      tag_323\n      jump\t// in\n    tag_350:\n        /* \"#utility.yul\":4162:4281   */\n    tag_349:\n        /* \"#utility.yul\":4320:4321   */\n      0x00\n        /* \"#utility.yul\":4345:4396   */\n      tag_351\n        /* \"#utility.yul\":4388:4395   */\n      dup5\n        /* \"#utility.yul\":4379:4385   */\n      dup3\n        /* \"#utility.yul\":4368:4377   */\n      dup6\n        /* \"#utility.yul\":4364:4386   */\n      add\n        /* \"#utility.yul\":4345:4396   */\n      tag_316\n      jump\t// in\n    tag_351:\n        /* \"#utility.yul\":4335:4396   */\n      swap2\n      pop\n        /* \"#utility.yul\":4291:4406   */\n      pop\n        /* \"#utility.yul\":4088:4413   */\n      swap3\n      swap2\n      pop\n      pop\n      jump\t// out\n        /* \"#utility.yul\":4419:4699   */\n    tag_352:\n        /* \"#utility.yul\":4550:4560   */\n      0x00\n        /* \"#utility.yul\":4585:4693   */\n      tag_354\n        /* \"#utility.yul\":4689:4692   */\n      dup4\n        /* \"#utility.yul\":4681:4687   */\n      dup4\n        /* \"#utility.yul\":4585:4693   */\n      tag_355\n      jump\t// in\n    tag_354:\n        /* \"#utility.yul\":4571:4693   */\n      swap1\n      pop\n        /* \"#utility.yul\":4419:4699   */\n      swap3\n      swap2\n      pop\n      pop\n      jump\t// out\n        /* \"#utility.yul\":4705:5020   */\n    tag_356:\n        /* \"#utility.yul\":4842:4852   */\n      0x00\n        /* \"#utility.yul\":4863:4977   */\n      tag_358\n        /* \"#utility.yul\":4973:4976   */\n      dup4\n        /* \"#utility.yul\":4965:4971   */\n      dup4\n        /* \"#utility.yul\":4863:4977   */\n      tag_359\n      jump\t// in\n    tag_358:\n        /* \"#utility.yul\":5009:5013   */\n      0x40\n        /* \"#utility.yul\":5004:5007   */\n      dup4\n        /* \"#utility.yul\":5000:5014   */\n      add\n        /* \"#utility.yul\":4986:5014   */\n      swap1\n      pop\n        /* \"#utility.yul\":4705:5020   */\n      swap3\n      swap2\n      pop\n      pop\n      jump\t// out\n        /* \"#utility.yul\":5026:5168   */\n    tag_360:\n        /* \"#utility.yul\":5129:5161   */\n      tag_362\n        /* \"#utility.yul\":5155:5160   */\n      dup2\n        /* \"#utility.yul\":5129:5161   */\n      tag_363\n      jump\t// in\n    tag_362:\n        /* \"#utility.yul\":5124:5127   */\n      dup3\n        /* \"#utility.yul\":5117:5162   */\n      mstore\n        /* \"#utility.yul\":5026:5168   */\n      pop\n      pop\n      jump\t// out\n        /* \"#utility.yul\":5174:5282   */\n    tag_364:\n        /* \"#utility.yul\":5251:5275   */\n      tag_366\n        /* \"#utility.yul\":5269:5274   */\n      dup2\n        /* \"#utility.yul\":5251:5275   */\n      tag_367\n      jump\t// in\n    tag_366:\n        /* \"#utility.yul\":5246:5249   */\n      dup3\n        /* \"#utility.yul\":5239:5276   */\n      mstore\n        /* \"#utility.yul\":5174:5282   */\n      pop\n      pop\n      jump\t// out\n        /* \"#utility.yul\":5288:5406   */\n    tag_368:\n        /* \"#utility.yul\":5375:5399   */\n      tag_370\n        /* \"#utility.yul\":5393:5398   */\n      dup2\n        /* \"#utility.yul\":5375:5399   */\n      tag_367\n      jump\t// in\n    tag_370:\n        /* \"#utility.yul\":5370:5373   */\n      dup3\n        /* \"#utility.yul\":5363:5400   */\n      mstore\n        /* \"#utility.yul\":5288:5406   */\n      pop\n      pop\n      jump\t// out\n        /* \"#utility.yul\":5478:6586   */\n    tag_371:\n        /* \"#utility.yul\":5659:5662   */\n      0x00\n        /* \"#utility.yul\":5682:5788   */\n      tag_373\n        /* \"#utility.yul\":5781:5787   */\n      dup4\n        /* \"#utility.yul\":5776:5779   */\n      dup6\n        /* \"#utility.yul\":5682:5788   */\n      tag_374\n      jump\t// in\n    tag_373:\n        /* \"#utility.yul\":5675:5788   */\n      swap4\n      pop\n        /* \"#utility.yul\":5814:5817   */\n      dup4\n        /* \"#utility.yul\":5859:5863   */\n      0x20\n        /* \"#utility.yul\":5851:5857   */\n      dup5\n        /* \"#utility.yul\":5847:5864   */\n      mul\n        /* \"#utility.yul\":5842:5845   */\n      dup6\n        /* \"#utility.yul\":5838:5865   */\n      add\n        /* \"#utility.yul\":5889:5979   */\n      tag_375\n        /* \"#utility.yul\":5973:5978   */\n      dup5\n        /* \"#utility.yul\":5889:5979   */\n      tag_376\n      jump\t// in\n    tag_375:\n        /* \"#utility.yul\":6002:6009   */\n      dup1\n        /* \"#utility.yul\":6033:6034   */\n      0x00\n        /* \"#utility.yul\":6018:6541   */\n    tag_377:\n        /* \"#utility.yul\":6043:6049   */\n      dup8\n        /* \"#utility.yul\":6040:6041   */\n      dup2\n        /* \"#utility.yul\":6037:6050   */\n      lt\n        /* \"#utility.yul\":6018:6541   */\n      iszero\n      tag_379\n      jumpi\n        /* \"#utility.yul\":6114:6123   */\n      dup5\n        /* \"#utility.yul\":6108:6112   */\n      dup5\n        /* \"#utility.yul\":6104:6124   */\n      sub\n        /* \"#utility.yul\":6099:6102   */\n      dup10\n        /* \"#utility.yul\":6092:6125   */\n      mstore\n        /* \"#utility.yul\":6159:6233   */\n      tag_380\n        /* \"#utility.yul\":6226:6232   */\n      dup3\n        /* \"#utility.yul\":6217:6224   */\n      dup5\n        /* \"#utility.yul\":6159:6233   */\n      tag_381\n      jump\t// in\n    tag_380:\n        /* \"#utility.yul\":6254:6380   */\n      tag_382\n        /* \"#utility.yul\":6375:6379   */\n      dup6\n        /* \"#utility.yul\":6360:6373   */\n      dup3\n        /* \"#utility.yul\":6254:6380   */\n      tag_352\n      jump\t// in\n    tag_382:\n        /* \"#utility.yul\":6246:6380   */\n      swap5\n      pop\n        /* \"#utility.yul\":6403:6497   */\n      tag_383\n        /* \"#utility.yul\":6490:6496   */\n      dup4\n        /* \"#utility.yul\":6403:6497   */\n      tag_384\n      jump\t// in\n    tag_383:\n        /* \"#utility.yul\":6393:6497   */\n      swap3\n      pop\n        /* \"#utility.yul\":6526:6530   */\n      0x20\n        /* \"#utility.yul\":6521:6524   */\n      dup11\n        /* \"#utility.yul\":6517:6531   */\n      add\n        /* \"#utility.yul\":6510:6531   */\n      swap10\n      pop\n        /* \"#utility.yul\":6078:6541   */\n      pop\n        /* \"#utility.yul\":6065:6066   */\n      0x01\n        /* \"#utility.yul\":6062:6063   */\n      dup2\n        /* \"#utility.yul\":6058:6067   */\n      add\n        /* \"#utility.yul\":6053:6067   */\n      swap1\n      pop\n        /* \"#utility.yul\":6018:6541   */\n      jump(tag_377)\n    tag_379:\n        /* \"#utility.yul\":6022:6036   */\n      pop\n        /* \"#utility.yul\":6557:6561   */\n      dup3\n        /* \"#utility.yul\":6550:6561   */\n      swap8\n      pop\n        /* \"#utility.yul\":6577:6580   */\n      dup8\n        /* \"#utility.yul\":6570:6580   */\n      swap5\n      pop\n        /* \"#utility.yul\":5664:6586   */\n      pop\n      pop\n      pop\n      pop\n        /* \"#utility.yul\":5478:6586   */\n      swap4\n      swap3\n      pop\n      pop\n      pop\n      jump\t// out\n        /* \"#utility.yul\":6664:7617   */\n    tag_385:\n        /* \"#utility.yul\":6851:6854   */\n      0x00\n        /* \"#utility.yul\":6874:6983   */\n      tag_387\n        /* \"#utility.yul\":6976:6982   */\n      dup4\n        /* \"#utility.yul\":6971:6974   */\n      dup6\n        /* \"#utility.yul\":6874:6983   */\n      tag_388\n      jump\t// in\n    tag_387:\n        /* \"#utility.yul\":6867:6983   */\n      swap4\n      pop\n        /* \"#utility.yul\":7007:7100   */\n      tag_389\n        /* \"#utility.yul\":7094:7099   */\n      dup3\n        /* \"#utility.yul\":7007:7100   */\n      tag_390\n      jump\t// in\n    tag_389:\n        /* \"#utility.yul\":7123:7130   */\n      dup1\n        /* \"#utility.yul\":7154:7155   */\n      0x00\n        /* \"#utility.yul\":7139:7592   */\n    tag_391:\n        /* \"#utility.yul\":7164:7170   */\n      dup6\n        /* \"#utility.yul\":7161:7162   */\n      dup2\n        /* \"#utility.yul\":7158:7171   */\n      lt\n        /* \"#utility.yul\":7139:7592   */\n      iszero\n      tag_393\n      jumpi\n        /* \"#utility.yul\":7234:7311   */\n      tag_394\n        /* \"#utility.yul\":7304:7310   */\n      dup3\n        /* \"#utility.yul\":7295:7302   */\n      dup5\n        /* \"#utility.yul\":7234:7311   */\n      tag_395\n      jump\t// in\n    tag_394:\n        /* \"#utility.yul\":7331:7462   */\n      tag_396\n        /* \"#utility.yul\":7458:7461   */\n      dup9\n        /* \"#utility.yul\":7443:7456   */\n      dup3\n        /* \"#utility.yul\":7331:7462   */\n      tag_356\n      jump\t// in\n    tag_396:\n        /* \"#utility.yul\":7324:7462   */\n      swap8\n      pop\n        /* \"#utility.yul\":7485:7582   */\n      tag_397\n        /* \"#utility.yul\":7575:7581   */\n      dup4\n        /* \"#utility.yul\":7485:7582   */\n      tag_398\n      jump\t// in\n    tag_397:\n        /* \"#utility.yul\":7475:7582   */\n      swap3\n      pop\n        /* \"#utility.yul\":7199:7592   */\n      pop\n        /* \"#utility.yul\":7186:7187   */\n      0x01\n        /* \"#utility.yul\":7183:7184   */\n      dup2\n        /* \"#utility.yul\":7179:7188   */\n      add\n        /* \"#utility.yul\":7174:7188   */\n      swap1\n      pop\n        /* \"#utility.yul\":7139:7592   */\n      jump(tag_391)\n    tag_393:\n        /* \"#utility.yul\":7143:7157   */\n      pop\n        /* \"#utility.yul\":7608:7611   */\n      dup6\n        /* \"#utility.yul\":7601:7611   */\n      swap3\n      pop\n        /* \"#utility.yul\":6856:7617   */\n      pop\n      pop\n        /* \"#utility.yul\":6664:7617   */\n      swap4\n      swap3\n      pop\n      pop\n      pop\n      jump\t// out\n        /* \"#utility.yul\":7623:7722   */\n    tag_399:\n        /* \"#utility.yul\":7694:7715   */\n      tag_401\n        /* \"#utility.yul\":7709:7714   */\n      dup2\n        /* \"#utility.yul\":7694:7715   */\n      tag_402\n      jump\t// in\n    tag_401:\n        /* \"#utility.yul\":7689:7692   */\n      dup3\n        /* \"#utility.yul\":7682:7716   */\n      mstore\n        /* \"#utility.yul\":7623:7722   */\n      pop\n      pop\n      jump\t// out\n        /* \"#utility.yul\":7728:7837   */\n    tag_403:\n        /* \"#utility.yul\":7809:7830   */\n      tag_405\n        /* \"#utility.yul\":7824:7829   */\n      dup2\n        /* \"#utility.yul\":7809:7830   */\n      tag_402\n      jump\t// in\n    tag_405:\n        /* \"#utility.yul\":7804:7807   */\n      dup3\n        /* \"#utility.yul\":7797:7831   */\n      mstore\n        /* \"#utility.yul\":7728:7837   */\n      pop\n      pop\n      jump\t// out\n        /* \"#utility.yul\":7843:7951   */\n    tag_406:\n        /* \"#utility.yul\":7920:7944   */\n      tag_408\n        /* \"#utility.yul\":7938:7943   */\n      dup2\n        /* \"#utility.yul\":7920:7944   */\n      tag_409\n      jump\t// in\n    tag_408:\n        /* \"#utility.yul\":7915:7918   */\n      dup3\n        /* \"#utility.yul\":7908:7945   */\n      mstore\n        /* \"#utility.yul\":7843:7951   */\n      pop\n      pop\n      jump\t// out\n        /* \"#utility.yul\":7957:8075   */\n    tag_410:\n        /* \"#utility.yul\":8044:8068   */\n      tag_412\n        /* \"#utility.yul\":8062:8067   */\n      dup2\n        /* \"#utility.yul\":8044:8068   */\n      tag_409\n      jump\t// in\n    tag_412:\n        /* \"#utility.yul\":8039:8042   */\n      dup3\n        /* \"#utility.yul\":8032:8069   */\n      mstore\n        /* \"#utility.yul\":7957:8075   */\n      pop\n      pop\n      jump\t// out\n        /* \"#utility.yul\":8081:8224   */\n    tag_413:\n        /* \"#utility.yul\":8174:8217   */\n      tag_415\n        /* \"#utility.yul\":8211:8216   */\n      dup2\n        /* \"#utility.yul\":8174:8217   */\n      tag_416\n      jump\t// in\n    tag_415:\n        /* \"#utility.yul\":8169:8172   */\n      dup3\n        /* \"#utility.yul\":8162:8218   */\n      mstore\n        /* \"#utility.yul\":8081:8224   */\n      pop\n      pop\n      jump\t// out\n        /* \"#utility.yul\":8230:8596   */\n    tag_417:\n        /* \"#utility.yul\":8372:8375   */\n      0x00\n        /* \"#utility.yul\":8393:8460   */\n      tag_419\n        /* \"#utility.yul\":8457:8459   */\n      0x14\n        /* \"#utility.yul\":8452:8455   */\n      dup4\n        /* \"#utility.yul\":8393:8460   */\n      tag_420\n      jump\t// in\n    tag_419:\n        /* \"#utility.yul\":8386:8460   */\n      swap2\n      pop\n        /* \"#utility.yul\":8469:8562   */\n      tag_421\n        /* \"#utility.yul\":8558:8561   */\n      dup3\n        /* \"#utility.yul\":8469:8562   */\n      tag_422\n      jump\t// in\n    tag_421:\n        /* \"#utility.yul\":8587:8589   */\n      0x20\n        /* \"#utility.yul\":8582:8585   */\n      dup3\n        /* \"#utility.yul\":8578:8590   */\n      add\n        /* \"#utility.yul\":8571:8590   */\n      swap1\n      pop\n        /* \"#utility.yul\":8230:8596   */\n      swap2\n      swap1\n      pop\n      jump\t// out\n        /* \"#utility.yul\":8602:8968   */\n    tag_423:\n        /* \"#utility.yul\":8744:8747   */\n      0x00\n        /* \"#utility.yul\":8765:8832   */\n      tag_425\n        /* \"#utility.yul\":8829:8831   */\n      0x12\n        /* \"#utility.yul\":8824:8827   */\n      dup4\n        /* \"#utility.yul\":8765:8832   */\n      tag_420\n      jump\t// in\n    tag_425:\n        /* \"#utility.yul\":8758:8832   */\n      swap2\n      pop\n        /* \"#utility.yul\":8841:8934   */\n      tag_426\n        /* \"#utility.yul\":8930:8933   */\n      dup3\n        /* \"#utility.yul\":8841:8934   */\n      tag_427\n      jump\t// in\n    tag_426:\n        /* \"#utility.yul\":8959:8961   */\n      0x20\n        /* \"#utility.yul\":8954:8957   */\n      dup3\n        /* \"#utility.yul\":8950:8962   */\n      add\n        /* \"#utility.yul\":8943:8962   */\n      swap1\n      pop\n        /* \"#utility.yul\":8602:8968   */\n      swap2\n      swap1\n      pop\n      jump\t// out\n        /* \"#utility.yul\":8974:9340   */\n    tag_428:\n        /* \"#utility.yul\":9116:9119   */\n      0x00\n        /* \"#utility.yul\":9137:9204   */\n      tag_430\n        /* \"#utility.yul\":9201:9203   */\n      0x17\n        /* \"#utility.yul\":9196:9199   */\n      dup4\n        /* \"#utility.yul\":9137:9204   */\n      tag_420\n      jump\t// in\n    tag_430:\n        /* \"#utility.yul\":9130:9204   */\n      swap2\n      pop\n        /* \"#utility.yul\":9213:9306   */\n      tag_431\n        /* \"#utility.yul\":9302:9305   */\n      dup3\n        /* \"#utility.yul\":9213:9306   */\n      tag_432\n      jump\t// in\n    tag_431:\n        /* \"#utility.yul\":9331:9333   */\n      0x20\n        /* \"#utility.yul\":9326:9329   */\n      dup3\n        /* \"#utility.yul\":9322:9334   */\n      add\n        /* \"#utility.yul\":9315:9334   */\n      swap1\n      pop\n        /* \"#utility.yul\":8974:9340   */\n      swap2\n      swap1\n      pop\n      jump\t// out\n        /* \"#utility.yul\":9346:9712   */\n    tag_433:\n        /* \"#utility.yul\":9488:9491   */\n      0x00\n        /* \"#utility.yul\":9509:9576   */\n      tag_435\n        /* \"#utility.yul\":9573:9575   */\n      0x11\n        /* \"#utility.yul\":9568:9571   */\n      dup4\n        /* \"#utility.yul\":9509:9576   */\n      tag_420\n      jump\t// in\n    tag_435:\n        /* \"#utility.yul\":9502:9576   */\n      swap2\n      pop\n        /* \"#utility.yul\":9585:9678   */\n      tag_436\n        /* \"#utility.yul\":9674:9677   */\n      dup3\n        /* \"#utility.yul\":9585:9678   */\n      tag_437\n      jump\t// in\n    tag_436:\n        /* \"#utility.yul\":9703:9705   */\n      0x20\n        /* \"#utility.yul\":9698:9701   */\n      dup3\n        /* \"#utility.yul\":9694:9706   */\n      add\n        /* \"#utility.yul\":9687:9706   */\n      swap1\n      pop\n        /* \"#utility.yul\":9346:9712   */\n      swap2\n      swap1\n      pop\n      jump\t// out\n        /* \"#utility.yul\":9718:10084   */\n    tag_438:\n        /* \"#utility.yul\":9860:9863   */\n      0x00\n        /* \"#utility.yul\":9881:9948   */\n      tag_440\n        /* \"#utility.yul\":9945:9947   */\n      0x17\n        /* \"#utility.yul\":9940:9943   */\n      dup4\n        /* \"#utility.yul\":9881:9948   */\n      tag_420\n      jump\t// in\n    tag_440:\n        /* \"#utility.yul\":9874:9948   */\n      swap2\n      pop\n        /* \"#utility.yul\":9957:10050   */\n      tag_441\n        /* \"#utility.yul\":10046:10049   */\n      dup3\n        /* \"#utility.yul\":9957:10050   */\n      tag_442\n      jump\t// in\n    tag_441:\n        /* \"#utility.yul\":10075:10077   */\n      0x20\n        /* \"#utility.yul\":10070:10073   */\n      dup3\n        /* \"#utility.yul\":10066:10078   */\n      add\n        /* \"#utility.yul\":10059:10078   */\n      swap1\n      pop\n        /* \"#utility.yul\":9718:10084   */\n      swap2\n      swap1\n      pop\n      jump\t// out\n        /* \"#utility.yul\":10090:10456   */\n    tag_443:\n        /* \"#utility.yul\":10232:10235   */\n      0x00\n        /* \"#utility.yul\":10253:10320   */\n      tag_445\n        /* \"#utility.yul\":10317:10319   */\n      0x10\n        /* \"#utility.yul\":10312:10315   */\n      dup4\n        /* \"#utility.yul\":10253:10320   */\n      tag_420\n      jump\t// in\n    tag_445:\n        /* \"#utility.yul\":10246:10320   */\n      swap2\n      pop\n        /* \"#utility.yul\":10329:10422   */\n      tag_446\n        /* \"#utility.yul\":10418:10421   */\n      dup3\n        /* \"#utility.yul\":10329:10422   */\n      tag_447\n      jump\t// in\n    tag_446:\n        /* \"#utility.yul\":10447:10449   */\n      0x20\n        /* \"#utility.yul\":10442:10445   */\n      dup3\n        /* \"#utility.yul\":10438:10450   */\n      add\n        /* \"#utility.yul\":10431:10450   */\n      swap1\n      pop\n        /* \"#utility.yul\":10090:10456   */\n      swap2\n      swap1\n      pop\n      jump\t// out\n        /* \"#utility.yul\":10462:10828   */\n    tag_448:\n        /* \"#utility.yul\":10604:10607   */\n      0x00\n        /* \"#utility.yul\":10625:10692   */\n      tag_450\n        /* \"#utility.yul\":10689:10691   */\n      0x12\n        /* \"#utility.yul\":10684:10687   */\n      dup4\n        /* \"#utility.yul\":10625:10692   */\n      tag_420\n      jump\t// in\n    tag_450:\n        /* \"#utility.yul\":10618:10692   */\n      swap2\n      pop\n        /* \"#utility.yul\":10701:10794   */\n      tag_451\n        /* \"#utility.yul\":10790:10793   */\n      dup3\n        /* \"#utility.yul\":10701:10794   */\n      tag_452\n      jump\t// in\n    tag_451:\n        /* \"#utility.yul\":10819:10821   */\n      0x20\n        /* \"#utility.yul\":10814:10817   */\n      dup3\n        /* \"#utility.yul\":10810:10822   */\n      add\n        /* \"#utility.yul\":10803:10822   */\n      swap1\n      pop\n        /* \"#utility.yul\":10462:10828   */\n      swap2\n      swap1\n      pop\n      jump\t// out\n        /* \"#utility.yul\":10834:11200   */\n    tag_453:\n        /* \"#utility.yul\":10976:10979   */\n      0x00\n        /* \"#utility.yul\":10997:11064   */\n      tag_455\n        /* \"#utility.yul\":11061:11063   */\n      0x2e\n        /* \"#utility.yul\":11056:11059   */\n      dup4\n        /* \"#utility.yul\":10997:11064   */\n      tag_420\n      jump\t// in\n    tag_455:\n        /* \"#utility.yul\":10990:11064   */\n      swap2\n      pop\n        /* \"#utility.yul\":11073:11166   */\n      tag_456\n        /* \"#utility.yul\":11162:11165   */\n      dup3\n        /* \"#utility.yul\":11073:11166   */\n      tag_457\n      jump\t// in\n    tag_456:\n        /* \"#utility.yul\":11191:11193   */\n      0x40\n        /* \"#utility.yul\":11186:11189   */\n      dup3\n        /* \"#utility.yul\":11182:11194   */\n      add\n        /* \"#utility.yul\":11175:11194   */\n      swap1\n      pop\n        /* \"#utility.yul\":10834:11200   */\n      swap2\n      swap1\n      pop\n      jump\t// out\n        /* \"#utility.yul\":11206:11572   */\n    tag_458:\n        /* \"#utility.yul\":11348:11351   */\n      0x00\n        /* \"#utility.yul\":11369:11436   */\n      tag_460\n        /* \"#utility.yul\":11433:11435   */\n      0x0a\n        /* \"#utility.yul\":11428:11431   */\n      dup4\n        /* \"#utility.yul\":11369:11436   */\n      tag_420\n      jump\t// in\n    tag_460:\n        /* \"#utility.yul\":11362:11436   */\n      swap2\n      pop\n        /* \"#utility.yul\":11445:11538   */\n      tag_461\n        /* \"#utility.yul\":11534:11537   */\n      dup3\n        /* \"#utility.yul\":11445:11538   */\n      tag_462\n      jump\t// in\n    tag_461:\n        /* \"#utility.yul\":11563:11565   */\n      0x20\n        /* \"#utility.yul\":11558:11561   */\n      dup3\n        /* \"#utility.yul\":11554:11566   */\n      add\n        /* \"#utility.yul\":11547:11566   */\n      swap1\n      pop\n        /* \"#utility.yul\":11206:11572   */\n      swap2\n      swap1\n      pop\n      jump\t// out\n        /* \"#utility.yul\":11578:11944   */\n    tag_463:\n        /* \"#utility.yul\":11720:11723   */\n      0x00\n        /* \"#utility.yul\":11741:11808   */\n      tag_465\n        /* \"#utility.yul\":11805:11807   */\n      0x0f\n        /* \"#utility.yul\":11800:11803   */\n      dup4\n        /* \"#utility.yul\":11741:11808   */\n      tag_420\n      jump\t// in\n    tag_465:\n        /* \"#utility.yul\":11734:11808   */\n      swap2\n      pop\n        /* \"#utility.yul\":11817:11910   */\n      tag_466\n        /* \"#utility.yul\":11906:11909   */\n      dup3\n        /* \"#utility.yul\":11817:11910   */\n      tag_467\n      jump\t// in\n    tag_466:\n        /* \"#utility.yul\":11935:11937   */\n      0x20\n        /* \"#utility.yul\":11930:11933   */\n      dup3\n        /* \"#utility.yul\":11926:11938   */\n      add\n        /* \"#utility.yul\":11919:11938   */\n      swap1\n      pop\n        /* \"#utility.yul\":11578:11944   */\n      swap2\n      swap1\n      pop\n      jump\t// out\n        /* \"#utility.yul\":11950:12316   */\n    tag_468:\n        /* \"#utility.yul\":12092:12095   */\n      0x00\n        /* \"#utility.yul\":12113:12180   */\n      tag_470\n        /* \"#utility.yul\":12177:12179   */\n      0x10\n        /* \"#utility.yul\":12172:12175   */\n      dup4\n        /* \"#utility.yul\":12113:12180   */\n      tag_420\n      jump\t// in\n    tag_470:\n        /* \"#utility.yul\":12106:12180   */\n      swap2\n      pop\n        /* \"#utility.yul\":12189:12282   */\n      tag_471\n        /* \"#utility.yul\":12278:12281   */\n      dup3\n        /* \"#utility.yul\":12189:12282   */\n      tag_472\n      jump\t// in\n    tag_471:\n        /* \"#utility.yul\":12307:12309   */\n      0x20\n        /* \"#utility.yul\":12302:12305   */\n      dup3\n        /* \"#utility.yul\":12298:12310   */\n      add\n        /* \"#utility.yul\":12291:12310   */\n      swap1\n      pop\n        /* \"#utility.yul\":11950:12316   */\n      swap2\n      swap1\n      pop\n      jump\t// out\n        /* \"#utility.yul\":12322:12688   */\n    tag_473:\n        /* \"#utility.yul\":12464:12467   */\n      0x00\n        /* \"#utility.yul\":12485:12552   */\n      tag_475\n        /* \"#utility.yul\":12549:12551   */\n      0x14\n        /* \"#utility.yul\":12544:12547   */\n      dup4\n        /* \"#utility.yul\":12485:12552   */\n      tag_420\n      jump\t// in\n    tag_475:\n        /* \"#utility.yul\":12478:12552   */\n      swap2\n      pop\n        /* \"#utility.yul\":12561:12654   */\n      tag_476\n        /* \"#utility.yul\":12650:12653   */\n      dup3\n        /* \"#utility.yul\":12561:12654   */\n      tag_477\n      jump\t// in\n    tag_476:\n        /* \"#utility.yul\":12679:12681   */\n      0x20\n        /* \"#utility.yul\":12674:12677   */\n      dup3\n        /* \"#utility.yul\":12670:12682   */\n      add\n        /* \"#utility.yul\":12663:12682   */\n      swap1\n      pop\n        /* \"#utility.yul\":12322:12688   */\n      swap2\n      swap1\n      pop\n      jump\t// out\n        /* \"#utility.yul\":12694:13060   */\n    tag_478:\n        /* \"#utility.yul\":12836:12839   */\n      0x00\n        /* \"#utility.yul\":12857:12924   */\n      tag_480\n        /* \"#utility.yul\":12921:12923   */\n      0x14\n        /* \"#utility.yul\":12916:12919   */\n      dup4\n        /* \"#utility.yul\":12857:12924   */\n      tag_420\n      jump\t// in\n    tag_480:\n        /* \"#utility.yul\":12850:12924   */\n      swap2\n      pop\n        /* \"#utility.yul\":12933:13026   */\n      tag_481\n        /* \"#utility.yul\":13022:13025   */\n      dup3\n        /* \"#utility.yul\":12933:13026   */\n      tag_482\n      jump\t// in\n    tag_481:\n        /* \"#utility.yul\":13051:13053   */\n      0x20\n        /* \"#utility.yul\":13046:13049   */\n      dup3\n        /* \"#utility.yul\":13042:13054   */\n      add\n        /* \"#utility.yul\":13035:13054   */\n      swap1\n      pop\n        /* \"#utility.yul\":12694:13060   */\n      swap2\n      swap1\n      pop\n      jump\t// out\n        /* \"#utility.yul\":13128:14818   */\n    tag_355:\n        /* \"#utility.yul\":13249:13252   */\n      0x00\n        /* \"#utility.yul\":13285:13289   */\n      0xc0\n        /* \"#utility.yul\":13280:13283   */\n      dup4\n        /* \"#utility.yul\":13276:13290   */\n      add\n        /* \"#utility.yul\":13366:13416   */\n      tag_484\n        /* \"#utility.yul\":13410:13414   */\n      0x00\n        /* \"#utility.yul\":13403:13408   */\n      dup5\n        /* \"#utility.yul\":13399:13415   */\n      add\n        /* \"#utility.yul\":13392:13397   */\n      dup5\n        /* \"#utility.yul\":13366:13416   */\n      tag_485\n      jump\t// in\n    tag_484:\n        /* \"#utility.yul\":13429:13492   */\n      tag_486\n        /* \"#utility.yul\":13486:13490   */\n      0x00\n        /* \"#utility.yul\":13481:13484   */\n      dup7\n        /* \"#utility.yul\":13477:13491   */\n      add\n        /* \"#utility.yul\":13463:13475   */\n      dup3\n        /* \"#utility.yul\":13429:13492   */\n      tag_364\n      jump\t// in\n    tag_486:\n        /* \"#utility.yul\":13300:13502   */\n      pop\n        /* \"#utility.yul\":13569:13619   */\n      tag_487\n        /* \"#utility.yul\":13613:13617   */\n      0x20\n        /* \"#utility.yul\":13606:13611   */\n      dup5\n        /* \"#utility.yul\":13602:13618   */\n      add\n        /* \"#utility.yul\":13595:13600   */\n      dup5\n        /* \"#utility.yul\":13569:13619   */\n      tag_488\n      jump\t// in\n    tag_487:\n        /* \"#utility.yul\":13632:13695   */\n      tag_489\n        /* \"#utility.yul\":13689:13693   */\n      0x20\n        /* \"#utility.yul\":13684:13687   */\n      dup7\n        /* \"#utility.yul\":13680:13694   */\n      add\n        /* \"#utility.yul\":13666:13678   */\n      dup3\n        /* \"#utility.yul\":13632:13695   */\n      tag_490\n      jump\t// in\n    tag_489:\n        /* \"#utility.yul\":13512:13705   */\n      pop\n        /* \"#utility.yul\":13772:13819   */\n      tag_491\n        /* \"#utility.yul\":13813:13817   */\n      0x40\n        /* \"#utility.yul\":13806:13811   */\n      dup5\n        /* \"#utility.yul\":13802:13818   */\n      add\n        /* \"#utility.yul\":13795:13800   */\n      dup5\n        /* \"#utility.yul\":13772:13819   */\n      tag_492\n      jump\t// in\n    tag_491:\n        /* \"#utility.yul\":13832:13889   */\n      tag_493\n        /* \"#utility.yul\":13883:13887   */\n      0x40\n        /* \"#utility.yul\":13878:13881   */\n      dup7\n        /* \"#utility.yul\":13874:13888   */\n      add\n        /* \"#utility.yul\":13860:13872   */\n      dup3\n        /* \"#utility.yul\":13832:13889   */\n      tag_399\n      jump\t// in\n    tag_493:\n        /* \"#utility.yul\":13715:13899   */\n      pop\n        /* \"#utility.yul\":13964:14014   */\n      tag_494\n        /* \"#utility.yul\":14008:14012   */\n      0x60\n        /* \"#utility.yul\":14001:14006   */\n      dup5\n        /* \"#utility.yul\":13997:14013   */\n      add\n        /* \"#utility.yul\":13990:13995   */\n      dup5\n        /* \"#utility.yul\":13964:14014   */\n      tag_495\n      jump\t// in\n    tag_494:\n        /* \"#utility.yul\":14027:14090   */\n      tag_496\n        /* \"#utility.yul\":14084:14088   */\n      0x60\n        /* \"#utility.yul\":14079:14082   */\n      dup7\n        /* \"#utility.yul\":14075:14089   */\n      add\n        /* \"#utility.yul\":14061:14073   */\n      dup3\n        /* \"#utility.yul\":14027:14090   */\n      tag_497\n      jump\t// in\n    tag_496:\n        /* \"#utility.yul\":13909:14100   */\n      pop\n        /* \"#utility.yul\":14177:14227   */\n      tag_498\n        /* \"#utility.yul\":14221:14225   */\n      0x80\n        /* \"#utility.yul\":14214:14219   */\n      dup5\n        /* \"#utility.yul\":14210:14226   */\n      add\n        /* \"#utility.yul\":14203:14208   */\n      dup5\n        /* \"#utility.yul\":14177:14227   */\n      tag_495\n      jump\t// in\n    tag_498:\n        /* \"#utility.yul\":14240:14303   */\n      tag_499\n        /* \"#utility.yul\":14297:14301   */\n      0x80\n        /* \"#utility.yul\":14292:14295   */\n      dup7\n        /* \"#utility.yul\":14288:14302   */\n      add\n        /* \"#utility.yul\":14274:14286   */\n      dup3\n        /* \"#utility.yul\":14240:14303   */\n      tag_497\n      jump\t// in\n    tag_499:\n        /* \"#utility.yul\":14110:14313   */\n      pop\n        /* \"#utility.yul\":14408:14520   */\n      tag_500\n        /* \"#utility.yul\":14514:14518   */\n      0xa0\n        /* \"#utility.yul\":14507:14512   */\n      dup5\n        /* \"#utility.yul\":14503:14519   */\n      add\n        /* \"#utility.yul\":14496:14501   */\n      dup5\n        /* \"#utility.yul\":14408:14520   */\n      tag_501\n      jump\t// in\n    tag_500:\n        /* \"#utility.yul\":14567:14570   */\n      dup6\n        /* \"#utility.yul\":14561:14565   */\n      dup4\n        /* \"#utility.yul\":14557:14571   */\n      sub\n        /* \"#utility.yul\":14550:14554   */\n      0xa0\n        /* \"#utility.yul\":14545:14548   */\n      dup8\n        /* \"#utility.yul\":14541:14555   */\n      add\n        /* \"#utility.yul\":14534:14572   */\n      mstore\n        /* \"#utility.yul\":14593:14780   */\n      tag_502\n        /* \"#utility.yul\":14775:14779   */\n      dup4\n        /* \"#utility.yul\":14761:14773   */\n      dup3\n        /* \"#utility.yul\":14747:14759   */\n      dup5\n        /* \"#utility.yul\":14593:14780   */\n      tag_385\n      jump\t// in\n    tag_502:\n        /* \"#utility.yul\":14585:14780   */\n      swap3\n      pop\n        /* \"#utility.yul\":14323:14791   */\n      pop\n      pop\n        /* \"#utility.yul\":14808:14812   */\n      dup1\n        /* \"#utility.yul\":14801:14812   */\n      swap2\n      pop\n        /* \"#utility.yul\":13254:14818   */\n      pop\n        /* \"#utility.yul\":13128:14818   */\n      swap3\n      swap2\n      pop\n      pop\n      jump\t// out\n        /* \"#utility.yul\":14892:15471   */\n    tag_359:\n        /* \"#utility.yul\":15047:15051   */\n      0x40\n        /* \"#utility.yul\":15042:15045   */\n      dup3\n        /* \"#utility.yul\":15038:15052   */\n      add\n        /* \"#utility.yul\":15125:15175   */\n      tag_504\n        /* \"#utility.yul\":15169:15173   */\n      0x00\n        /* \"#utility.yul\":15162:15167   */\n      dup4\n        /* \"#utility.yul\":15158:15174   */\n      add\n        /* \"#utility.yul\":15151:15156   */\n      dup4\n        /* \"#utility.yul\":15125:15175   */\n      tag_485\n      jump\t// in\n    tag_504:\n        /* \"#utility.yul\":15188:15251   */\n      tag_505\n        /* \"#utility.yul\":15245:15249   */\n      0x00\n        /* \"#utility.yul\":15240:15243   */\n      dup6\n        /* \"#utility.yul\":15236:15250   */\n      add\n        /* \"#utility.yul\":15222:15234   */\n      dup3\n        /* \"#utility.yul\":15188:15251   */\n      tag_364\n      jump\t// in\n    tag_505:\n        /* \"#utility.yul\":15062:15261   */\n      pop\n        /* \"#utility.yul\":15328:15378   */\n      tag_506\n        /* \"#utility.yul\":15372:15376   */\n      0x20\n        /* \"#utility.yul\":15365:15370   */\n      dup4\n        /* \"#utility.yul\":15361:15377   */\n      add\n        /* \"#utility.yul\":15354:15359   */\n      dup4\n        /* \"#utility.yul\":15328:15378   */\n      tag_495\n      jump\t// in\n    tag_506:\n        /* \"#utility.yul\":15391:15454   */\n      tag_507\n        /* \"#utility.yul\":15448:15452   */\n      0x20\n        /* \"#utility.yul\":15443:15446   */\n      dup6\n        /* \"#utility.yul\":15439:15453   */\n      add\n        /* \"#utility.yul\":15425:15437   */\n      dup3\n        /* \"#utility.yul\":15391:15454   */\n      tag_497\n      jump\t// in\n    tag_507:\n        /* \"#utility.yul\":15271:15464   */\n      pop\n        /* \"#utility.yul\":15016:15471   */\n      pop\n        /* \"#utility.yul\":14892:15471   */\n      pop\n      pop\n      jump\t// out\n        /* \"#utility.yul\":15535:17638   */\n    tag_508:\n        /* \"#utility.yul\":15662:15665   */\n      0x00\n        /* \"#utility.yul\":15698:15704   */\n      0x0100\n        /* \"#utility.yul\":15693:15696   */\n      dup4\n        /* \"#utility.yul\":15689:15705   */\n      add\n        /* \"#utility.yul\":15777:15827   */\n      tag_510\n        /* \"#utility.yul\":15821:15825   */\n      0x00\n        /* \"#utility.yul\":15814:15819   */\n      dup5\n        /* \"#utility.yul\":15810:15826   */\n      add\n        /* \"#utility.yul\":15803:15808   */\n      dup5\n        /* \"#utility.yul\":15777:15827   */\n      tag_495\n      jump\t// in\n    tag_510:\n        /* \"#utility.yul\":15840:15903   */\n      tag_511\n        /* \"#utility.yul\":15897:15901   */\n      0x00\n        /* \"#utility.yul\":15892:15895   */\n      dup7\n        /* \"#utility.yul\":15888:15902   */\n      add\n        /* \"#utility.yul\":15874:15886   */\n      dup3\n        /* \"#utility.yul\":15840:15903   */\n      tag_497\n      jump\t// in\n    tag_511:\n        /* \"#utility.yul\":15715:15913   */\n      pop\n        /* \"#utility.yul\":15987:16037   */\n      tag_512\n        /* \"#utility.yul\":16031:16035   */\n      0x20\n        /* \"#utility.yul\":16024:16029   */\n      dup5\n        /* \"#utility.yul\":16020:16036   */\n      add\n        /* \"#utility.yul\":16013:16018   */\n      dup5\n        /* \"#utility.yul\":15987:16037   */\n      tag_488\n      jump\t// in\n    tag_512:\n        /* \"#utility.yul\":16050:16113   */\n      tag_513\n        /* \"#utility.yul\":16107:16111   */\n      0x20\n        /* \"#utility.yul\":16102:16105   */\n      dup7\n        /* \"#utility.yul\":16098:16112   */\n      add\n        /* \"#utility.yul\":16084:16096   */\n      dup3\n        /* \"#utility.yul\":16050:16113   */\n      tag_490\n      jump\t// in\n    tag_513:\n        /* \"#utility.yul\":15923:16123   */\n      pop\n        /* \"#utility.yul\":16197:16247   */\n      tag_514\n        /* \"#utility.yul\":16241:16245   */\n      0x40\n        /* \"#utility.yul\":16234:16239   */\n      dup5\n        /* \"#utility.yul\":16230:16246   */\n      add\n        /* \"#utility.yul\":16223:16228   */\n      dup5\n        /* \"#utility.yul\":16197:16247   */\n      tag_488\n      jump\t// in\n    tag_514:\n        /* \"#utility.yul\":16260:16323   */\n      tag_515\n        /* \"#utility.yul\":16317:16321   */\n      0x40\n        /* \"#utility.yul\":16312:16315   */\n      dup7\n        /* \"#utility.yul\":16308:16322   */\n      add\n        /* \"#utility.yul\":16294:16306   */\n      dup3\n        /* \"#utility.yul\":16260:16323   */\n      tag_490\n      jump\t// in\n    tag_515:\n        /* \"#utility.yul\":16133:16333   */\n      pop\n        /* \"#utility.yul\":16399:16449   */\n      tag_516\n        /* \"#utility.yul\":16443:16447   */\n      0x60\n        /* \"#utility.yul\":16436:16441   */\n      dup5\n        /* \"#utility.yul\":16432:16448   */\n      add\n        /* \"#utility.yul\":16425:16430   */\n      dup5\n        /* \"#utility.yul\":16399:16449   */\n      tag_488\n      jump\t// in\n    tag_516:\n        /* \"#utility.yul\":16462:16525   */\n      tag_517\n        /* \"#utility.yul\":16519:16523   */\n      0x60\n        /* \"#utility.yul\":16514:16517   */\n      dup7\n        /* \"#utility.yul\":16510:16524   */\n      add\n        /* \"#utility.yul\":16496:16508   */\n      dup3\n        /* \"#utility.yul\":16462:16525   */\n      tag_490\n      jump\t// in\n    tag_517:\n        /* \"#utility.yul\":16343:16535   */\n      pop\n        /* \"#utility.yul\":16605:16655   */\n      tag_518\n        /* \"#utility.yul\":16649:16653   */\n      0x80\n        /* \"#utility.yul\":16642:16647   */\n      dup5\n        /* \"#utility.yul\":16638:16654   */\n      add\n        /* \"#utility.yul\":16631:16636   */\n      dup5\n        /* \"#utility.yul\":16605:16655   */\n      tag_519\n      jump\t// in\n    tag_518:\n        /* \"#utility.yul\":16668:16731   */\n      tag_520\n        /* \"#utility.yul\":16725:16729   */\n      0x80\n        /* \"#utility.yul\":16720:16723   */\n      dup7\n        /* \"#utility.yul\":16716:16730   */\n      add\n        /* \"#utility.yul\":16702:16714   */\n      dup3\n        /* \"#utility.yul\":16668:16731   */\n      tag_406\n      jump\t// in\n    tag_520:\n        /* \"#utility.yul\":16545:16741   */\n      pop\n        /* \"#utility.yul\":16813:16863   */\n      tag_521\n        /* \"#utility.yul\":16857:16861   */\n      0xa0\n        /* \"#utility.yul\":16850:16855   */\n      dup5\n        /* \"#utility.yul\":16846:16862   */\n      add\n        /* \"#utility.yul\":16839:16844   */\n      dup5\n        /* \"#utility.yul\":16813:16863   */\n      tag_488\n      jump\t// in\n    tag_521:\n        /* \"#utility.yul\":16876:16939   */\n      tag_522\n        /* \"#utility.yul\":16933:16937   */\n      0xa0\n        /* \"#utility.yul\":16928:16931   */\n      dup7\n        /* \"#utility.yul\":16924:16938   */\n      add\n        /* \"#utility.yul\":16910:16922   */\n      dup3\n        /* \"#utility.yul\":16876:16939   */\n      tag_490\n      jump\t// in\n    tag_522:\n        /* \"#utility.yul\":16751:16949   */\n      pop\n        /* \"#utility.yul\":17017:17067   */\n      tag_523\n        /* \"#utility.yul\":17061:17065   */\n      0xc0\n        /* \"#utility.yul\":17054:17059   */\n      dup5\n        /* \"#utility.yul\":17050:17066   */\n      add\n        /* \"#utility.yul\":17043:17048   */\n      dup5\n        /* \"#utility.yul\":17017:17067   */\n      tag_488\n      jump\t// in\n    tag_523:\n        /* \"#utility.yul\":17080:17143   */\n      tag_524\n        /* \"#utility.yul\":17137:17141   */\n      0xc0\n        /* \"#utility.yul\":17132:17135   */\n      dup7\n        /* \"#utility.yul\":17128:17142   */\n      add\n        /* \"#utility.yul\":17114:17126   */\n      dup3\n        /* \"#utility.yul\":17080:17143   */\n      tag_490\n      jump\t// in\n    tag_524:\n        /* \"#utility.yul\":16959:17153   */\n      pop\n        /* \"#utility.yul\":17237:17346   */\n      tag_525\n        /* \"#utility.yul\":17340:17344   */\n      0xe0\n        /* \"#utility.yul\":17333:17338   */\n      dup5\n        /* \"#utility.yul\":17329:17345   */\n      add\n        /* \"#utility.yul\":17322:17327   */\n      dup5\n        /* \"#utility.yul\":17237:17346   */\n      tag_526\n      jump\t// in\n    tag_525:\n        /* \"#utility.yul\":17393:17396   */\n      dup6\n        /* \"#utility.yul\":17387:17391   */\n      dup4\n        /* \"#utility.yul\":17383:17397   */\n      sub\n        /* \"#utility.yul\":17376:17380   */\n      0xe0\n        /* \"#utility.yul\":17371:17374   */\n      dup8\n        /* \"#utility.yul\":17367:17381   */\n      add\n        /* \"#utility.yul\":17360:17398   */\n      mstore\n        /* \"#utility.yul\":17419:17600   */\n      tag_527\n        /* \"#utility.yul\":17595:17599   */\n      dup4\n        /* \"#utility.yul\":17581:17593   */\n      dup3\n        /* \"#utility.yul\":17567:17579   */\n      dup5\n        /* \"#utility.yul\":17419:17600   */\n      tag_371\n      jump\t// in\n    tag_527:\n        /* \"#utility.yul\":17411:17600   */\n      swap3\n      pop\n        /* \"#utility.yul\":17163:17611   */\n      pop\n      pop\n        /* \"#utility.yul\":17628:17632   */\n      dup1\n        /* \"#utility.yul\":17621:17632   */\n      swap2\n      pop\n        /* \"#utility.yul\":15667:17638   */\n      pop\n        /* \"#utility.yul\":15535:17638   */\n      swap3\n      swap2\n      pop\n      pop\n      jump\t// out\n        /* \"#utility.yul\":17644:17752   */\n    tag_490:\n        /* \"#utility.yul\":17721:17745   */\n      tag_529\n        /* \"#utility.yul\":17739:17744   */\n      dup2\n        /* \"#utility.yul\":17721:17745   */\n      tag_530\n      jump\t// in\n    tag_529:\n        /* \"#utility.yul\":17716:17719   */\n      dup3\n        /* \"#utility.yul\":17709:17746   */\n      mstore\n        /* \"#utility.yul\":17644:17752   */\n      pop\n      pop\n      jump\t// out\n        /* \"#utility.yul\":17758:17866   */\n    tag_497:\n        /* \"#utility.yul\":17835:17859   */\n      tag_532\n        /* \"#utility.yul\":17853:17858   */\n      dup2\n        /* \"#utility.yul\":17835:17859   */\n      tag_533\n      jump\t// in\n    tag_532:\n        /* \"#utility.yul\":17830:17833   */\n      dup3\n        /* \"#utility.yul\":17823:17860   */\n      mstore\n        /* \"#utility.yul\":17758:17866   */\n      pop\n      pop\n      jump\t// out\n        /* \"#utility.yul\":17872:17990   */\n    tag_534:\n        /* \"#utility.yul\":17959:17983   */\n      tag_536\n        /* \"#utility.yul\":17977:17982   */\n      dup2\n        /* \"#utility.yul\":17959:17983   */\n      tag_533\n      jump\t// in\n    tag_536:\n        /* \"#utility.yul\":17954:17957   */\n      dup3\n        /* \"#utility.yul\":17947:17984   */\n      mstore\n        /* \"#utility.yul\":17872:17990   */\n      pop\n      pop\n      jump\t// out\n        /* \"#utility.yul\":17996:18111   */\n    tag_537:\n        /* \"#utility.yul\":18081:18104   */\n      tag_539\n        /* \"#utility.yul\":18098:18103   */\n      dup2\n        /* \"#utility.yul\":18081:18104   */\n      tag_540\n      jump\t// in\n    tag_539:\n        /* \"#utility.yul\":18076:18079   */\n      dup3\n        /* \"#utility.yul\":18069:18105   */\n      mstore\n        /* \"#utility.yul\":17996:18111   */\n      pop\n      pop\n      jump\t// out\n        /* \"#utility.yul\":18117:18244   */\n    tag_541:\n        /* \"#utility.yul\":18202:18237   */\n      tag_543\n        /* \"#utility.yul\":18231:18236   */\n      dup2\n        /* \"#utility.yul\":18202:18237   */\n      tag_544\n      jump\t// in\n    tag_543:\n        /* \"#utility.yul\":18197:18200   */\n      dup3\n        /* \"#utility.yul\":18190:18238   */\n      mstore\n        /* \"#utility.yul\":18117:18244   */\n      pop\n      pop\n      jump\t// out\n        /* \"#utility.yul\":18250:18362   */\n    tag_545:\n        /* \"#utility.yul\":18333:18355   */\n      tag_547\n        /* \"#utility.yul\":18349:18354   */\n      dup2\n        /* \"#utility.yul\":18333:18355   */\n      tag_548\n      jump\t// in\n    tag_547:\n        /* \"#utility.yul\":18328:18331   */\n      dup3\n        /* \"#utility.yul\":18321:18356   */\n      mstore\n        /* \"#utility.yul\":18250:18362   */\n      pop\n      pop\n      jump\t// out\n        /* \"#utility.yul\":18368:18590   */\n    tag_31:\n        /* \"#utility.yul\":18461:18465   */\n      0x00\n        /* \"#utility.yul\":18499:18501   */\n      0x20\n        /* \"#utility.yul\":18488:18497   */\n      dup3\n        /* \"#utility.yul\":18484:18502   */\n      add\n        /* \"#utility.yul\":18476:18502   */\n      swap1\n      pop\n        /* \"#utility.yul\":18512:18583   */\n      tag_550\n        /* \"#utility.yul\":18580:18581   */\n      0x00\n        /* \"#utility.yul\":18569:18578   */\n      dup4\n        /* \"#utility.yul\":18565:18582   */\n      add\n        /* \"#utility.yul\":18556:18562   */\n      dup5\n        /* \"#utility.yul\":18512:18583   */\n      tag_368\n      jump\t// in\n    tag_550:\n        /* \"#utility.yul\":18368:18590   */\n      swap3\n      swap2\n      pop\n      pop\n      jump\t// out\n        /* \"#utility.yul\":18596:18850   */\n    tag_83:\n        /* \"#utility.yul\":18705:18709   */\n      0x00\n        /* \"#utility.yul\":18743:18745   */\n      0x20\n        /* \"#utility.yul\":18732:18741   */\n      dup3\n        /* \"#utility.yul\":18728:18746   */\n      add\n        /* \"#utility.yul\":18720:18746   */\n      swap1\n      pop\n        /* \"#utility.yul\":18756:18843   */\n      tag_552\n        /* \"#utility.yul\":18840:18841   */\n      0x00\n        /* \"#utility.yul\":18829:18838   */\n      dup4\n        /* \"#utility.yul\":18825:18842   */\n      add\n        /* \"#utility.yul\":18816:18822   */\n      dup5\n        /* \"#utility.yul\":18756:18843   */\n      tag_360\n      jump\t// in\n    tag_552:\n        /* \"#utility.yul\":18596:18850   */\n      swap3\n      swap2\n      pop\n      pop\n      jump\t// out\n        /* \"#utility.yul\":18856:19066   */\n    tag_57:\n        /* \"#utility.yul\":18943:18947   */\n      0x00\n        /* \"#utility.yul\":18981:18983   */\n      0x20\n        /* \"#utility.yul\":18970:18979   */\n      dup3\n        /* \"#utility.yul\":18966:18984   */\n      add\n        /* \"#utility.yul\":18958:18984   */\n      swap1\n      pop\n        /* \"#utility.yul\":18994:19059   */\n      tag_554\n        /* \"#utility.yul\":19056:19057   */\n      0x00\n        /* \"#utility.yul\":19045:19054   */\n      dup4\n        /* \"#utility.yul\":19041:19058   */\n      add\n        /* \"#utility.yul\":19032:19038   */\n      dup5\n        /* \"#utility.yul\":18994:19059   */\n      tag_403\n      jump\t// in\n    tag_554:\n        /* \"#utility.yul\":18856:19066   */\n      swap3\n      swap2\n      pop\n      pop\n      jump\t// out\n        /* \"#utility.yul\":19072:19404   */\n    tag_93:\n        /* \"#utility.yul\":19193:19197   */\n      0x00\n        /* \"#utility.yul\":19231:19233   */\n      0x40\n        /* \"#utility.yul\":19220:19229   */\n      dup3\n        /* \"#utility.yul\":19216:19234   */\n      add\n        /* \"#utility.yul\":19208:19234   */\n      swap1\n      pop\n        /* \"#utility.yul\":19244:19315   */\n      tag_556\n        /* \"#utility.yul\":19312:19313   */\n      0x00\n        /* \"#utility.yul\":19301:19310   */\n      dup4\n        /* \"#utility.yul\":19297:19314   */\n      add\n        /* \"#utility.yul\":19288:19294   */\n      dup6\n        /* \"#utility.yul\":19244:19315   */\n      tag_410\n      jump\t// in\n    tag_556:\n        /* \"#utility.yul\":19325:19397   */\n      tag_557\n        /* \"#utility.yul\":19393:19395   */\n      0x20\n        /* \"#utility.yul\":19382:19391   */\n      dup4\n        /* \"#utility.yul\":19378:19396   */\n      add\n        /* \"#utility.yul\":19369:19375   */\n      dup5\n        /* \"#utility.yul\":19325:19397   */\n      tag_368\n      jump\t// in\n    tag_557:\n        /* \"#utility.yul\":19072:19404   */\n      swap4\n      swap3\n      pop\n      pop\n      pop\n      jump\t// out\n        /* \"#utility.yul\":19410:19644   */\n    tag_126:\n        /* \"#utility.yul\":19509:19513   */\n      0x00\n        /* \"#utility.yul\":19547:19549   */\n      0x20\n        /* \"#utility.yul\":19536:19545   */\n      dup3\n        /* \"#utility.yul\":19532:19550   */\n      add\n        /* \"#utility.yul\":19524:19550   */\n      swap1\n      pop\n        /* \"#utility.yul\":19560:19637   */\n      tag_559\n        /* \"#utility.yul\":19634:19635   */\n      0x00\n        /* \"#utility.yul\":19623:19632   */\n      dup4\n        /* \"#utility.yul\":19619:19636   */\n      add\n        /* \"#utility.yul\":19610:19616   */\n      dup5\n        /* \"#utility.yul\":19560:19637   */\n      tag_413\n      jump\t// in\n    tag_559:\n        /* \"#utility.yul\":19410:19644   */\n      swap3\n      swap2\n      pop\n      pop\n      jump\t// out\n        /* \"#utility.yul\":19650:20069   */\n    tag_277:\n        /* \"#utility.yul\":19816:19820   */\n      0x00\n        /* \"#utility.yul\":19854:19856   */\n      0x20\n        /* \"#utility.yul\":19843:19852   */\n      dup3\n        /* \"#utility.yul\":19839:19857   */\n      add\n        /* \"#utility.yul\":19831:19857   */\n      swap1\n      pop\n        /* \"#utility.yul\":19903:19912   */\n      dup2\n        /* \"#utility.yul\":19897:19901   */\n      dup2\n        /* \"#utility.yul\":19893:19913   */\n      sub\n        /* \"#utility.yul\":19889:19890   */\n      0x00\n        /* \"#utility.yul\":19878:19887   */\n      dup4\n        /* \"#utility.yul\":19874:19891   */\n      add\n        /* \"#utility.yul\":19867:19914   */\n      mstore\n        /* \"#utility.yul\":19931:20062   */\n      tag_561\n        /* \"#utility.yul\":20057:20061   */\n      dup2\n        /* \"#utility.yul\":19931:20062   */\n      tag_417\n      jump\t// in\n    tag_561:\n        /* \"#utility.yul\":19923:20062   */\n      swap1\n      pop\n        /* \"#utility.yul\":19650:20069   */\n      swap2\n      swap1\n      pop\n      jump\t// out\n        /* \"#utility.yul\":20075:20494   */\n    tag_138:\n        /* \"#utility.yul\":20241:20245   */\n      0x00\n        /* \"#utility.yul\":20279:20281   */\n      0x20\n        /* \"#utility.yul\":20268:20277   */\n      dup3\n        /* \"#utility.yul\":20264:20282   */\n      add\n        /* \"#utility.yul\":20256:20282   */\n      swap1\n      pop\n        /* \"#utility.yul\":20328:20337   */\n      dup2\n        /* \"#utility.yul\":20322:20326   */\n      dup2\n        /* \"#utility.yul\":20318:20338   */\n      sub\n        /* \"#utility.yul\":20314:20315   */\n      0x00\n        /* \"#utility.yul\":20303:20312   */\n      dup4\n        /* \"#utility.yul\":20299:20316   */\n      add\n        /* \"#utility.yul\":20292:20339   */\n      mstore\n        /* \"#utility.yul\":20356:20487   */\n      tag_563\n        /* \"#utility.yul\":20482:20486   */\n      dup2\n        /* \"#utility.yul\":20356:20487   */\n      tag_423\n      jump\t// in\n    tag_563:\n        /* \"#utility.yul\":20348:20487   */\n      swap1\n      pop\n        /* \"#utility.yul\":20075:20494   */\n      swap2\n      swap1\n      pop\n      jump\t// out\n        /* \"#utility.yul\":20500:20919   */\n    tag_165:\n        /* \"#utility.yul\":20666:20670   */\n      0x00\n        /* \"#utility.yul\":20704:20706   */\n      0x20\n        /* \"#utility.yul\":20693:20702   */\n      dup3\n        /* \"#utility.yul\":20689:20707   */\n      add\n        /* \"#utility.yul\":20681:20707   */\n      swap1\n      pop\n        /* \"#utility.yul\":20753:20762   */\n      dup2\n        /* \"#utility.yul\":20747:20751   */\n      dup2\n        /* \"#utility.yul\":20743:20763   */\n      sub\n        /* \"#utility.yul\":20739:20740   */\n      0x00\n        /* \"#utility.yul\":20728:20737   */\n      dup4\n        /* \"#utility.yul\":20724:20741   */\n      add\n        /* \"#utility.yul\":20717:20764   */\n      mstore\n        /* \"#utility.yul\":20781:20912   */\n      tag_565\n        /* \"#utility.yul\":20907:20911   */\n      dup2\n        /* \"#utility.yul\":20781:20912   */\n      tag_428\n      jump\t// in\n    tag_565:\n        /* \"#utility.yul\":20773:20912   */\n      swap1\n      pop\n        /* \"#utility.yul\":20500:20919   */\n      swap2\n      swap1\n      pop\n      jump\t// out\n        /* \"#utility.yul\":20925:21344   */\n    tag_207:\n        /* \"#utility.yul\":21091:21095   */\n      0x00\n        /* \"#utility.yul\":21129:21131   */\n      0x20\n        /* \"#utility.yul\":21118:21127   */\n      dup3\n        /* \"#utility.yul\":21114:21132   */\n      add\n        /* \"#utility.yul\":21106:21132   */\n      swap1\n      pop\n        /* \"#utility.yul\":21178:21187   */\n      dup2\n        /* \"#utility.yul\":21172:21176   */\n      dup2\n        /* \"#utility.yul\":21168:21188   */\n      sub\n        /* \"#utility.yul\":21164:21165   */\n      0x00\n        /* \"#utility.yul\":21153:21162   */\n      dup4\n        /* \"#utility.yul\":21149:21166   */\n      add\n        /* \"#utility.yul\":21142:21189   */\n      mstore\n        /* \"#utility.yul\":21206:21337   */\n      tag_567\n        /* \"#utility.yul\":21332:21336   */\n      dup2\n        /* \"#utility.yul\":21206:21337   */\n      tag_433\n      jump\t// in\n    tag_567:\n        /* \"#utility.yul\":21198:21337   */\n      swap1\n      pop\n        /* \"#utility.yul\":20925:21344   */\n      swap2\n      swap1\n      pop\n      jump\t// out\n        /* \"#utility.yul\":21350:21769   */\n    tag_119:\n        /* \"#utility.yul\":21516:21520   */\n      0x00\n        /* \"#utility.yul\":21554:21556   */\n      0x20\n        /* \"#utility.yul\":21543:21552   */\n      dup3\n        /* \"#utility.yul\":21539:21557   */\n      add\n        /* \"#utility.yul\":21531:21557   */\n      swap1\n      pop\n        /* \"#utility.yul\":21603:21612   */\n      dup2\n        /* \"#utility.yul\":21597:21601   */\n      dup2\n        /* \"#utility.yul\":21593:21613   */\n      sub\n        /* \"#utility.yul\":21589:21590   */\n      0x00\n        /* \"#utility.yul\":21578:21587   */\n      dup4\n        /* \"#utility.yul\":21574:21591   */\n      add\n        /* \"#utility.yul\":21567:21614   */\n      mstore\n        /* \"#utility.yul\":21631:21762   */\n      tag_569\n        /* \"#utility.yul\":21757:21761   */\n      dup2\n        /* \"#utility.yul\":21631:21762   */\n      tag_438\n      jump\t// in\n    tag_569:\n        /* \"#utility.yul\":21623:21762   */\n      swap1\n      pop\n        /* \"#utility.yul\":21350:21769   */\n      swap2\n      swap1\n      pop\n      jump\t// out\n        /* \"#utility.yul\":21775:22194   */\n    tag_253:\n        /* \"#utility.yul\":21941:21945   */\n      0x00\n        /* \"#utility.yul\":21979:21981   */\n      0x20\n        /* \"#utility.yul\":21968:21977   */\n      dup3\n        /* \"#utility.yul\":21964:21982   */\n      add\n        /* \"#utility.yul\":21956:21982   */\n      swap1\n      pop\n        /* \"#utility.yul\":22028:22037   */\n      dup2\n        /* \"#utility.yul\":22022:22026   */\n      dup2\n        /* \"#utility.yul\":22018:22038   */\n      sub\n        /* \"#utility.yul\":22014:22015   */\n      0x00\n        /* \"#utility.yul\":22003:22012   */\n      dup4\n        /* \"#utility.yul\":21999:22016   */\n      add\n        /* \"#utility.yul\":21992:22039   */\n      mstore\n        /* \"#utility.yul\":22056:22187   */\n      tag_571\n        /* \"#utility.yul\":22182:22186   */\n      dup2\n        /* \"#utility.yul\":22056:22187   */\n      tag_443\n      jump\t// in\n    tag_571:\n        /* \"#utility.yul\":22048:22187   */\n      swap1\n      pop\n        /* \"#utility.yul\":21775:22194   */\n      swap2\n      swap1\n      pop\n      jump\t// out\n        /* \"#utility.yul\":22200:22619   */\n    tag_135:\n        /* \"#utility.yul\":22366:22370   */\n      0x00\n        /* \"#utility.yul\":22404:22406   */\n      0x20\n        /* \"#utility.yul\":22393:22402   */\n      dup3\n        /* \"#utility.yul\":22389:22407   */\n      add\n        /* \"#utility.yul\":22381:22407   */\n      swap1\n      pop\n        /* \"#utility.yul\":22453:22462   */\n      dup2\n        /* \"#utility.yul\":22447:22451   */\n      dup2\n        /* \"#utility.yul\":22443:22463   */\n      sub\n        /* \"#utility.yul\":22439:22440   */\n      0x00\n        /* \"#utility.yul\":22428:22437   */\n      dup4\n        /* \"#utility.yul\":22424:22441   */\n      add\n        /* \"#utility.yul\":22417:22464   */\n      mstore\n        /* \"#utility.yul\":22481:22612   */\n      tag_573\n        /* \"#utility.yul\":22607:22611   */\n      dup2\n        /* \"#utility.yul\":22481:22612   */\n      tag_448\n      jump\t// in\n    tag_573:\n        /* \"#utility.yul\":22473:22612   */\n      swap1\n      pop\n        /* \"#utility.yul\":22200:22619   */\n      swap2\n      swap1\n      pop\n      jump\t// out\n        /* \"#utility.yul\":22625:23044   */\n    tag_114:\n        /* \"#utility.yul\":22791:22795   */\n      0x00\n        /* \"#utility.yul\":22829:22831   */\n      0x20\n        /* \"#utility.yul\":22818:22827   */\n      dup3\n        /* \"#utility.yul\":22814:22832   */\n      add\n        /* \"#utility.yul\":22806:22832   */\n      swap1\n      pop\n        /* \"#utility.yul\":22878:22887   */\n      dup2\n        /* \"#utility.yul\":22872:22876   */\n      dup2\n        /* \"#utility.yul\":22868:22888   */\n      sub\n        /* \"#utility.yul\":22864:22865   */\n      0x00\n        /* \"#utility.yul\":22853:22862   */\n      dup4\n        /* \"#utility.yul\":22849:22866   */\n      add\n        /* \"#utility.yul\":22842:22889   */\n      mstore\n        /* \"#utility.yul\":22906:23037   */\n      tag_575\n        /* \"#utility.yul\":23032:23036   */\n      dup2\n        /* \"#utility.yul\":22906:23037   */\n      tag_453\n      jump\t// in\n    tag_575:\n        /* \"#utility.yul\":22898:23037   */\n      swap1\n      pop\n        /* \"#utility.yul\":22625:23044   */\n      swap2\n      swap1\n      pop\n      jump\t// out\n        /* \"#utility.yul\":23050:23469   */\n    tag_101:\n        /* \"#utility.yul\":23216:23220   */\n      0x00\n        /* \"#utility.yul\":23254:23256   */\n      0x20\n        /* \"#utility.yul\":23243:23252   */\n      dup3\n        /* \"#utility.yul\":23239:23257   */\n      add\n        /* \"#utility.yul\":23231:23257   */\n      swap1\n      pop\n        /* \"#utility.yul\":23303:23312   */\n      dup2\n        /* \"#utility.yul\":23297:23301   */\n      dup2\n        /* \"#utility.yul\":23293:23313   */\n      sub\n        /* \"#utility.yul\":23289:23290   */\n      0x00\n        /* \"#utility.yul\":23278:23287   */\n      dup4\n        /* \"#utility.yul\":23274:23291   */\n      add\n        /* \"#utility.yul\":23267:23314   */\n      mstore\n        /* \"#utility.yul\":23331:23462   */\n      tag_577\n        /* \"#utility.yul\":23457:23461   */\n      dup2\n        /* \"#utility.yul\":23331:23462   */\n      tag_458\n      jump\t// in\n    tag_577:\n        /* \"#utility.yul\":23323:23462   */\n      swap1\n      pop\n        /* \"#utility.yul\":23050:23469   */\n      swap2\n      swap1\n      pop\n      jump\t// out\n        /* \"#utility.yul\":23475:23894   */\n    tag_141:\n        /* \"#utility.yul\":23641:23645   */\n      0x00\n        /* \"#utility.yul\":23679:23681   */\n      0x20\n        /* \"#utility.yul\":23668:23677   */\n      dup3\n        /* \"#utility.yul\":23664:23682   */\n      add\n        /* \"#utility.yul\":23656:23682   */\n      swap1\n      pop\n        /* \"#utility.yul\":23728:23737   */\n      dup2\n        /* \"#utility.yul\":23722:23726   */\n      dup2\n        /* \"#utility.yul\":23718:23738   */\n      sub\n        /* \"#utility.yul\":23714:23715   */\n      0x00\n        /* \"#utility.yul\":23703:23712   */\n      dup4\n        /* \"#utility.yul\":23699:23716   */\n      add\n        /* \"#utility.yul\":23692:23739   */\n      mstore\n        /* \"#utility.yul\":23756:23887   */\n      tag_579\n        /* \"#utility.yul\":23882:23886   */\n      dup2\n        /* \"#utility.yul\":23756:23887   */\n      tag_463\n      jump\t// in\n    tag_579:\n        /* \"#utility.yul\":23748:23887   */\n      swap1\n      pop\n        /* \"#utility.yul\":23475:23894   */\n      swap2\n      swap1\n      pop\n      jump\t// out\n        /* \"#utility.yul\":23900:24319   */\n    tag_203:\n        /* \"#utility.yul\":24066:24070   */\n      0x00\n        /* \"#utility.yul\":24104:24106   */\n      0x20\n        /* \"#utility.yul\":24093:24102   */\n      dup3\n        /* \"#utility.yul\":24089:24107   */\n      add\n        /* \"#utility.yul\":24081:24107   */\n      swap1\n      pop\n        /* \"#utility.yul\":24153:24162   */\n      dup2\n        /* \"#utility.yul\":24147:24151   */\n      dup2\n        /* \"#utility.yul\":24143:24163   */\n      sub\n        /* \"#utility.yul\":24139:24140   */\n      0x00\n        /* \"#utility.yul\":24128:24137   */\n      dup4\n        /* \"#utility.yul\":24124:24141   */\n      add\n        /* \"#utility.yul\":24117:24164   */\n      mstore\n        /* \"#utility.yul\":24181:24312   */\n      tag_581\n        /* \"#utility.yul\":24307:24311   */\n      dup2\n        /* \"#utility.yul\":24181:24312   */\n      tag_468\n      jump\t// in\n    tag_581:\n        /* \"#utility.yul\":24173:24312   */\n      swap1\n      pop\n        /* \"#utility.yul\":23900:24319   */\n      swap2\n      swap1\n      pop\n      jump\t// out\n        /* \"#utility.yul\":24325:24744   */\n    tag_210:\n        /* \"#utility.yul\":24491:24495   */\n      0x00\n        /* \"#utility.yul\":24529:24531   */\n      0x20\n        /* \"#utility.yul\":24518:24527   */\n      dup3\n        /* \"#utility.yul\":24514:24532   */\n      add\n        /* \"#utility.yul\":24506:24532   */\n      swap1\n      pop\n        /* \"#utility.yul\":24578:24587   */\n      dup2\n        /* \"#utility.yul\":24572:24576   */\n      dup2\n        /* \"#utility.yul\":24568:24588   */\n      sub\n        /* \"#utility.yul\":24564:24565   */\n      0x00\n        /* \"#utility.yul\":24553:24562   */\n      dup4\n        /* \"#utility.yul\":24549:24566   */\n      add\n        /* \"#utility.yul\":24542:24589   */\n      mstore\n        /* \"#utility.yul\":24606:24737   */\n      tag_583\n        /* \"#utility.yul\":24732:24736   */\n      dup2\n        /* \"#utility.yul\":24606:24737   */\n      tag_473\n      jump\t// in\n    tag_583:\n        /* \"#utility.yul\":24598:24737   */\n      swap1\n      pop\n        /* \"#utility.yul\":24325:24744   */\n      swap2\n      swap1\n      pop\n      jump\t// out\n        /* \"#utility.yul\":24750:25169   */\n    tag_123:\n        /* \"#utility.yul\":24916:24920   */\n      0x00\n        /* \"#utility.yul\":24954:24956   */\n      0x20\n        /* \"#utility.yul\":24943:24952   */\n      dup3\n        /* \"#utility.yul\":24939:24957   */\n      add\n        /* \"#utility.yul\":24931:24957   */\n      swap1\n      pop\n        /* \"#utility.yul\":25003:25012   */\n      dup2\n        /* \"#utility.yul\":24997:25001   */\n      dup2\n        /* \"#utility.yul\":24993:25013   */\n      sub\n        /* \"#utility.yul\":24989:24990   */\n      0x00\n        /* \"#utility.yul\":24978:24987   */\n      dup4\n        /* \"#utility.yul\":24974:24991   */\n      add\n        /* \"#utility.yul\":24967:25014   */\n      mstore\n        /* \"#utility.yul\":25031:25162   */\n      tag_585\n        /* \"#utility.yul\":25157:25161   */\n      dup2\n        /* \"#utility.yul\":25031:25162   */\n      tag_478\n      jump\t// in\n    tag_585:\n        /* \"#utility.yul\":25023:25162   */\n      swap1\n      pop\n        /* \"#utility.yul\":24750:25169   */\n      swap2\n      swap1\n      pop\n      jump\t// out\n        /* \"#utility.yul\":25175:25397   */\n    tag_87:\n        /* \"#utility.yul\":25268:25272   */\n      0x00\n        /* \"#utility.yul\":25306:25308   */\n      0x20\n        /* \"#utility.yul\":25295:25304   */\n      dup3\n        /* \"#utility.yul\":25291:25309   */\n      add\n        /* \"#utility.yul\":25283:25309   */\n      swap1\n      pop\n        /* \"#utility.yul\":25319:25390   */\n      tag_587\n        /* \"#utility.yul\":25387:25388   */\n      0x00\n        /* \"#utility.yul\":25376:25385   */\n      dup4\n        /* \"#utility.yul\":25372:25389   */\n      add\n        /* \"#utility.yul\":25363:25369   */\n      dup5\n        /* \"#utility.yul\":25319:25390   */\n      tag_534\n      jump\t// in\n    tag_587:\n        /* \"#utility.yul\":25175:25397   */\n      swap3\n      swap2\n      pop\n      pop\n      jump\t// out\n        /* \"#utility.yul\":25403:26115   */\n    tag_146:\n        /* \"#utility.yul\":25634:25638   */\n      0x00\n        /* \"#utility.yul\":25672:25675   */\n      0x80\n        /* \"#utility.yul\":25661:25670   */\n      dup3\n        /* \"#utility.yul\":25657:25676   */\n      add\n        /* \"#utility.yul\":25649:25676   */\n      swap1\n      pop\n        /* \"#utility.yul\":25686:25757   */\n      tag_589\n        /* \"#utility.yul\":25754:25755   */\n      0x00\n        /* \"#utility.yul\":25743:25752   */\n      dup4\n        /* \"#utility.yul\":25739:25756   */\n      add\n        /* \"#utility.yul\":25730:25736   */\n      dup8\n        /* \"#utility.yul\":25686:25757   */\n      tag_534\n      jump\t// in\n    tag_589:\n        /* \"#utility.yul\":25767:25837   */\n      tag_590\n        /* \"#utility.yul\":25833:25835   */\n      0x20\n        /* \"#utility.yul\":25822:25831   */\n      dup4\n        /* \"#utility.yul\":25818:25836   */\n      add\n        /* \"#utility.yul\":25809:25815   */\n      dup7\n        /* \"#utility.yul\":25767:25837   */\n      tag_541\n      jump\t// in\n    tag_590:\n        /* \"#utility.yul\":25847:25917   */\n      tag_591\n        /* \"#utility.yul\":25913:25915   */\n      0x40\n        /* \"#utility.yul\":25902:25911   */\n      dup4\n        /* \"#utility.yul\":25898:25916   */\n      add\n        /* \"#utility.yul\":25889:25895   */\n      dup6\n        /* \"#utility.yul\":25847:25917   */\n      tag_537\n      jump\t// in\n    tag_591:\n        /* \"#utility.yul\":25964:25973   */\n      dup2\n        /* \"#utility.yul\":25958:25962   */\n      dup2\n        /* \"#utility.yul\":25954:25974   */\n      sub\n        /* \"#utility.yul\":25949:25951   */\n      0x60\n        /* \"#utility.yul\":25938:25947   */\n      dup4\n        /* \"#utility.yul\":25934:25952   */\n      add\n        /* \"#utility.yul\":25927:25975   */\n      mstore\n        /* \"#utility.yul\":25992:26108   */\n      tag_592\n        /* \"#utility.yul\":26103:26107   */\n      dup2\n        /* \"#utility.yul\":26094:26100   */\n      dup5\n        /* \"#utility.yul\":25992:26108   */\n      tag_508\n      jump\t// in\n    tag_592:\n        /* \"#utility.yul\":25984:26108   */\n      swap1\n      pop\n        /* \"#utility.yul\":25403:26115   */\n      swap6\n      swap5\n      pop\n      pop\n      pop\n      pop\n      pop\n      jump\t// out\n        /* \"#utility.yul\":26121:26339   */\n    tag_49:\n        /* \"#utility.yul\":26212:26216   */\n      0x00\n        /* \"#utility.yul\":26250:26252   */\n      0x20\n        /* \"#utility.yul\":26239:26248   */\n      dup3\n        /* \"#utility.yul\":26235:26253   */\n      add\n        /* \"#utility.yul\":26227:26253   */\n      swap1\n      pop\n        /* \"#utility.yul\":26263:26332   */\n      tag_594\n        /* \"#utility.yul\":26329:26330   */\n      0x00\n        /* \"#utility.yul\":26318:26327   */\n      dup4\n        /* \"#utility.yul\":26314:26331   */\n      add\n        /* \"#utility.yul\":26305:26311   */\n      dup5\n        /* \"#utility.yul\":26263:26332   */\n      tag_537\n      jump\t// in\n    tag_594:\n        /* \"#utility.yul\":26121:26339   */\n      swap3\n      swap2\n      pop\n      pop\n      jump\t// out\n        /* \"#utility.yul\":26345:26661   */\n    tag_73:\n        /* \"#utility.yul\":26458:26462   */\n      0x00\n        /* \"#utility.yul\":26496:26498   */\n      0x40\n        /* \"#utility.yul\":26485:26494   */\n      dup3\n        /* \"#utility.yul\":26481:26499   */\n      add\n        /* \"#utility.yul\":26473:26499   */\n      swap1\n      pop\n        /* \"#utility.yul\":26509:26578   */\n      tag_596\n        /* \"#utility.yul\":26575:26576   */\n      0x00\n        /* \"#utility.yul\":26564:26573   */\n      dup4\n        /* \"#utility.yul\":26560:26577   */\n      add\n        /* \"#utility.yul\":26551:26557   */\n      dup6\n        /* \"#utility.yul\":26509:26578   */\n      tag_537\n      jump\t// in\n    tag_596:\n        /* \"#utility.yul\":26588:26654   */\n      tag_597\n        /* \"#utility.yul\":26650:26652   */\n      0x20\n        /* \"#utility.yul\":26639:26648   */\n      dup4\n        /* \"#utility.yul\":26635:26653   */\n      add\n        /* \"#utility.yul\":26626:26632   */\n      dup5\n        /* \"#utility.yul\":26588:26654   */\n      tag_403\n      jump\t// in\n    tag_597:\n        /* \"#utility.yul\":26345:26661   */\n      swap4\n      swap3\n      pop\n      pop\n      pop\n      jump\t// out\n        /* \"#utility.yul\":26667:26881   */\n    tag_35:\n        /* \"#utility.yul\":26756:26760   */\n      0x00\n        /* \"#utility.yul\":26794:26796   */\n      0x20\n        /* \"#utility.yul\":26783:26792   */\n      dup3\n        /* \"#utility.yul\":26779:26797   */\n      add\n        /* \"#utility.yul\":26771:26797   */\n      swap1\n      pop\n        /* \"#utility.yul\":26807:26874   */\n      tag_599\n        /* \"#utility.yul\":26871:26872   */\n      0x00\n        /* \"#utility.yul\":26860:26869   */\n      dup4\n        /* \"#utility.yul\":26856:26873   */\n      add\n        /* \"#utility.yul\":26847:26853   */\n      dup5\n        /* \"#utility.yul\":26807:26874   */\n      tag_545\n      jump\t// in\n    tag_599:\n        /* \"#utility.yul\":26667:26881   */\n      swap3\n      swap2\n      pop\n      pop\n      jump\t// out\n        /* \"#utility.yul\":26887:27207   */\n    tag_168:\n        /* \"#utility.yul\":27002:27006   */\n      0x00\n        /* \"#utility.yul\":27040:27042   */\n      0x40\n        /* \"#utility.yul\":27029:27038   */\n      dup3\n        /* \"#utility.yul\":27025:27043   */\n      add\n        /* \"#utility.yul\":27017:27043   */\n      swap1\n      pop\n        /* \"#utility.yul\":27053:27120   */\n      tag_601\n        /* \"#utility.yul\":27117:27118   */\n      0x00\n        /* \"#utility.yul\":27106:27115   */\n      dup4\n        /* \"#utility.yul\":27102:27119   */\n      add\n        /* \"#utility.yul\":27093:27099   */\n      dup6\n        /* \"#utility.yul\":27053:27120   */\n      tag_545\n      jump\t// in\n    tag_601:\n        /* \"#utility.yul\":27130:27200   */\n      tag_602\n        /* \"#utility.yul\":27196:27198   */\n      0x20\n        /* \"#utility.yul\":27185:27194   */\n      dup4\n        /* \"#utility.yul\":27181:27199   */\n      add\n        /* \"#utility.yul\":27172:27178   */\n      dup5\n        /* \"#utility.yul\":27130:27200   */\n      tag_537\n      jump\t// in\n    tag_602:\n        /* \"#utility.yul\":26887:27207   */\n      swap4\n      swap3\n      pop\n      pop\n      pop\n      jump\t// out\n        /* \"#utility.yul\":27294:27428   */\n    tag_376:\n        /* \"#utility.yul\":27395:27399   */\n      0x00\n        /* \"#utility.yul\":27418:27421   */\n      dup2\n        /* \"#utility.yul\":27410:27421   */\n      swap1\n      pop\n        /* \"#utility.yul\":27294:27428   */\n      swap2\n      swap1\n      pop\n      jump\t// out\n        /* \"#utility.yul\":27434:27571   */\n    tag_390:\n        /* \"#utility.yul\":27538:27542   */\n      0x00\n        /* \"#utility.yul\":27561:27564   */\n      dup2\n        /* \"#utility.yul\":27553:27564   */\n      swap1\n      pop\n        /* \"#utility.yul\":27434:27571   */\n      swap2\n      swap1\n      pop\n      jump\t// out\n        /* \"#utility.yul\":27577:27724   */\n    tag_384:\n        /* \"#utility.yul\":27681:27685   */\n      0x00\n        /* \"#utility.yul\":27713:27717   */\n      0x20\n        /* \"#utility.yul\":27708:27711   */\n      dup3\n        /* \"#utility.yul\":27704:27718   */\n      add\n        /* \"#utility.yul\":27696:27718   */\n      swap1\n      pop\n        /* \"#utility.yul\":27577:27724   */\n      swap2\n      swap1\n      pop\n      jump\t// out\n        /* \"#utility.yul\":27730:27880   */\n    tag_398:\n        /* \"#utility.yul\":27837:27841   */\n      0x00\n        /* \"#utility.yul\":27869:27873   */\n      0x40\n        /* \"#utility.yul\":27864:27867   */\n      dup3\n        /* \"#utility.yul\":27860:27874   */\n      add\n        /* \"#utility.yul\":27852:27874   */\n      swap1\n      pop\n        /* \"#utility.yul\":27730:27880   */\n      swap2\n      swap1\n      pop\n      jump\t// out\n        /* \"#utility.yul\":27886:28090   */\n    tag_374:\n        /* \"#utility.yul\":28005:28016   */\n      0x00\n        /* \"#utility.yul\":28039:28045   */\n      dup3\n        /* \"#utility.yul\":28034:28037   */\n      dup3\n        /* \"#utility.yul\":28027:28046   */\n      mstore\n        /* \"#utility.yul\":28079:28083   */\n      0x20\n        /* \"#utility.yul\":28074:28077   */\n      dup3\n        /* \"#utility.yul\":28070:28084   */\n      add\n        /* \"#utility.yul\":28055:28084   */\n      swap1\n      pop\n        /* \"#utility.yul\":27886:28090   */\n      swap3\n      swap2\n      pop\n      pop\n      jump\t// out\n        /* \"#utility.yul\":28096:28303   */\n    tag_388:\n        /* \"#utility.yul\":28218:28229   */\n      0x00\n        /* \"#utility.yul\":28252:28258   */\n      dup3\n        /* \"#utility.yul\":28247:28250   */\n      dup3\n        /* \"#utility.yul\":28240:28259   */\n      mstore\n        /* \"#utility.yul\":28292:28296   */\n      0x20\n        /* \"#utility.yul\":28287:28290   */\n      dup3\n        /* \"#utility.yul\":28283:28297   */\n      add\n        /* \"#utility.yul\":28268:28297   */\n      swap1\n      pop\n        /* \"#utility.yul\":28096:28303   */\n      swap3\n      swap2\n      pop\n      pop\n      jump\t// out\n        /* \"#utility.yul\":28309:28478   */\n    tag_420:\n        /* \"#utility.yul\":28393:28404   */\n      0x00\n        /* \"#utility.yul\":28427:28433   */\n      dup3\n        /* \"#utility.yul\":28422:28425   */\n      dup3\n        /* \"#utility.yul\":28415:28434   */\n      mstore\n        /* \"#utility.yul\":28467:28471   */\n      0x20\n        /* \"#utility.yul\":28462:28465   */\n      dup3\n        /* \"#utility.yul\":28458:28472   */\n      add\n        /* \"#utility.yul\":28443:28472   */\n      swap1\n      pop\n        /* \"#utility.yul\":28309:28478   */\n      swap3\n      swap2\n      pop\n      pop\n      jump\t// out\n        /* \"#utility.yul\":28484:28606   */\n    tag_485:\n        /* \"#utility.yul\":28536:28541   */\n      0x00\n        /* \"#utility.yul\":28561:28600   */\n      tag_613\n        /* \"#utility.yul\":28596:28598   */\n      0x20\n        /* \"#utility.yul\":28591:28594   */\n      dup5\n        /* \"#utility.yul\":28587:28599   */\n      add\n        /* \"#utility.yul\":28582:28585   */\n      dup5\n        /* \"#utility.yul\":28561:28600   */\n      tag_280\n      jump\t// in\n    tag_613:\n        /* \"#utility.yul\":28552:28600   */\n      swap1\n      pop\n        /* \"#utility.yul\":28484:28606   */\n      swap3\n      swap2\n      pop\n      pop\n      jump\t// out\n        /* \"#utility.yul\":28612:29374   */\n    tag_526:\n        /* \"#utility.yul\":28724:28729   */\n      0x00\n        /* \"#utility.yul\":28731:28737   */\n      dup1\n        /* \"#utility.yul\":28787:28790   */\n      dup4\n        /* \"#utility.yul\":28774:28791   */\n      calldataload\n        /* \"#utility.yul\":28879:28880   */\n      0x01\n        /* \"#utility.yul\":28873:28877   */\n      0x20\n        /* \"#utility.yul\":28869:28881   */\n      sub\n        /* \"#utility.yul\":28858:28866   */\n      dup5\n        /* \"#utility.yul\":28842:28856   */\n      calldatasize\n        /* \"#utility.yul\":28838:28867   */\n      sub\n        /* \"#utility.yul\":28834:28882   */\n      sub\n        /* \"#utility.yul\":28814:28832   */\n      dup2\n        /* \"#utility.yul\":28810:28883   */\n      slt\n        /* \"#utility.yul\":28800:28968   */\n      tag_615\n      jumpi\n        /* \"#utility.yul\":28887:28966   */\n      tag_616\n      tag_617\n      jump\t// in\n    tag_616:\n        /* \"#utility.yul\":28800:28968   */\n    tag_615:\n        /* \"#utility.yul\":29010:29018   */\n      dup4\n        /* \"#utility.yul\":28990:29008   */\n      dup2\n        /* \"#utility.yul\":28986:29019   */\n      add\n        /* \"#utility.yul\":28977:29019   */\n      swap3\n      pop\n        /* \"#utility.yul\":29052:29057   */\n      dup3\n        /* \"#utility.yul\":29039:29058   */\n      calldataload\n        /* \"#utility.yul\":29029:29058   */\n      swap2\n      pop\n        /* \"#utility.yul\":29087:29091   */\n      0x20\n        /* \"#utility.yul\":29080:29085   */\n      dup4\n        /* \"#utility.yul\":29076:29092   */\n      add\n        /* \"#utility.yul\":29067:29092   */\n      swap3\n      pop\n        /* \"#utility.yul\":29115:29133   */\n      0xffffffffffffffff\n        /* \"#utility.yul\":29107:29113   */\n      dup3\n        /* \"#utility.yul\":29104:29134   */\n      gt\n        /* \"#utility.yul\":29101:29218   */\n      iszero\n      tag_618\n      jumpi\n        /* \"#utility.yul\":29137:29216   */\n      tag_619\n      tag_620\n      jump\t// in\n    tag_619:\n        /* \"#utility.yul\":29101:29218   */\n    tag_618:\n        /* \"#utility.yul\":29276:29280   */\n      0x20\n        /* \"#utility.yul\":29268:29274   */\n      dup3\n        /* \"#utility.yul\":29264:29281   */\n      mul\n        /* \"#utility.yul\":29248:29262   */\n      calldatasize\n        /* \"#utility.yul\":29244:29282   */\n      sub\n        /* \"#utility.yul\":29234:29242   */\n      dup5\n        /* \"#utility.yul\":29230:29283   */\n      sgt\n        /* \"#utility.yul\":29227:29367   */\n      iszero\n      tag_621\n      jumpi\n        /* \"#utility.yul\":29286:29365   */\n      tag_622\n      tag_623\n      jump\t// in\n    tag_622:\n        /* \"#utility.yul\":29227:29367   */\n    tag_621:\n        /* \"#utility.yul\":28738:29374   */\n      pop\n        /* \"#utility.yul\":28612:29374   */\n      swap3\n      pop\n      swap3\n      swap1\n      pop\n      jump\t// out\n        /* \"#utility.yul\":29380:30145   */\n    tag_501:\n        /* \"#utility.yul\":29495:29500   */\n      0x00\n        /* \"#utility.yul\":29502:29508   */\n      dup1\n        /* \"#utility.yul\":29558:29561   */\n      dup4\n        /* \"#utility.yul\":29545:29562   */\n      calldataload\n        /* \"#utility.yul\":29650:29651   */\n      0x01\n        /* \"#utility.yul\":29644:29648   */\n      0x20\n        /* \"#utility.yul\":29640:29652   */\n      sub\n        /* \"#utility.yul\":29629:29637   */\n      dup5\n        /* \"#utility.yul\":29613:29627   */\n      calldatasize\n        /* \"#utility.yul\":29609:29638   */\n      sub\n        /* \"#utility.yul\":29605:29653   */\n      sub\n        /* \"#utility.yul\":29585:29603   */\n      dup2\n        /* \"#utility.yul\":29581:29654   */\n      slt\n        /* \"#utility.yul\":29571:29739   */\n      tag_625\n      jumpi\n        /* \"#utility.yul\":29658:29737   */\n      tag_626\n      tag_617\n      jump\t// in\n    tag_626:\n        /* \"#utility.yul\":29571:29739   */\n    tag_625:\n        /* \"#utility.yul\":29781:29789   */\n      dup4\n        /* \"#utility.yul\":29761:29779   */\n      dup2\n        /* \"#utility.yul\":29757:29790   */\n      add\n        /* \"#utility.yul\":29748:29790   */\n      swap3\n      pop\n        /* \"#utility.yul\":29823:29828   */\n      dup3\n        /* \"#utility.yul\":29810:29829   */\n      calldataload\n        /* \"#utility.yul\":29800:29829   */\n      swap2\n      pop\n        /* \"#utility.yul\":29858:29862   */\n      0x20\n        /* \"#utility.yul\":29851:29856   */\n      dup4\n        /* \"#utility.yul\":29847:29863   */\n      add\n        /* \"#utility.yul\":29838:29863   */\n      swap3\n      pop\n        /* \"#utility.yul\":29886:29904   */\n      0xffffffffffffffff\n        /* \"#utility.yul\":29878:29884   */\n      dup3\n        /* \"#utility.yul\":29875:29905   */\n      gt\n        /* \"#utility.yul\":29872:29989   */\n      iszero\n      tag_627\n      jumpi\n        /* \"#utility.yul\":29908:29987   */\n      tag_628\n      tag_620\n      jump\t// in\n    tag_628:\n        /* \"#utility.yul\":29872:29989   */\n    tag_627:\n        /* \"#utility.yul\":30047:30051   */\n      0x40\n        /* \"#utility.yul\":30039:30045   */\n      dup3\n        /* \"#utility.yul\":30035:30052   */\n      mul\n        /* \"#utility.yul\":30019:30033   */\n      calldatasize\n        /* \"#utility.yul\":30015:30053   */\n      sub\n        /* \"#utility.yul\":30005:30013   */\n      dup5\n        /* \"#utility.yul\":30001:30054   */\n      sgt\n        /* \"#utility.yul\":29998:30138   */\n      iszero\n      tag_629\n      jumpi\n        /* \"#utility.yul\":30057:30136   */\n      tag_630\n      tag_623\n      jump\t// in\n    tag_630:\n        /* \"#utility.yul\":29998:30138   */\n    tag_629:\n        /* \"#utility.yul\":29509:30145   */\n      pop\n        /* \"#utility.yul\":29380:30145   */\n      swap3\n      pop\n      swap3\n      swap1\n      pop\n      jump\t// out\n        /* \"#utility.yul\":30151:30267   */\n    tag_492:\n        /* \"#utility.yul\":30200:30205   */\n      0x00\n        /* \"#utility.yul\":30225:30261   */\n      tag_632\n        /* \"#utility.yul\":30257:30259   */\n      0x20\n        /* \"#utility.yul\":30252:30255   */\n      dup5\n        /* \"#utility.yul\":30248:30260   */\n      add\n        /* \"#utility.yul\":30243:30246   */\n      dup5\n        /* \"#utility.yul\":30225:30261   */\n      tag_288\n      jump\t// in\n    tag_632:\n        /* \"#utility.yul\":30216:30261   */\n      swap1\n      pop\n        /* \"#utility.yul\":30151:30267   */\n      swap3\n      swap2\n      pop\n      pop\n      jump\t// out\n        /* \"#utility.yul\":30273:30395   */\n    tag_519:\n        /* \"#utility.yul\":30325:30330   */\n      0x00\n        /* \"#utility.yul\":30350:30389   */\n      tag_634\n        /* \"#utility.yul\":30385:30387   */\n      0x20\n        /* \"#utility.yul\":30380:30383   */\n      dup5\n        /* \"#utility.yul\":30376:30388   */\n      add\n        /* \"#utility.yul\":30371:30374   */\n      dup5\n        /* \"#utility.yul\":30350:30389   */\n      tag_295\n      jump\t// in\n    tag_634:\n        /* \"#utility.yul\":30341:30389   */\n      swap1\n      pop\n        /* \"#utility.yul\":30273:30395   */\n      swap3\n      swap2\n      pop\n      pop\n      jump\t// out\n        /* \"#utility.yul\":30401:30780   */\n    tag_381:\n        /* \"#utility.yul\":30486:30491   */\n      0x00\n        /* \"#utility.yul\":30541:30544   */\n      dup3\n        /* \"#utility.yul\":30528:30545   */\n      calldataload\n        /* \"#utility.yul\":30633:30634   */\n      0x01\n        /* \"#utility.yul\":30627:30631   */\n      0xc0\n        /* \"#utility.yul\":30623:30635   */\n      sub\n        /* \"#utility.yul\":30612:30620   */\n      dup4\n        /* \"#utility.yul\":30596:30610   */\n      calldatasize\n        /* \"#utility.yul\":30592:30621   */\n      sub\n        /* \"#utility.yul\":30588:30636   */\n      sub\n        /* \"#utility.yul\":30568:30586   */\n      dup2\n        /* \"#utility.yul\":30564:30637   */\n      slt\n        /* \"#utility.yul\":30554:30722   */\n      tag_636\n      jumpi\n        /* \"#utility.yul\":30641:30720   */\n      tag_637\n      tag_617\n      jump\t// in\n    tag_637:\n        /* \"#utility.yul\":30554:30722   */\n    tag_636:\n        /* \"#utility.yul\":30764:30772   */\n      dup3\n        /* \"#utility.yul\":30744:30762   */\n      dup2\n        /* \"#utility.yul\":30740:30773   */\n      add\n        /* \"#utility.yul\":30731:30773   */\n      swap2\n      pop\n        /* \"#utility.yul\":30492:30780   */\n      pop\n        /* \"#utility.yul\":30401:30780   */\n      swap3\n      swap2\n      pop\n      pop\n      jump\t// out\n        /* \"#utility.yul\":30786:30907   */\n    tag_395:\n        /* \"#utility.yul\":30873:30878   */\n      0x00\n        /* \"#utility.yul\":30898:30901   */\n      dup3\n        /* \"#utility.yul\":30889:30901   */\n      swap1\n      pop\n        /* \"#utility.yul\":30786:30907   */\n      swap3\n      swap2\n      pop\n      pop\n      jump\t// out\n        /* \"#utility.yul\":30913:31035   */\n    tag_488:\n        /* \"#utility.yul\":30965:30970   */\n      0x00\n        /* \"#utility.yul\":30990:31029   */\n      tag_640\n        /* \"#utility.yul\":31025:31027   */\n      0x20\n        /* \"#utility.yul\":31020:31023   */\n      dup5\n        /* \"#utility.yul\":31016:31028   */\n      add\n        /* \"#utility.yul\":31011:31014   */\n      dup5\n        /* \"#utility.yul\":30990:31029   */\n      tag_304\n      jump\t// in\n    tag_640:\n        /* \"#utility.yul\":30981:31029   */\n      swap1\n      pop\n        /* \"#utility.yul\":30913:31035   */\n      swap3\n      swap2\n      pop\n      pop\n      jump\t// out\n        /* \"#utility.yul\":31041:31163   */\n    tag_495:\n        /* \"#utility.yul\":31093:31098   */\n      0x00\n        /* \"#utility.yul\":31118:31157   */\n      tag_642\n        /* \"#utility.yul\":31153:31155   */\n      0x20\n        /* \"#utility.yul\":31148:31151   */\n      dup5\n        /* \"#utility.yul\":31144:31156   */\n      add\n        /* \"#utility.yul\":31139:31142   */\n      dup5\n        /* \"#utility.yul\":31118:31157   */\n      tag_308\n      jump\t// in\n    tag_642:\n        /* \"#utility.yul\":31109:31157   */\n      swap1\n      pop\n        /* \"#utility.yul\":31041:31163   */\n      swap3\n      swap2\n      pop\n      pop\n      jump\t// out\n        /* \"#utility.yul\":31169:31360   */\n    tag_226:\n        /* \"#utility.yul\":31209:31213   */\n      0x00\n        /* \"#utility.yul\":31229:31249   */\n      tag_644\n        /* \"#utility.yul\":31247:31248   */\n      dup3\n        /* \"#utility.yul\":31229:31249   */\n      tag_533\n      jump\t// in\n    tag_644:\n        /* \"#utility.yul\":31224:31249   */\n      swap2\n      pop\n        /* \"#utility.yul\":31263:31283   */\n      tag_645\n        /* \"#utility.yul\":31281:31282   */\n      dup4\n        /* \"#utility.yul\":31263:31283   */\n      tag_533\n      jump\t// in\n    tag_645:\n        /* \"#utility.yul\":31258:31283   */\n      swap3\n      pop\n        /* \"#utility.yul\":31302:31303   */\n      dup3\n        /* \"#utility.yul\":31299:31300   */\n      dup3\n        /* \"#utility.yul\":31296:31304   */\n      lt\n        /* \"#utility.yul\":31293:31327   */\n      iszero\n      tag_646\n      jumpi\n        /* \"#utility.yul\":31307:31325   */\n      tag_647\n      tag_648\n      jump\t// in\n    tag_647:\n        /* \"#utility.yul\":31293:31327   */\n    tag_646:\n        /* \"#utility.yul\":31352:31353   */\n      dup3\n        /* \"#utility.yul\":31349:31350   */\n      dup3\n        /* \"#utility.yul\":31345:31354   */\n      sub\n        /* \"#utility.yul\":31337:31354   */\n      swap1\n      pop\n        /* \"#utility.yul\":31169:31360   */\n      swap3\n      swap2\n      pop\n      pop\n      jump\t// out\n        /* \"#utility.yul\":31366:31462   */\n    tag_367:\n        /* \"#utility.yul\":31403:31410   */\n      0x00\n        /* \"#utility.yul\":31432:31456   */\n      tag_650\n        /* \"#utility.yul\":31450:31455   */\n      dup3\n        /* \"#utility.yul\":31432:31456   */\n      tag_651\n      jump\t// in\n    tag_650:\n        /* \"#utility.yul\":31421:31456   */\n      swap1\n      pop\n        /* \"#utility.yul\":31366:31462   */\n      swap2\n      swap1\n      pop\n      jump\t// out\n        /* \"#utility.yul\":31468:31572   */\n    tag_363:\n        /* \"#utility.yul\":31513:31520   */\n      0x00\n        /* \"#utility.yul\":31542:31566   */\n      tag_653\n        /* \"#utility.yul\":31560:31565   */\n      dup3\n        /* \"#utility.yul\":31542:31566   */\n      tag_651\n      jump\t// in\n    tag_653:\n        /* \"#utility.yul\":31531:31566   */\n      swap1\n      pop\n        /* \"#utility.yul\":31468:31572   */\n      swap2\n      swap1\n      pop\n      jump\t// out\n        /* \"#utility.yul\":31578:31668   */\n    tag_402:\n        /* \"#utility.yul\":31612:31619   */\n      0x00\n        /* \"#utility.yul\":31655:31660   */\n      dup2\n        /* \"#utility.yul\":31648:31661   */\n      iszero\n        /* \"#utility.yul\":31641:31662   */\n      iszero\n        /* \"#utility.yul\":31630:31662   */\n      swap1\n      pop\n        /* \"#utility.yul\":31578:31668   */\n      swap2\n      swap1\n      pop\n      jump\t// out\n        /* \"#utility.yul\":31674:31751   */\n    tag_409:\n        /* \"#utility.yul\":31711:31718   */\n      0x00\n        /* \"#utility.yul\":31740:31745   */\n      dup2\n        /* \"#utility.yul\":31729:31745   */\n      swap1\n      pop\n        /* \"#utility.yul\":31674:31751   */\n      swap2\n      swap1\n      pop\n      jump\t// out\n        /* \"#utility.yul\":31757:31875   */\n    tag_530:\n        /* \"#utility.yul\":31794:31801   */\n      0x00\n        /* \"#utility.yul\":31834:31868   */\n      0xffffffffffffffffffffffffffffffff\n        /* \"#utility.yul\":31827:31832   */\n      dup3\n        /* \"#utility.yul\":31823:31869   */\n      and\n        /* \"#utility.yul\":31812:31869   */\n      swap1\n      pop\n        /* \"#utility.yul\":31757:31875   */\n      swap2\n      swap1\n      pop\n      jump\t// out\n        /* \"#utility.yul\":31881:32007   */\n    tag_651:\n        /* \"#utility.yul\":31918:31925   */\n      0x00\n        /* \"#utility.yul\":31958:32000   */\n      0xffffffffffffffffffffffffffffffffffffffff\n        /* \"#utility.yul\":31951:31956   */\n      dup3\n        /* \"#utility.yul\":31947:32001   */\n      and\n        /* \"#utility.yul\":31936:32001   */\n      swap1\n      pop\n        /* \"#utility.yul\":31881:32007   */\n      swap2\n      swap1\n      pop\n      jump\t// out\n        /* \"#utility.yul\":32013:32090   */\n    tag_533:\n        /* \"#utility.yul\":32050:32057   */\n      0x00\n        /* \"#utility.yul\":32079:32084   */\n      dup2\n        /* \"#utility.yul\":32068:32084   */\n      swap1\n      pop\n        /* \"#utility.yul\":32013:32090   */\n      swap2\n      swap1\n      pop\n      jump\t// out\n        /* \"#utility.yul\":32096:32197   */\n    tag_540:\n        /* \"#utility.yul\":32132:32139   */\n      0x00\n        /* \"#utility.yul\":32172:32190   */\n      0xffffffffffffffff\n        /* \"#utility.yul\":32165:32170   */\n      dup3\n        /* \"#utility.yul\":32161:32191   */\n      and\n        /* \"#utility.yul\":32150:32191   */\n      swap1\n      pop\n        /* \"#utility.yul\":32096:32197   */\n      swap2\n      swap1\n      pop\n      jump\t// out\n        /* \"#utility.yul\":32203:32289   */\n    tag_548:\n        /* \"#utility.yul\":32238:32245   */\n      0x00\n        /* \"#utility.yul\":32278:32282   */\n      0xff\n        /* \"#utility.yul\":32271:32276   */\n      dup3\n        /* \"#utility.yul\":32267:32283   */\n      and\n        /* \"#utility.yul\":32256:32283   */\n      swap1\n      pop\n        /* \"#utility.yul\":32203:32289   */\n      swap2\n      swap1\n      pop\n      jump\t// out\n        /* \"#utility.yul\":32295:32412   */\n    tag_416:\n        /* \"#utility.yul\":32351:32360   */\n      0x00\n        /* \"#utility.yul\":32384:32406   */\n      tag_662\n        /* \"#utility.yul\":32400:32405   */\n      dup3\n        /* \"#utility.yul\":32384:32406   */\n      tag_548\n      jump\t// in\n    tag_662:\n        /* \"#utility.yul\":32371:32406   */\n      swap1\n      pop\n        /* \"#utility.yul\":32295:32412   */\n      swap2\n      swap1\n      pop\n      jump\t// out\n        /* \"#utility.yul\":32418:32527   */\n    tag_544:\n        /* \"#utility.yul\":32466:32475   */\n      0x00\n        /* \"#utility.yul\":32499:32521   */\n      tag_664\n        /* \"#utility.yul\":32515:32520   */\n      dup3\n        /* \"#utility.yul\":32499:32521   */\n      tag_548\n      jump\t// in\n    tag_664:\n        /* \"#utility.yul\":32486:32521   */\n      swap1\n      pop\n        /* \"#utility.yul\":32418:32527   */\n      swap2\n      swap1\n      pop\n      jump\t// out\n        /* \"#utility.yul\":32533:32766   */\n    tag_263:\n        /* \"#utility.yul\":32572:32575   */\n      0x00\n        /* \"#utility.yul\":32595:32619   */\n      tag_666\n        /* \"#utility.yul\":32613:32618   */\n      dup3\n        /* \"#utility.yul\":32595:32619   */\n      tag_533\n      jump\t// in\n    tag_666:\n        /* \"#utility.yul\":32586:32619   */\n      swap2\n      pop\n        /* \"#utility.yul\":32641:32707   */\n      0xffffffffffffffffffffffffffffffffffffffffffffffffffffffffffffffff\n        /* \"#utility.yul\":32634:32639   */\n      dup3\n        /* \"#utility.yul\":32631:32708   */\n      eq\n        /* \"#utility.yul\":32628:32731   */\n      iszero\n      tag_667\n      jumpi\n        /* \"#utility.yul\":32711:32729   */\n      tag_668\n      tag_648\n      jump\t// in\n    tag_668:\n        /* \"#utility.yul\":32628:32731   */\n    tag_667:\n        /* \"#utility.yul\":32758:32759   */\n      0x01\n        /* \"#utility.yul\":32751:32756   */\n      dup3\n        /* \"#utility.yul\":32747:32760   */\n      add\n        /* \"#utility.yul\":32740:32760   */\n      swap1\n      pop\n        /* \"#utility.yul\":32533:32766   */\n      swap2\n      swap1\n      pop\n      jump\t// out\n        /* \"#utility.yul\":32772:32952   */\n    tag_648:\n        /* \"#utility.yul\":32820:32897   */\n      0x4e487b7100000000000000000000000000000000000000000000000000000000\n        /* \"#utility.yul\":32817:32818   */\n      0x00\n        /* \"#utility.yul\":32810:32898   */\n      mstore\n        /* \"#utility.yul\":32917:32921   */\n      0x11\n        /* \"#utility.yul\":32914:32915   */\n      0x04\n        /* \"#utility.yul\":32907:32922   */\n      mstore\n        /* \"#utility.yul\":32941:32945   */\n      0x24\n        /* \"#utility.yul\":32938:32939   */\n      0x00\n        /* \"#utility.yul\":32931:32946   */\n      revert\n        /* \"#utility.yul\":32958:33138   */\n    tag_237:\n        /* \"#utility.yul\":33006:33083   */\n      0x4e487b7100000000000000000000000000000000000000000000000000000000\n        /* \"#utility.yul\":33003:33004   */\n      0x00\n        /* \"#utility.yul\":32996:33084   */\n      mstore\n        /* \"#utility.yul\":33103:33107   */\n      0x31\n        /* \"#utility.yul\":33100:33101   */\n      0x04\n        /* \"#utility.yul\":33093:33108   */\n      mstore\n        /* \"#utility.yul\":33127:33131   */\n      0x24\n        /* \"#utility.yul\":33124:33125   */\n      0x00\n        /* \"#utility.yul\":33117:33132   */\n      revert\n        /* \"#utility.yul\":33144:33324   */\n    tag_230:\n        /* \"#utility.yul\":33192:33269   */\n      0x4e487b7100000000000000000000000000000000000000000000000000000000\n        /* \"#utility.yul\":33189:33190   */\n      0x00\n        /* \"#utility.yul\":33182:33270   */\n      mstore\n        /* \"#utility.yul\":33289:33293   */\n      0x32\n        /* \"#utility.yul\":33286:33287   */\n      0x04\n        /* \"#utility.yul\":33279:33294   */\n      mstore\n        /* \"#utility.yul\":33313:33317   */\n      0x24\n        /* \"#utility.yul\":33310:33311   */\n      0x00\n        /* \"#utility.yul\":33303:33318   */\n      revert\n        /* \"#utility.yul\":33330:33447   */\n    tag_620:\n        /* \"#utility.yul\":33439:33440   */\n      0x00\n        /* \"#utility.yul\":33436:33437   */\n      dup1\n        /* \"#utility.yul\":33429:33441   */\n      revert\n        /* \"#utility.yul\":33453:33570   */\n    tag_303:\n        /* \"#utility.yul\":33562:33563   */\n      0x00\n        /* \"#utility.yul\":33559:33560   */\n      dup1\n        /* \"#utility.yul\":33552:33564   */\n      revert\n        /* \"#utility.yul\":33576:33693   */\n    tag_623:\n        /* \"#utility.yul\":33685:33686   */\n      0x00\n        /* \"#utility.yul\":33682:33683   */\n      dup1\n        /* \"#utility.yul\":33675:33687   */\n      revert\n        /* \"#utility.yul\":33699:33816   */\n    tag_346:\n        /* \"#utility.yul\":33808:33809   */\n      0x00\n        /* \"#utility.yul\":33805:33806   */\n      dup1\n        /* \"#utility.yul\":33798:33810   */\n      revert\n        /* \"#utility.yul\":33822:33939   */\n    tag_617:\n        /* \"#utility.yul\":33931:33932   */\n      0x00\n        /* \"#utility.yul\":33928:33929   */\n      dup1\n        /* \"#utility.yul\":33921:33933   */\n      revert\n        /* \"#utility.yul\":33945:34062   */\n    tag_323:\n        /* \"#utility.yul\":34054:34055   */\n      0x00\n        /* \"#utility.yul\":34051:34052   */\n      dup1\n        /* \"#utility.yul\":34044:34056   */\n      revert\n        /* \"#utility.yul\":34068:34238   */\n    tag_422:\n        /* \"#utility.yul\":34208:34230   */\n      0x5061757361626c653a206e6f7420706175736564000000000000000000000000\n        /* \"#utility.yul\":34204:34205   */\n      0x00\n        /* \"#utility.yul\":34196:34202   */\n      dup3\n        /* \"#utility.yul\":34192:34206   */\n      add\n        /* \"#utility.yul\":34185:34231   */\n      mstore\n        /* \"#utility.yul\":34068:34238   */\n      pop\n      jump\t// out\n        /* \"#utility.yul\":34244:34412   */\n    tag_427:\n        /* \"#utility.yul\":34384:34404   */\n      0x4f4d3a204f5241434c455f4e5f464f554e440000000000000000000000000000\n        /* \"#utility.yul\":34380:34381   */\n      0x00\n        /* \"#utility.yul\":34372:34378   */\n      dup3\n        /* \"#utility.yul\":34368:34382   */\n      add\n        /* \"#utility.yul\":34361:34405   */\n      mstore\n        /* \"#utility.yul\":34244:34412   */\n      pop\n      jump\t// out\n        /* \"#utility.yul\":34418:34591   */\n    tag_432:\n        /* \"#utility.yul\":34558:34583   */\n      0x4f4d3a2051554f52554d5f574f4e545f42455f4d414445000000000000000000\n        /* \"#utility.yul\":34554:34555   */\n      0x00\n        /* \"#utility.yul\":34546:34552   */\n      dup3\n        /* \"#utility.yul\":34542:34556   */\n      add\n        /* \"#utility.yul\":34535:34584   */\n      mstore\n        /* \"#utility.yul\":34418:34591   */\n      pop\n      jump\t// out\n        /* \"#utility.yul\":34597:34764   */\n    tag_437:\n        /* \"#utility.yul\":34737:34756   */\n      0x4f4d3a204d454d4245525f455849535453000000000000000000000000000000\n        /* \"#utility.yul\":34733:34734   */\n      0x00\n        /* \"#utility.yul\":34725:34731   */\n      dup3\n        /* \"#utility.yul\":34721:34735   */\n      add\n        /* \"#utility.yul\":34714:34757   */\n      mstore\n        /* \"#utility.yul\":34597:34764   */\n      pop\n      jump\t// out\n        /* \"#utility.yul\":34770:34943   */\n    tag_442:\n        /* \"#utility.yul\":34910:34935   */\n      0x4f4d3a20414c52454144595f494e495449414c495a4544000000000000000000\n        /* \"#utility.yul\":34906:34907   */\n      0x00\n        /* \"#utility.yul\":34898:34904   */\n      dup3\n        /* \"#utility.yul\":34894:34908   */\n      add\n        /* \"#utility.yul\":34887:34936   */\n      mstore\n        /* \"#utility.yul\":34770:34943   */\n      pop\n      jump\t// out\n        /* \"#utility.yul\":34949:35115   */\n    tag_447:\n        /* \"#utility.yul\":35089:35107   */\n      0x5061757361626c653a2070617573656400000000000000000000000000000000\n        /* \"#utility.yul\":35085:35086   */\n      0x00\n        /* \"#utility.yul\":35077:35083   */\n      dup3\n        /* \"#utility.yul\":35073:35087   */\n      add\n        /* \"#utility.yul\":35066:35108   */\n      mstore\n        /* \"#utility.yul\":34949:35115   */\n      pop\n      jump\t// out\n        /* \"#utility.yul\":35121:35289   */\n    tag_452:\n        /* \"#utility.yul\":35261:35281   */\n      0x4f4d3a204d454d4245525f4e5f464f554e440000000000000000000000000000\n        /* \"#utility.yul\":35257:35258   */\n      0x00\n        /* \"#utility.yul\":35249:35255   */\n      dup3\n        /* \"#utility.yul\":35245:35259   */\n      add\n        /* \"#utility.yul\":35238:35282   */\n      mstore\n        /* \"#utility.yul\":35121:35289   */\n      pop\n      jump\t// out\n        /* \"#utility.yul\":35295:35528   */\n    tag_457:\n        /* \"#utility.yul\":35435:35469   */\n      0x496e697469616c697a61626c653a20636f6e747261637420697320616c726561\n        /* \"#utility.yul\":35431:35432   */\n      0x00\n        /* \"#utility.yul\":35423:35429   */\n      dup3\n        /* \"#utility.yul\":35419:35433   */\n      add\n        /* \"#utility.yul\":35412:35470   */\n      mstore\n        /* \"#utility.yul\":35504:35520   */\n      0x647920696e697469616c697a6564000000000000000000000000000000000000\n        /* \"#utility.yul\":35499:35501   */\n      0x20\n        /* \"#utility.yul\":35491:35497   */\n      dup3\n        /* \"#utility.yul\":35487:35502   */\n      add\n        /* \"#utility.yul\":35480:35521   */\n      mstore\n        /* \"#utility.yul\":35295:35528   */\n      pop\n      jump\t// out\n        /* \"#utility.yul\":35534:35694   */\n    tag_462:\n        /* \"#utility.yul\":35674:35686   */\n      0x4f4d3a20554e4155544800000000000000000000000000000000000000000000\n        /* \"#utility.yul\":35670:35671   */\n      0x00\n        /* \"#utility.yul\":35662:35668   */\n      dup3\n        /* \"#utility.yul\":35658:35672   */\n      add\n        /* \"#utility.yul\":35651:35687   */\n      mstore\n        /* \"#utility.yul\":35534:35694   */\n      pop\n      jump\t// out\n        /* \"#utility.yul\":35700:35865   */\n    tag_467:\n        /* \"#utility.yul\":35840:35857   */\n      0x4f4d3a204552415f544f4f5f4f4c440000000000000000000000000000000000\n        /* \"#utility.yul\":35836:35837   */\n      0x00\n        /* \"#utility.yul\":35828:35834   */\n      dup3\n        /* \"#utility.yul\":35824:35838   */\n      add\n        /* \"#utility.yul\":35817:35858   */\n      mstore\n        /* \"#utility.yul\":35700:35865   */\n      pop\n      jump\t// out\n        /* \"#utility.yul\":35871:36037   */\n    tag_472:\n        /* \"#utility.yul\":36011:36029   */\n      0x4f4d3a204241445f415247554d454e5400000000000000000000000000000000\n        /* \"#utility.yul\":36007:36008   */\n      0x00\n        /* \"#utility.yul\":35999:36005   */\n      dup3\n        /* \"#utility.yul\":35995:36009   */\n      add\n        /* \"#utility.yul\":35988:36030   */\n      mstore\n        /* \"#utility.yul\":35871:36037   */\n      pop\n      jump\t// out\n        /* \"#utility.yul\":36043:36213   */\n    tag_477:\n        /* \"#utility.yul\":36183:36205   */\n      0x4f4d3a204d454d424552535f544f4f5f4d414e59000000000000000000000000\n        /* \"#utility.yul\":36179:36180   */\n      0x00\n        /* \"#utility.yul\":36171:36177   */\n      dup3\n        /* \"#utility.yul\":36167:36181   */\n      add\n        /* \"#utility.yul\":36160:36206   */\n      mstore\n        /* \"#utility.yul\":36043:36213   */\n      pop\n      jump\t// out\n        /* \"#utility.yul\":36219:36389   */\n    tag_482:\n        /* \"#utility.yul\":36359:36381   */\n      0x4f4d3a20494e434f52524543545f51554f52554d000000000000000000000000\n        /* \"#utility.yul\":36355:36356   */\n      0x00\n        /* \"#utility.yul\":36347:36353   */\n      dup3\n        /* \"#utility.yul\":36343:36357   */\n      add\n        /* \"#utility.yul\":36336:36382   */\n      mstore\n        /* \"#utility.yul\":36219:36389   */\n      pop\n      jump\t// out\n        /* \"#utility.yul\":36395:36517   */\n    tag_283:\n        /* \"#utility.yul\":36468:36492   */\n      tag_692\n        /* \"#utility.yul\":36486:36491   */\n      dup2\n        /* \"#utility.yul\":36468:36492   */\n      tag_367\n      jump\t// in\n    tag_692:\n        /* \"#utility.yul\":36461:36466   */\n      dup2\n        /* \"#utility.yul\":36458:36493   */\n      eq\n        /* \"#utility.yul\":36448:36511   */\n      tag_693\n      jumpi\n        /* \"#utility.yul\":36507:36508   */\n      0x00\n        /* \"#utility.yul\":36504:36505   */\n      dup1\n        /* \"#utility.yul\":36497:36509   */\n      revert\n        /* \"#utility.yul\":36448:36511   */\n    tag_693:\n        /* \"#utility.yul\":36395:36517   */\n      pop\n      jump\t// out\n        /* \"#utility.yul\":36523:36661   */\n    tag_287:\n        /* \"#utility.yul\":36604:36636   */\n      tag_695\n        /* \"#utility.yul\":36630:36635   */\n      dup2\n        /* \"#utility.yul\":36604:36636   */\n      tag_363\n      jump\t// in\n    tag_695:\n        /* \"#utility.yul\":36597:36602   */\n      dup2\n        /* \"#utility.yul\":36594:36637   */\n      eq\n        /* \"#utility.yul\":36584:36655   */\n      tag_696\n      jumpi\n        /* \"#utility.yul\":36651:36652   */\n      0x00\n        /* \"#utility.yul\":36648:36649   */\n      dup1\n        /* \"#utility.yul\":36641:36653   */\n      revert\n        /* \"#utility.yul\":36584:36655   */\n    tag_696:\n        /* \"#utility.yul\":36523:36661   */\n      pop\n      jump\t// out\n        /* \"#utility.yul\":36667:36783   */\n    tag_291:\n        /* \"#utility.yul\":36737:36758   */\n      tag_698\n        /* \"#utility.yul\":36752:36757   */\n      dup2\n        /* \"#utility.yul\":36737:36758   */\n      tag_402\n      jump\t// in\n    tag_698:\n        /* \"#utility.yul\":36730:36735   */\n      dup2\n        /* \"#utility.yul\":36727:36759   */\n      eq\n        /* \"#utility.yul\":36717:36777   */\n      tag_699\n      jumpi\n        /* \"#utility.yul\":36773:36774   */\n      0x00\n        /* \"#utility.yul\":36770:36771   */\n      dup1\n        /* \"#utility.yul\":36763:36775   */\n      revert\n        /* \"#utility.yul\":36717:36777   */\n    tag_699:\n        /* \"#utility.yul\":36667:36783   */\n      pop\n      jump\t// out\n        /* \"#utility.yul\":36789:36911   */\n    tag_298:\n        /* \"#utility.yul\":36862:36886   */\n      tag_701\n        /* \"#utility.yul\":36880:36885   */\n      dup2\n        /* \"#utility.yul\":36862:36886   */\n      tag_409\n      jump\t// in\n    tag_701:\n        /* \"#utility.yul\":36855:36860   */\n      dup2\n        /* \"#utility.yul\":36852:36887   */\n      eq\n        /* \"#utility.yul\":36842:36905   */\n      tag_702\n      jumpi\n        /* \"#utility.yul\":36901:36902   */\n      0x00\n        /* \"#utility.yul\":36898:36899   */\n      dup1\n        /* \"#utility.yul\":36891:36903   */\n      revert\n        /* \"#utility.yul\":36842:36905   */\n    tag_702:\n        /* \"#utility.yul\":36789:36911   */\n      pop\n      jump\t// out\n        /* \"#utility.yul\":36917:37039   */\n    tag_307:\n        /* \"#utility.yul\":36990:37014   */\n      tag_704\n        /* \"#utility.yul\":37008:37013   */\n      dup2\n        /* \"#utility.yul\":36990:37014   */\n      tag_530\n      jump\t// in\n    tag_704:\n        /* \"#utility.yul\":36983:36988   */\n      dup2\n        /* \"#utility.yul\":36980:37015   */\n      eq\n        /* \"#utility.yul\":36970:37033   */\n      tag_705\n      jumpi\n        /* \"#utility.yul\":37029:37030   */\n      0x00\n        /* \"#utility.yul\":37026:37027   */\n      dup1\n        /* \"#utility.yul\":37019:37031   */\n      revert\n        /* \"#utility.yul\":36970:37033   */\n    tag_705:\n        /* \"#utility.yul\":36917:37039   */\n      pop\n      jump\t// out\n        /* \"#utility.yul\":37045:37167   */\n    tag_311:\n        /* \"#utility.yul\":37118:37142   */\n      tag_707\n        /* \"#utility.yul\":37136:37141   */\n      dup2\n        /* \"#utility.yul\":37118:37142   */\n      tag_533\n      jump\t// in\n    tag_707:\n        /* \"#utility.yul\":37111:37116   */\n      dup2\n        /* \"#utility.yul\":37108:37143   */\n      eq\n        /* \"#utility.yul\":37098:37161   */\n      tag_708\n      jumpi\n        /* \"#utility.yul\":37157:37158   */\n      0x00\n        /* \"#utility.yul\":37154:37155   */\n      dup1\n        /* \"#utility.yul\":37147:37159   */\n      revert\n        /* \"#utility.yul\":37098:37161   */\n    tag_708:\n        /* \"#utility.yul\":37045:37167   */\n      pop\n      jump\t// out\n        /* \"#utility.yul\":37173:37293   */\n    tag_315:\n        /* \"#utility.yul\":37245:37268   */\n      tag_710\n        /* \"#utility.yul\":37262:37267   */\n      dup2\n        /* \"#utility.yul\":37245:37268   */\n      tag_540\n      jump\t// in\n    tag_710:\n        /* \"#utility.yul\":37238:37243   */\n      dup2\n        /* \"#utility.yul\":37235:37269   */\n      eq\n        /* \"#utility.yul\":37225:37287   */\n      tag_711\n      jumpi\n        /* \"#utility.yul\":37283:37284   */\n      0x00\n        /* \"#utility.yul\":37280:37281   */\n      dup1\n        /* \"#utility.yul\":37273:37285   */\n      revert\n        /* \"#utility.yul\":37225:37287   */\n    tag_711:\n        /* \"#utility.yul\":37173:37293   */\n      pop\n      jump\t// out\n        /* \"#utility.yul\":37299:37417   */\n    tag_319:\n        /* \"#utility.yul\":37370:37392   */\n      tag_713\n        /* \"#utility.yul\":37386:37391   */\n      dup2\n        /* \"#utility.yul\":37370:37392   */\n      tag_548\n      jump\t// in\n    tag_713:\n        /* \"#utility.yul\":37363:37368   */\n      dup2\n        /* \"#utility.yul\":37360:37393   */\n      eq\n        /* \"#utility.yul\":37350:37411   */\n      tag_714\n      jumpi\n        /* \"#utility.yul\":37407:37408   */\n      0x00\n        /* \"#utility.yul\":37404:37405   */\n      dup1\n        /* \"#utility.yul\":37397:37409   */\n      revert\n        /* \"#utility.yul\":37350:37411   */\n    tag_714:\n        /* \"#utility.yul\":37299:37417   */\n      pop\n      jump\t// out\n\n    auxdata: 0xa2646970667358221220e53a1e7960fdacbba719e41d6a75000a18e543e2c44835f5499b48df2d174b7b64736f6c63430008070033\n}\n",
				"bytecode": {
					"linkReferences": {},
					"object": "608060405234801561001057600080fd5b5060008060006101000a81548160ff021916908315150217905550612a118061003a6000396000f3fe608060405234801561001057600080fd5b50600436106101165760003560e01c80635daf08ca116100a2578063a1e206c711610071578063a1e206c7146102aa578063b164e437146102c8578063c4f305d9146102e4578063ea0e35b114610302578063f98fae811461032057610116565b80635daf08ca146102235780636dcab78f146102535780638456cb591461026f5780638fbad6b41461027957610116565b806333bc7090116100e957806333bc70901461018f57806338013f02146101ad5780633f109d23146101cb5780635c510b05146101e95780635c975abb1461020557610116565b8063046f7da21461011b57806310d3d22e146101255780632e80d9b6146101555780633073cecf14610173575b600080fd5b61012361033c565b005b61013f600480360381019061013a9190611911565b610454565b60405161014c919061200a565b60405180910390f35b61015d610480565b60405161016a91906122ea565b60405180910390f35b61018d6004803603810190610188919061193e565b610493565b005b610197610796565b6040516101a4919061200a565b60405180910390f35b6101b56107bc565b6040516101c2919061200a565b60405180910390f35b6101d36107e2565b6040516101e091906122a6565b60405180910390f35b61020360048036038101906101fe91906119ff565b6107fc565b005b61020d610a7e565b60405161021a9190612040565b60405180910390f35b61023d600480360381019061023891906119d2565b610a94565b60405161024a919061200a565b60405180910390f35b61026d60048036038101906102689190611a5b565b610ad3565b005b610277610d54565b005b610293600480360381019061028e9190611911565b610e6c565b6040516102a19291906122c1565b60405180910390f35b6102b2610f81565b6040516102bf919061200a565b60405180910390f35b6102e260048036038101906102dd9190611911565b610fa7565b005b6102ec611274565b6040516102f99190612025565b60405180910390f35b61030a61129a565b604051610317919061223f565b60405180910390f35b61033a60048036038101906103359190611911565b61129f565b005b7fd76e3374742c17bd14ffaf46cd349ec292baf7d8425512fa8fe132557a4c967b600360009054906101000a900473ffffffffffffffffffffffffffffffffffffffff1673ffffffffffffffffffffffffffffffffffffffff1663eff11b2c82336040518363ffffffff1660e01b81526004016103ba92919061205b565b60206040518083038186803b1580156103d257600080fd5b505afa1580156103e6573d6000803e3d6000fd5b505050506040513d601f19601f8201168201806040525081019061040a91906119a5565b610449576040517f08c379a00000000000000000000000000000000000000000000000000000000081526004016104409061219f565b60405180910390fd5b610451611560565b50565b6000600460009054906101000a900473ffffffffffffffffffffffffffffffffffffffff169050919050565b600560149054906101000a900460ff1681565b60008060029054906101000a900460ff161590508080156104c657506001600060019054906101000a900460ff1660ff16105b806104f557506104d5306115c2565b1580156104f457506001600060019054906101000a900460ff1660ff16145b5b610534576040517f08c379a000000000000000000000000000000000000000000000000000000000815260040161052b9061217f565b60405180910390fd5b6001600060016101000a81548160ff021916908360ff1602179055508015610572576001600060026101000a81548160ff0219169083151502179055505b600073ffffffffffffffffffffffffffffffffffffffff16600560009054906101000a900473ffffffffffffffffffffffffffffffffffffffff1673ffffffffffffffffffffffffffffffffffffffff1614610603576040517f08c379a00000000000000000000000000000000000000000000000000000000081526004016105fa9061211f565b60405180910390fd5b60008260ff16118015610619575060ff8260ff16105b610658576040517f08c379a000000000000000000000000000000000000000000000000000000000815260040161064f9061221f565b60405180910390fd5b84600360006101000a81548173ffffffffffffffffffffffffffffffffffffffff021916908373ffffffffffffffffffffffffffffffffffffffff16021790555083600460006101000a81548173ffffffffffffffffffffffffffffffffffffffff021916908373ffffffffffffffffffffffffffffffffffffffff16021790555082600260006101000a81548173ffffffffffffffffffffffffffffffffffffffff021916908373ffffffffffffffffffffffffffffffffffffffff16021790555081600560146101000a81548160ff021916908360ff160217905550801561078f5760008060026101000a81548160ff0219169083151502179055507f7f26b83ff96e1f2b6a682f133852f6798a09c465da95921460cefb384740249860016040516107869190612084565b60405180910390a15b5050505050565b600560009054906101000a900473ffffffffffffffffffffffffffffffffffffffff1681565b600460009054906101000a900473ffffffffffffffffffffffffffffffffffffffff1681565b600060039054906101000a900467ffffffffffffffff1681565b6108046115e5565b600061080f3361162f565b90507fffffffffffffffffffffffffffffffffffffffffffffffffffffffffffffffff811415610874576040517f08c379a000000000000000000000000000000000000000000000000000000000815260040161086b9061215f565b60405180910390fd5b600073ffffffffffffffffffffffffffffffffffffffff16600460009054906101000a900473ffffffffffffffffffffffffffffffffffffffff1673ffffffffffffffffffffffffffffffffffffffff161415610906576040517f08c379a00000000000000000000000000000000000000000000000000000000081526004016108fd906120bf565b60405180910390fd5b600060039054906101000a900467ffffffffffffffff1667ffffffffffffffff168367ffffffffffffffff161015610973576040517f08c379a000000000000000000000000000000000000000000000000000000000815260040161096a906121bf565b60405180910390fd5b600060039054906101000a900467ffffffffffffffff1667ffffffffffffffff168367ffffffffffffffff1611156109d75782600060036101000a81548167ffffffffffffffff021916908367ffffffffffffffff1602179055506109d66116fd565b5b600460009054906101000a900473ffffffffffffffffffffffffffffffffffffffff1673ffffffffffffffffffffffffffffffffffffffff16637650b11d82600560149054906101000a900460ff1686866040518563ffffffff1660e01b8152600401610a47949392919061225a565b600060405180830381600087803b158015610a6157600080fd5b505af1158015610a75573d6000803e3d6000fd5b50505050505050565b60008060009054906101000a900460ff16905090565b60018181548110610aa457600080fd5b906000526020600020016000915054906101000a900473ffffffffffffffffffffffffffffffffffffffff1681565b7f8ac38a2a3c56dddd46cb8bc53ef71a94590a3862aefd3143ed3126454af63731600360009054906101000a900473ffffffffffffffffffffffffffffffffffffffff1673ffffffffffffffffffffffffffffffffffffffff1663eff11b2c82336040518363ffffffff1660e01b8152600401610b5192919061205b565b60206040518083038186803b158015610b6957600080fd5b505afa158015610b7d573d6000803e3d6000fd5b505050506040513d601f19601f82011682018060405250810190610ba191906119a5565b610be0576040517f08c379a0000000000000000000000000000000000000000000000000000000008152600401610bd79061219f565b60405180910390fd5b60008260ff16118015610bf6575060ff8260ff16105b610c35576040517f08c379a0000000000000000000000000000000000000000000000000000000008152600401610c2c906120df565b60405180910390fd5b6000600560149054906101000a900460ff16905082600560146101000a81548160ff021916908360ff1602179055508260ff168160ff161115610d1857600460009054906101000a900473ffffffffffffffffffffffffffffffffffffffff1673ffffffffffffffffffffffffffffffffffffffff1663cb35cf3184600060039054906101000a900467ffffffffffffffff166040518363ffffffff1660e01b8152600401610ce5929190612305565b600060405180830381600087803b158015610cff57600080fd5b505af1158015610d13573d6000803e3d6000fd5b505050505b7fd6ecd940f5784ceceeeb048268900f819851986dbe41c49f6e754b988868df8783604051610d4791906122ea565b60405180910390a1505050565b7fd76e3374742c17bd14ffaf46cd349ec292baf7d8425512fa8fe132557a4c967b600360009054906101000a900473ffffffffffffffffffffffffffffffffffffffff1673ffffffffffffffffffffffffffffffffffffffff1663eff11b2c82336040518363ffffffff1660e01b8152600401610dd292919061205b565b60206040518083038186803b158015610dea57600080fd5b505afa158015610dfe573d6000803e3d6000fd5b505050506040513d601f19601f82011682018060405250810190610e2291906119a5565b610e61576040517f08c379a0000000000000000000000000000000000000000000000000000000008152600401610e589061219f565b60405180910390fd5b610e69611781565b50565b600080600060039054906101000a900467ffffffffffffffff1691506000610e938461162f565b90507fffffffffffffffffffffffffffffffffffffffffffffffffffffffffffffffff811415610eca578260009250925050610f7c565b82600460009054906101000a900473ffffffffffffffffffffffffffffffffffffffff1673ffffffffffffffffffffffffffffffffffffffff166389b80361836040518263ffffffff1660e01b8152600401610f26919061223f565b60206040518083038186803b158015610f3e57600080fd5b505afa158015610f52573d6000803e3d6000fd5b505050506040513d601f19601f82011682018060405250810190610f7691906119a5565b92509250505b915091565b600360009054906101000a900473ffffffffffffffffffffffffffffffffffffffff1681565b7f390fb325ad2241104ec9502c1fe8ca89f34a50b811d77948772f75454c563ceb600360009054906101000a900473ffffffffffffffffffffffffffffffffffffffff1673ffffffffffffffffffffffffffffffffffffffff1663eff11b2c82336040518363ffffffff1660e01b815260040161102592919061205b565b60206040518083038186803b15801561103d57600080fd5b505afa158015611051573d6000803e3d6000fd5b505050506040513d601f19601f8201168201806040525081019061107591906119a5565b6110b4576040517f08c379a00000000000000000000000000000000000000000000000000000000081526004016110ab9061219f565b60405180910390fd5b600073ffffffffffffffffffffffffffffffffffffffff168273ffffffffffffffffffffffffffffffffffffffff161415611124576040517f08c379a000000000000000000000000000000000000000000000000000000000815260040161111b906121df565b60405180910390fd5b7fffffffffffffffffffffffffffffffffffffffffffffffffffffffffffffffff61114e8361162f565b1461118e576040517f08c379a0000000000000000000000000000000000000000000000000000000008152600401611185906120ff565b60405180910390fd5b60ff600180549050106111d6576040517f08c379a00000000000000000000000000000000000000000000000000000000081526004016111cd906121ff565b60405180910390fd5b6001829080600181540180825580915050600190039060005260206000200160009091909190916101000a81548173ffffffffffffffffffffffffffffffffffffffff021916908373ffffffffffffffffffffffffffffffffffffffff1602179055507fb251eb052afc73ffd02ffe85ad79990a8b3fed60d76dbc2fa2fdd7123dffd91482604051611268919061200a565b60405180910390a15050565b600260009054906101000a900473ffffffffffffffffffffffffffffffffffffffff1681565b60ff81565b7f390fb325ad2241104ec9502c1fe8ca89f34a50b811d77948772f75454c563ceb600360009054906101000a900473ffffffffffffffffffffffffffffffffffffffff1673ffffffffffffffffffffffffffffffffffffffff1663eff11b2c82336040518363ffffffff1660e01b815260040161131d92919061205b565b60206040518083038186803b15801561133557600080fd5b505afa158015611349573d6000803e3d6000fd5b505050506040513d601f19601f8201168201806040525081019061136d91906119a5565b6113ac576040517f08c379a00000000000000000000000000000000000000000000000000000000081526004016113a39061219f565b60405180910390fd5b60006113b78361162f565b90507fffffffffffffffffffffffffffffffffffffffffffffffffffffffffffffffff81141561141c576040517f08c379a00000000000000000000000000000000000000000000000000000000081526004016114139061215f565b60405180910390fd5b60006001808054905061142f91906124fb565b90508082146114d4576001818154811061144c5761144b61269b565b5b9060005260206000200160009054906101000a900473ffffffffffffffffffffffffffffffffffffffff166001838154811061148b5761148a61269b565b5b9060005260206000200160006101000a81548173ffffffffffffffffffffffffffffffffffffffff021916908373ffffffffffffffffffffffffffffffffffffffff1602179055505b60018054806114e6576114e561266c565b5b6001900381819060005260206000200160006101000a81549073ffffffffffffffffffffffffffffffffffffffff021916905590557f6e76fb4c77256006d9c38ec7d82b45a8c8f3c27b1d6766fffc42dfb8de6844928460405161154a919061200a565b60405180910390a161155a6116fd565b50505050565b6115686117e3565b60008060006101000a81548160ff0219169083151502179055507f5db9ee0a495bf2e6ff9c91a7834c1ba4fdd244a5e8aa4e537bd38aeae4b073aa6115ab61182c565b6040516115b8919061200a565b60405180910390a1565b6000808273ffffffffffffffffffffffffffffffffffffffff163b119050919050565b6115ed610a7e565b1561162d576040517f08c379a00000000000000000000000000000000000000000000000000000000081526004016116249061213f565b60405180910390fd5b565b600080600180549050905060005b818110156116d2578373ffffffffffffffffffffffffffffffffffffffff16600182815481106116705761166f61269b565b5b9060005260206000200160009054906101000a900473ffffffffffffffffffffffffffffffffffffffff1673ffffffffffffffffffffffffffffffffffffffff1614156116c15780925050506116f8565b806116cb906125f4565b905061163d565b507fffffffffffffffffffffffffffffffffffffffffffffffffffffffffffffffff9150505b919050565b600460009054906101000a900473ffffffffffffffffffffffffffffffffffffffff1673ffffffffffffffffffffffffffffffffffffffff1663b75b518c6040518163ffffffff1660e01b8152600401600060405180830381600087803b15801561176757600080fd5b505af115801561177b573d6000803e3d6000fd5b50505050565b6117896115e5565b60016000806101000a81548160ff0219169083151502179055507f62e78cea01bee320cd4e420270b5ea74000d11b0c9f74754ebdbfc544b05a2586117cc61182c565b6040516117d9919061200a565b60405180910390a1565b6117eb610a7e565b61182a576040517f08c379a00000000000000000000000000000000000000000000000000000000081526004016118219061209f565b60405180910390fd5b565b600033905090565b60008135905061184381612923565b92915050565b6000813590506118588161293a565b92915050565b60008135905061186d81612951565b92915050565b60008151905061188281612951565b92915050565b60008135905061189781612968565b92915050565b600061010082840312156118b4576118b36126cf565b5b81905092915050565b6000813590506118cc8161297f565b92915050565b6000813590506118e181612996565b92915050565b6000813590506118f6816129ad565b92915050565b60008135905061190b816129c4565b92915050565b600060208284031215611927576119266126e3565b5b600061193584828501611834565b91505092915050565b60008060008060808587031215611958576119576126e3565b5b600061196687828801611834565b945050602061197787828801611834565b935050604061198887828801611849565b9250506060611999878288016118fc565b91505092959194509250565b6000602082840312156119bb576119ba6126e3565b5b60006119c984828501611873565b91505092915050565b6000602082840312156119e8576119e76126e3565b5b60006119f6848285016118d2565b91505092915050565b60008060408385031215611a1657611a156126e3565b5b6000611a24858286016118e7565b925050602083013567ffffffffffffffff811115611a4557611a446126d9565b5b611a518582860161189d565b9150509250929050565b600060208284031215611a7157611a706126e3565b5b6000611a7f848285016118fc565b91505092915050565b6000611a948383611dc4565b905092915050565b6000611aa88383611e7f565b60408301905092915050565b611abd81612541565b82525050565b611acc8161252f565b82525050565b611adb8161252f565b82525050565b6000611aed838561235c565b935083602084028501611aff8461232e565b8060005b87811015611b43578484038952611b1a828461249a565b611b248582611a88565b9450611b2f83612342565b925060208a01995050600181019050611b03565b50829750879450505050509392505050565b6000611b61838561236d565b9350611b6c82612338565b8060005b85811015611ba557611b8282846124c2565b611b8c8882611a9c565b9750611b978361234f565b925050600181019050611b70565b5085925050509392505050565b611bbb81612553565b82525050565b611bca81612553565b82525050565b611bd98161255f565b82525050565b611be88161255f565b82525050565b611bf7816125d0565b82525050565b6000611c0a60148361237e565b9150611c15826126e8565b602082019050919050565b6000611c2d60128361237e565b9150611c3882612711565b602082019050919050565b6000611c5060178361237e565b9150611c5b8261273a565b602082019050919050565b6000611c7360118361237e565b9150611c7e82612763565b602082019050919050565b6000611c9660178361237e565b9150611ca18261278c565b602082019050919050565b6000611cb960108361237e565b9150611cc4826127b5565b602082019050919050565b6000611cdc60128361237e565b9150611ce7826127de565b602082019050919050565b6000611cff602e8361237e565b9150611d0a82612807565b604082019050919050565b6000611d22600a8361237e565b9150611d2d82612856565b602082019050919050565b6000611d45600f8361237e565b9150611d508261287f565b602082019050919050565b6000611d6860108361237e565b9150611d73826128a8565b602082019050919050565b6000611d8b60148361237e565b9150611d96826128d1565b602082019050919050565b6000611dae60148361237e565b9150611db9826128fa565b602082019050919050565b600060c08301611dd7600084018461238f565b611de46000860182611ac3565b50611df260208401846124cd565b611dff6020860182611fb0565b50611e0d604084018461246c565b611e1a6040860182611bb2565b50611e2860608401846124e4565b611e356060860182611fbf565b50611e4360808401846124e4565b611e506080860182611fbf565b50611e5e60a0840184612409565b85830360a0870152611e71838284611b55565b925050508091505092915050565b60408201611e90600083018361238f565b611e9d6000850182611ac3565b50611eab60208301836124e4565b611eb86020850182611fbf565b50505050565b60006101008301611ed260008401846124e4565b611edf6000860182611fbf565b50611eed60208401846124cd565b611efa6020860182611fb0565b50611f0860408401846124cd565b611f156040860182611fb0565b50611f2360608401846124cd565b611f306060860182611fb0565b50611f3e6080840184612483565b611f4b6080860182611bd0565b50611f5960a08401846124cd565b611f6660a0860182611fb0565b50611f7460c08401846124cd565b611f8160c0860182611fb0565b50611f8f60e08401846123a6565b85830360e0870152611fa2838284611ae1565b925050508091505092915050565b611fb981612569565b82525050565b611fc8816125a5565b82525050565b611fd7816125a5565b82525050565b611fe6816125af565b82525050565b611ff5816125e2565b82525050565b612004816125c3565b82525050565b600060208201905061201f6000830184611ad2565b92915050565b600060208201905061203a6000830184611ab4565b92915050565b60006020820190506120556000830184611bc1565b92915050565b60006040820190506120706000830185611bdf565b61207d6020830184611ad2565b9392505050565b60006020820190506120996000830184611bee565b92915050565b600060208201905081810360008301526120b881611bfd565b9050919050565b600060208201905081810360008301526120d881611c20565b9050919050565b600060208201905081810360008301526120f881611c43565b9050919050565b6000602082019050818103600083015261211881611c66565b9050919050565b6000602082019050818103600083015261213881611c89565b9050919050565b6000602082019050818103600083015261215881611cac565b9050919050565b6000602082019050818103600083015261217881611ccf565b9050919050565b6000602082019050818103600083015261219881611cf2565b9050919050565b600060208201905081810360008301526121b881611d15565b9050919050565b600060208201905081810360008301526121d881611d38565b9050919050565b600060208201905081810360008301526121f881611d5b565b9050919050565b6000602082019050818103600083015261221881611d7e565b9050919050565b6000602082019050818103600083015261223881611da1565b9050919050565b60006020820190506122546000830184611fce565b92915050565b600060808201905061226f6000830187611fce565b61227c6020830186611fec565b6122896040830185611fdd565b818103606083015261229b8184611ebe565b905095945050505050565b60006020820190506122bb6000830184611fdd565b92915050565b60006040820190506122d66000830185611fdd565b6122e36020830184611bc1565b9392505050565b60006020820190506122ff6000830184611ffb565b92915050565b600060408201905061231a6000830185611ffb565b6123276020830184611fdd565b9392505050565b6000819050919050565b6000819050919050565b6000602082019050919050565b6000604082019050919050565b600082825260208201905092915050565b600082825260208201905092915050565b600082825260208201905092915050565b600061239e6020840184611834565b905092915050565b600080833560016020038436030381126123c3576123c26126de565b5b83810192508235915060208301925067ffffffffffffffff8211156123eb576123ea6126ca565b5b602082023603841315612401576124006126d4565b5b509250929050565b60008083356001602003843603038112612426576124256126de565b5b83810192508235915060208301925067ffffffffffffffff82111561244e5761244d6126ca565b5b604082023603841315612464576124636126d4565b5b509250929050565b600061247b602084018461185e565b905092915050565b60006124926020840184611888565b905092915050565b60008235600160c0038336030381126124b6576124b56126de565b5b82810191505092915050565b600082905092915050565b60006124dc60208401846118bd565b905092915050565b60006124f360208401846118d2565b905092915050565b6000612506826125a5565b9150612511836125a5565b9250828210156125245761252361263d565b5b828203905092915050565b600061253a82612585565b9050919050565b600061254c82612585565b9050919050565b60008115159050919050565b6000819050919050565b60006fffffffffffffffffffffffffffffffff82169050919050565b600073ffffffffffffffffffffffffffffffffffffffff82169050919050565b6000819050919050565b600067ffffffffffffffff82169050919050565b600060ff82169050919050565b60006125db826125c3565b9050919050565b60006125ed826125c3565b9050919050565b60006125ff826125a5565b91507fffffffffffffffffffffffffffffffffffffffffffffffffffffffffffffffff8214156126325761263161263d565b5b600182019050919050565b7f4e487b7100000000000000000000000000000000000000000000000000000000600052601160045260246000fd5b7f4e487b7100000000000000000000000000000000000000000000000000000000600052603160045260246000fd5b7f4e487b7100000000000000000000000000000000000000000000000000000000600052603260045260246000fd5b600080fd5b600080fd5b600080fd5b600080fd5b600080fd5b600080fd5b7f5061757361626c653a206e6f7420706175736564000000000000000000000000600082015250565b7f4f4d3a204f5241434c455f4e5f464f554e440000000000000000000000000000600082015250565b7f4f4d3a2051554f52554d5f574f4e545f42455f4d414445000000000000000000600082015250565b7f4f4d3a204d454d4245525f455849535453000000000000000000000000000000600082015250565b7f4f4d3a20414c52454144595f494e495449414c495a4544000000000000000000600082015250565b7f5061757361626c653a2070617573656400000000000000000000000000000000600082015250565b7f4f4d3a204d454d4245525f4e5f464f554e440000000000000000000000000000600082015250565b7f496e697469616c697a61626c653a20636f6e747261637420697320616c72656160008201527f647920696e697469616c697a6564000000000000000000000000000000000000602082015250565b7f4f4d3a20554e4155544800000000000000000000000000000000000000000000600082015250565b7f4f4d3a204552415f544f4f5f4f4c440000000000000000000000000000000000600082015250565b7f4f4d3a204241445f415247554d454e5400000000000000000000000000000000600082015250565b7f4f4d3a204d454d424552535f544f4f5f4d414e59000000000000000000000000600082015250565b7f4f4d3a20494e434f52524543545f51554f52554d000000000000000000000000600082015250565b61292c8161252f565b811461293757600080fd5b50565b61294381612541565b811461294e57600080fd5b50565b61295a81612553565b811461296557600080fd5b50565b6129718161255f565b811461297c57600080fd5b50565b61298881612569565b811461299357600080fd5b50565b61299f816125a5565b81146129aa57600080fd5b50565b6129b6816125af565b81146129c157600080fd5b50565b6129cd816125c3565b81146129d857600080fd5b5056fea2646970667358221220e53a1e7960fdacbba719e41d6a75000a18e543e2c44835f5499b48df2d174b7b64736f6c63430008070033",
					"opcodes": "PUSH1 0x80 PUSH1 0x40 MSTORE CALLVALUE DUP1 ISZERO PUSH2 0x10 JUMPI PUSH1 0x0 DUP1 REVERT JUMPDEST POP PUSH1 0x0 DUP1 PUSH1 0x0 PUSH2 0x100 EXP DUP2 SLOAD DUP2 PUSH1 0xFF MUL NOT AND SWAP1 DUP4 ISZERO ISZERO MUL OR SWAP1 SSTORE POP PUSH2 0x2A11 DUP1 PUSH2 0x3A PUSH1 0x0 CODECOPY PUSH1 0x0 RETURN INVALID PUSH1 0x80 PUSH1 0x40 MSTORE CALLVALUE DUP1 ISZERO PUSH2 0x10 JUMPI PUSH1 0x0 DUP1 REVERT JUMPDEST POP PUSH1 0x4 CALLDATASIZE LT PUSH2 0x116 JUMPI PUSH1 0x0 CALLDATALOAD PUSH1 0xE0 SHR DUP1 PUSH4 0x5DAF08CA GT PUSH2 0xA2 JUMPI DUP1 PUSH4 0xA1E206C7 GT PUSH2 0x71 JUMPI DUP1 PUSH4 0xA1E206C7 EQ PUSH2 0x2AA JUMPI DUP1 PUSH4 0xB164E437 EQ PUSH2 0x2C8 JUMPI DUP1 PUSH4 0xC4F305D9 EQ PUSH2 0x2E4 JUMPI DUP1 PUSH4 0xEA0E35B1 EQ PUSH2 0x302 JUMPI DUP1 PUSH4 0xF98FAE81 EQ PUSH2 0x320 JUMPI PUSH2 0x116 JUMP JUMPDEST DUP1 PUSH4 0x5DAF08CA EQ PUSH2 0x223 JUMPI DUP1 PUSH4 0x6DCAB78F EQ PUSH2 0x253 JUMPI DUP1 PUSH4 0x8456CB59 EQ PUSH2 0x26F JUMPI DUP1 PUSH4 0x8FBAD6B4 EQ PUSH2 0x279 JUMPI PUSH2 0x116 JUMP JUMPDEST DUP1 PUSH4 0x33BC7090 GT PUSH2 0xE9 JUMPI DUP1 PUSH4 0x33BC7090 EQ PUSH2 0x18F JUMPI DUP1 PUSH4 0x38013F02 EQ PUSH2 0x1AD JUMPI DUP1 PUSH4 0x3F109D23 EQ PUSH2 0x1CB JUMPI DUP1 PUSH4 0x5C510B05 EQ PUSH2 0x1E9 JUMPI DUP1 PUSH4 0x5C975ABB EQ PUSH2 0x205 JUMPI PUSH2 0x116 JUMP JUMPDEST DUP1 PUSH4 0x46F7DA2 EQ PUSH2 0x11B JUMPI DUP1 PUSH4 0x10D3D22E EQ PUSH2 0x125 JUMPI DUP1 PUSH4 0x2E80D9B6 EQ PUSH2 0x155 JUMPI DUP1 PUSH4 0x3073CECF EQ PUSH2 0x173 JUMPI JUMPDEST PUSH1 0x0 DUP1 REVERT JUMPDEST PUSH2 0x123 PUSH2 0x33C JUMP JUMPDEST STOP JUMPDEST PUSH2 0x13F PUSH1 0x4 DUP1 CALLDATASIZE SUB DUP2 ADD SWAP1 PUSH2 0x13A SWAP2 SWAP1 PUSH2 0x1911 JUMP JUMPDEST PUSH2 0x454 JUMP JUMPDEST PUSH1 0x40 MLOAD PUSH2 0x14C SWAP2 SWAP1 PUSH2 0x200A JUMP JUMPDEST PUSH1 0x40 MLOAD DUP1 SWAP2 SUB SWAP1 RETURN JUMPDEST PUSH2 0x15D PUSH2 0x480 JUMP JUMPDEST PUSH1 0x40 MLOAD PUSH2 0x16A SWAP2 SWAP1 PUSH2 0x22EA JUMP JUMPDEST PUSH1 0x40 MLOAD DUP1 SWAP2 SUB SWAP1 RETURN JUMPDEST PUSH2 0x18D PUSH1 0x4 DUP1 CALLDATASIZE SUB DUP2 ADD SWAP1 PUSH2 0x188 SWAP2 SWAP1 PUSH2 0x193E JUMP JUMPDEST PUSH2 0x493 JUMP JUMPDEST STOP JUMPDEST PUSH2 0x197 PUSH2 0x796 JUMP JUMPDEST PUSH1 0x40 MLOAD PUSH2 0x1A4 SWAP2 SWAP1 PUSH2 0x200A JUMP JUMPDEST PUSH1 0x40 MLOAD DUP1 SWAP2 SUB SWAP1 RETURN JUMPDEST PUSH2 0x1B5 PUSH2 0x7BC JUMP JUMPDEST PUSH1 0x40 MLOAD PUSH2 0x1C2 SWAP2 SWAP1 PUSH2 0x200A JUMP JUMPDEST PUSH1 0x40 MLOAD DUP1 SWAP2 SUB SWAP1 RETURN JUMPDEST PUSH2 0x1D3 PUSH2 0x7E2 JUMP JUMPDEST PUSH1 0x40 MLOAD PUSH2 0x1E0 SWAP2 SWAP1 PUSH2 0x22A6 JUMP JUMPDEST PUSH1 0x40 MLOAD DUP1 SWAP2 SUB SWAP1 RETURN JUMPDEST PUSH2 0x203 PUSH1 0x4 DUP1 CALLDATASIZE SUB DUP2 ADD SWAP1 PUSH2 0x1FE SWAP2 SWAP1 PUSH2 0x19FF JUMP JUMPDEST PUSH2 0x7FC JUMP JUMPDEST STOP JUMPDEST PUSH2 0x20D PUSH2 0xA7E JUMP JUMPDEST PUSH1 0x40 MLOAD PUSH2 0x21A SWAP2 SWAP1 PUSH2 0x2040 JUMP JUMPDEST PUSH1 0x40 MLOAD DUP1 SWAP2 SUB SWAP1 RETURN JUMPDEST PUSH2 0x23D PUSH1 0x4 DUP1 CALLDATASIZE SUB DUP2 ADD SWAP1 PUSH2 0x238 SWAP2 SWAP1 PUSH2 0x19D2 JUMP JUMPDEST PUSH2 0xA94 JUMP JUMPDEST PUSH1 0x40 MLOAD PUSH2 0x24A SWAP2 SWAP1 PUSH2 0x200A JUMP JUMPDEST PUSH1 0x40 MLOAD DUP1 SWAP2 SUB SWAP1 RETURN JUMPDEST PUSH2 0x26D PUSH1 0x4 DUP1 CALLDATASIZE SUB DUP2 ADD SWAP1 PUSH2 0x268 SWAP2 SWAP1 PUSH2 0x1A5B JUMP JUMPDEST PUSH2 0xAD3 JUMP JUMPDEST STOP JUMPDEST PUSH2 0x277 PUSH2 0xD54 JUMP JUMPDEST STOP JUMPDEST PUSH2 0x293 PUSH1 0x4 DUP1 CALLDATASIZE SUB DUP2 ADD SWAP1 PUSH2 0x28E SWAP2 SWAP1 PUSH2 0x1911 JUMP JUMPDEST PUSH2 0xE6C JUMP JUMPDEST PUSH1 0x40 MLOAD PUSH2 0x2A1 SWAP3 SWAP2 SWAP1 PUSH2 0x22C1 JUMP JUMPDEST PUSH1 0x40 MLOAD DUP1 SWAP2 SUB SWAP1 RETURN JUMPDEST PUSH2 0x2B2 PUSH2 0xF81 JUMP JUMPDEST PUSH1 0x40 MLOAD PUSH2 0x2BF SWAP2 SWAP1 PUSH2 0x200A JUMP JUMPDEST PUSH1 0x40 MLOAD DUP1 SWAP2 SUB SWAP1 RETURN JUMPDEST PUSH2 0x2E2 PUSH1 0x4 DUP1 CALLDATASIZE SUB DUP2 ADD SWAP1 PUSH2 0x2DD SWAP2 SWAP1 PUSH2 0x1911 JUMP JUMPDEST PUSH2 0xFA7 JUMP JUMPDEST STOP JUMPDEST PUSH2 0x2EC PUSH2 0x1274 JUMP JUMPDEST PUSH1 0x40 MLOAD PUSH2 0x2F9 SWAP2 SWAP1 PUSH2 0x2025 JUMP JUMPDEST PUSH1 0x40 MLOAD DUP1 SWAP2 SUB SWAP1 RETURN JUMPDEST PUSH2 0x30A PUSH2 0x129A JUMP JUMPDEST PUSH1 0x40 MLOAD PUSH2 0x317 SWAP2 SWAP1 PUSH2 0x223F JUMP JUMPDEST PUSH1 0x40 MLOAD DUP1 SWAP2 SUB SWAP1 RETURN JUMPDEST PUSH2 0x33A PUSH1 0x4 DUP1 CALLDATASIZE SUB DUP2 ADD SWAP1 PUSH2 0x335 SWAP2 SWAP1 PUSH2 0x1911 JUMP JUMPDEST PUSH2 0x129F JUMP JUMPDEST STOP JUMPDEST PUSH32 0xD76E3374742C17BD14FFAF46CD349EC292BAF7D8425512FA8FE132557A4C967B PUSH1 0x3 PUSH1 0x0 SWAP1 SLOAD SWAP1 PUSH2 0x100 EXP SWAP1 DIV PUSH20 0xFFFFFFFFFFFFFFFFFFFFFFFFFFFFFFFFFFFFFFFF AND PUSH20 0xFFFFFFFFFFFFFFFFFFFFFFFFFFFFFFFFFFFFFFFF AND PUSH4 0xEFF11B2C DUP3 CALLER PUSH1 0x40 MLOAD DUP4 PUSH4 0xFFFFFFFF AND PUSH1 0xE0 SHL DUP2 MSTORE PUSH1 0x4 ADD PUSH2 0x3BA SWAP3 SWAP2 SWAP1 PUSH2 0x205B JUMP JUMPDEST PUSH1 0x20 PUSH1 0x40 MLOAD DUP1 DUP4 SUB DUP2 DUP7 DUP1 EXTCODESIZE ISZERO DUP1 ISZERO PUSH2 0x3D2 JUMPI PUSH1 0x0 DUP1 REVERT JUMPDEST POP GAS STATICCALL ISZERO DUP1 ISZERO PUSH2 0x3E6 JUMPI RETURNDATASIZE PUSH1 0x0 DUP1 RETURNDATACOPY RETURNDATASIZE PUSH1 0x0 REVERT JUMPDEST POP POP POP POP PUSH1 0x40 MLOAD RETURNDATASIZE PUSH1 0x1F NOT PUSH1 0x1F DUP3 ADD AND DUP3 ADD DUP1 PUSH1 0x40 MSTORE POP DUP2 ADD SWAP1 PUSH2 0x40A SWAP2 SWAP1 PUSH2 0x19A5 JUMP JUMPDEST PUSH2 0x449 JUMPI PUSH1 0x40 MLOAD PUSH32 0x8C379A000000000000000000000000000000000000000000000000000000000 DUP2 MSTORE PUSH1 0x4 ADD PUSH2 0x440 SWAP1 PUSH2 0x219F JUMP JUMPDEST PUSH1 0x40 MLOAD DUP1 SWAP2 SUB SWAP1 REVERT JUMPDEST PUSH2 0x451 PUSH2 0x1560 JUMP JUMPDEST POP JUMP JUMPDEST PUSH1 0x0 PUSH1 0x4 PUSH1 0x0 SWAP1 SLOAD SWAP1 PUSH2 0x100 EXP SWAP1 DIV PUSH20 0xFFFFFFFFFFFFFFFFFFFFFFFFFFFFFFFFFFFFFFFF AND SWAP1 POP SWAP2 SWAP1 POP JUMP JUMPDEST PUSH1 0x5 PUSH1 0x14 SWAP1 SLOAD SWAP1 PUSH2 0x100 EXP SWAP1 DIV PUSH1 0xFF AND DUP2 JUMP JUMPDEST PUSH1 0x0 DUP1 PUSH1 0x2 SWAP1 SLOAD SWAP1 PUSH2 0x100 EXP SWAP1 DIV PUSH1 0xFF AND ISZERO SWAP1 POP DUP1 DUP1 ISZERO PUSH2 0x4C6 JUMPI POP PUSH1 0x1 PUSH1 0x0 PUSH1 0x1 SWAP1 SLOAD SWAP1 PUSH2 0x100 EXP SWAP1 DIV PUSH1 0xFF AND PUSH1 0xFF AND LT JUMPDEST DUP1 PUSH2 0x4F5 JUMPI POP PUSH2 0x4D5 ADDRESS PUSH2 0x15C2 JUMP JUMPDEST ISZERO DUP1 ISZERO PUSH2 0x4F4 JUMPI POP PUSH1 0x1 PUSH1 0x0 PUSH1 0x1 SWAP1 SLOAD SWAP1 PUSH2 0x100 EXP SWAP1 DIV PUSH1 0xFF AND PUSH1 0xFF AND EQ JUMPDEST JUMPDEST PUSH2 0x534 JUMPI PUSH1 0x40 MLOAD PUSH32 0x8C379A000000000000000000000000000000000000000000000000000000000 DUP2 MSTORE PUSH1 0x4 ADD PUSH2 0x52B SWAP1 PUSH2 0x217F JUMP JUMPDEST PUSH1 0x40 MLOAD DUP1 SWAP2 SUB SWAP1 REVERT JUMPDEST PUSH1 0x1 PUSH1 0x0 PUSH1 0x1 PUSH2 0x100 EXP DUP2 SLOAD DUP2 PUSH1 0xFF MUL NOT AND SWAP1 DUP4 PUSH1 0xFF AND MUL OR SWAP1 SSTORE POP DUP1 ISZERO PUSH2 0x572 JUMPI PUSH1 0x1 PUSH1 0x0 PUSH1 0x2 PUSH2 0x100 EXP DUP2 SLOAD DUP2 PUSH1 0xFF MUL NOT AND SWAP1 DUP4 ISZERO ISZERO MUL OR SWAP1 SSTORE POP JUMPDEST PUSH1 0x0 PUSH20 0xFFFFFFFFFFFFFFFFFFFFFFFFFFFFFFFFFFFFFFFF AND PUSH1 0x5 PUSH1 0x0 SWAP1 SLOAD SWAP1 PUSH2 0x100 EXP SWAP1 DIV PUSH20 0xFFFFFFFFFFFFFFFFFFFFFFFFFFFFFFFFFFFFFFFF AND PUSH20 0xFFFFFFFFFFFFFFFFFFFFFFFFFFFFFFFFFFFFFFFF AND EQ PUSH2 0x603 JUMPI PUSH1 0x40 MLOAD PUSH32 0x8C379A000000000000000000000000000000000000000000000000000000000 DUP2 MSTORE PUSH1 0x4 ADD PUSH2 0x5FA SWAP1 PUSH2 0x211F JUMP JUMPDEST PUSH1 0x40 MLOAD DUP1 SWAP2 SUB SWAP1 REVERT JUMPDEST PUSH1 0x0 DUP3 PUSH1 0xFF AND GT DUP1 ISZERO PUSH2 0x619 JUMPI POP PUSH1 0xFF DUP3 PUSH1 0xFF AND LT JUMPDEST PUSH2 0x658 JUMPI PUSH1 0x40 MLOAD PUSH32 0x8C379A000000000000000000000000000000000000000000000000000000000 DUP2 MSTORE PUSH1 0x4 ADD PUSH2 0x64F SWAP1 PUSH2 0x221F JUMP JUMPDEST PUSH1 0x40 MLOAD DUP1 SWAP2 SUB SWAP1 REVERT JUMPDEST DUP5 PUSH1 0x3 PUSH1 0x0 PUSH2 0x100 EXP DUP2 SLOAD DUP2 PUSH20 0xFFFFFFFFFFFFFFFFFFFFFFFFFFFFFFFFFFFFFFFF MUL NOT AND SWAP1 DUP4 PUSH20 0xFFFFFFFFFFFFFFFFFFFFFFFFFFFFFFFFFFFFFFFF AND MUL OR SWAP1 SSTORE POP DUP4 PUSH1 0x4 PUSH1 0x0 PUSH2 0x100 EXP DUP2 SLOAD DUP2 PUSH20 0xFFFFFFFFFFFFFFFFFFFFFFFFFFFFFFFFFFFFFFFF MUL NOT AND SWAP1 DUP4 PUSH20 0xFFFFFFFFFFFFFFFFFFFFFFFFFFFFFFFFFFFFFFFF AND MUL OR SWAP1 SSTORE POP DUP3 PUSH1 0x2 PUSH1 0x0 PUSH2 0x100 EXP DUP2 SLOAD DUP2 PUSH20 0xFFFFFFFFFFFFFFFFFFFFFFFFFFFFFFFFFFFFFFFF MUL NOT AND SWAP1 DUP4 PUSH20 0xFFFFFFFFFFFFFFFFFFFFFFFFFFFFFFFFFFFFFFFF AND MUL OR SWAP1 SSTORE POP DUP2 PUSH1 0x5 PUSH1 0x14 PUSH2 0x100 EXP DUP2 SLOAD DUP2 PUSH1 0xFF MUL NOT AND SWAP1 DUP4 PUSH1 0xFF AND MUL OR SWAP1 SSTORE POP DUP1 ISZERO PUSH2 0x78F JUMPI PUSH1 0x0 DUP1 PUSH1 0x2 PUSH2 0x100 EXP DUP2 SLOAD DUP2 PUSH1 0xFF MUL NOT AND SWAP1 DUP4 ISZERO ISZERO MUL OR SWAP1 SSTORE POP PUSH32 0x7F26B83FF96E1F2B6A682F133852F6798A09C465DA95921460CEFB3847402498 PUSH1 0x1 PUSH1 0x40 MLOAD PUSH2 0x786 SWAP2 SWAP1 PUSH2 0x2084 JUMP JUMPDEST PUSH1 0x40 MLOAD DUP1 SWAP2 SUB SWAP1 LOG1 JUMPDEST POP POP POP POP POP JUMP JUMPDEST PUSH1 0x5 PUSH1 0x0 SWAP1 SLOAD SWAP1 PUSH2 0x100 EXP SWAP1 DIV PUSH20 0xFFFFFFFFFFFFFFFFFFFFFFFFFFFFFFFFFFFFFFFF AND DUP2 JUMP JUMPDEST PUSH1 0x4 PUSH1 0x0 SWAP1 SLOAD SWAP1 PUSH2 0x100 EXP SWAP1 DIV PUSH20 0xFFFFFFFFFFFFFFFFFFFFFFFFFFFFFFFFFFFFFFFF AND DUP2 JUMP JUMPDEST PUSH1 0x0 PUSH1 0x3 SWAP1 SLOAD SWAP1 PUSH2 0x100 EXP SWAP1 DIV PUSH8 0xFFFFFFFFFFFFFFFF AND DUP2 JUMP JUMPDEST PUSH2 0x804 PUSH2 0x15E5 JUMP JUMPDEST PUSH1 0x0 PUSH2 0x80F CALLER PUSH2 0x162F JUMP JUMPDEST SWAP1 POP PUSH32 0xFFFFFFFFFFFFFFFFFFFFFFFFFFFFFFFFFFFFFFFFFFFFFFFFFFFFFFFFFFFFFFFF DUP2 EQ ISZERO PUSH2 0x874 JUMPI PUSH1 0x40 MLOAD PUSH32 0x8C379A000000000000000000000000000000000000000000000000000000000 DUP2 MSTORE PUSH1 0x4 ADD PUSH2 0x86B SWAP1 PUSH2 0x215F JUMP JUMPDEST PUSH1 0x40 MLOAD DUP1 SWAP2 SUB SWAP1 REVERT JUMPDEST PUSH1 0x0 PUSH20 0xFFFFFFFFFFFFFFFFFFFFFFFFFFFFFFFFFFFFFFFF AND PUSH1 0x4 PUSH1 0x0 SWAP1 SLOAD SWAP1 PUSH2 0x100 EXP SWAP1 DIV PUSH20 0xFFFFFFFFFFFFFFFFFFFFFFFFFFFFFFFFFFFFFFFF AND PUSH20 0xFFFFFFFFFFFFFFFFFFFFFFFFFFFFFFFFFFFFFFFF AND EQ ISZERO PUSH2 0x906 JUMPI PUSH1 0x40 MLOAD PUSH32 0x8C379A000000000000000000000000000000000000000000000000000000000 DUP2 MSTORE PUSH1 0x4 ADD PUSH2 0x8FD SWAP1 PUSH2 0x20BF JUMP JUMPDEST PUSH1 0x40 MLOAD DUP1 SWAP2 SUB SWAP1 REVERT JUMPDEST PUSH1 0x0 PUSH1 0x3 SWAP1 SLOAD SWAP1 PUSH2 0x100 EXP SWAP1 DIV PUSH8 0xFFFFFFFFFFFFFFFF AND PUSH8 0xFFFFFFFFFFFFFFFF AND DUP4 PUSH8 0xFFFFFFFFFFFFFFFF AND LT ISZERO PUSH2 0x973 JUMPI PUSH1 0x40 MLOAD PUSH32 0x8C379A000000000000000000000000000000000000000000000000000000000 DUP2 MSTORE PUSH1 0x4 ADD PUSH2 0x96A SWAP1 PUSH2 0x21BF JUMP JUMPDEST PUSH1 0x40 MLOAD DUP1 SWAP2 SUB SWAP1 REVERT JUMPDEST PUSH1 0x0 PUSH1 0x3 SWAP1 SLOAD SWAP1 PUSH2 0x100 EXP SWAP1 DIV PUSH8 0xFFFFFFFFFFFFFFFF AND PUSH8 0xFFFFFFFFFFFFFFFF AND DUP4 PUSH8 0xFFFFFFFFFFFFFFFF AND GT ISZERO PUSH2 0x9D7 JUMPI DUP3 PUSH1 0x0 PUSH1 0x3 PUSH2 0x100 EXP DUP2 SLOAD DUP2 PUSH8 0xFFFFFFFFFFFFFFFF MUL NOT AND SWAP1 DUP4 PUSH8 0xFFFFFFFFFFFFFFFF AND MUL OR SWAP1 SSTORE POP PUSH2 0x9D6 PUSH2 0x16FD JUMP JUMPDEST JUMPDEST PUSH1 0x4 PUSH1 0x0 SWAP1 SLOAD SWAP1 PUSH2 0x100 EXP SWAP1 DIV PUSH20 0xFFFFFFFFFFFFFFFFFFFFFFFFFFFFFFFFFFFFFFFF AND PUSH20 0xFFFFFFFFFFFFFFFFFFFFFFFFFFFFFFFFFFFFFFFF AND PUSH4 0x7650B11D DUP3 PUSH1 0x5 PUSH1 0x14 SWAP1 SLOAD SWAP1 PUSH2 0x100 EXP SWAP1 DIV PUSH1 0xFF AND DUP7 DUP7 PUSH1 0x40 MLOAD DUP6 PUSH4 0xFFFFFFFF AND PUSH1 0xE0 SHL DUP2 MSTORE PUSH1 0x4 ADD PUSH2 0xA47 SWAP5 SWAP4 SWAP3 SWAP2 SWAP1 PUSH2 0x225A JUMP JUMPDEST PUSH1 0x0 PUSH1 0x40 MLOAD DUP1 DUP4 SUB DUP2 PUSH1 0x0 DUP8 DUP1 EXTCODESIZE ISZERO DUP1 ISZERO PUSH2 0xA61 JUMPI PUSH1 0x0 DUP1 REVERT JUMPDEST POP GAS CALL ISZERO DUP1 ISZERO PUSH2 0xA75 JUMPI RETURNDATASIZE PUSH1 0x0 DUP1 RETURNDATACOPY RETURNDATASIZE PUSH1 0x0 REVERT JUMPDEST POP POP POP POP POP POP POP JUMP JUMPDEST PUSH1 0x0 DUP1 PUSH1 0x0 SWAP1 SLOAD SWAP1 PUSH2 0x100 EXP SWAP1 DIV PUSH1 0xFF AND SWAP1 POP SWAP1 JUMP JUMPDEST PUSH1 0x1 DUP2 DUP2 SLOAD DUP2 LT PUSH2 0xAA4 JUMPI PUSH1 0x0 DUP1 REVERT JUMPDEST SWAP1 PUSH1 0x0 MSTORE PUSH1 0x20 PUSH1 0x0 KECCAK256 ADD PUSH1 0x0 SWAP2 POP SLOAD SWAP1 PUSH2 0x100 EXP SWAP1 DIV PUSH20 0xFFFFFFFFFFFFFFFFFFFFFFFFFFFFFFFFFFFFFFFF AND DUP2 JUMP JUMPDEST PUSH32 0x8AC38A2A3C56DDDD46CB8BC53EF71A94590A3862AEFD3143ED3126454AF63731 PUSH1 0x3 PUSH1 0x0 SWAP1 SLOAD SWAP1 PUSH2 0x100 EXP SWAP1 DIV PUSH20 0xFFFFFFFFFFFFFFFFFFFFFFFFFFFFFFFFFFFFFFFF AND PUSH20 0xFFFFFFFFFFFFFFFFFFFFFFFFFFFFFFFFFFFFFFFF AND PUSH4 0xEFF11B2C DUP3 CALLER PUSH1 0x40 MLOAD DUP4 PUSH4 0xFFFFFFFF AND PUSH1 0xE0 SHL DUP2 MSTORE PUSH1 0x4 ADD PUSH2 0xB51 SWAP3 SWAP2 SWAP1 PUSH2 0x205B JUMP JUMPDEST PUSH1 0x20 PUSH1 0x40 MLOAD DUP1 DUP4 SUB DUP2 DUP7 DUP1 EXTCODESIZE ISZERO DUP1 ISZERO PUSH2 0xB69 JUMPI PUSH1 0x0 DUP1 REVERT JUMPDEST POP GAS STATICCALL ISZERO DUP1 ISZERO PUSH2 0xB7D JUMPI RETURNDATASIZE PUSH1 0x0 DUP1 RETURNDATACOPY RETURNDATASIZE PUSH1 0x0 REVERT JUMPDEST POP POP POP POP PUSH1 0x40 MLOAD RETURNDATASIZE PUSH1 0x1F NOT PUSH1 0x1F DUP3 ADD AND DUP3 ADD DUP1 PUSH1 0x40 MSTORE POP DUP2 ADD SWAP1 PUSH2 0xBA1 SWAP2 SWAP1 PUSH2 0x19A5 JUMP JUMPDEST PUSH2 0xBE0 JUMPI PUSH1 0x40 MLOAD PUSH32 0x8C379A000000000000000000000000000000000000000000000000000000000 DUP2 MSTORE PUSH1 0x4 ADD PUSH2 0xBD7 SWAP1 PUSH2 0x219F JUMP JUMPDEST PUSH1 0x40 MLOAD DUP1 SWAP2 SUB SWAP1 REVERT JUMPDEST PUSH1 0x0 DUP3 PUSH1 0xFF AND GT DUP1 ISZERO PUSH2 0xBF6 JUMPI POP PUSH1 0xFF DUP3 PUSH1 0xFF AND LT JUMPDEST PUSH2 0xC35 JUMPI PUSH1 0x40 MLOAD PUSH32 0x8C379A000000000000000000000000000000000000000000000000000000000 DUP2 MSTORE PUSH1 0x4 ADD PUSH2 0xC2C SWAP1 PUSH2 0x20DF JUMP JUMPDEST PUSH1 0x40 MLOAD DUP1 SWAP2 SUB SWAP1 REVERT JUMPDEST PUSH1 0x0 PUSH1 0x5 PUSH1 0x14 SWAP1 SLOAD SWAP1 PUSH2 0x100 EXP SWAP1 DIV PUSH1 0xFF AND SWAP1 POP DUP3 PUSH1 0x5 PUSH1 0x14 PUSH2 0x100 EXP DUP2 SLOAD DUP2 PUSH1 0xFF MUL NOT AND SWAP1 DUP4 PUSH1 0xFF AND MUL OR SWAP1 SSTORE POP DUP3 PUSH1 0xFF AND DUP2 PUSH1 0xFF AND GT ISZERO PUSH2 0xD18 JUMPI PUSH1 0x4 PUSH1 0x0 SWAP1 SLOAD SWAP1 PUSH2 0x100 EXP SWAP1 DIV PUSH20 0xFFFFFFFFFFFFFFFFFFFFFFFFFFFFFFFFFFFFFFFF AND PUSH20 0xFFFFFFFFFFFFFFFFFFFFFFFFFFFFFFFFFFFFFFFF AND PUSH4 0xCB35CF31 DUP5 PUSH1 0x0 PUSH1 0x3 SWAP1 SLOAD SWAP1 PUSH2 0x100 EXP SWAP1 DIV PUSH8 0xFFFFFFFFFFFFFFFF AND PUSH1 0x40 MLOAD DUP4 PUSH4 0xFFFFFFFF AND PUSH1 0xE0 SHL DUP2 MSTORE PUSH1 0x4 ADD PUSH2 0xCE5 SWAP3 SWAP2 SWAP1 PUSH2 0x2305 JUMP JUMPDEST PUSH1 0x0 PUSH1 0x40 MLOAD DUP1 DUP4 SUB DUP2 PUSH1 0x0 DUP8 DUP1 EXTCODESIZE ISZERO DUP1 ISZERO PUSH2 0xCFF JUMPI PUSH1 0x0 DUP1 REVERT JUMPDEST POP GAS CALL ISZERO DUP1 ISZERO PUSH2 0xD13 JUMPI RETURNDATASIZE PUSH1 0x0 DUP1 RETURNDATACOPY RETURNDATASIZE PUSH1 0x0 REVERT JUMPDEST POP POP POP POP JUMPDEST PUSH32 0xD6ECD940F5784CECEEEB048268900F819851986DBE41C49F6E754B988868DF87 DUP4 PUSH1 0x40 MLOAD PUSH2 0xD47 SWAP2 SWAP1 PUSH2 0x22EA JUMP JUMPDEST PUSH1 0x40 MLOAD DUP1 SWAP2 SUB SWAP1 LOG1 POP POP POP JUMP JUMPDEST PUSH32 0xD76E3374742C17BD14FFAF46CD349EC292BAF7D8425512FA8FE132557A4C967B PUSH1 0x3 PUSH1 0x0 SWAP1 SLOAD SWAP1 PUSH2 0x100 EXP SWAP1 DIV PUSH20 0xFFFFFFFFFFFFFFFFFFFFFFFFFFFFFFFFFFFFFFFF AND PUSH20 0xFFFFFFFFFFFFFFFFFFFFFFFFFFFFFFFFFFFFFFFF AND PUSH4 0xEFF11B2C DUP3 CALLER PUSH1 0x40 MLOAD DUP4 PUSH4 0xFFFFFFFF AND PUSH1 0xE0 SHL DUP2 MSTORE PUSH1 0x4 ADD PUSH2 0xDD2 SWAP3 SWAP2 SWAP1 PUSH2 0x205B JUMP JUMPDEST PUSH1 0x20 PUSH1 0x40 MLOAD DUP1 DUP4 SUB DUP2 DUP7 DUP1 EXTCODESIZE ISZERO DUP1 ISZERO PUSH2 0xDEA JUMPI PUSH1 0x0 DUP1 REVERT JUMPDEST POP GAS STATICCALL ISZERO DUP1 ISZERO PUSH2 0xDFE JUMPI RETURNDATASIZE PUSH1 0x0 DUP1 RETURNDATACOPY RETURNDATASIZE PUSH1 0x0 REVERT JUMPDEST POP POP POP POP PUSH1 0x40 MLOAD RETURNDATASIZE PUSH1 0x1F NOT PUSH1 0x1F DUP3 ADD AND DUP3 ADD DUP1 PUSH1 0x40 MSTORE POP DUP2 ADD SWAP1 PUSH2 0xE22 SWAP2 SWAP1 PUSH2 0x19A5 JUMP JUMPDEST PUSH2 0xE61 JUMPI PUSH1 0x40 MLOAD PUSH32 0x8C379A000000000000000000000000000000000000000000000000000000000 DUP2 MSTORE PUSH1 0x4 ADD PUSH2 0xE58 SWAP1 PUSH2 0x219F JUMP JUMPDEST PUSH1 0x40 MLOAD DUP1 SWAP2 SUB SWAP1 REVERT JUMPDEST PUSH2 0xE69 PUSH2 0x1781 JUMP JUMPDEST POP JUMP JUMPDEST PUSH1 0x0 DUP1 PUSH1 0x0 PUSH1 0x3 SWAP1 SLOAD SWAP1 PUSH2 0x100 EXP SWAP1 DIV PUSH8 0xFFFFFFFFFFFFFFFF AND SWAP2 POP PUSH1 0x0 PUSH2 0xE93 DUP5 PUSH2 0x162F JUMP JUMPDEST SWAP1 POP PUSH32 0xFFFFFFFFFFFFFFFFFFFFFFFFFFFFFFFFFFFFFFFFFFFFFFFFFFFFFFFFFFFFFFFF DUP2 EQ ISZERO PUSH2 0xECA JUMPI DUP3 PUSH1 0x0 SWAP3 POP SWAP3 POP POP PUSH2 0xF7C JUMP JUMPDEST DUP3 PUSH1 0x4 PUSH1 0x0 SWAP1 SLOAD SWAP1 PUSH2 0x100 EXP SWAP1 DIV PUSH20 0xFFFFFFFFFFFFFFFFFFFFFFFFFFFFFFFFFFFFFFFF AND PUSH20 0xFFFFFFFFFFFFFFFFFFFFFFFFFFFFFFFFFFFFFFFF AND PUSH4 0x89B80361 DUP4 PUSH1 0x40 MLOAD DUP3 PUSH4 0xFFFFFFFF AND PUSH1 0xE0 SHL DUP2 MSTORE PUSH1 0x4 ADD PUSH2 0xF26 SWAP2 SWAP1 PUSH2 0x223F JUMP JUMPDEST PUSH1 0x20 PUSH1 0x40 MLOAD DUP1 DUP4 SUB DUP2 DUP7 DUP1 EXTCODESIZE ISZERO DUP1 ISZERO PUSH2 0xF3E JUMPI PUSH1 0x0 DUP1 REVERT JUMPDEST POP GAS STATICCALL ISZERO DUP1 ISZERO PUSH2 0xF52 JUMPI RETURNDATASIZE PUSH1 0x0 DUP1 RETURNDATACOPY RETURNDATASIZE PUSH1 0x0 REVERT JUMPDEST POP POP POP POP PUSH1 0x40 MLOAD RETURNDATASIZE PUSH1 0x1F NOT PUSH1 0x1F DUP3 ADD AND DUP3 ADD DUP1 PUSH1 0x40 MSTORE POP DUP2 ADD SWAP1 PUSH2 0xF76 SWAP2 SWAP1 PUSH2 0x19A5 JUMP JUMPDEST SWAP3 POP SWAP3 POP POP JUMPDEST SWAP2 POP SWAP2 JUMP JUMPDEST PUSH1 0x3 PUSH1 0x0 SWAP1 SLOAD SWAP1 PUSH2 0x100 EXP SWAP1 DIV PUSH20 0xFFFFFFFFFFFFFFFFFFFFFFFFFFFFFFFFFFFFFFFF AND DUP2 JUMP JUMPDEST PUSH32 0x390FB325AD2241104EC9502C1FE8CA89F34A50B811D77948772F75454C563CEB PUSH1 0x3 PUSH1 0x0 SWAP1 SLOAD SWAP1 PUSH2 0x100 EXP SWAP1 DIV PUSH20 0xFFFFFFFFFFFFFFFFFFFFFFFFFFFFFFFFFFFFFFFF AND PUSH20 0xFFFFFFFFFFFFFFFFFFFFFFFFFFFFFFFFFFFFFFFF AND PUSH4 0xEFF11B2C DUP3 CALLER PUSH1 0x40 MLOAD DUP4 PUSH4 0xFFFFFFFF AND PUSH1 0xE0 SHL DUP2 MSTORE PUSH1 0x4 ADD PUSH2 0x1025 SWAP3 SWAP2 SWAP1 PUSH2 0x205B JUMP JUMPDEST PUSH1 0x20 PUSH1 0x40 MLOAD DUP1 DUP4 SUB DUP2 DUP7 DUP1 EXTCODESIZE ISZERO DUP1 ISZERO PUSH2 0x103D JUMPI PUSH1 0x0 DUP1 REVERT JUMPDEST POP GAS STATICCALL ISZERO DUP1 ISZERO PUSH2 0x1051 JUMPI RETURNDATASIZE PUSH1 0x0 DUP1 RETURNDATACOPY RETURNDATASIZE PUSH1 0x0 REVERT JUMPDEST POP POP POP POP PUSH1 0x40 MLOAD RETURNDATASIZE PUSH1 0x1F NOT PUSH1 0x1F DUP3 ADD AND DUP3 ADD DUP1 PUSH1 0x40 MSTORE POP DUP2 ADD SWAP1 PUSH2 0x1075 SWAP2 SWAP1 PUSH2 0x19A5 JUMP JUMPDEST PUSH2 0x10B4 JUMPI PUSH1 0x40 MLOAD PUSH32 0x8C379A000000000000000000000000000000000000000000000000000000000 DUP2 MSTORE PUSH1 0x4 ADD PUSH2 0x10AB SWAP1 PUSH2 0x219F JUMP JUMPDEST PUSH1 0x40 MLOAD DUP1 SWAP2 SUB SWAP1 REVERT JUMPDEST PUSH1 0x0 PUSH20 0xFFFFFFFFFFFFFFFFFFFFFFFFFFFFFFFFFFFFFFFF AND DUP3 PUSH20 0xFFFFFFFFFFFFFFFFFFFFFFFFFFFFFFFFFFFFFFFF AND EQ ISZERO PUSH2 0x1124 JUMPI PUSH1 0x40 MLOAD PUSH32 0x8C379A000000000000000000000000000000000000000000000000000000000 DUP2 MSTORE PUSH1 0x4 ADD PUSH2 0x111B SWAP1 PUSH2 0x21DF JUMP JUMPDEST PUSH1 0x40 MLOAD DUP1 SWAP2 SUB SWAP1 REVERT JUMPDEST PUSH32 0xFFFFFFFFFFFFFFFFFFFFFFFFFFFFFFFFFFFFFFFFFFFFFFFFFFFFFFFFFFFFFFFF PUSH2 0x114E DUP4 PUSH2 0x162F JUMP JUMPDEST EQ PUSH2 0x118E JUMPI PUSH1 0x40 MLOAD PUSH32 0x8C379A000000000000000000000000000000000000000000000000000000000 DUP2 MSTORE PUSH1 0x4 ADD PUSH2 0x1185 SWAP1 PUSH2 0x20FF JUMP JUMPDEST PUSH1 0x40 MLOAD DUP1 SWAP2 SUB SWAP1 REVERT JUMPDEST PUSH1 0xFF PUSH1 0x1 DUP1 SLOAD SWAP1 POP LT PUSH2 0x11D6 JUMPI PUSH1 0x40 MLOAD PUSH32 0x8C379A000000000000000000000000000000000000000000000000000000000 DUP2 MSTORE PUSH1 0x4 ADD PUSH2 0x11CD SWAP1 PUSH2 0x21FF JUMP JUMPDEST PUSH1 0x40 MLOAD DUP1 SWAP2 SUB SWAP1 REVERT JUMPDEST PUSH1 0x1 DUP3 SWAP1 DUP1 PUSH1 0x1 DUP2 SLOAD ADD DUP1 DUP3 SSTORE DUP1 SWAP2 POP POP PUSH1 0x1 SWAP1 SUB SWAP1 PUSH1 0x0 MSTORE PUSH1 0x20 PUSH1 0x0 KECCAK256 ADD PUSH1 0x0 SWAP1 SWAP2 SWAP1 SWAP2 SWAP1 SWAP2 PUSH2 0x100 EXP DUP2 SLOAD DUP2 PUSH20 0xFFFFFFFFFFFFFFFFFFFFFFFFFFFFFFFFFFFFFFFF MUL NOT AND SWAP1 DUP4 PUSH20 0xFFFFFFFFFFFFFFFFFFFFFFFFFFFFFFFFFFFFFFFF AND MUL OR SWAP1 SSTORE POP PUSH32 0xB251EB052AFC73FFD02FFE85AD79990A8B3FED60D76DBC2FA2FDD7123DFFD914 DUP3 PUSH1 0x40 MLOAD PUSH2 0x1268 SWAP2 SWAP1 PUSH2 0x200A JUMP JUMPDEST PUSH1 0x40 MLOAD DUP1 SWAP2 SUB SWAP1 LOG1 POP POP JUMP JUMPDEST PUSH1 0x2 PUSH1 0x0 SWAP1 SLOAD SWAP1 PUSH2 0x100 EXP SWAP1 DIV PUSH20 0xFFFFFFFFFFFFFFFFFFFFFFFFFFFFFFFFFFFFFFFF AND DUP2 JUMP JUMPDEST PUSH1 0xFF DUP2 JUMP JUMPDEST PUSH32 0x390FB325AD2241104EC9502C1FE8CA89F34A50B811D77948772F75454C563CEB PUSH1 0x3 PUSH1 0x0 SWAP1 SLOAD SWAP1 PUSH2 0x100 EXP SWAP1 DIV PUSH20 0xFFFFFFFFFFFFFFFFFFFFFFFFFFFFFFFFFFFFFFFF AND PUSH20 0xFFFFFFFFFFFFFFFFFFFFFFFFFFFFFFFFFFFFFFFF AND PUSH4 0xEFF11B2C DUP3 CALLER PUSH1 0x40 MLOAD DUP4 PUSH4 0xFFFFFFFF AND PUSH1 0xE0 SHL DUP2 MSTORE PUSH1 0x4 ADD PUSH2 0x131D SWAP3 SWAP2 SWAP1 PUSH2 0x205B JUMP JUMPDEST PUSH1 0x20 PUSH1 0x40 MLOAD DUP1 DUP4 SUB DUP2 DUP7 DUP1 EXTCODESIZE ISZERO DUP1 ISZERO PUSH2 0x1335 JUMPI PUSH1 0x0 DUP1 REVERT JUMPDEST POP GAS STATICCALL ISZERO DUP1 ISZERO PUSH2 0x1349 JUMPI RETURNDATASIZE PUSH1 0x0 DUP1 RETURNDATACOPY RETURNDATASIZE PUSH1 0x0 REVERT JUMPDEST POP POP POP POP PUSH1 0x40 MLOAD RETURNDATASIZE PUSH1 0x1F NOT PUSH1 0x1F DUP3 ADD AND DUP3 ADD DUP1 PUSH1 0x40 MSTORE POP DUP2 ADD SWAP1 PUSH2 0x136D SWAP2 SWAP1 PUSH2 0x19A5 JUMP JUMPDEST PUSH2 0x13AC JUMPI PUSH1 0x40 MLOAD PUSH32 0x8C379A000000000000000000000000000000000000000000000000000000000 DUP2 MSTORE PUSH1 0x4 ADD PUSH2 0x13A3 SWAP1 PUSH2 0x219F JUMP JUMPDEST PUSH1 0x40 MLOAD DUP1 SWAP2 SUB SWAP1 REVERT JUMPDEST PUSH1 0x0 PUSH2 0x13B7 DUP4 PUSH2 0x162F JUMP JUMPDEST SWAP1 POP PUSH32 0xFFFFFFFFFFFFFFFFFFFFFFFFFFFFFFFFFFFFFFFFFFFFFFFFFFFFFFFFFFFFFFFF DUP2 EQ ISZERO PUSH2 0x141C JUMPI PUSH1 0x40 MLOAD PUSH32 0x8C379A000000000000000000000000000000000000000000000000000000000 DUP2 MSTORE PUSH1 0x4 ADD PUSH2 0x1413 SWAP1 PUSH2 0x215F JUMP JUMPDEST PUSH1 0x40 MLOAD DUP1 SWAP2 SUB SWAP1 REVERT JUMPDEST PUSH1 0x0 PUSH1 0x1 DUP1 DUP1 SLOAD SWAP1 POP PUSH2 0x142F SWAP2 SWAP1 PUSH2 0x24FB JUMP JUMPDEST SWAP1 POP DUP1 DUP3 EQ PUSH2 0x14D4 JUMPI PUSH1 0x1 DUP2 DUP2 SLOAD DUP2 LT PUSH2 0x144C JUMPI PUSH2 0x144B PUSH2 0x269B JUMP JUMPDEST JUMPDEST SWAP1 PUSH1 0x0 MSTORE PUSH1 0x20 PUSH1 0x0 KECCAK256 ADD PUSH1 0x0 SWAP1 SLOAD SWAP1 PUSH2 0x100 EXP SWAP1 DIV PUSH20 0xFFFFFFFFFFFFFFFFFFFFFFFFFFFFFFFFFFFFFFFF AND PUSH1 0x1 DUP4 DUP2 SLOAD DUP2 LT PUSH2 0x148B JUMPI PUSH2 0x148A PUSH2 0x269B JUMP JUMPDEST JUMPDEST SWAP1 PUSH1 0x0 MSTORE PUSH1 0x20 PUSH1 0x0 KECCAK256 ADD PUSH1 0x0 PUSH2 0x100 EXP DUP2 SLOAD DUP2 PUSH20 0xFFFFFFFFFFFFFFFFFFFFFFFFFFFFFFFFFFFFFFFF MUL NOT AND SWAP1 DUP4 PUSH20 0xFFFFFFFFFFFFFFFFFFFFFFFFFFFFFFFFFFFFFFFF AND MUL OR SWAP1 SSTORE POP JUMPDEST PUSH1 0x1 DUP1 SLOAD DUP1 PUSH2 0x14E6 JUMPI PUSH2 0x14E5 PUSH2 0x266C JUMP JUMPDEST JUMPDEST PUSH1 0x1 SWAP1 SUB DUP2 DUP2 SWAP1 PUSH1 0x0 MSTORE PUSH1 0x20 PUSH1 0x0 KECCAK256 ADD PUSH1 0x0 PUSH2 0x100 EXP DUP2 SLOAD SWAP1 PUSH20 0xFFFFFFFFFFFFFFFFFFFFFFFFFFFFFFFFFFFFFFFF MUL NOT AND SWAP1 SSTORE SWAP1 SSTORE PUSH32 0x6E76FB4C77256006D9C38EC7D82B45A8C8F3C27B1D6766FFFC42DFB8DE684492 DUP5 PUSH1 0x40 MLOAD PUSH2 0x154A SWAP2 SWAP1 PUSH2 0x200A JUMP JUMPDEST PUSH1 0x40 MLOAD DUP1 SWAP2 SUB SWAP1 LOG1 PUSH2 0x155A PUSH2 0x16FD JUMP JUMPDEST POP POP POP POP JUMP JUMPDEST PUSH2 0x1568 PUSH2 0x17E3 JUMP JUMPDEST PUSH1 0x0 DUP1 PUSH1 0x0 PUSH2 0x100 EXP DUP2 SLOAD DUP2 PUSH1 0xFF MUL NOT AND SWAP1 DUP4 ISZERO ISZERO MUL OR SWAP1 SSTORE POP PUSH32 0x5DB9EE0A495BF2E6FF9C91A7834C1BA4FDD244A5E8AA4E537BD38AEAE4B073AA PUSH2 0x15AB PUSH2 0x182C JUMP JUMPDEST PUSH1 0x40 MLOAD PUSH2 0x15B8 SWAP2 SWAP1 PUSH2 0x200A JUMP JUMPDEST PUSH1 0x40 MLOAD DUP1 SWAP2 SUB SWAP1 LOG1 JUMP JUMPDEST PUSH1 0x0 DUP1 DUP3 PUSH20 0xFFFFFFFFFFFFFFFFFFFFFFFFFFFFFFFFFFFFFFFF AND EXTCODESIZE GT SWAP1 POP SWAP2 SWAP1 POP JUMP JUMPDEST PUSH2 0x15ED PUSH2 0xA7E JUMP JUMPDEST ISZERO PUSH2 0x162D JUMPI PUSH1 0x40 MLOAD PUSH32 0x8C379A000000000000000000000000000000000000000000000000000000000 DUP2 MSTORE PUSH1 0x4 ADD PUSH2 0x1624 SWAP1 PUSH2 0x213F JUMP JUMPDEST PUSH1 0x40 MLOAD DUP1 SWAP2 SUB SWAP1 REVERT JUMPDEST JUMP JUMPDEST PUSH1 0x0 DUP1 PUSH1 0x1 DUP1 SLOAD SWAP1 POP SWAP1 POP PUSH1 0x0 JUMPDEST DUP2 DUP2 LT ISZERO PUSH2 0x16D2 JUMPI DUP4 PUSH20 0xFFFFFFFFFFFFFFFFFFFFFFFFFFFFFFFFFFFFFFFF AND PUSH1 0x1 DUP3 DUP2 SLOAD DUP2 LT PUSH2 0x1670 JUMPI PUSH2 0x166F PUSH2 0x269B JUMP JUMPDEST JUMPDEST SWAP1 PUSH1 0x0 MSTORE PUSH1 0x20 PUSH1 0x0 KECCAK256 ADD PUSH1 0x0 SWAP1 SLOAD SWAP1 PUSH2 0x100 EXP SWAP1 DIV PUSH20 0xFFFFFFFFFFFFFFFFFFFFFFFFFFFFFFFFFFFFFFFF AND PUSH20 0xFFFFFFFFFFFFFFFFFFFFFFFFFFFFFFFFFFFFFFFF AND EQ ISZERO PUSH2 0x16C1 JUMPI DUP1 SWAP3 POP POP POP PUSH2 0x16F8 JUMP JUMPDEST DUP1 PUSH2 0x16CB SWAP1 PUSH2 0x25F4 JUMP JUMPDEST SWAP1 POP PUSH2 0x163D JUMP JUMPDEST POP PUSH32 0xFFFFFFFFFFFFFFFFFFFFFFFFFFFFFFFFFFFFFFFFFFFFFFFFFFFFFFFFFFFFFFFF SWAP2 POP POP JUMPDEST SWAP2 SWAP1 POP JUMP JUMPDEST PUSH1 0x4 PUSH1 0x0 SWAP1 SLOAD SWAP1 PUSH2 0x100 EXP SWAP1 DIV PUSH20 0xFFFFFFFFFFFFFFFFFFFFFFFFFFFFFFFFFFFFFFFF AND PUSH20 0xFFFFFFFFFFFFFFFFFFFFFFFFFFFFFFFFFFFFFFFF AND PUSH4 0xB75B518C PUSH1 0x40 MLOAD DUP2 PUSH4 0xFFFFFFFF AND PUSH1 0xE0 SHL DUP2 MSTORE PUSH1 0x4 ADD PUSH1 0x0 PUSH1 0x40 MLOAD DUP1 DUP4 SUB DUP2 PUSH1 0x0 DUP8 DUP1 EXTCODESIZE ISZERO DUP1 ISZERO PUSH2 0x1767 JUMPI PUSH1 0x0 DUP1 REVERT JUMPDEST POP GAS CALL ISZERO DUP1 ISZERO PUSH2 0x177B JUMPI RETURNDATASIZE PUSH1 0x0 DUP1 RETURNDATACOPY RETURNDATASIZE PUSH1 0x0 REVERT JUMPDEST POP POP POP POP JUMP JUMPDEST PUSH2 0x1789 PUSH2 0x15E5 JUMP JUMPDEST PUSH1 0x1 PUSH1 0x0 DUP1 PUSH2 0x100 EXP DUP2 SLOAD DUP2 PUSH1 0xFF MUL NOT AND SWAP1 DUP4 ISZERO ISZERO MUL OR SWAP1 SSTORE POP PUSH32 0x62E78CEA01BEE320CD4E420270B5EA74000D11B0C9F74754EBDBFC544B05A258 PUSH2 0x17CC PUSH2 0x182C JUMP JUMPDEST PUSH1 0x40 MLOAD PUSH2 0x17D9 SWAP2 SWAP1 PUSH2 0x200A JUMP JUMPDEST PUSH1 0x40 MLOAD DUP1 SWAP2 SUB SWAP1 LOG1 JUMP JUMPDEST PUSH2 0x17EB PUSH2 0xA7E JUMP JUMPDEST PUSH2 0x182A JUMPI PUSH1 0x40 MLOAD PUSH32 0x8C379A000000000000000000000000000000000000000000000000000000000 DUP2 MSTORE PUSH1 0x4 ADD PUSH2 0x1821 SWAP1 PUSH2 0x209F JUMP JUMPDEST PUSH1 0x40 MLOAD DUP1 SWAP2 SUB SWAP1 REVERT JUMPDEST JUMP JUMPDEST PUSH1 0x0 CALLER SWAP1 POP SWAP1 JUMP JUMPDEST PUSH1 0x0 DUP2 CALLDATALOAD SWAP1 POP PUSH2 0x1843 DUP2 PUSH2 0x2923 JUMP JUMPDEST SWAP3 SWAP2 POP POP JUMP JUMPDEST PUSH1 0x0 DUP2 CALLDATALOAD SWAP1 POP PUSH2 0x1858 DUP2 PUSH2 0x293A JUMP JUMPDEST SWAP3 SWAP2 POP POP JUMP JUMPDEST PUSH1 0x0 DUP2 CALLDATALOAD SWAP1 POP PUSH2 0x186D DUP2 PUSH2 0x2951 JUMP JUMPDEST SWAP3 SWAP2 POP POP JUMP JUMPDEST PUSH1 0x0 DUP2 MLOAD SWAP1 POP PUSH2 0x1882 DUP2 PUSH2 0x2951 JUMP JUMPDEST SWAP3 SWAP2 POP POP JUMP JUMPDEST PUSH1 0x0 DUP2 CALLDATALOAD SWAP1 POP PUSH2 0x1897 DUP2 PUSH2 0x2968 JUMP JUMPDEST SWAP3 SWAP2 POP POP JUMP JUMPDEST PUSH1 0x0 PUSH2 0x100 DUP3 DUP5 SUB SLT ISZERO PUSH2 0x18B4 JUMPI PUSH2 0x18B3 PUSH2 0x26CF JUMP JUMPDEST JUMPDEST DUP2 SWAP1 POP SWAP3 SWAP2 POP POP JUMP JUMPDEST PUSH1 0x0 DUP2 CALLDATALOAD SWAP1 POP PUSH2 0x18CC DUP2 PUSH2 0x297F JUMP JUMPDEST SWAP3 SWAP2 POP POP JUMP JUMPDEST PUSH1 0x0 DUP2 CALLDATALOAD SWAP1 POP PUSH2 0x18E1 DUP2 PUSH2 0x2996 JUMP JUMPDEST SWAP3 SWAP2 POP POP JUMP JUMPDEST PUSH1 0x0 DUP2 CALLDATALOAD SWAP1 POP PUSH2 0x18F6 DUP2 PUSH2 0x29AD JUMP JUMPDEST SWAP3 SWAP2 POP POP JUMP JUMPDEST PUSH1 0x0 DUP2 CALLDATALOAD SWAP1 POP PUSH2 0x190B DUP2 PUSH2 0x29C4 JUMP JUMPDEST SWAP3 SWAP2 POP POP JUMP JUMPDEST PUSH1 0x0 PUSH1 0x20 DUP3 DUP5 SUB SLT ISZERO PUSH2 0x1927 JUMPI PUSH2 0x1926 PUSH2 0x26E3 JUMP JUMPDEST JUMPDEST PUSH1 0x0 PUSH2 0x1935 DUP5 DUP3 DUP6 ADD PUSH2 0x1834 JUMP JUMPDEST SWAP2 POP POP SWAP3 SWAP2 POP POP JUMP JUMPDEST PUSH1 0x0 DUP1 PUSH1 0x0 DUP1 PUSH1 0x80 DUP6 DUP8 SUB SLT ISZERO PUSH2 0x1958 JUMPI PUSH2 0x1957 PUSH2 0x26E3 JUMP JUMPDEST JUMPDEST PUSH1 0x0 PUSH2 0x1966 DUP8 DUP3 DUP9 ADD PUSH2 0x1834 JUMP JUMPDEST SWAP5 POP POP PUSH1 0x20 PUSH2 0x1977 DUP8 DUP3 DUP9 ADD PUSH2 0x1834 JUMP JUMPDEST SWAP4 POP POP PUSH1 0x40 PUSH2 0x1988 DUP8 DUP3 DUP9 ADD PUSH2 0x1849 JUMP JUMPDEST SWAP3 POP POP PUSH1 0x60 PUSH2 0x1999 DUP8 DUP3 DUP9 ADD PUSH2 0x18FC JUMP JUMPDEST SWAP2 POP POP SWAP3 SWAP6 SWAP2 SWAP5 POP SWAP3 POP JUMP JUMPDEST PUSH1 0x0 PUSH1 0x20 DUP3 DUP5 SUB SLT ISZERO PUSH2 0x19BB JUMPI PUSH2 0x19BA PUSH2 0x26E3 JUMP JUMPDEST JUMPDEST PUSH1 0x0 PUSH2 0x19C9 DUP5 DUP3 DUP6 ADD PUSH2 0x1873 JUMP JUMPDEST SWAP2 POP POP SWAP3 SWAP2 POP POP JUMP JUMPDEST PUSH1 0x0 PUSH1 0x20 DUP3 DUP5 SUB SLT ISZERO PUSH2 0x19E8 JUMPI PUSH2 0x19E7 PUSH2 0x26E3 JUMP JUMPDEST JUMPDEST PUSH1 0x0 PUSH2 0x19F6 DUP5 DUP3 DUP6 ADD PUSH2 0x18D2 JUMP JUMPDEST SWAP2 POP POP SWAP3 SWAP2 POP POP JUMP JUMPDEST PUSH1 0x0 DUP1 PUSH1 0x40 DUP4 DUP6 SUB SLT ISZERO PUSH2 0x1A16 JUMPI PUSH2 0x1A15 PUSH2 0x26E3 JUMP JUMPDEST JUMPDEST PUSH1 0x0 PUSH2 0x1A24 DUP6 DUP3 DUP7 ADD PUSH2 0x18E7 JUMP JUMPDEST SWAP3 POP POP PUSH1 0x20 DUP4 ADD CALLDATALOAD PUSH8 0xFFFFFFFFFFFFFFFF DUP2 GT ISZERO PUSH2 0x1A45 JUMPI PUSH2 0x1A44 PUSH2 0x26D9 JUMP JUMPDEST JUMPDEST PUSH2 0x1A51 DUP6 DUP3 DUP7 ADD PUSH2 0x189D JUMP JUMPDEST SWAP2 POP POP SWAP3 POP SWAP3 SWAP1 POP JUMP JUMPDEST PUSH1 0x0 PUSH1 0x20 DUP3 DUP5 SUB SLT ISZERO PUSH2 0x1A71 JUMPI PUSH2 0x1A70 PUSH2 0x26E3 JUMP JUMPDEST JUMPDEST PUSH1 0x0 PUSH2 0x1A7F DUP5 DUP3 DUP6 ADD PUSH2 0x18FC JUMP JUMPDEST SWAP2 POP POP SWAP3 SWAP2 POP POP JUMP JUMPDEST PUSH1 0x0 PUSH2 0x1A94 DUP4 DUP4 PUSH2 0x1DC4 JUMP JUMPDEST SWAP1 POP SWAP3 SWAP2 POP POP JUMP JUMPDEST PUSH1 0x0 PUSH2 0x1AA8 DUP4 DUP4 PUSH2 0x1E7F JUMP JUMPDEST PUSH1 0x40 DUP4 ADD SWAP1 POP SWAP3 SWAP2 POP POP JUMP JUMPDEST PUSH2 0x1ABD DUP2 PUSH2 0x2541 JUMP JUMPDEST DUP3 MSTORE POP POP JUMP JUMPDEST PUSH2 0x1ACC DUP2 PUSH2 0x252F JUMP JUMPDEST DUP3 MSTORE POP POP JUMP JUMPDEST PUSH2 0x1ADB DUP2 PUSH2 0x252F JUMP JUMPDEST DUP3 MSTORE POP POP JUMP JUMPDEST PUSH1 0x0 PUSH2 0x1AED DUP4 DUP6 PUSH2 0x235C JUMP JUMPDEST SWAP4 POP DUP4 PUSH1 0x20 DUP5 MUL DUP6 ADD PUSH2 0x1AFF DUP5 PUSH2 0x232E JUMP JUMPDEST DUP1 PUSH1 0x0 JUMPDEST DUP8 DUP2 LT ISZERO PUSH2 0x1B43 JUMPI DUP5 DUP5 SUB DUP10 MSTORE PUSH2 0x1B1A DUP3 DUP5 PUSH2 0x249A JUMP JUMPDEST PUSH2 0x1B24 DUP6 DUP3 PUSH2 0x1A88 JUMP JUMPDEST SWAP5 POP PUSH2 0x1B2F DUP4 PUSH2 0x2342 JUMP JUMPDEST SWAP3 POP PUSH1 0x20 DUP11 ADD SWAP10 POP POP PUSH1 0x1 DUP2 ADD SWAP1 POP PUSH2 0x1B03 JUMP JUMPDEST POP DUP3 SWAP8 POP DUP8 SWAP5 POP POP POP POP POP SWAP4 SWAP3 POP POP POP JUMP JUMPDEST PUSH1 0x0 PUSH2 0x1B61 DUP4 DUP6 PUSH2 0x236D JUMP JUMPDEST SWAP4 POP PUSH2 0x1B6C DUP3 PUSH2 0x2338 JUMP JUMPDEST DUP1 PUSH1 0x0 JUMPDEST DUP6 DUP2 LT ISZERO PUSH2 0x1BA5 JUMPI PUSH2 0x1B82 DUP3 DUP5 PUSH2 0x24C2 JUMP JUMPDEST PUSH2 0x1B8C DUP9 DUP3 PUSH2 0x1A9C JUMP JUMPDEST SWAP8 POP PUSH2 0x1B97 DUP4 PUSH2 0x234F JUMP JUMPDEST SWAP3 POP POP PUSH1 0x1 DUP2 ADD SWAP1 POP PUSH2 0x1B70 JUMP JUMPDEST POP DUP6 SWAP3 POP POP POP SWAP4 SWAP3 POP POP POP JUMP JUMPDEST PUSH2 0x1BBB DUP2 PUSH2 0x2553 JUMP JUMPDEST DUP3 MSTORE POP POP JUMP JUMPDEST PUSH2 0x1BCA DUP2 PUSH2 0x2553 JUMP JUMPDEST DUP3 MSTORE POP POP JUMP JUMPDEST PUSH2 0x1BD9 DUP2 PUSH2 0x255F JUMP JUMPDEST DUP3 MSTORE POP POP JUMP JUMPDEST PUSH2 0x1BE8 DUP2 PUSH2 0x255F JUMP JUMPDEST DUP3 MSTORE POP POP JUMP JUMPDEST PUSH2 0x1BF7 DUP2 PUSH2 0x25D0 JUMP JUMPDEST DUP3 MSTORE POP POP JUMP JUMPDEST PUSH1 0x0 PUSH2 0x1C0A PUSH1 0x14 DUP4 PUSH2 0x237E JUMP JUMPDEST SWAP2 POP PUSH2 0x1C15 DUP3 PUSH2 0x26E8 JUMP JUMPDEST PUSH1 0x20 DUP3 ADD SWAP1 POP SWAP2 SWAP1 POP JUMP JUMPDEST PUSH1 0x0 PUSH2 0x1C2D PUSH1 0x12 DUP4 PUSH2 0x237E JUMP JUMPDEST SWAP2 POP PUSH2 0x1C38 DUP3 PUSH2 0x2711 JUMP JUMPDEST PUSH1 0x20 DUP3 ADD SWAP1 POP SWAP2 SWAP1 POP JUMP JUMPDEST PUSH1 0x0 PUSH2 0x1C50 PUSH1 0x17 DUP4 PUSH2 0x237E JUMP JUMPDEST SWAP2 POP PUSH2 0x1C5B DUP3 PUSH2 0x273A JUMP JUMPDEST PUSH1 0x20 DUP3 ADD SWAP1 POP SWAP2 SWAP1 POP JUMP JUMPDEST PUSH1 0x0 PUSH2 0x1C73 PUSH1 0x11 DUP4 PUSH2 0x237E JUMP JUMPDEST SWAP2 POP PUSH2 0x1C7E DUP3 PUSH2 0x2763 JUMP JUMPDEST PUSH1 0x20 DUP3 ADD SWAP1 POP SWAP2 SWAP1 POP JUMP JUMPDEST PUSH1 0x0 PUSH2 0x1C96 PUSH1 0x17 DUP4 PUSH2 0x237E JUMP JUMPDEST SWAP2 POP PUSH2 0x1CA1 DUP3 PUSH2 0x278C JUMP JUMPDEST PUSH1 0x20 DUP3 ADD SWAP1 POP SWAP2 SWAP1 POP JUMP JUMPDEST PUSH1 0x0 PUSH2 0x1CB9 PUSH1 0x10 DUP4 PUSH2 0x237E JUMP JUMPDEST SWAP2 POP PUSH2 0x1CC4 DUP3 PUSH2 0x27B5 JUMP JUMPDEST PUSH1 0x20 DUP3 ADD SWAP1 POP SWAP2 SWAP1 POP JUMP JUMPDEST PUSH1 0x0 PUSH2 0x1CDC PUSH1 0x12 DUP4 PUSH2 0x237E JUMP JUMPDEST SWAP2 POP PUSH2 0x1CE7 DUP3 PUSH2 0x27DE JUMP JUMPDEST PUSH1 0x20 DUP3 ADD SWAP1 POP SWAP2 SWAP1 POP JUMP JUMPDEST PUSH1 0x0 PUSH2 0x1CFF PUSH1 0x2E DUP4 PUSH2 0x237E JUMP JUMPDEST SWAP2 POP PUSH2 0x1D0A DUP3 PUSH2 0x2807 JUMP JUMPDEST PUSH1 0x40 DUP3 ADD SWAP1 POP SWAP2 SWAP1 POP JUMP JUMPDEST PUSH1 0x0 PUSH2 0x1D22 PUSH1 0xA DUP4 PUSH2 0x237E JUMP JUMPDEST SWAP2 POP PUSH2 0x1D2D DUP3 PUSH2 0x2856 JUMP JUMPDEST PUSH1 0x20 DUP3 ADD SWAP1 POP SWAP2 SWAP1 POP JUMP JUMPDEST PUSH1 0x0 PUSH2 0x1D45 PUSH1 0xF DUP4 PUSH2 0x237E JUMP JUMPDEST SWAP2 POP PUSH2 0x1D50 DUP3 PUSH2 0x287F JUMP JUMPDEST PUSH1 0x20 DUP3 ADD SWAP1 POP SWAP2 SWAP1 POP JUMP JUMPDEST PUSH1 0x0 PUSH2 0x1D68 PUSH1 0x10 DUP4 PUSH2 0x237E JUMP JUMPDEST SWAP2 POP PUSH2 0x1D73 DUP3 PUSH2 0x28A8 JUMP JUMPDEST PUSH1 0x20 DUP3 ADD SWAP1 POP SWAP2 SWAP1 POP JUMP JUMPDEST PUSH1 0x0 PUSH2 0x1D8B PUSH1 0x14 DUP4 PUSH2 0x237E JUMP JUMPDEST SWAP2 POP PUSH2 0x1D96 DUP3 PUSH2 0x28D1 JUMP JUMPDEST PUSH1 0x20 DUP3 ADD SWAP1 POP SWAP2 SWAP1 POP JUMP JUMPDEST PUSH1 0x0 PUSH2 0x1DAE PUSH1 0x14 DUP4 PUSH2 0x237E JUMP JUMPDEST SWAP2 POP PUSH2 0x1DB9 DUP3 PUSH2 0x28FA JUMP JUMPDEST PUSH1 0x20 DUP3 ADD SWAP1 POP SWAP2 SWAP1 POP JUMP JUMPDEST PUSH1 0x0 PUSH1 0xC0 DUP4 ADD PUSH2 0x1DD7 PUSH1 0x0 DUP5 ADD DUP5 PUSH2 0x238F JUMP JUMPDEST PUSH2 0x1DE4 PUSH1 0x0 DUP7 ADD DUP3 PUSH2 0x1AC3 JUMP JUMPDEST POP PUSH2 0x1DF2 PUSH1 0x20 DUP5 ADD DUP5 PUSH2 0x24CD JUMP JUMPDEST PUSH2 0x1DFF PUSH1 0x20 DUP7 ADD DUP3 PUSH2 0x1FB0 JUMP JUMPDEST POP PUSH2 0x1E0D PUSH1 0x40 DUP5 ADD DUP5 PUSH2 0x246C JUMP JUMPDEST PUSH2 0x1E1A PUSH1 0x40 DUP7 ADD DUP3 PUSH2 0x1BB2 JUMP JUMPDEST POP PUSH2 0x1E28 PUSH1 0x60 DUP5 ADD DUP5 PUSH2 0x24E4 JUMP JUMPDEST PUSH2 0x1E35 PUSH1 0x60 DUP7 ADD DUP3 PUSH2 0x1FBF JUMP JUMPDEST POP PUSH2 0x1E43 PUSH1 0x80 DUP5 ADD DUP5 PUSH2 0x24E4 JUMP JUMPDEST PUSH2 0x1E50 PUSH1 0x80 DUP7 ADD DUP3 PUSH2 0x1FBF JUMP JUMPDEST POP PUSH2 0x1E5E PUSH1 0xA0 DUP5 ADD DUP5 PUSH2 0x2409 JUMP JUMPDEST DUP6 DUP4 SUB PUSH1 0xA0 DUP8 ADD MSTORE PUSH2 0x1E71 DUP4 DUP3 DUP5 PUSH2 0x1B55 JUMP JUMPDEST SWAP3 POP POP POP DUP1 SWAP2 POP POP SWAP3 SWAP2 POP POP JUMP JUMPDEST PUSH1 0x40 DUP3 ADD PUSH2 0x1E90 PUSH1 0x0 DUP4 ADD DUP4 PUSH2 0x238F JUMP JUMPDEST PUSH2 0x1E9D PUSH1 0x0 DUP6 ADD DUP3 PUSH2 0x1AC3 JUMP JUMPDEST POP PUSH2 0x1EAB PUSH1 0x20 DUP4 ADD DUP4 PUSH2 0x24E4 JUMP JUMPDEST PUSH2 0x1EB8 PUSH1 0x20 DUP6 ADD DUP3 PUSH2 0x1FBF JUMP JUMPDEST POP POP POP POP JUMP JUMPDEST PUSH1 0x0 PUSH2 0x100 DUP4 ADD PUSH2 0x1ED2 PUSH1 0x0 DUP5 ADD DUP5 PUSH2 0x24E4 JUMP JUMPDEST PUSH2 0x1EDF PUSH1 0x0 DUP7 ADD DUP3 PUSH2 0x1FBF JUMP JUMPDEST POP PUSH2 0x1EED PUSH1 0x20 DUP5 ADD DUP5 PUSH2 0x24CD JUMP JUMPDEST PUSH2 0x1EFA PUSH1 0x20 DUP7 ADD DUP3 PUSH2 0x1FB0 JUMP JUMPDEST POP PUSH2 0x1F08 PUSH1 0x40 DUP5 ADD DUP5 PUSH2 0x24CD JUMP JUMPDEST PUSH2 0x1F15 PUSH1 0x40 DUP7 ADD DUP3 PUSH2 0x1FB0 JUMP JUMPDEST POP PUSH2 0x1F23 PUSH1 0x60 DUP5 ADD DUP5 PUSH2 0x24CD JUMP JUMPDEST PUSH2 0x1F30 PUSH1 0x60 DUP7 ADD DUP3 PUSH2 0x1FB0 JUMP JUMPDEST POP PUSH2 0x1F3E PUSH1 0x80 DUP5 ADD DUP5 PUSH2 0x2483 JUMP JUMPDEST PUSH2 0x1F4B PUSH1 0x80 DUP7 ADD DUP3 PUSH2 0x1BD0 JUMP JUMPDEST POP PUSH2 0x1F59 PUSH1 0xA0 DUP5 ADD DUP5 PUSH2 0x24CD JUMP JUMPDEST PUSH2 0x1F66 PUSH1 0xA0 DUP7 ADD DUP3 PUSH2 0x1FB0 JUMP JUMPDEST POP PUSH2 0x1F74 PUSH1 0xC0 DUP5 ADD DUP5 PUSH2 0x24CD JUMP JUMPDEST PUSH2 0x1F81 PUSH1 0xC0 DUP7 ADD DUP3 PUSH2 0x1FB0 JUMP JUMPDEST POP PUSH2 0x1F8F PUSH1 0xE0 DUP5 ADD DUP5 PUSH2 0x23A6 JUMP JUMPDEST DUP6 DUP4 SUB PUSH1 0xE0 DUP8 ADD MSTORE PUSH2 0x1FA2 DUP4 DUP3 DUP5 PUSH2 0x1AE1 JUMP JUMPDEST SWAP3 POP POP POP DUP1 SWAP2 POP POP SWAP3 SWAP2 POP POP JUMP JUMPDEST PUSH2 0x1FB9 DUP2 PUSH2 0x2569 JUMP JUMPDEST DUP3 MSTORE POP POP JUMP JUMPDEST PUSH2 0x1FC8 DUP2 PUSH2 0x25A5 JUMP JUMPDEST DUP3 MSTORE POP POP JUMP JUMPDEST PUSH2 0x1FD7 DUP2 PUSH2 0x25A5 JUMP JUMPDEST DUP3 MSTORE POP POP JUMP JUMPDEST PUSH2 0x1FE6 DUP2 PUSH2 0x25AF JUMP JUMPDEST DUP3 MSTORE POP POP JUMP JUMPDEST PUSH2 0x1FF5 DUP2 PUSH2 0x25E2 JUMP JUMPDEST DUP3 MSTORE POP POP JUMP JUMPDEST PUSH2 0x2004 DUP2 PUSH2 0x25C3 JUMP JUMPDEST DUP3 MSTORE POP POP JUMP JUMPDEST PUSH1 0x0 PUSH1 0x20 DUP3 ADD SWAP1 POP PUSH2 0x201F PUSH1 0x0 DUP4 ADD DUP5 PUSH2 0x1AD2 JUMP JUMPDEST SWAP3 SWAP2 POP POP JUMP JUMPDEST PUSH1 0x0 PUSH1 0x20 DUP3 ADD SWAP1 POP PUSH2 0x203A PUSH1 0x0 DUP4 ADD DUP5 PUSH2 0x1AB4 JUMP JUMPDEST SWAP3 SWAP2 POP POP JUMP JUMPDEST PUSH1 0x0 PUSH1 0x20 DUP3 ADD SWAP1 POP PUSH2 0x2055 PUSH1 0x0 DUP4 ADD DUP5 PUSH2 0x1BC1 JUMP JUMPDEST SWAP3 SWAP2 POP POP JUMP JUMPDEST PUSH1 0x0 PUSH1 0x40 DUP3 ADD SWAP1 POP PUSH2 0x2070 PUSH1 0x0 DUP4 ADD DUP6 PUSH2 0x1BDF JUMP JUMPDEST PUSH2 0x207D PUSH1 0x20 DUP4 ADD DUP5 PUSH2 0x1AD2 JUMP JUMPDEST SWAP4 SWAP3 POP POP POP JUMP JUMPDEST PUSH1 0x0 PUSH1 0x20 DUP3 ADD SWAP1 POP PUSH2 0x2099 PUSH1 0x0 DUP4 ADD DUP5 PUSH2 0x1BEE JUMP JUMPDEST SWAP3 SWAP2 POP POP JUMP JUMPDEST PUSH1 0x0 PUSH1 0x20 DUP3 ADD SWAP1 POP DUP2 DUP2 SUB PUSH1 0x0 DUP4 ADD MSTORE PUSH2 0x20B8 DUP2 PUSH2 0x1BFD JUMP JUMPDEST SWAP1 POP SWAP2 SWAP1 POP JUMP JUMPDEST PUSH1 0x0 PUSH1 0x20 DUP3 ADD SWAP1 POP DUP2 DUP2 SUB PUSH1 0x0 DUP4 ADD MSTORE PUSH2 0x20D8 DUP2 PUSH2 0x1C20 JUMP JUMPDEST SWAP1 POP SWAP2 SWAP1 POP JUMP JUMPDEST PUSH1 0x0 PUSH1 0x20 DUP3 ADD SWAP1 POP DUP2 DUP2 SUB PUSH1 0x0 DUP4 ADD MSTORE PUSH2 0x20F8 DUP2 PUSH2 0x1C43 JUMP JUMPDEST SWAP1 POP SWAP2 SWAP1 POP JUMP JUMPDEST PUSH1 0x0 PUSH1 0x20 DUP3 ADD SWAP1 POP DUP2 DUP2 SUB PUSH1 0x0 DUP4 ADD MSTORE PUSH2 0x2118 DUP2 PUSH2 0x1C66 JUMP JUMPDEST SWAP1 POP SWAP2 SWAP1 POP JUMP JUMPDEST PUSH1 0x0 PUSH1 0x20 DUP3 ADD SWAP1 POP DUP2 DUP2 SUB PUSH1 0x0 DUP4 ADD MSTORE PUSH2 0x2138 DUP2 PUSH2 0x1C89 JUMP JUMPDEST SWAP1 POP SWAP2 SWAP1 POP JUMP JUMPDEST PUSH1 0x0 PUSH1 0x20 DUP3 ADD SWAP1 POP DUP2 DUP2 SUB PUSH1 0x0 DUP4 ADD MSTORE PUSH2 0x2158 DUP2 PUSH2 0x1CAC JUMP JUMPDEST SWAP1 POP SWAP2 SWAP1 POP JUMP JUMPDEST PUSH1 0x0 PUSH1 0x20 DUP3 ADD SWAP1 POP DUP2 DUP2 SUB PUSH1 0x0 DUP4 ADD MSTORE PUSH2 0x2178 DUP2 PUSH2 0x1CCF JUMP JUMPDEST SWAP1 POP SWAP2 SWAP1 POP JUMP JUMPDEST PUSH1 0x0 PUSH1 0x20 DUP3 ADD SWAP1 POP DUP2 DUP2 SUB PUSH1 0x0 DUP4 ADD MSTORE PUSH2 0x2198 DUP2 PUSH2 0x1CF2 JUMP JUMPDEST SWAP1 POP SWAP2 SWAP1 POP JUMP JUMPDEST PUSH1 0x0 PUSH1 0x20 DUP3 ADD SWAP1 POP DUP2 DUP2 SUB PUSH1 0x0 DUP4 ADD MSTORE PUSH2 0x21B8 DUP2 PUSH2 0x1D15 JUMP JUMPDEST SWAP1 POP SWAP2 SWAP1 POP JUMP JUMPDEST PUSH1 0x0 PUSH1 0x20 DUP3 ADD SWAP1 POP DUP2 DUP2 SUB PUSH1 0x0 DUP4 ADD MSTORE PUSH2 0x21D8 DUP2 PUSH2 0x1D38 JUMP JUMPDEST SWAP1 POP SWAP2 SWAP1 POP JUMP JUMPDEST PUSH1 0x0 PUSH1 0x20 DUP3 ADD SWAP1 POP DUP2 DUP2 SUB PUSH1 0x0 DUP4 ADD MSTORE PUSH2 0x21F8 DUP2 PUSH2 0x1D5B JUMP JUMPDEST SWAP1 POP SWAP2 SWAP1 POP JUMP JUMPDEST PUSH1 0x0 PUSH1 0x20 DUP3 ADD SWAP1 POP DUP2 DUP2 SUB PUSH1 0x0 DUP4 ADD MSTORE PUSH2 0x2218 DUP2 PUSH2 0x1D7E JUMP JUMPDEST SWAP1 POP SWAP2 SWAP1 POP JUMP JUMPDEST PUSH1 0x0 PUSH1 0x20 DUP3 ADD SWAP1 POP DUP2 DUP2 SUB PUSH1 0x0 DUP4 ADD MSTORE PUSH2 0x2238 DUP2 PUSH2 0x1DA1 JUMP JUMPDEST SWAP1 POP SWAP2 SWAP1 POP JUMP JUMPDEST PUSH1 0x0 PUSH1 0x20 DUP3 ADD SWAP1 POP PUSH2 0x2254 PUSH1 0x0 DUP4 ADD DUP5 PUSH2 0x1FCE JUMP JUMPDEST SWAP3 SWAP2 POP POP JUMP JUMPDEST PUSH1 0x0 PUSH1 0x80 DUP3 ADD SWAP1 POP PUSH2 0x226F PUSH1 0x0 DUP4 ADD DUP8 PUSH2 0x1FCE JUMP JUMPDEST PUSH2 0x227C PUSH1 0x20 DUP4 ADD DUP7 PUSH2 0x1FEC JUMP JUMPDEST PUSH2 0x2289 PUSH1 0x40 DUP4 ADD DUP6 PUSH2 0x1FDD JUMP JUMPDEST DUP2 DUP2 SUB PUSH1 0x60 DUP4 ADD MSTORE PUSH2 0x229B DUP2 DUP5 PUSH2 0x1EBE JUMP JUMPDEST SWAP1 POP SWAP6 SWAP5 POP POP POP POP POP JUMP JUMPDEST PUSH1 0x0 PUSH1 0x20 DUP3 ADD SWAP1 POP PUSH2 0x22BB PUSH1 0x0 DUP4 ADD DUP5 PUSH2 0x1FDD JUMP JUMPDEST SWAP3 SWAP2 POP POP JUMP JUMPDEST PUSH1 0x0 PUSH1 0x40 DUP3 ADD SWAP1 POP PUSH2 0x22D6 PUSH1 0x0 DUP4 ADD DUP6 PUSH2 0x1FDD JUMP JUMPDEST PUSH2 0x22E3 PUSH1 0x20 DUP4 ADD DUP5 PUSH2 0x1BC1 JUMP JUMPDEST SWAP4 SWAP3 POP POP POP JUMP JUMPDEST PUSH1 0x0 PUSH1 0x20 DUP3 ADD SWAP1 POP PUSH2 0x22FF PUSH1 0x0 DUP4 ADD DUP5 PUSH2 0x1FFB JUMP JUMPDEST SWAP3 SWAP2 POP POP JUMP JUMPDEST PUSH1 0x0 PUSH1 0x40 DUP3 ADD SWAP1 POP PUSH2 0x231A PUSH1 0x0 DUP4 ADD DUP6 PUSH2 0x1FFB JUMP JUMPDEST PUSH2 0x2327 PUSH1 0x20 DUP4 ADD DUP5 PUSH2 0x1FDD JUMP JUMPDEST SWAP4 SWAP3 POP POP POP JUMP JUMPDEST PUSH1 0x0 DUP2 SWAP1 POP SWAP2 SWAP1 POP JUMP JUMPDEST PUSH1 0x0 DUP2 SWAP1 POP SWAP2 SWAP1 POP JUMP JUMPDEST PUSH1 0x0 PUSH1 0x20 DUP3 ADD SWAP1 POP SWAP2 SWAP1 POP JUMP JUMPDEST PUSH1 0x0 PUSH1 0x40 DUP3 ADD SWAP1 POP SWAP2 SWAP1 POP JUMP JUMPDEST PUSH1 0x0 DUP3 DUP3 MSTORE PUSH1 0x20 DUP3 ADD SWAP1 POP SWAP3 SWAP2 POP POP JUMP JUMPDEST PUSH1 0x0 DUP3 DUP3 MSTORE PUSH1 0x20 DUP3 ADD SWAP1 POP SWAP3 SWAP2 POP POP JUMP JUMPDEST PUSH1 0x0 DUP3 DUP3 MSTORE PUSH1 0x20 DUP3 ADD SWAP1 POP SWAP3 SWAP2 POP POP JUMP JUMPDEST PUSH1 0x0 PUSH2 0x239E PUSH1 0x20 DUP5 ADD DUP5 PUSH2 0x1834 JUMP JUMPDEST SWAP1 POP SWAP3 SWAP2 POP POP JUMP JUMPDEST PUSH1 0x0 DUP1 DUP4 CALLDATALOAD PUSH1 0x1 PUSH1 0x20 SUB DUP5 CALLDATASIZE SUB SUB DUP2 SLT PUSH2 0x23C3 JUMPI PUSH2 0x23C2 PUSH2 0x26DE JUMP JUMPDEST JUMPDEST DUP4 DUP2 ADD SWAP3 POP DUP3 CALLDATALOAD SWAP2 POP PUSH1 0x20 DUP4 ADD SWAP3 POP PUSH8 0xFFFFFFFFFFFFFFFF DUP3 GT ISZERO PUSH2 0x23EB JUMPI PUSH2 0x23EA PUSH2 0x26CA JUMP JUMPDEST JUMPDEST PUSH1 0x20 DUP3 MUL CALLDATASIZE SUB DUP5 SGT ISZERO PUSH2 0x2401 JUMPI PUSH2 0x2400 PUSH2 0x26D4 JUMP JUMPDEST JUMPDEST POP SWAP3 POP SWAP3 SWAP1 POP JUMP JUMPDEST PUSH1 0x0 DUP1 DUP4 CALLDATALOAD PUSH1 0x1 PUSH1 0x20 SUB DUP5 CALLDATASIZE SUB SUB DUP2 SLT PUSH2 0x2426 JUMPI PUSH2 0x2425 PUSH2 0x26DE JUMP JUMPDEST JUMPDEST DUP4 DUP2 ADD SWAP3 POP DUP3 CALLDATALOAD SWAP2 POP PUSH1 0x20 DUP4 ADD SWAP3 POP PUSH8 0xFFFFFFFFFFFFFFFF DUP3 GT ISZERO PUSH2 0x244E JUMPI PUSH2 0x244D PUSH2 0x26CA JUMP JUMPDEST JUMPDEST PUSH1 0x40 DUP3 MUL CALLDATASIZE SUB DUP5 SGT ISZERO PUSH2 0x2464 JUMPI PUSH2 0x2463 PUSH2 0x26D4 JUMP JUMPDEST JUMPDEST POP SWAP3 POP SWAP3 SWAP1 POP JUMP JUMPDEST PUSH1 0x0 PUSH2 0x247B PUSH1 0x20 DUP5 ADD DUP5 PUSH2 0x185E JUMP JUMPDEST SWAP1 POP SWAP3 SWAP2 POP POP JUMP JUMPDEST PUSH1 0x0 PUSH2 0x2492 PUSH1 0x20 DUP5 ADD DUP5 PUSH2 0x1888 JUMP JUMPDEST SWAP1 POP SWAP3 SWAP2 POP POP JUMP JUMPDEST PUSH1 0x0 DUP3 CALLDATALOAD PUSH1 0x1 PUSH1 0xC0 SUB DUP4 CALLDATASIZE SUB SUB DUP2 SLT PUSH2 0x24B6 JUMPI PUSH2 0x24B5 PUSH2 0x26DE JUMP JUMPDEST JUMPDEST DUP3 DUP2 ADD SWAP2 POP POP SWAP3 SWAP2 POP POP JUMP JUMPDEST PUSH1 0x0 DUP3 SWAP1 POP SWAP3 SWAP2 POP POP JUMP JUMPDEST PUSH1 0x0 PUSH2 0x24DC PUSH1 0x20 DUP5 ADD DUP5 PUSH2 0x18BD JUMP JUMPDEST SWAP1 POP SWAP3 SWAP2 POP POP JUMP JUMPDEST PUSH1 0x0 PUSH2 0x24F3 PUSH1 0x20 DUP5 ADD DUP5 PUSH2 0x18D2 JUMP JUMPDEST SWAP1 POP SWAP3 SWAP2 POP POP JUMP JUMPDEST PUSH1 0x0 PUSH2 0x2506 DUP3 PUSH2 0x25A5 JUMP JUMPDEST SWAP2 POP PUSH2 0x2511 DUP4 PUSH2 0x25A5 JUMP JUMPDEST SWAP3 POP DUP3 DUP3 LT ISZERO PUSH2 0x2524 JUMPI PUSH2 0x2523 PUSH2 0x263D JUMP JUMPDEST JUMPDEST DUP3 DUP3 SUB SWAP1 POP SWAP3 SWAP2 POP POP JUMP JUMPDEST PUSH1 0x0 PUSH2 0x253A DUP3 PUSH2 0x2585 JUMP JUMPDEST SWAP1 POP SWAP2 SWAP1 POP JUMP JUMPDEST PUSH1 0x0 PUSH2 0x254C DUP3 PUSH2 0x2585 JUMP JUMPDEST SWAP1 POP SWAP2 SWAP1 POP JUMP JUMPDEST PUSH1 0x0 DUP2 ISZERO ISZERO SWAP1 POP SWAP2 SWAP1 POP JUMP JUMPDEST PUSH1 0x0 DUP2 SWAP1 POP SWAP2 SWAP1 POP JUMP JUMPDEST PUSH1 0x0 PUSH16 0xFFFFFFFFFFFFFFFFFFFFFFFFFFFFFFFF DUP3 AND SWAP1 POP SWAP2 SWAP1 POP JUMP JUMPDEST PUSH1 0x0 PUSH20 0xFFFFFFFFFFFFFFFFFFFFFFFFFFFFFFFFFFFFFFFF DUP3 AND SWAP1 POP SWAP2 SWAP1 POP JUMP JUMPDEST PUSH1 0x0 DUP2 SWAP1 POP SWAP2 SWAP1 POP JUMP JUMPDEST PUSH1 0x0 PUSH8 0xFFFFFFFFFFFFFFFF DUP3 AND SWAP1 POP SWAP2 SWAP1 POP JUMP JUMPDEST PUSH1 0x0 PUSH1 0xFF DUP3 AND SWAP1 POP SWAP2 SWAP1 POP JUMP JUMPDEST PUSH1 0x0 PUSH2 0x25DB DUP3 PUSH2 0x25C3 JUMP JUMPDEST SWAP1 POP SWAP2 SWAP1 POP JUMP JUMPDEST PUSH1 0x0 PUSH2 0x25ED DUP3 PUSH2 0x25C3 JUMP JUMPDEST SWAP1 POP SWAP2 SWAP1 POP JUMP JUMPDEST PUSH1 0x0 PUSH2 0x25FF DUP3 PUSH2 0x25A5 JUMP JUMPDEST SWAP2 POP PUSH32 0xFFFFFFFFFFFFFFFFFFFFFFFFFFFFFFFFFFFFFFFFFFFFFFFFFFFFFFFFFFFFFFFF DUP3 EQ ISZERO PUSH2 0x2632 JUMPI PUSH2 0x2631 PUSH2 0x263D JUMP JUMPDEST JUMPDEST PUSH1 0x1 DUP3 ADD SWAP1 POP SWAP2 SWAP1 POP JUMP JUMPDEST PUSH32 0x4E487B7100000000000000000000000000000000000000000000000000000000 PUSH1 0x0 MSTORE PUSH1 0x11 PUSH1 0x4 MSTORE PUSH1 0x24 PUSH1 0x0 REVERT JUMPDEST PUSH32 0x4E487B7100000000000000000000000000000000000000000000000000000000 PUSH1 0x0 MSTORE PUSH1 0x31 PUSH1 0x4 MSTORE PUSH1 0x24 PUSH1 0x0 REVERT JUMPDEST PUSH32 0x4E487B7100000000000000000000000000000000000000000000000000000000 PUSH1 0x0 MSTORE PUSH1 0x32 PUSH1 0x4 MSTORE PUSH1 0x24 PUSH1 0x0 REVERT JUMPDEST PUSH1 0x0 DUP1 REVERT JUMPDEST PUSH1 0x0 DUP1 REVERT JUMPDEST PUSH1 0x0 DUP1 REVERT JUMPDEST PUSH1 0x0 DUP1 REVERT JUMPDEST PUSH1 0x0 DUP1 REVERT JUMPDEST PUSH1 0x0 DUP1 REVERT JUMPDEST PUSH32 0x5061757361626C653A206E6F7420706175736564000000000000000000000000 PUSH1 0x0 DUP3 ADD MSTORE POP JUMP JUMPDEST PUSH32 0x4F4D3A204F5241434C455F4E5F464F554E440000000000000000000000000000 PUSH1 0x0 DUP3 ADD MSTORE POP JUMP JUMPDEST PUSH32 0x4F4D3A2051554F52554D5F574F4E545F42455F4D414445000000000000000000 PUSH1 0x0 DUP3 ADD MSTORE POP JUMP JUMPDEST PUSH32 0x4F4D3A204D454D4245525F455849535453000000000000000000000000000000 PUSH1 0x0 DUP3 ADD MSTORE POP JUMP JUMPDEST PUSH32 0x4F4D3A20414C52454144595F494E495449414C495A4544000000000000000000 PUSH1 0x0 DUP3 ADD MSTORE POP JUMP JUMPDEST PUSH32 0x5061757361626C653A2070617573656400000000000000000000000000000000 PUSH1 0x0 DUP3 ADD MSTORE POP JUMP JUMPDEST PUSH32 0x4F4D3A204D454D4245525F4E5F464F554E440000000000000000000000000000 PUSH1 0x0 DUP3 ADD MSTORE POP JUMP JUMPDEST PUSH32 0x496E697469616C697A61626C653A20636F6E747261637420697320616C726561 PUSH1 0x0 DUP3 ADD MSTORE PUSH32 0x647920696E697469616C697A6564000000000000000000000000000000000000 PUSH1 0x20 DUP3 ADD MSTORE POP JUMP JUMPDEST PUSH32 0x4F4D3A20554E4155544800000000000000000000000000000000000000000000 PUSH1 0x0 DUP3 ADD MSTORE POP JUMP JUMPDEST PUSH32 0x4F4D3A204552415F544F4F5F4F4C440000000000000000000000000000000000 PUSH1 0x0 DUP3 ADD MSTORE POP JUMP JUMPDEST PUSH32 0x4F4D3A204241445F415247554D454E5400000000000000000000000000000000 PUSH1 0x0 DUP3 ADD MSTORE POP JUMP JUMPDEST PUSH32 0x4F4D3A204D454D424552535F544F4F5F4D414E59000000000000000000000000 PUSH1 0x0 DUP3 ADD MSTORE POP JUMP JUMPDEST PUSH32 0x4F4D3A20494E434F52524543545F51554F52554D000000000000000000000000 PUSH1 0x0 DUP3 ADD MSTORE POP JUMP JUMPDEST PUSH2 0x292C DUP2 PUSH2 0x252F JUMP JUMPDEST DUP2 EQ PUSH2 0x2937 JUMPI PUSH1 0x0 DUP1 REVERT JUMPDEST POP JUMP JUMPDEST PUSH2 0x2943 DUP2 PUSH2 0x2541 JUMP JUMPDEST DUP2 EQ PUSH2 0x294E JUMPI PUSH1 0x0 DUP1 REVERT JUMPDEST POP JUMP JUMPDEST PUSH2 0x295A DUP2 PUSH2 0x2553 JUMP JUMPDEST DUP2 EQ PUSH2 0x2965 JUMPI PUSH1 0x0 DUP1 REVERT JUMPDEST POP JUMP JUMPDEST PUSH2 0x2971 DUP2 PUSH2 0x255F JUMP JUMPDEST DUP2 EQ PUSH2 0x297C JUMPI PUSH1 0x0 DUP1 REVERT JUMPDEST POP JUMP JUMPDEST PUSH2 0x2988 DUP2 PUSH2 0x2569 JUMP JUMPDEST DUP2 EQ PUSH2 0x2993 JUMPI PUSH1 0x0 DUP1 REVERT JUMPDEST POP JUMP JUMPDEST PUSH2 0x299F DUP2 PUSH2 0x25A5 JUMP JUMPDEST DUP2 EQ PUSH2 0x29AA JUMPI PUSH1 0x0 DUP1 REVERT JUMPDEST POP JUMP JUMPDEST PUSH2 0x29B6 DUP2 PUSH2 0x25AF JUMP JUMPDEST DUP2 EQ PUSH2 0x29C1 JUMPI PUSH1 0x0 DUP1 REVERT JUMPDEST POP JUMP JUMPDEST PUSH2 0x29CD DUP2 PUSH2 0x25C3 JUMP JUMPDEST DUP2 EQ PUSH2 0x29D8 JUMPI PUSH1 0x0 DUP1 REVERT JUMPDEST POP JUMP INVALID LOG2 PUSH5 0x6970667358 0x22 SLT KECCAK256 0xE5 GASPRICE 0x1E PUSH26 0x60FDACBBA719E41D6A75000A18E543E2C44835F5499B48DF2D17 0x4B PUSH28 0x64736F6C634300080700330000000000000000000000000000000000 "
				},
				"gasEstimates": {
					"creation": {
						"codeDepositCost": "2153800",
						"executionCost": "26561",
						"totalCost": "2180361"
					},
					"external": {
						"AUTH_MANAGER()": "2536",
						"INACTIVITY_COVER()": "2580",
						"MAX_MEMBERS()": "417",
						"ORACLE()": "2559",
						"ORACLE_CLONE()": "2537",
						"QUORUM()": "2589",
						"addOracleMember(address)": "infinite",
						"eraId()": "2588",
						"getOracle(address)": "infinite",
						"initialize(address,address,address,uint8)": "infinite",
						"isReportedLastEra(address)": "infinite",
						"members(uint256)": "4979",
						"pause()": "infinite",
						"paused()": "2590",
						"removeOracleMember(address)": "infinite",
						"reportRelay(uint64,(uint256,uint128,uint128,uint128,bytes32,uint128,uint128,(address,uint128,bool,uint256,uint256,(address,uint256)[])[]))": "infinite",
						"resume()": "infinite",
						"setQuorum(uint8)": "infinite"
					},
					"internal": {
						"_clearReporting()": "infinite",
						"_getMemberId(address)": "infinite"
					}
				},
				"methodIdentifiers": {
					"AUTH_MANAGER()": "a1e206c7",
					"INACTIVITY_COVER()": "c4f305d9",
					"MAX_MEMBERS()": "ea0e35b1",
					"ORACLE()": "38013f02",
					"ORACLE_CLONE()": "33bc7090",
					"QUORUM()": "2e80d9b6",
					"addOracleMember(address)": "b164e437",
					"eraId()": "3f109d23",
					"getOracle(address)": "10d3d22e",
					"initialize(address,address,address,uint8)": "3073cecf",
					"isReportedLastEra(address)": "8fbad6b4",
					"members(uint256)": "5daf08ca",
					"pause()": "8456cb59",
					"paused()": "5c975abb",
					"removeOracleMember(address)": "f98fae81",
					"reportRelay(uint64,(uint256,uint128,uint128,uint128,bytes32,uint128,uint128,(address,uint128,bool,uint256,uint256,(address,uint256)[])[]))": "5c510b05",
					"resume()": "046f7da2",
					"setQuorum(uint8)": "6dcab78f"
				}
			},
			"storageLayout": {
				"storage": [
					{
						"astId": 248,
						"contract": "contracts/OracleMaster.sol:OracleMaster",
						"label": "_paused",
						"offset": 0,
						"slot": "0",
						"type": "t_bool"
					},
					{
						"astId": 86,
						"contract": "contracts/OracleMaster.sol:OracleMaster",
						"label": "_initialized",
						"offset": 1,
						"slot": "0",
						"type": "t_uint8"
					},
					{
						"astId": 89,
						"contract": "contracts/OracleMaster.sol:OracleMaster",
						"label": "_initializing",
						"offset": 2,
						"slot": "0",
						"type": "t_bool"
					},
					{
						"astId": 684,
						"contract": "contracts/OracleMaster.sol:OracleMaster",
						"label": "eraId",
						"offset": 3,
						"slot": "0",
						"type": "t_uint64"
					},
					{
						"astId": 687,
						"contract": "contracts/OracleMaster.sol:OracleMaster",
						"label": "members",
						"offset": 0,
						"slot": "1",
						"type": "t_array(t_address)dyn_storage"
					},
					{
						"astId": 689,
						"contract": "contracts/OracleMaster.sol:OracleMaster",
						"label": "INACTIVITY_COVER",
						"offset": 0,
						"slot": "2",
						"type": "t_address_payable"
					},
					{
						"astId": 691,
						"contract": "contracts/OracleMaster.sol:OracleMaster",
						"label": "AUTH_MANAGER",
						"offset": 0,
						"slot": "3",
						"type": "t_address"
					},
					{
						"astId": 693,
						"contract": "contracts/OracleMaster.sol:OracleMaster",
						"label": "ORACLE",
						"offset": 0,
						"slot": "4",
						"type": "t_address"
					},
					{
						"astId": 695,
						"contract": "contracts/OracleMaster.sol:OracleMaster",
						"label": "ORACLE_CLONE",
						"offset": 0,
						"slot": "5",
						"type": "t_address"
					},
					{
						"astId": 697,
						"contract": "contracts/OracleMaster.sol:OracleMaster",
						"label": "QUORUM",
						"offset": 20,
						"slot": "5",
						"type": "t_uint8"
					}
				],
				"types": {
					"t_address": {
						"encoding": "inplace",
						"label": "address",
						"numberOfBytes": "20"
					},
					"t_address_payable": {
						"encoding": "inplace",
						"label": "address payable",
						"numberOfBytes": "20"
					},
					"t_array(t_address)dyn_storage": {
						"base": "t_address",
						"encoding": "dynamic_array",
						"label": "address[]",
						"numberOfBytes": "32"
					},
					"t_bool": {
						"encoding": "inplace",
						"label": "bool",
						"numberOfBytes": "1"
					},
					"t_uint64": {
						"encoding": "inplace",
						"label": "uint64",
						"numberOfBytes": "8"
					},
					"t_uint8": {
						"encoding": "inplace",
						"label": "uint8",
						"numberOfBytes": "1"
					}
				}
			},
			"userdoc": {
				"kind": "user",
				"methods": {
					"MAX_MEMBERS()": {
						"notice": "Maximum number of oracle committee members"
					},
					"addOracleMember(address)": {
						"notice": "Add new member to the oracle member committee list, allowed to call only by ROLE_ORACLE_MEMBERS_MANAGER"
					},
					"getOracle(address)": {
						"notice": "Return oracle contract for the given ledger"
					},
					"initialize(address,address,address,uint8)": {
						"notice": "Initialize oracle master contract, allowed to call only once"
					},
					"isReportedLastEra(address)": {
						"notice": "Return last reported era and oracle is already reported indicator"
					},
					"pause()": {
						"notice": "Stop pool routine operations (reportRelay), allowed to call only by ROLE_PAUSE_MANAGER"
					},
					"removeOracleMember(address)": {
						"notice": "Remove `_member` from the oracle member committee list, allowed to call only by ROLE_ORACLE_MEMBERS_MANAGER"
					},
					"reportRelay(uint64,(uint256,uint128,uint128,uint128,bytes32,uint128,uint128,(address,uint128,bool,uint256,uint256,(address,uint256)[])[]))": {
						"notice": "Accept oracle committee member reports from the relay side"
					},
					"resume()": {
						"notice": "Resume pool routine operations (reportRelay), allowed to call only by ROLE_PAUSE_MANAGER"
					},
					"setQuorum(uint8)": {
						"notice": "Set the number of exactly the same reports needed to finalize the era allowed to call only by ROLE_ORACLE_QUORUM_MANAGER"
					}
				},
				"version": 1
			}
		}
	}
}