{
	"contracts/Oracle.sol": {
		"Oracle": {
			"abi": [
				{
					"anonymous": false,
					"inputs": [
						{
							"indexed": false,
							"internalType": "uint128",
							"name": "eraId",
							"type": "uint128"
						},
						{
							"indexed": false,
							"internalType": "uint128",
							"name": "eraNonce",
							"type": "uint128"
						},
						{
							"indexed": false,
							"internalType": "address",
							"name": "oracle",
							"type": "address"
						}
					],
					"name": "ReportSubmitted",
					"type": "event"
				},
				{
					"anonymous": false,
					"inputs": [],
					"name": "ReportingCleared",
					"type": "event"
				},
				{
					"inputs": [],
					"name": "ORACLE_MASTER",
					"outputs": [
						{
							"internalType": "address",
							"name": "",
							"type": "address"
						}
					],
					"stateMutability": "view",
					"type": "function"
				},
				{
					"inputs": [
						{
							"internalType": "uint256",
							"name": "",
							"type": "uint256"
						}
					],
					"name": "PUSHABLES",
					"outputs": [
						{
							"internalType": "address payable",
							"name": "",
							"type": "address"
						}
					],
					"stateMutability": "view",
					"type": "function"
				},
				{
					"inputs": [
						{
							"internalType": "address payable",
							"name": "_pushable",
							"type": "address"
						},
						{
							"internalType": "bool",
							"name": "_toAdd",
							"type": "bool"
						}
					],
					"name": "addRemovePushable",
					"outputs": [],
					"stateMutability": "nonpayable",
					"type": "function"
				},
				{
					"inputs": [],
					"name": "clearReporting",
					"outputs": [],
					"stateMutability": "nonpayable",
					"type": "function"
				},
				{
					"inputs": [],
					"name": "eraNonce",
					"outputs": [
						{
							"internalType": "uint128",
							"name": "",
							"type": "uint128"
						}
					],
					"stateMutability": "view",
					"type": "function"
				},
				{
					"inputs": [
						{
							"internalType": "address",
							"name": "_oracleMaster",
							"type": "address"
						},
						{
							"internalType": "address payable",
							"name": "_pushable",
							"type": "address"
						}
					],
					"name": "initialize",
					"outputs": [],
					"stateMutability": "nonpayable",
					"type": "function"
				},
				{
					"inputs": [
						{
							"internalType": "uint256",
							"name": "_index",
							"type": "uint256"
						}
					],
					"name": "isReported",
					"outputs": [
						{
							"internalType": "uint128",
							"name": "",
							"type": "uint128"
						},
						{
							"internalType": "bool",
							"name": "",
							"type": "bool"
						}
					],
					"stateMutability": "view",
					"type": "function"
				},
				{
					"inputs": [
						{
							"internalType": "uint256",
							"name": "_index",
							"type": "uint256"
						},
						{
							"internalType": "uint256",
							"name": "_quorum",
							"type": "uint256"
						},
						{
							"internalType": "uint128",
							"name": "_eraId",
							"type": "uint128"
						},
						{
							"internalType": "uint128",
							"name": "_eraNonce",
							"type": "uint128"
						},
						{
							"components": [
								{
									"internalType": "uint256",
									"name": "totalStaked",
									"type": "uint256"
								},
								{
									"internalType": "uint128",
									"name": "totalSelected",
									"type": "uint128"
								},
								{
									"internalType": "uint128",
									"name": "orbitersCount",
									"type": "uint128"
								},
								{
									"internalType": "uint128",
									"name": "round",
									"type": "uint128"
								},
								{
									"internalType": "bytes32",
									"name": "blockHash",
									"type": "bytes32"
								},
								{
									"internalType": "uint128",
									"name": "blockNumber",
									"type": "uint128"
								},
								{
									"internalType": "uint128",
									"name": "awarded",
									"type": "uint128"
								},
								{
									"components": [
										{
											"internalType": "address",
											"name": "collatorAccount",
											"type": "address"
										},
										{
											"internalType": "uint128",
											"name": "points",
											"type": "uint128"
										},
										{
											"internalType": "bool",
											"name": "active",
											"type": "bool"
										},
										{
											"internalType": "uint256",
											"name": "bond",
											"type": "uint256"
										},
										{
											"internalType": "uint256",
											"name": "delegationsTotal",
											"type": "uint256"
										},
										{
											"components": [
												{
													"internalType": "address",
													"name": "ownerAccount",
													"type": "address"
												},
												{
													"internalType": "uint256",
													"name": "amount",
													"type": "uint256"
												}
											],
											"internalType": "struct Types.DelegationsData[]",
											"name": "topActiveDelegations",
											"type": "tuple[]"
										}
									],
									"internalType": "struct Types.CollatorData[]",
									"name": "collators",
									"type": "tuple[]"
								}
							],
							"internalType": "struct Types.OracleData",
							"name": "_staking",
							"type": "tuple"
						},
						{
							"internalType": "address",
							"name": "_oracleCollator",
							"type": "address"
						},
						{
							"internalType": "bool",
							"name": "veto",
							"type": "bool"
						},
						{
							"internalType": "bool",
							"name": "vetoDisabled",
							"type": "bool"
						}
					],
					"name": "reportPara",
					"outputs": [],
					"stateMutability": "nonpayable",
					"type": "function"
				},
				{
					"inputs": [
						{
							"internalType": "uint8",
							"name": "_quorum",
							"type": "uint8"
						},
						{
							"internalType": "uint128",
							"name": "_eraId",
							"type": "uint128"
						}
					],
					"name": "softenQuorum",
					"outputs": [],
					"stateMutability": "nonpayable",
					"type": "function"
				}
			],
			"devdoc": {
				"kind": "dev",
				"methods": {
					"initialize(address,address)": {
						"params": {
							"_oracleMaster": "oracle master address"
						}
					},
					"isReported(uint256)": {
						"params": {
							"_index": "oracle member index"
						},
						"returns": {
							"_0": "is reported indicator"
						}
					},
					"reportPara(uint256,uint256,uint128,uint128,(uint256,uint128,uint128,uint128,bytes32,uint128,uint128,(address,uint128,bool,uint256,uint256,(address,uint256)[])[]),address,bool,bool)": {
						"details": "A report is considered and final and is pushed to the cover contract when A) Q number of oracles have reported exactly the same report, where Q = quorum B) the veto account has submitted a report and it agrees with the quorum report (immediately or when quorum is reached), OR the veto account is disabled",
						"params": {
							"_eraId": "current era id",
							"_index": "oracle member index",
							"_quorum": "the minimum number of voted oracle members to accept a variant",
							"_staking": "report data"
						}
					},
					"softenQuorum(uint8,uint128)": {
						"details": "Method can trigger to pushing data to ledger if quorum threshold decreased and now for contract already reached new threshold.",
						"params": {
							"_eraId": "current era id",
							"_quorum": "new quorum threshold"
						}
					}
				},
				"version": 1
			},
			"evm": {
				"assembly": "    /* \"contracts/Oracle.sol\":279:8694  contract Oracle {\r... */\n  mstore(0x40, 0x80)\n  callvalue\n  dup1\n  iszero\n  tag_1\n  jumpi\n  0x00\n  dup1\n  revert\ntag_1:\n  pop\n  dataSize(sub_0)\n  dup1\n  dataOffset(sub_0)\n  0x00\n  codecopy\n  0x00\n  return\nstop\n\nsub_0: assembly {\n        /* \"contracts/Oracle.sol\":279:8694  contract Oracle {\r... */\n      mstore(0x40, 0x80)\n      callvalue\n      dup1\n      iszero\n      tag_1\n      jumpi\n      0x00\n      dup1\n      revert\n    tag_1:\n      pop\n      jumpi(tag_2, lt(calldatasize, 0x04))\n      shr(0xe0, calldataload(0x00))\n      dup1\n      0x485cc955\n      gt\n      tag_12\n      jumpi\n      dup1\n      0xb75b518c\n      gt\n      tag_13\n      jumpi\n      dup1\n      0xb75b518c\n      eq\n      tag_9\n      jumpi\n      dup1\n      0xf461e54f\n      eq\n      tag_10\n      jumpi\n      dup1\n      0xf53d2ead\n      eq\n      tag_11\n      jumpi\n      jump(tag_2)\n    tag_13:\n      dup1\n      0x485cc955\n      eq\n      tag_7\n      jumpi\n      dup1\n      0x89b80361\n      eq\n      tag_8\n      jumpi\n      jump(tag_2)\n    tag_12:\n      dup1\n      0x30206bcc\n      eq\n      tag_3\n      jumpi\n      dup1\n      0x3fd2c16a\n      eq\n      tag_4\n      jumpi\n      dup1\n      0x402e4749\n      eq\n      tag_5\n      jumpi\n      dup1\n      0x46b705a4\n      eq\n      tag_6\n      jumpi\n    tag_2:\n      0x00\n      dup1\n      revert\n        /* \"contracts/Oracle.sol\":5192:5598  function addRemovePushable(\r... */\n    tag_3:\n      tag_14\n      tag_15\n      calldatasize\n      0x04\n      tag_16\n      jump\t// in\n    tag_15:\n      tag_17\n      jump\t// in\n    tag_14:\n      stop\n        /* \"contracts/Oracle.sol\":835:863  address public ORACLE_MASTER */\n    tag_4:\n      sload(0x04)\n      tag_18\n      swap1\n      0xffffffffffffffffffffffffffffffffffffffff\n      and\n      dup2\n      jump\n    tag_18:\n      mload(0x40)\n        /* \"#utility.yul\":10681:10723   */\n      0xffffffffffffffffffffffffffffffffffffffff\n        /* \"#utility.yul\":10669:10724   */\n      swap1\n      swap2\n      and\n        /* \"#utility.yul\":10651:10725   */\n      dup2\n      mstore\n        /* \"#utility.yul\":10639:10641   */\n      0x20\n        /* \"#utility.yul\":10624:10642   */\n      add\n        /* \"contracts/Oracle.sol\":835:863  address public ORACLE_MASTER */\n    tag_20:\n      mload(0x40)\n      dup1\n      swap2\n      sub\n      swap1\n      return\n        /* \"contracts/Oracle.sol\":755:789  address payable[] public PUSHABLES */\n    tag_5:\n      tag_18\n      tag_23\n      calldatasize\n      0x04\n      tag_24\n      jump\t// in\n    tag_23:\n      tag_25\n      jump\t// in\n        /* \"contracts/Oracle.sol\":2347:4435  function reportPara(\r... */\n    tag_6:\n      tag_14\n      tag_29\n      calldatasize\n      0x04\n      tag_30\n      jump\t// in\n    tag_29:\n      tag_31\n      jump\t// in\n        /* \"contracts/Oracle.sol\":1306:1632  function initialize(\r... */\n    tag_7:\n      tag_14\n      tag_33\n      calldatasize\n      0x04\n      tag_34\n      jump\t// in\n    tag_33:\n      tag_35\n      jump\t// in\n        /* \"contracts/Oracle.sol\":5763:5986  function isReported(\r... */\n    tag_8:\n      tag_36\n      tag_37\n      calldatasize\n      0x04\n      tag_24\n      jump\t// in\n    tag_37:\n      tag_38\n      jump\t// in\n    tag_36:\n      0x40\n      dup1\n      mload\n        /* \"#utility.yul\":13729:13763   */\n      0xffffffffffffffffffffffffffffffff\n        /* \"#utility.yul\":13717:13764   */\n      swap1\n      swap4\n      and\n        /* \"#utility.yul\":13699:13765   */\n      dup4\n      mstore\n        /* \"#utility.yul\":13808:13822   */\n      swap1\n      iszero\n        /* \"#utility.yul\":13801:13823   */\n      iszero\n        /* \"#utility.yul\":13796:13798   */\n      0x20\n        /* \"#utility.yul\":13781:13799   */\n      dup4\n      add\n        /* \"#utility.yul\":13774:13824   */\n      mstore\n        /* \"#utility.yul\":13672:13690   */\n      add\n        /* \"contracts/Oracle.sol\":5763:5986  function isReported(\r... */\n      tag_20\n        /* \"#utility.yul\":13654:13830   */\n      jump\n        /* \"contracts/Oracle.sol\":6177:6265  function clearReporting() external onlyOracleMaster {\r... */\n    tag_9:\n      tag_14\n      tag_42\n      jump\t// in\n        /* \"contracts/Oracle.sol\":4777:5184  function softenQuorum(\r... */\n    tag_10:\n      tag_14\n      tag_44\n      calldatasize\n      0x04\n      tag_45\n      jump\t// in\n    tag_44:\n      tag_46\n      jump\t// in\n        /* \"contracts/Oracle.sol\":898:921  uint128 public eraNonce */\n    tag_11:\n      sload(0x05)\n      tag_47\n      swap1\n      0xffffffffffffffffffffffffffffffff\n      and\n      dup2\n      jump\n    tag_47:\n      mload(0x40)\n        /* \"#utility.yul\":13484:13518   */\n      0xffffffffffffffffffffffffffffffff\n        /* \"#utility.yul\":13472:13519   */\n      swap1\n      swap2\n      and\n        /* \"#utility.yul\":13454:13520   */\n      dup2\n      mstore\n        /* \"#utility.yul\":13442:13444   */\n      0x20\n        /* \"#utility.yul\":13427:13445   */\n      add\n        /* \"contracts/Oracle.sol\":898:921  uint128 public eraNonce */\n      tag_20\n        /* \"#utility.yul\":13409:13526   */\n      jump\n        /* \"contracts/Oracle.sol\":5192:5598  function addRemovePushable(\r... */\n    tag_17:\n        /* \"contracts/Oracle.sol\":1152:1165  ORACLE_MASTER */\n      and(0xffffffffffffffffffffffffffffffffffffffff, sload(0x04))\n        /* \"contracts/Oracle.sol\":1138:1148  msg.sender */\n      caller\n        /* \"contracts/Oracle.sol\":1138:1165  msg.sender == ORACLE_MASTER */\n      eq\n        /* \"contracts/Oracle.sol\":1130:1166  require(msg.sender == ORACLE_MASTER) */\n      tag_52\n      jumpi\n      0x00\n      dup1\n      revert\n    tag_52:\n        /* \"contracts/Oracle.sol\":5325:5331  _toAdd */\n      dup1\n        /* \"contracts/Oracle.sol\":5321:5591  if (_toAdd) {\r... */\n      iszero\n      tag_54\n      jumpi\n        /* \"contracts/Oracle.sol\":5348:5357  PUSHABLES */\n      0x03\n        /* \"contracts/Oracle.sol\":5348:5373  PUSHABLES.push(_pushable) */\n      dup1\n      sload\n      0x01\n      dup2\n      add\n      dup3\n      sstore\n      0x00\n      swap2\n      swap1\n      swap2\n      mstore\n      0xc2575a0e9e593c00f959f8c92f12db2869c3395a3b0502d05e2516446f71f85b\n      add\n      dup1\n      sload\n      0xffffffffffffffffffffffff0000000000000000000000000000000000000000\n      and\n      0xffffffffffffffffffffffffffffffffffffffff\n      dup5\n      and\n      or\n      swap1\n      sstore\n        /* \"contracts/Oracle.sol\":5321:5591  if (_toAdd) {\r... */\n      jump(tag_56)\n    tag_54:\n        /* \"contracts/Oracle.sol\":5411:5420  uint256 i */\n      0x00\n        /* \"contracts/Oracle.sol\":5406:5580  for (uint256 i = 0; i < PUSHABLES.length; i++) {\r... */\n    tag_57:\n        /* \"contracts/Oracle.sol\":5430:5439  PUSHABLES */\n      0x03\n        /* \"contracts/Oracle.sol\":5430:5446  PUSHABLES.length */\n      sload\n        /* \"contracts/Oracle.sol\":5426:5446  i < PUSHABLES.length */\n      dup2\n      lt\n        /* \"contracts/Oracle.sol\":5406:5580  for (uint256 i = 0; i < PUSHABLES.length; i++) {\r... */\n      iszero\n      tag_58\n      jumpi\n        /* \"contracts/Oracle.sol\":5492:5501  _pushable */\n      dup3\n        /* \"contracts/Oracle.sol\":5476:5501  PUSHABLES[i] == _pushable */\n      0xffffffffffffffffffffffffffffffffffffffff\n      and\n        /* \"contracts/Oracle.sol\":5476:5485  PUSHABLES */\n      0x03\n        /* \"contracts/Oracle.sol\":5486:5487  i */\n      dup3\n        /* \"contracts/Oracle.sol\":5476:5488  PUSHABLES[i] */\n      dup2\n      sload\n      dup2\n      lt\n      tag_60\n      jumpi\n      mstore(0x00, shl(0xe0, 0x4e487b71))\n      mstore(0x04, 0x32)\n      revert(0x00, 0x24)\n    tag_60:\n      0x00\n      swap2\n      dup3\n      mstore\n      0x20\n      swap1\n      swap2\n      keccak256\n      add\n      sload\n      0xffffffffffffffffffffffffffffffffffffffff\n      and\n        /* \"contracts/Oracle.sol\":5476:5501  PUSHABLES[i] == _pushable */\n      eq\n        /* \"contracts/Oracle.sol\":5472:5565  if (PUSHABLES[i] == _pushable) {\r... */\n      iszero\n      tag_62\n      jumpi\n        /* \"contracts/Oracle.sol\":5533:5542  PUSHABLES */\n      0x03\n        /* \"contracts/Oracle.sol\":5543:5544  i */\n      dup2\n        /* \"contracts/Oracle.sol\":5533:5545  PUSHABLES[i] */\n      dup2\n      sload\n      dup2\n      lt\n      tag_63\n      jumpi\n      mstore(0x00, shl(0xe0, 0x4e487b71))\n      mstore(0x04, 0x32)\n      revert(0x00, 0x24)\n    tag_63:\n      0x00\n      swap2\n      dup3\n      mstore\n      0x20\n      swap1\n      swap2\n      keccak256\n      add\n        /* \"contracts/Oracle.sol\":5526:5545  delete PUSHABLES[i] */\n      dup1\n      sload\n      0xffffffffffffffffffffffff0000000000000000000000000000000000000000\n      and\n      swap1\n      sstore\n        /* \"contracts/Oracle.sol\":5472:5565  if (PUSHABLES[i] == _pushable) {\r... */\n    tag_62:\n        /* \"contracts/Oracle.sol\":5448:5451  i++ */\n      dup1\n      tag_65\n      dup2\n      tag_66\n      jump\t// in\n    tag_65:\n      swap2\n      pop\n      pop\n        /* \"contracts/Oracle.sol\":5406:5580  for (uint256 i = 0; i < PUSHABLES.length; i++) {\r... */\n      jump(tag_57)\n    tag_58:\n      pop\n        /* \"contracts/Oracle.sol\":5321:5591  if (_toAdd) {\r... */\n    tag_56:\n        /* \"contracts/Oracle.sol\":5192:5598  function addRemovePushable(\r... */\n      pop\n      pop\n      jump\t// out\n        /* \"contracts/Oracle.sol\":755:789  address payable[] public PUSHABLES */\n    tag_25:\n      0x03\n      dup2\n      dup2\n      sload\n      dup2\n      lt\n      tag_67\n      jumpi\n      0x00\n      dup1\n      revert\n    tag_67:\n      0x00\n      swap2\n      dup3\n      mstore\n      0x20\n      swap1\n      swap2\n      keccak256\n      add\n      sload\n      0xffffffffffffffffffffffffffffffffffffffff\n      and\n      swap1\n      pop\n      dup2\n      jump\t// out\n        /* \"contracts/Oracle.sol\":2347:4435  function reportPara(\r... */\n    tag_31:\n        /* \"contracts/Oracle.sol\":1152:1165  ORACLE_MASTER */\n      and(0xffffffffffffffffffffffffffffffffffffffff, sload(0x04))\n        /* \"contracts/Oracle.sol\":1138:1148  msg.sender */\n      caller\n        /* \"contracts/Oracle.sol\":1138:1165  msg.sender == ORACLE_MASTER */\n      eq\n        /* \"contracts/Oracle.sol\":1130:1166  require(msg.sender == ORACLE_MASTER) */\n      tag_70\n      jumpi\n      0x00\n      dup1\n      revert\n    tag_70:\n        /* \"contracts/Oracle.sol\":2722:2742  currentReportBitmask */\n      sload(0x02)\n        /* \"contracts/Oracle.sol\":2672:2673  1 */\n      0x01\n        /* \"contracts/Oracle.sol\":2672:2683  1 << _index */\n      dup10\n      shl\n      swap1\n        /* \"contracts/Oracle.sol\":2765:2785  reportBitmask & mask */\n      dup1\n      dup3\n      and\n        /* \"contracts/Oracle.sol\":2765:2790  reportBitmask & mask == 0 */\n      iszero\n        /* \"contracts/Oracle.sol\":2757:2816  require(reportBitmask & mask == 0, \"OR: ALREADY_SUBMITTED\") */\n      tag_72\n      jumpi\n      mload(0x40)\n      0x08c379a000000000000000000000000000000000000000000000000000000000\n      dup2\n      mstore\n        /* \"#utility.yul\":11533:11535   */\n      0x20\n        /* \"contracts/Oracle.sol\":2757:2816  require(reportBitmask & mask == 0, \"OR: ALREADY_SUBMITTED\") */\n      0x04\n      dup3\n      add\n        /* \"#utility.yul\":11515:11536   */\n      mstore\n        /* \"#utility.yul\":11572:11574   */\n      0x15\n        /* \"#utility.yul\":11552:11570   */\n      0x24\n      dup3\n      add\n        /* \"#utility.yul\":11545:11575   */\n      mstore\n        /* \"#utility.yul\":11611:11634   */\n      0x4f523a20414c52454144595f5355424d49545445440000000000000000000000\n        /* \"#utility.yul\":11591:11609   */\n      0x44\n      dup3\n      add\n        /* \"#utility.yul\":11584:11635   */\n      mstore\n        /* \"#utility.yul\":11652:11670   */\n      0x64\n      add\n        /* \"contracts/Oracle.sol\":2757:2816  require(reportBitmask & mask == 0, \"OR: ALREADY_SUBMITTED\") */\n    tag_73:\n      mload(0x40)\n      dup1\n      swap2\n      sub\n      swap1\n      revert\n    tag_72:\n        /* \"contracts/Oracle.sol\":2855:2875  reportBitmask | mask */\n      dup1\n      dup3\n      or\n        /* \"contracts/Oracle.sol\":2831:2851  currentReportBitmask */\n      0x02\n        /* \"contracts/Oracle.sol\":2831:2876  currentReportBitmask = (reportBitmask | mask) */\n      sstore\n        /* \"contracts/Oracle.sol\":2912:2920  eraNonce */\n      sload(0x05)\n      0xffffffffffffffffffffffffffffffff\n        /* \"contracts/Oracle.sol\":2899:2920  _eraNonce == eraNonce */\n      dup9\n      dup2\n      and\n        /* \"contracts/Oracle.sol\":2912:2920  eraNonce */\n      swap2\n      and\n        /* \"contracts/Oracle.sol\":2899:2920  _eraNonce == eraNonce */\n      eq\n        /* \"contracts/Oracle.sol\":2891:2938  require(_eraNonce == eraNonce, \"OR: INV_NONCE\") */\n      tag_75\n      jumpi\n      mload(0x40)\n      0x08c379a000000000000000000000000000000000000000000000000000000000\n      dup2\n      mstore\n        /* \"#utility.yul\":11883:11885   */\n      0x20\n        /* \"contracts/Oracle.sol\":2891:2938  require(_eraNonce == eraNonce, \"OR: INV_NONCE\") */\n      0x04\n      dup3\n      add\n        /* \"#utility.yul\":11865:11886   */\n      mstore\n        /* \"#utility.yul\":11922:11924   */\n      0x0d\n        /* \"#utility.yul\":11902:11920   */\n      0x24\n      dup3\n      add\n        /* \"#utility.yul\":11895:11925   */\n      mstore\n        /* \"#utility.yul\":11961:11976   */\n      0x4f523a20494e565f4e4f4e434500000000000000000000000000000000000000\n        /* \"#utility.yul\":11941:11959   */\n      0x44\n      dup3\n      add\n        /* \"#utility.yul\":11934:11977   */\n      mstore\n        /* \"#utility.yul\":11994:12012   */\n      0x64\n      add\n        /* \"contracts/Oracle.sol\":2891:2938  require(_eraNonce == eraNonce, \"OR: INV_NONCE\") */\n      tag_73\n        /* \"#utility.yul\":11855:12018   */\n      jump\n        /* \"contracts/Oracle.sol\":2891:2938  require(_eraNonce == eraNonce, \"OR: INV_NONCE\") */\n    tag_75:\n        /* \"contracts/Oracle.sol\":1177:1178  _ */\n      pop\n      pop\n        /* \"contracts/Oracle.sol\":3056:3071  uint256 variant */\n      0x00\n        /* \"contracts/utils/ReportUtils.sol\":211:277  0xFFFFFFFFFFFFFFFFFFFFFFFFFFFFFFFFFFFFFFFFFFFFFFFFFFFFFFFFFFFFFF00 */\n      0xffffffffffffffffffffffffffffffffffffffffffffffffffffffffffffff00\n        /* \"contracts/Oracle.sol\":3103:3111  _staking */\n      dup6\n        /* \"contracts/Oracle.sol\":3092:3112  abi.encode(_staking) */\n      add(0x20, mload(0x40))\n      tag_78\n      swap2\n      swap1\n      tag_79\n      jump\t// in\n    tag_78:\n      mload(0x40)\n      0x20\n      dup2\n      dup4\n      sub\n      sub\n      dup2\n      mstore\n      swap1\n      0x40\n      mstore\n        /* \"contracts/Oracle.sol\":3082:3113  keccak256(abi.encode(_staking)) */\n      dup1\n      mload\n      swap1\n      0x20\n      add\n      keccak256\n        /* \"contracts/Oracle.sol\":3074:3114  uint256(keccak256(abi.encode(_staking))) */\n      0x00\n      shr\n        /* \"contracts/Oracle.sol\":3074:3155  uint256(keccak256(abi.encode(_staking))) &\r... */\n      and\n        /* \"contracts/Oracle.sol\":3056:3155  uint256 variant = uint256(keccak256(abi.encode(_staking))) &\r... */\n      swap1\n      pop\n        /* \"contracts/Oracle.sol\":3172:3176  veto */\n      dup3\n        /* \"contracts/Oracle.sol\":3168:3239  if (veto) {\r... */\n      iszero\n      tag_80\n      jumpi\n        /* \"contracts/Oracle.sol\":3193:3217  currentVetoReportVariant */\n      0x06\n        /* \"contracts/Oracle.sol\":3193:3227  currentVetoReportVariant = variant */\n      dup2\n      swap1\n      sstore\n        /* \"contracts/Oracle.sol\":3168:3239  if (veto) {\r... */\n    tag_80:\n        /* \"contracts/Oracle.sol\":3251:3260  uint256 i */\n      0x00\n        /* \"contracts/Oracle.sol\":3293:3321  currentReportVariants.length */\n      dup1\n      sload\n        /* \"contracts/Oracle.sol\":3430:3515  while (i < _length && currentReportVariants[i].isDifferent(variant))\r... */\n    tag_81:\n        /* \"contracts/Oracle.sol\":3441:3448  _length */\n      dup1\n        /* \"contracts/Oracle.sol\":3437:3438  i */\n      dup3\n        /* \"contracts/Oracle.sol\":3437:3448  i < _length */\n      lt\n        /* \"contracts/Oracle.sol\":3437:3497  i < _length && currentReportVariants[i].isDifferent(variant) */\n      dup1\n      iszero\n      tag_84\n      jumpi\n      pop\n        /* \"contracts/Oracle.sol\":3452:3497  currentReportVariants[i].isDifferent(variant) */\n      tag_84\n        /* \"contracts/Oracle.sol\":3489:3496  variant */\n      dup4\n        /* \"contracts/Oracle.sol\":3452:3473  currentReportVariants */\n      0x00\n        /* \"contracts/Oracle.sol\":3474:3475  i */\n      dup5\n        /* \"contracts/Oracle.sol\":3452:3476  currentReportVariants[i] */\n      dup2\n      sload\n      dup2\n      lt\n      tag_85\n      jumpi\n      mstore(0x00, shl(0xe0, 0x4e487b71))\n      mstore(0x04, 0x32)\n      revert(0x00, 0x24)\n    tag_85:\n      swap1\n      0x00\n      mstore\n      keccak256(0x00, 0x20)\n      add\n      sload\n        /* \"contracts/Oracle.sol\":3452:3488  currentReportVariants[i].isDifferent */\n      tag_87\n      swap1\n        /* \"contracts/Oracle.sol\":3452:3497  currentReportVariants[i].isDifferent(variant) */\n      swap2\n      swap1\n      0xffffffff\n      and\n      jump\t// in\n    tag_84:\n        /* \"contracts/Oracle.sol\":3430:3515  while (i < _length && currentReportVariants[i].isDifferent(variant))\r... */\n      iszero\n      tag_82\n      jumpi\n        /* \"contracts/Oracle.sol\":3512:3515  ++i */\n      tag_88\n      dup3\n      tag_66\n      jump\t// in\n    tag_88:\n      swap2\n      pop\n        /* \"contracts/Oracle.sol\":3430:3515  while (i < _length && currentReportVariants[i].isDifferent(variant))\r... */\n      jump(tag_81)\n    tag_82:\n        /* \"contracts/Oracle.sol\":3534:3541  _length */\n      dup1\n        /* \"contracts/Oracle.sol\":3530:3531  i */\n      dup3\n        /* \"contracts/Oracle.sol\":3530:3541  i < _length */\n      lt\n        /* \"contracts/Oracle.sol\":3526:4361  if (i < _length) {\r... */\n      iszero\n      tag_89\n      jumpi\n        /* \"contracts/Oracle.sol\":3605:3612  _quorum */\n      dup10\n        /* \"contracts/Oracle.sol\":3562:3597  currentReportVariants[i].getCount() */\n      tag_90\n        /* \"contracts/Oracle.sol\":3562:3583  currentReportVariants */\n      0x00\n        /* \"contracts/Oracle.sol\":3584:3585  i */\n      dup5\n        /* \"contracts/Oracle.sol\":3562:3586  currentReportVariants[i] */\n      dup2\n      sload\n      dup2\n      lt\n      tag_91\n      jumpi\n      mstore(0x00, shl(0xe0, 0x4e487b71))\n      mstore(0x04, 0x32)\n      revert(0x00, 0x24)\n    tag_91:\n      swap1\n      0x00\n      mstore\n      keccak256(0x00, 0x20)\n      add\n      sload\n        /* \"contracts/Oracle.sol\":3562:3595  currentReportVariants[i].getCount */\n      tag_93\n        /* \"contracts/Oracle.sol\":3562:3597  currentReportVariants[i].getCount() */\n      jump\t// in\n    tag_90:\n        /* \"contracts/Oracle.sol\":3562:3601  currentReportVariants[i].getCount() + 1 */\n      tag_94\n      swap1\n        /* \"contracts/Oracle.sol\":3600:3601  1 */\n      0x01\n        /* \"contracts/Oracle.sol\":3562:3601  currentReportVariants[i].getCount() + 1 */\n      tag_95\n      jump\t// in\n    tag_94:\n        /* \"contracts/Oracle.sol\":3562:3612  currentReportVariants[i].getCount() + 1 >= _quorum */\n      0xff\n      and\n      lt\n        /* \"contracts/Oracle.sol\":3558:4097  if (currentReportVariants[i].getCount() + 1 >= _quorum) {\r... */\n      tag_96\n      jumpi\n        /* \"contracts/Oracle.sol\":3660:3684  currentVetoReportVariant */\n      sload(0x06)\n        /* \"contracts/Oracle.sol\":3633:3657  bool vetoAddressHasVoted */\n      0x00\n        /* \"contracts/Oracle.sol\":3722:3746  currentReportVariants[i] */\n      dup1\n      sload\n        /* \"contracts/Oracle.sol\":3660:3689  currentVetoReportVariant == 0 */\n      dup3\n      iszero\n      swap3\n        /* \"contracts/Oracle.sol\":3722:3784  currentReportVariants[i].isDifferent(currentVetoReportVariant) */\n      tag_97\n      swap2\n        /* \"contracts/Oracle.sol\":3633:3657  bool vetoAddressHasVoted */\n      dup4\n      swap1\n        /* \"contracts/Oracle.sol\":3744:3745  i */\n      dup8\n      swap1\n        /* \"contracts/Oracle.sol\":3722:3746  currentReportVariants[i] */\n      dup2\n      lt\n      tag_85\n      jumpi\n      mstore(0x00, shl(0xe0, 0x4e487b71))\n      mstore(0x04, 0x32)\n      revert(0x00, 0x24)\n        /* \"contracts/Oracle.sol\":3722:3784  currentReportVariants[i].isDifferent(currentVetoReportVariant) */\n    tag_97:\n        /* \"contracts/Oracle.sol\":3708:3784  bool vetoed = currentReportVariants[i].isDifferent(currentVetoReportVariant) */\n      swap1\n      pop\n        /* \"contracts/Oracle.sol\":3808:3827  vetoAddressHasVoted */\n      dup2\n        /* \"contracts/Oracle.sol\":3808:3838  vetoAddressHasVoted && !vetoed */\n      dup1\n      iszero\n      tag_100\n      jumpi\n      pop\n        /* \"contracts/Oracle.sol\":3832:3838  vetoed */\n      dup1\n        /* \"contracts/Oracle.sol\":3831:3838  !vetoed */\n      iszero\n        /* \"contracts/Oracle.sol\":3808:3838  vetoAddressHasVoted && !vetoed */\n    tag_100:\n        /* \"contracts/Oracle.sol\":3807:3855  (vetoAddressHasVoted && !vetoed) || vetoDisabled */\n      dup1\n      tag_101\n      jumpi\n      pop\n        /* \"contracts/Oracle.sol\":3843:3855  vetoDisabled */\n      dup6\n        /* \"contracts/Oracle.sol\":3807:3855  (vetoAddressHasVoted && !vetoed) || vetoDisabled */\n    tag_101:\n        /* \"contracts/Oracle.sol\":3803:3940  if ((vetoAddressHasVoted && !vetoed) || vetoDisabled) {\r... */\n      iszero\n      tag_103\n      jumpi\n        /* \"contracts/Oracle.sol\":3880:3920  _push(_eraId, _staking, _oracleCollator) */\n      tag_103\n        /* \"contracts/Oracle.sol\":3886:3892  _eraId */\n      dup12\n        /* \"contracts/Oracle.sol\":3880:3920  _push(_eraId, _staking, _oracleCollator) */\n      tag_104\n        /* \"contracts/Oracle.sol\":3894:3902  _staking */\n      dup12\n        /* \"contracts/Oracle.sol\":3880:3920  _push(_eraId, _staking, _oracleCollator) */\n      tag_105\n      jump\t// in\n    tag_104:\n        /* \"contracts/Oracle.sol\":3904:3919  _oracleCollator */\n      dup11\n        /* \"contracts/Oracle.sol\":3880:3885  _push */\n      tag_106\n        /* \"contracts/Oracle.sol\":3880:3920  _push(_eraId, _staking, _oracleCollator) */\n      jump\t// in\n    tag_103:\n        /* \"contracts/Oracle.sol\":3558:4097  if (currentReportVariants[i].getCount() + 1 >= _quorum) {\r... */\n      pop\n      pop\n      jump(tag_107)\n    tag_96:\n        /* \"contracts/Oracle.sol\":3982:4003  currentReportVariants */\n      0x00\n        /* \"contracts/Oracle.sol\":4004:4005  i */\n      dup3\n        /* \"contracts/Oracle.sol\":3982:4006  currentReportVariants[i] */\n      dup2\n      sload\n      dup2\n      lt\n      tag_108\n      jumpi\n      mstore(0x00, shl(0xe0, 0x4e487b71))\n      mstore(0x04, 0x32)\n      revert(0x00, 0x24)\n    tag_108:\n      swap1\n      0x00\n      mstore\n      keccak256(0x00, 0x20)\n      add\n      0x00\n        /* \"contracts/Oracle.sol\":3980:4006  ++currentReportVariants[i] */\n      dup2\n      sload\n      tag_110\n      swap1\n      tag_66\n      jump\t// in\n    tag_110:\n      swap1\n      swap2\n      sstore\n      pop\n        /* \"contracts/Oracle.sol\":3558:4097  if (currentReportVariants[i].getCount() + 1 >= _quorum) {\r... */\n    tag_107:\n        /* \"contracts/Oracle.sol\":3526:4361  if (i < _length) {\r... */\n      jump(tag_115)\n    tag_89:\n        /* \"contracts/Oracle.sol\":4133:4140  _quorum */\n      dup10\n        /* \"contracts/Oracle.sol\":4144:4145  1 */\n      0x01\n        /* \"contracts/Oracle.sol\":4133:4145  _quorum == 1 */\n      eq\n        /* \"contracts/Oracle.sol\":4129:4350  if (_quorum == 1) {\r... */\n      iszero\n      tag_112\n      jumpi\n        /* \"contracts/Oracle.sol\":4166:4206  _push(_eraId, _staking, _oracleCollator) */\n      tag_107\n        /* \"contracts/Oracle.sol\":4172:4178  _eraId */\n      dup10\n        /* \"contracts/Oracle.sol\":4166:4206  _push(_eraId, _staking, _oracleCollator) */\n      tag_114\n        /* \"contracts/Oracle.sol\":4180:4188  _staking */\n      dup10\n        /* \"contracts/Oracle.sol\":4166:4206  _push(_eraId, _staking, _oracleCollator) */\n      tag_105\n      jump\t// in\n    tag_114:\n        /* \"contracts/Oracle.sol\":4190:4205  _oracleCollator */\n      dup9\n        /* \"contracts/Oracle.sol\":4166:4171  _push */\n      tag_106\n        /* \"contracts/Oracle.sol\":4166:4206  _push(_eraId, _staking, _oracleCollator) */\n      jump\t// in\n        /* \"contracts/Oracle.sol\":4129:4350  if (_quorum == 1) {\r... */\n    tag_112:\n        /* \"contracts/Oracle.sol\":4247:4268  currentReportVariants */\n      0x00\n        /* \"contracts/Oracle.sol\":4274:4285  variant + 1 */\n      tag_116\n        /* \"contracts/Oracle.sol\":4274:4281  variant */\n      dup5\n        /* \"contracts/Oracle.sol\":4284:4285  1 */\n      0x01\n        /* \"contracts/Oracle.sol\":4274:4285  variant + 1 */\n      tag_117\n      jump\t// in\n    tag_116:\n        /* \"contracts/Oracle.sol\":4247:4286  currentReportVariants.push(variant + 1) */\n      dup2\n      sload\n      0x01\n      dup2\n      dup2\n      add\n      dup5\n      sstore\n      0x00\n      swap4\n      dup5\n      mstore\n      0x20\n      dup5\n      keccak256\n      swap1\n      swap2\n      add\n      swap2\n      swap1\n      swap2\n      sstore\n        /* \"contracts/Oracle.sol\":4305:4334  currentReports.push(_staking) */\n      dup1\n      sload\n      dup1\n      dup3\n      add\n      dup3\n      sstore\n      swap2\n      mstore\n        /* \"contracts/Oracle.sol\":4325:4333  _staking */\n      dup8\n      swap1\n        /* \"contracts/Oracle.sol\":4305:4334  currentReports.push(_staking) */\n      0x06\n      mul\n      0xb10e2d527612073b26eecdfd717e6a320cf44b4afac2b0732d9fcbe2b7fa0cf6\n      add\n      tag_120\n        /* \"contracts/Oracle.sol\":4325:4333  _staking */\n      dup3\n        /* \"contracts/Oracle.sol\":4305:4334  currentReports.push(_staking) */\n      dup3\n      tag_121\n      jump\t// in\n    tag_120:\n      pop\n      pop\n        /* \"contracts/Oracle.sol\":4129:4350  if (_quorum == 1) {\r... */\n    tag_115:\n        /* \"contracts/Oracle.sol\":4376:4427  ReportSubmitted(_eraId, _eraNonce, _oracleCollator) */\n      0x40\n      dup1\n      mload\n        /* \"#utility.yul\":15284:15318   */\n      0xffffffffffffffffffffffffffffffff\n        /* \"#utility.yul\":15345:15360   */\n      dup12\n      dup2\n      and\n        /* \"#utility.yul\":15327:15361   */\n      dup3\n      mstore\n        /* \"#utility.yul\":15397:15412   */\n      dup11\n      and\n        /* \"#utility.yul\":15392:15394   */\n      0x20\n        /* \"#utility.yul\":15377:15395   */\n      dup3\n      add\n        /* \"#utility.yul\":15370:15413   */\n      mstore\n        /* \"#utility.yul\":15461:15503   */\n      0xffffffffffffffffffffffffffffffffffffffff\n        /* \"#utility.yul\":15449:15504   */\n      dup9\n      and\n        /* \"#utility.yul\":15429:15447   */\n      dup2\n      dup4\n      add\n        /* \"#utility.yul\":15422:15505   */\n      mstore\n        /* \"contracts/Oracle.sol\":4376:4427  ReportSubmitted(_eraId, _eraNonce, _oracleCollator) */\n      swap1\n      mload\n      0xbbf23e6bd8173d3423fb94a419f7193574bdca2f2b640364201f708b6a13cbe8\n      swap2\n      dup2\n      swap1\n      sub\n        /* \"#utility.yul\":15262:15264   */\n      0x60\n        /* \"contracts/Oracle.sol\":4376:4427  ReportSubmitted(_eraId, _eraNonce, _oracleCollator) */\n      add\n      swap1\n      log1\n        /* \"contracts/Oracle.sol\":1177:1178  _ */\n      pop\n      pop\n      pop\n        /* \"contracts/Oracle.sol\":2347:4435  function reportPara(\r... */\n      pop\n      pop\n      pop\n      pop\n      pop\n      pop\n      pop\n      pop\n      jump\t// out\n        /* \"contracts/Oracle.sol\":1306:1632  function initialize(\r... */\n    tag_35:\n        /* \"contracts/Oracle.sol\":1443:1456  ORACLE_MASTER */\n      sload(0x04)\n        /* \"contracts/Oracle.sol\":1443:1470  ORACLE_MASTER == address(0) */\n      0xffffffffffffffffffffffffffffffffffffffff\n        /* \"contracts/Oracle.sol\":1443:1456  ORACLE_MASTER */\n      and\n        /* \"contracts/Oracle.sol\":1443:1470  ORACLE_MASTER == address(0) */\n      iszero\n        /* \"contracts/Oracle.sol\":1443:1501  ORACLE_MASTER == address(0) && _oracleMaster != address(0) */\n      dup1\n      iszero\n      tag_125\n      jumpi\n      pop\n        /* \"contracts/Oracle.sol\":1474:1501  _oracleMaster != address(0) */\n      0xffffffffffffffffffffffffffffffffffffffff\n      dup3\n      and\n      iszero\n      iszero\n        /* \"contracts/Oracle.sol\":1443:1501  ORACLE_MASTER == address(0) && _oracleMaster != address(0) */\n    tag_125:\n        /* \"contracts/Oracle.sol\":1421:1548  require(\r... */\n      tag_126\n      jumpi\n      mload(0x40)\n      0x08c379a000000000000000000000000000000000000000000000000000000000\n      dup2\n      mstore\n        /* \"#utility.yul\":11185:11187   */\n      0x20\n        /* \"contracts/Oracle.sol\":1421:1548  require(\r... */\n      0x04\n      dup3\n      add\n        /* \"#utility.yul\":11167:11188   */\n      mstore\n        /* \"#utility.yul\":11224:11226   */\n      0x13\n        /* \"#utility.yul\":11204:11222   */\n      0x24\n      dup3\n      add\n        /* \"#utility.yul\":11197:11227   */\n      mstore\n        /* \"#utility.yul\":11263:11284   */\n      0x414c52454144595f494e495449414c495a454400000000000000000000000000\n        /* \"#utility.yul\":11243:11261   */\n      0x44\n      dup3\n      add\n        /* \"#utility.yul\":11236:11285   */\n      mstore\n        /* \"#utility.yul\":11302:11320   */\n      0x64\n      add\n        /* \"contracts/Oracle.sol\":1421:1548  require(\r... */\n      tag_73\n        /* \"#utility.yul\":11157:11326   */\n      jump\n        /* \"contracts/Oracle.sol\":1421:1548  require(\r... */\n    tag_126:\n        /* \"contracts/Oracle.sol\":1559:1572  ORACLE_MASTER */\n      0x04\n        /* \"contracts/Oracle.sol\":1559:1588  ORACLE_MASTER = _oracleMaster */\n      dup1\n      sload\n      0xffffffffffffffffffffffffffffffffffffffff\n      swap4\n      dup5\n      and\n      0xffffffffffffffffffffffff0000000000000000000000000000000000000000\n      swap2\n      dup3\n      and\n      or\n      swap1\n      swap2\n      sstore\n        /* \"contracts/Oracle.sol\":1599:1608  PUSHABLES */\n      0x03\n        /* \"contracts/Oracle.sol\":1599:1624  PUSHABLES.push(_pushable) */\n      dup1\n      sload\n        /* \"contracts/Oracle.sol\":1559:1588  ORACLE_MASTER = _oracleMaster */\n      0x01\n        /* \"contracts/Oracle.sol\":1599:1624  PUSHABLES.push(_pushable) */\n      dup2\n      add\n      dup3\n      sstore\n        /* \"contracts/Oracle.sol\":1559:1572  ORACLE_MASTER */\n      0x00\n        /* \"contracts/Oracle.sol\":1599:1624  PUSHABLES.push(_pushable) */\n      swap2\n      swap1\n      swap2\n      mstore\n      0xc2575a0e9e593c00f959f8c92f12db2869c3395a3b0502d05e2516446f71f85b\n      add\n      dup1\n      sload\n      swap3\n      swap1\n      swap4\n      and\n      swap2\n      and\n      or\n      swap1\n      sstore\n        /* \"contracts/Oracle.sol\":1306:1632  function initialize(\r... */\n      jump\t// out\n        /* \"contracts/Oracle.sol\":5763:5986  function isReported(\r... */\n    tag_38:\n        /* \"contracts/Oracle.sol\":1152:1165  ORACLE_MASTER */\n      sload(0x04)\n        /* \"contracts/Oracle.sol\":5855:5862  uint128 */\n      0x00\n      swap1\n      dup2\n      swap1\n        /* \"contracts/Oracle.sol\":1152:1165  ORACLE_MASTER */\n      0xffffffffffffffffffffffffffffffffffffffff\n      and\n        /* \"contracts/Oracle.sol\":1138:1148  msg.sender */\n      caller\n        /* \"contracts/Oracle.sol\":1138:1165  msg.sender == ORACLE_MASTER */\n      eq\n        /* \"contracts/Oracle.sol\":1130:1166  require(msg.sender == ORACLE_MASTER) */\n      tag_131\n      jumpi\n      0x00\n      dup1\n      revert\n    tag_131:\n      pop\n      pop\n        /* \"contracts/Oracle.sol\":5898:5918  currentReportBitmask */\n      sload(0x02)\n        /* \"contracts/Oracle.sol\":5959:5967  eraNonce */\n      and(0xffffffffffffffffffffffffffffffff, sload(0x05))\n      swap1\n        /* \"contracts/Oracle.sol\":5922:5923  1 */\n      0x01\n        /* \"contracts/Oracle.sol\":5922:5933  1 << _index */\n      dup4\n      shl\n        /* \"contracts/Oracle.sol\":5898:5934  currentReportBitmask & (1 << _index) */\n      and\n        /* \"contracts/Oracle.sol\":5897:5940  (currentReportBitmask & (1 << _index)) != 0 */\n      iszero\n      iszero\n        /* \"contracts/Oracle.sol\":1177:1178  _ */\n    tag_132:\n        /* \"contracts/Oracle.sol\":5763:5986  function isReported(\r... */\n      swap2\n      pop\n      swap2\n      jump\t// out\n        /* \"contracts/Oracle.sol\":6177:6265  function clearReporting() external onlyOracleMaster {\r... */\n    tag_42:\n        /* \"contracts/Oracle.sol\":1152:1165  ORACLE_MASTER */\n      and(0xffffffffffffffffffffffffffffffffffffffff, sload(0x04))\n        /* \"contracts/Oracle.sol\":1138:1148  msg.sender */\n      caller\n        /* \"contracts/Oracle.sol\":1138:1165  msg.sender == ORACLE_MASTER */\n      eq\n        /* \"contracts/Oracle.sol\":1130:1166  require(msg.sender == ORACLE_MASTER) */\n      tag_134\n      jumpi\n      0x00\n      dup1\n      revert\n    tag_134:\n        /* \"contracts/Oracle.sol\":6240:6257  _clearReporting() */\n      tag_136\n        /* \"contracts/Oracle.sol\":6240:6255  _clearReporting */\n      tag_137\n        /* \"contracts/Oracle.sol\":6240:6257  _clearReporting() */\n      jump\t// in\n    tag_136:\n        /* \"contracts/Oracle.sol\":6177:6265  function clearReporting() external onlyOracleMaster {\r... */\n      jump\t// out\n        /* \"contracts/Oracle.sol\":4777:5184  function softenQuorum(\r... */\n    tag_46:\n        /* \"contracts/Oracle.sol\":1152:1165  ORACLE_MASTER */\n      and(0xffffffffffffffffffffffffffffffffffffffff, sload(0x04))\n        /* \"contracts/Oracle.sol\":1138:1148  msg.sender */\n      caller\n        /* \"contracts/Oracle.sol\":1138:1165  msg.sender == ORACLE_MASTER */\n      eq\n        /* \"contracts/Oracle.sol\":1130:1166  require(msg.sender == ORACLE_MASTER) */\n      tag_139\n      jumpi\n      0x00\n      dup1\n      revert\n    tag_139:\n        /* \"contracts/Oracle.sol\":4893:4906  bool isQuorum */\n      0x00\n        /* \"contracts/Oracle.sol\":4908:4927  uint256 reportIndex */\n      dup1\n        /* \"contracts/Oracle.sol\":4931:4956  _getQuorumReport(_quorum) */\n      tag_141\n        /* \"contracts/Oracle.sol\":4948:4955  _quorum */\n      dup5\n        /* \"contracts/Oracle.sol\":4931:4956  _getQuorumReport(_quorum) */\n      0xff\n      and\n        /* \"contracts/Oracle.sol\":4931:4947  _getQuorumReport */\n      tag_142\n        /* \"contracts/Oracle.sol\":4931:4956  _getQuorumReport(_quorum) */\n      jump\t// in\n    tag_141:\n        /* \"contracts/Oracle.sol\":4892:4956  (bool isQuorum, uint256 reportIndex) = _getQuorumReport(_quorum) */\n      swap2\n      pop\n      swap2\n      pop\n        /* \"contracts/Oracle.sol\":4971:4979  isQuorum */\n      dup2\n        /* \"contracts/Oracle.sol\":4967:5177  if (isQuorum) {\r... */\n      iszero\n      tag_143\n      jumpi\n        /* \"contracts/Oracle.sol\":4996:5026  Types.OracleData memory report */\n      0x00\n        /* \"contracts/Oracle.sol\":5029:5057  _getStakeReport(reportIndex) */\n      tag_144\n        /* \"contracts/Oracle.sol\":5045:5056  reportIndex */\n      dup3\n        /* \"contracts/Oracle.sol\":5029:5044  _getStakeReport */\n      tag_145\n        /* \"contracts/Oracle.sol\":5029:5057  _getStakeReport(reportIndex) */\n      jump\t// in\n    tag_144:\n        /* \"contracts/Oracle.sol\":4996:5057  Types.OracleData memory report = _getStakeReport(reportIndex) */\n      0x40\n      dup1\n      mload\n      0x0100\n      dup2\n      add\n      dup3\n      mstore\n      dup3\n      sload\n      dup2\n      mstore\n      0x01\n      dup4\n      add\n      sload\n      0xffffffffffffffffffffffffffffffff\n      dup1\n      dup3\n      and\n      0x20\n      dup1\n      dup6\n      add\n      swap2\n      swap1\n      swap2\n      mstore\n      0x0100000000000000000000000000000000\n      swap3\n      dup4\n      swap1\n      div\n      dup3\n      and\n      dup5\n      dup7\n      add\n      mstore\n      0x02\n      dup7\n      add\n      sload\n      dup3\n      and\n      0x60\n      dup6\n      add\n      mstore\n      0x03\n      dup7\n      add\n      sload\n      0x80\n      dup6\n      add\n      mstore\n      0x04\n      dup7\n      add\n      sload\n      dup1\n      dup4\n      and\n      0xa0\n      dup7\n      add\n      mstore\n      swap3\n      swap1\n      swap3\n      div\n      and\n      0xc0\n      dup4\n      add\n      mstore\n      0x05\n      dup5\n      add\n      dup1\n      sload\n      dup5\n      mload\n      dup2\n      dup5\n      mul\n      dup2\n      add\n      dup5\n      add\n      swap1\n      swap6\n      mstore\n      dup1\n      dup6\n      mstore\n      swap3\n      swap5\n      swap4\n      0xe0\n      dup7\n      add\n      swap4\n      swap1\n      swap3\n      0x00\n      swap1\n      dup5\n      add\n    tag_146:\n      dup3\n      dup3\n      lt\n      iszero\n      tag_147\n      jumpi\n      0x00\n      dup5\n      dup2\n      mstore\n      0x20\n      dup1\n      dup3\n      keccak256\n      0x40\n      dup1\n      mload\n      0xc0\n      dup2\n      add\n      dup3\n      mstore\n      0x05\n      dup8\n      mul\n      swap1\n      swap3\n      add\n      dup1\n      sload\n      0xffffffffffffffffffffffffffffffffffffffff\n      and\n      dup4\n      mstore\n      0x01\n      dup2\n      add\n      sload\n      0xffffffffffffffffffffffffffffffff\n      dup2\n      and\n      dup5\n      dup7\n      add\n      mstore\n      0x0100000000000000000000000000000000\n      swap1\n      div\n      0xff\n      and\n      iszero\n      iszero\n      dup4\n      dup4\n      add\n      mstore\n      0x02\n      dup2\n      add\n      sload\n      0x60\n      dup5\n      add\n      mstore\n      0x03\n      dup2\n      add\n      sload\n      0x80\n      dup5\n      add\n      mstore\n      0x04\n      dup2\n      add\n      dup1\n      sload\n      dup4\n      mload\n      dup2\n      dup8\n      mul\n      dup2\n      add\n      dup8\n      add\n      swap1\n      swap5\n      mstore\n      dup1\n      dup5\n      mstore\n      swap4\n      swap6\n      swap2\n      swap5\n      0xa0\n      dup8\n      add\n      swap5\n      swap2\n      swap3\n      swap1\n      dup5\n      add\n    tag_149:\n      dup3\n      dup3\n      lt\n      iszero\n      tag_150\n      jumpi\n      0x00\n      dup5\n      dup2\n      mstore\n      0x20\n      swap1\n      dup2\n      swap1\n      keccak256\n      0x40\n      dup1\n      mload\n      dup1\n      dup3\n      add\n      swap1\n      swap2\n      mstore\n      0x02\n      dup6\n      mul\n      swap1\n      swap2\n      add\n      dup1\n      sload\n      0xffffffffffffffffffffffffffffffffffffffff\n      and\n      dup3\n      mstore\n      0x01\n      swap1\n      dup2\n      add\n      sload\n      dup3\n      dup5\n      add\n      mstore\n      swap1\n      dup4\n      mstore\n      swap1\n      swap3\n      add\n      swap2\n      add\n      jump(tag_149)\n    tag_150:\n      pop\n      pop\n      pop\n      pop\n      dup2\n      mstore\n      pop\n      pop\n      dup2\n      mstore\n      0x20\n      add\n      swap1\n      0x01\n      add\n      swap1\n      jump(tag_146)\n    tag_147:\n      pop\n      pop\n      pop\n      pop\n      dup2\n      mstore\n      pop\n      pop\n      swap1\n      pop\n        /* \"contracts/Oracle.sol\":5072:5105  _push(_eraId, report, address(0)) */\n      tag_152\n        /* \"contracts/Oracle.sol\":5078:5084  _eraId */\n      dup5\n        /* \"contracts/Oracle.sol\":5086:5092  report */\n      dup3\n        /* \"contracts/Oracle.sol\":5102:5103  0 */\n      0x00\n        /* \"contracts/Oracle.sol\":5072:5077  _push */\n      tag_106\n        /* \"contracts/Oracle.sol\":5072:5105  _push(_eraId, report, address(0)) */\n      jump\t// in\n    tag_152:\n        /* \"contracts/Oracle.sol\":4967:5177  if (isQuorum) {\r... */\n      pop\n    tag_143:\n        /* \"contracts/Oracle.sol\":1177:1178  _ */\n      pop\n      pop\n        /* \"contracts/Oracle.sol\":4777:5184  function softenQuorum(\r... */\n      pop\n      pop\n      jump\t// out\n        /* \"contracts/utils/ReportUtils.sol\":386:547  function isDifferent(\r... */\n    tag_87:\n        /* \"contracts/utils/ReportUtils.sol\":211:277  0xFFFFFFFFFFFFFFFFFFFFFFFFFFFFFFFFFFFFFFFFFFFFFFFFFFFFFFFFFFFFFF00 */\n      0xffffffffffffffffffffffffffffffffffffffffffffffffffffffffffffff00\n        /* \"contracts/utils/ReportUtils.sol\":509:530  value & COUNT_OUTMASK */\n      swap2\n      swap1\n      swap2\n      and\n        /* \"contracts/utils/ReportUtils.sol\":508:539  (value & COUNT_OUTMASK) != that */\n      eq\n      iszero\n      swap1\n        /* \"contracts/utils/ReportUtils.sol\":386:547  function isDifferent(\r... */\n      jump\t// out\n        /* \"contracts/utils/ReportUtils.sol\":630:731  function getCount(uint256 value) internal pure returns (uint8) {\r... */\n    tag_93:\n        /* \"contracts/utils/ReportUtils.sol\":717:722  value */\n      dup1\n        /* \"contracts/utils/ReportUtils.sol\":630:731  function getCount(uint256 value) internal pure returns (uint8) {\r... */\n    tag_154:\n      swap2\n      swap1\n      pop\n      jump\t// out\n        /* \"contracts/Oracle.sol\":7055:7460  function _push(\r... */\n    tag_106:\n        /* \"contracts/Oracle.sol\":7202:7211  uint256 i */\n      0x00\n        /* \"contracts/Oracle.sol\":7197:7425  for (uint256 i = 0; i < PUSHABLES.length; i++) {\r... */\n    tag_156:\n        /* \"contracts/Oracle.sol\":7221:7230  PUSHABLES */\n      0x03\n        /* \"contracts/Oracle.sol\":7221:7237  PUSHABLES.length */\n      sload\n        /* \"contracts/Oracle.sol\":7217:7237  i < PUSHABLES.length */\n      dup2\n      lt\n        /* \"contracts/Oracle.sol\":7197:7425  for (uint256 i = 0; i < PUSHABLES.length; i++) {\r... */\n      iszero\n      tag_157\n      jumpi\n        /* \"contracts/Oracle.sol\":7287:7288  0 */\n      0x00\n        /* \"contracts/Oracle.sol\":7263:7289  PUSHABLES[i] == address(0) */\n      0xffffffffffffffffffffffffffffffffffffffff\n      and\n        /* \"contracts/Oracle.sol\":7263:7272  PUSHABLES */\n      0x03\n        /* \"contracts/Oracle.sol\":7273:7274  i */\n      dup3\n        /* \"contracts/Oracle.sol\":7263:7275  PUSHABLES[i] */\n      dup2\n      sload\n      dup2\n      lt\n      tag_159\n      jumpi\n      mstore(0x00, shl(0xe0, 0x4e487b71))\n      mstore(0x04, 0x32)\n      revert(0x00, 0x24)\n    tag_159:\n      0x00\n      swap2\n      dup3\n      mstore\n      0x20\n      swap1\n      swap2\n      keccak256\n      add\n      sload\n      0xffffffffffffffffffffffffffffffffffffffff\n      and\n        /* \"contracts/Oracle.sol\":7263:7289  PUSHABLES[i] == address(0) */\n      eq\n        /* \"contracts/Oracle.sol\":7259:7334  if (PUSHABLES[i] == address(0)) {\r... */\n      iszero\n      tag_161\n      jumpi\n        /* \"contracts/Oracle.sol\":7310:7318  continue */\n      jump(tag_158)\n        /* \"contracts/Oracle.sol\":7259:7334  if (PUSHABLES[i] == address(0)) {\r... */\n    tag_161:\n        /* \"contracts/Oracle.sol\":7358:7367  PUSHABLES */\n      0x03\n        /* \"contracts/Oracle.sol\":7368:7369  i */\n      dup2\n        /* \"contracts/Oracle.sol\":7358:7370  PUSHABLES[i] */\n      dup2\n      sload\n      dup2\n      lt\n      tag_162\n      jumpi\n      mstore(0x00, shl(0xe0, 0x4e487b71))\n      mstore(0x04, 0x32)\n      revert(0x00, 0x24)\n    tag_162:\n      0x00\n      swap2\n      dup3\n      mstore\n      0x20\n      swap1\n      swap2\n      keccak256\n      add\n      sload\n        /* \"contracts/Oracle.sol\":7348:7413  IPushable(PUSHABLES[i]).pushData(_eraId, report, _oracleCollator) */\n      mload(0x40)\n      0x567ea96100000000000000000000000000000000000000000000000000000000\n      dup2\n      mstore\n        /* \"contracts/Oracle.sol\":7358:7370  PUSHABLES[i] */\n      0xffffffffffffffffffffffffffffffffffffffff\n      swap1\n      swap2\n      and\n      swap1\n        /* \"contracts/Oracle.sol\":7348:7380  IPushable(PUSHABLES[i]).pushData */\n      0x567ea961\n      swap1\n        /* \"contracts/Oracle.sol\":7348:7413  IPushable(PUSHABLES[i]).pushData(_eraId, report, _oracleCollator) */\n      tag_164\n      swap1\n        /* \"contracts/Oracle.sol\":7381:7387  _eraId */\n      dup8\n      swap1\n        /* \"contracts/Oracle.sol\":7389:7395  report */\n      dup8\n      swap1\n        /* \"contracts/Oracle.sol\":7397:7412  _oracleCollator */\n      dup8\n      swap1\n        /* \"contracts/Oracle.sol\":7348:7413  IPushable(PUSHABLES[i]).pushData(_eraId, report, _oracleCollator) */\n      0x04\n      add\n      tag_165\n      jump\t// in\n    tag_164:\n      0x00\n      mload(0x40)\n      dup1\n      dup4\n      sub\n      dup2\n      0x00\n      dup8\n      dup1\n      extcodesize\n      iszero\n      dup1\n      iszero\n      tag_166\n      jumpi\n      0x00\n      dup1\n      revert\n    tag_166:\n      pop\n      gas\n      call\n      iszero\n      dup1\n      iszero\n      tag_168\n      jumpi\n      returndatasize\n      0x00\n      dup1\n      returndatacopy\n      revert(0x00, returndatasize)\n    tag_168:\n      pop\n      pop\n      pop\n      pop\n        /* \"contracts/Oracle.sol\":7197:7425  for (uint256 i = 0; i < PUSHABLES.length; i++) {\r... */\n    tag_158:\n        /* \"contracts/Oracle.sol\":7239:7242  i++ */\n      dup1\n      tag_169\n      dup2\n      tag_66\n      jump\t// in\n    tag_169:\n      swap2\n      pop\n      pop\n        /* \"contracts/Oracle.sol\":7197:7425  for (uint256 i = 0; i < PUSHABLES.length; i++) {\r... */\n      jump(tag_156)\n    tag_157:\n      pop\n        /* \"contracts/Oracle.sol\":7435:7452  _clearReporting() */\n      tag_58\n        /* \"contracts/Oracle.sol\":6703:6977  function _clearReporting() internal {\r... */\n    tag_137:\n        /* \"contracts/Oracle.sol\":6750:6777  delete currentReportBitmask */\n      0x00\n        /* \"contracts/Oracle.sol\":6757:6777  currentReportBitmask */\n      0x02\n        /* \"contracts/Oracle.sol\":6750:6777  delete currentReportBitmask */\n      dup2\n      swap1\n      sstore\n        /* \"contracts/Oracle.sol\":6800:6828  delete currentReportVariants */\n      tag_172\n      swap1\n        /* \"contracts/Oracle.sol\":6750:6777  delete currentReportBitmask */\n      dup1\n        /* \"contracts/Oracle.sol\":6800:6828  delete currentReportVariants */\n      tag_173\n      jump\t// in\n    tag_172:\n        /* \"contracts/Oracle.sol\":6839:6860  delete currentReports */\n      tag_174\n        /* \"contracts/Oracle.sol\":6846:6860  currentReports */\n      0x01\n      0x00\n        /* \"contracts/Oracle.sol\":6839:6860  delete currentReports */\n      tag_175\n      jump\t// in\n    tag_174:\n        /* \"contracts/Oracle.sol\":6871:6902  delete currentVetoReportVariant */\n      0x00\n        /* \"contracts/Oracle.sol\":6878:6902  currentVetoReportVariant */\n      0x06\n        /* \"contracts/Oracle.sol\":6871:6902  delete currentVetoReportVariant */\n      dup2\n      swap1\n      sstore\n        /* \"contracts/Oracle.sol\":6925:6933  eraNonce */\n      0x05\n        /* \"contracts/Oracle.sol\":6925:6935  eraNonce++ */\n      dup1\n      sload\n      0xffffffffffffffffffffffffffffffff\n      and\n      swap2\n      tag_176\n      dup4\n      tag_177\n      jump\t// in\n    tag_176:\n      swap2\n      swap1\n      0x0100\n      exp\n      dup2\n      sload\n      dup2\n      0xffffffffffffffffffffffffffffffff\n      mul\n      not\n      and\n      swap1\n      dup4\n      0xffffffffffffffffffffffffffffffff\n      and\n      mul\n      or\n      swap1\n      sstore\n      pop\n      pop\n        /* \"contracts/Oracle.sol\":6951:6969  ReportingCleared() */\n      0x131fc6443e37553a3c958042fd059569756675c2d859c083e17ec4928c3c70fb\n      mload(0x40)\n      mload(0x40)\n      dup1\n      swap2\n      sub\n      swap1\n      log1\n        /* \"contracts/Oracle.sol\":6703:6977  function _clearReporting() internal {\r... */\n      jump\t// out\n        /* \"contracts/Oracle.sol\":7616:8691  function _getQuorumReport(\r... */\n    tag_142:\n        /* \"contracts/Oracle.sol\":7698:7702  bool */\n      0x00\n        /* \"contracts/Oracle.sol\":7830:7858  currentReportVariants.length */\n      dup1\n      sload\n        /* \"contracts/Oracle.sol\":7698:7702  bool */\n      dup2\n      swap1\n        /* \"contracts/Oracle.sol\":7884:7885  1 */\n      0x01\n        /* \"contracts/Oracle.sol\":7873:7885  _length == 1 */\n      dup2\n      eq\n        /* \"contracts/Oracle.sol\":7869:8056  if (_length == 1) {\r... */\n      iszero\n      tag_179\n      jumpi\n        /* \"contracts/Oracle.sol\":7949:7956  _quorum */\n      dup4\n        /* \"contracts/Oracle.sol\":7910:7945  currentReportVariants[0].getCount() */\n      tag_180\n        /* \"contracts/Oracle.sol\":7910:7931  currentReportVariants */\n      0x00\n        /* \"contracts/Oracle.sol\":7932:7933  0 */\n      dup1\n        /* \"contracts/Oracle.sol\":7910:7934  currentReportVariants[0] */\n      dup2\n      sload\n      dup2\n      lt\n      tag_91\n      jumpi\n      mstore(0x00, shl(0xe0, 0x4e487b71))\n      mstore(0x04, 0x32)\n      revert(0x00, 0x24)\n        /* \"contracts/Oracle.sol\":7910:7945  currentReportVariants[0].getCount() */\n    tag_180:\n        /* \"contracts/Oracle.sol\":7910:7956  currentReportVariants[0].getCount() >= _quorum */\n      0xff\n      and\n      lt\n      iszero\n        /* \"contracts/Oracle.sol\":7958:7959  0 */\n      0x00\n        /* \"contracts/Oracle.sol\":7902:7960  return (currentReportVariants[0].getCount() >= _quorum, 0) */\n      swap3\n      pop\n      swap3\n      pop\n      pop\n      jump(tag_132)\n        /* \"contracts/Oracle.sol\":7869:8056  if (_length == 1) {\r... */\n    tag_179:\n        /* \"contracts/Oracle.sol\":7982:7994  _length == 0 */\n      dup1\n        /* \"contracts/Oracle.sol\":7978:8056  if (_length == 0) {\r... */\n      tag_184\n      jumpi\n        /* \"contracts/Oracle.sol\":8019:8024  false */\n      0x00\n        /* \"contracts/Oracle.sol\":8026:8043  type(uint256).max */\n      0xffffffffffffffffffffffffffffffffffffffffffffffffffffffffffffffff\n        /* \"contracts/Oracle.sol\":8011:8044  return (false, type(uint256).max) */\n      swap3\n      pop\n      swap3\n      pop\n      pop\n      jump(tag_132)\n        /* \"contracts/Oracle.sol\":7978:8056  if (_length == 0) {\r... */\n    tag_184:\n        /* \"contracts/Oracle.sol\":8143:8157  uint256 maxind */\n      0x00\n        /* \"contracts/Oracle.sol\":8172:8186  uint256 repeat */\n      dup1\n        /* \"contracts/Oracle.sol\":8201:8214  uint16 maxval */\n      0x00\n        /* \"contracts/Oracle.sol\":8229:8239  uint16 cur */\n      dup1\n        /* \"contracts/Oracle.sol\":8259:8268  uint256 i */\n      0x00\n        /* \"contracts/Oracle.sol\":8254:8624  for (uint256 i = 0; i < _length; ++i) {\r... */\n    tag_185:\n        /* \"contracts/Oracle.sol\":8278:8285  _length */\n      dup6\n        /* \"contracts/Oracle.sol\":8274:8275  i */\n      dup2\n        /* \"contracts/Oracle.sol\":8274:8285  i < _length */\n      lt\n        /* \"contracts/Oracle.sol\":8254:8624  for (uint256 i = 0; i < _length; ++i) {\r... */\n      iszero\n      tag_186\n      jumpi\n        /* \"contracts/Oracle.sol\":8313:8348  currentReportVariants[i].getCount() */\n      tag_188\n        /* \"contracts/Oracle.sol\":8313:8334  currentReportVariants */\n      0x00\n        /* \"contracts/Oracle.sol\":8335:8336  i */\n      dup3\n        /* \"contracts/Oracle.sol\":8313:8337  currentReportVariants[i] */\n      dup2\n      sload\n      dup2\n      lt\n      tag_91\n      jumpi\n      mstore(0x00, shl(0xe0, 0x4e487b71))\n      mstore(0x04, 0x32)\n      revert(0x00, 0x24)\n        /* \"contracts/Oracle.sol\":8313:8348  currentReportVariants[i].getCount() */\n    tag_188:\n        /* \"contracts/Oracle.sol\":8307:8348  cur = currentReportVariants[i].getCount() */\n      0xff\n      and\n      swap2\n      pop\n        /* \"contracts/Oracle.sol\":8367:8380  cur >= maxval */\n      0xffff\n      dup4\n      and\n      dup3\n      lt\n        /* \"contracts/Oracle.sol\":8363:8613  if (cur >= maxval) {\r... */\n      tag_194\n      jumpi\n        /* \"contracts/Oracle.sol\":8412:8418  maxval */\n      dup3\n        /* \"contracts/Oracle.sol\":8405:8418  cur == maxval */\n      0xffff\n      and\n        /* \"contracts/Oracle.sol\":8405:8408  cur */\n      dup3\n        /* \"contracts/Oracle.sol\":8405:8418  cur == maxval */\n      0xffff\n      and\n      eq\n        /* \"contracts/Oracle.sol\":8401:8598  if (cur == maxval) {\r... */\n      iszero\n      tag_192\n      jumpi\n        /* \"contracts/Oracle.sol\":8443:8451  ++repeat */\n      tag_193\n      dup5\n      tag_66\n      jump\t// in\n    tag_193:\n      swap4\n      pop\n        /* \"contracts/Oracle.sol\":8401:8598  if (cur == maxval) {\r... */\n      jump(tag_194)\n    tag_192:\n        /* \"contracts/Oracle.sol\":8509:8510  i */\n      dup1\n        /* \"contracts/Oracle.sol\":8500:8510  maxind = i */\n      swap5\n      pop\n        /* \"contracts/Oracle.sol\":8542:8545  cur */\n      dup2\n        /* \"contracts/Oracle.sol\":8533:8545  maxval = cur */\n      swap3\n      pop\n        /* \"contracts/Oracle.sol\":8577:8578  0 */\n      0x00\n        /* \"contracts/Oracle.sol\":8568:8578  repeat = 0 */\n      swap4\n      pop\n        /* \"contracts/Oracle.sol\":8401:8598  if (cur == maxval) {\r... */\n    tag_194:\n        /* \"contracts/Oracle.sol\":8287:8290  ++i */\n      tag_195\n      dup2\n      tag_66\n      jump\t// in\n    tag_195:\n      swap1\n      pop\n        /* \"contracts/Oracle.sol\":8254:8624  for (uint256 i = 0; i < _length; ++i) {\r... */\n      jump(tag_185)\n    tag_186:\n      pop\n        /* \"contracts/Oracle.sol\":8652:8659  _quorum */\n      dup8\n        /* \"contracts/Oracle.sol\":8642:8648  maxval */\n      dup3\n        /* \"contracts/Oracle.sol\":8642:8659  maxval >= _quorum */\n      0xffff\n      and\n      lt\n      iszero\n        /* \"contracts/Oracle.sol\":8642:8674  maxval >= _quorum && repeat == 0 */\n      dup1\n      iszero\n      tag_196\n      jumpi\n      pop\n        /* \"contracts/Oracle.sol\":8663:8674  repeat == 0 */\n      dup3\n      iszero\n        /* \"contracts/Oracle.sol\":8642:8674  maxval >= _quorum && repeat == 0 */\n    tag_196:\n        /* \"contracts/Oracle.sol\":8634:8683  return (maxval >= _quorum && repeat == 0, maxind) */\n      swap7\n      pop\n        /* \"contracts/Oracle.sol\":8676:8682  maxind */\n      swap3\n      swap5\n      pop\n      pop\n      pop\n      pop\n      pop\n        /* \"contracts/Oracle.sol\":7616:8691  function _getQuorumReport(\r... */\n      swap2\n      pop\n      swap2\n      jump\t// out\n        /* \"contracts/Oracle.sol\":6415:6626  function _getStakeReport(\r... */\n    tag_145:\n        /* \"contracts/Oracle.sol\":6556:6570  currentReports */\n      0x01\n        /* \"contracts/Oracle.sol\":6556:6577  currentReports.length */\n      sload\n        /* \"contracts/Oracle.sol\":6495:6527  Types.OracleData storage staking */\n      0x00\n      swap1\n        /* \"contracts/Oracle.sol\":6547:6577  _index < currentReports.length */\n      dup3\n      lt\n        /* \"contracts/Oracle.sol\":6540:6578  assert(_index < currentReports.length) */\n      tag_198\n      jumpi\n      mstore(0x00, shl(0xe0, 0x4e487b71))\n      mstore(0x04, 0x01)\n      revert(0x00, 0x24)\n    tag_198:\n        /* \"contracts/Oracle.sol\":6596:6610  currentReports */\n      0x01\n        /* \"contracts/Oracle.sol\":6611:6617  _index */\n      dup3\n        /* \"contracts/Oracle.sol\":6596:6618  currentReports[_index] */\n      dup2\n      sload\n      dup2\n      lt\n      tag_199\n      jumpi\n      mstore(0x00, shl(0xe0, 0x4e487b71))\n      mstore(0x04, 0x32)\n      revert(0x00, 0x24)\n    tag_199:\n      swap1\n      0x00\n      mstore\n      keccak256(0x00, 0x20)\n      swap1\n      0x06\n      mul\n      add\n        /* \"contracts/Oracle.sol\":6589:6618  return currentReports[_index] */\n      swap1\n      pop\n        /* \"contracts/Oracle.sol\":6415:6626  function _getStakeReport(\r... */\n      swap2\n      swap1\n      pop\n      jump\t// out\n    tag_173:\n      pop\n      dup1\n      sload\n      0x00\n      dup3\n      sstore\n      swap1\n      0x00\n      mstore\n      keccak256(0x00, 0x20)\n      swap1\n      dup2\n      add\n      swap1\n      tag_202\n      swap2\n      swap1\n      tag_203\n      jump\t// in\n    tag_202:\n      pop\n      jump\t// out\n    tag_175:\n      pop\n      dup1\n      sload\n      0x00\n      dup3\n      sstore\n      0x06\n      mul\n      swap1\n      0x00\n      mstore\n      keccak256(0x00, 0x20)\n      swap1\n      dup2\n      add\n      swap1\n      tag_202\n      swap2\n      swap1\n      tag_206\n      jump\t// in\n    tag_203:\n    tag_207:\n      dup1\n      dup3\n      gt\n      iszero\n      tag_208\n      jumpi\n      0x00\n      dup2\n      sstore\n      0x01\n      add\n      jump(tag_207)\n    tag_208:\n      pop\n      swap1\n      jump\t// out\n    tag_206:\n      dup1\n      dup3\n      gt\n      iszero\n      tag_208\n      jumpi\n      0x00\n      dup1\n      dup3\n      sstore\n      0x01\n      dup3\n      add\n      dup2\n      swap1\n      sstore\n      0x02\n      dup3\n      add\n      dup1\n      sload\n      0xffffffffffffffffffffffffffffffff00000000000000000000000000000000\n      and\n      swap1\n      sstore\n      0x03\n      dup3\n      add\n      dup2\n      swap1\n      sstore\n      0x04\n      dup3\n      add\n      dup2\n      swap1\n      sstore\n      tag_211\n      0x05\n      dup4\n      add\n      dup3\n      tag_212\n      jump\t// in\n    tag_211:\n      pop\n      0x06\n      add\n      jump(tag_206)\n    tag_212:\n      pop\n      dup1\n      sload\n      0x00\n      dup3\n      sstore\n      0x05\n      mul\n      swap1\n      0x00\n      mstore\n      keccak256(0x00, 0x20)\n      swap1\n      dup2\n      add\n      swap1\n      tag_202\n      swap2\n      swap1\n    tag_215:\n      dup1\n      dup3\n      gt\n      iszero\n      tag_208\n      jumpi\n      dup1\n      sload\n      0xffffffffffffffffffffffff0000000000000000000000000000000000000000\n      and\n      dup2\n      sstore\n      0x01\n      dup2\n      add\n      dup1\n      sload\n      0xffffffffffffffffffffffffffffff0000000000000000000000000000000000\n      and\n      swap1\n      sstore\n      0x00\n      0x02\n      dup3\n      add\n      dup2\n      swap1\n      sstore\n      0x03\n      dup3\n      add\n      dup2\n      swap1\n      sstore\n      tag_218\n      0x04\n      dup4\n      add\n      dup3\n      tag_219\n      jump\t// in\n    tag_218:\n      pop\n      0x05\n      add\n      jump(tag_215)\n    tag_219:\n      pop\n      dup1\n      sload\n      0x00\n      dup3\n      sstore\n      0x02\n      mul\n      swap1\n      0x00\n      mstore\n      keccak256(0x00, 0x20)\n      swap1\n      dup2\n      add\n      swap1\n      tag_202\n      swap2\n      swap1\n    tag_223:\n      dup1\n      dup3\n      gt\n      iszero\n      tag_208\n      jumpi\n      dup1\n      sload\n      0xffffffffffffffffffffffff0000000000000000000000000000000000000000\n      and\n      dup2\n      sstore\n      0x00\n      0x01\n      dup3\n      add\n      sstore\n      0x02\n      add\n      jump(tag_223)\n        /* \"#utility.yul\":14:1709   */\n    tag_226:\n      0x00\n        /* \"#utility.yul\":133:136   */\n      dup3\n        /* \"#utility.yul\":126:130   */\n      0x1f\n        /* \"#utility.yul\":118:124   */\n      dup4\n        /* \"#utility.yul\":114:131   */\n      add\n        /* \"#utility.yul\":110:137   */\n      slt\n        /* \"#utility.yul\":100:102   */\n      tag_228\n      jumpi\n        /* \"#utility.yul\":155:160   */\n      dup1\n        /* \"#utility.yul\":148:153   */\n      dup2\n        /* \"#utility.yul\":141:161   */\n      revert\n        /* \"#utility.yul\":100:102   */\n    tag_228:\n        /* \"#utility.yul\":195:201   */\n      dup2\n        /* \"#utility.yul\":182:202   */\n      calldataload\n        /* \"#utility.yul\":221:225   */\n      0x20\n        /* \"#utility.yul\":245:317   */\n      tag_229\n        /* \"#utility.yul\":261:316   */\n      tag_230\n        /* \"#utility.yul\":313:315   */\n      dup4\n        /* \"#utility.yul\":261:316   */\n      tag_231\n      jump\t// in\n    tag_230:\n        /* \"#utility.yul\":245:317   */\n      tag_232\n      jump\t// in\n    tag_229:\n        /* \"#utility.yul\":351:366   */\n      dup3\n      dup2\n      mstore\n        /* \"#utility.yul\":382:394   */\n      dup2\n      dup2\n      add\n      swap1\n        /* \"#utility.yul\":414:429   */\n      dup6\n      dup4\n      add\n        /* \"#utility.yul\":447:452   */\n      dup6\n        /* \"#utility.yul\":461:1680   */\n    tag_233:\n        /* \"#utility.yul\":475:477   */\n      dup6\n        /* \"#utility.yul\":472:473   */\n      dup2\n        /* \"#utility.yul\":469:478   */\n      lt\n        /* \"#utility.yul\":461:1680   */\n      iszero\n      tag_235\n      jumpi\n        /* \"#utility.yul\":555:558   */\n      dup2\n        /* \"#utility.yul\":542:559   */\n      calldataload\n        /* \"#utility.yul\":534:540   */\n      dup9\n        /* \"#utility.yul\":530:560   */\n      add\n        /* \"#utility.yul\":583:587   */\n      0xc0\n        /* \"#utility.yul\":694:696   */\n      dup1\n        /* \"#utility.yul\":625:691   */\n      0xffffffffffffffffffffffffffffffffffffffffffffffffffffffffffffffe0\n        /* \"#utility.yul\":620:622   */\n      dup4\n        /* \"#utility.yul\":615:618   */\n      dup14\n        /* \"#utility.yul\":611:623   */\n      sub\n        /* \"#utility.yul\":607:692   */\n      add\n        /* \"#utility.yul\":603:697   */\n      slt\n        /* \"#utility.yul\":600:602   */\n      iszero\n      tag_236\n      jumpi\n        /* \"#utility.yul\":714:719   */\n      dup9\n        /* \"#utility.yul\":707:712   */\n      dup10\n        /* \"#utility.yul\":700:720   */\n      revert\n        /* \"#utility.yul\":600:602   */\n    tag_236:\n        /* \"#utility.yul\":748:767   */\n      tag_237\n        /* \"#utility.yul\":764:766   */\n      dup2\n        /* \"#utility.yul\":748:767   */\n      tag_232\n      jump\t// in\n    tag_237:\n        /* \"#utility.yul\":816:818   */\n      dup8\n        /* \"#utility.yul\":812:814   */\n      dup4\n        /* \"#utility.yul\":808:819   */\n      add\n        /* \"#utility.yul\":795:820   */\n      calldataload\n        /* \"#utility.yul\":833:866   */\n      tag_238\n        /* \"#utility.yul\":858:865   */\n      dup2\n        /* \"#utility.yul\":833:866   */\n      tag_239\n      jump\t// in\n    tag_238:\n        /* \"#utility.yul\":879:901   */\n      dup2\n      mstore\n        /* \"#utility.yul\":924:926   */\n      0x40\n        /* \"#utility.yul\":967:978   */\n      dup4\n      dup2\n      add\n        /* \"#utility.yul\":954:979   */\n      calldataload\n        /* \"#utility.yul\":992:1025   */\n      tag_240\n        /* \"#utility.yul\":954:979   */\n      dup2\n        /* \"#utility.yul\":992:1025   */\n      tag_241\n      jump\t// in\n    tag_240:\n        /* \"#utility.yul\":1045:1059   */\n      dup3\n      dup11\n      add\n        /* \"#utility.yul\":1038:1069   */\n      mstore\n        /* \"#utility.yul\":1092:1094   */\n      0x60\n        /* \"#utility.yul\":1130:1158   */\n      tag_242\n        /* \"#utility.yul\":1146:1157   */\n      dup6\n      dup3\n      add\n        /* \"#utility.yul\":1130:1158   */\n      tag_243\n      jump\t// in\n    tag_242:\n        /* \"#utility.yul\":1125:1127   */\n      dup3\n        /* \"#utility.yul\":1118:1123   */\n      dup5\n        /* \"#utility.yul\":1114:1128   */\n      add\n        /* \"#utility.yul\":1107:1159   */\n      mstore\n        /* \"#utility.yul\":1182:1185   */\n      0x80\n        /* \"#utility.yul\":1172:1185   */\n      swap2\n      pop\n        /* \"#utility.yul\":1242:1244   */\n      dup2\n        /* \"#utility.yul\":1238:1240   */\n      dup6\n        /* \"#utility.yul\":1234:1245   */\n      add\n        /* \"#utility.yul\":1221:1246   */\n      calldataload\n        /* \"#utility.yul\":1216:1218   */\n      dup2\n        /* \"#utility.yul\":1209:1214   */\n      dup5\n        /* \"#utility.yul\":1205:1219   */\n      add\n        /* \"#utility.yul\":1198:1247   */\n      mstore\n      pop\n        /* \"#utility.yul\":1270:1273   */\n      0xa0\n        /* \"#utility.yul\":1330:1332   */\n      dup1\n        /* \"#utility.yul\":1326:1328   */\n      dup6\n        /* \"#utility.yul\":1322:1333   */\n      add\n        /* \"#utility.yul\":1309:1334   */\n      calldataload\n        /* \"#utility.yul\":1304:1306   */\n      dup3\n        /* \"#utility.yul\":1297:1302   */\n      dup5\n        /* \"#utility.yul\":1293:1307   */\n      add\n        /* \"#utility.yul\":1286:1335   */\n      mstore\n        /* \"#utility.yul\":1385:1387   */\n      dup4\n        /* \"#utility.yul\":1381:1383   */\n      dup6\n        /* \"#utility.yul\":1377:1388   */\n      add\n        /* \"#utility.yul\":1364:1389   */\n      calldataload\n        /* \"#utility.yul\":1348:1389   */\n      swap4\n      pop\n        /* \"#utility.yul\":1418:1436   */\n      0xffffffffffffffff\n        /* \"#utility.yul\":1408:1416   */\n      dup5\n        /* \"#utility.yul\":1405:1437   */\n      gt\n        /* \"#utility.yul\":1402:1404   */\n      iszero\n      tag_244\n      jumpi\n        /* \"#utility.yul\":1454:1459   */\n      dup12\n        /* \"#utility.yul\":1447:1452   */\n      dup13\n        /* \"#utility.yul\":1440:1460   */\n      revert\n        /* \"#utility.yul\":1402:1404   */\n    tag_244:\n        /* \"#utility.yul\":1498:1574   */\n      tag_245\n        /* \"#utility.yul\":1570:1573   */\n      dup15\n        /* \"#utility.yul\":1565:1567   */\n      dup12\n        /* \"#utility.yul\":1554:1562   */\n      dup7\n        /* \"#utility.yul\":1550:1552   */\n      dup9\n        /* \"#utility.yul\":1546:1563   */\n      add\n        /* \"#utility.yul\":1542:1568   */\n      add\n        /* \"#utility.yul\":1498:1574   */\n      tag_246\n      jump\t// in\n    tag_245:\n        /* \"#utility.yul\":1482:1496   */\n      swap1\n      dup4\n      add\n        /* \"#utility.yul\":1475:1575   */\n      mstore\n      pop\n        /* \"#utility.yul\":1588:1606   */\n      dup7\n      mstore\n      pop\n      pop\n        /* \"#utility.yul\":1626:1638   */\n      swap3\n      dup5\n      add\n      swap3\n        /* \"#utility.yul\":1658:1670   */\n      swap1\n      dup5\n      add\n      swap1\n        /* \"#utility.yul\":493:494   */\n      0x01\n        /* \"#utility.yul\":486:495   */\n      add\n        /* \"#utility.yul\":461:1680   */\n      jump(tag_233)\n    tag_235:\n      pop\n        /* \"#utility.yul\":1698:1703   */\n      swap1\n      swap8\n        /* \"#utility.yul\":90:1709   */\n      swap7\n      pop\n      pop\n      pop\n      pop\n      pop\n      pop\n      pop\n      jump\t// out\n        /* \"#utility.yul\":1714:2746   */\n    tag_246:\n      0x00\n        /* \"#utility.yul\":1836:1839   */\n      dup3\n        /* \"#utility.yul\":1829:1833   */\n      0x1f\n        /* \"#utility.yul\":1821:1827   */\n      dup4\n        /* \"#utility.yul\":1817:1834   */\n      add\n        /* \"#utility.yul\":1813:1840   */\n      slt\n        /* \"#utility.yul\":1803:1805   */\n      tag_248\n      jumpi\n        /* \"#utility.yul\":1858:1863   */\n      dup1\n        /* \"#utility.yul\":1851:1856   */\n      dup2\n        /* \"#utility.yul\":1844:1864   */\n      revert\n        /* \"#utility.yul\":1803:1805   */\n    tag_248:\n        /* \"#utility.yul\":1898:1904   */\n      dup2\n        /* \"#utility.yul\":1885:1905   */\n      calldataload\n        /* \"#utility.yul\":1924:1928   */\n      0x20\n        /* \"#utility.yul\":1948:2020   */\n      tag_249\n        /* \"#utility.yul\":1964:2019   */\n      tag_230\n        /* \"#utility.yul\":2016:2018   */\n      dup4\n        /* \"#utility.yul\":1964:2019   */\n      tag_231\n      jump\t// in\n        /* \"#utility.yul\":1948:2020   */\n    tag_249:\n        /* \"#utility.yul\":2042:2045   */\n      dup1\n        /* \"#utility.yul\":2066:2068   */\n      dup4\n        /* \"#utility.yul\":2061:2064   */\n      dup3\n        /* \"#utility.yul\":2054:2069   */\n      mstore\n        /* \"#utility.yul\":2094:2096   */\n      dup3\n        /* \"#utility.yul\":2089:2092   */\n      dup3\n        /* \"#utility.yul\":2085:2097   */\n      add\n        /* \"#utility.yul\":2078:2097   */\n      swap2\n      pop\n        /* \"#utility.yul\":2129:2131   */\n      dup3\n        /* \"#utility.yul\":2121:2127   */\n      dup7\n        /* \"#utility.yul\":2117:2132   */\n      add\n        /* \"#utility.yul\":2181:2184   */\n      dup8\n        /* \"#utility.yul\":2176:2178   */\n      dup5\n        /* \"#utility.yul\":2170:2172   */\n      dup7\n        /* \"#utility.yul\":2167:2168   */\n      0x06\n        /* \"#utility.yul\":2163:2173   */\n      shl\n        /* \"#utility.yul\":2155:2161   */\n      dup10\n        /* \"#utility.yul\":2151:2174   */\n      add\n        /* \"#utility.yul\":2147:2179   */\n      add\n        /* \"#utility.yul\":2144:2185   */\n      gt\n        /* \"#utility.yul\":2141:2143   */\n      iszero\n      tag_251\n      jumpi\n        /* \"#utility.yul\":2202:2207   */\n      dup6\n        /* \"#utility.yul\":2195:2200   */\n      dup7\n        /* \"#utility.yul\":2188:2208   */\n      revert\n        /* \"#utility.yul\":2141:2143   */\n    tag_251:\n        /* \"#utility.yul\":2228:2233   */\n      dup6\n        /* \"#utility.yul\":2242:2717   */\n    tag_252:\n        /* \"#utility.yul\":2256:2258   */\n      dup6\n        /* \"#utility.yul\":2253:2254   */\n      dup2\n        /* \"#utility.yul\":2250:2259   */\n      lt\n        /* \"#utility.yul\":2242:2717   */\n      iszero\n      tag_235\n      jumpi\n        /* \"#utility.yul\":2311:2315   */\n      0x40\n        /* \"#utility.yul\":2350:2352   */\n      dup1\n        /* \"#utility.yul\":2344:2347   */\n      dup4\n        /* \"#utility.yul\":2339:2342   */\n      dup12\n        /* \"#utility.yul\":2335:2348   */\n      sub\n        /* \"#utility.yul\":2331:2353   */\n      slt\n        /* \"#utility.yul\":2328:2330   */\n      iszero\n      tag_255\n      jumpi\n        /* \"#utility.yul\":2370:2375   */\n      dup8\n        /* \"#utility.yul\":2363:2368   */\n      dup9\n        /* \"#utility.yul\":2356:2376   */\n      revert\n        /* \"#utility.yul\":2328:2330   */\n    tag_255:\n        /* \"#utility.yul\":2404:2423   */\n      tag_256\n        /* \"#utility.yul\":2420:2422   */\n      dup2\n        /* \"#utility.yul\":2404:2423   */\n      tag_232\n      jump\t// in\n    tag_256:\n        /* \"#utility.yul\":2464:2467   */\n      dup4\n        /* \"#utility.yul\":2451:2468   */\n      calldataload\n        /* \"#utility.yul\":2481:2514   */\n      tag_257\n        /* \"#utility.yul\":2506:2513   */\n      dup2\n        /* \"#utility.yul\":2481:2514   */\n      tag_239\n      jump\t// in\n    tag_257:\n        /* \"#utility.yul\":2527:2549   */\n      dup2\n      mstore\n        /* \"#utility.yul\":2598:2610   */\n      dup4\n      dup8\n      add\n        /* \"#utility.yul\":2585:2611   */\n      calldataload\n        /* \"#utility.yul\":2569:2583   */\n      dup8\n      dup3\n      add\n        /* \"#utility.yul\":2562:2612   */\n      mstore\n        /* \"#utility.yul\":2625:2643   */\n      dup6\n      mstore\n        /* \"#utility.yul\":2663:2675   */\n      swap4\n      dup6\n      add\n      swap4\n        /* \"#utility.yul\":2695:2707   */\n      swap1\n      swap2\n      add\n      swap1\n        /* \"#utility.yul\":2274:2275   */\n      0x01\n        /* \"#utility.yul\":2267:2276   */\n      add\n        /* \"#utility.yul\":2242:2717   */\n      jump(tag_252)\n        /* \"#utility.yul\":2751:2879   */\n    tag_243:\n        /* \"#utility.yul\":2816:2836   */\n      dup1\n      calldataload\n        /* \"#utility.yul\":2845:2873   */\n      tag_154\n        /* \"#utility.yul\":2816:2836   */\n      dup2\n        /* \"#utility.yul\":2845:2873   */\n      tag_260\n      jump\t// in\n        /* \"#utility.yul\":2884:3018   */\n    tag_261:\n        /* \"#utility.yul\":2952:2972   */\n      dup1\n      calldataload\n        /* \"#utility.yul\":2981:3012   */\n      tag_154\n        /* \"#utility.yul\":2952:2972   */\n      dup2\n        /* \"#utility.yul\":2981:3012   */\n      tag_241\n      jump\t// in\n        /* \"#utility.yul\":3023:3423   */\n    tag_16:\n      0x00\n      dup1\n        /* \"#utility.yul\":3157:3159   */\n      0x40\n        /* \"#utility.yul\":3145:3154   */\n      dup4\n        /* \"#utility.yul\":3136:3143   */\n      dup6\n        /* \"#utility.yul\":3132:3155   */\n      sub\n        /* \"#utility.yul\":3128:3160   */\n      slt\n        /* \"#utility.yul\":3125:3127   */\n      iszero\n      tag_265\n      jumpi\n        /* \"#utility.yul\":3178:3184   */\n      dup2\n        /* \"#utility.yul\":3170:3176   */\n      dup3\n        /* \"#utility.yul\":3163:3185   */\n      revert\n        /* \"#utility.yul\":3125:3127   */\n    tag_265:\n        /* \"#utility.yul\":3222:3231   */\n      dup3\n        /* \"#utility.yul\":3209:3232   */\n      calldataload\n        /* \"#utility.yul\":3241:3272   */\n      tag_266\n        /* \"#utility.yul\":3266:3271   */\n      dup2\n        /* \"#utility.yul\":3241:3272   */\n      tag_239\n      jump\t// in\n    tag_266:\n        /* \"#utility.yul\":3291:3296   */\n      swap2\n      pop\n        /* \"#utility.yul\":3348:3350   */\n      0x20\n        /* \"#utility.yul\":3333:3351   */\n      dup4\n      add\n        /* \"#utility.yul\":3320:3352   */\n      calldataload\n        /* \"#utility.yul\":3361:3391   */\n      tag_267\n        /* \"#utility.yul\":3320:3352   */\n      dup2\n        /* \"#utility.yul\":3361:3391   */\n      tag_260\n      jump\t// in\n    tag_267:\n        /* \"#utility.yul\":3410:3417   */\n      dup1\n        /* \"#utility.yul\":3400:3417   */\n      swap2\n      pop\n      pop\n        /* \"#utility.yul\":3115:3423   */\n      swap3\n      pop\n      swap3\n      swap1\n      pop\n      jump\t// out\n        /* \"#utility.yul\":3428:3834   */\n    tag_34:\n      0x00\n      dup1\n        /* \"#utility.yul\":3565:3567   */\n      0x40\n        /* \"#utility.yul\":3553:3562   */\n      dup4\n        /* \"#utility.yul\":3544:3551   */\n      dup6\n        /* \"#utility.yul\":3540:3563   */\n      sub\n        /* \"#utility.yul\":3536:3568   */\n      slt\n        /* \"#utility.yul\":3533:3535   */\n      iszero\n      tag_269\n      jumpi\n        /* \"#utility.yul\":3586:3592   */\n      dup2\n        /* \"#utility.yul\":3578:3584   */\n      dup3\n        /* \"#utility.yul\":3571:3593   */\n      revert\n        /* \"#utility.yul\":3533:3535   */\n    tag_269:\n        /* \"#utility.yul\":3630:3639   */\n      dup3\n        /* \"#utility.yul\":3617:3640   */\n      calldataload\n        /* \"#utility.yul\":3649:3680   */\n      tag_270\n        /* \"#utility.yul\":3674:3679   */\n      dup2\n        /* \"#utility.yul\":3649:3680   */\n      tag_239\n      jump\t// in\n    tag_270:\n        /* \"#utility.yul\":3699:3704   */\n      swap2\n      pop\n        /* \"#utility.yul\":3756:3758   */\n      0x20\n        /* \"#utility.yul\":3741:3759   */\n      dup4\n      add\n        /* \"#utility.yul\":3728:3760   */\n      calldataload\n        /* \"#utility.yul\":3769:3802   */\n      tag_267\n        /* \"#utility.yul\":3728:3760   */\n      dup2\n        /* \"#utility.yul\":3769:3802   */\n      tag_239\n      jump\t// in\n        /* \"#utility.yul\":3839:4029   */\n    tag_24:\n      0x00\n        /* \"#utility.yul\":3951:3953   */\n      0x20\n        /* \"#utility.yul\":3939:3948   */\n      dup3\n        /* \"#utility.yul\":3930:3937   */\n      dup5\n        /* \"#utility.yul\":3926:3949   */\n      sub\n        /* \"#utility.yul\":3922:3954   */\n      slt\n        /* \"#utility.yul\":3919:3921   */\n      iszero\n      tag_273\n      jumpi\n        /* \"#utility.yul\":3972:3978   */\n      dup1\n        /* \"#utility.yul\":3964:3970   */\n      dup2\n        /* \"#utility.yul\":3957:3979   */\n      revert\n        /* \"#utility.yul\":3919:3921   */\n    tag_273:\n      pop\n        /* \"#utility.yul\":4000:4023   */\n      calldataload\n      swap2\n        /* \"#utility.yul\":3909:4029   */\n      swap1\n      pop\n      jump\t// out\n        /* \"#utility.yul\":4034:5302   */\n    tag_30:\n      0x00\n      dup1\n      0x00\n      dup1\n      0x00\n      dup1\n      0x00\n      dup1\n        /* \"#utility.yul\":4267:4270   */\n      0x0100\n        /* \"#utility.yul\":4311:4313   */\n      dup1\n        /* \"#utility.yul\":4299:4308   */\n      dup11\n        /* \"#utility.yul\":4290:4297   */\n      dup13\n        /* \"#utility.yul\":4286:4309   */\n      sub\n        /* \"#utility.yul\":4282:4314   */\n      slt\n        /* \"#utility.yul\":4279:4281   */\n      iszero\n      tag_275\n      jumpi\n        /* \"#utility.yul\":4332:4338   */\n      dup5\n        /* \"#utility.yul\":4324:4330   */\n      dup6\n        /* \"#utility.yul\":4317:4339   */\n      revert\n        /* \"#utility.yul\":4279:4281   */\n    tag_275:\n        /* \"#utility.yul\":4373:4382   */\n      dup10\n        /* \"#utility.yul\":4360:4383   */\n      calldataload\n        /* \"#utility.yul\":4350:4383   */\n      swap9\n      pop\n        /* \"#utility.yul\":4430:4432   */\n      0x20\n        /* \"#utility.yul\":4419:4428   */\n      dup11\n        /* \"#utility.yul\":4415:4433   */\n      add\n        /* \"#utility.yul\":4402:4434   */\n      calldataload\n        /* \"#utility.yul\":4392:4434   */\n      swap8\n      pop\n        /* \"#utility.yul\":4484:4486   */\n      0x40\n        /* \"#utility.yul\":4473:4482   */\n      dup11\n        /* \"#utility.yul\":4469:4487   */\n      add\n        /* \"#utility.yul\":4456:4488   */\n      calldataload\n        /* \"#utility.yul\":4497:4528   */\n      tag_276\n        /* \"#utility.yul\":4522:4527   */\n      dup2\n        /* \"#utility.yul\":4497:4528   */\n      tag_241\n      jump\t// in\n    tag_276:\n        /* \"#utility.yul\":4547:4552   */\n      swap7\n      pop\n        /* \"#utility.yul\":4604:4606   */\n      0x60\n        /* \"#utility.yul\":4589:4607   */\n      dup11\n      add\n        /* \"#utility.yul\":4576:4608   */\n      calldataload\n        /* \"#utility.yul\":4617:4650   */\n      tag_277\n        /* \"#utility.yul\":4576:4608   */\n      dup2\n        /* \"#utility.yul\":4617:4650   */\n      tag_241\n      jump\t// in\n    tag_277:\n        /* \"#utility.yul\":4669:4676   */\n      swap6\n      pop\n        /* \"#utility.yul\":4727:4730   */\n      0x80\n        /* \"#utility.yul\":4712:4731   */\n      dup11\n      add\n        /* \"#utility.yul\":4699:4732   */\n      calldataload\n        /* \"#utility.yul\":4755:4773   */\n      0xffffffffffffffff\n        /* \"#utility.yul\":4744:4774   */\n      dup2\n      gt\n        /* \"#utility.yul\":4741:4743   */\n      iszero\n      tag_278\n      jumpi\n        /* \"#utility.yul\":4792:4798   */\n      dup6\n        /* \"#utility.yul\":4784:4790   */\n      dup7\n        /* \"#utility.yul\":4777:4799   */\n      revert\n        /* \"#utility.yul\":4741:4743   */\n    tag_278:\n        /* \"#utility.yul\":4820:4842   */\n      dup11\n      add\n        /* \"#utility.yul\":4858:4874   */\n      dup1\n      dup13\n      sub\n        /* \"#utility.yul\":4854:4879   */\n      dup3\n      sgt\n        /* \"#utility.yul\":4851:4853   */\n      iszero\n      tag_279\n      jumpi\n        /* \"#utility.yul\":4897:4903   */\n      dup6\n        /* \"#utility.yul\":4889:4895   */\n      dup7\n        /* \"#utility.yul\":4882:4904   */\n      revert\n        /* \"#utility.yul\":4851:4853   */\n    tag_279:\n        /* \"#utility.yul\":4925:4927   */\n      swap5\n      pop\n      pop\n        /* \"#utility.yul\":4979:4982   */\n      0xa0\n        /* \"#utility.yul\":4964:4983   */\n      dup10\n      add\n        /* \"#utility.yul\":4951:4984   */\n      calldataload\n        /* \"#utility.yul\":4993:5026   */\n      tag_280\n        /* \"#utility.yul\":4951:4984   */\n      dup2\n        /* \"#utility.yul\":4993:5026   */\n      tag_239\n      jump\t// in\n    tag_280:\n        /* \"#utility.yul\":5045:5052   */\n      swap3\n      pop\n        /* \"#utility.yul\":5104:5107   */\n      0xc0\n        /* \"#utility.yul\":5089:5108   */\n      dup10\n      add\n        /* \"#utility.yul\":5076:5109   */\n      calldataload\n        /* \"#utility.yul\":5118:5148   */\n      tag_281\n        /* \"#utility.yul\":5076:5109   */\n      dup2\n        /* \"#utility.yul\":5118:5148   */\n      tag_260\n      jump\t// in\n    tag_281:\n        /* \"#utility.yul\":5167:5174   */\n      swap2\n      pop\n        /* \"#utility.yul\":5226:5229   */\n      0xe0\n        /* \"#utility.yul\":5211:5230   */\n      dup10\n      add\n        /* \"#utility.yul\":5198:5231   */\n      calldataload\n        /* \"#utility.yul\":5240:5270   */\n      tag_282\n        /* \"#utility.yul\":5198:5231   */\n      dup2\n        /* \"#utility.yul\":5240:5270   */\n      tag_260\n      jump\t// in\n    tag_282:\n        /* \"#utility.yul\":5289:5296   */\n      dup1\n        /* \"#utility.yul\":5279:5296   */\n      swap2\n      pop\n      pop\n        /* \"#utility.yul\":4247:5302   */\n      swap3\n      swap6\n      swap9\n      pop\n      swap3\n      swap6\n      swap9\n      swap1\n      swap4\n      swap7\n      pop\n      jump\t// out\n        /* \"#utility.yul\":5307:5737   */\n    tag_45:\n      0x00\n      dup1\n        /* \"#utility.yul\":5434:5436   */\n      0x40\n        /* \"#utility.yul\":5422:5431   */\n      dup4\n        /* \"#utility.yul\":5413:5420   */\n      dup6\n        /* \"#utility.yul\":5409:5432   */\n      sub\n        /* \"#utility.yul\":5405:5437   */\n      slt\n        /* \"#utility.yul\":5402:5404   */\n      iszero\n      tag_284\n      jumpi\n        /* \"#utility.yul\":5455:5461   */\n      dup2\n        /* \"#utility.yul\":5447:5453   */\n      dup3\n        /* \"#utility.yul\":5440:5462   */\n      revert\n        /* \"#utility.yul\":5402:5404   */\n    tag_284:\n        /* \"#utility.yul\":5499:5508   */\n      dup3\n        /* \"#utility.yul\":5486:5509   */\n      calldataload\n        /* \"#utility.yul\":5549:5553   */\n      0xff\n        /* \"#utility.yul\":5542:5547   */\n      dup2\n        /* \"#utility.yul\":5538:5554   */\n      and\n        /* \"#utility.yul\":5531:5536   */\n      dup2\n        /* \"#utility.yul\":5528:5555   */\n      eq\n        /* \"#utility.yul\":5518:5520   */\n      tag_285\n      jumpi\n        /* \"#utility.yul\":5574:5580   */\n      dup3\n        /* \"#utility.yul\":5566:5572   */\n      dup4\n        /* \"#utility.yul\":5559:5581   */\n      revert\n        /* \"#utility.yul\":5518:5520   */\n    tag_285:\n        /* \"#utility.yul\":5602:5607   */\n      swap2\n      pop\n        /* \"#utility.yul\":5659:5661   */\n      0x20\n        /* \"#utility.yul\":5644:5662   */\n      dup4\n      add\n        /* \"#utility.yul\":5631:5663   */\n      calldataload\n        /* \"#utility.yul\":5672:5705   */\n      tag_267\n        /* \"#utility.yul\":5631:5663   */\n      dup2\n        /* \"#utility.yul\":5672:5705   */\n      tag_241\n      jump\t// in\n        /* \"#utility.yul\":5882:7771   */\n    tag_289:\n      0x00\n        /* \"#utility.yul\":6003:6009   */\n      dup3\n        /* \"#utility.yul\":5998:6001   */\n      dup5\n        /* \"#utility.yul\":5991:6010   */\n      mstore\n        /* \"#utility.yul\":6029:6033   */\n      0x20\n        /* \"#utility.yul\":6070:6072   */\n      dup1\n        /* \"#utility.yul\":6065:6068   */\n      dup6\n        /* \"#utility.yul\":6061:6073   */\n      add\n        /* \"#utility.yul\":6095:6106   */\n      dup1\n        /* \"#utility.yul\":6122:6133   */\n      dup2\n        /* \"#utility.yul\":6115:6133   */\n      swap7\n      pop\n        /* \"#utility.yul\":6172:6178   */\n      dup6\n        /* \"#utility.yul\":6169:6170   */\n      0x05\n        /* \"#utility.yul\":6165:6179   */\n      shl\n        /* \"#utility.yul\":6158:6163   */\n      dup2\n        /* \"#utility.yul\":6154:6180   */\n      add\n        /* \"#utility.yul\":6142:6180   */\n      swap2\n      pop\n        /* \"#utility.yul\":6203:6208   */\n      dup5\n        /* \"#utility.yul\":6226:6229   */\n      dup5\n        /* \"#utility.yul\":6238:7745   */\n    tag_291:\n        /* \"#utility.yul\":6252:6258   */\n      dup8\n        /* \"#utility.yul\":6249:6250   */\n      dup2\n        /* \"#utility.yul\":6246:6259   */\n      lt\n        /* \"#utility.yul\":6238:7745   */\n      iszero\n      tag_293\n      jumpi\n        /* \"#utility.yul\":6323:6328   */\n      dup3\n        /* \"#utility.yul\":6317:6321   */\n      dup5\n        /* \"#utility.yul\":6313:6329   */\n      sub\n        /* \"#utility.yul\":6308:6311   */\n      dup10\n        /* \"#utility.yul\":6301:6330   */\n      mstore\n        /* \"#utility.yul\":6382:6388   */\n      dup2\n        /* \"#utility.yul\":6369:6389   */\n      calldataload\n        /* \"#utility.yul\":6468:6534   */\n      0xffffffffffffffffffffffffffffffffffffffffffffffffffffffffffffff41\n        /* \"#utility.yul\":6460:6465   */\n      dup9\n        /* \"#utility.yul\":6444:6458   */\n      calldatasize\n        /* \"#utility.yul\":6440:6466   */\n      sub\n        /* \"#utility.yul\":6436:6535   */\n      add\n        /* \"#utility.yul\":6416:6434   */\n      dup2\n        /* \"#utility.yul\":6412:6536   */\n      slt\n        /* \"#utility.yul\":6402:6404   */\n      tag_294\n      jumpi\n        /* \"#utility.yul\":6552:6555   */\n      dup7\n        /* \"#utility.yul\":6547:6550   */\n      dup8\n        /* \"#utility.yul\":6540:6556   */\n      revert\n        /* \"#utility.yul\":6402:6404   */\n    tag_294:\n        /* \"#utility.yul\":6586:6616   */\n      dup8\n      add\n        /* \"#utility.yul\":6639:6643   */\n      0xc0\n        /* \"#utility.yul\":6671:6692   */\n      dup2\n      calldataload\n        /* \"#utility.yul\":6705:6738   */\n      tag_295\n        /* \"#utility.yul\":6671:6692   */\n      dup2\n        /* \"#utility.yul\":6705:6738   */\n      tag_239\n      jump\t// in\n    tag_295:\n        /* \"#utility.yul\":6777:6819   */\n      0xffffffffffffffffffffffffffffffffffffffff\n        /* \"#utility.yul\":6764:6820   */\n      and\n        /* \"#utility.yul\":6751:6821   */\n      dup7\n      mstore\n        /* \"#utility.yul\":6862:6878   */\n      dup2\n      dup8\n      add\n        /* \"#utility.yul\":6849:6879   */\n      calldataload\n        /* \"#utility.yul\":6892:6925   */\n      tag_296\n        /* \"#utility.yul\":6849:6879   */\n      dup2\n        /* \"#utility.yul\":6892:6925   */\n      tag_241\n      jump\t// in\n    tag_296:\n        /* \"#utility.yul\":6973:7007   */\n      0xffffffffffffffffffffffffffffffff\n        /* \"#utility.yul\":6960:7008   */\n      and\n        /* \"#utility.yul\":6945:6958   */\n      dup7\n      dup9\n      add\n        /* \"#utility.yul\":6938:7009   */\n      mstore\n        /* \"#utility.yul\":7032:7036   */\n      0x40\n        /* \"#utility.yul\":7064:7097   */\n      tag_297\n        /* \"#utility.yul\":7080:7096   */\n      dup4\n      dup3\n      add\n        /* \"#utility.yul\":7064:7097   */\n      tag_243\n      jump\t// in\n    tag_297:\n        /* \"#utility.yul\":10355:10368   */\n      iszero\n        /* \"#utility.yul\":10348:10369   */\n      iszero\n        /* \"#utility.yul\":7135:7148   */\n      swap1\n      dup8\n      add\n        /* \"#utility.yul\":10336:10370   */\n      mstore\n        /* \"#utility.yul\":7172:7176   */\n      0x60\n        /* \"#utility.yul\":7224:7240   */\n      dup3\n      dup2\n      add\n        /* \"#utility.yul\":7211:7241   */\n      calldataload\n        /* \"#utility.yul\":7196:7209   */\n      swap1\n      dup8\n      add\n        /* \"#utility.yul\":7189:7242   */\n      mstore\n        /* \"#utility.yul\":7265:7269   */\n      0x80\n        /* \"#utility.yul\":7317:7333   */\n      dup1\n      dup4\n      add\n        /* \"#utility.yul\":7304:7334   */\n      calldataload\n        /* \"#utility.yul\":7289:7302   */\n      swap1\n      dup8\n      add\n        /* \"#utility.yul\":7282:7335   */\n      mstore\n        /* \"#utility.yul\":7358:7362   */\n      0xa0\n        /* \"#utility.yul\":7409:7502   */\n      tag_300\n        /* \"#utility.yul\":7485:7501   */\n      dup2\n      dup5\n      add\n        /* \"#utility.yul\":7224:7240   */\n      dup5\n        /* \"#utility.yul\":7409:7502   */\n      tag_301\n      jump\t// in\n    tag_300:\n        /* \"#utility.yul\":7375:7502   */\n      swap4\n      pop\n        /* \"#utility.yul\":7537:7539   */\n      dup3\n        /* \"#utility.yul\":7532:7534   */\n      dup3\n        /* \"#utility.yul\":7526:7530   */\n      dup10\n        /* \"#utility.yul\":7522:7535   */\n      add\n        /* \"#utility.yul\":7515:7540   */\n      mstore\n        /* \"#utility.yul\":7561:7665   */\n      tag_302\n        /* \"#utility.yul\":7661:7663   */\n      dup4\n        /* \"#utility.yul\":7655:7659   */\n      dup10\n        /* \"#utility.yul\":7651:7664   */\n      add\n        /* \"#utility.yul\":7637:7649   */\n      dup6\n        /* \"#utility.yul\":7623:7635   */\n      dup4\n        /* \"#utility.yul\":7561:7665   */\n      tag_303\n      jump\t// in\n    tag_302:\n        /* \"#utility.yul\":7723:7735   */\n      swap13\n      dup10\n      add\n      swap13\n        /* \"#utility.yul\":7553:7665   */\n      swap8\n      pop\n      pop\n      pop\n        /* \"#utility.yul\":7688:7703   */\n      swap3\n      dup7\n      add\n      swap3\n      pop\n      pop\n        /* \"#utility.yul\":6274:6275   */\n      0x01\n        /* \"#utility.yul\":6267:6276   */\n      add\n        /* \"#utility.yul\":6238:7745   */\n      jump(tag_291)\n    tag_293:\n      pop\n        /* \"#utility.yul\":7761:7765   */\n      swap2\n      swap8\n        /* \"#utility.yul\":5981:7771   */\n      swap7\n      pop\n      pop\n      pop\n      pop\n      pop\n      pop\n      pop\n      jump\t// out\n        /* \"#utility.yul\":7776:9613   */\n    tag_304:\n      0x00\n        /* \"#utility.yul\":7879:7884   */\n      dup2\n        /* \"#utility.yul\":7873:7885   */\n      mload\n        /* \"#utility.yul\":7906:7912   */\n      dup1\n        /* \"#utility.yul\":7901:7904   */\n      dup5\n        /* \"#utility.yul\":7894:7913   */\n      mstore\n        /* \"#utility.yul\":7932:7936   */\n      0x20\n        /* \"#utility.yul\":7973:7975   */\n      dup1\n        /* \"#utility.yul\":7968:7971   */\n      dup6\n        /* \"#utility.yul\":7964:7976   */\n      add\n        /* \"#utility.yul\":7998:8009   */\n      dup1\n        /* \"#utility.yul\":8025:8036   */\n      dup2\n        /* \"#utility.yul\":8018:8036   */\n      swap7\n      pop\n        /* \"#utility.yul\":8075:8081   */\n      dup4\n        /* \"#utility.yul\":8072:8073   */\n      0x05\n        /* \"#utility.yul\":8068:8082   */\n      shl\n        /* \"#utility.yul\":8061:8066   */\n      dup2\n        /* \"#utility.yul\":8057:8083   */\n      add\n        /* \"#utility.yul\":8045:8083   */\n      swap2\n      pop\n        /* \"#utility.yul\":8117:8119   */\n      dup3\n        /* \"#utility.yul\":8110:8115   */\n      dup7\n        /* \"#utility.yul\":8106:8120   */\n      add\n        /* \"#utility.yul\":8138:8141   */\n      dup6\n        /* \"#utility.yul\":8150:9587   */\n    tag_306:\n        /* \"#utility.yul\":8164:8170   */\n      dup6\n        /* \"#utility.yul\":8161:8162   */\n      dup2\n        /* \"#utility.yul\":8158:8171   */\n      lt\n        /* \"#utility.yul\":8150:9587   */\n      iszero\n      tag_293\n      jumpi\n        /* \"#utility.yul\":8225:8241   */\n      dup3\n      dup5\n      sub\n        /* \"#utility.yul\":8213:8242   */\n      dup10\n      mstore\n        /* \"#utility.yul\":8265:8278   */\n      dup2\n      mload\n        /* \"#utility.yul\":8440:8449   */\n      dup1\n      mload\n        /* \"#utility.yul\":8368:8410   */\n      0xffffffffffffffffffffffffffffffffffffffff\n        /* \"#utility.yul\":8436:8454   */\n      swap1\n      dup2\n      and\n        /* \"#utility.yul\":8423:8455   */\n      dup7\n      mstore\n        /* \"#utility.yul\":8500:8511   */\n      dup7\n      dup3\n      add\n        /* \"#utility.yul\":8494:8512   */\n      mload\n        /* \"#utility.yul\":8514:8548   */\n      0xffffffffffffffffffffffffffffffff\n        /* \"#utility.yul\":8490:8549   */\n      and\n        /* \"#utility.yul\":8475:8488   */\n      dup8\n      dup8\n      add\n        /* \"#utility.yul\":8468:8550   */\n      mstore\n        /* \"#utility.yul\":8573:8577   */\n      0x40\n        /* \"#utility.yul\":8632:8643   */\n      dup1\n      dup4\n      add\n        /* \"#utility.yul\":8626:8644   */\n      mload\n        /* \"#utility.yul\":8619:8645   */\n      iszero\n        /* \"#utility.yul\":8612:8646   */\n      iszero\n        /* \"#utility.yul\":8597:8610   */\n      dup2\n      dup9\n      add\n        /* \"#utility.yul\":8590:8647   */\n      mstore\n        /* \"#utility.yul\":8670:8674   */\n      0x60\n        /* \"#utility.yul\":8715:8726   */\n      dup1\n      dup5\n      add\n        /* \"#utility.yul\":8709:8727   */\n      mload\n        /* \"#utility.yul\":8694:8707   */\n      swap1\n      dup9\n      add\n        /* \"#utility.yul\":8687:8728   */\n      mstore\n        /* \"#utility.yul\":8751:8755   */\n      0x80\n        /* \"#utility.yul\":8796:8807   */\n      dup1\n      dup5\n      add\n        /* \"#utility.yul\":8790:8808   */\n      mload\n        /* \"#utility.yul\":8775:8788   */\n      swap1\n      dup9\n      add\n        /* \"#utility.yul\":8768:8809   */\n      mstore\n        /* \"#utility.yul\":8832:8836   */\n      0xa0\n        /* \"#utility.yul\":8875:8886   */\n      swap3\n      dup4\n      add\n        /* \"#utility.yul\":8869:8887   */\n      mload\n        /* \"#utility.yul\":8301:8305   */\n      0xc0\n        /* \"#utility.yul\":8907:8920   */\n      swap4\n      dup9\n      add\n        /* \"#utility.yul\":8900:8925   */\n      dup5\n      swap1\n      mstore\n        /* \"#utility.yul\":8986:9005   */\n      dup1\n      mload\n        /* \"#utility.yul\":8332:8345   */\n      swap4\n      dup9\n      add\n        /* \"#utility.yul\":9018:9042   */\n      dup5\n      swap1\n      mstore\n        /* \"#utility.yul\":9107:9128   */\n      dup9\n      add\n      swap3\n        /* \"#utility.yul\":9074:9077   */\n      0xe0\n        /* \"#utility.yul\":9064:9078   */\n      dup9\n      add\n      swap3\n        /* \"#utility.yul\":9152:9155   */\n      dup12\n      swap3\n        /* \"#utility.yul\":8368:8410   */\n      swap1\n      swap2\n        /* \"#utility.yul\":9168:9481   */\n    tag_309:\n        /* \"#utility.yul\":9184:9192   */\n      dup1\n        /* \"#utility.yul\":9179:9182   */\n      dup5\n        /* \"#utility.yul\":9176:9193   */\n      lt\n        /* \"#utility.yul\":9168:9481   */\n      iszero\n      tag_311\n      jumpi\n        /* \"#utility.yul\":9257:9272   */\n      dup6\n      mload\n        /* \"#utility.yul\":9307:9316   */\n      dup1\n      mload\n        /* \"#utility.yul\":9303:9321   */\n      dup5\n      and\n        /* \"#utility.yul\":9289:9322   */\n      dup7\n      mstore\n        /* \"#utility.yul\":9368:9379   */\n      dup12\n      add\n        /* \"#utility.yul\":9362:9380   */\n      mload\n        /* \"#utility.yul\":9346:9360   */\n      dup12\n      dup7\n      add\n        /* \"#utility.yul\":9339:9381   */\n      mstore\n        /* \"#utility.yul\":9450:9467   */\n      swap5\n      dup11\n      add\n      swap5\n        /* \"#utility.yul\":9407:9421   */\n      swap4\n      dup2\n      add\n      swap4\n        /* \"#utility.yul\":9212:9213   */\n      0x01\n        /* \"#utility.yul\":9203:9214   */\n      swap4\n      swap1\n      swap4\n      add\n      swap3\n        /* \"#utility.yul\":9168:9481   */\n      jump(tag_309)\n    tag_311:\n      pop\n      pop\n      pop\n        /* \"#utility.yul\":9565:9577   */\n      swap11\n      dup8\n      add\n      swap11\n      pop\n        /* \"#utility.yul\":9502:9507   */\n      swap5\n      pop\n      pop\n        /* \"#utility.yul\":9530:9545   */\n      swap1\n      dup5\n      add\n      swap1\n        /* \"#utility.yul\":8186:8187   */\n      0x01\n        /* \"#utility.yul\":8179:8188   */\n      add\n        /* \"#utility.yul\":8150:9587   */\n      jump(tag_306)\n        /* \"#utility.yul\":9618:10280   */\n    tag_303:\n      0x00\n        /* \"#utility.yul\":9742:9748   */\n      dup3\n        /* \"#utility.yul\":9737:9740   */\n      dup5\n        /* \"#utility.yul\":9730:9749   */\n      mstore\n        /* \"#utility.yul\":9768:9772   */\n      0x20\n        /* \"#utility.yul\":9797:9799   */\n      dup1\n        /* \"#utility.yul\":9792:9795   */\n      dup6\n        /* \"#utility.yul\":9788:9800   */\n      add\n        /* \"#utility.yul\":9781:9800   */\n      swap5\n      pop\n        /* \"#utility.yul\":9823:9828   */\n      dup3\n        /* \"#utility.yul\":9846:9849   */\n      dup3\n        /* \"#utility.yul\":9858:10255   */\n    tag_313:\n        /* \"#utility.yul\":9872:9878   */\n      dup6\n        /* \"#utility.yul\":9869:9870   */\n      dup2\n        /* \"#utility.yul\":9866:9879   */\n      lt\n        /* \"#utility.yul\":9858:10255   */\n      iszero\n      tag_315\n      jumpi\n        /* \"#utility.yul\":9949:9955   */\n      dup2\n        /* \"#utility.yul\":9936:9956   */\n      calldataload\n        /* \"#utility.yul\":9969:10002   */\n      tag_316\n        /* \"#utility.yul\":9994:10001   */\n      dup2\n        /* \"#utility.yul\":9969:10002   */\n      tag_239\n      jump\t// in\n    tag_316:\n        /* \"#utility.yul\":10040:10082   */\n      0xffffffffffffffffffffffffffffffffffffffff\n        /* \"#utility.yul\":10027:10083   */\n      and\n        /* \"#utility.yul\":10015:10084   */\n      dup8\n      mstore\n        /* \"#utility.yul\":10131:10146   */\n      dup2\n      dup4\n      add\n        /* \"#utility.yul\":10118:10147   */\n      calldataload\n        /* \"#utility.yul\":10104:10116   */\n      dup4\n      dup9\n      add\n        /* \"#utility.yul\":10097:10148   */\n      mstore\n        /* \"#utility.yul\":10171:10175   */\n      0x40\n        /* \"#utility.yul\":10195:10207   */\n      swap7\n      dup8\n      add\n      swap7\n        /* \"#utility.yul\":10230:10245   */\n      swap1\n      swap2\n      add\n      swap1\n        /* \"#utility.yul\":9894:9895   */\n      0x01\n        /* \"#utility.yul\":9887:9896   */\n      add\n        /* \"#utility.yul\":9858:10255   */\n      jump(tag_313)\n    tag_315:\n      pop\n        /* \"#utility.yul\":10271:10274   */\n      swap5\n      swap6\n        /* \"#utility.yul\":9720:10280   */\n      swap5\n      pop\n      pop\n      pop\n      pop\n      pop\n      jump\t// out\n        /* \"#utility.yul\":12023:13303   */\n    tag_79:\n      0x00\n        /* \"#utility.yul\":12210:12212   */\n      0x20\n        /* \"#utility.yul\":12199:12208   */\n      dup3\n        /* \"#utility.yul\":12192:12213   */\n      mstore\n        /* \"#utility.yul\":12262:12268   */\n      dup3\n        /* \"#utility.yul\":12249:12269   */\n      calldataload\n        /* \"#utility.yul\":12244:12246   */\n      0x20\n        /* \"#utility.yul\":12233:12242   */\n      dup4\n        /* \"#utility.yul\":12229:12247   */\n      add\n        /* \"#utility.yul\":12222:12270   */\n      mstore\n        /* \"#utility.yul\":12317:12319   */\n      0x20\n        /* \"#utility.yul\":12309:12315   */\n      dup4\n        /* \"#utility.yul\":12305:12320   */\n      add\n        /* \"#utility.yul\":12292:12321   */\n      calldataload\n        /* \"#utility.yul\":12330:12361   */\n      tag_326\n        /* \"#utility.yul\":12355:12360   */\n      dup2\n        /* \"#utility.yul\":12330:12361   */\n      tag_241\n      jump\t// in\n    tag_326:\n        /* \"#utility.yul\":12408:12442   */\n      0xffffffffffffffffffffffffffffffff\n        /* \"#utility.yul\":12401:12406   */\n      dup2\n        /* \"#utility.yul\":12397:12443   */\n      and\n        /* \"#utility.yul\":12392:12394   */\n      0x40\n        /* \"#utility.yul\":12381:12390   */\n      dup5\n        /* \"#utility.yul\":12377:12395   */\n      add\n        /* \"#utility.yul\":12370:12444   */\n      mstore\n      pop\n        /* \"#utility.yul\":12468:12503   */\n      tag_327\n        /* \"#utility.yul\":12499:12501   */\n      0x40\n        /* \"#utility.yul\":12491:12497   */\n      dup5\n        /* \"#utility.yul\":12487:12502   */\n      add\n        /* \"#utility.yul\":12468:12503   */\n      tag_261\n      jump\t// in\n    tag_327:\n        /* \"#utility.yul\":10458:10492   */\n      0xffffffffffffffffffffffffffffffff\n        /* \"#utility.yul\":10447:10493   */\n      dup2\n      and\n        /* \"#utility.yul\":12555:12557   */\n      0x60\n        /* \"#utility.yul\":12540:12558   */\n      dup5\n      add\n        /* \"#utility.yul\":10435:10494   */\n      mstore\n        /* \"#utility.yul\":12512:12559   */\n      pop\n        /* \"#utility.yul\":12583:12618   */\n      tag_329\n        /* \"#utility.yul\":12614:12616   */\n      0x60\n        /* \"#utility.yul\":12606:12612   */\n      dup5\n        /* \"#utility.yul\":12602:12617   */\n      add\n        /* \"#utility.yul\":12583:12618   */\n      tag_261\n      jump\t// in\n    tag_329:\n        /* \"#utility.yul\":10458:10492   */\n      0xffffffffffffffffffffffffffffffff\n        /* \"#utility.yul\":10447:10493   */\n      dup2\n      and\n        /* \"#utility.yul\":12670:12673   */\n      0x80\n        /* \"#utility.yul\":12655:12674   */\n      dup5\n      add\n        /* \"#utility.yul\":10435:10494   */\n      mstore\n        /* \"#utility.yul\":12627:12675   */\n      pop\n        /* \"#utility.yul\":12737:12740   */\n      0x80\n        /* \"#utility.yul\":12729:12735   */\n      dup4\n        /* \"#utility.yul\":12725:12741   */\n      add\n        /* \"#utility.yul\":12712:12742   */\n      calldataload\n        /* \"#utility.yul\":12706:12709   */\n      0xa0\n        /* \"#utility.yul\":12695:12704   */\n      dup4\n        /* \"#utility.yul\":12691:12710   */\n      add\n        /* \"#utility.yul\":12684:12743   */\n      mstore\n        /* \"#utility.yul\":12767:12803   */\n      tag_331\n        /* \"#utility.yul\":12798:12801   */\n      0xa0\n        /* \"#utility.yul\":12790:12796   */\n      dup5\n        /* \"#utility.yul\":12786:12802   */\n      add\n        /* \"#utility.yul\":12767:12803   */\n      tag_261\n      jump\t// in\n    tag_331:\n        /* \"#utility.yul\":10458:10492   */\n      0xffffffffffffffffffffffffffffffff\n        /* \"#utility.yul\":10447:10493   */\n      dup2\n      and\n        /* \"#utility.yul\":12855:12858   */\n      0xc0\n        /* \"#utility.yul\":12840:12859   */\n      dup5\n      add\n        /* \"#utility.yul\":10435:10494   */\n      mstore\n        /* \"#utility.yul\":12812:12860   */\n      pop\n        /* \"#utility.yul\":12884:12920   */\n      tag_333\n        /* \"#utility.yul\":12915:12918   */\n      0xc0\n        /* \"#utility.yul\":12907:12913   */\n      dup5\n        /* \"#utility.yul\":12903:12919   */\n      add\n        /* \"#utility.yul\":12884:12920   */\n      tag_261\n      jump\t// in\n    tag_333:\n        /* \"#utility.yul\":10458:10492   */\n      0xffffffffffffffffffffffffffffffff\n        /* \"#utility.yul\":10447:10493   */\n      dup2\n      and\n        /* \"#utility.yul\":12972:12975   */\n      0xe0\n        /* \"#utility.yul\":12957:12976   */\n      dup5\n      add\n        /* \"#utility.yul\":10435:10494   */\n      mstore\n        /* \"#utility.yul\":12929:12977   */\n      pop\n        /* \"#utility.yul\":13020:13109   */\n      tag_335\n        /* \"#utility.yul\":13104:13107   */\n      0xe0\n        /* \"#utility.yul\":13096:13102   */\n      dup5\n        /* \"#utility.yul\":13092:13108   */\n      add\n        /* \"#utility.yul\":13084:13090   */\n      dup5\n        /* \"#utility.yul\":13020:13109   */\n      tag_336\n      jump\t// in\n    tag_335:\n        /* \"#utility.yul\":13128:13134   */\n      0x0100\n        /* \"#utility.yul\":13150:13168   */\n      dup5\n      dup2\n      add\n        /* \"#utility.yul\":13143:13173   */\n      mstore\n        /* \"#utility.yul\":13190:13297   */\n      tag_337\n        /* \"#utility.yul\":13292:13295   */\n      0x0120\n        /* \"#utility.yul\":13277:13296   */\n      dup6\n      add\n        /* \"#utility.yul\":13263:13275   */\n      dup3\n        /* \"#utility.yul\":13249:13261   */\n      dup5\n        /* \"#utility.yul\":13190:13297   */\n      tag_289\n      jump\t// in\n    tag_337:\n        /* \"#utility.yul\":13182:13297   */\n      swap6\n        /* \"#utility.yul\":12182:13303   */\n      swap5\n      pop\n      pop\n      pop\n      pop\n      pop\n      jump\t// out\n        /* \"#utility.yul\":13835:15067   */\n    tag_165:\n      0x00\n        /* \"#utility.yul\":14068:14102   */\n      0xffffffffffffffffffffffffffffffff\n        /* \"#utility.yul\":14141:14143   */\n      dup1\n        /* \"#utility.yul\":14133:14139   */\n      dup7\n        /* \"#utility.yul\":14129:14144   */\n      and\n        /* \"#utility.yul\":14118:14127   */\n      dup4\n        /* \"#utility.yul\":14111:14145   */\n      mstore\n        /* \"#utility.yul\":14181:14183   */\n      0x60\n        /* \"#utility.yul\":14176:14178   */\n      0x20\n        /* \"#utility.yul\":14165:14174   */\n      dup5\n        /* \"#utility.yul\":14161:14179   */\n      add\n        /* \"#utility.yul\":14154:14184   */\n      mstore\n        /* \"#utility.yul\":14226:14232   */\n      dup5\n        /* \"#utility.yul\":14220:14233   */\n      mload\n        /* \"#utility.yul\":14215:14217   */\n      0x60\n        /* \"#utility.yul\":14204:14213   */\n      dup5\n        /* \"#utility.yul\":14200:14218   */\n      add\n        /* \"#utility.yul\":14193:14234   */\n      mstore\n        /* \"#utility.yul\":14299:14301   */\n      dup1\n        /* \"#utility.yul\":14293:14295   */\n      0x20\n        /* \"#utility.yul\":14285:14291   */\n      dup7\n        /* \"#utility.yul\":14281:14296   */\n      add\n        /* \"#utility.yul\":14275:14297   */\n      mload\n        /* \"#utility.yul\":14271:14302   */\n      and\n        /* \"#utility.yul\":14265:14268   */\n      0x80\n        /* \"#utility.yul\":14254:14263   */\n      dup5\n        /* \"#utility.yul\":14250:14269   */\n      add\n        /* \"#utility.yul\":14243:14303   */\n      mstore\n        /* \"#utility.yul\":14370:14372   */\n      dup1\n        /* \"#utility.yul\":14362:14366   */\n      0x40\n        /* \"#utility.yul\":14354:14360   */\n      dup7\n        /* \"#utility.yul\":14350:14367   */\n      add\n        /* \"#utility.yul\":14344:14368   */\n      mload\n        /* \"#utility.yul\":14340:14373   */\n      and\n        /* \"#utility.yul\":14334:14337   */\n      0xa0\n        /* \"#utility.yul\":14323:14332   */\n      dup5\n        /* \"#utility.yul\":14319:14338   */\n      add\n        /* \"#utility.yul\":14312:14374   */\n      mstore\n      pop\n        /* \"#utility.yul\":14421:14423   */\n      0x60\n        /* \"#utility.yul\":14413:14419   */\n      dup5\n        /* \"#utility.yul\":14409:14424   */\n      add\n        /* \"#utility.yul\":14403:14425   */\n      mload\n        /* \"#utility.yul\":14434:14487   */\n      tag_341\n        /* \"#utility.yul\":14482:14485   */\n      0xc0\n        /* \"#utility.yul\":14471:14480   */\n      dup5\n        /* \"#utility.yul\":14467:14486   */\n      add\n        /* \"#utility.yul\":14453:14465   */\n      dup3\n        /* \"#utility.yul\":10458:10492   */\n      0xffffffffffffffffffffffffffffffff\n        /* \"#utility.yul\":10447:10493   */\n      and\n        /* \"#utility.yul\":10435:10494   */\n      swap1\n      mstore\n        /* \"#utility.yul\":10425:10500   */\n      jump\n        /* \"#utility.yul\":14434:14487   */\n    tag_341:\n      pop\n        /* \"#utility.yul\":14542:14545   */\n      0x80\n        /* \"#utility.yul\":14534:14540   */\n      dup5\n        /* \"#utility.yul\":14530:14546   */\n      add\n        /* \"#utility.yul\":14524:14547   */\n      mload\n        /* \"#utility.yul\":14518:14521   */\n      0xe0\n        /* \"#utility.yul\":14507:14516   */\n      dup4\n        /* \"#utility.yul\":14503:14522   */\n      add\n        /* \"#utility.yul\":14496:14548   */\n      mstore\n        /* \"#utility.yul\":14597:14600   */\n      0xa0\n        /* \"#utility.yul\":14589:14595   */\n      dup5\n        /* \"#utility.yul\":14585:14601   */\n      add\n        /* \"#utility.yul\":14579:14602   */\n      mload\n        /* \"#utility.yul\":14621:14627   */\n      0x0100\n        /* \"#utility.yul\":14636:14690   */\n      tag_342\n        /* \"#utility.yul\":14686:14688   */\n      dup2\n        /* \"#utility.yul\":14675:14684   */\n      dup6\n        /* \"#utility.yul\":14671:14689   */\n      add\n        /* \"#utility.yul\":14655:14669   */\n      dup4\n        /* \"#utility.yul\":10458:10492   */\n      0xffffffffffffffffffffffffffffffff\n        /* \"#utility.yul\":10447:10493   */\n      and\n        /* \"#utility.yul\":10435:10494   */\n      swap1\n      mstore\n        /* \"#utility.yul\":10425:10500   */\n      jump\n        /* \"#utility.yul\":14636:14690   */\n    tag_342:\n        /* \"#utility.yul\":14739:14742   */\n      0xc0\n        /* \"#utility.yul\":14727:14743   */\n      dup7\n      add\n        /* \"#utility.yul\":14721:14744   */\n      mload\n        /* \"#utility.yul\":10458:10492   */\n      0xffffffffffffffffffffffffffffffff\n        /* \"#utility.yul\":10447:10493   */\n      and\n        /* \"#utility.yul\":14803:14806   */\n      0x0120\n        /* \"#utility.yul\":14788:14807   */\n      dup6\n      add\n        /* \"#utility.yul\":10435:10494   */\n      mstore\n        /* \"#utility.yul\":14857:14860   */\n      0xe0\n        /* \"#utility.yul\":14845:14861   */\n      dup7\n      add\n        /* \"#utility.yul\":14839:14862   */\n      mload\n        /* \"#utility.yul\":14893:14896   */\n      0x0140\n        /* \"#utility.yul\":14878:14897   */\n      dup6\n      add\n        /* \"#utility.yul\":14871:14902   */\n      swap2\n      swap1\n      swap2\n      mstore\n        /* \"#utility.yul\":14839:14862   */\n      swap1\n      pop\n        /* \"#utility.yul\":14919:14996   */\n      tag_344\n        /* \"#utility.yul\":14991:14994   */\n      0x0160\n        /* \"#utility.yul\":14976:14995   */\n      dup5\n      add\n        /* \"#utility.yul\":14839:14862   */\n      dup3\n        /* \"#utility.yul\":14919:14996   */\n      tag_304\n      jump\t// in\n    tag_344:\n        /* \"#utility.yul\":14911:14996   */\n      swap2\n      pop\n      pop\n        /* \"#utility.yul\":15005:15061   */\n      tag_345\n        /* \"#utility.yul\":15055:15059   */\n      0x40\n        /* \"#utility.yul\":15044:15053   */\n      dup4\n        /* \"#utility.yul\":15040:15060   */\n      add\n        /* \"#utility.yul\":15032:15038   */\n      dup5\n        /* \"#utility.yul\":5827:5869   */\n      0xffffffffffffffffffffffffffffffffffffffff\n        /* \"#utility.yul\":5816:5870   */\n      and\n        /* \"#utility.yul\":5804:5871   */\n      swap1\n      mstore\n        /* \"#utility.yul\":5794:5877   */\n      jump\n        /* \"#utility.yul\":15005:15061   */\n    tag_345:\n        /* \"#utility.yul\":14048:15067   */\n      swap5\n      swap4\n      pop\n      pop\n      pop\n      pop\n      jump\t// out\n        /* \"#utility.yul\":15516:16150   */\n    tag_347:\n      0x00\n      dup1\n        /* \"#utility.yul\":15689:15700   */\n      dup4\n        /* \"#utility.yul\":15676:15701   */\n      calldataload\n        /* \"#utility.yul\":15779:15845   */\n      0xffffffffffffffffffffffffffffffffffffffffffffffffffffffffffffffe1\n        /* \"#utility.yul\":15768:15776   */\n      dup5\n        /* \"#utility.yul\":15752:15766   */\n      calldatasize\n        /* \"#utility.yul\":15748:15777   */\n      sub\n        /* \"#utility.yul\":15744:15846   */\n      add\n        /* \"#utility.yul\":15724:15742   */\n      dup2\n        /* \"#utility.yul\":15720:15847   */\n      slt\n        /* \"#utility.yul\":15710:15712   */\n      tag_349\n      jumpi\n        /* \"#utility.yul\":15866:15872   */\n      dup2\n        /* \"#utility.yul\":15858:15864   */\n      dup3\n        /* \"#utility.yul\":15851:15873   */\n      revert\n        /* \"#utility.yul\":15710:15712   */\n    tag_349:\n        /* \"#utility.yul\":15898:15931   */\n      dup4\n      add\n        /* \"#utility.yul\":15950:15970   */\n      dup1\n      calldataload\n      swap2\n      pop\n        /* \"#utility.yul\":15993:16011   */\n      0xffffffffffffffff\n        /* \"#utility.yul\":15982:16012   */\n      dup3\n      gt\n        /* \"#utility.yul\":15979:15981   */\n      iszero\n      tag_350\n      jumpi\n        /* \"#utility.yul\":16028:16032   */\n      dup3\n        /* \"#utility.yul\":16022:16026   */\n      dup4\n        /* \"#utility.yul\":16015:16033   */\n      revert\n        /* \"#utility.yul\":15979:15981   */\n    tag_350:\n        /* \"#utility.yul\":16064:16068   */\n      0x20\n        /* \"#utility.yul\":16052:16069   */\n      add\n      swap2\n      pop\n        /* \"#utility.yul\":16115:16116   */\n      0x06\n        /* \"#utility.yul\":16111:16125   */\n      dup2\n      swap1\n      shl\n        /* \"#utility.yul\":16095:16109   */\n      calldatasize\n        /* \"#utility.yul\":16091:16126   */\n      sub\n        /* \"#utility.yul\":16081:16127   */\n      dup3\n      sgt\n        /* \"#utility.yul\":16078:16080   */\n      iszero\n      tag_351\n      jumpi\n        /* \"#utility.yul\":16140:16141   */\n      0x00\n        /* \"#utility.yul\":16137:16138   */\n      dup1\n        /* \"#utility.yul\":16130:16142   */\n      revert\n        /* \"#utility.yul\":16078:16080   */\n    tag_351:\n        /* \"#utility.yul\":15640:16150   */\n      swap3\n      pop\n      swap3\n      swap1\n      pop\n      jump\t// out\n        /* \"#utility.yul\":16155:16536   */\n    tag_352:\n      0x00\n        /* \"#utility.yul\":16298:16309   */\n      dup3\n        /* \"#utility.yul\":16285:16310   */\n      calldataload\n        /* \"#utility.yul\":16388:16454   */\n      0xffffffffffffffffffffffffffffffffffffffffffffffffffffffffffffff41\n        /* \"#utility.yul\":16377:16385   */\n      dup4\n        /* \"#utility.yul\":16361:16375   */\n      calldatasize\n        /* \"#utility.yul\":16357:16386   */\n      sub\n        /* \"#utility.yul\":16353:16455   */\n      add\n        /* \"#utility.yul\":16333:16351   */\n      dup2\n        /* \"#utility.yul\":16329:16456   */\n      slt\n        /* \"#utility.yul\":16319:16321   */\n      tag_354\n      jumpi\n        /* \"#utility.yul\":16473:16477   */\n      dup2\n        /* \"#utility.yul\":16467:16471   */\n      dup3\n        /* \"#utility.yul\":16460:16478   */\n      revert\n        /* \"#utility.yul\":16319:16321   */\n    tag_354:\n        /* \"#utility.yul\":16497:16530   */\n      swap2\n      swap1\n      swap2\n      add\n      swap3\n        /* \"#utility.yul\":16249:16536   */\n      swap2\n      pop\n      pop\n      jump\t// out\n        /* \"#utility.yul\":16541:16875   */\n    tag_232:\n        /* \"#utility.yul\":16612:16614   */\n      0x40\n        /* \"#utility.yul\":16606:16615   */\n      mload\n        /* \"#utility.yul\":16668:16670   */\n      0x1f\n        /* \"#utility.yul\":16658:16671   */\n      dup3\n      add\n        /* \"#utility.yul\":16673:16739   */\n      0xffffffffffffffffffffffffffffffffffffffffffffffffffffffffffffffe0\n        /* \"#utility.yul\":16654:16740   */\n      and\n        /* \"#utility.yul\":16642:16741   */\n      dup2\n      add\n        /* \"#utility.yul\":16771:16789   */\n      0xffffffffffffffff\n        /* \"#utility.yul\":16756:16790   */\n      dup2\n      gt\n        /* \"#utility.yul\":16792:16814   */\n      dup3\n      dup3\n      lt\n        /* \"#utility.yul\":16753:16815   */\n      or\n        /* \"#utility.yul\":16750:16752   */\n      iszero\n      tag_357\n      jumpi\n        /* \"#utility.yul\":16818:16836   */\n      tag_357\n      tag_358\n      jump\t// in\n    tag_357:\n        /* \"#utility.yul\":16854:16856   */\n      0x40\n        /* \"#utility.yul\":16847:16869   */\n      mstore\n        /* \"#utility.yul\":16586:16875   */\n      swap2\n      swap1\n      pop\n      jump\t// out\n        /* \"#utility.yul\":16880:17075   */\n    tag_231:\n      0x00\n        /* \"#utility.yul\":16985:17003   */\n      0xffffffffffffffff\n        /* \"#utility.yul\":16977:16983   */\n      dup3\n        /* \"#utility.yul\":16974:17004   */\n      gt\n        /* \"#utility.yul\":16971:16973   */\n      iszero\n      tag_361\n      jumpi\n        /* \"#utility.yul\":17007:17025   */\n      tag_361\n      tag_358\n      jump\t// in\n    tag_361:\n      pop\n        /* \"#utility.yul\":17052:17053   */\n      0x05\n        /* \"#utility.yul\":17048:17062   */\n      shl\n        /* \"#utility.yul\":17064:17068   */\n      0x20\n        /* \"#utility.yul\":17044:17069   */\n      add\n      swap1\n        /* \"#utility.yul\":16961:17075   */\n      jump\t// out\n        /* \"#utility.yul\":17235:17846   */\n    tag_336:\n      0x00\n      dup1\n        /* \"#utility.yul\":17393:17396   */\n      dup4\n        /* \"#utility.yul\":17380:17397   */\n      calldataload\n        /* \"#utility.yul\":17475:17541   */\n      0xffffffffffffffffffffffffffffffffffffffffffffffffffffffffffffffe1\n        /* \"#utility.yul\":17464:17472   */\n      dup5\n        /* \"#utility.yul\":17448:17462   */\n      calldatasize\n        /* \"#utility.yul\":17444:17473   */\n      sub\n        /* \"#utility.yul\":17440:17542   */\n      add\n        /* \"#utility.yul\":17420:17438   */\n      dup2\n        /* \"#utility.yul\":17416:17543   */\n      slt\n        /* \"#utility.yul\":17406:17408   */\n      tag_365\n      jumpi\n        /* \"#utility.yul\":17561:17566   */\n      dup3\n        /* \"#utility.yul\":17554:17559   */\n      dup4\n        /* \"#utility.yul\":17547:17567   */\n      revert\n        /* \"#utility.yul\":17406:17408   */\n    tag_365:\n        /* \"#utility.yul\":17593:17626   */\n      dup4\n      add\n        /* \"#utility.yul\":17697:17701   */\n      0x20\n        /* \"#utility.yul\":17684:17702   */\n      dup2\n      add\n      swap3\n      pop\n        /* \"#utility.yul\":17645:17666   */\n      calldataload\n      swap1\n      pop\n        /* \"#utility.yul\":17725:17743   */\n      0xffffffffffffffff\n        /* \"#utility.yul\":17714:17744   */\n      dup2\n      gt\n        /* \"#utility.yul\":17711:17713   */\n      iszero\n      tag_366\n      jumpi\n        /* \"#utility.yul\":17757:17758   */\n      0x00\n        /* \"#utility.yul\":17754:17755   */\n      dup1\n        /* \"#utility.yul\":17747:17759   */\n      revert\n        /* \"#utility.yul\":17711:17713   */\n    tag_366:\n        /* \"#utility.yul\":17814:17820   */\n      dup1\n        /* \"#utility.yul\":17811:17812   */\n      0x05\n        /* \"#utility.yul\":17807:17821   */\n      shl\n        /* \"#utility.yul\":17791:17805   */\n      calldatasize\n        /* \"#utility.yul\":17787:17822   */\n      sub\n        /* \"#utility.yul\":17777:17785   */\n      dup4\n        /* \"#utility.yul\":17773:17823   */\n      sgt\n        /* \"#utility.yul\":17770:17772   */\n      iszero\n      tag_351\n      jumpi\n        /* \"#utility.yul\":17836:17837   */\n      0x00\n        /* \"#utility.yul\":17833:17834   */\n      dup1\n        /* \"#utility.yul\":17826:17838   */\n      revert\n        /* \"#utility.yul\":17851:18465   */\n    tag_301:\n      0x00\n      dup1\n        /* \"#utility.yul\":18012:18015   */\n      dup4\n        /* \"#utility.yul\":17999:18016   */\n      calldataload\n        /* \"#utility.yul\":18094:18160   */\n      0xffffffffffffffffffffffffffffffffffffffffffffffffffffffffffffffe1\n        /* \"#utility.yul\":18083:18091   */\n      dup5\n        /* \"#utility.yul\":18067:18081   */\n      calldatasize\n        /* \"#utility.yul\":18063:18092   */\n      sub\n        /* \"#utility.yul\":18059:18161   */\n      add\n        /* \"#utility.yul\":18039:18057   */\n      dup2\n        /* \"#utility.yul\":18035:18162   */\n      slt\n        /* \"#utility.yul\":18025:18027   */\n      tag_369\n      jumpi\n        /* \"#utility.yul\":18180:18185   */\n      dup3\n        /* \"#utility.yul\":18173:18178   */\n      dup4\n        /* \"#utility.yul\":18166:18186   */\n      revert\n        /* \"#utility.yul\":18025:18027   */\n    tag_369:\n        /* \"#utility.yul\":18212:18245   */\n      dup4\n      add\n        /* \"#utility.yul\":18316:18320   */\n      0x20\n        /* \"#utility.yul\":18303:18321   */\n      dup2\n      add\n      swap3\n      pop\n        /* \"#utility.yul\":18264:18285   */\n      calldataload\n      swap1\n      pop\n        /* \"#utility.yul\":18344:18362   */\n      0xffffffffffffffff\n        /* \"#utility.yul\":18333:18363   */\n      dup2\n      gt\n        /* \"#utility.yul\":18330:18332   */\n      iszero\n      tag_370\n      jumpi\n        /* \"#utility.yul\":18376:18377   */\n      0x00\n        /* \"#utility.yul\":18373:18374   */\n      dup1\n        /* \"#utility.yul\":18366:18378   */\n      revert\n        /* \"#utility.yul\":18330:18332   */\n    tag_370:\n        /* \"#utility.yul\":18433:18439   */\n      dup1\n        /* \"#utility.yul\":18430:18431   */\n      0x06\n        /* \"#utility.yul\":18426:18440   */\n      shl\n        /* \"#utility.yul\":18410:18424   */\n      calldatasize\n        /* \"#utility.yul\":18406:18441   */\n      sub\n        /* \"#utility.yul\":18396:18404   */\n      dup4\n        /* \"#utility.yul\":18392:18442   */\n      sgt\n        /* \"#utility.yul\":18389:18391   */\n      iszero\n      tag_351\n      jumpi\n        /* \"#utility.yul\":18455:18456   */\n      0x00\n        /* \"#utility.yul\":18452:18453   */\n      dup1\n        /* \"#utility.yul\":18445:18457   */\n      revert\n        /* \"#utility.yul\":18470:18598   */\n    tag_117:\n      0x00\n        /* \"#utility.yul\":18541:18542   */\n      dup3\n        /* \"#utility.yul\":18537:18543   */\n      not\n        /* \"#utility.yul\":18534:18535   */\n      dup3\n        /* \"#utility.yul\":18531:18544   */\n      gt\n        /* \"#utility.yul\":18528:18530   */\n      iszero\n      tag_374\n      jumpi\n        /* \"#utility.yul\":18547:18565   */\n      tag_374\n      tag_375\n      jump\t// in\n    tag_374:\n      pop\n        /* \"#utility.yul\":18583:18592   */\n      add\n      swap1\n        /* \"#utility.yul\":18518:18598   */\n      jump\t// out\n        /* \"#utility.yul\":18603:18807   */\n    tag_95:\n      0x00\n        /* \"#utility.yul\":18677:18681   */\n      0xff\n        /* \"#utility.yul\":18674:18675   */\n      dup3\n        /* \"#utility.yul\":18670:18682   */\n      and\n        /* \"#utility.yul\":18709:18713   */\n      0xff\n        /* \"#utility.yul\":18706:18707   */\n      dup5\n        /* \"#utility.yul\":18702:18714   */\n      and\n        /* \"#utility.yul\":18744:18747   */\n      dup1\n        /* \"#utility.yul\":18738:18742   */\n      0xff\n        /* \"#utility.yul\":18734:18748   */\n      sub\n        /* \"#utility.yul\":18729:18732   */\n      dup3\n        /* \"#utility.yul\":18726:18749   */\n      gt\n        /* \"#utility.yul\":18723:18725   */\n      iszero\n      tag_378\n      jumpi\n        /* \"#utility.yul\":18752:18770   */\n      tag_378\n      tag_375\n      jump\t// in\n    tag_378:\n        /* \"#utility.yul\":18788:18801   */\n      add\n      swap4\n        /* \"#utility.yul\":18649:18807   */\n      swap3\n      pop\n      pop\n      pop\n      jump\t// out\n        /* \"#utility.yul\":18812:19816   */\n    tag_105:\n      0x00\n        /* \"#utility.yul\":18954:18960   */\n      0x0100\n        /* \"#utility.yul\":19004:19006   */\n      dup1\n        /* \"#utility.yul\":18996:19001   */\n      dup4\n        /* \"#utility.yul\":18980:18994   */\n      calldatasize\n        /* \"#utility.yul\":18976:19002   */\n      sub\n        /* \"#utility.yul\":18972:19007   */\n      slt\n        /* \"#utility.yul\":18969:18971   */\n      iszero\n      tag_380\n      jumpi\n        /* \"#utility.yul\":19028:19037   */\n      dup2\n        /* \"#utility.yul\":19017:19026   */\n      dup3\n        /* \"#utility.yul\":19010:19038   */\n      revert\n        /* \"#utility.yul\":18969:18971   */\n    tag_380:\n        /* \"#utility.yul\":19064:19083   */\n      tag_381\n        /* \"#utility.yul\":19080:19082   */\n      dup2\n        /* \"#utility.yul\":19064:19083   */\n      tag_232\n      jump\t// in\n    tag_381:\n        /* \"#utility.yul\":19049:19083   */\n      swap1\n      pop\n        /* \"#utility.yul\":19121:19126   */\n      dup3\n        /* \"#utility.yul\":19108:19127   */\n      calldataload\n        /* \"#utility.yul\":19099:19106   */\n      dup2\n        /* \"#utility.yul\":19092:19128   */\n      mstore\n        /* \"#utility.yul\":19162:19196   */\n      tag_382\n        /* \"#utility.yul\":19192:19194   */\n      0x20\n        /* \"#utility.yul\":19185:19190   */\n      dup5\n        /* \"#utility.yul\":19181:19195   */\n      add\n        /* \"#utility.yul\":19162:19196   */\n      tag_261\n      jump\t// in\n    tag_382:\n        /* \"#utility.yul\":19157:19159   */\n      0x20\n        /* \"#utility.yul\":19148:19155   */\n      dup3\n        /* \"#utility.yul\":19144:19160   */\n      add\n        /* \"#utility.yul\":19137:19197   */\n      mstore\n        /* \"#utility.yul\":19231:19265   */\n      tag_383\n        /* \"#utility.yul\":19261:19263   */\n      0x40\n        /* \"#utility.yul\":19254:19259   */\n      dup5\n        /* \"#utility.yul\":19250:19264   */\n      add\n        /* \"#utility.yul\":19231:19265   */\n      tag_261\n      jump\t// in\n    tag_383:\n        /* \"#utility.yul\":19226:19228   */\n      0x40\n        /* \"#utility.yul\":19217:19224   */\n      dup3\n        /* \"#utility.yul\":19213:19229   */\n      add\n        /* \"#utility.yul\":19206:19266   */\n      mstore\n        /* \"#utility.yul\":19300:19334   */\n      tag_384\n        /* \"#utility.yul\":19330:19332   */\n      0x60\n        /* \"#utility.yul\":19323:19328   */\n      dup5\n        /* \"#utility.yul\":19319:19333   */\n      add\n        /* \"#utility.yul\":19300:19334   */\n      tag_261\n      jump\t// in\n    tag_384:\n        /* \"#utility.yul\":19295:19297   */\n      0x60\n        /* \"#utility.yul\":19286:19293   */\n      dup3\n        /* \"#utility.yul\":19282:19298   */\n      add\n        /* \"#utility.yul\":19275:19335   */\n      mstore\n        /* \"#utility.yul\":19394:19397   */\n      0x80\n        /* \"#utility.yul\":19387:19392   */\n      dup4\n        /* \"#utility.yul\":19383:19398   */\n      add\n        /* \"#utility.yul\":19370:19399   */\n      calldataload\n        /* \"#utility.yul\":19364:19367   */\n      0x80\n        /* \"#utility.yul\":19355:19362   */\n      dup3\n        /* \"#utility.yul\":19351:19368   */\n      add\n        /* \"#utility.yul\":19344:19400   */\n      mstore\n        /* \"#utility.yul\":19435:19470   */\n      tag_385\n        /* \"#utility.yul\":19465:19468   */\n      0xa0\n        /* \"#utility.yul\":19458:19463   */\n      dup5\n        /* \"#utility.yul\":19454:19469   */\n      add\n        /* \"#utility.yul\":19435:19470   */\n      tag_261\n      jump\t// in\n    tag_385:\n        /* \"#utility.yul\":19429:19432   */\n      0xa0\n        /* \"#utility.yul\":19420:19427   */\n      dup3\n        /* \"#utility.yul\":19416:19433   */\n      add\n        /* \"#utility.yul\":19409:19471   */\n      mstore\n        /* \"#utility.yul\":19506:19541   */\n      tag_386\n        /* \"#utility.yul\":19536:19539   */\n      0xc0\n        /* \"#utility.yul\":19529:19534   */\n      dup5\n        /* \"#utility.yul\":19525:19540   */\n      add\n        /* \"#utility.yul\":19506:19541   */\n      tag_261\n      jump\t// in\n    tag_386:\n        /* \"#utility.yul\":19500:19503   */\n      0xc0\n        /* \"#utility.yul\":19491:19498   */\n      dup3\n        /* \"#utility.yul\":19487:19504   */\n      add\n        /* \"#utility.yul\":19480:19542   */\n      mstore\n        /* \"#utility.yul\":19589:19592   */\n      0xe0\n        /* \"#utility.yul\":19582:19587   */\n      dup4\n        /* \"#utility.yul\":19578:19593   */\n      add\n        /* \"#utility.yul\":19565:19594   */\n      calldataload\n        /* \"#utility.yul\":19617:19635   */\n      0xffffffffffffffff\n        /* \"#utility.yul\":19609:19615   */\n      dup2\n        /* \"#utility.yul\":19606:19636   */\n      gt\n        /* \"#utility.yul\":19603:19605   */\n      iszero\n      tag_387\n      jumpi\n        /* \"#utility.yul\":19657:19666   */\n      dup3\n        /* \"#utility.yul\":19646:19655   */\n      dup4\n        /* \"#utility.yul\":19639:19667   */\n      revert\n        /* \"#utility.yul\":19603:19605   */\n    tag_387:\n        /* \"#utility.yul\":19704:19780   */\n      tag_388\n        /* \"#utility.yul\":19765:19779   */\n      calldatasize\n        /* \"#utility.yul\":19756:19762   */\n      dup3\n        /* \"#utility.yul\":19749:19754   */\n      dup7\n        /* \"#utility.yul\":19745:19763   */\n      add\n        /* \"#utility.yul\":19704:19780   */\n      tag_226\n      jump\t// in\n    tag_388:\n        /* \"#utility.yul\":19698:19701   */\n      0xe0\n        /* \"#utility.yul\":19685:19702   */\n      dup4\n      add\n        /* \"#utility.yul\":19678:19781   */\n      mstore\n      pop\n        /* \"#utility.yul\":19689:19696   */\n      swap3\n        /* \"#utility.yul\":18934:19816   */\n      swap2\n      pop\n      pop\n      jump\t// out\n        /* \"#utility.yul\":19821:21452   */\n    tag_389:\n        /* \"#utility.yul\":19982:20002   */\n      0x010000000000000000\n        /* \"#utility.yul\":19977:19980   */\n      dup4\n        /* \"#utility.yul\":19974:20003   */\n      gt\n        /* \"#utility.yul\":19971:19973   */\n      iszero\n      tag_392\n      jumpi\n        /* \"#utility.yul\":20006:20024   */\n      tag_392\n      tag_358\n      jump\t// in\n    tag_392:\n        /* \"#utility.yul\":20055:20059   */\n      dup1\n        /* \"#utility.yul\":20049:20060   */\n      sload\n        /* \"#utility.yul\":20082:20085   */\n      dup4\n        /* \"#utility.yul\":20076:20080   */\n      dup3\n        /* \"#utility.yul\":20069:20086   */\n      sstore\n        /* \"#utility.yul\":20106:20112   */\n      dup1\n        /* \"#utility.yul\":20101:20104   */\n      dup5\n        /* \"#utility.yul\":20098:20113   */\n      lt\n        /* \"#utility.yul\":20095:20097   */\n      iszero\n      tag_393\n      jumpi\n        /* \"#utility.yul\":20146:20212   */\n      0x3333333333333333333333333333333333333333333333333333333333333333\n        /* \"#utility.yul\":20235:20236   */\n      0x01\n        /* \"#utility.yul\":20271:20273   */\n      dup2\n        /* \"#utility.yul\":20263:20269   */\n      dup4\n        /* \"#utility.yul\":20260:20274   */\n      gt\n        /* \"#utility.yul\":20256:20258   */\n      dup2\n        /* \"#utility.yul\":20252:20275   */\n      and\n        /* \"#utility.yul\":20249:20251   */\n      iszero\n      tag_395\n      jumpi\n        /* \"#utility.yul\":20278:20296   */\n      tag_395\n      tag_375\n      jump\t// in\n    tag_395:\n        /* \"#utility.yul\":20321:20322   */\n      0x05\n        /* \"#utility.yul\":20354:20356   */\n      dup3\n        /* \"#utility.yul\":20349:20352   */\n      dup8\n        /* \"#utility.yul\":20346:20357   */\n      gt\n        /* \"#utility.yul\":20342:20344   */\n      dup3\n        /* \"#utility.yul\":20338:20358   */\n      and\n        /* \"#utility.yul\":20335:20337   */\n      iszero\n      tag_397\n      jumpi\n        /* \"#utility.yul\":20361:20379   */\n      tag_397\n      tag_375\n      jump\t// in\n    tag_397:\n        /* \"#utility.yul\":20404:20405   */\n      0x00\n        /* \"#utility.yul\":20418:20434   */\n      dup6\n      dup2\n      mstore\n        /* \"#utility.yul\":20473:20477   */\n      0x20\n        /* \"#utility.yul\":20459:20478   */\n      dup2\n      keccak256\n        /* \"#utility.yul\":20404:20405   */\n      swap1\n      swap4\n      pop\n        /* \"#utility.yul\":20563:20575   */\n      dup8\n      dup3\n      mul\n        /* \"#utility.yul\":20553:20576   */\n      dup2\n      add\n      swap1\n        /* \"#utility.yul\":20511:20526   */\n      dup3\n      dup7\n      mul\n        /* \"#utility.yul\":20501:20527   */\n      add\n        /* \"#utility.yul\":20589:20958   */\n    tag_398:\n        /* \"#utility.yul\":20607:20609   */\n      dup1\n        /* \"#utility.yul\":20600:20605   */\n      dup3\n        /* \"#utility.yul\":20597:20610   */\n      lt\n        /* \"#utility.yul\":20589:20958   */\n      iszero\n      tag_400\n      jumpi\n        /* \"#utility.yul\":20669:20686   */\n      dup5\n      dup3\n      sstore\n        /* \"#utility.yul\":20710:20724   */\n      dup4\n      dup3\n      add\n        /* \"#utility.yul\":20703:20729   */\n      dup6\n      swap1\n      sstore\n        /* \"#utility.yul\":20785:20786   */\n      0x02\n        /* \"#utility.yul\":20774:20787   */\n      dup3\n      add\n        /* \"#utility.yul\":23986:23997   */\n      dup1\n      sload\n        /* \"#utility.yul\":24051:24117   */\n      0xffffffffffffffffffffffffffffffffffffffffffffffffffffffffffffffff\n        /* \"#utility.yul\":24039:24040   */\n      0x03\n        /* \"#utility.yul\":24035:24049   */\n      dup9\n      dup2\n      shl\n        /* \"#utility.yul\":24031:24118   */\n      swap2\n      swap1\n      swap2\n      shl\n        /* \"#utility.yul\":24027:24119   */\n      not\n        /* \"#utility.yul\":24019:24120   */\n      swap2\n      dup3\n      and\n        /* \"#utility.yul\":24006:24121   */\n      swap1\n      swap3\n      sstore\n        /* \"#utility.yul\":20837:20850   */\n      swap1\n      dup4\n      add\n        /* \"#utility.yul\":23986:23997   */\n      dup1\n      sload\n        /* \"#utility.yul\":24019:24120   */\n      swap1\n      swap2\n      and\n        /* \"#utility.yul\":24006:24121   */\n      swap1\n      sstore\n        /* \"#utility.yul\":20872:20944   */\n      tag_404\n        /* \"#utility.yul\":20941:20943   */\n      dup6\n        /* \"#utility.yul\":20937:20938   */\n      0x04\n        /* \"#utility.yul\":20930:20935   */\n      dup5\n        /* \"#utility.yul\":20926:20939   */\n      add\n        /* \"#utility.yul\":20872:20944   */\n      tag_405\n      jump\t// in\n    tag_404:\n        /* \"#utility.yul\":20622:20636   */\n      swap1\n      dup3\n      add\n      swap1\n        /* \"#utility.yul\":20589:20958   */\n      jump(tag_398)\n    tag_400:\n        /* \"#utility.yul\":20593:20596   */\n      pop\n      pop\n      pop\n      pop\n      pop\n        /* \"#utility.yul\":20095:20097   */\n    tag_393:\n      pop\n        /* \"#utility.yul\":17080:17230   */\n      0x00\n        /* \"#utility.yul\":17169:17186   */\n      dup2\n      dup2\n      mstore\n        /* \"#utility.yul\":17219:17223   */\n      0x20\n        /* \"#utility.yul\":17203:17224   */\n      dup2\n      keccak256\n        /* \"#utility.yul\":20991:20996   */\n      dup4\n      swap2\n        /* \"#utility.yul\":17080:17230   */\n      dup1\n        /* \"#utility.yul\":21131:21446   */\n    tag_407:\n        /* \"#utility.yul\":21147:21150   */\n      dup7\n        /* \"#utility.yul\":21142:21145   */\n      dup2\n        /* \"#utility.yul\":21139:21151   */\n      lt\n        /* \"#utility.yul\":21131:21446   */\n      iszero\n      tag_409\n      jumpi\n        /* \"#utility.yul\":21197:21351   */\n      tag_410\n        /* \"#utility.yul\":21286:21350   */\n      tag_411\n        /* \"#utility.yul\":21343:21349   */\n      dup6\n        /* \"#utility.yul\":21336:21341   */\n      dup9\n        /* \"#utility.yul\":21286:21350   */\n      tag_352\n      jump\t// in\n    tag_411:\n        /* \"#utility.yul\":21283:21284   */\n      dup4\n        /* \"#utility.yul\":21270:21281   */\n      dup6\n        /* \"#utility.yul\":21197:21351   */\n      tag_412\n      jump\t// in\n    tag_410:\n        /* \"#utility.yul\":21386:21388   */\n      0x20\n        /* \"#utility.yul\":21374:21389   */\n      swap4\n      swap1\n      swap4\n      add\n      swap3\n        /* \"#utility.yul\":21434:21435   */\n      0x05\n        /* \"#utility.yul\":21417:21436   */\n      swap3\n      swap1\n      swap3\n      add\n      swap2\n        /* \"#utility.yul\":21170:21171   */\n      0x01\n        /* \"#utility.yul\":21161:21172   */\n      add\n        /* \"#utility.yul\":21131:21446   */\n      jump(tag_407)\n    tag_409:\n        /* \"#utility.yul\":21135:21138   */\n      pop\n      pop\n      pop\n      pop\n        /* \"#utility.yul\":19961:21452   */\n      pop\n      pop\n      pop\n      jump\t// out\n        /* \"#utility.yul\":21457:22219   */\n    tag_413:\n        /* \"#utility.yul\":21613:21677   */\n      tag_415\n        /* \"#utility.yul\":21673:21676   */\n      dup4\n        /* \"#utility.yul\":21667:21671   */\n      dup3\n        /* \"#utility.yul\":21613:21677   */\n      tag_405\n      jump\t// in\n    tag_415:\n        /* \"#utility.yul\":21700:21705   */\n      dup2\n        /* \"#utility.yul\":21724:21728   */\n      dup2\n        /* \"#utility.yul\":21721:21722   */\n      0x00\n        /* \"#utility.yul\":21714:21729   */\n      mstore\n        /* \"#utility.yul\":21748:21752   */\n      0x20\n        /* \"#utility.yul\":21793:21795   */\n      dup1\n        /* \"#utility.yul\":21790:21791   */\n      0x00\n        /* \"#utility.yul\":21780:21796   */\n      keccak256\n        /* \"#utility.yul\":21814:21815   */\n      0x00\n        /* \"#utility.yul\":21824:22213   */\n    tag_416:\n        /* \"#utility.yul\":21838:21841   */\n      dup7\n        /* \"#utility.yul\":21835:21836   */\n      dup2\n        /* \"#utility.yul\":21832:21842   */\n      lt\n        /* \"#utility.yul\":21824:22213   */\n      iszero\n      tag_409\n      jumpi\n        /* \"#utility.yul\":21912:21918   */\n      dup4\n        /* \"#utility.yul\":21899:21919   */\n      calldataload\n        /* \"#utility.yul\":21932:21965   */\n      tag_419\n        /* \"#utility.yul\":21957:21964   */\n      dup2\n        /* \"#utility.yul\":21932:21965   */\n      tag_239\n      jump\t// in\n    tag_419:\n        /* \"#utility.yul\":24236:24247   */\n      dup3\n      sload\n        /* \"#utility.yul\":24249:24315   */\n      0xffffffffffffffffffffffff0000000000000000000000000000000000000000\n        /* \"#utility.yul\":24232:24316   */\n      and\n        /* \"#utility.yul\":24329:24371   */\n      0xffffffffffffffffffffffffffffffffffffffff\n        /* \"#utility.yul\":24318:24372   */\n      dup3\n      and\n        /* \"#utility.yul\":24229:24373   */\n      or\n        /* \"#utility.yul\":24216:24374   */\n      dup4\n      sstore\n        /* \"#utility.yul\":21978:22047   */\n      pop\n        /* \"#utility.yul\":22113:22115   */\n      dup3\n        /* \"#utility.yul\":22105:22111   */\n      dup5\n        /* \"#utility.yul\":22101:22116   */\n      add\n        /* \"#utility.yul\":22088:22117   */\n      calldataload\n        /* \"#utility.yul\":22084:22085   */\n      0x01\n        /* \"#utility.yul\":22071:22082   */\n      dup4\n        /* \"#utility.yul\":22067:22086   */\n      add\n        /* \"#utility.yul\":22060:22118   */\n      sstore\n        /* \"#utility.yul\":22153:22155   */\n      0x40\n        /* \"#utility.yul\":22145:22151   */\n      dup5\n        /* \"#utility.yul\":22141:22156   */\n      add\n        /* \"#utility.yul\":22131:22156   */\n      swap4\n      pop\n        /* \"#utility.yul\":22201:22202   */\n      0x02\n        /* \"#utility.yul\":22188:22199   */\n      dup3\n        /* \"#utility.yul\":22184:22203   */\n      add\n        /* \"#utility.yul\":22169:22203   */\n      swap2\n      pop\n        /* \"#utility.yul\":21857:21858   */\n      0x01\n        /* \"#utility.yul\":21854:21855   */\n      dup2\n        /* \"#utility.yul\":21850:21859   */\n      add\n        /* \"#utility.yul\":21845:21859   */\n      swap1\n      pop\n        /* \"#utility.yul\":21824:22213   */\n      jump(tag_416)\n        /* \"#utility.yul\":22224:22450   */\n    tag_177:\n      0x00\n        /* \"#utility.yul\":22291:22325   */\n      0xffffffffffffffffffffffffffffffff\n        /* \"#utility.yul\":22360:22362   */\n      dup1\n        /* \"#utility.yul\":22353:22358   */\n      dup4\n        /* \"#utility.yul\":22349:22363   */\n      and\n        /* \"#utility.yul\":22387:22389   */\n      dup2\n        /* \"#utility.yul\":22378:22385   */\n      dup2\n        /* \"#utility.yul\":22375:22390   */\n      eq\n        /* \"#utility.yul\":22372:22374   */\n      iszero\n      tag_424\n      jumpi\n        /* \"#utility.yul\":22393:22411   */\n      tag_424\n      tag_375\n      jump\t// in\n    tag_424:\n        /* \"#utility.yul\":22442:22443   */\n      0x01\n        /* \"#utility.yul\":22429:22444   */\n      add\n      swap4\n        /* \"#utility.yul\":22271:22450   */\n      swap3\n      pop\n      pop\n      pop\n      jump\t// out\n        /* \"#utility.yul\":22455:22650   */\n    tag_66:\n      0x00\n        /* \"#utility.yul\":22525:22591   */\n      0xffffffffffffffffffffffffffffffffffffffffffffffffffffffffffffffff\n        /* \"#utility.yul\":22518:22523   */\n      dup3\n        /* \"#utility.yul\":22515:22592   */\n      eq\n        /* \"#utility.yul\":22512:22514   */\n      iszero\n      tag_427\n      jumpi\n        /* \"#utility.yul\":22595:22613   */\n      tag_427\n      tag_375\n      jump\t// in\n    tag_427:\n      pop\n        /* \"#utility.yul\":22642:22643   */\n      0x01\n        /* \"#utility.yul\":22631:22644   */\n      add\n      swap1\n        /* \"#utility.yul\":22502:22650   */\n      jump\t// out\n        /* \"#utility.yul\":22655:22839   */\n    tag_375:\n      shl(0xe0, 0x4e487b71)\n        /* \"#utility.yul\":22704:22705   */\n      0x00\n        /* \"#utility.yul\":22697:22785   */\n      mstore\n        /* \"#utility.yul\":22804:22808   */\n      0x11\n        /* \"#utility.yul\":22801:22802   */\n      0x04\n        /* \"#utility.yul\":22794:22809   */\n      mstore\n        /* \"#utility.yul\":22828:22832   */\n      0x24\n        /* \"#utility.yul\":22825:22826   */\n      0x00\n        /* \"#utility.yul\":22818:22833   */\n      revert\n        /* \"#utility.yul\":22844:23028   */\n    tag_358:\n      shl(0xe0, 0x4e487b71)\n        /* \"#utility.yul\":22893:22894   */\n      0x00\n        /* \"#utility.yul\":22886:22974   */\n      mstore\n        /* \"#utility.yul\":22993:22997   */\n      0x41\n        /* \"#utility.yul\":22990:22991   */\n      0x04\n        /* \"#utility.yul\":22983:22998   */\n      mstore\n        /* \"#utility.yul\":23017:23021   */\n      0x24\n        /* \"#utility.yul\":23014:23015   */\n      0x00\n        /* \"#utility.yul\":23007:23022   */\n      revert\n        /* \"#utility.yul\":23033:23906   */\n    tag_405:\n        /* \"#utility.yul\":23139:23159   */\n      0x010000000000000000\n        /* \"#utility.yul\":23131:23137   */\n      dup3\n        /* \"#utility.yul\":23128:23160   */\n      gt\n        /* \"#utility.yul\":23125:23127   */\n      iszero\n      tag_432\n      jumpi\n        /* \"#utility.yul\":23163:23181   */\n      tag_432\n      tag_358\n      jump\t// in\n    tag_432:\n        /* \"#utility.yul\":23212:23217   */\n      dup1\n        /* \"#utility.yul\":23206:23218   */\n      sload\n        /* \"#utility.yul\":23241:23247   */\n      dup3\n        /* \"#utility.yul\":23234:23239   */\n      dup3\n        /* \"#utility.yul\":23227:23248   */\n      sstore\n        /* \"#utility.yul\":23271:23277   */\n      dup1\n        /* \"#utility.yul\":23263:23269   */\n      dup4\n        /* \"#utility.yul\":23260:23278   */\n      lt\n        /* \"#utility.yul\":23257:23259   */\n      iszero\n      tag_58\n      jumpi\n        /* \"#utility.yul\":23311:23377   */\n      0x7fffffffffffffffffffffffffffffffffffffffffffffffffffffffffffffff\n        /* \"#utility.yul\":23400:23401   */\n      0x01\n        /* \"#utility.yul\":23436:23438   */\n      dup2\n        /* \"#utility.yul\":23428:23434   */\n      dup4\n        /* \"#utility.yul\":23425:23439   */\n      gt\n        /* \"#utility.yul\":23421:23423   */\n      dup2\n        /* \"#utility.yul\":23417:23440   */\n      and\n        /* \"#utility.yul\":23414:23416   */\n      iszero\n      tag_435\n      jumpi\n        /* \"#utility.yul\":23443:23461   */\n      tag_435\n      tag_375\n      jump\t// in\n    tag_435:\n        /* \"#utility.yul\":23498:23500   */\n      dup2\n        /* \"#utility.yul\":23490:23496   */\n      dup6\n        /* \"#utility.yul\":23487:23501   */\n      gt\n        /* \"#utility.yul\":23483:23485   */\n      dup2\n        /* \"#utility.yul\":23479:23502   */\n      and\n        /* \"#utility.yul\":23476:23478   */\n      iszero\n      tag_437\n      jumpi\n        /* \"#utility.yul\":23505:23523   */\n      tag_437\n      tag_375\n      jump\t// in\n    tag_437:\n        /* \"#utility.yul\":23548:23549   */\n      0x00\n        /* \"#utility.yul\":23562:23579   */\n      dup5\n      dup2\n      mstore\n        /* \"#utility.yul\":23618:23622   */\n      0x20\n        /* \"#utility.yul\":23604:23623   */\n      dup2\n      keccak256\n        /* \"#utility.yul\":23548:23549   */\n      swap1\n      swap3\n      pop\n        /* \"#utility.yul\":23708:23723   */\n      dup6\n      dup3\n      shl\n        /* \"#utility.yul\":23698:23724   */\n      dup2\n      add\n      swap1\n        /* \"#utility.yul\":23656:23671   */\n      dup5\n      dup4\n      shl\n        /* \"#utility.yul\":23646:23672   */\n      add\n        /* \"#utility.yul\":23737:23890   */\n    tag_438:\n        /* \"#utility.yul\":23755:23757   */\n      dup1\n        /* \"#utility.yul\":23748:23753   */\n      dup3\n        /* \"#utility.yul\":23745:23758   */\n      lt\n        /* \"#utility.yul\":23737:23890   */\n      iszero\n      tag_409\n      jumpi\n        /* \"#utility.yul\":23830:23832   */\n      dup4\n        /* \"#utility.yul\":23823:23828   */\n      dup3\n        /* \"#utility.yul\":23816:23833   */\n      sstore\n        /* \"#utility.yul\":23873:23875   */\n      dup4\n        /* \"#utility.yul\":23868:23870   */\n      dup4\n        /* \"#utility.yul\":23861:23866   */\n      dup4\n        /* \"#utility.yul\":23857:23871   */\n      add\n        /* \"#utility.yul\":23850:23876   */\n      sstore\n        /* \"#utility.yul\":23781:23782   */\n      0x02\n        /* \"#utility.yul\":23774:23779   */\n      dup3\n        /* \"#utility.yul\":23770:23783   */\n      add\n        /* \"#utility.yul\":23761:23783   */\n      swap2\n      pop\n        /* \"#utility.yul\":23737:23890   */\n      jump(tag_438)\n        /* \"#utility.yul\":24385:26210   */\n    tag_121:\n        /* \"#utility.yul\":24554:24559   */\n      dup2\n        /* \"#utility.yul\":24541:24560   */\n      calldataload\n        /* \"#utility.yul\":24535:24539   */\n      dup2\n        /* \"#utility.yul\":24528:24561   */\n      sstore\n        /* \"#utility.yul\":24598:24599   */\n      0x01\n        /* \"#utility.yul\":24592:24596   */\n      dup2\n        /* \"#utility.yul\":24588:24600   */\n      add\n        /* \"#utility.yul\":24648:24650   */\n      0x20\n        /* \"#utility.yul\":24641:24646   */\n      dup4\n        /* \"#utility.yul\":24637:24651   */\n      add\n        /* \"#utility.yul\":24624:24652   */\n      calldataload\n        /* \"#utility.yul\":24661:24694   */\n      tag_444\n        /* \"#utility.yul\":24686:24693   */\n      dup2\n        /* \"#utility.yul\":24661:24694   */\n      tag_241\n      jump\t// in\n    tag_444:\n        /* \"#utility.yul\":26319:26330   */\n      dup2\n      sload\n        /* \"#utility.yul\":26332:26398   */\n      0xffffffffffffffffffffffffffffffff00000000000000000000000000000000\n        /* \"#utility.yul\":26315:26399   */\n      and\n        /* \"#utility.yul\":26412:26446   */\n      0xffffffffffffffffffffffffffffffff\n        /* \"#utility.yul\":26401:26447   */\n      dup3\n      and\n        /* \"#utility.yul\":26312:26448   */\n      or\n        /* \"#utility.yul\":26299:26449   */\n      dup3\n      sstore\n        /* \"#utility.yul\":24703:24771   */\n      pop\n        /* \"#utility.yul\":24819:24821   */\n      0x40\n        /* \"#utility.yul\":24812:24817   */\n      dup4\n        /* \"#utility.yul\":24808:24822   */\n      add\n        /* \"#utility.yul\":24795:24823   */\n      calldataload\n        /* \"#utility.yul\":24832:24865   */\n      tag_447\n        /* \"#utility.yul\":24857:24864   */\n      dup2\n        /* \"#utility.yul\":24832:24865   */\n      tag_241\n      jump\t// in\n    tag_447:\n        /* \"#utility.yul\":26556:26567   */\n      dup2\n      sload\n        /* \"#utility.yul\":26600:26634   */\n      0xffffffffffffffffffffffffffffffff\n        /* \"#utility.yul\":26592:26635   */\n      and\n        /* \"#utility.yul\":26645:26648   */\n      0x80\n        /* \"#utility.yul\":26641:26656   */\n      dup3\n      swap1\n      shl\n        /* \"#utility.yul\":26658:26724   */\n      0xffffffffffffffffffffffffffffffff00000000000000000000000000000000\n        /* \"#utility.yul\":26637:26725   */\n      and\n        /* \"#utility.yul\":26589:26726   */\n      or\n        /* \"#utility.yul\":26576:26727   */\n      dup3\n      sstore\n        /* \"#utility.yul\":24874:24944   */\n      pop\n      pop\n        /* \"#utility.yul\":24992:24994   */\n      0x60\n        /* \"#utility.yul\":24985:24990   */\n      dup3\n        /* \"#utility.yul\":24981:24995   */\n      add\n        /* \"#utility.yul\":24968:24996   */\n      calldataload\n        /* \"#utility.yul\":25005:25038   */\n      tag_450\n        /* \"#utility.yul\":25030:25037   */\n      dup2\n        /* \"#utility.yul\":25005:25038   */\n      tag_241\n      jump\t// in\n    tag_450:\n        /* \"#utility.yul\":25105:25106   */\n      0x02\n        /* \"#utility.yul\":25095:25107   */\n      dup3\n      add\n        /* \"#utility.yul\":26319:26330   */\n      dup1\n      sload\n        /* \"#utility.yul\":26332:26398   */\n      0xffffffffffffffffffffffffffffffff00000000000000000000000000000000\n        /* \"#utility.yul\":26315:26399   */\n      and\n        /* \"#utility.yul\":26412:26446   */\n      0xffffffffffffffffffffffffffffffff\n        /* \"#utility.yul\":26401:26447   */\n      dup4\n      and\n        /* \"#utility.yul\":26312:26448   */\n      or\n        /* \"#utility.yul\":26299:26449   */\n      swap1\n      sstore\n        /* \"#utility.yul\":25047:25117   */\n      pop\n        /* \"#utility.yul\":25171:25174   */\n      0x80\n        /* \"#utility.yul\":25164:25169   */\n      dup3\n        /* \"#utility.yul\":25160:25175   */\n      add\n        /* \"#utility.yul\":25147:25176   */\n      calldataload\n        /* \"#utility.yul\":25143:25144   */\n      0x03\n        /* \"#utility.yul\":25137:25141   */\n      dup3\n        /* \"#utility.yul\":25133:25145   */\n      add\n        /* \"#utility.yul\":25126:25177   */\n      sstore\n        /* \"#utility.yul\":25216:25217   */\n      0x04\n        /* \"#utility.yul\":25210:25214   */\n      dup2\n        /* \"#utility.yul\":25206:25218   */\n      add\n        /* \"#utility.yul\":25266:25269   */\n      0xa0\n        /* \"#utility.yul\":25259:25264   */\n      dup4\n        /* \"#utility.yul\":25255:25270   */\n      add\n        /* \"#utility.yul\":25242:25271   */\n      calldataload\n        /* \"#utility.yul\":25280:25313   */\n      tag_452\n        /* \"#utility.yul\":25305:25312   */\n      dup2\n        /* \"#utility.yul\":25280:25313   */\n      tag_241\n      jump\t// in\n    tag_452:\n        /* \"#utility.yul\":26319:26330   */\n      dup2\n      sload\n        /* \"#utility.yul\":26332:26398   */\n      0xffffffffffffffffffffffffffffffff00000000000000000000000000000000\n        /* \"#utility.yul\":26315:26399   */\n      and\n        /* \"#utility.yul\":26412:26446   */\n      0xffffffffffffffffffffffffffffffff\n        /* \"#utility.yul\":26401:26447   */\n      dup3\n      and\n        /* \"#utility.yul\":26312:26448   */\n      or\n        /* \"#utility.yul\":26299:26449   */\n      dup3\n      sstore\n        /* \"#utility.yul\":25322:25392   */\n      pop\n        /* \"#utility.yul\":25440:25443   */\n      0xc0\n        /* \"#utility.yul\":25433:25438   */\n      dup4\n        /* \"#utility.yul\":25429:25444   */\n      add\n        /* \"#utility.yul\":25416:25445   */\n      calldataload\n        /* \"#utility.yul\":25454:25487   */\n      tag_454\n        /* \"#utility.yul\":25479:25486   */\n      dup2\n        /* \"#utility.yul\":25454:25487   */\n      tag_241\n      jump\t// in\n    tag_454:\n        /* \"#utility.yul\":26556:26567   */\n      dup2\n      sload\n        /* \"#utility.yul\":26600:26634   */\n      0xffffffffffffffffffffffffffffffff\n        /* \"#utility.yul\":26592:26635   */\n      and\n        /* \"#utility.yul\":26645:26648   */\n      0x80\n        /* \"#utility.yul\":26641:26656   */\n      dup3\n      swap1\n      shl\n        /* \"#utility.yul\":26658:26724   */\n      0xffffffffffffffffffffffffffffffff00000000000000000000000000000000\n        /* \"#utility.yul\":26637:26725   */\n      and\n        /* \"#utility.yul\":26589:26726   */\n      or\n        /* \"#utility.yul\":26576:26727   */\n      dup3\n      sstore\n        /* \"#utility.yul\":25496:25568   */\n      pop\n      pop\n        /* \"#utility.yul\":25627:25630   */\n      0xe0\n        /* \"#utility.yul\":25620:25625   */\n      dup3\n        /* \"#utility.yul\":25616:25631   */\n      add\n        /* \"#utility.yul\":25603:25632   */\n      calldataload\n        /* \"#utility.yul\":25707:25773   */\n      0xffffffffffffffffffffffffffffffffffffffffffffffffffffffffffffffe1\n        /* \"#utility.yul\":25699:25704   */\n      dup4\n        /* \"#utility.yul\":25683:25697   */\n      calldatasize\n        /* \"#utility.yul\":25679:25705   */\n      sub\n        /* \"#utility.yul\":25675:25774   */\n      add\n        /* \"#utility.yul\":25655:25673   */\n      dup2\n        /* \"#utility.yul\":25651:25775   */\n      slt\n        /* \"#utility.yul\":25641:25643   */\n      tag_456\n      jumpi\n        /* \"#utility.yul\":25789:25790   */\n      0x00\n        /* \"#utility.yul\":25786:25787   */\n      dup1\n        /* \"#utility.yul\":25779:25791   */\n      revert\n        /* \"#utility.yul\":25641:25643   */\n    tag_456:\n        /* \"#utility.yul\":25814:25844   */\n      dup3\n      add\n        /* \"#utility.yul\":25867:25885   */\n      dup1\n      calldataload\n        /* \"#utility.yul\":25908:25926   */\n      0xffffffffffffffff\n        /* \"#utility.yul\":25897:25927   */\n      dup2\n      gt\n        /* \"#utility.yul\":25894:25896   */\n      iszero\n      tag_457\n      jumpi\n        /* \"#utility.yul\":25940:25941   */\n      0x00\n        /* \"#utility.yul\":25937:25938   */\n      dup1\n        /* \"#utility.yul\":25930:25942   */\n      revert\n        /* \"#utility.yul\":25894:25896   */\n    tag_457:\n        /* \"#utility.yul\":25977:25979   */\n      0x20\n        /* \"#utility.yul\":25971:25975   */\n      dup3\n        /* \"#utility.yul\":25967:25980   */\n      add\n        /* \"#utility.yul\":25953:25980   */\n      swap2\n      pop\n        /* \"#utility.yul\":26031:26037   */\n      dup1\n        /* \"#utility.yul\":26028:26029   */\n      0x05\n        /* \"#utility.yul\":26024:26038   */\n      shl\n        /* \"#utility.yul\":26008:26022   */\n      calldatasize\n        /* \"#utility.yul\":26004:26039   */\n      sub\n        /* \"#utility.yul\":25996:26002   */\n      dup3\n        /* \"#utility.yul\":25992:26040   */\n      sgt\n        /* \"#utility.yul\":25989:25991   */\n      iszero\n      tag_458\n      jumpi\n        /* \"#utility.yul\":26053:26054   */\n      0x00\n        /* \"#utility.yul\":26050:26051   */\n      dup1\n        /* \"#utility.yul\":26043:26055   */\n      revert\n        /* \"#utility.yul\":25989:25991   */\n    tag_458:\n        /* \"#utility.yul\":26066:26204   */\n      tag_143\n        /* \"#utility.yul\":26197:26203   */\n      dup2\n        /* \"#utility.yul\":26189:26195   */\n      dup4\n        /* \"#utility.yul\":26185:26186   */\n      0x05\n        /* \"#utility.yul\":26179:26183   */\n      dup7\n        /* \"#utility.yul\":26175:26187   */\n      add\n        /* \"#utility.yul\":26066:26204   */\n      tag_389\n      jump\t// in\n        /* \"#utility.yul\":26738:28145   */\n    tag_412:\n        /* \"#utility.yul\":26858:26864   */\n      dup2\n        /* \"#utility.yul\":26855:26857   */\n      iszero\n      tag_463\n      jumpi\n      shl(0xe0, 0x4e487b71)\n        /* \"#utility.yul\":26894:26895   */\n      0x00\n        /* \"#utility.yul\":26887:26975   */\n      mstore\n        /* \"#utility.yul\":26998:26999   */\n      0x00\n        /* \"#utility.yul\":26995:26996   */\n      0x04\n        /* \"#utility.yul\":26988:27000   */\n      mstore\n        /* \"#utility.yul\":27023:27027   */\n      0x24\n        /* \"#utility.yul\":27020:27021   */\n      0x00\n        /* \"#utility.yul\":27013:27028   */\n      revert\n        /* \"#utility.yul\":26855:26857   */\n    tag_463:\n        /* \"#utility.yul\":27075:27080   */\n      dup3\n        /* \"#utility.yul\":27062:27081   */\n      calldataload\n        /* \"#utility.yul\":27090:27123   */\n      tag_464\n        /* \"#utility.yul\":27115:27122   */\n      dup2\n        /* \"#utility.yul\":27090:27123   */\n      tag_239\n      jump\t// in\n    tag_464:\n        /* \"#utility.yul\":24236:24247   */\n      dup2\n      sload\n        /* \"#utility.yul\":24249:24315   */\n      0xffffffffffffffffffffffff0000000000000000000000000000000000000000\n        /* \"#utility.yul\":24232:24316   */\n      and\n        /* \"#utility.yul\":24329:24371   */\n      0xffffffffffffffffffffffffffffffffffffffff\n        /* \"#utility.yul\":24318:24372   */\n      dup3\n      and\n        /* \"#utility.yul\":24229:24373   */\n      or\n        /* \"#utility.yul\":24216:24374   */\n      dup3\n      sstore\n        /* \"#utility.yul\":27132:27194   */\n      pop\n        /* \"#utility.yul\":27231:27232   */\n      0x01\n        /* \"#utility.yul\":27225:27229   */\n      dup2\n        /* \"#utility.yul\":27221:27233   */\n      add\n        /* \"#utility.yul\":27281:27283   */\n      0x20\n        /* \"#utility.yul\":27274:27279   */\n      dup5\n        /* \"#utility.yul\":27270:27284   */\n      add\n        /* \"#utility.yul\":27257:27285   */\n      calldataload\n        /* \"#utility.yul\":27294:27327   */\n      tag_466\n        /* \"#utility.yul\":27319:27326   */\n      dup2\n        /* \"#utility.yul\":27294:27327   */\n      tag_241\n      jump\t// in\n    tag_466:\n        /* \"#utility.yul\":26319:26330   */\n      dup2\n      sload\n        /* \"#utility.yul\":26332:26398   */\n      0xffffffffffffffffffffffffffffffff00000000000000000000000000000000\n        /* \"#utility.yul\":26315:26399   */\n      and\n        /* \"#utility.yul\":26412:26446   */\n      0xffffffffffffffffffffffffffffffff\n        /* \"#utility.yul\":26401:26447   */\n      dup3\n      and\n        /* \"#utility.yul\":26312:26448   */\n      or\n        /* \"#utility.yul\":26299:26449   */\n      dup3\n      sstore\n        /* \"#utility.yul\":27336:27404   */\n      pop\n        /* \"#utility.yul\":27452:27454   */\n      0x40\n        /* \"#utility.yul\":27445:27450   */\n      dup5\n        /* \"#utility.yul\":27441:27455   */\n      add\n        /* \"#utility.yul\":27428:27456   */\n      calldataload\n        /* \"#utility.yul\":27465:27495   */\n      tag_468\n        /* \"#utility.yul\":27487:27494   */\n      dup2\n        /* \"#utility.yul\":27465:27495   */\n      tag_260\n      jump\t// in\n    tag_468:\n        /* \"#utility.yul\":27520:27530   */\n      dup2\n        /* \"#utility.yul\":27514:27531   */\n      sload\n        /* \"#utility.yul\":27678:27714   */\n      0xff00000000000000000000000000000000\n        /* \"#utility.yul\":27666:27673   */\n      dup3\n        /* \"#utility.yul\":27659:27674   */\n      iszero\n        /* \"#utility.yul\":27652:27675   */\n      iszero\n        /* \"#utility.yul\":27647:27650   */\n      0x80\n        /* \"#utility.yul\":27643:27676   */\n      shl\n        /* \"#utility.yul\":27639:27715   */\n      and\n        /* \"#utility.yul\":27570:27636   */\n      0xffffffffffffffffffffffffffffff00ffffffffffffffffffffffffffffffff\n        /* \"#utility.yul\":27566:27568   */\n      dup3\n        /* \"#utility.yul\":27562:27637   */\n      and\n        /* \"#utility.yul\":27559:27716   */\n      or\n        /* \"#utility.yul\":27547:27557   */\n      dup4\n        /* \"#utility.yul\":27540:27717   */\n      sstore\n      pop\n      pop\n      pop\n        /* \"#utility.yul\":27771:27773   */\n      0x60\n        /* \"#utility.yul\":27764:27769   */\n      dup4\n        /* \"#utility.yul\":27760:27774   */\n      add\n        /* \"#utility.yul\":27747:27775   */\n      calldataload\n        /* \"#utility.yul\":27743:27744   */\n      0x02\n        /* \"#utility.yul\":27737:27741   */\n      dup3\n        /* \"#utility.yul\":27733:27745   */\n      add\n        /* \"#utility.yul\":27726:27776   */\n      sstore\n        /* \"#utility.yul\":27830:27833   */\n      0x80\n        /* \"#utility.yul\":27823:27828   */\n      dup4\n        /* \"#utility.yul\":27819:27834   */\n      add\n        /* \"#utility.yul\":27806:27835   */\n      calldataload\n        /* \"#utility.yul\":27802:27803   */\n      0x03\n        /* \"#utility.yul\":27796:27800   */\n      dup3\n        /* \"#utility.yul\":27792:27804   */\n      add\n        /* \"#utility.yul\":27785:27836   */\n      sstore\n        /* \"#utility.yul\":27879:27974   */\n      tag_469\n        /* \"#utility.yul\":27969:27972   */\n      0xa0\n        /* \"#utility.yul\":27962:27967   */\n      dup5\n        /* \"#utility.yul\":27958:27973   */\n      add\n        /* \"#utility.yul\":27951:27956   */\n      dup5\n        /* \"#utility.yul\":27879:27974   */\n      tag_347\n      jump\t// in\n    tag_469:\n        /* \"#utility.yul\":27983:28139   */\n      tag_152\n        /* \"#utility.yul\":28125:28138   */\n      dup2\n        /* \"#utility.yul\":28112:28123   */\n      dup4\n        /* \"#utility.yul\":28108:28109   */\n      0x04\n        /* \"#utility.yul\":28102:28106   */\n      dup7\n        /* \"#utility.yul\":28098:28110   */\n      add\n        /* \"#utility.yul\":27983:28139   */\n      tag_413\n      jump\t// in\n        /* \"#utility.yul\":28150:28304   */\n    tag_239:\n        /* \"#utility.yul\":28236:28278   */\n      0xffffffffffffffffffffffffffffffffffffffff\n        /* \"#utility.yul\":28229:28234   */\n      dup2\n        /* \"#utility.yul\":28225:28279   */\n      and\n        /* \"#utility.yul\":28218:28223   */\n      dup2\n        /* \"#utility.yul\":28215:28280   */\n      eq\n        /* \"#utility.yul\":28205:28207   */\n      tag_202\n      jumpi\n        /* \"#utility.yul\":28294:28295   */\n      0x00\n        /* \"#utility.yul\":28291:28292   */\n      dup1\n        /* \"#utility.yul\":28284:28296   */\n      revert\n        /* \"#utility.yul\":28309:28427   */\n    tag_260:\n        /* \"#utility.yul\":28395:28400   */\n      dup1\n        /* \"#utility.yul\":28388:28401   */\n      iszero\n        /* \"#utility.yul\":28381:28402   */\n      iszero\n        /* \"#utility.yul\":28374:28379   */\n      dup2\n        /* \"#utility.yul\":28371:28403   */\n      eq\n        /* \"#utility.yul\":28361:28363   */\n      tag_202\n      jumpi\n        /* \"#utility.yul\":28417:28418   */\n      0x00\n        /* \"#utility.yul\":28414:28415   */\n      dup1\n        /* \"#utility.yul\":28407:28419   */\n      revert\n        /* \"#utility.yul\":28432:28578   */\n    tag_241:\n        /* \"#utility.yul\":28518:28552   */\n      0xffffffffffffffffffffffffffffffff\n        /* \"#utility.yul\":28511:28516   */\n      dup2\n        /* \"#utility.yul\":28507:28553   */\n      and\n        /* \"#utility.yul\":28500:28505   */\n      dup2\n        /* \"#utility.yul\":28497:28554   */\n      eq\n        /* \"#utility.yul\":28487:28489   */\n      tag_202\n      jumpi\n        /* \"#utility.yul\":28568:28569   */\n      0x00\n        /* \"#utility.yul\":28565:28566   */\n      dup1\n        /* \"#utility.yul\":28558:28570   */\n      revert\n\n    auxdata: 0xa264697066735822122072f69b6c50dc61442c41c78c7a16bb69485ff6b49f75eaf73ffc260e3a9eac5064736f6c63430008030033\n}\n",
				"bytecode": {
					"linkReferences": {},
					"object": "608060405234801561001057600080fd5b50612135806100206000396000f3fe608060405234801561001057600080fd5b50600436106100a35760003560e01c8063485cc95511610076578063b75b518c1161005b578063b75b518c1461017b578063f461e54f14610183578063f53d2ead14610196576100a3565b8063485cc9551461012d57806389b8036114610140576100a3565b806330206bcc146100a85780633fd2c16a146100bd578063402e47491461010757806346b705a41461011a575b600080fd5b6100bb6100b63660046111f8565b6101d3565b005b6004546100dd9073ffffffffffffffffffffffffffffffffffffffff1681565b60405173ffffffffffffffffffffffffffffffffffffffff90911681526020015b60405180910390f35b6100dd61011536600461125d565b61034a565b6100bb610128366004611275565b610381565b6100bb61013b366004611230565b61074a565b61015361014e36600461125d565b61086e565b604080516fffffffffffffffffffffffffffffffff90931683529015156020830152016100fe565b6100bb6108bf565b6100bb610191366004611328565b6108ed565b6005546101b2906fffffffffffffffffffffffffffffffff1681565b6040516fffffffffffffffffffffffffffffffff90911681526020016100fe565b60045473ffffffffffffffffffffffffffffffffffffffff1633146101f757600080fd5b801561027257600380546001810182556000919091527fc2575a0e9e593c00f959f8c92f12db2869c3395a3b0502d05e2516446f71f85b0180547fffffffffffffffffffffffff00000000000000000000000000000000000000001673ffffffffffffffffffffffffffffffffffffffff8416179055610346565b60005b600354811015610344578273ffffffffffffffffffffffffffffffffffffffff16600382815481106102b757634e487b7160e01b600052603260045260246000fd5b60009182526020909120015473ffffffffffffffffffffffffffffffffffffffff161415610332576003818154811061030057634e487b7160e01b600052603260045260246000fd5b600091825260209091200180547fffffffffffffffffffffffff00000000000000000000000000000000000000001690555b8061033c81611c74565b915050610275565b505b5050565b6003818154811061035a57600080fd5b60009182526020909120015473ffffffffffffffffffffffffffffffffffffffff16905081565b60045473ffffffffffffffffffffffffffffffffffffffff1633146103a557600080fd5b6002546001891b908082161561041c576040517f08c379a000000000000000000000000000000000000000000000000000000000815260206004820152601560248201527f4f523a20414c52454144595f5355424d4954544544000000000000000000000060448201526064015b60405180910390fd5b8082176002556005546fffffffffffffffffffffffffffffffff8881169116146104a2576040517f08c379a000000000000000000000000000000000000000000000000000000000815260206004820152600d60248201527f4f523a20494e565f4e4f4e4345000000000000000000000000000000000000006044820152606401610413565b505060007fffffffffffffffffffffffffffffffffffffffffffffffffffffffffffffff00856040516020016104d891906115ad565b6040516020818303038152906040528051906020012060001c16905082156105005760068190555b600080545b808210801561054d575061054d836000848154811061053457634e487b7160e01b600052603260045260246000fd5b9060005260206000200154610b0c90919063ffffffff16565b156105625761055b82611c74565b9150610505565b80821015610656578961059f6000848154811061058f57634e487b7160e01b600052603260045260246000fd5b9060005260206000200154610b36565b6105aa9060016119a6565b60ff161061061457600654600080548215926105e09183908790811061053457634e487b7160e01b600052603260045260246000fd5b90508180156105ed575080155b806105f55750855b1561060d5761060d8b6106078b6119cb565b8a610b3d565b5050610651565b6000828154811061063557634e487b7160e01b600052603260045260246000fd5b906000526020600020016000815461064c90611c74565b909155505b6106d5565b8960011415610672576106518961066c896119cb565b88610b3d565b600061067f84600161198e565b8154600181810184556000938452602084209091019190915580548082018255915287906006027fb10e2d527612073b26eecdfd717e6a320cf44b4afac2b0732d9fcbe2b7fa0cf6016106d28282611d78565b50505b604080516fffffffffffffffffffffffffffffffff8b811682528a16602082015273ffffffffffffffffffffffffffffffffffffffff88168183015290517fbbf23e6bd8173d3423fb94a419f7193574bdca2f2b640364201f708b6a13cbe89181900360600190a15050505050505050505050565b60045473ffffffffffffffffffffffffffffffffffffffff16158015610785575073ffffffffffffffffffffffffffffffffffffffff821615155b6107eb576040517f08c379a000000000000000000000000000000000000000000000000000000000815260206004820152601360248201527f414c52454144595f494e495449414c495a4544000000000000000000000000006044820152606401610413565b6004805473ffffffffffffffffffffffffffffffffffffffff9384167fffffffffffffffffffffffff000000000000000000000000000000000000000091821617909155600380546001810182556000919091527fc2575a0e9e593c00f959f8c92f12db2869c3395a3b0502d05e2516446f71f85b018054929093169116179055565b600454600090819073ffffffffffffffffffffffffffffffffffffffff16331461089757600080fd5b50506002546005546fffffffffffffffffffffffffffffffff16906001831b1615155b915091565b60045473ffffffffffffffffffffffffffffffffffffffff1633146108e357600080fd5b6108eb610c7e565b565b60045473ffffffffffffffffffffffffffffffffffffffff16331461091157600080fd5b6000806109208460ff16610d27565b915091508115610b0657600061093582610e3f565b60408051610100810182528254815260018301546fffffffffffffffffffffffffffffffff8082166020808501919091527001000000000000000000000000000000009283900482168486015260028601548216606085015260038601546080850152600486015480831660a0860152929092041660c083015260058401805484518184028101840190955280855292949360e0860193909260009084015b82821015610aee57600084815260208082206040805160c08101825260058702909201805473ffffffffffffffffffffffffffffffffffffffff16835260018101546fffffffffffffffffffffffffffffffff811684860152700100000000000000000000000000000000900460ff1615158383015260028101546060840152600381015460808401526004810180548351818702810187019094528084529395919460a087019491929084015b82821015610ad75760008481526020908190206040805180820190915260028502909101805473ffffffffffffffffffffffffffffffffffffffff168252600190810154828401529083529092019101610a82565b5050505081525050815260200190600101906109d4565b50505050815250509050610b0484826000610b3d565b505b50505050565b7fffffffffffffffffffffffffffffffffffffffffffffffffffffffffffffff0091909116141590565b805b919050565b60005b600354811015610c7957600073ffffffffffffffffffffffffffffffffffffffff1660038281548110610b8357634e487b7160e01b600052603260045260246000fd5b60009182526020909120015473ffffffffffffffffffffffffffffffffffffffff161415610bb057610c67565b60038181548110610bd157634e487b7160e01b600052603260045260246000fd5b6000918252602090912001546040517f567ea96100000000000000000000000000000000000000000000000000000000815273ffffffffffffffffffffffffffffffffffffffff9091169063567ea96190610c34908790879087906004016116ab565b600060405180830381600087803b158015610c4e57600080fd5b505af1158015610c62573d6000803e3d6000fd5b505050505b80610c7181611c74565b915050610b40565b506103445b60006002819055610c8f9080610e97565b610c9b60016000610eb8565b60006006819055600580546fffffffffffffffffffffffffffffffff1691610cc283611c44565b91906101000a8154816fffffffffffffffffffffffffffffffff02191690836fffffffffffffffffffffffffffffffff160217905550507f131fc6443e37553a3c958042fd059569756675c2d859c083e17ec4928c3c70fb60405160405180910390a1565b6000805481906001811415610d6c5783610d5b6000808154811061058f57634e487b7160e01b600052603260045260246000fd5b60ff161015600092509250506108ba565b80610d9e5760007fffffffffffffffffffffffffffffffffffffffffffffffffffffffffffffffff92509250506108ba565b60008060008060005b85811015610e1e57610dd36000828154811061058f57634e487b7160e01b600052603260045260246000fd5b60ff16915061ffff83168210610e0e578261ffff168261ffff161415610e0357610dfc84611c74565b9350610e0e565b809450819250600093505b610e1781611c74565b9050610da7565b50878261ffff1610158015610e31575082155b965092945050505050915091565b6001546000908210610e6157634e487b7160e01b600052600160045260246000fd5b60018281548110610e8257634e487b7160e01b600052603260045260246000fd5b90600052602060002090600602019050919050565b5080546000825590600052602060002090810190610eb59190610ed9565b50565b5080546000825560060290600052602060002090810190610eb59190610ef2565b5b80821115610eee5760008155600101610eda565b5090565b80821115610eee576000808255600182018190556002820180547fffffffffffffffffffffffffffffffff000000000000000000000000000000001690556003820181905560048201819055610f4b6005830182610f54565b50600601610ef2565b5080546000825560050290600052602060002090810190610eb591905b80821115610eee5780547fffffffffffffffffffffffff00000000000000000000000000000000000000001681556001810180547fffffffffffffffffffffffffffffff000000000000000000000000000000000016905560006002820181905560038201819055610fe66004830182610fef565b50600501610f71565b5080546000825560020290600052602060002090810190610eb591905b80821115610eee5780547fffffffffffffffffffffffff00000000000000000000000000000000000000001681556000600182015560020161100c565b600082601f830112611059578081fd5b8135602061106e6110698361189e565b61184f565b82815281810190858301855b8581101561114c578135880160c0807fffffffffffffffffffffffffffffffffffffffffffffffffffffffffffffffe0838d030112156110b8578889fd5b6110c18161184f565b878301356110ce816120b1565b81526040838101356110df816120e1565b828a015260606110f08582016111e2565b828401526080915081850135818401525060a0808501358284015283850135935067ffffffffffffffff841115611125578b8cfd5b6111338e8b86880101611159565b908301525086525050928401929084019060010161107a565b5090979650505050505050565b600082601f830112611169578081fd5b813560206111796110698361189e565b80838252828201915082860187848660061b8901011115611198578586fd5b855b8581101561114c57604080838b0312156111b2578788fd5b6111bb8161184f565b83356111c6816120b1565b815283870135878201528552938501939091019060010161119a565b8035610b38816120d3565b8035610b38816120e1565b6000806040838503121561120a578182fd5b8235611215816120b1565b91506020830135611225816120d3565b809150509250929050565b60008060408385031215611242578182fd5b823561124d816120b1565b91506020830135611225816120b1565b60006020828403121561126e578081fd5b5035919050565b600080600080600080600080610100808a8c031215611292578485fd5b8935985060208a0135975060408a01356112ab816120e1565b965060608a01356112bb816120e1565b955060808a013567ffffffffffffffff8111156112d6578586fd5b8a01808c038213156112e6578586fd5b94505060a08901356112f7816120b1565b925060c0890135611307816120d3565b915060e0890135611317816120d3565b809150509295985092959890939650565b6000806040838503121561133a578182fd5b823560ff8116811461134a578283fd5b91506020830135611225816120e1565b60008284526020808501808196508560051b8101915084845b8781101561145a57828403895281357fffffffffffffffffffffffffffffffffffffffffffffffffffffffffffffff418836030181126113b1578687fd5b870160c081356113c0816120b1565b73ffffffffffffffffffffffffffffffffffffffff168652818701356113e5816120e1565b6fffffffffffffffffffffffffffffffff168688015260406114088382016111e2565b151590870152606082810135908701526080808301359087015260a061143081840184611928565b93508282890152611444838901858361154e565b9c89019c97505050928601925050600101611373565b5091979650505050505050565b600081518084526020808501808196508360051b81019150828601855b8581101561145a5782840389528151805173ffffffffffffffffffffffffffffffffffffffff9081168652868201516fffffffffffffffffffffffffffffffff1687870152604080830151151581880152606080840151908801526080808401519088015260a09283015160c0938801849052805193880184905288019260e08801928b9290915b808410156115375785518051841686528b01518b860152948a0194938101936001939093019261150c565b5050509a87019a5094505090840190600101611484565b60008284526020808501945082825b858110156115a2578135611570816120b1565b73ffffffffffffffffffffffffffffffffffffffff16875281830135838801526040968701969091019060010161155d565b509495945050505050565b6000602082528235602083015260208301356115c8816120e1565b6fffffffffffffffffffffffffffffffff81166040840152506115ed604084016111ed565b6fffffffffffffffffffffffffffffffff8116606084015250611612606084016111ed565b6fffffffffffffffffffffffffffffffff8116608084015250608083013560a083015261164160a084016111ed565b6fffffffffffffffffffffffffffffffff811660c08401525061166660c084016111ed565b6fffffffffffffffffffffffffffffffff811660e08401525061168c60e08401846118c2565b610100848101526116a26101208501828461135a565b95945050505050565b60006fffffffffffffffffffffffffffffffff808616835260606020840152845160608401528060208601511660808401528060408601511660a084015250606084015161170d60c08401826fffffffffffffffffffffffffffffffff169052565b50608084015160e083015260a084015161010061173d818501836fffffffffffffffffffffffffffffffff169052565b60c08601516fffffffffffffffffffffffffffffffff1661012085015260e08601516101408501919091529050611778610160840182611467565b91505061179d604083018473ffffffffffffffffffffffffffffffffffffffff169052565b949350505050565b60008083357fffffffffffffffffffffffffffffffffffffffffffffffffffffffffffffffe18436030181126117d9578182fd5b83018035915067ffffffffffffffff8211156117f3578283fd5b6020019150600681901b360382131561180b57600080fd5b9250929050565b600082357fffffffffffffffffffffffffffffffffffffffffffffffffffffffffffffff41833603018112611845578182fd5b9190910192915050565b604051601f82017fffffffffffffffffffffffffffffffffffffffffffffffffffffffffffffffe016810167ffffffffffffffff8111828210171561189657611896611cc3565b604052919050565b600067ffffffffffffffff8211156118b8576118b8611cc3565b5060051b60200190565b60008083357fffffffffffffffffffffffffffffffffffffffffffffffffffffffffffffffe18436030181126118f6578283fd5b830160208101925035905067ffffffffffffffff81111561191657600080fd5b8060051b360383131561180b57600080fd5b60008083357fffffffffffffffffffffffffffffffffffffffffffffffffffffffffffffffe184360301811261195c578283fd5b830160208101925035905067ffffffffffffffff81111561197c57600080fd5b8060061b360383131561180b57600080fd5b600082198211156119a1576119a1611cad565b500190565b600060ff821660ff84168060ff038211156119c3576119c3611cad565b019392505050565b60006101008083360312156119de578182fd5b6119e78161184f565b9050823581526119f9602084016111ed565b6020820152611a0a604084016111ed565b6040820152611a1b606084016111ed565b606082015260808301356080820152611a3660a084016111ed565b60a0820152611a4760c084016111ed565b60c082015260e083013567ffffffffffffffff811115611a65578283fd5b611a7136828601611049565b60e08301525092915050565b68010000000000000000831115611a9657611a96611cc3565b805483825580841015611b71577f33333333333333333333333333333333333333333333333333333333333333336001818311811615611ad857611ad8611cad565b6005828711821615611aec57611aec611cad565b600085815260208120909350878202810190828602015b80821015611b6b578482558382018590556002820180547fffffffffffffffffffffffffffffffffffffffffffffffffffffffffffffffff600388811b9190911b1991821690925590830180549091169055611b628560048401611cd9565b90820190611b03565b50505050505b506000818152602081208391805b86811015611bb157611b9b611b948588611812565b8385611f7d565b6020939093019260059290920191600101611b7f565b50505050505050565b611bc48382611cd9565b818160005260208060002060005b86811015611bb1578335611be5816120b1565b82547fffffffffffffffffffffffff00000000000000000000000000000000000000001673ffffffffffffffffffffffffffffffffffffffff821617835550828401356001830155604084019350600282019150600181019050611bd2565b60006fffffffffffffffffffffffffffffffff80831681811415611c6a57611c6a611cad565b6001019392505050565b60007fffffffffffffffffffffffffffffffffffffffffffffffffffffffffffffffff821415611ca657611ca6611cad565b5060010190565b634e487b7160e01b600052601160045260246000fd5b634e487b7160e01b600052604160045260246000fd5b68010000000000000000821115611cf257611cf2611cc3565b805482825580831015610344577f7fffffffffffffffffffffffffffffffffffffffffffffffffffffffffffffff6001818311811615611d3457611d34611cad565b818511811615611d4657611d46611cad565b60008481526020812090925085821b81019084831b015b80821015611bb1578382558383830155600282019150611d5d565b81358155600181016020830135611d8e816120e1565b81547fffffffffffffffffffffffffffffffff00000000000000000000000000000000166fffffffffffffffffffffffffffffffff8216178255506040830135611dd7816120e1565b81546fffffffffffffffffffffffffffffffff16608082901b7fffffffffffffffffffffffffffffffff000000000000000000000000000000001617825550506060820135611e25816120e1565b6002820180547fffffffffffffffffffffffffffffffff00000000000000000000000000000000166fffffffffffffffffffffffffffffffff831617905550608082013560038201556004810160a0830135611e80816120e1565b81547fffffffffffffffffffffffffffffffff00000000000000000000000000000000166fffffffffffffffffffffffffffffffff82161782555060c0830135611ec9816120e1565b81546fffffffffffffffffffffffffffffffff16608082901b7fffffffffffffffffffffffffffffffff0000000000000000000000000000000016178255505060e08201357fffffffffffffffffffffffffffffffffffffffffffffffffffffffffffffffe1833603018112611f3e57600080fd5b8201803567ffffffffffffffff811115611f5757600080fd5b6020820191508060051b3603821315611f6f57600080fd5b610b06818360058601611a7d565b8115611f9957634e487b7160e01b600052600060045260246000fd5b8235611fa4816120b1565b81547fffffffffffffffffffffffff00000000000000000000000000000000000000001673ffffffffffffffffffffffffffffffffffffffff821617825550600181016020840135611ff5816120e1565b81547fffffffffffffffffffffffffffffffff00000000000000000000000000000000166fffffffffffffffffffffffffffffffff821617825550604084013561203e816120d3565b815470ff0000000000000000000000000000000082151560801b167fffffffffffffffffffffffffffffff00ffffffffffffffffffffffffffffffff821617835550505060608301356002820155608083013560038201556120a360a08401846117a5565b610b04818360048601611bba565b73ffffffffffffffffffffffffffffffffffffffff81168114610eb557600080fd5b8015158114610eb557600080fd5b6fffffffffffffffffffffffffffffffff81168114610eb557600080fdfea264697066735822122072f69b6c50dc61442c41c78c7a16bb69485ff6b49f75eaf73ffc260e3a9eac5064736f6c63430008030033",
					"opcodes": "PUSH1 0x80 PUSH1 0x40 MSTORE CALLVALUE DUP1 ISZERO PUSH2 0x10 JUMPI PUSH1 0x0 DUP1 REVERT JUMPDEST POP PUSH2 0x2135 DUP1 PUSH2 0x20 PUSH1 0x0 CODECOPY PUSH1 0x0 RETURN INVALID PUSH1 0x80 PUSH1 0x40 MSTORE CALLVALUE DUP1 ISZERO PUSH2 0x10 JUMPI PUSH1 0x0 DUP1 REVERT JUMPDEST POP PUSH1 0x4 CALLDATASIZE LT PUSH2 0xA3 JUMPI PUSH1 0x0 CALLDATALOAD PUSH1 0xE0 SHR DUP1 PUSH4 0x485CC955 GT PUSH2 0x76 JUMPI DUP1 PUSH4 0xB75B518C GT PUSH2 0x5B JUMPI DUP1 PUSH4 0xB75B518C EQ PUSH2 0x17B JUMPI DUP1 PUSH4 0xF461E54F EQ PUSH2 0x183 JUMPI DUP1 PUSH4 0xF53D2EAD EQ PUSH2 0x196 JUMPI PUSH2 0xA3 JUMP JUMPDEST DUP1 PUSH4 0x485CC955 EQ PUSH2 0x12D JUMPI DUP1 PUSH4 0x89B80361 EQ PUSH2 0x140 JUMPI PUSH2 0xA3 JUMP JUMPDEST DUP1 PUSH4 0x30206BCC EQ PUSH2 0xA8 JUMPI DUP1 PUSH4 0x3FD2C16A EQ PUSH2 0xBD JUMPI DUP1 PUSH4 0x402E4749 EQ PUSH2 0x107 JUMPI DUP1 PUSH4 0x46B705A4 EQ PUSH2 0x11A JUMPI JUMPDEST PUSH1 0x0 DUP1 REVERT JUMPDEST PUSH2 0xBB PUSH2 0xB6 CALLDATASIZE PUSH1 0x4 PUSH2 0x11F8 JUMP JUMPDEST PUSH2 0x1D3 JUMP JUMPDEST STOP JUMPDEST PUSH1 0x4 SLOAD PUSH2 0xDD SWAP1 PUSH20 0xFFFFFFFFFFFFFFFFFFFFFFFFFFFFFFFFFFFFFFFF AND DUP2 JUMP JUMPDEST PUSH1 0x40 MLOAD PUSH20 0xFFFFFFFFFFFFFFFFFFFFFFFFFFFFFFFFFFFFFFFF SWAP1 SWAP2 AND DUP2 MSTORE PUSH1 0x20 ADD JUMPDEST PUSH1 0x40 MLOAD DUP1 SWAP2 SUB SWAP1 RETURN JUMPDEST PUSH2 0xDD PUSH2 0x115 CALLDATASIZE PUSH1 0x4 PUSH2 0x125D JUMP JUMPDEST PUSH2 0x34A JUMP JUMPDEST PUSH2 0xBB PUSH2 0x128 CALLDATASIZE PUSH1 0x4 PUSH2 0x1275 JUMP JUMPDEST PUSH2 0x381 JUMP JUMPDEST PUSH2 0xBB PUSH2 0x13B CALLDATASIZE PUSH1 0x4 PUSH2 0x1230 JUMP JUMPDEST PUSH2 0x74A JUMP JUMPDEST PUSH2 0x153 PUSH2 0x14E CALLDATASIZE PUSH1 0x4 PUSH2 0x125D JUMP JUMPDEST PUSH2 0x86E JUMP JUMPDEST PUSH1 0x40 DUP1 MLOAD PUSH16 0xFFFFFFFFFFFFFFFFFFFFFFFFFFFFFFFF SWAP1 SWAP4 AND DUP4 MSTORE SWAP1 ISZERO ISZERO PUSH1 0x20 DUP4 ADD MSTORE ADD PUSH2 0xFE JUMP JUMPDEST PUSH2 0xBB PUSH2 0x8BF JUMP JUMPDEST PUSH2 0xBB PUSH2 0x191 CALLDATASIZE PUSH1 0x4 PUSH2 0x1328 JUMP JUMPDEST PUSH2 0x8ED JUMP JUMPDEST PUSH1 0x5 SLOAD PUSH2 0x1B2 SWAP1 PUSH16 0xFFFFFFFFFFFFFFFFFFFFFFFFFFFFFFFF AND DUP2 JUMP JUMPDEST PUSH1 0x40 MLOAD PUSH16 0xFFFFFFFFFFFFFFFFFFFFFFFFFFFFFFFF SWAP1 SWAP2 AND DUP2 MSTORE PUSH1 0x20 ADD PUSH2 0xFE JUMP JUMPDEST PUSH1 0x4 SLOAD PUSH20 0xFFFFFFFFFFFFFFFFFFFFFFFFFFFFFFFFFFFFFFFF AND CALLER EQ PUSH2 0x1F7 JUMPI PUSH1 0x0 DUP1 REVERT JUMPDEST DUP1 ISZERO PUSH2 0x272 JUMPI PUSH1 0x3 DUP1 SLOAD PUSH1 0x1 DUP2 ADD DUP3 SSTORE PUSH1 0x0 SWAP2 SWAP1 SWAP2 MSTORE PUSH32 0xC2575A0E9E593C00F959F8C92F12DB2869C3395A3B0502D05E2516446F71F85B ADD DUP1 SLOAD PUSH32 0xFFFFFFFFFFFFFFFFFFFFFFFF0000000000000000000000000000000000000000 AND PUSH20 0xFFFFFFFFFFFFFFFFFFFFFFFFFFFFFFFFFFFFFFFF DUP5 AND OR SWAP1 SSTORE PUSH2 0x346 JUMP JUMPDEST PUSH1 0x0 JUMPDEST PUSH1 0x3 SLOAD DUP2 LT ISZERO PUSH2 0x344 JUMPI DUP3 PUSH20 0xFFFFFFFFFFFFFFFFFFFFFFFFFFFFFFFFFFFFFFFF AND PUSH1 0x3 DUP3 DUP2 SLOAD DUP2 LT PUSH2 0x2B7 JUMPI PUSH4 0x4E487B71 PUSH1 0xE0 SHL PUSH1 0x0 MSTORE PUSH1 0x32 PUSH1 0x4 MSTORE PUSH1 0x24 PUSH1 0x0 REVERT JUMPDEST PUSH1 0x0 SWAP2 DUP3 MSTORE PUSH1 0x20 SWAP1 SWAP2 KECCAK256 ADD SLOAD PUSH20 0xFFFFFFFFFFFFFFFFFFFFFFFFFFFFFFFFFFFFFFFF AND EQ ISZERO PUSH2 0x332 JUMPI PUSH1 0x3 DUP2 DUP2 SLOAD DUP2 LT PUSH2 0x300 JUMPI PUSH4 0x4E487B71 PUSH1 0xE0 SHL PUSH1 0x0 MSTORE PUSH1 0x32 PUSH1 0x4 MSTORE PUSH1 0x24 PUSH1 0x0 REVERT JUMPDEST PUSH1 0x0 SWAP2 DUP3 MSTORE PUSH1 0x20 SWAP1 SWAP2 KECCAK256 ADD DUP1 SLOAD PUSH32 0xFFFFFFFFFFFFFFFFFFFFFFFF0000000000000000000000000000000000000000 AND SWAP1 SSTORE JUMPDEST DUP1 PUSH2 0x33C DUP2 PUSH2 0x1C74 JUMP JUMPDEST SWAP2 POP POP PUSH2 0x275 JUMP JUMPDEST POP JUMPDEST POP POP JUMP JUMPDEST PUSH1 0x3 DUP2 DUP2 SLOAD DUP2 LT PUSH2 0x35A JUMPI PUSH1 0x0 DUP1 REVERT JUMPDEST PUSH1 0x0 SWAP2 DUP3 MSTORE PUSH1 0x20 SWAP1 SWAP2 KECCAK256 ADD SLOAD PUSH20 0xFFFFFFFFFFFFFFFFFFFFFFFFFFFFFFFFFFFFFFFF AND SWAP1 POP DUP2 JUMP JUMPDEST PUSH1 0x4 SLOAD PUSH20 0xFFFFFFFFFFFFFFFFFFFFFFFFFFFFFFFFFFFFFFFF AND CALLER EQ PUSH2 0x3A5 JUMPI PUSH1 0x0 DUP1 REVERT JUMPDEST PUSH1 0x2 SLOAD PUSH1 0x1 DUP10 SHL SWAP1 DUP1 DUP3 AND ISZERO PUSH2 0x41C JUMPI PUSH1 0x40 MLOAD PUSH32 0x8C379A000000000000000000000000000000000000000000000000000000000 DUP2 MSTORE PUSH1 0x20 PUSH1 0x4 DUP3 ADD MSTORE PUSH1 0x15 PUSH1 0x24 DUP3 ADD MSTORE PUSH32 0x4F523A20414C52454144595F5355424D49545445440000000000000000000000 PUSH1 0x44 DUP3 ADD MSTORE PUSH1 0x64 ADD JUMPDEST PUSH1 0x40 MLOAD DUP1 SWAP2 SUB SWAP1 REVERT JUMPDEST DUP1 DUP3 OR PUSH1 0x2 SSTORE PUSH1 0x5 SLOAD PUSH16 0xFFFFFFFFFFFFFFFFFFFFFFFFFFFFFFFF DUP9 DUP2 AND SWAP2 AND EQ PUSH2 0x4A2 JUMPI PUSH1 0x40 MLOAD PUSH32 0x8C379A000000000000000000000000000000000000000000000000000000000 DUP2 MSTORE PUSH1 0x20 PUSH1 0x4 DUP3 ADD MSTORE PUSH1 0xD PUSH1 0x24 DUP3 ADD MSTORE PUSH32 0x4F523A20494E565F4E4F4E434500000000000000000000000000000000000000 PUSH1 0x44 DUP3 ADD MSTORE PUSH1 0x64 ADD PUSH2 0x413 JUMP JUMPDEST POP POP PUSH1 0x0 PUSH32 0xFFFFFFFFFFFFFFFFFFFFFFFFFFFFFFFFFFFFFFFFFFFFFFFFFFFFFFFFFFFFFF00 DUP6 PUSH1 0x40 MLOAD PUSH1 0x20 ADD PUSH2 0x4D8 SWAP2 SWAP1 PUSH2 0x15AD JUMP JUMPDEST PUSH1 0x40 MLOAD PUSH1 0x20 DUP2 DUP4 SUB SUB DUP2 MSTORE SWAP1 PUSH1 0x40 MSTORE DUP1 MLOAD SWAP1 PUSH1 0x20 ADD KECCAK256 PUSH1 0x0 SHR AND SWAP1 POP DUP3 ISZERO PUSH2 0x500 JUMPI PUSH1 0x6 DUP2 SWAP1 SSTORE JUMPDEST PUSH1 0x0 DUP1 SLOAD JUMPDEST DUP1 DUP3 LT DUP1 ISZERO PUSH2 0x54D JUMPI POP PUSH2 0x54D DUP4 PUSH1 0x0 DUP5 DUP2 SLOAD DUP2 LT PUSH2 0x534 JUMPI PUSH4 0x4E487B71 PUSH1 0xE0 SHL PUSH1 0x0 MSTORE PUSH1 0x32 PUSH1 0x4 MSTORE PUSH1 0x24 PUSH1 0x0 REVERT JUMPDEST SWAP1 PUSH1 0x0 MSTORE PUSH1 0x20 PUSH1 0x0 KECCAK256 ADD SLOAD PUSH2 0xB0C SWAP1 SWAP2 SWAP1 PUSH4 0xFFFFFFFF AND JUMP JUMPDEST ISZERO PUSH2 0x562 JUMPI PUSH2 0x55B DUP3 PUSH2 0x1C74 JUMP JUMPDEST SWAP2 POP PUSH2 0x505 JUMP JUMPDEST DUP1 DUP3 LT ISZERO PUSH2 0x656 JUMPI DUP10 PUSH2 0x59F PUSH1 0x0 DUP5 DUP2 SLOAD DUP2 LT PUSH2 0x58F JUMPI PUSH4 0x4E487B71 PUSH1 0xE0 SHL PUSH1 0x0 MSTORE PUSH1 0x32 PUSH1 0x4 MSTORE PUSH1 0x24 PUSH1 0x0 REVERT JUMPDEST SWAP1 PUSH1 0x0 MSTORE PUSH1 0x20 PUSH1 0x0 KECCAK256 ADD SLOAD PUSH2 0xB36 JUMP JUMPDEST PUSH2 0x5AA SWAP1 PUSH1 0x1 PUSH2 0x19A6 JUMP JUMPDEST PUSH1 0xFF AND LT PUSH2 0x614 JUMPI PUSH1 0x6 SLOAD PUSH1 0x0 DUP1 SLOAD DUP3 ISZERO SWAP3 PUSH2 0x5E0 SWAP2 DUP4 SWAP1 DUP8 SWAP1 DUP2 LT PUSH2 0x534 JUMPI PUSH4 0x4E487B71 PUSH1 0xE0 SHL PUSH1 0x0 MSTORE PUSH1 0x32 PUSH1 0x4 MSTORE PUSH1 0x24 PUSH1 0x0 REVERT JUMPDEST SWAP1 POP DUP2 DUP1 ISZERO PUSH2 0x5ED JUMPI POP DUP1 ISZERO JUMPDEST DUP1 PUSH2 0x5F5 JUMPI POP DUP6 JUMPDEST ISZERO PUSH2 0x60D JUMPI PUSH2 0x60D DUP12 PUSH2 0x607 DUP12 PUSH2 0x19CB JUMP JUMPDEST DUP11 PUSH2 0xB3D JUMP JUMPDEST POP POP PUSH2 0x651 JUMP JUMPDEST PUSH1 0x0 DUP3 DUP2 SLOAD DUP2 LT PUSH2 0x635 JUMPI PUSH4 0x4E487B71 PUSH1 0xE0 SHL PUSH1 0x0 MSTORE PUSH1 0x32 PUSH1 0x4 MSTORE PUSH1 0x24 PUSH1 0x0 REVERT JUMPDEST SWAP1 PUSH1 0x0 MSTORE PUSH1 0x20 PUSH1 0x0 KECCAK256 ADD PUSH1 0x0 DUP2 SLOAD PUSH2 0x64C SWAP1 PUSH2 0x1C74 JUMP JUMPDEST SWAP1 SWAP2 SSTORE POP JUMPDEST PUSH2 0x6D5 JUMP JUMPDEST DUP10 PUSH1 0x1 EQ ISZERO PUSH2 0x672 JUMPI PUSH2 0x651 DUP10 PUSH2 0x66C DUP10 PUSH2 0x19CB JUMP JUMPDEST DUP9 PUSH2 0xB3D JUMP JUMPDEST PUSH1 0x0 PUSH2 0x67F DUP5 PUSH1 0x1 PUSH2 0x198E JUMP JUMPDEST DUP2 SLOAD PUSH1 0x1 DUP2 DUP2 ADD DUP5 SSTORE PUSH1 0x0 SWAP4 DUP5 MSTORE PUSH1 0x20 DUP5 KECCAK256 SWAP1 SWAP2 ADD SWAP2 SWAP1 SWAP2 SSTORE DUP1 SLOAD DUP1 DUP3 ADD DUP3 SSTORE SWAP2 MSTORE DUP8 SWAP1 PUSH1 0x6 MUL PUSH32 0xB10E2D527612073B26EECDFD717E6A320CF44B4AFAC2B0732D9FCBE2B7FA0CF6 ADD PUSH2 0x6D2 DUP3 DUP3 PUSH2 0x1D78 JUMP JUMPDEST POP POP JUMPDEST PUSH1 0x40 DUP1 MLOAD PUSH16 0xFFFFFFFFFFFFFFFFFFFFFFFFFFFFFFFF DUP12 DUP2 AND DUP3 MSTORE DUP11 AND PUSH1 0x20 DUP3 ADD MSTORE PUSH20 0xFFFFFFFFFFFFFFFFFFFFFFFFFFFFFFFFFFFFFFFF DUP9 AND DUP2 DUP4 ADD MSTORE SWAP1 MLOAD PUSH32 0xBBF23E6BD8173D3423FB94A419F7193574BDCA2F2B640364201F708B6A13CBE8 SWAP2 DUP2 SWAP1 SUB PUSH1 0x60 ADD SWAP1 LOG1 POP POP POP POP POP POP POP POP POP POP POP JUMP JUMPDEST PUSH1 0x4 SLOAD PUSH20 0xFFFFFFFFFFFFFFFFFFFFFFFFFFFFFFFFFFFFFFFF AND ISZERO DUP1 ISZERO PUSH2 0x785 JUMPI POP PUSH20 0xFFFFFFFFFFFFFFFFFFFFFFFFFFFFFFFFFFFFFFFF DUP3 AND ISZERO ISZERO JUMPDEST PUSH2 0x7EB JUMPI PUSH1 0x40 MLOAD PUSH32 0x8C379A000000000000000000000000000000000000000000000000000000000 DUP2 MSTORE PUSH1 0x20 PUSH1 0x4 DUP3 ADD MSTORE PUSH1 0x13 PUSH1 0x24 DUP3 ADD MSTORE PUSH32 0x414C52454144595F494E495449414C495A454400000000000000000000000000 PUSH1 0x44 DUP3 ADD MSTORE PUSH1 0x64 ADD PUSH2 0x413 JUMP JUMPDEST PUSH1 0x4 DUP1 SLOAD PUSH20 0xFFFFFFFFFFFFFFFFFFFFFFFFFFFFFFFFFFFFFFFF SWAP4 DUP5 AND PUSH32 0xFFFFFFFFFFFFFFFFFFFFFFFF0000000000000000000000000000000000000000 SWAP2 DUP3 AND OR SWAP1 SWAP2 SSTORE PUSH1 0x3 DUP1 SLOAD PUSH1 0x1 DUP2 ADD DUP3 SSTORE PUSH1 0x0 SWAP2 SWAP1 SWAP2 MSTORE PUSH32 0xC2575A0E9E593C00F959F8C92F12DB2869C3395A3B0502D05E2516446F71F85B ADD DUP1 SLOAD SWAP3 SWAP1 SWAP4 AND SWAP2 AND OR SWAP1 SSTORE JUMP JUMPDEST PUSH1 0x4 SLOAD PUSH1 0x0 SWAP1 DUP2 SWAP1 PUSH20 0xFFFFFFFFFFFFFFFFFFFFFFFFFFFFFFFFFFFFFFFF AND CALLER EQ PUSH2 0x897 JUMPI PUSH1 0x0 DUP1 REVERT JUMPDEST POP POP PUSH1 0x2 SLOAD PUSH1 0x5 SLOAD PUSH16 0xFFFFFFFFFFFFFFFFFFFFFFFFFFFFFFFF AND SWAP1 PUSH1 0x1 DUP4 SHL AND ISZERO ISZERO JUMPDEST SWAP2 POP SWAP2 JUMP JUMPDEST PUSH1 0x4 SLOAD PUSH20 0xFFFFFFFFFFFFFFFFFFFFFFFFFFFFFFFFFFFFFFFF AND CALLER EQ PUSH2 0x8E3 JUMPI PUSH1 0x0 DUP1 REVERT JUMPDEST PUSH2 0x8EB PUSH2 0xC7E JUMP JUMPDEST JUMP JUMPDEST PUSH1 0x4 SLOAD PUSH20 0xFFFFFFFFFFFFFFFFFFFFFFFFFFFFFFFFFFFFFFFF AND CALLER EQ PUSH2 0x911 JUMPI PUSH1 0x0 DUP1 REVERT JUMPDEST PUSH1 0x0 DUP1 PUSH2 0x920 DUP5 PUSH1 0xFF AND PUSH2 0xD27 JUMP JUMPDEST SWAP2 POP SWAP2 POP DUP2 ISZERO PUSH2 0xB06 JUMPI PUSH1 0x0 PUSH2 0x935 DUP3 PUSH2 0xE3F JUMP JUMPDEST PUSH1 0x40 DUP1 MLOAD PUSH2 0x100 DUP2 ADD DUP3 MSTORE DUP3 SLOAD DUP2 MSTORE PUSH1 0x1 DUP4 ADD SLOAD PUSH16 0xFFFFFFFFFFFFFFFFFFFFFFFFFFFFFFFF DUP1 DUP3 AND PUSH1 0x20 DUP1 DUP6 ADD SWAP2 SWAP1 SWAP2 MSTORE PUSH17 0x100000000000000000000000000000000 SWAP3 DUP4 SWAP1 DIV DUP3 AND DUP5 DUP7 ADD MSTORE PUSH1 0x2 DUP7 ADD SLOAD DUP3 AND PUSH1 0x60 DUP6 ADD MSTORE PUSH1 0x3 DUP7 ADD SLOAD PUSH1 0x80 DUP6 ADD MSTORE PUSH1 0x4 DUP7 ADD SLOAD DUP1 DUP4 AND PUSH1 0xA0 DUP7 ADD MSTORE SWAP3 SWAP1 SWAP3 DIV AND PUSH1 0xC0 DUP4 ADD MSTORE PUSH1 0x5 DUP5 ADD DUP1 SLOAD DUP5 MLOAD DUP2 DUP5 MUL DUP2 ADD DUP5 ADD SWAP1 SWAP6 MSTORE DUP1 DUP6 MSTORE SWAP3 SWAP5 SWAP4 PUSH1 0xE0 DUP7 ADD SWAP4 SWAP1 SWAP3 PUSH1 0x0 SWAP1 DUP5 ADD JUMPDEST DUP3 DUP3 LT ISZERO PUSH2 0xAEE JUMPI PUSH1 0x0 DUP5 DUP2 MSTORE PUSH1 0x20 DUP1 DUP3 KECCAK256 PUSH1 0x40 DUP1 MLOAD PUSH1 0xC0 DUP2 ADD DUP3 MSTORE PUSH1 0x5 DUP8 MUL SWAP1 SWAP3 ADD DUP1 SLOAD PUSH20 0xFFFFFFFFFFFFFFFFFFFFFFFFFFFFFFFFFFFFFFFF AND DUP4 MSTORE PUSH1 0x1 DUP2 ADD SLOAD PUSH16 0xFFFFFFFFFFFFFFFFFFFFFFFFFFFFFFFF DUP2 AND DUP5 DUP7 ADD MSTORE PUSH17 0x100000000000000000000000000000000 SWAP1 DIV PUSH1 0xFF AND ISZERO ISZERO DUP4 DUP4 ADD MSTORE PUSH1 0x2 DUP2 ADD SLOAD PUSH1 0x60 DUP5 ADD MSTORE PUSH1 0x3 DUP2 ADD SLOAD PUSH1 0x80 DUP5 ADD MSTORE PUSH1 0x4 DUP2 ADD DUP1 SLOAD DUP4 MLOAD DUP2 DUP8 MUL DUP2 ADD DUP8 ADD SWAP1 SWAP5 MSTORE DUP1 DUP5 MSTORE SWAP4 SWAP6 SWAP2 SWAP5 PUSH1 0xA0 DUP8 ADD SWAP5 SWAP2 SWAP3 SWAP1 DUP5 ADD JUMPDEST DUP3 DUP3 LT ISZERO PUSH2 0xAD7 JUMPI PUSH1 0x0 DUP5 DUP2 MSTORE PUSH1 0x20 SWAP1 DUP2 SWAP1 KECCAK256 PUSH1 0x40 DUP1 MLOAD DUP1 DUP3 ADD SWAP1 SWAP2 MSTORE PUSH1 0x2 DUP6 MUL SWAP1 SWAP2 ADD DUP1 SLOAD PUSH20 0xFFFFFFFFFFFFFFFFFFFFFFFFFFFFFFFFFFFFFFFF AND DUP3 MSTORE PUSH1 0x1 SWAP1 DUP2 ADD SLOAD DUP3 DUP5 ADD MSTORE SWAP1 DUP4 MSTORE SWAP1 SWAP3 ADD SWAP2 ADD PUSH2 0xA82 JUMP JUMPDEST POP POP POP POP DUP2 MSTORE POP POP DUP2 MSTORE PUSH1 0x20 ADD SWAP1 PUSH1 0x1 ADD SWAP1 PUSH2 0x9D4 JUMP JUMPDEST POP POP POP POP DUP2 MSTORE POP POP SWAP1 POP PUSH2 0xB04 DUP5 DUP3 PUSH1 0x0 PUSH2 0xB3D JUMP JUMPDEST POP JUMPDEST POP POP POP POP JUMP JUMPDEST PUSH32 0xFFFFFFFFFFFFFFFFFFFFFFFFFFFFFFFFFFFFFFFFFFFFFFFFFFFFFFFFFFFFFF00 SWAP2 SWAP1 SWAP2 AND EQ ISZERO SWAP1 JUMP JUMPDEST DUP1 JUMPDEST SWAP2 SWAP1 POP JUMP JUMPDEST PUSH1 0x0 JUMPDEST PUSH1 0x3 SLOAD DUP2 LT ISZERO PUSH2 0xC79 JUMPI PUSH1 0x0 PUSH20 0xFFFFFFFFFFFFFFFFFFFFFFFFFFFFFFFFFFFFFFFF AND PUSH1 0x3 DUP3 DUP2 SLOAD DUP2 LT PUSH2 0xB83 JUMPI PUSH4 0x4E487B71 PUSH1 0xE0 SHL PUSH1 0x0 MSTORE PUSH1 0x32 PUSH1 0x4 MSTORE PUSH1 0x24 PUSH1 0x0 REVERT JUMPDEST PUSH1 0x0 SWAP2 DUP3 MSTORE PUSH1 0x20 SWAP1 SWAP2 KECCAK256 ADD SLOAD PUSH20 0xFFFFFFFFFFFFFFFFFFFFFFFFFFFFFFFFFFFFFFFF AND EQ ISZERO PUSH2 0xBB0 JUMPI PUSH2 0xC67 JUMP JUMPDEST PUSH1 0x3 DUP2 DUP2 SLOAD DUP2 LT PUSH2 0xBD1 JUMPI PUSH4 0x4E487B71 PUSH1 0xE0 SHL PUSH1 0x0 MSTORE PUSH1 0x32 PUSH1 0x4 MSTORE PUSH1 0x24 PUSH1 0x0 REVERT JUMPDEST PUSH1 0x0 SWAP2 DUP3 MSTORE PUSH1 0x20 SWAP1 SWAP2 KECCAK256 ADD SLOAD PUSH1 0x40 MLOAD PUSH32 0x567EA96100000000000000000000000000000000000000000000000000000000 DUP2 MSTORE PUSH20 0xFFFFFFFFFFFFFFFFFFFFFFFFFFFFFFFFFFFFFFFF SWAP1 SWAP2 AND SWAP1 PUSH4 0x567EA961 SWAP1 PUSH2 0xC34 SWAP1 DUP8 SWAP1 DUP8 SWAP1 DUP8 SWAP1 PUSH1 0x4 ADD PUSH2 0x16AB JUMP JUMPDEST PUSH1 0x0 PUSH1 0x40 MLOAD DUP1 DUP4 SUB DUP2 PUSH1 0x0 DUP8 DUP1 EXTCODESIZE ISZERO DUP1 ISZERO PUSH2 0xC4E JUMPI PUSH1 0x0 DUP1 REVERT JUMPDEST POP GAS CALL ISZERO DUP1 ISZERO PUSH2 0xC62 JUMPI RETURNDATASIZE PUSH1 0x0 DUP1 RETURNDATACOPY RETURNDATASIZE PUSH1 0x0 REVERT JUMPDEST POP POP POP POP JUMPDEST DUP1 PUSH2 0xC71 DUP2 PUSH2 0x1C74 JUMP JUMPDEST SWAP2 POP POP PUSH2 0xB40 JUMP JUMPDEST POP PUSH2 0x344 JUMPDEST PUSH1 0x0 PUSH1 0x2 DUP2 SWAP1 SSTORE PUSH2 0xC8F SWAP1 DUP1 PUSH2 0xE97 JUMP JUMPDEST PUSH2 0xC9B PUSH1 0x1 PUSH1 0x0 PUSH2 0xEB8 JUMP JUMPDEST PUSH1 0x0 PUSH1 0x6 DUP2 SWAP1 SSTORE PUSH1 0x5 DUP1 SLOAD PUSH16 0xFFFFFFFFFFFFFFFFFFFFFFFFFFFFFFFF AND SWAP2 PUSH2 0xCC2 DUP4 PUSH2 0x1C44 JUMP JUMPDEST SWAP2 SWAP1 PUSH2 0x100 EXP DUP2 SLOAD DUP2 PUSH16 0xFFFFFFFFFFFFFFFFFFFFFFFFFFFFFFFF MUL NOT AND SWAP1 DUP4 PUSH16 0xFFFFFFFFFFFFFFFFFFFFFFFFFFFFFFFF AND MUL OR SWAP1 SSTORE POP POP PUSH32 0x131FC6443E37553A3C958042FD059569756675C2D859C083E17EC4928C3C70FB PUSH1 0x40 MLOAD PUSH1 0x40 MLOAD DUP1 SWAP2 SUB SWAP1 LOG1 JUMP JUMPDEST PUSH1 0x0 DUP1 SLOAD DUP2 SWAP1 PUSH1 0x1 DUP2 EQ ISZERO PUSH2 0xD6C JUMPI DUP4 PUSH2 0xD5B PUSH1 0x0 DUP1 DUP2 SLOAD DUP2 LT PUSH2 0x58F JUMPI PUSH4 0x4E487B71 PUSH1 0xE0 SHL PUSH1 0x0 MSTORE PUSH1 0x32 PUSH1 0x4 MSTORE PUSH1 0x24 PUSH1 0x0 REVERT JUMPDEST PUSH1 0xFF AND LT ISZERO PUSH1 0x0 SWAP3 POP SWAP3 POP POP PUSH2 0x8BA JUMP JUMPDEST DUP1 PUSH2 0xD9E JUMPI PUSH1 0x0 PUSH32 0xFFFFFFFFFFFFFFFFFFFFFFFFFFFFFFFFFFFFFFFFFFFFFFFFFFFFFFFFFFFFFFFF SWAP3 POP SWAP3 POP POP PUSH2 0x8BA JUMP JUMPDEST PUSH1 0x0 DUP1 PUSH1 0x0 DUP1 PUSH1 0x0 JUMPDEST DUP6 DUP2 LT ISZERO PUSH2 0xE1E JUMPI PUSH2 0xDD3 PUSH1 0x0 DUP3 DUP2 SLOAD DUP2 LT PUSH2 0x58F JUMPI PUSH4 0x4E487B71 PUSH1 0xE0 SHL PUSH1 0x0 MSTORE PUSH1 0x32 PUSH1 0x4 MSTORE PUSH1 0x24 PUSH1 0x0 REVERT JUMPDEST PUSH1 0xFF AND SWAP2 POP PUSH2 0xFFFF DUP4 AND DUP3 LT PUSH2 0xE0E JUMPI DUP3 PUSH2 0xFFFF AND DUP3 PUSH2 0xFFFF AND EQ ISZERO PUSH2 0xE03 JUMPI PUSH2 0xDFC DUP5 PUSH2 0x1C74 JUMP JUMPDEST SWAP4 POP PUSH2 0xE0E JUMP JUMPDEST DUP1 SWAP5 POP DUP2 SWAP3 POP PUSH1 0x0 SWAP4 POP JUMPDEST PUSH2 0xE17 DUP2 PUSH2 0x1C74 JUMP JUMPDEST SWAP1 POP PUSH2 0xDA7 JUMP JUMPDEST POP DUP8 DUP3 PUSH2 0xFFFF AND LT ISZERO DUP1 ISZERO PUSH2 0xE31 JUMPI POP DUP3 ISZERO JUMPDEST SWAP7 POP SWAP3 SWAP5 POP POP POP POP POP SWAP2 POP SWAP2 JUMP JUMPDEST PUSH1 0x1 SLOAD PUSH1 0x0 SWAP1 DUP3 LT PUSH2 0xE61 JUMPI PUSH4 0x4E487B71 PUSH1 0xE0 SHL PUSH1 0x0 MSTORE PUSH1 0x1 PUSH1 0x4 MSTORE PUSH1 0x24 PUSH1 0x0 REVERT JUMPDEST PUSH1 0x1 DUP3 DUP2 SLOAD DUP2 LT PUSH2 0xE82 JUMPI PUSH4 0x4E487B71 PUSH1 0xE0 SHL PUSH1 0x0 MSTORE PUSH1 0x32 PUSH1 0x4 MSTORE PUSH1 0x24 PUSH1 0x0 REVERT JUMPDEST SWAP1 PUSH1 0x0 MSTORE PUSH1 0x20 PUSH1 0x0 KECCAK256 SWAP1 PUSH1 0x6 MUL ADD SWAP1 POP SWAP2 SWAP1 POP JUMP JUMPDEST POP DUP1 SLOAD PUSH1 0x0 DUP3 SSTORE SWAP1 PUSH1 0x0 MSTORE PUSH1 0x20 PUSH1 0x0 KECCAK256 SWAP1 DUP2 ADD SWAP1 PUSH2 0xEB5 SWAP2 SWAP1 PUSH2 0xED9 JUMP JUMPDEST POP JUMP JUMPDEST POP DUP1 SLOAD PUSH1 0x0 DUP3 SSTORE PUSH1 0x6 MUL SWAP1 PUSH1 0x0 MSTORE PUSH1 0x20 PUSH1 0x0 KECCAK256 SWAP1 DUP2 ADD SWAP1 PUSH2 0xEB5 SWAP2 SWAP1 PUSH2 0xEF2 JUMP JUMPDEST JUMPDEST DUP1 DUP3 GT ISZERO PUSH2 0xEEE JUMPI PUSH1 0x0 DUP2 SSTORE PUSH1 0x1 ADD PUSH2 0xEDA JUMP JUMPDEST POP SWAP1 JUMP JUMPDEST DUP1 DUP3 GT ISZERO PUSH2 0xEEE JUMPI PUSH1 0x0 DUP1 DUP3 SSTORE PUSH1 0x1 DUP3 ADD DUP2 SWAP1 SSTORE PUSH1 0x2 DUP3 ADD DUP1 SLOAD PUSH32 0xFFFFFFFFFFFFFFFFFFFFFFFFFFFFFFFF00000000000000000000000000000000 AND SWAP1 SSTORE PUSH1 0x3 DUP3 ADD DUP2 SWAP1 SSTORE PUSH1 0x4 DUP3 ADD DUP2 SWAP1 SSTORE PUSH2 0xF4B PUSH1 0x5 DUP4 ADD DUP3 PUSH2 0xF54 JUMP JUMPDEST POP PUSH1 0x6 ADD PUSH2 0xEF2 JUMP JUMPDEST POP DUP1 SLOAD PUSH1 0x0 DUP3 SSTORE PUSH1 0x5 MUL SWAP1 PUSH1 0x0 MSTORE PUSH1 0x20 PUSH1 0x0 KECCAK256 SWAP1 DUP2 ADD SWAP1 PUSH2 0xEB5 SWAP2 SWAP1 JUMPDEST DUP1 DUP3 GT ISZERO PUSH2 0xEEE JUMPI DUP1 SLOAD PUSH32 0xFFFFFFFFFFFFFFFFFFFFFFFF0000000000000000000000000000000000000000 AND DUP2 SSTORE PUSH1 0x1 DUP2 ADD DUP1 SLOAD PUSH32 0xFFFFFFFFFFFFFFFFFFFFFFFFFFFFFF0000000000000000000000000000000000 AND SWAP1 SSTORE PUSH1 0x0 PUSH1 0x2 DUP3 ADD DUP2 SWAP1 SSTORE PUSH1 0x3 DUP3 ADD DUP2 SWAP1 SSTORE PUSH2 0xFE6 PUSH1 0x4 DUP4 ADD DUP3 PUSH2 0xFEF JUMP JUMPDEST POP PUSH1 0x5 ADD PUSH2 0xF71 JUMP JUMPDEST POP DUP1 SLOAD PUSH1 0x0 DUP3 SSTORE PUSH1 0x2 MUL SWAP1 PUSH1 0x0 MSTORE PUSH1 0x20 PUSH1 0x0 KECCAK256 SWAP1 DUP2 ADD SWAP1 PUSH2 0xEB5 SWAP2 SWAP1 JUMPDEST DUP1 DUP3 GT ISZERO PUSH2 0xEEE JUMPI DUP1 SLOAD PUSH32 0xFFFFFFFFFFFFFFFFFFFFFFFF0000000000000000000000000000000000000000 AND DUP2 SSTORE PUSH1 0x0 PUSH1 0x1 DUP3 ADD SSTORE PUSH1 0x2 ADD PUSH2 0x100C JUMP JUMPDEST PUSH1 0x0 DUP3 PUSH1 0x1F DUP4 ADD SLT PUSH2 0x1059 JUMPI DUP1 DUP2 REVERT JUMPDEST DUP2 CALLDATALOAD PUSH1 0x20 PUSH2 0x106E PUSH2 0x1069 DUP4 PUSH2 0x189E JUMP JUMPDEST PUSH2 0x184F JUMP JUMPDEST DUP3 DUP2 MSTORE DUP2 DUP2 ADD SWAP1 DUP6 DUP4 ADD DUP6 JUMPDEST DUP6 DUP2 LT ISZERO PUSH2 0x114C JUMPI DUP2 CALLDATALOAD DUP9 ADD PUSH1 0xC0 DUP1 PUSH32 0xFFFFFFFFFFFFFFFFFFFFFFFFFFFFFFFFFFFFFFFFFFFFFFFFFFFFFFFFFFFFFFE0 DUP4 DUP14 SUB ADD SLT ISZERO PUSH2 0x10B8 JUMPI DUP9 DUP10 REVERT JUMPDEST PUSH2 0x10C1 DUP2 PUSH2 0x184F JUMP JUMPDEST DUP8 DUP4 ADD CALLDATALOAD PUSH2 0x10CE DUP2 PUSH2 0x20B1 JUMP JUMPDEST DUP2 MSTORE PUSH1 0x40 DUP4 DUP2 ADD CALLDATALOAD PUSH2 0x10DF DUP2 PUSH2 0x20E1 JUMP JUMPDEST DUP3 DUP11 ADD MSTORE PUSH1 0x60 PUSH2 0x10F0 DUP6 DUP3 ADD PUSH2 0x11E2 JUMP JUMPDEST DUP3 DUP5 ADD MSTORE PUSH1 0x80 SWAP2 POP DUP2 DUP6 ADD CALLDATALOAD DUP2 DUP5 ADD MSTORE POP PUSH1 0xA0 DUP1 DUP6 ADD CALLDATALOAD DUP3 DUP5 ADD MSTORE DUP4 DUP6 ADD CALLDATALOAD SWAP4 POP PUSH8 0xFFFFFFFFFFFFFFFF DUP5 GT ISZERO PUSH2 0x1125 JUMPI DUP12 DUP13 REVERT JUMPDEST PUSH2 0x1133 DUP15 DUP12 DUP7 DUP9 ADD ADD PUSH2 0x1159 JUMP JUMPDEST SWAP1 DUP4 ADD MSTORE POP DUP7 MSTORE POP POP SWAP3 DUP5 ADD SWAP3 SWAP1 DUP5 ADD SWAP1 PUSH1 0x1 ADD PUSH2 0x107A JUMP JUMPDEST POP SWAP1 SWAP8 SWAP7 POP POP POP POP POP POP POP JUMP JUMPDEST PUSH1 0x0 DUP3 PUSH1 0x1F DUP4 ADD SLT PUSH2 0x1169 JUMPI DUP1 DUP2 REVERT JUMPDEST DUP2 CALLDATALOAD PUSH1 0x20 PUSH2 0x1179 PUSH2 0x1069 DUP4 PUSH2 0x189E JUMP JUMPDEST DUP1 DUP4 DUP3 MSTORE DUP3 DUP3 ADD SWAP2 POP DUP3 DUP7 ADD DUP8 DUP5 DUP7 PUSH1 0x6 SHL DUP10 ADD ADD GT ISZERO PUSH2 0x1198 JUMPI DUP6 DUP7 REVERT JUMPDEST DUP6 JUMPDEST DUP6 DUP2 LT ISZERO PUSH2 0x114C JUMPI PUSH1 0x40 DUP1 DUP4 DUP12 SUB SLT ISZERO PUSH2 0x11B2 JUMPI DUP8 DUP9 REVERT JUMPDEST PUSH2 0x11BB DUP2 PUSH2 0x184F JUMP JUMPDEST DUP4 CALLDATALOAD PUSH2 0x11C6 DUP2 PUSH2 0x20B1 JUMP JUMPDEST DUP2 MSTORE DUP4 DUP8 ADD CALLDATALOAD DUP8 DUP3 ADD MSTORE DUP6 MSTORE SWAP4 DUP6 ADD SWAP4 SWAP1 SWAP2 ADD SWAP1 PUSH1 0x1 ADD PUSH2 0x119A JUMP JUMPDEST DUP1 CALLDATALOAD PUSH2 0xB38 DUP2 PUSH2 0x20D3 JUMP JUMPDEST DUP1 CALLDATALOAD PUSH2 0xB38 DUP2 PUSH2 0x20E1 JUMP JUMPDEST PUSH1 0x0 DUP1 PUSH1 0x40 DUP4 DUP6 SUB SLT ISZERO PUSH2 0x120A JUMPI DUP2 DUP3 REVERT JUMPDEST DUP3 CALLDATALOAD PUSH2 0x1215 DUP2 PUSH2 0x20B1 JUMP JUMPDEST SWAP2 POP PUSH1 0x20 DUP4 ADD CALLDATALOAD PUSH2 0x1225 DUP2 PUSH2 0x20D3 JUMP JUMPDEST DUP1 SWAP2 POP POP SWAP3 POP SWAP3 SWAP1 POP JUMP JUMPDEST PUSH1 0x0 DUP1 PUSH1 0x40 DUP4 DUP6 SUB SLT ISZERO PUSH2 0x1242 JUMPI DUP2 DUP3 REVERT JUMPDEST DUP3 CALLDATALOAD PUSH2 0x124D DUP2 PUSH2 0x20B1 JUMP JUMPDEST SWAP2 POP PUSH1 0x20 DUP4 ADD CALLDATALOAD PUSH2 0x1225 DUP2 PUSH2 0x20B1 JUMP JUMPDEST PUSH1 0x0 PUSH1 0x20 DUP3 DUP5 SUB SLT ISZERO PUSH2 0x126E JUMPI DUP1 DUP2 REVERT JUMPDEST POP CALLDATALOAD SWAP2 SWAP1 POP JUMP JUMPDEST PUSH1 0x0 DUP1 PUSH1 0x0 DUP1 PUSH1 0x0 DUP1 PUSH1 0x0 DUP1 PUSH2 0x100 DUP1 DUP11 DUP13 SUB SLT ISZERO PUSH2 0x1292 JUMPI DUP5 DUP6 REVERT JUMPDEST DUP10 CALLDATALOAD SWAP9 POP PUSH1 0x20 DUP11 ADD CALLDATALOAD SWAP8 POP PUSH1 0x40 DUP11 ADD CALLDATALOAD PUSH2 0x12AB DUP2 PUSH2 0x20E1 JUMP JUMPDEST SWAP7 POP PUSH1 0x60 DUP11 ADD CALLDATALOAD PUSH2 0x12BB DUP2 PUSH2 0x20E1 JUMP JUMPDEST SWAP6 POP PUSH1 0x80 DUP11 ADD CALLDATALOAD PUSH8 0xFFFFFFFFFFFFFFFF DUP2 GT ISZERO PUSH2 0x12D6 JUMPI DUP6 DUP7 REVERT JUMPDEST DUP11 ADD DUP1 DUP13 SUB DUP3 SGT ISZERO PUSH2 0x12E6 JUMPI DUP6 DUP7 REVERT JUMPDEST SWAP5 POP POP PUSH1 0xA0 DUP10 ADD CALLDATALOAD PUSH2 0x12F7 DUP2 PUSH2 0x20B1 JUMP JUMPDEST SWAP3 POP PUSH1 0xC0 DUP10 ADD CALLDATALOAD PUSH2 0x1307 DUP2 PUSH2 0x20D3 JUMP JUMPDEST SWAP2 POP PUSH1 0xE0 DUP10 ADD CALLDATALOAD PUSH2 0x1317 DUP2 PUSH2 0x20D3 JUMP JUMPDEST DUP1 SWAP2 POP POP SWAP3 SWAP6 SWAP9 POP SWAP3 SWAP6 SWAP9 SWAP1 SWAP4 SWAP7 POP JUMP JUMPDEST PUSH1 0x0 DUP1 PUSH1 0x40 DUP4 DUP6 SUB SLT ISZERO PUSH2 0x133A JUMPI DUP2 DUP3 REVERT JUMPDEST DUP3 CALLDATALOAD PUSH1 0xFF DUP2 AND DUP2 EQ PUSH2 0x134A JUMPI DUP3 DUP4 REVERT JUMPDEST SWAP2 POP PUSH1 0x20 DUP4 ADD CALLDATALOAD PUSH2 0x1225 DUP2 PUSH2 0x20E1 JUMP JUMPDEST PUSH1 0x0 DUP3 DUP5 MSTORE PUSH1 0x20 DUP1 DUP6 ADD DUP1 DUP2 SWAP7 POP DUP6 PUSH1 0x5 SHL DUP2 ADD SWAP2 POP DUP5 DUP5 JUMPDEST DUP8 DUP2 LT ISZERO PUSH2 0x145A JUMPI DUP3 DUP5 SUB DUP10 MSTORE DUP2 CALLDATALOAD PUSH32 0xFFFFFFFFFFFFFFFFFFFFFFFFFFFFFFFFFFFFFFFFFFFFFFFFFFFFFFFFFFFFFF41 DUP9 CALLDATASIZE SUB ADD DUP2 SLT PUSH2 0x13B1 JUMPI DUP7 DUP8 REVERT JUMPDEST DUP8 ADD PUSH1 0xC0 DUP2 CALLDATALOAD PUSH2 0x13C0 DUP2 PUSH2 0x20B1 JUMP JUMPDEST PUSH20 0xFFFFFFFFFFFFFFFFFFFFFFFFFFFFFFFFFFFFFFFF AND DUP7 MSTORE DUP2 DUP8 ADD CALLDATALOAD PUSH2 0x13E5 DUP2 PUSH2 0x20E1 JUMP JUMPDEST PUSH16 0xFFFFFFFFFFFFFFFFFFFFFFFFFFFFFFFF AND DUP7 DUP9 ADD MSTORE PUSH1 0x40 PUSH2 0x1408 DUP4 DUP3 ADD PUSH2 0x11E2 JUMP JUMPDEST ISZERO ISZERO SWAP1 DUP8 ADD MSTORE PUSH1 0x60 DUP3 DUP2 ADD CALLDATALOAD SWAP1 DUP8 ADD MSTORE PUSH1 0x80 DUP1 DUP4 ADD CALLDATALOAD SWAP1 DUP8 ADD MSTORE PUSH1 0xA0 PUSH2 0x1430 DUP2 DUP5 ADD DUP5 PUSH2 0x1928 JUMP JUMPDEST SWAP4 POP DUP3 DUP3 DUP10 ADD MSTORE PUSH2 0x1444 DUP4 DUP10 ADD DUP6 DUP4 PUSH2 0x154E JUMP JUMPDEST SWAP13 DUP10 ADD SWAP13 SWAP8 POP POP POP SWAP3 DUP7 ADD SWAP3 POP POP PUSH1 0x1 ADD PUSH2 0x1373 JUMP JUMPDEST POP SWAP2 SWAP8 SWAP7 POP POP POP POP POP POP POP JUMP JUMPDEST PUSH1 0x0 DUP2 MLOAD DUP1 DUP5 MSTORE PUSH1 0x20 DUP1 DUP6 ADD DUP1 DUP2 SWAP7 POP DUP4 PUSH1 0x5 SHL DUP2 ADD SWAP2 POP DUP3 DUP7 ADD DUP6 JUMPDEST DUP6 DUP2 LT ISZERO PUSH2 0x145A JUMPI DUP3 DUP5 SUB DUP10 MSTORE DUP2 MLOAD DUP1 MLOAD PUSH20 0xFFFFFFFFFFFFFFFFFFFFFFFFFFFFFFFFFFFFFFFF SWAP1 DUP2 AND DUP7 MSTORE DUP7 DUP3 ADD MLOAD PUSH16 0xFFFFFFFFFFFFFFFFFFFFFFFFFFFFFFFF AND DUP8 DUP8 ADD MSTORE PUSH1 0x40 DUP1 DUP4 ADD MLOAD ISZERO ISZERO DUP2 DUP9 ADD MSTORE PUSH1 0x60 DUP1 DUP5 ADD MLOAD SWAP1 DUP9 ADD MSTORE PUSH1 0x80 DUP1 DUP5 ADD MLOAD SWAP1 DUP9 ADD MSTORE PUSH1 0xA0 SWAP3 DUP4 ADD MLOAD PUSH1 0xC0 SWAP4 DUP9 ADD DUP5 SWAP1 MSTORE DUP1 MLOAD SWAP4 DUP9 ADD DUP5 SWAP1 MSTORE DUP9 ADD SWAP3 PUSH1 0xE0 DUP9 ADD SWAP3 DUP12 SWAP3 SWAP1 SWAP2 JUMPDEST DUP1 DUP5 LT ISZERO PUSH2 0x1537 JUMPI DUP6 MLOAD DUP1 MLOAD DUP5 AND DUP7 MSTORE DUP12 ADD MLOAD DUP12 DUP7 ADD MSTORE SWAP5 DUP11 ADD SWAP5 SWAP4 DUP2 ADD SWAP4 PUSH1 0x1 SWAP4 SWAP1 SWAP4 ADD SWAP3 PUSH2 0x150C JUMP JUMPDEST POP POP POP SWAP11 DUP8 ADD SWAP11 POP SWAP5 POP POP SWAP1 DUP5 ADD SWAP1 PUSH1 0x1 ADD PUSH2 0x1484 JUMP JUMPDEST PUSH1 0x0 DUP3 DUP5 MSTORE PUSH1 0x20 DUP1 DUP6 ADD SWAP5 POP DUP3 DUP3 JUMPDEST DUP6 DUP2 LT ISZERO PUSH2 0x15A2 JUMPI DUP2 CALLDATALOAD PUSH2 0x1570 DUP2 PUSH2 0x20B1 JUMP JUMPDEST PUSH20 0xFFFFFFFFFFFFFFFFFFFFFFFFFFFFFFFFFFFFFFFF AND DUP8 MSTORE DUP2 DUP4 ADD CALLDATALOAD DUP4 DUP9 ADD MSTORE PUSH1 0x40 SWAP7 DUP8 ADD SWAP7 SWAP1 SWAP2 ADD SWAP1 PUSH1 0x1 ADD PUSH2 0x155D JUMP JUMPDEST POP SWAP5 SWAP6 SWAP5 POP POP POP POP POP JUMP JUMPDEST PUSH1 0x0 PUSH1 0x20 DUP3 MSTORE DUP3 CALLDATALOAD PUSH1 0x20 DUP4 ADD MSTORE PUSH1 0x20 DUP4 ADD CALLDATALOAD PUSH2 0x15C8 DUP2 PUSH2 0x20E1 JUMP JUMPDEST PUSH16 0xFFFFFFFFFFFFFFFFFFFFFFFFFFFFFFFF DUP2 AND PUSH1 0x40 DUP5 ADD MSTORE POP PUSH2 0x15ED PUSH1 0x40 DUP5 ADD PUSH2 0x11ED JUMP JUMPDEST PUSH16 0xFFFFFFFFFFFFFFFFFFFFFFFFFFFFFFFF DUP2 AND PUSH1 0x60 DUP5 ADD MSTORE POP PUSH2 0x1612 PUSH1 0x60 DUP5 ADD PUSH2 0x11ED JUMP JUMPDEST PUSH16 0xFFFFFFFFFFFFFFFFFFFFFFFFFFFFFFFF DUP2 AND PUSH1 0x80 DUP5 ADD MSTORE POP PUSH1 0x80 DUP4 ADD CALLDATALOAD PUSH1 0xA0 DUP4 ADD MSTORE PUSH2 0x1641 PUSH1 0xA0 DUP5 ADD PUSH2 0x11ED JUMP JUMPDEST PUSH16 0xFFFFFFFFFFFFFFFFFFFFFFFFFFFFFFFF DUP2 AND PUSH1 0xC0 DUP5 ADD MSTORE POP PUSH2 0x1666 PUSH1 0xC0 DUP5 ADD PUSH2 0x11ED JUMP JUMPDEST PUSH16 0xFFFFFFFFFFFFFFFFFFFFFFFFFFFFFFFF DUP2 AND PUSH1 0xE0 DUP5 ADD MSTORE POP PUSH2 0x168C PUSH1 0xE0 DUP5 ADD DUP5 PUSH2 0x18C2 JUMP JUMPDEST PUSH2 0x100 DUP5 DUP2 ADD MSTORE PUSH2 0x16A2 PUSH2 0x120 DUP6 ADD DUP3 DUP5 PUSH2 0x135A JUMP JUMPDEST SWAP6 SWAP5 POP POP POP POP POP JUMP JUMPDEST PUSH1 0x0 PUSH16 0xFFFFFFFFFFFFFFFFFFFFFFFFFFFFFFFF DUP1 DUP7 AND DUP4 MSTORE PUSH1 0x60 PUSH1 0x20 DUP5 ADD MSTORE DUP5 MLOAD PUSH1 0x60 DUP5 ADD MSTORE DUP1 PUSH1 0x20 DUP7 ADD MLOAD AND PUSH1 0x80 DUP5 ADD MSTORE DUP1 PUSH1 0x40 DUP7 ADD MLOAD AND PUSH1 0xA0 DUP5 ADD MSTORE POP PUSH1 0x60 DUP5 ADD MLOAD PUSH2 0x170D PUSH1 0xC0 DUP5 ADD DUP3 PUSH16 0xFFFFFFFFFFFFFFFFFFFFFFFFFFFFFFFF AND SWAP1 MSTORE JUMP JUMPDEST POP PUSH1 0x80 DUP5 ADD MLOAD PUSH1 0xE0 DUP4 ADD MSTORE PUSH1 0xA0 DUP5 ADD MLOAD PUSH2 0x100 PUSH2 0x173D DUP2 DUP6 ADD DUP4 PUSH16 0xFFFFFFFFFFFFFFFFFFFFFFFFFFFFFFFF AND SWAP1 MSTORE JUMP JUMPDEST PUSH1 0xC0 DUP7 ADD MLOAD PUSH16 0xFFFFFFFFFFFFFFFFFFFFFFFFFFFFFFFF AND PUSH2 0x120 DUP6 ADD MSTORE PUSH1 0xE0 DUP7 ADD MLOAD PUSH2 0x140 DUP6 ADD SWAP2 SWAP1 SWAP2 MSTORE SWAP1 POP PUSH2 0x1778 PUSH2 0x160 DUP5 ADD DUP3 PUSH2 0x1467 JUMP JUMPDEST SWAP2 POP POP PUSH2 0x179D PUSH1 0x40 DUP4 ADD DUP5 PUSH20 0xFFFFFFFFFFFFFFFFFFFFFFFFFFFFFFFFFFFFFFFF AND SWAP1 MSTORE JUMP JUMPDEST SWAP5 SWAP4 POP POP POP POP JUMP JUMPDEST PUSH1 0x0 DUP1 DUP4 CALLDATALOAD PUSH32 0xFFFFFFFFFFFFFFFFFFFFFFFFFFFFFFFFFFFFFFFFFFFFFFFFFFFFFFFFFFFFFFE1 DUP5 CALLDATASIZE SUB ADD DUP2 SLT PUSH2 0x17D9 JUMPI DUP2 DUP3 REVERT JUMPDEST DUP4 ADD DUP1 CALLDATALOAD SWAP2 POP PUSH8 0xFFFFFFFFFFFFFFFF DUP3 GT ISZERO PUSH2 0x17F3 JUMPI DUP3 DUP4 REVERT JUMPDEST PUSH1 0x20 ADD SWAP2 POP PUSH1 0x6 DUP2 SWAP1 SHL CALLDATASIZE SUB DUP3 SGT ISZERO PUSH2 0x180B JUMPI PUSH1 0x0 DUP1 REVERT JUMPDEST SWAP3 POP SWAP3 SWAP1 POP JUMP JUMPDEST PUSH1 0x0 DUP3 CALLDATALOAD PUSH32 0xFFFFFFFFFFFFFFFFFFFFFFFFFFFFFFFFFFFFFFFFFFFFFFFFFFFFFFFFFFFFFF41 DUP4 CALLDATASIZE SUB ADD DUP2 SLT PUSH2 0x1845 JUMPI DUP2 DUP3 REVERT JUMPDEST SWAP2 SWAP1 SWAP2 ADD SWAP3 SWAP2 POP POP JUMP JUMPDEST PUSH1 0x40 MLOAD PUSH1 0x1F DUP3 ADD PUSH32 0xFFFFFFFFFFFFFFFFFFFFFFFFFFFFFFFFFFFFFFFFFFFFFFFFFFFFFFFFFFFFFFE0 AND DUP2 ADD PUSH8 0xFFFFFFFFFFFFFFFF DUP2 GT DUP3 DUP3 LT OR ISZERO PUSH2 0x1896 JUMPI PUSH2 0x1896 PUSH2 0x1CC3 JUMP JUMPDEST PUSH1 0x40 MSTORE SWAP2 SWAP1 POP JUMP JUMPDEST PUSH1 0x0 PUSH8 0xFFFFFFFFFFFFFFFF DUP3 GT ISZERO PUSH2 0x18B8 JUMPI PUSH2 0x18B8 PUSH2 0x1CC3 JUMP JUMPDEST POP PUSH1 0x5 SHL PUSH1 0x20 ADD SWAP1 JUMP JUMPDEST PUSH1 0x0 DUP1 DUP4 CALLDATALOAD PUSH32 0xFFFFFFFFFFFFFFFFFFFFFFFFFFFFFFFFFFFFFFFFFFFFFFFFFFFFFFFFFFFFFFE1 DUP5 CALLDATASIZE SUB ADD DUP2 SLT PUSH2 0x18F6 JUMPI DUP3 DUP4 REVERT JUMPDEST DUP4 ADD PUSH1 0x20 DUP2 ADD SWAP3 POP CALLDATALOAD SWAP1 POP PUSH8 0xFFFFFFFFFFFFFFFF DUP2 GT ISZERO PUSH2 0x1916 JUMPI PUSH1 0x0 DUP1 REVERT JUMPDEST DUP1 PUSH1 0x5 SHL CALLDATASIZE SUB DUP4 SGT ISZERO PUSH2 0x180B JUMPI PUSH1 0x0 DUP1 REVERT JUMPDEST PUSH1 0x0 DUP1 DUP4 CALLDATALOAD PUSH32 0xFFFFFFFFFFFFFFFFFFFFFFFFFFFFFFFFFFFFFFFFFFFFFFFFFFFFFFFFFFFFFFE1 DUP5 CALLDATASIZE SUB ADD DUP2 SLT PUSH2 0x195C JUMPI DUP3 DUP4 REVERT JUMPDEST DUP4 ADD PUSH1 0x20 DUP2 ADD SWAP3 POP CALLDATALOAD SWAP1 POP PUSH8 0xFFFFFFFFFFFFFFFF DUP2 GT ISZERO PUSH2 0x197C JUMPI PUSH1 0x0 DUP1 REVERT JUMPDEST DUP1 PUSH1 0x6 SHL CALLDATASIZE SUB DUP4 SGT ISZERO PUSH2 0x180B JUMPI PUSH1 0x0 DUP1 REVERT JUMPDEST PUSH1 0x0 DUP3 NOT DUP3 GT ISZERO PUSH2 0x19A1 JUMPI PUSH2 0x19A1 PUSH2 0x1CAD JUMP JUMPDEST POP ADD SWAP1 JUMP JUMPDEST PUSH1 0x0 PUSH1 0xFF DUP3 AND PUSH1 0xFF DUP5 AND DUP1 PUSH1 0xFF SUB DUP3 GT ISZERO PUSH2 0x19C3 JUMPI PUSH2 0x19C3 PUSH2 0x1CAD JUMP JUMPDEST ADD SWAP4 SWAP3 POP POP POP JUMP JUMPDEST PUSH1 0x0 PUSH2 0x100 DUP1 DUP4 CALLDATASIZE SUB SLT ISZERO PUSH2 0x19DE JUMPI DUP2 DUP3 REVERT JUMPDEST PUSH2 0x19E7 DUP2 PUSH2 0x184F JUMP JUMPDEST SWAP1 POP DUP3 CALLDATALOAD DUP2 MSTORE PUSH2 0x19F9 PUSH1 0x20 DUP5 ADD PUSH2 0x11ED JUMP JUMPDEST PUSH1 0x20 DUP3 ADD MSTORE PUSH2 0x1A0A PUSH1 0x40 DUP5 ADD PUSH2 0x11ED JUMP JUMPDEST PUSH1 0x40 DUP3 ADD MSTORE PUSH2 0x1A1B PUSH1 0x60 DUP5 ADD PUSH2 0x11ED JUMP JUMPDEST PUSH1 0x60 DUP3 ADD MSTORE PUSH1 0x80 DUP4 ADD CALLDATALOAD PUSH1 0x80 DUP3 ADD MSTORE PUSH2 0x1A36 PUSH1 0xA0 DUP5 ADD PUSH2 0x11ED JUMP JUMPDEST PUSH1 0xA0 DUP3 ADD MSTORE PUSH2 0x1A47 PUSH1 0xC0 DUP5 ADD PUSH2 0x11ED JUMP JUMPDEST PUSH1 0xC0 DUP3 ADD MSTORE PUSH1 0xE0 DUP4 ADD CALLDATALOAD PUSH8 0xFFFFFFFFFFFFFFFF DUP2 GT ISZERO PUSH2 0x1A65 JUMPI DUP3 DUP4 REVERT JUMPDEST PUSH2 0x1A71 CALLDATASIZE DUP3 DUP7 ADD PUSH2 0x1049 JUMP JUMPDEST PUSH1 0xE0 DUP4 ADD MSTORE POP SWAP3 SWAP2 POP POP JUMP JUMPDEST PUSH9 0x10000000000000000 DUP4 GT ISZERO PUSH2 0x1A96 JUMPI PUSH2 0x1A96 PUSH2 0x1CC3 JUMP JUMPDEST DUP1 SLOAD DUP4 DUP3 SSTORE DUP1 DUP5 LT ISZERO PUSH2 0x1B71 JUMPI PUSH32 0x3333333333333333333333333333333333333333333333333333333333333333 PUSH1 0x1 DUP2 DUP4 GT DUP2 AND ISZERO PUSH2 0x1AD8 JUMPI PUSH2 0x1AD8 PUSH2 0x1CAD JUMP JUMPDEST PUSH1 0x5 DUP3 DUP8 GT DUP3 AND ISZERO PUSH2 0x1AEC JUMPI PUSH2 0x1AEC PUSH2 0x1CAD JUMP JUMPDEST PUSH1 0x0 DUP6 DUP2 MSTORE PUSH1 0x20 DUP2 KECCAK256 SWAP1 SWAP4 POP DUP8 DUP3 MUL DUP2 ADD SWAP1 DUP3 DUP7 MUL ADD JUMPDEST DUP1 DUP3 LT ISZERO PUSH2 0x1B6B JUMPI DUP5 DUP3 SSTORE DUP4 DUP3 ADD DUP6 SWAP1 SSTORE PUSH1 0x2 DUP3 ADD DUP1 SLOAD PUSH32 0xFFFFFFFFFFFFFFFFFFFFFFFFFFFFFFFFFFFFFFFFFFFFFFFFFFFFFFFFFFFFFFFF PUSH1 0x3 DUP9 DUP2 SHL SWAP2 SWAP1 SWAP2 SHL NOT SWAP2 DUP3 AND SWAP1 SWAP3 SSTORE SWAP1 DUP4 ADD DUP1 SLOAD SWAP1 SWAP2 AND SWAP1 SSTORE PUSH2 0x1B62 DUP6 PUSH1 0x4 DUP5 ADD PUSH2 0x1CD9 JUMP JUMPDEST SWAP1 DUP3 ADD SWAP1 PUSH2 0x1B03 JUMP JUMPDEST POP POP POP POP POP JUMPDEST POP PUSH1 0x0 DUP2 DUP2 MSTORE PUSH1 0x20 DUP2 KECCAK256 DUP4 SWAP2 DUP1 JUMPDEST DUP7 DUP2 LT ISZERO PUSH2 0x1BB1 JUMPI PUSH2 0x1B9B PUSH2 0x1B94 DUP6 DUP9 PUSH2 0x1812 JUMP JUMPDEST DUP4 DUP6 PUSH2 0x1F7D JUMP JUMPDEST PUSH1 0x20 SWAP4 SWAP1 SWAP4 ADD SWAP3 PUSH1 0x5 SWAP3 SWAP1 SWAP3 ADD SWAP2 PUSH1 0x1 ADD PUSH2 0x1B7F JUMP JUMPDEST POP POP POP POP POP POP POP JUMP JUMPDEST PUSH2 0x1BC4 DUP4 DUP3 PUSH2 0x1CD9 JUMP JUMPDEST DUP2 DUP2 PUSH1 0x0 MSTORE PUSH1 0x20 DUP1 PUSH1 0x0 KECCAK256 PUSH1 0x0 JUMPDEST DUP7 DUP2 LT ISZERO PUSH2 0x1BB1 JUMPI DUP4 CALLDATALOAD PUSH2 0x1BE5 DUP2 PUSH2 0x20B1 JUMP JUMPDEST DUP3 SLOAD PUSH32 0xFFFFFFFFFFFFFFFFFFFFFFFF0000000000000000000000000000000000000000 AND PUSH20 0xFFFFFFFFFFFFFFFFFFFFFFFFFFFFFFFFFFFFFFFF DUP3 AND OR DUP4 SSTORE POP DUP3 DUP5 ADD CALLDATALOAD PUSH1 0x1 DUP4 ADD SSTORE PUSH1 0x40 DUP5 ADD SWAP4 POP PUSH1 0x2 DUP3 ADD SWAP2 POP PUSH1 0x1 DUP2 ADD SWAP1 POP PUSH2 0x1BD2 JUMP JUMPDEST PUSH1 0x0 PUSH16 0xFFFFFFFFFFFFFFFFFFFFFFFFFFFFFFFF DUP1 DUP4 AND DUP2 DUP2 EQ ISZERO PUSH2 0x1C6A JUMPI PUSH2 0x1C6A PUSH2 0x1CAD JUMP JUMPDEST PUSH1 0x1 ADD SWAP4 SWAP3 POP POP POP JUMP JUMPDEST PUSH1 0x0 PUSH32 0xFFFFFFFFFFFFFFFFFFFFFFFFFFFFFFFFFFFFFFFFFFFFFFFFFFFFFFFFFFFFFFFF DUP3 EQ ISZERO PUSH2 0x1CA6 JUMPI PUSH2 0x1CA6 PUSH2 0x1CAD JUMP JUMPDEST POP PUSH1 0x1 ADD SWAP1 JUMP JUMPDEST PUSH4 0x4E487B71 PUSH1 0xE0 SHL PUSH1 0x0 MSTORE PUSH1 0x11 PUSH1 0x4 MSTORE PUSH1 0x24 PUSH1 0x0 REVERT JUMPDEST PUSH4 0x4E487B71 PUSH1 0xE0 SHL PUSH1 0x0 MSTORE PUSH1 0x41 PUSH1 0x4 MSTORE PUSH1 0x24 PUSH1 0x0 REVERT JUMPDEST PUSH9 0x10000000000000000 DUP3 GT ISZERO PUSH2 0x1CF2 JUMPI PUSH2 0x1CF2 PUSH2 0x1CC3 JUMP JUMPDEST DUP1 SLOAD DUP3 DUP3 SSTORE DUP1 DUP4 LT ISZERO PUSH2 0x344 JUMPI PUSH32 0x7FFFFFFFFFFFFFFFFFFFFFFFFFFFFFFFFFFFFFFFFFFFFFFFFFFFFFFFFFFFFFFF PUSH1 0x1 DUP2 DUP4 GT DUP2 AND ISZERO PUSH2 0x1D34 JUMPI PUSH2 0x1D34 PUSH2 0x1CAD JUMP JUMPDEST DUP2 DUP6 GT DUP2 AND ISZERO PUSH2 0x1D46 JUMPI PUSH2 0x1D46 PUSH2 0x1CAD JUMP JUMPDEST PUSH1 0x0 DUP5 DUP2 MSTORE PUSH1 0x20 DUP2 KECCAK256 SWAP1 SWAP3 POP DUP6 DUP3 SHL DUP2 ADD SWAP1 DUP5 DUP4 SHL ADD JUMPDEST DUP1 DUP3 LT ISZERO PUSH2 0x1BB1 JUMPI DUP4 DUP3 SSTORE DUP4 DUP4 DUP4 ADD SSTORE PUSH1 0x2 DUP3 ADD SWAP2 POP PUSH2 0x1D5D JUMP JUMPDEST DUP2 CALLDATALOAD DUP2 SSTORE PUSH1 0x1 DUP2 ADD PUSH1 0x20 DUP4 ADD CALLDATALOAD PUSH2 0x1D8E DUP2 PUSH2 0x20E1 JUMP JUMPDEST DUP2 SLOAD PUSH32 0xFFFFFFFFFFFFFFFFFFFFFFFFFFFFFFFF00000000000000000000000000000000 AND PUSH16 0xFFFFFFFFFFFFFFFFFFFFFFFFFFFFFFFF DUP3 AND OR DUP3 SSTORE POP PUSH1 0x40 DUP4 ADD CALLDATALOAD PUSH2 0x1DD7 DUP2 PUSH2 0x20E1 JUMP JUMPDEST DUP2 SLOAD PUSH16 0xFFFFFFFFFFFFFFFFFFFFFFFFFFFFFFFF AND PUSH1 0x80 DUP3 SWAP1 SHL PUSH32 0xFFFFFFFFFFFFFFFFFFFFFFFFFFFFFFFF00000000000000000000000000000000 AND OR DUP3 SSTORE POP POP PUSH1 0x60 DUP3 ADD CALLDATALOAD PUSH2 0x1E25 DUP2 PUSH2 0x20E1 JUMP JUMPDEST PUSH1 0x2 DUP3 ADD DUP1 SLOAD PUSH32 0xFFFFFFFFFFFFFFFFFFFFFFFFFFFFFFFF00000000000000000000000000000000 AND PUSH16 0xFFFFFFFFFFFFFFFFFFFFFFFFFFFFFFFF DUP4 AND OR SWAP1 SSTORE POP PUSH1 0x80 DUP3 ADD CALLDATALOAD PUSH1 0x3 DUP3 ADD SSTORE PUSH1 0x4 DUP2 ADD PUSH1 0xA0 DUP4 ADD CALLDATALOAD PUSH2 0x1E80 DUP2 PUSH2 0x20E1 JUMP JUMPDEST DUP2 SLOAD PUSH32 0xFFFFFFFFFFFFFFFFFFFFFFFFFFFFFFFF00000000000000000000000000000000 AND PUSH16 0xFFFFFFFFFFFFFFFFFFFFFFFFFFFFFFFF DUP3 AND OR DUP3 SSTORE POP PUSH1 0xC0 DUP4 ADD CALLDATALOAD PUSH2 0x1EC9 DUP2 PUSH2 0x20E1 JUMP JUMPDEST DUP2 SLOAD PUSH16 0xFFFFFFFFFFFFFFFFFFFFFFFFFFFFFFFF AND PUSH1 0x80 DUP3 SWAP1 SHL PUSH32 0xFFFFFFFFFFFFFFFFFFFFFFFFFFFFFFFF00000000000000000000000000000000 AND OR DUP3 SSTORE POP POP PUSH1 0xE0 DUP3 ADD CALLDATALOAD PUSH32 0xFFFFFFFFFFFFFFFFFFFFFFFFFFFFFFFFFFFFFFFFFFFFFFFFFFFFFFFFFFFFFFE1 DUP4 CALLDATASIZE SUB ADD DUP2 SLT PUSH2 0x1F3E JUMPI PUSH1 0x0 DUP1 REVERT JUMPDEST DUP3 ADD DUP1 CALLDATALOAD PUSH8 0xFFFFFFFFFFFFFFFF DUP2 GT ISZERO PUSH2 0x1F57 JUMPI PUSH1 0x0 DUP1 REVERT JUMPDEST PUSH1 0x20 DUP3 ADD SWAP2 POP DUP1 PUSH1 0x5 SHL CALLDATASIZE SUB DUP3 SGT ISZERO PUSH2 0x1F6F JUMPI PUSH1 0x0 DUP1 REVERT JUMPDEST PUSH2 0xB06 DUP2 DUP4 PUSH1 0x5 DUP7 ADD PUSH2 0x1A7D JUMP JUMPDEST DUP2 ISZERO PUSH2 0x1F99 JUMPI PUSH4 0x4E487B71 PUSH1 0xE0 SHL PUSH1 0x0 MSTORE PUSH1 0x0 PUSH1 0x4 MSTORE PUSH1 0x24 PUSH1 0x0 REVERT JUMPDEST DUP3 CALLDATALOAD PUSH2 0x1FA4 DUP2 PUSH2 0x20B1 JUMP JUMPDEST DUP2 SLOAD PUSH32 0xFFFFFFFFFFFFFFFFFFFFFFFF0000000000000000000000000000000000000000 AND PUSH20 0xFFFFFFFFFFFFFFFFFFFFFFFFFFFFFFFFFFFFFFFF DUP3 AND OR DUP3 SSTORE POP PUSH1 0x1 DUP2 ADD PUSH1 0x20 DUP5 ADD CALLDATALOAD PUSH2 0x1FF5 DUP2 PUSH2 0x20E1 JUMP JUMPDEST DUP2 SLOAD PUSH32 0xFFFFFFFFFFFFFFFFFFFFFFFFFFFFFFFF00000000000000000000000000000000 AND PUSH16 0xFFFFFFFFFFFFFFFFFFFFFFFFFFFFFFFF DUP3 AND OR DUP3 SSTORE POP PUSH1 0x40 DUP5 ADD CALLDATALOAD PUSH2 0x203E DUP2 PUSH2 0x20D3 JUMP JUMPDEST DUP2 SLOAD PUSH17 0xFF00000000000000000000000000000000 DUP3 ISZERO ISZERO PUSH1 0x80 SHL AND PUSH32 0xFFFFFFFFFFFFFFFFFFFFFFFFFFFFFF00FFFFFFFFFFFFFFFFFFFFFFFFFFFFFFFF DUP3 AND OR DUP4 SSTORE POP POP POP PUSH1 0x60 DUP4 ADD CALLDATALOAD PUSH1 0x2 DUP3 ADD SSTORE PUSH1 0x80 DUP4 ADD CALLDATALOAD PUSH1 0x3 DUP3 ADD SSTORE PUSH2 0x20A3 PUSH1 0xA0 DUP5 ADD DUP5 PUSH2 0x17A5 JUMP JUMPDEST PUSH2 0xB04 DUP2 DUP4 PUSH1 0x4 DUP7 ADD PUSH2 0x1BBA JUMP JUMPDEST PUSH20 0xFFFFFFFFFFFFFFFFFFFFFFFFFFFFFFFFFFFFFFFF DUP2 AND DUP2 EQ PUSH2 0xEB5 JUMPI PUSH1 0x0 DUP1 REVERT JUMPDEST DUP1 ISZERO ISZERO DUP2 EQ PUSH2 0xEB5 JUMPI PUSH1 0x0 DUP1 REVERT JUMPDEST PUSH16 0xFFFFFFFFFFFFFFFFFFFFFFFFFFFFFFFF DUP2 AND DUP2 EQ PUSH2 0xEB5 JUMPI PUSH1 0x0 DUP1 REVERT INVALID LOG2 PUSH5 0x6970667358 0x22 SLT KECCAK256 PUSH19 0xF69B6C50DC61442C41C78C7A16BB69485FF6B4 SWAP16 PUSH22 0xEAF73FFC260E3A9EAC5064736F6C6343000803003300 "
				},
				"gasEstimates": {
					"creation": {
						"codeDepositCost": "1700200",
						"executionCost": "1785",
						"totalCost": "1701985"
					},
					"external": {
						"ORACLE_MASTER()": "1025",
						"PUSHABLES(uint256)": "2024",
						"addRemovePushable(address,bool)": "infinite",
						"clearReporting()": "infinite",
						"eraNonce()": "1079",
						"initialize(address,address)": "infinite",
						"isReported(uint256)": "2842",
						"reportPara(uint256,uint256,uint128,uint128,(uint256,uint128,uint128,uint128,bytes32,uint128,uint128,(address,uint128,bool,uint256,uint256,(address,uint256)[])[]),address,bool,bool)": "infinite",
						"softenQuorum(uint8,uint128)": "infinite"
					},
					"internal": {
						"_clearReporting()": "infinite",
						"_getQuorumReport(uint256)": "infinite",
						"_getStakeReport(uint256)": "1748",
						"_push(uint128,struct Types.OracleData memory,address)": "infinite"
					}
				},
				"methodIdentifiers": {
					"ORACLE_MASTER()": "3fd2c16a",
					"PUSHABLES(uint256)": "402e4749",
					"addRemovePushable(address,bool)": "30206bcc",
					"clearReporting()": "b75b518c",
					"eraNonce()": "f53d2ead",
					"initialize(address,address)": "485cc955",
					"isReported(uint256)": "89b80361",
					"reportPara(uint256,uint256,uint128,uint128,(uint256,uint128,uint128,uint128,bytes32,uint128,uint128,(address,uint128,bool,uint256,uint256,(address,uint256)[])[]),address,bool,bool)": "46b705a4",
					"softenQuorum(uint8,uint128)": "f461e54f"
				}
			},
			"storageLayout": {
				"storage": [
					{
						"astId": 468,
						"contract": "contracts/Oracle.sol:Oracle",
						"label": "currentReportVariants",
						"offset": 0,
						"slot": "0",
						"type": "t_array(t_uint256)dyn_storage"
					},
					{
						"astId": 472,
						"contract": "contracts/Oracle.sol:Oracle",
						"label": "currentReports",
						"offset": 0,
						"slot": "1",
						"type": "t_array(t_struct(OracleData)1190_storage)dyn_storage"
					},
					{
						"astId": 474,
						"contract": "contracts/Oracle.sol:Oracle",
						"label": "currentReportBitmask",
						"offset": 0,
						"slot": "2",
						"type": "t_uint256"
					},
					{
						"astId": 477,
						"contract": "contracts/Oracle.sol:Oracle",
						"label": "PUSHABLES",
						"offset": 0,
						"slot": "3",
						"type": "t_array(t_address_payable)dyn_storage"
					},
					{
						"astId": 479,
						"contract": "contracts/Oracle.sol:Oracle",
						"label": "ORACLE_MASTER",
						"offset": 0,
						"slot": "4",
						"type": "t_address"
					},
					{
						"astId": 481,
						"contract": "contracts/Oracle.sol:Oracle",
						"label": "eraNonce",
						"offset": 0,
						"slot": "5",
						"type": "t_uint128"
					},
					{
						"astId": 483,
						"contract": "contracts/Oracle.sol:Oracle",
						"label": "currentVetoReportVariant",
						"offset": 0,
						"slot": "6",
						"type": "t_uint256"
					}
				],
				"types": {
					"t_address": {
						"encoding": "inplace",
						"label": "address",
						"numberOfBytes": "20"
					},
					"t_address_payable": {
						"encoding": "inplace",
						"label": "address payable",
						"numberOfBytes": "20"
					},
					"t_array(t_address_payable)dyn_storage": {
						"base": "t_address_payable",
						"encoding": "dynamic_array",
						"label": "address payable[]",
						"numberOfBytes": "32"
					},
					"t_array(t_struct(CollatorData)1171_storage)dyn_storage": {
						"base": "t_struct(CollatorData)1171_storage",
						"encoding": "dynamic_array",
						"label": "struct Types.CollatorData[]",
						"numberOfBytes": "32"
					},
					"t_array(t_struct(DelegationsData)1156_storage)dyn_storage": {
						"base": "t_struct(DelegationsData)1156_storage",
						"encoding": "dynamic_array",
						"label": "struct Types.DelegationsData[]",
						"numberOfBytes": "32"
					},
					"t_array(t_struct(OracleData)1190_storage)dyn_storage": {
						"base": "t_struct(OracleData)1190_storage",
						"encoding": "dynamic_array",
						"label": "struct Types.OracleData[]",
						"numberOfBytes": "32"
					},
					"t_array(t_uint256)dyn_storage": {
						"base": "t_uint256",
						"encoding": "dynamic_array",
						"label": "uint256[]",
						"numberOfBytes": "32"
					},
					"t_bool": {
						"encoding": "inplace",
						"label": "bool",
						"numberOfBytes": "1"
					},
					"t_bytes32": {
						"encoding": "inplace",
						"label": "bytes32",
						"numberOfBytes": "32"
					},
					"t_struct(CollatorData)1171_storage": {
						"encoding": "inplace",
						"label": "struct Types.CollatorData",
						"members": [
							{
								"astId": 1158,
								"contract": "contracts/Oracle.sol:Oracle",
								"label": "collatorAccount",
								"offset": 0,
								"slot": "0",
								"type": "t_address"
							},
							{
								"astId": 1160,
								"contract": "contracts/Oracle.sol:Oracle",
								"label": "points",
								"offset": 0,
								"slot": "1",
								"type": "t_uint128"
							},
							{
								"astId": 1162,
								"contract": "contracts/Oracle.sol:Oracle",
								"label": "active",
								"offset": 16,
								"slot": "1",
								"type": "t_bool"
							},
							{
								"astId": 1164,
								"contract": "contracts/Oracle.sol:Oracle",
								"label": "bond",
								"offset": 0,
								"slot": "2",
								"type": "t_uint256"
							},
							{
								"astId": 1166,
								"contract": "contracts/Oracle.sol:Oracle",
								"label": "delegationsTotal",
								"offset": 0,
								"slot": "3",
								"type": "t_uint256"
							},
							{
								"astId": 1170,
								"contract": "contracts/Oracle.sol:Oracle",
								"label": "topActiveDelegations",
								"offset": 0,
								"slot": "4",
								"type": "t_array(t_struct(DelegationsData)1156_storage)dyn_storage"
							}
						],
						"numberOfBytes": "160"
					},
					"t_struct(DelegationsData)1156_storage": {
						"encoding": "inplace",
						"label": "struct Types.DelegationsData",
						"members": [
							{
								"astId": 1153,
								"contract": "contracts/Oracle.sol:Oracle",
								"label": "ownerAccount",
								"offset": 0,
								"slot": "0",
								"type": "t_address"
							},
							{
								"astId": 1155,
								"contract": "contracts/Oracle.sol:Oracle",
								"label": "amount",
								"offset": 0,
								"slot": "1",
								"type": "t_uint256"
							}
						],
						"numberOfBytes": "64"
					},
					"t_struct(OracleData)1190_storage": {
						"encoding": "inplace",
						"label": "struct Types.OracleData",
						"members": [
							{
								"astId": 1173,
								"contract": "contracts/Oracle.sol:Oracle",
								"label": "totalStaked",
								"offset": 0,
								"slot": "0",
								"type": "t_uint256"
							},
							{
								"astId": 1175,
								"contract": "contracts/Oracle.sol:Oracle",
								"label": "totalSelected",
								"offset": 0,
								"slot": "1",
								"type": "t_uint128"
							},
							{
								"astId": 1177,
								"contract": "contracts/Oracle.sol:Oracle",
								"label": "orbitersCount",
								"offset": 16,
								"slot": "1",
								"type": "t_uint128"
							},
							{
								"astId": 1179,
								"contract": "contracts/Oracle.sol:Oracle",
								"label": "round",
								"offset": 0,
								"slot": "2",
								"type": "t_uint128"
							},
							{
								"astId": 1181,
								"contract": "contracts/Oracle.sol:Oracle",
								"label": "blockHash",
								"offset": 0,
								"slot": "3",
								"type": "t_bytes32"
							},
							{
								"astId": 1183,
								"contract": "contracts/Oracle.sol:Oracle",
								"label": "blockNumber",
								"offset": 0,
								"slot": "4",
								"type": "t_uint128"
							},
							{
								"astId": 1185,
								"contract": "contracts/Oracle.sol:Oracle",
								"label": "awarded",
								"offset": 16,
								"slot": "4",
								"type": "t_uint128"
							},
							{
								"astId": 1189,
								"contract": "contracts/Oracle.sol:Oracle",
								"label": "collators",
								"offset": 0,
								"slot": "5",
								"type": "t_array(t_struct(CollatorData)1171_storage)dyn_storage"
							}
						],
						"numberOfBytes": "192"
					},
					"t_uint128": {
						"encoding": "inplace",
						"label": "uint128",
						"numberOfBytes": "16"
					},
					"t_uint256": {
						"encoding": "inplace",
						"label": "uint256",
						"numberOfBytes": "32"
					}
				}
			},
			"userdoc": {
				"kind": "user",
				"methods": {
					"clearReporting()": {
						"notice": "Clear data about current reporting, allowed to call only by oracle master contract"
					},
					"initialize(address,address)": {
						"notice": "Initialize oracle contract"
					},
					"isReported(uint256)": {
						"notice": "Returns true if member is already reported"
					},
					"reportPara(uint256,uint256,uint128,uint128,(uint256,uint128,uint128,uint128,bytes32,uint128,uint128,(address,uint128,bool,uint256,uint256,(address,uint256)[])[]),address,bool,bool)": {
						"notice": "Accept oracle report data, allowed to call only by oracle master contract"
					},
					"softenQuorum(uint8,uint128)": {
						"notice": "Change quorum threshold, allowed to call only by oracle master contract"
					}
				},
				"version": 1
			}
		}
	}
}