{
	"contracts/Oracle.sol": {
		"Oracle": {
			"abi": [
				{
					"anonymous": false,
					"inputs": [
						{
							"indexed": false,
							"internalType": "uint128",
							"name": "eraId",
							"type": "uint128"
						},
						{
							"indexed": false,
							"internalType": "uint128",
							"name": "eraNonce",
							"type": "uint128"
						},
						{
							"indexed": false,
							"internalType": "address",
							"name": "oracle",
							"type": "address"
						}
					],
					"name": "ReportSubmitted",
					"type": "event"
				},
				{
					"anonymous": false,
					"inputs": [],
					"name": "ReportingCleared",
					"type": "event"
				},
				{
					"inputs": [],
					"name": "ORACLE_MASTER",
					"outputs": [
						{
							"internalType": "address",
							"name": "",
							"type": "address"
						}
					],
					"stateMutability": "view",
					"type": "function"
				},
				{
					"inputs": [
						{
							"internalType": "uint256",
							"name": "",
							"type": "uint256"
						}
					],
					"name": "PUSHABLES",
					"outputs": [
						{
							"internalType": "address payable",
							"name": "",
							"type": "address"
						}
					],
					"stateMutability": "view",
					"type": "function"
				},
				{
					"inputs": [
						{
							"internalType": "address payable",
							"name": "_pushable",
							"type": "address"
						},
						{
							"internalType": "bool",
							"name": "_toAdd",
							"type": "bool"
						}
					],
					"name": "addRemovePushable",
					"outputs": [],
					"stateMutability": "nonpayable",
					"type": "function"
				},
				{
					"inputs": [],
					"name": "clearReporting",
					"outputs": [],
					"stateMutability": "nonpayable",
					"type": "function"
				},
				{
					"inputs": [],
					"name": "eraNonce",
					"outputs": [
						{
							"internalType": "uint128",
							"name": "",
							"type": "uint128"
						}
					],
					"stateMutability": "view",
					"type": "function"
				},
				{
					"inputs": [
						{
							"internalType": "uint128",
							"name": "",
							"type": "uint128"
						}
					],
					"name": "erasToBlockHashes",
					"outputs": [
						{
							"internalType": "bytes32",
							"name": "",
							"type": "bytes32"
						}
					],
					"stateMutability": "view",
					"type": "function"
				},
				{
					"inputs": [
						{
							"internalType": "uint128",
							"name": "_eraId",
							"type": "uint128"
						}
					],
					"name": "getReportBlockHash",
					"outputs": [
						{
							"internalType": "bytes32",
							"name": "",
							"type": "bytes32"
						}
					],
					"stateMutability": "view",
					"type": "function"
				},
				{
					"inputs": [
						{
							"internalType": "address",
							"name": "_oracleMaster",
							"type": "address"
						},
						{
							"internalType": "address payable",
							"name": "_pushable",
							"type": "address"
						}
					],
					"name": "initialize",
					"outputs": [],
					"stateMutability": "nonpayable",
					"type": "function"
				},
				{
					"inputs": [
						{
							"internalType": "uint256",
							"name": "_index",
							"type": "uint256"
						}
					],
					"name": "isReported",
					"outputs": [
						{
							"internalType": "uint128",
							"name": "",
							"type": "uint128"
						},
						{
							"internalType": "bool",
							"name": "",
							"type": "bool"
						}
					],
					"stateMutability": "view",
					"type": "function"
				},
				{
					"inputs": [
						{
							"internalType": "uint256",
							"name": "_index",
							"type": "uint256"
						},
						{
							"internalType": "uint256",
							"name": "_quorum",
							"type": "uint256"
						},
						{
							"internalType": "uint128",
							"name": "_eraId",
							"type": "uint128"
						},
						{
							"internalType": "uint128",
							"name": "_eraNonce",
							"type": "uint128"
						},
						{
							"components": [
								{
									"internalType": "uint256",
									"name": "totalStaked",
									"type": "uint256"
								},
								{
									"internalType": "uint128",
									"name": "totalSelected",
									"type": "uint128"
								},
								{
									"internalType": "uint128",
									"name": "orbitersCount",
									"type": "uint128"
								},
								{
									"internalType": "uint128",
									"name": "round",
									"type": "uint128"
								},
								{
									"internalType": "bytes32",
									"name": "blockHash",
									"type": "bytes32"
								},
								{
									"internalType": "uint128",
									"name": "blockNumber",
									"type": "uint128"
								},
								{
									"internalType": "uint128",
									"name": "awarded",
									"type": "uint128"
								},
								{
									"components": [
										{
											"internalType": "address",
											"name": "collatorAccount",
											"type": "address"
										},
										{
											"internalType": "uint128",
											"name": "points",
											"type": "uint128"
										},
										{
											"internalType": "bool",
											"name": "active",
											"type": "bool"
										},
										{
											"internalType": "uint256",
											"name": "bond",
											"type": "uint256"
										},
										{
											"internalType": "uint256",
											"name": "delegationsTotal",
											"type": "uint256"
										},
										{
											"components": [
												{
													"internalType": "address",
													"name": "ownerAccount",
													"type": "address"
												},
												{
													"internalType": "uint256",
													"name": "amount",
													"type": "uint256"
												}
											],
											"internalType": "struct Types.DelegationsData[]",
											"name": "topActiveDelegations",
											"type": "tuple[]"
										}
									],
									"internalType": "struct Types.CollatorData[]",
									"name": "collators",
									"type": "tuple[]"
								},
								{
									"internalType": "bool",
									"name": "finalize",
									"type": "bool"
								}
							],
							"internalType": "struct Types.OracleData",
							"name": "_staking",
							"type": "tuple"
						},
						{
							"internalType": "address",
							"name": "_oracleCollator",
							"type": "address"
						},
						{
							"internalType": "bool",
							"name": "veto",
							"type": "bool"
						},
						{
							"internalType": "bool",
							"name": "vetoDisabled",
							"type": "bool"
						},
						{
							"internalType": "bool",
							"name": "newEra",
							"type": "bool"
						}
					],
					"name": "reportPara",
					"outputs": [],
					"stateMutability": "nonpayable",
					"type": "function"
				},
				{
					"inputs": [
						{
							"internalType": "uint8",
							"name": "_quorum",
							"type": "uint8"
						},
						{
							"internalType": "uint128",
							"name": "_eraId",
							"type": "uint128"
						}
					],
					"name": "softenQuorum",
					"outputs": [],
					"stateMutability": "nonpayable",
					"type": "function"
				}
			],
			"devdoc": {
				"kind": "dev",
				"methods": {
					"initialize(address,address)": {
						"params": {
							"_oracleMaster": "oracle master address"
						}
					},
					"isReported(uint256)": {
						"params": {
							"_index": "oracle member index"
						},
						"returns": {
							"_0": "is reported indicator"
						}
					},
					"reportPara(uint256,uint256,uint128,uint128,(uint256,uint128,uint128,uint128,bytes32,uint128,uint128,(address,uint128,bool,uint256,uint256,(address,uint256)[])[],bool),address,bool,bool,bool)": {
						"details": "A report is considered and final and is pushed to the cover contract when A) Q number of oracles have reported exactly the same report, where Q = quorum B) the veto account has submitted a report and it agrees with the quorum report (immediately or when quorum is reached), OR the veto account is disabled",
						"params": {
							"_eraId": "current era id",
							"_index": "oracle member index",
							"_quorum": "the minimum number of voted oracle members to accept a variant",
							"_staking": "report data"
						}
					},
					"softenQuorum(uint8,uint128)": {
						"details": "Method can trigger to pushing data to ledger if quorum threshold decreased and now for contract already reached new threshold.",
						"params": {
							"_eraId": "current era id",
							"_quorum": "new quorum threshold"
						}
					}
				},
				"version": 1
			},
			"evm": {
				"assembly": "    /* \"contracts/Oracle.sol\":279:9385  contract Oracle {\r... */\n  mstore(0x40, 0x80)\n  callvalue\n  dup1\n  iszero\n  tag_1\n  jumpi\n  0x00\n  dup1\n  revert\ntag_1:\n  pop\n  dataSize(sub_0)\n  dup1\n  dataOffset(sub_0)\n  0x00\n  codecopy\n  0x00\n  return\nstop\n\nsub_0: assembly {\n        /* \"contracts/Oracle.sol\":279:9385  contract Oracle {\r... */\n      mstore(0x40, 0x80)\n      callvalue\n      dup1\n      iszero\n      tag_1\n      jumpi\n      0x00\n      dup1\n      revert\n    tag_1:\n      pop\n      jumpi(tag_2, lt(calldatasize, 0x04))\n      shr(0xe0, calldataload(0x00))\n      dup1\n      0x889cc58b\n      gt\n      tag_14\n      jumpi\n      dup1\n      0x889cc58b\n      eq\n      tag_8\n      jumpi\n      dup1\n      0x89b80361\n      eq\n      tag_9\n      jumpi\n      dup1\n      0xadec8b73\n      eq\n      tag_10\n      jumpi\n      dup1\n      0xb75b518c\n      eq\n      tag_11\n      jumpi\n      dup1\n      0xf461e54f\n      eq\n      tag_12\n      jumpi\n      dup1\n      0xf53d2ead\n      eq\n      tag_13\n      jumpi\n      jump(tag_2)\n    tag_14:\n      dup1\n      0x0e53fb48\n      eq\n      tag_3\n      jumpi\n      dup1\n      0x30206bcc\n      eq\n      tag_4\n      jumpi\n      dup1\n      0x3fd2c16a\n      eq\n      tag_5\n      jumpi\n      dup1\n      0x402e4749\n      eq\n      tag_6\n      jumpi\n      dup1\n      0x485cc955\n      eq\n      tag_7\n      jumpi\n    tag_2:\n      0x00\n      dup1\n      revert\n        /* \"contracts/Oracle.sol\":9256:9382  function getReportBlockHash(uint128 _eraId) external view returns(bytes32) {\r... */\n    tag_3:\n      tag_15\n      0x04\n      dup1\n      calldatasize\n      sub\n      dup2\n      add\n      swap1\n      tag_16\n      swap2\n      swap1\n      tag_17\n      jump\t// in\n    tag_16:\n      tag_18\n      jump\t// in\n    tag_15:\n      mload(0x40)\n      tag_19\n      swap2\n      swap1\n      tag_20\n      jump\t// in\n    tag_19:\n      mload(0x40)\n      dup1\n      swap2\n      sub\n      swap1\n      return\n        /* \"contracts/Oracle.sol\":5596:6002  function addRemovePushable(\r... */\n    tag_4:\n      tag_21\n      0x04\n      dup1\n      calldatasize\n      sub\n      dup2\n      add\n      swap1\n      tag_22\n      swap2\n      swap1\n      tag_23\n      jump\t// in\n    tag_22:\n      tag_24\n      jump\t// in\n    tag_21:\n      stop\n        /* \"contracts/Oracle.sol\":835:863  address public ORACLE_MASTER */\n    tag_5:\n      tag_25\n      tag_26\n      jump\t// in\n    tag_25:\n      mload(0x40)\n      tag_27\n      swap2\n      swap1\n      tag_28\n      jump\t// in\n    tag_27:\n      mload(0x40)\n      dup1\n      swap2\n      sub\n      swap1\n      return\n        /* \"contracts/Oracle.sol\":755:789  address payable[] public PUSHABLES */\n    tag_6:\n      tag_29\n      0x04\n      dup1\n      calldatasize\n      sub\n      dup2\n      add\n      swap1\n      tag_30\n      swap2\n      swap1\n      tag_31\n      jump\t// in\n    tag_30:\n      tag_32\n      jump\t// in\n    tag_29:\n      mload(0x40)\n      tag_33\n      swap2\n      swap1\n      tag_34\n      jump\t// in\n    tag_33:\n      mload(0x40)\n      dup1\n      swap2\n      sub\n      swap1\n      return\n        /* \"contracts/Oracle.sol\":1589:1915  function initialize(\r... */\n    tag_7:\n      tag_35\n      0x04\n      dup1\n      calldatasize\n      sub\n      dup2\n      add\n      swap1\n      tag_36\n      swap2\n      swap1\n      tag_37\n      jump\t// in\n    tag_36:\n      tag_38\n      jump\t// in\n    tag_35:\n      stop\n        /* \"contracts/Oracle.sol\":2630:4839  function reportPara(\r... */\n    tag_8:\n      tag_39\n      0x04\n      dup1\n      calldatasize\n      sub\n      dup2\n      add\n      swap1\n      tag_40\n      swap2\n      swap1\n      tag_41\n      jump\t// in\n    tag_40:\n      tag_42\n      jump\t// in\n    tag_39:\n      stop\n        /* \"contracts/Oracle.sol\":6167:6390  function isReported(\r... */\n    tag_9:\n      tag_43\n      0x04\n      dup1\n      calldatasize\n      sub\n      dup2\n      add\n      swap1\n      tag_44\n      swap2\n      swap1\n      tag_31\n      jump\t// in\n    tag_44:\n      tag_45\n      jump\t// in\n    tag_43:\n      mload(0x40)\n      tag_46\n      swap3\n      swap2\n      swap1\n      tag_47\n      jump\t// in\n    tag_46:\n      mload(0x40)\n      dup1\n      swap2\n      sub\n      swap1\n      return\n        /* \"contracts/Oracle.sol\":1260:1312  mapping(uint128 => bytes32) public erasToBlockHashes */\n    tag_10:\n      tag_48\n      0x04\n      dup1\n      calldatasize\n      sub\n      dup2\n      add\n      swap1\n      tag_49\n      swap2\n      swap1\n      tag_17\n      jump\t// in\n    tag_49:\n      tag_50\n      jump\t// in\n    tag_48:\n      mload(0x40)\n      tag_51\n      swap2\n      swap1\n      tag_20\n      jump\t// in\n    tag_51:\n      mload(0x40)\n      dup1\n      swap2\n      sub\n      swap1\n      return\n        /* \"contracts/Oracle.sol\":6581:6690  function clearReporting() external onlyOracleMaster {\r... */\n    tag_11:\n      tag_52\n      tag_53\n      jump\t// in\n    tag_52:\n      stop\n        /* \"contracts/Oracle.sol\":5181:5588  function softenQuorum(\r... */\n    tag_12:\n      tag_54\n      0x04\n      dup1\n      calldatasize\n      sub\n      dup2\n      add\n      swap1\n      tag_55\n      swap2\n      swap1\n      tag_56\n      jump\t// in\n    tag_55:\n      tag_57\n      jump\t// in\n    tag_54:\n      stop\n        /* \"contracts/Oracle.sol\":898:921  uint128 public eraNonce */\n    tag_13:\n      tag_58\n      tag_59\n      jump\t// in\n    tag_58:\n      mload(0x40)\n      tag_60\n      swap2\n      swap1\n      tag_61\n      jump\t// in\n    tag_60:\n      mload(0x40)\n      dup1\n      swap2\n      sub\n      swap1\n      return\n        /* \"contracts/Oracle.sol\":9256:9382  function getReportBlockHash(uint128 _eraId) external view returns(bytes32) {\r... */\n    tag_18:\n        /* \"contracts/Oracle.sol\":9322:9329  bytes32 */\n      0x00\n        /* \"contracts/Oracle.sol\":9349:9366  erasToBlockHashes */\n      0x07\n        /* \"contracts/Oracle.sol\":9349:9374  erasToBlockHashes[_eraId] */\n      0x00\n        /* \"contracts/Oracle.sol\":9367:9373  _eraId */\n      dup4\n        /* \"contracts/Oracle.sol\":9349:9374  erasToBlockHashes[_eraId] */\n      0xffffffffffffffffffffffffffffffff\n      and\n      0xffffffffffffffffffffffffffffffff\n      and\n      dup2\n      mstore\n      0x20\n      add\n      swap1\n      dup2\n      mstore\n      0x20\n      add\n      0x00\n      keccak256\n      sload\n        /* \"contracts/Oracle.sol\":9342:9374  return erasToBlockHashes[_eraId] */\n      swap1\n      pop\n        /* \"contracts/Oracle.sol\":9256:9382  function getReportBlockHash(uint128 _eraId) external view returns(bytes32) {\r... */\n      swap2\n      swap1\n      pop\n      jump\t// out\n        /* \"contracts/Oracle.sol\":5596:6002  function addRemovePushable(\r... */\n    tag_24:\n        /* \"contracts/Oracle.sol\":1435:1448  ORACLE_MASTER */\n      0x04\n      0x00\n      swap1\n      sload\n      swap1\n      0x0100\n      exp\n      swap1\n      div\n      0xffffffffffffffffffffffffffffffffffffffff\n      and\n        /* \"contracts/Oracle.sol\":1421:1448  msg.sender == ORACLE_MASTER */\n      0xffffffffffffffffffffffffffffffffffffffff\n      and\n        /* \"contracts/Oracle.sol\":1421:1431  msg.sender */\n      caller\n        /* \"contracts/Oracle.sol\":1421:1448  msg.sender == ORACLE_MASTER */\n      0xffffffffffffffffffffffffffffffffffffffff\n      and\n      eq\n        /* \"contracts/Oracle.sol\":1413:1449  require(msg.sender == ORACLE_MASTER) */\n      tag_64\n      jumpi\n      0x00\n      dup1\n      revert\n    tag_64:\n        /* \"contracts/Oracle.sol\":5729:5735  _toAdd */\n      dup1\n        /* \"contracts/Oracle.sol\":5725:5995  if (_toAdd) {\r... */\n      iszero\n      tag_66\n      jumpi\n        /* \"contracts/Oracle.sol\":5752:5761  PUSHABLES */\n      0x03\n        /* \"contracts/Oracle.sol\":5767:5776  _pushable */\n      dup3\n        /* \"contracts/Oracle.sol\":5752:5777  PUSHABLES.push(_pushable) */\n      swap1\n      dup1\n      0x01\n      dup2\n      sload\n      add\n      dup1\n      dup3\n      sstore\n      dup1\n      swap2\n      pop\n      pop\n      0x01\n      swap1\n      sub\n      swap1\n      0x00\n      mstore\n      keccak256(0x00, 0x20)\n      add\n      0x00\n      swap1\n      swap2\n      swap1\n      swap2\n      swap1\n      swap2\n      0x0100\n      exp\n      dup2\n      sload\n      dup2\n      0xffffffffffffffffffffffffffffffffffffffff\n      mul\n      not\n      and\n      swap1\n      dup4\n      0xffffffffffffffffffffffffffffffffffffffff\n      and\n      mul\n      or\n      swap1\n      sstore\n      pop\n        /* \"contracts/Oracle.sol\":5725:5995  if (_toAdd) {\r... */\n      jump(tag_68)\n    tag_66:\n        /* \"contracts/Oracle.sol\":5815:5824  uint256 i */\n      0x00\n        /* \"contracts/Oracle.sol\":5810:5984  for (uint256 i = 0; i < PUSHABLES.length; i++) {\r... */\n    tag_69:\n        /* \"contracts/Oracle.sol\":5834:5843  PUSHABLES */\n      0x03\n        /* \"contracts/Oracle.sol\":5834:5850  PUSHABLES.length */\n      dup1\n      sload\n      swap1\n      pop\n        /* \"contracts/Oracle.sol\":5830:5831  i */\n      dup2\n        /* \"contracts/Oracle.sol\":5830:5850  i < PUSHABLES.length */\n      lt\n        /* \"contracts/Oracle.sol\":5810:5984  for (uint256 i = 0; i < PUSHABLES.length; i++) {\r... */\n      iszero\n      tag_70\n      jumpi\n        /* \"contracts/Oracle.sol\":5896:5905  _pushable */\n      dup3\n        /* \"contracts/Oracle.sol\":5880:5905  PUSHABLES[i] == _pushable */\n      0xffffffffffffffffffffffffffffffffffffffff\n      and\n        /* \"contracts/Oracle.sol\":5880:5889  PUSHABLES */\n      0x03\n        /* \"contracts/Oracle.sol\":5890:5891  i */\n      dup3\n        /* \"contracts/Oracle.sol\":5880:5892  PUSHABLES[i] */\n      dup2\n      sload\n      dup2\n      lt\n      tag_72\n      jumpi\n      tag_73\n      tag_74\n      jump\t// in\n    tag_73:\n    tag_72:\n      swap1\n      0x00\n      mstore\n      keccak256(0x00, 0x20)\n      add\n      0x00\n      swap1\n      sload\n      swap1\n      0x0100\n      exp\n      swap1\n      div\n      0xffffffffffffffffffffffffffffffffffffffff\n      and\n        /* \"contracts/Oracle.sol\":5880:5905  PUSHABLES[i] == _pushable */\n      0xffffffffffffffffffffffffffffffffffffffff\n      and\n      eq\n        /* \"contracts/Oracle.sol\":5876:5969  if (PUSHABLES[i] == _pushable) {\r... */\n      iszero\n      tag_76\n      jumpi\n        /* \"contracts/Oracle.sol\":5937:5946  PUSHABLES */\n      0x03\n        /* \"contracts/Oracle.sol\":5947:5948  i */\n      dup2\n        /* \"contracts/Oracle.sol\":5937:5949  PUSHABLES[i] */\n      dup2\n      sload\n      dup2\n      lt\n      tag_77\n      jumpi\n      tag_78\n      tag_74\n      jump\t// in\n    tag_78:\n    tag_77:\n      swap1\n      0x00\n      mstore\n      keccak256(0x00, 0x20)\n      add\n      0x00\n        /* \"contracts/Oracle.sol\":5930:5949  delete PUSHABLES[i] */\n      0x0100\n      exp\n      dup2\n      sload\n      swap1\n      0xffffffffffffffffffffffffffffffffffffffff\n      mul\n      not\n      and\n      swap1\n      sstore\n        /* \"contracts/Oracle.sol\":5876:5969  if (PUSHABLES[i] == _pushable) {\r... */\n    tag_76:\n        /* \"contracts/Oracle.sol\":5852:5855  i++ */\n      dup1\n      dup1\n      tag_80\n      swap1\n      tag_81\n      jump\t// in\n    tag_80:\n      swap2\n      pop\n      pop\n        /* \"contracts/Oracle.sol\":5810:5984  for (uint256 i = 0; i < PUSHABLES.length; i++) {\r... */\n      jump(tag_69)\n    tag_70:\n      pop\n        /* \"contracts/Oracle.sol\":5725:5995  if (_toAdd) {\r... */\n    tag_68:\n        /* \"contracts/Oracle.sol\":5596:6002  function addRemovePushable(\r... */\n      pop\n      pop\n      jump\t// out\n        /* \"contracts/Oracle.sol\":835:863  address public ORACLE_MASTER */\n    tag_26:\n      0x04\n      0x00\n      swap1\n      sload\n      swap1\n      0x0100\n      exp\n      swap1\n      div\n      0xffffffffffffffffffffffffffffffffffffffff\n      and\n      dup2\n      jump\t// out\n        /* \"contracts/Oracle.sol\":755:789  address payable[] public PUSHABLES */\n    tag_32:\n      0x03\n      dup2\n      dup2\n      sload\n      dup2\n      lt\n      tag_82\n      jumpi\n      0x00\n      dup1\n      revert\n    tag_82:\n      swap1\n      0x00\n      mstore\n      keccak256(0x00, 0x20)\n      add\n      0x00\n      swap2\n      pop\n      sload\n      swap1\n      0x0100\n      exp\n      swap1\n      div\n      0xffffffffffffffffffffffffffffffffffffffff\n      and\n      dup2\n      jump\t// out\n        /* \"contracts/Oracle.sol\":1589:1915  function initialize(\r... */\n    tag_38:\n        /* \"contracts/Oracle.sol\":1751:1752  0 */\n      0x00\n        /* \"contracts/Oracle.sol\":1726:1753  ORACLE_MASTER == address(0) */\n      0xffffffffffffffffffffffffffffffffffffffff\n      and\n        /* \"contracts/Oracle.sol\":1726:1739  ORACLE_MASTER */\n      0x04\n      0x00\n      swap1\n      sload\n      swap1\n      0x0100\n      exp\n      swap1\n      div\n      0xffffffffffffffffffffffffffffffffffffffff\n      and\n        /* \"contracts/Oracle.sol\":1726:1753  ORACLE_MASTER == address(0) */\n      0xffffffffffffffffffffffffffffffffffffffff\n      and\n      eq\n        /* \"contracts/Oracle.sol\":1726:1784  ORACLE_MASTER == address(0) && _oracleMaster != address(0) */\n      dup1\n      iszero\n      tag_85\n      jumpi\n      pop\n        /* \"contracts/Oracle.sol\":1782:1783  0 */\n      0x00\n        /* \"contracts/Oracle.sol\":1757:1784  _oracleMaster != address(0) */\n      0xffffffffffffffffffffffffffffffffffffffff\n      and\n        /* \"contracts/Oracle.sol\":1757:1770  _oracleMaster */\n      dup3\n        /* \"contracts/Oracle.sol\":1757:1784  _oracleMaster != address(0) */\n      0xffffffffffffffffffffffffffffffffffffffff\n      and\n      eq\n      iszero\n        /* \"contracts/Oracle.sol\":1726:1784  ORACLE_MASTER == address(0) && _oracleMaster != address(0) */\n    tag_85:\n        /* \"contracts/Oracle.sol\":1704:1831  require(\r... */\n      tag_86\n      jumpi\n      mload(0x40)\n      0x08c379a000000000000000000000000000000000000000000000000000000000\n      dup2\n      mstore\n      0x04\n      add\n      tag_87\n      swap1\n      tag_88\n      jump\t// in\n    tag_87:\n      mload(0x40)\n      dup1\n      swap2\n      sub\n      swap1\n      revert\n    tag_86:\n        /* \"contracts/Oracle.sol\":1858:1871  _oracleMaster */\n      dup2\n        /* \"contracts/Oracle.sol\":1842:1855  ORACLE_MASTER */\n      0x04\n      0x00\n        /* \"contracts/Oracle.sol\":1842:1871  ORACLE_MASTER = _oracleMaster */\n      0x0100\n      exp\n      dup2\n      sload\n      dup2\n      0xffffffffffffffffffffffffffffffffffffffff\n      mul\n      not\n      and\n      swap1\n      dup4\n      0xffffffffffffffffffffffffffffffffffffffff\n      and\n      mul\n      or\n      swap1\n      sstore\n      pop\n        /* \"contracts/Oracle.sol\":1882:1891  PUSHABLES */\n      0x03\n        /* \"contracts/Oracle.sol\":1897:1906  _pushable */\n      dup2\n        /* \"contracts/Oracle.sol\":1882:1907  PUSHABLES.push(_pushable) */\n      swap1\n      dup1\n      0x01\n      dup2\n      sload\n      add\n      dup1\n      dup3\n      sstore\n      dup1\n      swap2\n      pop\n      pop\n      0x01\n      swap1\n      sub\n      swap1\n      0x00\n      mstore\n      keccak256(0x00, 0x20)\n      add\n      0x00\n      swap1\n      swap2\n      swap1\n      swap2\n      swap1\n      swap2\n      0x0100\n      exp\n      dup2\n      sload\n      dup2\n      0xffffffffffffffffffffffffffffffffffffffff\n      mul\n      not\n      and\n      swap1\n      dup4\n      0xffffffffffffffffffffffffffffffffffffffff\n      and\n      mul\n      or\n      swap1\n      sstore\n      pop\n        /* \"contracts/Oracle.sol\":1589:1915  function initialize(\r... */\n      pop\n      pop\n      jump\t// out\n        /* \"contracts/Oracle.sol\":2630:4839  function reportPara(\r... */\n    tag_42:\n        /* \"contracts/Oracle.sol\":1435:1448  ORACLE_MASTER */\n      0x04\n      0x00\n      swap1\n      sload\n      swap1\n      0x0100\n      exp\n      swap1\n      div\n      0xffffffffffffffffffffffffffffffffffffffff\n      and\n        /* \"contracts/Oracle.sol\":1421:1448  msg.sender == ORACLE_MASTER */\n      0xffffffffffffffffffffffffffffffffffffffff\n      and\n        /* \"contracts/Oracle.sol\":1421:1431  msg.sender */\n      caller\n        /* \"contracts/Oracle.sol\":1421:1448  msg.sender == ORACLE_MASTER */\n      0xffffffffffffffffffffffffffffffffffffffff\n      and\n      eq\n        /* \"contracts/Oracle.sol\":1413:1449  require(msg.sender == ORACLE_MASTER) */\n      tag_91\n      jumpi\n      0x00\n      dup1\n      revert\n    tag_91:\n        /* \"contracts/Oracle.sol\":2953:2959  newEra */\n      dup1\n        /* \"contracts/Oracle.sol\":2949:3033  if (newEra) {\r... */\n      iszero\n      tag_93\n      jumpi\n        /* \"contracts/Oracle.sol\":2976:2993  _clearReporting() */\n      tag_94\n        /* \"contracts/Oracle.sol\":2976:2991  _clearReporting */\n      tag_95\n        /* \"contracts/Oracle.sol\":2976:2993  _clearReporting() */\n      jump\t// in\n    tag_94:\n        /* \"contracts/Oracle.sol\":2949:3033  if (newEra) {\r... */\n    tag_93:\n        /* \"contracts/Oracle.sol\":3060:3072  uint256 mask */\n      0x00\n        /* \"contracts/Oracle.sol\":3080:3086  _index */\n      dup10\n        /* \"contracts/Oracle.sol\":3075:3076  1 */\n      0x01\n        /* \"contracts/Oracle.sol\":3075:3086  1 << _index */\n      swap1\n      shl\n        /* \"contracts/Oracle.sol\":3060:3086  uint256 mask = 1 << _index */\n      swap1\n      pop\n        /* \"contracts/Oracle.sol\":3101:3122  uint256 reportBitmask */\n      0x00\n        /* \"contracts/Oracle.sol\":3125:3145  currentReportBitmask */\n      sload(0x02)\n        /* \"contracts/Oracle.sol\":3101:3145  uint256 reportBitmask = currentReportBitmask */\n      swap1\n      pop\n        /* \"contracts/Oracle.sol\":3192:3193  0 */\n      0x00\n        /* \"contracts/Oracle.sol\":3184:3188  mask */\n      dup3\n        /* \"contracts/Oracle.sol\":3168:3181  reportBitmask */\n      dup3\n        /* \"contracts/Oracle.sol\":3168:3188  reportBitmask & mask */\n      and\n        /* \"contracts/Oracle.sol\":3168:3193  reportBitmask & mask == 0 */\n      eq\n        /* \"contracts/Oracle.sol\":3160:3219  require(reportBitmask & mask == 0, \"OR: ALREADY_SUBMITTED\") */\n      tag_96\n      jumpi\n      mload(0x40)\n      0x08c379a000000000000000000000000000000000000000000000000000000000\n      dup2\n      mstore\n      0x04\n      add\n      tag_97\n      swap1\n      tag_98\n      jump\t// in\n    tag_97:\n      mload(0x40)\n      dup1\n      swap2\n      sub\n      swap1\n      revert\n    tag_96:\n        /* \"contracts/Oracle.sol\":3274:3278  mask */\n      dup2\n        /* \"contracts/Oracle.sol\":3258:3271  reportBitmask */\n      dup2\n        /* \"contracts/Oracle.sol\":3258:3278  reportBitmask | mask */\n      or\n        /* \"contracts/Oracle.sol\":3234:3254  currentReportBitmask */\n      0x02\n        /* \"contracts/Oracle.sol\":3234:3279  currentReportBitmask = (reportBitmask | mask) */\n      dup2\n      swap1\n      sstore\n      pop\n        /* \"contracts/Oracle.sol\":3315:3323  eraNonce */\n      0x05\n      0x00\n      swap1\n      sload\n      swap1\n      0x0100\n      exp\n      swap1\n      div\n      0xffffffffffffffffffffffffffffffff\n      and\n        /* \"contracts/Oracle.sol\":3302:3323  _eraNonce == eraNonce */\n      0xffffffffffffffffffffffffffffffff\n      and\n        /* \"contracts/Oracle.sol\":3302:3311  _eraNonce */\n      dup9\n        /* \"contracts/Oracle.sol\":3302:3323  _eraNonce == eraNonce */\n      0xffffffffffffffffffffffffffffffff\n      and\n      eq\n        /* \"contracts/Oracle.sol\":3294:3341  require(_eraNonce == eraNonce, \"OR: INV_NONCE\") */\n      tag_99\n      jumpi\n      mload(0x40)\n      0x08c379a000000000000000000000000000000000000000000000000000000000\n      dup2\n      mstore\n      0x04\n      add\n      tag_100\n      swap1\n      tag_101\n      jump\t// in\n    tag_100:\n      mload(0x40)\n      dup1\n      swap2\n      sub\n      swap1\n      revert\n    tag_99:\n        /* \"contracts/Oracle.sol\":3045:3353  {\r... */\n      pop\n      pop\n        /* \"contracts/Oracle.sol\":3459:3474  uint256 variant */\n      0x00\n        /* \"contracts/utils/ReportUtils.sol\":211:277  0xFFFFFFFFFFFFFFFFFFFFFFFFFFFFFFFFFFFFFFFFFFFFFFFFFFFFFFFFFFFFFF00 */\n      0xffffffffffffffffffffffffffffffffffffffffffffffffffffffffffffff00\n        /* \"contracts/Oracle.sol\":3506:3514  _staking */\n      dup7\n        /* \"contracts/Oracle.sol\":3495:3515  abi.encode(_staking) */\n      add(0x20, mload(0x40))\n      tag_102\n      swap2\n      swap1\n      tag_103\n      jump\t// in\n    tag_102:\n      mload(0x40)\n      0x20\n      dup2\n      dup4\n      sub\n      sub\n      dup2\n      mstore\n      swap1\n      0x40\n      mstore\n        /* \"contracts/Oracle.sol\":3485:3516  keccak256(abi.encode(_staking)) */\n      dup1\n      mload\n      swap1\n      0x20\n      add\n      keccak256\n        /* \"contracts/Oracle.sol\":3477:3517  uint256(keccak256(abi.encode(_staking))) */\n      0x00\n      shr\n        /* \"contracts/Oracle.sol\":3477:3558  uint256(keccak256(abi.encode(_staking))) &\r... */\n      and\n        /* \"contracts/Oracle.sol\":3459:3558  uint256 variant = uint256(keccak256(abi.encode(_staking))) &\r... */\n      swap1\n      pop\n        /* \"contracts/Oracle.sol\":3575:3579  veto */\n      dup4\n        /* \"contracts/Oracle.sol\":3571:3642  if (veto) {\r... */\n      iszero\n      tag_104\n      jumpi\n        /* \"contracts/Oracle.sol\":3623:3630  variant */\n      dup1\n        /* \"contracts/Oracle.sol\":3596:3620  currentVetoReportVariant */\n      0x06\n        /* \"contracts/Oracle.sol\":3596:3630  currentVetoReportVariant = variant */\n      dup2\n      swap1\n      sstore\n      pop\n        /* \"contracts/Oracle.sol\":3571:3642  if (veto) {\r... */\n    tag_104:\n        /* \"contracts/Oracle.sol\":3654:3663  uint256 i */\n      0x00\n        /* \"contracts/Oracle.sol\":3678:3693  uint256 _length */\n      dup1\n        /* \"contracts/Oracle.sol\":3696:3717  currentReportVariants */\n      dup1\n        /* \"contracts/Oracle.sol\":3696:3724  currentReportVariants.length */\n      dup1\n      sload\n      swap1\n      pop\n        /* \"contracts/Oracle.sol\":3678:3724  uint256 _length = currentReportVariants.length */\n      swap1\n      pop\n        /* \"contracts/Oracle.sol\":3833:3918  while (i < _length && currentReportVariants[i].isDifferent(variant))\r... */\n    tag_105:\n        /* \"contracts/Oracle.sol\":3844:3851  _length */\n      dup1\n        /* \"contracts/Oracle.sol\":3840:3841  i */\n      dup3\n        /* \"contracts/Oracle.sol\":3840:3851  i < _length */\n      lt\n        /* \"contracts/Oracle.sol\":3840:3900  i < _length && currentReportVariants[i].isDifferent(variant) */\n      dup1\n      iszero\n      tag_107\n      jumpi\n      pop\n        /* \"contracts/Oracle.sol\":3855:3900  currentReportVariants[i].isDifferent(variant) */\n      tag_108\n        /* \"contracts/Oracle.sol\":3892:3899  variant */\n      dup4\n        /* \"contracts/Oracle.sol\":3855:3876  currentReportVariants */\n      0x00\n        /* \"contracts/Oracle.sol\":3877:3878  i */\n      dup5\n        /* \"contracts/Oracle.sol\":3855:3879  currentReportVariants[i] */\n      dup2\n      sload\n      dup2\n      lt\n      tag_109\n      jumpi\n      tag_110\n      tag_74\n      jump\t// in\n    tag_110:\n    tag_109:\n      swap1\n      0x00\n      mstore\n      keccak256(0x00, 0x20)\n      add\n      sload\n        /* \"contracts/Oracle.sol\":3855:3891  currentReportVariants[i].isDifferent */\n      tag_112\n      swap1\n        /* \"contracts/Oracle.sol\":3855:3900  currentReportVariants[i].isDifferent(variant) */\n      swap2\n      swap1\n      0xffffffff\n      and\n      jump\t// in\n    tag_108:\n        /* \"contracts/Oracle.sol\":3840:3900  i < _length && currentReportVariants[i].isDifferent(variant) */\n    tag_107:\n        /* \"contracts/Oracle.sol\":3833:3918  while (i < _length && currentReportVariants[i].isDifferent(variant))\r... */\n      iszero\n      tag_106\n      jumpi\n        /* \"contracts/Oracle.sol\":3915:3918  ++i */\n      dup2\n      tag_113\n      swap1\n      tag_81\n      jump\t// in\n    tag_113:\n      swap2\n      pop\n        /* \"contracts/Oracle.sol\":3833:3918  while (i < _length && currentReportVariants[i].isDifferent(variant))\r... */\n      jump(tag_105)\n    tag_106:\n        /* \"contracts/Oracle.sol\":3937:3944  _length */\n      dup1\n        /* \"contracts/Oracle.sol\":3933:3934  i */\n      dup3\n        /* \"contracts/Oracle.sol\":3933:3944  i < _length */\n      lt\n        /* \"contracts/Oracle.sol\":3929:4764  if (i < _length) {\r... */\n      iszero\n      tag_114\n      jumpi\n        /* \"contracts/Oracle.sol\":4008:4015  _quorum */\n      dup11\n        /* \"contracts/Oracle.sol\":4003:4004  1 */\n      0x01\n        /* \"contracts/Oracle.sol\":3965:4000  currentReportVariants[i].getCount() */\n      tag_115\n        /* \"contracts/Oracle.sol\":3965:3986  currentReportVariants */\n      0x00\n        /* \"contracts/Oracle.sol\":3987:3988  i */\n      dup6\n        /* \"contracts/Oracle.sol\":3965:3989  currentReportVariants[i] */\n      dup2\n      sload\n      dup2\n      lt\n      tag_116\n      jumpi\n      tag_117\n      tag_74\n      jump\t// in\n    tag_117:\n    tag_116:\n      swap1\n      0x00\n      mstore\n      keccak256(0x00, 0x20)\n      add\n      sload\n        /* \"contracts/Oracle.sol\":3965:3998  currentReportVariants[i].getCount */\n      tag_119\n        /* \"contracts/Oracle.sol\":3965:4000  currentReportVariants[i].getCount() */\n      jump\t// in\n    tag_115:\n        /* \"contracts/Oracle.sol\":3965:4004  currentReportVariants[i].getCount() + 1 */\n      tag_120\n      swap2\n      swap1\n      tag_121\n      jump\t// in\n    tag_120:\n        /* \"contracts/Oracle.sol\":3965:4015  currentReportVariants[i].getCount() + 1 >= _quorum */\n      0xff\n      and\n      lt\n        /* \"contracts/Oracle.sol\":3961:4500  if (currentReportVariants[i].getCount() + 1 >= _quorum) {\r... */\n      tag_122\n      jumpi\n        /* \"contracts/Oracle.sol\":4036:4060  bool vetoAddressHasVoted */\n      0x00\n        /* \"contracts/Oracle.sol\":4091:4092  0 */\n      dup1\n        /* \"contracts/Oracle.sol\":4063:4087  currentVetoReportVariant */\n      sload(0x06)\n        /* \"contracts/Oracle.sol\":4063:4092  currentVetoReportVariant == 0 */\n      eq\n        /* \"contracts/Oracle.sol\":4036:4092  bool vetoAddressHasVoted = currentVetoReportVariant == 0 */\n      swap1\n      pop\n        /* \"contracts/Oracle.sol\":4111:4122  bool vetoed */\n      0x00\n        /* \"contracts/Oracle.sol\":4125:4187  currentReportVariants[i].isDifferent(currentVetoReportVariant) */\n      tag_123\n        /* \"contracts/Oracle.sol\":4162:4186  currentVetoReportVariant */\n      sload(0x06)\n        /* \"contracts/Oracle.sol\":4125:4146  currentReportVariants */\n      0x00\n        /* \"contracts/Oracle.sol\":4147:4148  i */\n      dup7\n        /* \"contracts/Oracle.sol\":4125:4149  currentReportVariants[i] */\n      dup2\n      sload\n      dup2\n      lt\n      tag_124\n      jumpi\n      tag_125\n      tag_74\n      jump\t// in\n    tag_125:\n    tag_124:\n      swap1\n      0x00\n      mstore\n      keccak256(0x00, 0x20)\n      add\n      sload\n        /* \"contracts/Oracle.sol\":4125:4161  currentReportVariants[i].isDifferent */\n      tag_112\n      swap1\n        /* \"contracts/Oracle.sol\":4125:4187  currentReportVariants[i].isDifferent(currentVetoReportVariant) */\n      swap2\n      swap1\n      0xffffffff\n      and\n      jump\t// in\n    tag_123:\n        /* \"contracts/Oracle.sol\":4111:4187  bool vetoed = currentReportVariants[i].isDifferent(currentVetoReportVariant) */\n      swap1\n      pop\n        /* \"contracts/Oracle.sol\":4211:4230  vetoAddressHasVoted */\n      dup2\n        /* \"contracts/Oracle.sol\":4211:4241  vetoAddressHasVoted && !vetoed */\n      dup1\n      iszero\n      tag_127\n      jumpi\n      pop\n        /* \"contracts/Oracle.sol\":4235:4241  vetoed */\n      dup1\n        /* \"contracts/Oracle.sol\":4234:4241  !vetoed */\n      iszero\n        /* \"contracts/Oracle.sol\":4211:4241  vetoAddressHasVoted && !vetoed */\n    tag_127:\n        /* \"contracts/Oracle.sol\":4210:4258  (vetoAddressHasVoted && !vetoed) || vetoDisabled */\n      dup1\n      tag_128\n      jumpi\n      pop\n        /* \"contracts/Oracle.sol\":4246:4258  vetoDisabled */\n      dup7\n        /* \"contracts/Oracle.sol\":4210:4258  (vetoAddressHasVoted && !vetoed) || vetoDisabled */\n    tag_128:\n        /* \"contracts/Oracle.sol\":4206:4343  if ((vetoAddressHasVoted && !vetoed) || vetoDisabled) {\r... */\n      iszero\n      tag_129\n      jumpi\n        /* \"contracts/Oracle.sol\":4283:4323  _push(_eraId, _staking, _oracleCollator) */\n      tag_130\n        /* \"contracts/Oracle.sol\":4289:4295  _eraId */\n      dup13\n        /* \"contracts/Oracle.sol\":4297:4305  _staking */\n      dup12\n        /* \"contracts/Oracle.sol\":4283:4323  _push(_eraId, _staking, _oracleCollator) */\n      tag_131\n      swap1\n      tag_132\n      jump\t// in\n    tag_131:\n        /* \"contracts/Oracle.sol\":4307:4322  _oracleCollator */\n      dup12\n        /* \"contracts/Oracle.sol\":4283:4288  _push */\n      tag_133\n        /* \"contracts/Oracle.sol\":4283:4323  _push(_eraId, _staking, _oracleCollator) */\n      jump\t// in\n    tag_130:\n        /* \"contracts/Oracle.sol\":4206:4343  if ((vetoAddressHasVoted && !vetoed) || vetoDisabled) {\r... */\n    tag_129:\n        /* \"contracts/Oracle.sol\":4017:4358  {\r... */\n      pop\n      pop\n        /* \"contracts/Oracle.sol\":3961:4500  if (currentReportVariants[i].getCount() + 1 >= _quorum) {\r... */\n      jump(tag_134)\n    tag_122:\n        /* \"contracts/Oracle.sol\":4385:4406  currentReportVariants */\n      0x00\n        /* \"contracts/Oracle.sol\":4407:4408  i */\n      dup3\n        /* \"contracts/Oracle.sol\":4385:4409  currentReportVariants[i] */\n      dup2\n      sload\n      dup2\n      lt\n      tag_135\n      jumpi\n      tag_136\n      tag_74\n      jump\t// in\n    tag_136:\n    tag_135:\n      swap1\n      0x00\n      mstore\n      keccak256(0x00, 0x20)\n      add\n      0x00\n        /* \"contracts/Oracle.sol\":4383:4409  ++currentReportVariants[i] */\n      dup2\n      sload\n      tag_138\n      swap1\n      tag_81\n      jump\t// in\n    tag_138:\n      swap2\n      swap1\n      pop\n      dup2\n      swap1\n      sstore\n      pop\n        /* \"contracts/Oracle.sol\":3961:4500  if (currentReportVariants[i].getCount() + 1 >= _quorum) {\r... */\n    tag_134:\n        /* \"contracts/Oracle.sol\":3929:4764  if (i < _length) {\r... */\n      jump(tag_139)\n    tag_114:\n        /* \"contracts/Oracle.sol\":4547:4548  1 */\n      0x01\n        /* \"contracts/Oracle.sol\":4536:4543  _quorum */\n      dup12\n        /* \"contracts/Oracle.sol\":4536:4548  _quorum == 1 */\n      eq\n        /* \"contracts/Oracle.sol\":4532:4753  if (_quorum == 1) {\r... */\n      iszero\n      tag_140\n      jumpi\n        /* \"contracts/Oracle.sol\":4569:4609  _push(_eraId, _staking, _oracleCollator) */\n      tag_141\n        /* \"contracts/Oracle.sol\":4575:4581  _eraId */\n      dup11\n        /* \"contracts/Oracle.sol\":4583:4591  _staking */\n      dup10\n        /* \"contracts/Oracle.sol\":4569:4609  _push(_eraId, _staking, _oracleCollator) */\n      tag_142\n      swap1\n      tag_132\n      jump\t// in\n    tag_142:\n        /* \"contracts/Oracle.sol\":4593:4608  _oracleCollator */\n      dup10\n        /* \"contracts/Oracle.sol\":4569:4574  _push */\n      tag_133\n        /* \"contracts/Oracle.sol\":4569:4609  _push(_eraId, _staking, _oracleCollator) */\n      jump\t// in\n    tag_141:\n        /* \"contracts/Oracle.sol\":4532:4753  if (_quorum == 1) {\r... */\n      jump(tag_143)\n    tag_140:\n        /* \"contracts/Oracle.sol\":4650:4671  currentReportVariants */\n      0x00\n        /* \"contracts/Oracle.sol\":4687:4688  1 */\n      0x01\n        /* \"contracts/Oracle.sol\":4677:4684  variant */\n      dup5\n        /* \"contracts/Oracle.sol\":4677:4688  variant + 1 */\n      tag_144\n      swap2\n      swap1\n      tag_145\n      jump\t// in\n    tag_144:\n        /* \"contracts/Oracle.sol\":4650:4689  currentReportVariants.push(variant + 1) */\n      swap1\n      dup1\n      0x01\n      dup2\n      sload\n      add\n      dup1\n      dup3\n      sstore\n      dup1\n      swap2\n      pop\n      pop\n      0x01\n      swap1\n      sub\n      swap1\n      0x00\n      mstore\n      keccak256(0x00, 0x20)\n      add\n      0x00\n      swap1\n      swap2\n      swap1\n      swap2\n      swap1\n      swap2\n      pop\n      sstore\n        /* \"contracts/Oracle.sol\":4708:4722  currentReports */\n      0x01\n        /* \"contracts/Oracle.sol\":4728:4736  _staking */\n      dup9\n        /* \"contracts/Oracle.sol\":4708:4737  currentReports.push(_staking) */\n      swap1\n      dup1\n      0x01\n      dup2\n      sload\n      add\n      dup1\n      dup3\n      sstore\n      dup1\n      swap2\n      pop\n      pop\n      0x01\n      swap1\n      sub\n      swap1\n      0x00\n      mstore\n      keccak256(0x00, 0x20)\n      swap1\n      0x07\n      mul\n      add\n      0x00\n      swap1\n      swap2\n      swap1\n      swap2\n      swap1\n      swap2\n      pop\n      dup2\n      dup2\n      tag_148\n      swap2\n      swap1\n      tag_149\n      jump\t// in\n    tag_148:\n      pop\n      pop\n        /* \"contracts/Oracle.sol\":4532:4753  if (_quorum == 1) {\r... */\n    tag_143:\n        /* \"contracts/Oracle.sol\":3929:4764  if (i < _length) {\r... */\n    tag_139:\n        /* \"contracts/Oracle.sol\":4779:4831  ReportSubmitted(_eraId,  _eraNonce, _oracleCollator) */\n      0xbbf23e6bd8173d3423fb94a419f7193574bdca2f2b640364201f708b6a13cbe8\n        /* \"contracts/Oracle.sol\":4795:4801  _eraId */\n      dup11\n        /* \"contracts/Oracle.sol\":4804:4813  _eraNonce */\n      dup11\n        /* \"contracts/Oracle.sol\":4815:4830  _oracleCollator */\n      dup10\n        /* \"contracts/Oracle.sol\":4779:4831  ReportSubmitted(_eraId,  _eraNonce, _oracleCollator) */\n      mload(0x40)\n      tag_150\n      swap4\n      swap3\n      swap2\n      swap1\n      tag_151\n      jump\t// in\n    tag_150:\n      mload(0x40)\n      dup1\n      swap2\n      sub\n      swap1\n      log1\n        /* \"contracts/Oracle.sol\":2936:4839  {\r... */\n      pop\n      pop\n      pop\n        /* \"contracts/Oracle.sol\":2630:4839  function reportPara(\r... */\n      pop\n      pop\n      pop\n      pop\n      pop\n      pop\n      pop\n      pop\n      pop\n      jump\t// out\n        /* \"contracts/Oracle.sol\":6167:6390  function isReported(\r... */\n    tag_45:\n        /* \"contracts/Oracle.sol\":6259:6266  uint128 */\n      0x00\n        /* \"contracts/Oracle.sol\":6268:6272  bool */\n      dup1\n        /* \"contracts/Oracle.sol\":1435:1448  ORACLE_MASTER */\n      0x04\n      0x00\n      swap1\n      sload\n      swap1\n      0x0100\n      exp\n      swap1\n      div\n      0xffffffffffffffffffffffffffffffffffffffff\n      and\n        /* \"contracts/Oracle.sol\":1421:1448  msg.sender == ORACLE_MASTER */\n      0xffffffffffffffffffffffffffffffffffffffff\n      and\n        /* \"contracts/Oracle.sol\":1421:1431  msg.sender */\n      caller\n        /* \"contracts/Oracle.sol\":1421:1448  msg.sender == ORACLE_MASTER */\n      0xffffffffffffffffffffffffffffffffffffffff\n      and\n      eq\n        /* \"contracts/Oracle.sol\":1413:1449  require(msg.sender == ORACLE_MASTER) */\n      tag_153\n      jumpi\n      0x00\n      dup1\n      revert\n    tag_153:\n        /* \"contracts/Oracle.sol\":6285:6298  bool reported */\n      0x00\n        /* \"contracts/Oracle.sol\":6343:6344  0 */\n      dup1\n        /* \"contracts/Oracle.sol\":6331:6337  _index */\n      dup5\n        /* \"contracts/Oracle.sol\":6326:6327  1 */\n      0x01\n        /* \"contracts/Oracle.sol\":6326:6337  1 << _index */\n      swap1\n      shl\n        /* \"contracts/Oracle.sol\":6302:6322  currentReportBitmask */\n      sload(0x02)\n        /* \"contracts/Oracle.sol\":6302:6338  currentReportBitmask & (1 << _index) */\n      and\n        /* \"contracts/Oracle.sol\":6301:6344  (currentReportBitmask & (1 << _index)) != 0 */\n      eq\n      iszero\n        /* \"contracts/Oracle.sol\":6285:6344  bool reported = (currentReportBitmask & (1 << _index)) != 0 */\n      swap1\n      pop\n        /* \"contracts/Oracle.sol\":6363:6371  eraNonce */\n      0x05\n      0x00\n      swap1\n      sload\n      swap1\n      0x0100\n      exp\n      swap1\n      div\n      0xffffffffffffffffffffffffffffffff\n      and\n        /* \"contracts/Oracle.sol\":6373:6381  reported */\n      dup2\n        /* \"contracts/Oracle.sol\":6355:6382  return (eraNonce, reported) */\n      swap3\n      pop\n      swap3\n      pop\n      pop\n        /* \"contracts/Oracle.sol\":6167:6390  function isReported(\r... */\n      swap2\n      pop\n      swap2\n      jump\t// out\n        /* \"contracts/Oracle.sol\":1260:1312  mapping(uint128 => bytes32) public erasToBlockHashes */\n    tag_50:\n      mstore(0x20, 0x07)\n      dup1\n      0x00\n      mstore\n      keccak256(0x00, 0x40)\n      0x00\n      swap2\n      pop\n      swap1\n      pop\n      sload\n      dup2\n      jump\t// out\n        /* \"contracts/Oracle.sol\":6581:6690  function clearReporting() external onlyOracleMaster {\r... */\n    tag_53:\n        /* \"contracts/Oracle.sol\":1435:1448  ORACLE_MASTER */\n      0x04\n      0x00\n      swap1\n      sload\n      swap1\n      0x0100\n      exp\n      swap1\n      div\n      0xffffffffffffffffffffffffffffffffffffffff\n      and\n        /* \"contracts/Oracle.sol\":1421:1448  msg.sender == ORACLE_MASTER */\n      0xffffffffffffffffffffffffffffffffffffffff\n      and\n        /* \"contracts/Oracle.sol\":1421:1431  msg.sender */\n      caller\n        /* \"contracts/Oracle.sol\":1421:1448  msg.sender == ORACLE_MASTER */\n      0xffffffffffffffffffffffffffffffffffffffff\n      and\n      eq\n        /* \"contracts/Oracle.sol\":1413:1449  require(msg.sender == ORACLE_MASTER) */\n      tag_156\n      jumpi\n      0x00\n      dup1\n      revert\n    tag_156:\n        /* \"contracts/Oracle.sol\":6644:6661  _clearReporting() */\n      tag_158\n        /* \"contracts/Oracle.sol\":6644:6659  _clearReporting */\n      tag_95\n        /* \"contracts/Oracle.sol\":6644:6661  _clearReporting() */\n      jump\t// in\n    tag_158:\n        /* \"contracts/Oracle.sol\":6672:6680  eraNonce */\n      0x05\n      0x00\n        /* \"contracts/Oracle.sol\":6672:6682  eraNonce++ */\n      dup2\n      dup2\n      swap1\n      sload\n      swap1\n      0x0100\n      exp\n      swap1\n      div\n      0xffffffffffffffffffffffffffffffff\n      and\n      dup1\n      swap3\n      swap2\n      swap1\n      tag_159\n      swap1\n      tag_160\n      jump\t// in\n    tag_159:\n      swap2\n      swap1\n      0x0100\n      exp\n      dup2\n      sload\n      dup2\n      0xffffffffffffffffffffffffffffffff\n      mul\n      not\n      and\n      swap1\n      dup4\n      0xffffffffffffffffffffffffffffffff\n      and\n      mul\n      or\n      swap1\n      sstore\n      pop\n      pop\n        /* \"contracts/Oracle.sol\":6581:6690  function clearReporting() external onlyOracleMaster {\r... */\n      jump\t// out\n        /* \"contracts/Oracle.sol\":5181:5588  function softenQuorum(\r... */\n    tag_57:\n        /* \"contracts/Oracle.sol\":1435:1448  ORACLE_MASTER */\n      0x04\n      0x00\n      swap1\n      sload\n      swap1\n      0x0100\n      exp\n      swap1\n      div\n      0xffffffffffffffffffffffffffffffffffffffff\n      and\n        /* \"contracts/Oracle.sol\":1421:1448  msg.sender == ORACLE_MASTER */\n      0xffffffffffffffffffffffffffffffffffffffff\n      and\n        /* \"contracts/Oracle.sol\":1421:1431  msg.sender */\n      caller\n        /* \"contracts/Oracle.sol\":1421:1448  msg.sender == ORACLE_MASTER */\n      0xffffffffffffffffffffffffffffffffffffffff\n      and\n      eq\n        /* \"contracts/Oracle.sol\":1413:1449  require(msg.sender == ORACLE_MASTER) */\n      tag_162\n      jumpi\n      0x00\n      dup1\n      revert\n    tag_162:\n        /* \"contracts/Oracle.sol\":5297:5310  bool isQuorum */\n      0x00\n        /* \"contracts/Oracle.sol\":5312:5331  uint256 reportIndex */\n      dup1\n        /* \"contracts/Oracle.sol\":5335:5360  _getQuorumReport(_quorum) */\n      tag_164\n        /* \"contracts/Oracle.sol\":5352:5359  _quorum */\n      dup5\n        /* \"contracts/Oracle.sol\":5335:5360  _getQuorumReport(_quorum) */\n      0xff\n      and\n        /* \"contracts/Oracle.sol\":5335:5351  _getQuorumReport */\n      tag_165\n        /* \"contracts/Oracle.sol\":5335:5360  _getQuorumReport(_quorum) */\n      jump\t// in\n    tag_164:\n        /* \"contracts/Oracle.sol\":5296:5360  (bool isQuorum, uint256 reportIndex) = _getQuorumReport(_quorum) */\n      swap2\n      pop\n      swap2\n      pop\n        /* \"contracts/Oracle.sol\":5375:5383  isQuorum */\n      dup2\n        /* \"contracts/Oracle.sol\":5371:5581  if (isQuorum) {\r... */\n      iszero\n      tag_166\n      jumpi\n        /* \"contracts/Oracle.sol\":5400:5430  Types.OracleData memory report */\n      0x00\n        /* \"contracts/Oracle.sol\":5433:5461  _getStakeReport(reportIndex) */\n      tag_167\n        /* \"contracts/Oracle.sol\":5449:5460  reportIndex */\n      dup3\n        /* \"contracts/Oracle.sol\":5433:5448  _getStakeReport */\n      tag_168\n        /* \"contracts/Oracle.sol\":5433:5461  _getStakeReport(reportIndex) */\n      jump\t// in\n    tag_167:\n        /* \"contracts/Oracle.sol\":5400:5461  Types.OracleData memory report = _getStakeReport(reportIndex) */\n      mload(0x40)\n      dup1\n      0x0120\n      add\n      0x40\n      mstore\n      swap1\n      dup2\n      0x00\n      dup3\n      add\n      sload\n      dup2\n      mstore\n      0x20\n      add\n      0x01\n      dup3\n      add\n      0x00\n      swap1\n      sload\n      swap1\n      0x0100\n      exp\n      swap1\n      div\n      0xffffffffffffffffffffffffffffffff\n      and\n      0xffffffffffffffffffffffffffffffff\n      and\n      0xffffffffffffffffffffffffffffffff\n      and\n      dup2\n      mstore\n      0x20\n      add\n      0x01\n      dup3\n      add\n      0x10\n      swap1\n      sload\n      swap1\n      0x0100\n      exp\n      swap1\n      div\n      0xffffffffffffffffffffffffffffffff\n      and\n      0xffffffffffffffffffffffffffffffff\n      and\n      0xffffffffffffffffffffffffffffffff\n      and\n      dup2\n      mstore\n      0x20\n      add\n      0x02\n      dup3\n      add\n      0x00\n      swap1\n      sload\n      swap1\n      0x0100\n      exp\n      swap1\n      div\n      0xffffffffffffffffffffffffffffffff\n      and\n      0xffffffffffffffffffffffffffffffff\n      and\n      0xffffffffffffffffffffffffffffffff\n      and\n      dup2\n      mstore\n      0x20\n      add\n      0x03\n      dup3\n      add\n      sload\n      dup2\n      mstore\n      0x20\n      add\n      0x04\n      dup3\n      add\n      0x00\n      swap1\n      sload\n      swap1\n      0x0100\n      exp\n      swap1\n      div\n      0xffffffffffffffffffffffffffffffff\n      and\n      0xffffffffffffffffffffffffffffffff\n      and\n      0xffffffffffffffffffffffffffffffff\n      and\n      dup2\n      mstore\n      0x20\n      add\n      0x04\n      dup3\n      add\n      0x10\n      swap1\n      sload\n      swap1\n      0x0100\n      exp\n      swap1\n      div\n      0xffffffffffffffffffffffffffffffff\n      and\n      0xffffffffffffffffffffffffffffffff\n      and\n      0xffffffffffffffffffffffffffffffff\n      and\n      dup2\n      mstore\n      0x20\n      add\n      0x05\n      dup3\n      add\n      dup1\n      sload\n      dup1\n      0x20\n      mul\n      0x20\n      add\n      mload(0x40)\n      swap1\n      dup2\n      add\n      0x40\n      mstore\n      dup1\n      swap3\n      swap2\n      swap1\n      dup2\n      dup2\n      mstore\n      0x20\n      add\n      0x00\n      swap1\n    tag_169:\n      dup3\n      dup3\n      lt\n      iszero\n      tag_170\n      jumpi\n      dup4\n      dup3\n      swap1\n      0x00\n      mstore\n      keccak256(0x00, 0x20)\n      swap1\n      0x05\n      mul\n      add\n      mload(0x40)\n      dup1\n      0xc0\n      add\n      0x40\n      mstore\n      swap1\n      dup2\n      0x00\n      dup3\n      add\n      0x00\n      swap1\n      sload\n      swap1\n      0x0100\n      exp\n      swap1\n      div\n      0xffffffffffffffffffffffffffffffffffffffff\n      and\n      0xffffffffffffffffffffffffffffffffffffffff\n      and\n      0xffffffffffffffffffffffffffffffffffffffff\n      and\n      dup2\n      mstore\n      0x20\n      add\n      0x01\n      dup3\n      add\n      0x00\n      swap1\n      sload\n      swap1\n      0x0100\n      exp\n      swap1\n      div\n      0xffffffffffffffffffffffffffffffff\n      and\n      0xffffffffffffffffffffffffffffffff\n      and\n      0xffffffffffffffffffffffffffffffff\n      and\n      dup2\n      mstore\n      0x20\n      add\n      0x01\n      dup3\n      add\n      0x10\n      swap1\n      sload\n      swap1\n      0x0100\n      exp\n      swap1\n      div\n      0xff\n      and\n      iszero\n      iszero\n      iszero\n      iszero\n      dup2\n      mstore\n      0x20\n      add\n      0x02\n      dup3\n      add\n      sload\n      dup2\n      mstore\n      0x20\n      add\n      0x03\n      dup3\n      add\n      sload\n      dup2\n      mstore\n      0x20\n      add\n      0x04\n      dup3\n      add\n      dup1\n      sload\n      dup1\n      0x20\n      mul\n      0x20\n      add\n      mload(0x40)\n      swap1\n      dup2\n      add\n      0x40\n      mstore\n      dup1\n      swap3\n      swap2\n      swap1\n      dup2\n      dup2\n      mstore\n      0x20\n      add\n      0x00\n      swap1\n    tag_172:\n      dup3\n      dup3\n      lt\n      iszero\n      tag_173\n      jumpi\n      dup4\n      dup3\n      swap1\n      0x00\n      mstore\n      keccak256(0x00, 0x20)\n      swap1\n      0x02\n      mul\n      add\n      mload(0x40)\n      dup1\n      0x40\n      add\n      0x40\n      mstore\n      swap1\n      dup2\n      0x00\n      dup3\n      add\n      0x00\n      swap1\n      sload\n      swap1\n      0x0100\n      exp\n      swap1\n      div\n      0xffffffffffffffffffffffffffffffffffffffff\n      and\n      0xffffffffffffffffffffffffffffffffffffffff\n      and\n      0xffffffffffffffffffffffffffffffffffffffff\n      and\n      dup2\n      mstore\n      0x20\n      add\n      0x01\n      dup3\n      add\n      sload\n      dup2\n      mstore\n      pop\n      pop\n      dup2\n      mstore\n      0x20\n      add\n      swap1\n      0x01\n      add\n      swap1\n      jump(tag_172)\n    tag_173:\n      pop\n      pop\n      pop\n      pop\n      dup2\n      mstore\n      pop\n      pop\n      dup2\n      mstore\n      0x20\n      add\n      swap1\n      0x01\n      add\n      swap1\n      jump(tag_169)\n    tag_170:\n      pop\n      pop\n      pop\n      pop\n      dup2\n      mstore\n      0x20\n      add\n      0x06\n      dup3\n      add\n      0x00\n      swap1\n      sload\n      swap1\n      0x0100\n      exp\n      swap1\n      div\n      0xff\n      and\n      iszero\n      iszero\n      iszero\n      iszero\n      dup2\n      mstore\n      pop\n      pop\n      swap1\n      pop\n        /* \"contracts/Oracle.sol\":5476:5509  _push(_eraId, report, address(0)) */\n      tag_175\n        /* \"contracts/Oracle.sol\":5482:5488  _eraId */\n      dup5\n        /* \"contracts/Oracle.sol\":5490:5496  report */\n      dup3\n        /* \"contracts/Oracle.sol\":5506:5507  0 */\n      0x00\n        /* \"contracts/Oracle.sol\":5476:5481  _push */\n      tag_133\n        /* \"contracts/Oracle.sol\":5476:5509  _push(_eraId, report, address(0)) */\n      jump\t// in\n    tag_175:\n        /* \"contracts/Oracle.sol\":5385:5581  {\r... */\n      pop\n        /* \"contracts/Oracle.sol\":5371:5581  if (isQuorum) {\r... */\n    tag_166:\n        /* \"contracts/Oracle.sol\":5285:5588  {\r... */\n      pop\n      pop\n        /* \"contracts/Oracle.sol\":5181:5588  function softenQuorum(\r... */\n      pop\n      pop\n      jump\t// out\n        /* \"contracts/Oracle.sol\":898:921  uint128 public eraNonce */\n    tag_59:\n      0x05\n      0x00\n      swap1\n      sload\n      swap1\n      0x0100\n      exp\n      swap1\n      div\n      0xffffffffffffffffffffffffffffffff\n      and\n      dup2\n      jump\t// out\n        /* \"contracts/Oracle.sol\":7149:7410  function _clearReporting() internal {\r... */\n    tag_95:\n        /* \"contracts/Oracle.sol\":7203:7223  currentReportBitmask */\n      0x02\n        /* \"contracts/Oracle.sol\":7196:7223  delete currentReportBitmask */\n      0x00\n      swap1\n      sstore\n        /* \"contracts/Oracle.sol\":7253:7274  currentReportVariants */\n      0x00\n      dup1\n        /* \"contracts/Oracle.sol\":7246:7274  delete currentReportVariants */\n      tag_177\n      swap2\n      swap1\n      tag_178\n      jump\t// in\n    tag_177:\n        /* \"contracts/Oracle.sol\":7292:7306  currentReports */\n      0x01\n      0x00\n        /* \"contracts/Oracle.sol\":7285:7306  delete currentReports */\n      tag_179\n      swap2\n      swap1\n      tag_180\n      jump\t// in\n    tag_179:\n        /* \"contracts/Oracle.sol\":7324:7348  currentVetoReportVariant */\n      0x06\n        /* \"contracts/Oracle.sol\":7317:7348  delete currentVetoReportVariant */\n      0x00\n      swap1\n      sstore\n        /* \"contracts/Oracle.sol\":7384:7402  ReportingCleared() */\n      0x131fc6443e37553a3c958042fd059569756675c2d859c083e17ec4928c3c70fb\n      mload(0x40)\n      mload(0x40)\n      dup1\n      swap2\n      sub\n      swap1\n      log1\n        /* \"contracts/Oracle.sol\":7149:7410  function _clearReporting() internal {\r... */\n      jump\t// out\n        /* \"contracts/utils/ReportUtils.sol\":386:547  function isDifferent(\r... */\n    tag_112:\n        /* \"contracts/utils/ReportUtils.sol\":484:488  bool */\n      0x00\n        /* \"contracts/utils/ReportUtils.sol\":535:539  that */\n      dup2\n        /* \"contracts/utils/ReportUtils.sol\":211:277  0xFFFFFFFFFFFFFFFFFFFFFFFFFFFFFFFFFFFFFFFFFFFFFFFFFFFFFFFFFFFFFF00 */\n      0xffffffffffffffffffffffffffffffffffffffffffffffffffffffffffffff00\n        /* \"contracts/utils/ReportUtils.sol\":509:514  value */\n      dup5\n        /* \"contracts/utils/ReportUtils.sol\":509:530  value & COUNT_OUTMASK */\n      and\n        /* \"contracts/utils/ReportUtils.sol\":508:539  (value & COUNT_OUTMASK) != that */\n      eq\n      iszero\n        /* \"contracts/utils/ReportUtils.sol\":501:539  return (value & COUNT_OUTMASK) != that */\n      swap1\n      pop\n        /* \"contracts/utils/ReportUtils.sol\":386:547  function isDifferent(\r... */\n      swap3\n      swap2\n      pop\n      pop\n      jump\t// out\n        /* \"contracts/utils/ReportUtils.sol\":630:731  function getCount(uint256 value) internal pure returns (uint8) {\r... */\n    tag_119:\n        /* \"contracts/utils/ReportUtils.sol\":686:691  uint8 */\n      0x00\n        /* \"contracts/utils/ReportUtils.sol\":717:722  value */\n      dup2\n        /* \"contracts/utils/ReportUtils.sol\":704:723  return uint8(value) */\n      swap1\n      pop\n        /* \"contracts/utils/ReportUtils.sol\":630:731  function getCount(uint256 value) internal pure returns (uint8) {\r... */\n      swap2\n      swap1\n      pop\n      jump\t// out\n        /* \"contracts/Oracle.sol\":7488:8016  function _push(\r... */\n    tag_133:\n        /* \"contracts/Oracle.sol\":7658:7664  report */\n      dup2\n        /* \"contracts/Oracle.sol\":7658:7674  report.blockHash */\n      0x80\n      add\n      mload\n        /* \"contracts/Oracle.sol\":7630:7647  erasToBlockHashes */\n      0x07\n        /* \"contracts/Oracle.sol\":7630:7655  erasToBlockHashes[_eraId] */\n      0x00\n        /* \"contracts/Oracle.sol\":7648:7654  _eraId */\n      dup6\n        /* \"contracts/Oracle.sol\":7630:7655  erasToBlockHashes[_eraId] */\n      0xffffffffffffffffffffffffffffffff\n      and\n      0xffffffffffffffffffffffffffffffff\n      and\n      dup2\n      mstore\n      0x20\n      add\n      swap1\n      dup2\n      mstore\n      0x20\n      add\n      0x00\n      keccak256\n        /* \"contracts/Oracle.sol\":7630:7674  erasToBlockHashes[_eraId] = report.blockHash */\n      dup2\n      swap1\n      sstore\n      pop\n        /* \"contracts/Oracle.sol\":7690:7699  uint256 i */\n      0x00\n        /* \"contracts/Oracle.sol\":7685:7913  for (uint256 i = 0; i < PUSHABLES.length; i++) {\r... */\n    tag_184:\n        /* \"contracts/Oracle.sol\":7709:7718  PUSHABLES */\n      0x03\n        /* \"contracts/Oracle.sol\":7709:7725  PUSHABLES.length */\n      dup1\n      sload\n      swap1\n      pop\n        /* \"contracts/Oracle.sol\":7705:7706  i */\n      dup2\n        /* \"contracts/Oracle.sol\":7705:7725  i < PUSHABLES.length */\n      lt\n        /* \"contracts/Oracle.sol\":7685:7913  for (uint256 i = 0; i < PUSHABLES.length; i++) {\r... */\n      iszero\n      tag_185\n      jumpi\n        /* \"contracts/Oracle.sol\":7775:7776  0 */\n      0x00\n        /* \"contracts/Oracle.sol\":7751:7777  PUSHABLES[i] == address(0) */\n      0xffffffffffffffffffffffffffffffffffffffff\n      and\n        /* \"contracts/Oracle.sol\":7751:7760  PUSHABLES */\n      0x03\n        /* \"contracts/Oracle.sol\":7761:7762  i */\n      dup3\n        /* \"contracts/Oracle.sol\":7751:7763  PUSHABLES[i] */\n      dup2\n      sload\n      dup2\n      lt\n      tag_187\n      jumpi\n      tag_188\n      tag_74\n      jump\t// in\n    tag_188:\n    tag_187:\n      swap1\n      0x00\n      mstore\n      keccak256(0x00, 0x20)\n      add\n      0x00\n      swap1\n      sload\n      swap1\n      0x0100\n      exp\n      swap1\n      div\n      0xffffffffffffffffffffffffffffffffffffffff\n      and\n        /* \"contracts/Oracle.sol\":7751:7777  PUSHABLES[i] == address(0) */\n      0xffffffffffffffffffffffffffffffffffffffff\n      and\n      eq\n        /* \"contracts/Oracle.sol\":7747:7822  if (PUSHABLES[i] == address(0)) {\r... */\n      iszero\n      tag_190\n      jumpi\n        /* \"contracts/Oracle.sol\":7798:7806  continue */\n      jump(tag_186)\n        /* \"contracts/Oracle.sol\":7747:7822  if (PUSHABLES[i] == address(0)) {\r... */\n    tag_190:\n        /* \"contracts/Oracle.sol\":7846:7855  PUSHABLES */\n      0x03\n        /* \"contracts/Oracle.sol\":7856:7857  i */\n      dup2\n        /* \"contracts/Oracle.sol\":7846:7858  PUSHABLES[i] */\n      dup2\n      sload\n      dup2\n      lt\n      tag_191\n      jumpi\n      tag_192\n      tag_74\n      jump\t// in\n    tag_192:\n    tag_191:\n      swap1\n      0x00\n      mstore\n      keccak256(0x00, 0x20)\n      add\n      0x00\n      swap1\n      sload\n      swap1\n      0x0100\n      exp\n      swap1\n      div\n      0xffffffffffffffffffffffffffffffffffffffff\n      and\n        /* \"contracts/Oracle.sol\":7836:7868  IPushable(PUSHABLES[i]).pushData */\n      0xffffffffffffffffffffffffffffffffffffffff\n      and\n      0xad5eb1ab\n        /* \"contracts/Oracle.sol\":7869:7875  _eraId */\n      dup6\n        /* \"contracts/Oracle.sol\":7877:7883  report */\n      dup6\n        /* \"contracts/Oracle.sol\":7885:7900  _oracleCollator */\n      dup6\n        /* \"contracts/Oracle.sol\":7836:7901  IPushable(PUSHABLES[i]).pushData(_eraId, report, _oracleCollator) */\n      mload(0x40)\n      dup5\n      0xffffffff\n      and\n      0xe0\n      shl\n      dup2\n      mstore\n      0x04\n      add\n      tag_194\n      swap4\n      swap3\n      swap2\n      swap1\n      tag_195\n      jump\t// in\n    tag_194:\n      0x00\n      mload(0x40)\n      dup1\n      dup4\n      sub\n      dup2\n      0x00\n      dup8\n      dup1\n      extcodesize\n      iszero\n      dup1\n      iszero\n      tag_196\n      jumpi\n      0x00\n      dup1\n      revert\n    tag_196:\n      pop\n      gas\n      call\n      iszero\n      dup1\n      iszero\n      tag_198\n      jumpi\n      returndatasize\n      0x00\n      dup1\n      returndatacopy\n      revert(0x00, returndatasize)\n    tag_198:\n      pop\n      pop\n      pop\n      pop\n        /* \"contracts/Oracle.sol\":7685:7913  for (uint256 i = 0; i < PUSHABLES.length; i++) {\r... */\n    tag_186:\n        /* \"contracts/Oracle.sol\":7727:7730  i++ */\n      dup1\n      dup1\n      tag_199\n      swap1\n      tag_81\n      jump\t// in\n    tag_199:\n      swap2\n      pop\n      pop\n        /* \"contracts/Oracle.sol\":7685:7913  for (uint256 i = 0; i < PUSHABLES.length; i++) {\r... */\n      jump(tag_184)\n    tag_185:\n      pop\n        /* \"contracts/Oracle.sol\":7923:7940  _clearReporting() */\n      tag_200\n        /* \"contracts/Oracle.sol\":7923:7938  _clearReporting */\n      tag_95\n        /* \"contracts/Oracle.sol\":7923:7940  _clearReporting() */\n      jump\t// in\n    tag_200:\n        /* \"contracts/Oracle.sol\":7955:7961  report */\n      dup2\n        /* \"contracts/Oracle.sol\":7955:7970  report.finalize */\n      0x0100\n      add\n      mload\n        /* \"contracts/Oracle.sol\":7951:8009  if (report.finalize) {\r... */\n      iszero\n      tag_201\n      jumpi\n        /* \"contracts/Oracle.sol\":7987:7995  eraNonce */\n      0x05\n      0x00\n        /* \"contracts/Oracle.sol\":7987:7997  eraNonce++ */\n      dup2\n      dup2\n      swap1\n      sload\n      swap1\n      0x0100\n      exp\n      swap1\n      div\n      0xffffffffffffffffffffffffffffffff\n      and\n      dup1\n      swap3\n      swap2\n      swap1\n      tag_202\n      swap1\n      tag_160\n      jump\t// in\n    tag_202:\n      swap2\n      swap1\n      0x0100\n      exp\n      dup2\n      sload\n      dup2\n      0xffffffffffffffffffffffffffffffff\n      mul\n      not\n      and\n      swap1\n      dup4\n      0xffffffffffffffffffffffffffffffff\n      and\n      mul\n      or\n      swap1\n      sstore\n      pop\n      pop\n        /* \"contracts/Oracle.sol\":7951:8009  if (report.finalize) {\r... */\n    tag_201:\n        /* \"contracts/Oracle.sol\":7488:8016  function _push(\r... */\n      pop\n      pop\n      pop\n      jump\t// out\n        /* \"contracts/Oracle.sol\":8172:9248  function _getQuorumReport(\r... */\n    tag_165:\n        /* \"contracts/Oracle.sol\":8254:8258  bool */\n      0x00\n        /* \"contracts/Oracle.sol\":8260:8267  uint256 */\n      dup1\n        /* \"contracts/Oracle.sol\":8368:8383  uint256 _length */\n      0x00\n        /* \"contracts/Oracle.sol\":8386:8407  currentReportVariants */\n      dup1\n        /* \"contracts/Oracle.sol\":8386:8414  currentReportVariants.length */\n      dup1\n      sload\n      swap1\n      pop\n        /* \"contracts/Oracle.sol\":8368:8414  uint256 _length = currentReportVariants.length */\n      swap1\n      pop\n        /* \"contracts/Oracle.sol\":8440:8441  1 */\n      0x01\n        /* \"contracts/Oracle.sol\":8429:8436  _length */\n      dup2\n        /* \"contracts/Oracle.sol\":8429:8441  _length == 1 */\n      eq\n        /* \"contracts/Oracle.sol\":8425:8612  if (_length == 1) {\r... */\n      iszero\n      tag_204\n      jumpi\n        /* \"contracts/Oracle.sol\":8505:8512  _quorum */\n      dup4\n        /* \"contracts/Oracle.sol\":8466:8501  currentReportVariants[0].getCount() */\n      tag_205\n        /* \"contracts/Oracle.sol\":8466:8487  currentReportVariants */\n      0x00\n        /* \"contracts/Oracle.sol\":8488:8489  0 */\n      dup1\n        /* \"contracts/Oracle.sol\":8466:8490  currentReportVariants[0] */\n      dup2\n      sload\n      dup2\n      lt\n      tag_206\n      jumpi\n      tag_207\n      tag_74\n      jump\t// in\n    tag_207:\n    tag_206:\n      swap1\n      0x00\n      mstore\n      keccak256(0x00, 0x20)\n      add\n      sload\n        /* \"contracts/Oracle.sol\":8466:8499  currentReportVariants[0].getCount */\n      tag_119\n        /* \"contracts/Oracle.sol\":8466:8501  currentReportVariants[0].getCount() */\n      jump\t// in\n    tag_205:\n        /* \"contracts/Oracle.sol\":8466:8512  currentReportVariants[0].getCount() >= _quorum */\n      0xff\n      and\n      lt\n      iszero\n        /* \"contracts/Oracle.sol\":8514:8515  0 */\n      0x00\n        /* \"contracts/Oracle.sol\":8458:8516  return (currentReportVariants[0].getCount() >= _quorum, 0) */\n      swap3\n      pop\n      swap3\n      pop\n      pop\n      jump(tag_203)\n        /* \"contracts/Oracle.sol\":8425:8612  if (_length == 1) {\r... */\n    tag_204:\n        /* \"contracts/Oracle.sol\":8549:8550  0 */\n      0x00\n        /* \"contracts/Oracle.sol\":8538:8545  _length */\n      dup2\n        /* \"contracts/Oracle.sol\":8538:8550  _length == 0 */\n      eq\n        /* \"contracts/Oracle.sol\":8534:8612  if (_length == 0) {\r... */\n      iszero\n      tag_210\n      jumpi\n        /* \"contracts/Oracle.sol\":8575:8580  false */\n      0x00\n        /* \"contracts/Oracle.sol\":8582:8599  type(uint256).max */\n      0xffffffffffffffffffffffffffffffffffffffffffffffffffffffffffffffff\n        /* \"contracts/Oracle.sol\":8567:8600  return (false, type(uint256).max) */\n      swap3\n      pop\n      swap3\n      pop\n      pop\n      jump(tag_203)\n        /* \"contracts/Oracle.sol\":8534:8612  if (_length == 0) {\r... */\n    tag_210:\n        /* \"contracts/Oracle.sol\":8700:8714  uint256 maxind */\n      0x00\n        /* \"contracts/Oracle.sol\":8729:8743  uint256 repeat */\n      dup1\n        /* \"contracts/Oracle.sol\":8758:8771  uint16 maxval */\n      0x00\n        /* \"contracts/Oracle.sol\":8786:8796  uint16 cur */\n      dup1\n        /* \"contracts/Oracle.sol\":8816:8825  uint256 i */\n      0x00\n        /* \"contracts/Oracle.sol\":8811:9181  for (uint256 i = 0; i < _length; ++i) {\r... */\n    tag_211:\n        /* \"contracts/Oracle.sol\":8835:8842  _length */\n      dup6\n        /* \"contracts/Oracle.sol\":8831:8832  i */\n      dup2\n        /* \"contracts/Oracle.sol\":8831:8842  i < _length */\n      lt\n        /* \"contracts/Oracle.sol\":8811:9181  for (uint256 i = 0; i < _length; ++i) {\r... */\n      iszero\n      tag_212\n      jumpi\n        /* \"contracts/Oracle.sol\":8870:8905  currentReportVariants[i].getCount() */\n      tag_214\n        /* \"contracts/Oracle.sol\":8870:8891  currentReportVariants */\n      0x00\n        /* \"contracts/Oracle.sol\":8892:8893  i */\n      dup3\n        /* \"contracts/Oracle.sol\":8870:8894  currentReportVariants[i] */\n      dup2\n      sload\n      dup2\n      lt\n      tag_215\n      jumpi\n      tag_216\n      tag_74\n      jump\t// in\n    tag_216:\n    tag_215:\n      swap1\n      0x00\n      mstore\n      keccak256(0x00, 0x20)\n      add\n      sload\n        /* \"contracts/Oracle.sol\":8870:8903  currentReportVariants[i].getCount */\n      tag_119\n        /* \"contracts/Oracle.sol\":8870:8905  currentReportVariants[i].getCount() */\n      jump\t// in\n    tag_214:\n        /* \"contracts/Oracle.sol\":8864:8905  cur = currentReportVariants[i].getCount() */\n      0xff\n      and\n      swap2\n      pop\n        /* \"contracts/Oracle.sol\":8931:8937  maxval */\n      dup3\n        /* \"contracts/Oracle.sol\":8924:8937  cur >= maxval */\n      0xffff\n      and\n        /* \"contracts/Oracle.sol\":8924:8927  cur */\n      dup3\n        /* \"contracts/Oracle.sol\":8924:8937  cur >= maxval */\n      0xffff\n      and\n      lt\n        /* \"contracts/Oracle.sol\":8920:9170  if (cur >= maxval) {\r... */\n      tag_218\n      jumpi\n        /* \"contracts/Oracle.sol\":8969:8975  maxval */\n      dup3\n        /* \"contracts/Oracle.sol\":8962:8975  cur == maxval */\n      0xffff\n      and\n        /* \"contracts/Oracle.sol\":8962:8965  cur */\n      dup3\n        /* \"contracts/Oracle.sol\":8962:8975  cur == maxval */\n      0xffff\n      and\n      eq\n        /* \"contracts/Oracle.sol\":8958:9155  if (cur == maxval) {\r... */\n      iszero\n      tag_219\n      jumpi\n        /* \"contracts/Oracle.sol\":9000:9008  ++repeat */\n      dup4\n      tag_220\n      swap1\n      tag_81\n      jump\t// in\n    tag_220:\n      swap4\n      pop\n        /* \"contracts/Oracle.sol\":8958:9155  if (cur == maxval) {\r... */\n      jump(tag_221)\n    tag_219:\n        /* \"contracts/Oracle.sol\":9066:9067  i */\n      dup1\n        /* \"contracts/Oracle.sol\":9057:9067  maxind = i */\n      swap5\n      pop\n        /* \"contracts/Oracle.sol\":9099:9102  cur */\n      dup2\n        /* \"contracts/Oracle.sol\":9090:9102  maxval = cur */\n      swap3\n      pop\n        /* \"contracts/Oracle.sol\":9134:9135  0 */\n      0x00\n        /* \"contracts/Oracle.sol\":9125:9135  repeat = 0 */\n      swap4\n      pop\n        /* \"contracts/Oracle.sol\":8958:9155  if (cur == maxval) {\r... */\n    tag_221:\n        /* \"contracts/Oracle.sol\":8920:9170  if (cur >= maxval) {\r... */\n    tag_218:\n        /* \"contracts/Oracle.sol\":8844:8847  ++i */\n      dup1\n      tag_222\n      swap1\n      tag_81\n      jump\t// in\n    tag_222:\n      swap1\n      pop\n        /* \"contracts/Oracle.sol\":8811:9181  for (uint256 i = 0; i < _length; ++i) {\r... */\n      jump(tag_211)\n    tag_212:\n      pop\n        /* \"contracts/Oracle.sol\":9209:9216  _quorum */\n      dup8\n        /* \"contracts/Oracle.sol\":9199:9205  maxval */\n      dup3\n        /* \"contracts/Oracle.sol\":9199:9216  maxval >= _quorum */\n      0xffff\n      and\n      lt\n      iszero\n        /* \"contracts/Oracle.sol\":9199:9231  maxval >= _quorum && repeat == 0 */\n      dup1\n      iszero\n      tag_223\n      jumpi\n      pop\n        /* \"contracts/Oracle.sol\":9230:9231  0 */\n      0x00\n        /* \"contracts/Oracle.sol\":9220:9226  repeat */\n      dup4\n        /* \"contracts/Oracle.sol\":9220:9231  repeat == 0 */\n      eq\n        /* \"contracts/Oracle.sol\":9199:9231  maxval >= _quorum && repeat == 0 */\n    tag_223:\n        /* \"contracts/Oracle.sol\":9233:9239  maxind */\n      dup5\n        /* \"contracts/Oracle.sol\":9191:9240  return (maxval >= _quorum && repeat == 0, maxind) */\n      swap7\n      pop\n      swap7\n      pop\n      pop\n      pop\n      pop\n      pop\n      pop\n        /* \"contracts/Oracle.sol\":8172:9248  function _getQuorumReport(\r... */\n    tag_203:\n      swap2\n      pop\n      swap2\n      jump\t// out\n        /* \"contracts/Oracle.sol\":6840:7072  function _getStakeReport(\r... */\n    tag_168:\n        /* \"contracts/Oracle.sol\":6920:6952  Types.OracleData storage staking */\n      0x00\n        /* \"contracts/Oracle.sol\":6982:6996  currentReports */\n      0x01\n        /* \"contracts/Oracle.sol\":6982:7003  currentReports.length */\n      dup1\n      sload\n      swap1\n      pop\n        /* \"contracts/Oracle.sol\":6973:6979  _index */\n      dup3\n        /* \"contracts/Oracle.sol\":6973:7003  _index < currentReports.length */\n      lt\n        /* \"contracts/Oracle.sol\":6965:7024  require(_index < currentReports.length, \"OR: OUT_OF_INDEX\") */\n      tag_225\n      jumpi\n      mload(0x40)\n      0x08c379a000000000000000000000000000000000000000000000000000000000\n      dup2\n      mstore\n      0x04\n      add\n      tag_226\n      swap1\n      tag_227\n      jump\t// in\n    tag_226:\n      mload(0x40)\n      dup1\n      swap2\n      sub\n      swap1\n      revert\n    tag_225:\n        /* \"contracts/Oracle.sol\":7042:7056  currentReports */\n      0x01\n        /* \"contracts/Oracle.sol\":7057:7063  _index */\n      dup3\n        /* \"contracts/Oracle.sol\":7042:7064  currentReports[_index] */\n      dup2\n      sload\n      dup2\n      lt\n      tag_228\n      jumpi\n      tag_229\n      tag_74\n      jump\t// in\n    tag_229:\n    tag_228:\n      swap1\n      0x00\n      mstore\n      keccak256(0x00, 0x20)\n      swap1\n      0x07\n      mul\n      add\n        /* \"contracts/Oracle.sol\":7035:7064  return currentReports[_index] */\n      swap1\n      pop\n        /* \"contracts/Oracle.sol\":6840:7072  function _getStakeReport(\r... */\n      swap2\n      swap1\n      pop\n      jump\t// out\n    tag_178:\n      pop\n      dup1\n      sload\n      0x00\n      dup3\n      sstore\n      swap1\n      0x00\n      mstore\n      keccak256(0x00, 0x20)\n      swap1\n      dup2\n      add\n      swap1\n      tag_232\n      swap2\n      swap1\n      tag_233\n      jump\t// in\n    tag_232:\n      pop\n      jump\t// out\n    tag_180:\n      pop\n      dup1\n      sload\n      0x00\n      dup3\n      sstore\n      0x07\n      mul\n      swap1\n      0x00\n      mstore\n      keccak256(0x00, 0x20)\n      swap1\n      dup2\n      add\n      swap1\n      tag_235\n      swap2\n      swap1\n      tag_236\n      jump\t// in\n    tag_235:\n      pop\n      jump\t// out\n    tag_233:\n    tag_237:\n      dup1\n      dup3\n      gt\n      iszero\n      tag_238\n      jumpi\n      0x00\n      dup2\n      0x00\n      swap1\n      sstore\n      pop\n      0x01\n      add\n      jump(tag_237)\n    tag_238:\n      pop\n      swap1\n      jump\t// out\n    tag_236:\n    tag_239:\n      dup1\n      dup3\n      gt\n      iszero\n      tag_240\n      jumpi\n      0x00\n      dup1\n      dup3\n      add\n      0x00\n      swap1\n      sstore\n      0x01\n      dup3\n      add\n      exp(0x0100, 0x00)\n      dup2\n      sload\n      swap1\n      0xffffffffffffffffffffffffffffffff\n      mul\n      not\n      and\n      swap1\n      sstore\n      0x01\n      dup3\n      add\n      exp(0x0100, 0x10)\n      dup2\n      sload\n      swap1\n      0xffffffffffffffffffffffffffffffff\n      mul\n      not\n      and\n      swap1\n      sstore\n      0x02\n      dup3\n      add\n      exp(0x0100, 0x00)\n      dup2\n      sload\n      swap1\n      0xffffffffffffffffffffffffffffffff\n      mul\n      not\n      and\n      swap1\n      sstore\n      0x03\n      dup3\n      add\n      0x00\n      swap1\n      sstore\n      0x04\n      dup3\n      add\n      exp(0x0100, 0x00)\n      dup2\n      sload\n      swap1\n      0xffffffffffffffffffffffffffffffff\n      mul\n      not\n      and\n      swap1\n      sstore\n      0x04\n      dup3\n      add\n      exp(0x0100, 0x10)\n      dup2\n      sload\n      swap1\n      0xffffffffffffffffffffffffffffffff\n      mul\n      not\n      and\n      swap1\n      sstore\n      0x05\n      dup3\n      add\n      0x00\n      tag_241\n      swap2\n      swap1\n      tag_242\n      jump\t// in\n    tag_241:\n      0x06\n      dup3\n      add\n      exp(0x0100, 0x00)\n      dup2\n      sload\n      swap1\n      0xff\n      mul\n      not\n      and\n      swap1\n      sstore\n      pop\n      0x07\n      add\n      jump(tag_239)\n    tag_240:\n      pop\n      swap1\n      jump\t// out\n    tag_242:\n      pop\n      dup1\n      sload\n      0x00\n      dup3\n      sstore\n      0x05\n      mul\n      swap1\n      0x00\n      mstore\n      keccak256(0x00, 0x20)\n      swap1\n      dup2\n      add\n      swap1\n      tag_244\n      swap2\n      swap1\n      tag_245\n      jump\t// in\n    tag_244:\n      pop\n      jump\t// out\n    tag_245:\n    tag_246:\n      dup1\n      dup3\n      gt\n      iszero\n      tag_247\n      jumpi\n      0x00\n      dup1\n      dup3\n      add\n      exp(0x0100, 0x00)\n      dup2\n      sload\n      swap1\n      0xffffffffffffffffffffffffffffffffffffffff\n      mul\n      not\n      and\n      swap1\n      sstore\n      0x01\n      dup3\n      add\n      exp(0x0100, 0x00)\n      dup2\n      sload\n      swap1\n      0xffffffffffffffffffffffffffffffff\n      mul\n      not\n      and\n      swap1\n      sstore\n      0x01\n      dup3\n      add\n      exp(0x0100, 0x10)\n      dup2\n      sload\n      swap1\n      0xff\n      mul\n      not\n      and\n      swap1\n      sstore\n      0x02\n      dup3\n      add\n      0x00\n      swap1\n      sstore\n      0x03\n      dup3\n      add\n      0x00\n      swap1\n      sstore\n      0x04\n      dup3\n      add\n      0x00\n      tag_248\n      swap2\n      swap1\n      tag_249\n      jump\t// in\n    tag_248:\n      pop\n      0x05\n      add\n      jump(tag_246)\n    tag_247:\n      pop\n      swap1\n      jump\t// out\n    tag_249:\n      pop\n      dup1\n      sload\n      0x00\n      dup3\n      sstore\n      0x02\n      mul\n      swap1\n      0x00\n      mstore\n      keccak256(0x00, 0x20)\n      swap1\n      dup2\n      add\n      swap1\n      tag_251\n      swap2\n      swap1\n      tag_252\n      jump\t// in\n    tag_251:\n      pop\n      jump\t// out\n    tag_252:\n    tag_253:\n      dup1\n      dup3\n      gt\n      iszero\n      tag_254\n      jumpi\n      0x00\n      dup1\n      dup3\n      add\n      exp(0x0100, 0x00)\n      dup2\n      sload\n      swap1\n      0xffffffffffffffffffffffffffffffffffffffff\n      mul\n      not\n      and\n      swap1\n      sstore\n      0x01\n      dup3\n      add\n      0x00\n      swap1\n      sstore\n      pop\n      0x02\n      add\n      jump(tag_253)\n    tag_254:\n      pop\n      swap1\n      jump\t// out\n        /* \"#utility.yul\":42:1059   */\n    tag_256:\n        /* \"#utility.yul\":168:173   */\n      0x00\n        /* \"#utility.yul\":193:304   */\n      tag_258\n        /* \"#utility.yul\":209:303   */\n      tag_259\n        /* \"#utility.yul\":296:302   */\n      dup5\n        /* \"#utility.yul\":209:303   */\n      tag_260\n      jump\t// in\n    tag_259:\n        /* \"#utility.yul\":193:304   */\n      tag_261\n      jump\t// in\n    tag_258:\n        /* \"#utility.yul\":184:304   */\n      swap1\n      pop\n        /* \"#utility.yul\":324:329   */\n      dup1\n        /* \"#utility.yul\":353:359   */\n      dup4\n        /* \"#utility.yul\":346:351   */\n      dup3\n        /* \"#utility.yul\":339:360   */\n      mstore\n        /* \"#utility.yul\":387:391   */\n      0x20\n        /* \"#utility.yul\":380:385   */\n      dup3\n        /* \"#utility.yul\":376:392   */\n      add\n        /* \"#utility.yul\":369:392   */\n      swap1\n      pop\n        /* \"#utility.yul\":413:419   */\n      dup3\n        /* \"#utility.yul\":463:466   */\n      dup6\n        /* \"#utility.yul\":455:459   */\n      0x20\n        /* \"#utility.yul\":447:453   */\n      dup7\n        /* \"#utility.yul\":443:460   */\n      mul\n        /* \"#utility.yul\":438:441   */\n      dup3\n        /* \"#utility.yul\":434:461   */\n      add\n        /* \"#utility.yul\":431:467   */\n      gt\n        /* \"#utility.yul\":428:571   */\n      iszero\n      tag_262\n      jumpi\n        /* \"#utility.yul\":482:561   */\n      tag_263\n      tag_264\n      jump\t// in\n    tag_263:\n        /* \"#utility.yul\":428:571   */\n    tag_262:\n        /* \"#utility.yul\":595:596   */\n      0x00\n        /* \"#utility.yul\":580:1053   */\n    tag_265:\n        /* \"#utility.yul\":605:611   */\n      dup6\n        /* \"#utility.yul\":602:603   */\n      dup2\n        /* \"#utility.yul\":599:612   */\n      lt\n        /* \"#utility.yul\":580:1053   */\n      iszero\n      tag_267\n      jumpi\n        /* \"#utility.yul\":687:690   */\n      dup2\n        /* \"#utility.yul\":674:691   */\n      calldataload\n        /* \"#utility.yul\":723:741   */\n      0xffffffffffffffff\n        /* \"#utility.yul\":710:721   */\n      dup2\n        /* \"#utility.yul\":707:742   */\n      gt\n        /* \"#utility.yul\":704:826   */\n      iszero\n      tag_268\n      jumpi\n        /* \"#utility.yul\":745:824   */\n      tag_269\n      tag_270\n      jump\t// in\n    tag_269:\n        /* \"#utility.yul\":704:826   */\n    tag_268:\n        /* \"#utility.yul\":869:880   */\n      dup1\n        /* \"#utility.yul\":861:867   */\n      dup7\n        /* \"#utility.yul\":857:881   */\n      add\n        /* \"#utility.yul\":907:974   */\n      tag_271\n        /* \"#utility.yul\":970:973   */\n      dup10\n        /* \"#utility.yul\":958:968   */\n      dup3\n        /* \"#utility.yul\":907:974   */\n      tag_272\n      jump\t// in\n    tag_271:\n        /* \"#utility.yul\":902:905   */\n      dup6\n        /* \"#utility.yul\":895:975   */\n      mstore\n        /* \"#utility.yul\":1004:1008   */\n      0x20\n        /* \"#utility.yul\":999:1002   */\n      dup6\n        /* \"#utility.yul\":995:1009   */\n      add\n        /* \"#utility.yul\":988:1009   */\n      swap5\n      pop\n        /* \"#utility.yul\":1038:1042   */\n      0x20\n        /* \"#utility.yul\":1033:1036   */\n      dup5\n        /* \"#utility.yul\":1029:1043   */\n      add\n        /* \"#utility.yul\":1022:1043   */\n      swap4\n      pop\n        /* \"#utility.yul\":640:1053   */\n      pop\n      pop\n        /* \"#utility.yul\":627:628   */\n      0x01\n        /* \"#utility.yul\":624:625   */\n      dup2\n        /* \"#utility.yul\":620:629   */\n      add\n        /* \"#utility.yul\":615:629   */\n      swap1\n      pop\n        /* \"#utility.yul\":580:1053   */\n      jump(tag_265)\n    tag_267:\n        /* \"#utility.yul\":584:598   */\n      pop\n        /* \"#utility.yul\":174:1059   */\n      pop\n      pop\n        /* \"#utility.yul\":42:1059   */\n      swap4\n      swap3\n      pop\n      pop\n      pop\n      jump\t// out\n        /* \"#utility.yul\":1103:1924   */\n    tag_273:\n        /* \"#utility.yul\":1232:1237   */\n      0x00\n        /* \"#utility.yul\":1257:1371   */\n      tag_275\n        /* \"#utility.yul\":1273:1370   */\n      tag_276\n        /* \"#utility.yul\":1363:1369   */\n      dup5\n        /* \"#utility.yul\":1273:1370   */\n      tag_277\n      jump\t// in\n    tag_276:\n        /* \"#utility.yul\":1257:1371   */\n      tag_261\n      jump\t// in\n    tag_275:\n        /* \"#utility.yul\":1248:1371   */\n      swap1\n      pop\n        /* \"#utility.yul\":1391:1396   */\n      dup1\n        /* \"#utility.yul\":1420:1426   */\n      dup4\n        /* \"#utility.yul\":1413:1418   */\n      dup3\n        /* \"#utility.yul\":1406:1427   */\n      mstore\n        /* \"#utility.yul\":1454:1458   */\n      0x20\n        /* \"#utility.yul\":1447:1452   */\n      dup3\n        /* \"#utility.yul\":1443:1459   */\n      add\n        /* \"#utility.yul\":1436:1459   */\n      swap1\n      pop\n        /* \"#utility.yul\":1480:1486   */\n      dup3\n        /* \"#utility.yul\":1530:1533   */\n      dup6\n        /* \"#utility.yul\":1522:1526   */\n      0x40\n        /* \"#utility.yul\":1514:1520   */\n      dup7\n        /* \"#utility.yul\":1510:1527   */\n      mul\n        /* \"#utility.yul\":1505:1508   */\n      dup3\n        /* \"#utility.yul\":1501:1528   */\n      add\n        /* \"#utility.yul\":1498:1534   */\n      gt\n        /* \"#utility.yul\":1495:1638   */\n      iszero\n      tag_278\n      jumpi\n        /* \"#utility.yul\":1549:1628   */\n      tag_279\n      tag_264\n      jump\t// in\n    tag_279:\n        /* \"#utility.yul\":1495:1638   */\n    tag_278:\n        /* \"#utility.yul\":1662:1663   */\n      0x00\n        /* \"#utility.yul\":1647:1918   */\n    tag_280:\n        /* \"#utility.yul\":1672:1678   */\n      dup6\n        /* \"#utility.yul\":1669:1670   */\n      dup2\n        /* \"#utility.yul\":1666:1679   */\n      lt\n        /* \"#utility.yul\":1647:1918   */\n      iszero\n      tag_282\n      jumpi\n        /* \"#utility.yul\":1740:1743   */\n      dup2\n        /* \"#utility.yul\":1769:1839   */\n      tag_283\n        /* \"#utility.yul\":1835:1838   */\n      dup9\n        /* \"#utility.yul\":1823:1833   */\n      dup3\n        /* \"#utility.yul\":1769:1839   */\n      tag_284\n      jump\t// in\n    tag_283:\n        /* \"#utility.yul\":1764:1767   */\n      dup5\n        /* \"#utility.yul\":1757:1840   */\n      mstore\n        /* \"#utility.yul\":1869:1873   */\n      0x20\n        /* \"#utility.yul\":1864:1867   */\n      dup5\n        /* \"#utility.yul\":1860:1874   */\n      add\n        /* \"#utility.yul\":1853:1874   */\n      swap4\n      pop\n        /* \"#utility.yul\":1903:1907   */\n      0x40\n        /* \"#utility.yul\":1898:1901   */\n      dup4\n        /* \"#utility.yul\":1894:1908   */\n      add\n        /* \"#utility.yul\":1887:1908   */\n      swap3\n      pop\n        /* \"#utility.yul\":1707:1918   */\n      pop\n        /* \"#utility.yul\":1694:1695   */\n      0x01\n        /* \"#utility.yul\":1691:1692   */\n      dup2\n        /* \"#utility.yul\":1687:1696   */\n      add\n        /* \"#utility.yul\":1682:1696   */\n      swap1\n      pop\n        /* \"#utility.yul\":1647:1918   */\n      jump(tag_280)\n    tag_282:\n        /* \"#utility.yul\":1651:1665   */\n      pop\n        /* \"#utility.yul\":1238:1924   */\n      pop\n      pop\n        /* \"#utility.yul\":1103:1924   */\n      swap4\n      swap3\n      pop\n      pop\n      pop\n      jump\t// out\n        /* \"#utility.yul\":1930:2069   */\n    tag_285:\n        /* \"#utility.yul\":1976:1981   */\n      0x00\n        /* \"#utility.yul\":2014:2020   */\n      dup2\n        /* \"#utility.yul\":2001:2021   */\n      calldataload\n        /* \"#utility.yul\":1992:2021   */\n      swap1\n      pop\n        /* \"#utility.yul\":2030:2063   */\n      tag_287\n        /* \"#utility.yul\":2057:2062   */\n      dup2\n        /* \"#utility.yul\":2030:2063   */\n      tag_288\n      jump\t// in\n    tag_287:\n        /* \"#utility.yul\":1930:2069   */\n      swap3\n      swap2\n      pop\n      pop\n      jump\t// out\n        /* \"#utility.yul\":2075:2230   */\n    tag_289:\n        /* \"#utility.yul\":2129:2134   */\n      0x00\n        /* \"#utility.yul\":2167:2173   */\n      dup2\n        /* \"#utility.yul\":2154:2174   */\n      calldataload\n        /* \"#utility.yul\":2145:2174   */\n      swap1\n      pop\n        /* \"#utility.yul\":2183:2224   */\n      tag_291\n        /* \"#utility.yul\":2218:2223   */\n      dup2\n        /* \"#utility.yul\":2183:2224   */\n      tag_292\n      jump\t// in\n    tag_291:\n        /* \"#utility.yul\":2075:2230   */\n      swap3\n      swap2\n      pop\n      pop\n      jump\t// out\n        /* \"#utility.yul\":2271:2701   */\n    tag_293:\n        /* \"#utility.yul\":2372:2377   */\n      0x00\n        /* \"#utility.yul\":2421:2424   */\n      dup3\n        /* \"#utility.yul\":2414:2418   */\n      0x1f\n        /* \"#utility.yul\":2406:2412   */\n      dup4\n        /* \"#utility.yul\":2402:2419   */\n      add\n        /* \"#utility.yul\":2398:2425   */\n      slt\n        /* \"#utility.yul\":2388:2510   */\n      tag_295\n      jumpi\n        /* \"#utility.yul\":2429:2508   */\n      tag_296\n      tag_270\n      jump\t// in\n    tag_296:\n        /* \"#utility.yul\":2388:2510   */\n    tag_295:\n        /* \"#utility.yul\":2546:2552   */\n      dup2\n        /* \"#utility.yul\":2533:2553   */\n      calldataload\n        /* \"#utility.yul\":2571:2695   */\n      tag_297\n        /* \"#utility.yul\":2691:2694   */\n      dup5\n        /* \"#utility.yul\":2683:2689   */\n      dup3\n        /* \"#utility.yul\":2676:2680   */\n      0x20\n        /* \"#utility.yul\":2668:2674   */\n      dup7\n        /* \"#utility.yul\":2664:2681   */\n      add\n        /* \"#utility.yul\":2571:2695   */\n      tag_256\n      jump\t// in\n    tag_297:\n        /* \"#utility.yul\":2562:2695   */\n      swap2\n      pop\n        /* \"#utility.yul\":2378:2701   */\n      pop\n        /* \"#utility.yul\":2271:2701   */\n      swap3\n      swap2\n      pop\n      pop\n      jump\t// out\n        /* \"#utility.yul\":2745:3181   */\n    tag_298:\n        /* \"#utility.yul\":2849:2854   */\n      0x00\n        /* \"#utility.yul\":2898:2901   */\n      dup3\n        /* \"#utility.yul\":2891:2895   */\n      0x1f\n        /* \"#utility.yul\":2883:2889   */\n      dup4\n        /* \"#utility.yul\":2879:2896   */\n      add\n        /* \"#utility.yul\":2875:2902   */\n      slt\n        /* \"#utility.yul\":2865:2987   */\n      tag_300\n      jumpi\n        /* \"#utility.yul\":2906:2985   */\n      tag_301\n      tag_270\n      jump\t// in\n    tag_301:\n        /* \"#utility.yul\":2865:2987   */\n    tag_300:\n        /* \"#utility.yul\":3023:3029   */\n      dup2\n        /* \"#utility.yul\":3010:3030   */\n      calldataload\n        /* \"#utility.yul\":3048:3175   */\n      tag_302\n        /* \"#utility.yul\":3171:3174   */\n      dup5\n        /* \"#utility.yul\":3163:3169   */\n      dup3\n        /* \"#utility.yul\":3156:3160   */\n      0x20\n        /* \"#utility.yul\":3148:3154   */\n      dup7\n        /* \"#utility.yul\":3144:3161   */\n      add\n        /* \"#utility.yul\":3048:3175   */\n      tag_273\n      jump\t// in\n    tag_302:\n        /* \"#utility.yul\":3039:3175   */\n      swap2\n      pop\n        /* \"#utility.yul\":2855:3181   */\n      pop\n        /* \"#utility.yul\":2745:3181   */\n      swap3\n      swap2\n      pop\n      pop\n      jump\t// out\n        /* \"#utility.yul\":3187:3320   */\n    tag_303:\n        /* \"#utility.yul\":3230:3235   */\n      0x00\n        /* \"#utility.yul\":3268:3274   */\n      dup2\n        /* \"#utility.yul\":3255:3275   */\n      calldataload\n        /* \"#utility.yul\":3246:3275   */\n      swap1\n      pop\n        /* \"#utility.yul\":3284:3314   */\n      tag_305\n        /* \"#utility.yul\":3308:3313   */\n      dup2\n        /* \"#utility.yul\":3284:3314   */\n      tag_306\n      jump\t// in\n    tag_305:\n        /* \"#utility.yul\":3187:3320   */\n      swap3\n      swap2\n      pop\n      pop\n      jump\t// out\n        /* \"#utility.yul\":3326:3465   */\n    tag_307:\n        /* \"#utility.yul\":3372:3377   */\n      0x00\n        /* \"#utility.yul\":3410:3416   */\n      dup2\n        /* \"#utility.yul\":3397:3417   */\n      calldataload\n        /* \"#utility.yul\":3388:3417   */\n      swap1\n      pop\n        /* \"#utility.yul\":3426:3459   */\n      tag_309\n        /* \"#utility.yul\":3453:3458   */\n      dup2\n        /* \"#utility.yul\":3426:3459   */\n      tag_310\n      jump\t// in\n    tag_309:\n        /* \"#utility.yul\":3326:3465   */\n      swap3\n      swap2\n      pop\n      pop\n      jump\t// out\n        /* \"#utility.yul\":3504:4987   */\n    tag_272:\n        /* \"#utility.yul\":3583:3588   */\n      0x00\n        /* \"#utility.yul\":3627:3631   */\n      0xc0\n        /* \"#utility.yul\":3615:3624   */\n      dup3\n        /* \"#utility.yul\":3610:3613   */\n      dup5\n        /* \"#utility.yul\":3606:3625   */\n      sub\n        /* \"#utility.yul\":3602:3632   */\n      slt\n        /* \"#utility.yul\":3599:3716   */\n      iszero\n      tag_312\n      jumpi\n        /* \"#utility.yul\":3635:3714   */\n      tag_313\n      tag_314\n      jump\t// in\n    tag_313:\n        /* \"#utility.yul\":3599:3716   */\n    tag_312:\n        /* \"#utility.yul\":3734:3755   */\n      tag_315\n        /* \"#utility.yul\":3750:3754   */\n      0xc0\n        /* \"#utility.yul\":3734:3755   */\n      tag_261\n      jump\t// in\n    tag_315:\n        /* \"#utility.yul\":3725:3755   */\n      swap1\n      pop\n        /* \"#utility.yul\":3825:3826   */\n      0x00\n        /* \"#utility.yul\":3865:3914   */\n      tag_316\n        /* \"#utility.yul\":3910:3913   */\n      dup5\n        /* \"#utility.yul\":3901:3907   */\n      dup3\n        /* \"#utility.yul\":3890:3899   */\n      dup6\n        /* \"#utility.yul\":3886:3908   */\n      add\n        /* \"#utility.yul\":3865:3914   */\n      tag_285\n      jump\t// in\n    tag_316:\n        /* \"#utility.yul\":3858:3862   */\n      0x00\n        /* \"#utility.yul\":3851:3856   */\n      dup4\n        /* \"#utility.yul\":3847:3863   */\n      add\n        /* \"#utility.yul\":3840:3915   */\n      mstore\n        /* \"#utility.yul\":3765:3926   */\n      pop\n        /* \"#utility.yul\":3987:3989   */\n      0x20\n        /* \"#utility.yul\":4028:4077   */\n      tag_317\n        /* \"#utility.yul\":4073:4076   */\n      dup5\n        /* \"#utility.yul\":4064:4070   */\n      dup3\n        /* \"#utility.yul\":4053:4062   */\n      dup6\n        /* \"#utility.yul\":4049:4071   */\n      add\n        /* \"#utility.yul\":4028:4077   */\n      tag_318\n      jump\t// in\n    tag_317:\n        /* \"#utility.yul\":4021:4025   */\n      0x20\n        /* \"#utility.yul\":4014:4019   */\n      dup4\n        /* \"#utility.yul\":4010:4026   */\n      add\n        /* \"#utility.yul\":4003:4078   */\n      mstore\n        /* \"#utility.yul\":3936:4089   */\n      pop\n        /* \"#utility.yul\":4150:4152   */\n      0x40\n        /* \"#utility.yul\":4191:4237   */\n      tag_319\n        /* \"#utility.yul\":4233:4236   */\n      dup5\n        /* \"#utility.yul\":4224:4230   */\n      dup3\n        /* \"#utility.yul\":4213:4222   */\n      dup6\n        /* \"#utility.yul\":4209:4231   */\n      add\n        /* \"#utility.yul\":4191:4237   */\n      tag_303\n      jump\t// in\n    tag_319:\n        /* \"#utility.yul\":4184:4188   */\n      0x40\n        /* \"#utility.yul\":4177:4182   */\n      dup4\n        /* \"#utility.yul\":4173:4189   */\n      add\n        /* \"#utility.yul\":4166:4238   */\n      mstore\n        /* \"#utility.yul\":4099:4249   */\n      pop\n        /* \"#utility.yul\":4308:4310   */\n      0x60\n        /* \"#utility.yul\":4349:4398   */\n      tag_320\n        /* \"#utility.yul\":4394:4397   */\n      dup5\n        /* \"#utility.yul\":4385:4391   */\n      dup3\n        /* \"#utility.yul\":4374:4383   */\n      dup6\n        /* \"#utility.yul\":4370:4392   */\n      add\n        /* \"#utility.yul\":4349:4398   */\n      tag_321\n      jump\t// in\n    tag_320:\n        /* \"#utility.yul\":4342:4346   */\n      0x60\n        /* \"#utility.yul\":4335:4340   */\n      dup4\n        /* \"#utility.yul\":4331:4347   */\n      add\n        /* \"#utility.yul\":4324:4399   */\n      mstore\n        /* \"#utility.yul\":4259:4410   */\n      pop\n        /* \"#utility.yul\":4481:4484   */\n      0x80\n        /* \"#utility.yul\":4523:4572   */\n      tag_322\n        /* \"#utility.yul\":4568:4571   */\n      dup5\n        /* \"#utility.yul\":4559:4565   */\n      dup3\n        /* \"#utility.yul\":4548:4557   */\n      dup6\n        /* \"#utility.yul\":4544:4566   */\n      add\n        /* \"#utility.yul\":4523:4572   */\n      tag_321\n      jump\t// in\n    tag_322:\n        /* \"#utility.yul\":4516:4520   */\n      0x80\n        /* \"#utility.yul\":4509:4514   */\n      dup4\n        /* \"#utility.yul\":4505:4521   */\n      add\n        /* \"#utility.yul\":4498:4573   */\n      mstore\n        /* \"#utility.yul\":4420:4584   */\n      pop\n        /* \"#utility.yul\":4687:4690   */\n      0xa0\n        /* \"#utility.yul\":4676:4685   */\n      dup3\n        /* \"#utility.yul\":4672:4691   */\n      add\n        /* \"#utility.yul\":4659:4692   */\n      calldataload\n        /* \"#utility.yul\":4719:4737   */\n      0xffffffffffffffff\n        /* \"#utility.yul\":4711:4717   */\n      dup2\n        /* \"#utility.yul\":4708:4738   */\n      gt\n        /* \"#utility.yul\":4705:4822   */\n      iszero\n      tag_323\n      jumpi\n        /* \"#utility.yul\":4741:4820   */\n      tag_324\n      tag_325\n      jump\t// in\n    tag_324:\n        /* \"#utility.yul\":4705:4822   */\n    tag_323:\n        /* \"#utility.yul\":4861:4968   */\n      tag_326\n        /* \"#utility.yul\":4964:4967   */\n      dup5\n        /* \"#utility.yul\":4955:4961   */\n      dup3\n        /* \"#utility.yul\":4944:4953   */\n      dup6\n        /* \"#utility.yul\":4940:4962   */\n      add\n        /* \"#utility.yul\":4861:4968   */\n      tag_298\n      jump\t// in\n    tag_326:\n        /* \"#utility.yul\":4854:4858   */\n      0xa0\n        /* \"#utility.yul\":4847:4852   */\n      dup4\n        /* \"#utility.yul\":4843:4859   */\n      add\n        /* \"#utility.yul\":4836:4969   */\n      mstore\n        /* \"#utility.yul\":4594:4980   */\n      pop\n        /* \"#utility.yul\":3504:4987   */\n      swap3\n      swap2\n      pop\n      pop\n      jump\t// out\n        /* \"#utility.yul\":5029:5621   */\n    tag_284:\n        /* \"#utility.yul\":5111:5116   */\n      0x00\n        /* \"#utility.yul\":5155:5159   */\n      0x40\n        /* \"#utility.yul\":5143:5152   */\n      dup3\n        /* \"#utility.yul\":5138:5141   */\n      dup5\n        /* \"#utility.yul\":5134:5153   */\n      sub\n        /* \"#utility.yul\":5130:5160   */\n      slt\n        /* \"#utility.yul\":5127:5244   */\n      iszero\n      tag_328\n      jumpi\n        /* \"#utility.yul\":5163:5242   */\n      tag_329\n      tag_314\n      jump\t// in\n    tag_329:\n        /* \"#utility.yul\":5127:5244   */\n    tag_328:\n        /* \"#utility.yul\":5262:5283   */\n      tag_330\n        /* \"#utility.yul\":5278:5282   */\n      0x40\n        /* \"#utility.yul\":5262:5283   */\n      tag_261\n      jump\t// in\n    tag_330:\n        /* \"#utility.yul\":5253:5283   */\n      swap1\n      pop\n        /* \"#utility.yul\":5350:5351   */\n      0x00\n        /* \"#utility.yul\":5390:5439   */\n      tag_331\n        /* \"#utility.yul\":5435:5438   */\n      dup5\n        /* \"#utility.yul\":5426:5432   */\n      dup3\n        /* \"#utility.yul\":5415:5424   */\n      dup6\n        /* \"#utility.yul\":5411:5433   */\n      add\n        /* \"#utility.yul\":5390:5439   */\n      tag_285\n      jump\t// in\n    tag_331:\n        /* \"#utility.yul\":5383:5387   */\n      0x00\n        /* \"#utility.yul\":5376:5381   */\n      dup4\n        /* \"#utility.yul\":5372:5388   */\n      add\n        /* \"#utility.yul\":5365:5440   */\n      mstore\n        /* \"#utility.yul\":5293:5451   */\n      pop\n        /* \"#utility.yul\":5512:5514   */\n      0x20\n        /* \"#utility.yul\":5553:5602   */\n      tag_332\n        /* \"#utility.yul\":5598:5601   */\n      dup5\n        /* \"#utility.yul\":5589:5595   */\n      dup3\n        /* \"#utility.yul\":5578:5587   */\n      dup6\n        /* \"#utility.yul\":5574:5596   */\n      add\n        /* \"#utility.yul\":5553:5602   */\n      tag_321\n      jump\t// in\n    tag_332:\n        /* \"#utility.yul\":5546:5550   */\n      0x20\n        /* \"#utility.yul\":5539:5544   */\n      dup4\n        /* \"#utility.yul\":5535:5551   */\n      add\n        /* \"#utility.yul\":5528:5603   */\n      mstore\n        /* \"#utility.yul\":5461:5614   */\n      pop\n        /* \"#utility.yul\":5029:5621   */\n      swap3\n      swap2\n      pop\n      pop\n      jump\t// out\n        /* \"#utility.yul\":5658:5893   */\n    tag_333:\n        /* \"#utility.yul\":5734:5739   */\n      0x00\n        /* \"#utility.yul\":5775:5778   */\n      0x0120\n        /* \"#utility.yul\":5766:5772   */\n      dup3\n        /* \"#utility.yul\":5761:5764   */\n      dup5\n        /* \"#utility.yul\":5757:5773   */\n      sub\n        /* \"#utility.yul\":5753:5779   */\n      slt\n        /* \"#utility.yul\":5750:5863   */\n      iszero\n      tag_335\n      jumpi\n        /* \"#utility.yul\":5782:5861   */\n      tag_336\n      tag_337\n      jump\t// in\n    tag_336:\n        /* \"#utility.yul\":5750:5863   */\n    tag_335:\n        /* \"#utility.yul\":5881:5887   */\n      dup2\n        /* \"#utility.yul\":5872:5887   */\n      swap1\n      pop\n        /* \"#utility.yul\":5658:5893   */\n      swap3\n      swap2\n      pop\n      pop\n      jump\t// out\n        /* \"#utility.yul\":5930:7907   */\n    tag_338:\n        /* \"#utility.yul\":6007:6012   */\n      0x00\n        /* \"#utility.yul\":6051:6057   */\n      0x0120\n        /* \"#utility.yul\":6039:6048   */\n      dup3\n        /* \"#utility.yul\":6034:6037   */\n      dup5\n        /* \"#utility.yul\":6030:6049   */\n      sub\n        /* \"#utility.yul\":6026:6058   */\n      slt\n        /* \"#utility.yul\":6023:6142   */\n      iszero\n      tag_340\n      jumpi\n        /* \"#utility.yul\":6061:6140   */\n      tag_341\n      tag_314\n      jump\t// in\n    tag_341:\n        /* \"#utility.yul\":6023:6142   */\n    tag_340:\n        /* \"#utility.yul\":6160:6183   */\n      tag_342\n        /* \"#utility.yul\":6176:6182   */\n      0x0120\n        /* \"#utility.yul\":6160:6183   */\n      tag_261\n      jump\t// in\n    tag_342:\n        /* \"#utility.yul\":6151:6183   */\n      swap1\n      pop\n        /* \"#utility.yul\":6249:6250   */\n      0x00\n        /* \"#utility.yul\":6289:6338   */\n      tag_343\n        /* \"#utility.yul\":6334:6337   */\n      dup5\n        /* \"#utility.yul\":6325:6331   */\n      dup3\n        /* \"#utility.yul\":6314:6323   */\n      dup6\n        /* \"#utility.yul\":6310:6332   */\n      add\n        /* \"#utility.yul\":6289:6338   */\n      tag_321\n      jump\t// in\n    tag_343:\n        /* \"#utility.yul\":6282:6286   */\n      0x00\n        /* \"#utility.yul\":6275:6280   */\n      dup4\n        /* \"#utility.yul\":6271:6287   */\n      add\n        /* \"#utility.yul\":6264:6339   */\n      mstore\n        /* \"#utility.yul\":6193:6350   */\n      pop\n        /* \"#utility.yul\":6418:6420   */\n      0x20\n        /* \"#utility.yul\":6459:6508   */\n      tag_344\n        /* \"#utility.yul\":6504:6507   */\n      dup5\n        /* \"#utility.yul\":6495:6501   */\n      dup3\n        /* \"#utility.yul\":6484:6493   */\n      dup6\n        /* \"#utility.yul\":6480:6502   */\n      add\n        /* \"#utility.yul\":6459:6508   */\n      tag_318\n      jump\t// in\n    tag_344:\n        /* \"#utility.yul\":6452:6456   */\n      0x20\n        /* \"#utility.yul\":6445:6450   */\n      dup4\n        /* \"#utility.yul\":6441:6457   */\n      add\n        /* \"#utility.yul\":6434:6509   */\n      mstore\n        /* \"#utility.yul\":6360:6520   */\n      pop\n        /* \"#utility.yul\":6588:6590   */\n      0x40\n        /* \"#utility.yul\":6629:6678   */\n      tag_345\n        /* \"#utility.yul\":6674:6677   */\n      dup5\n        /* \"#utility.yul\":6665:6671   */\n      dup3\n        /* \"#utility.yul\":6654:6663   */\n      dup6\n        /* \"#utility.yul\":6650:6672   */\n      add\n        /* \"#utility.yul\":6629:6678   */\n      tag_318\n      jump\t// in\n    tag_345:\n        /* \"#utility.yul\":6622:6626   */\n      0x40\n        /* \"#utility.yul\":6615:6620   */\n      dup4\n        /* \"#utility.yul\":6611:6627   */\n      add\n        /* \"#utility.yul\":6604:6679   */\n      mstore\n        /* \"#utility.yul\":6530:6690   */\n      pop\n        /* \"#utility.yul\":6750:6752   */\n      0x60\n        /* \"#utility.yul\":6791:6840   */\n      tag_346\n        /* \"#utility.yul\":6836:6839   */\n      dup5\n        /* \"#utility.yul\":6827:6833   */\n      dup3\n        /* \"#utility.yul\":6816:6825   */\n      dup6\n        /* \"#utility.yul\":6812:6834   */\n      add\n        /* \"#utility.yul\":6791:6840   */\n      tag_318\n      jump\t// in\n    tag_346:\n        /* \"#utility.yul\":6784:6788   */\n      0x60\n        /* \"#utility.yul\":6777:6782   */\n      dup4\n        /* \"#utility.yul\":6773:6789   */\n      add\n        /* \"#utility.yul\":6766:6841   */\n      mstore\n        /* \"#utility.yul\":6700:6852   */\n      pop\n        /* \"#utility.yul\":6916:6919   */\n      0x80\n        /* \"#utility.yul\":6958:7007   */\n      tag_347\n        /* \"#utility.yul\":7003:7006   */\n      dup5\n        /* \"#utility.yul\":6994:7000   */\n      dup3\n        /* \"#utility.yul\":6983:6992   */\n      dup6\n        /* \"#utility.yul\":6979:7001   */\n      add\n        /* \"#utility.yul\":6958:7007   */\n      tag_307\n      jump\t// in\n    tag_347:\n        /* \"#utility.yul\":6951:6955   */\n      0x80\n        /* \"#utility.yul\":6944:6949   */\n      dup4\n        /* \"#utility.yul\":6940:6956   */\n      add\n        /* \"#utility.yul\":6933:7008   */\n      mstore\n        /* \"#utility.yul\":6862:7019   */\n      pop\n        /* \"#utility.yul\":7085:7088   */\n      0xa0\n        /* \"#utility.yul\":7127:7176   */\n      tag_348\n        /* \"#utility.yul\":7172:7175   */\n      dup5\n        /* \"#utility.yul\":7163:7169   */\n      dup3\n        /* \"#utility.yul\":7152:7161   */\n      dup6\n        /* \"#utility.yul\":7148:7170   */\n      add\n        /* \"#utility.yul\":7127:7176   */\n      tag_318\n      jump\t// in\n    tag_348:\n        /* \"#utility.yul\":7120:7124   */\n      0xa0\n        /* \"#utility.yul\":7113:7118   */\n      dup4\n        /* \"#utility.yul\":7109:7125   */\n      add\n        /* \"#utility.yul\":7102:7177   */\n      mstore\n        /* \"#utility.yul\":7029:7188   */\n      pop\n        /* \"#utility.yul\":7250:7253   */\n      0xc0\n        /* \"#utility.yul\":7292:7341   */\n      tag_349\n        /* \"#utility.yul\":7337:7340   */\n      dup5\n        /* \"#utility.yul\":7328:7334   */\n      dup3\n        /* \"#utility.yul\":7317:7326   */\n      dup6\n        /* \"#utility.yul\":7313:7335   */\n      add\n        /* \"#utility.yul\":7292:7341   */\n      tag_318\n      jump\t// in\n    tag_349:\n        /* \"#utility.yul\":7285:7289   */\n      0xc0\n        /* \"#utility.yul\":7278:7283   */\n      dup4\n        /* \"#utility.yul\":7274:7290   */\n      add\n        /* \"#utility.yul\":7267:7342   */\n      mstore\n        /* \"#utility.yul\":7198:7353   */\n      pop\n        /* \"#utility.yul\":7445:7448   */\n      0xe0\n        /* \"#utility.yul\":7434:7443   */\n      dup3\n        /* \"#utility.yul\":7430:7449   */\n      add\n        /* \"#utility.yul\":7417:7450   */\n      calldataload\n        /* \"#utility.yul\":7477:7495   */\n      0xffffffffffffffff\n        /* \"#utility.yul\":7469:7475   */\n      dup2\n        /* \"#utility.yul\":7466:7496   */\n      gt\n        /* \"#utility.yul\":7463:7580   */\n      iszero\n      tag_350\n      jumpi\n        /* \"#utility.yul\":7499:7578   */\n      tag_351\n      tag_325\n      jump\t// in\n    tag_351:\n        /* \"#utility.yul\":7463:7580   */\n    tag_350:\n        /* \"#utility.yul\":7619:7723   */\n      tag_352\n        /* \"#utility.yul\":7719:7722   */\n      dup5\n        /* \"#utility.yul\":7710:7716   */\n      dup3\n        /* \"#utility.yul\":7699:7708   */\n      dup6\n        /* \"#utility.yul\":7695:7717   */\n      add\n        /* \"#utility.yul\":7619:7723   */\n      tag_293\n      jump\t// in\n    tag_352:\n        /* \"#utility.yul\":7612:7616   */\n      0xe0\n        /* \"#utility.yul\":7605:7610   */\n      dup4\n        /* \"#utility.yul\":7601:7617   */\n      add\n        /* \"#utility.yul\":7594:7724   */\n      mstore\n        /* \"#utility.yul\":7363:7735   */\n      pop\n        /* \"#utility.yul\":7798:7801   */\n      0x0100\n        /* \"#utility.yul\":7842:7888   */\n      tag_353\n        /* \"#utility.yul\":7884:7887   */\n      dup5\n        /* \"#utility.yul\":7875:7881   */\n      dup3\n        /* \"#utility.yul\":7864:7873   */\n      dup6\n        /* \"#utility.yul\":7860:7882   */\n      add\n        /* \"#utility.yul\":7842:7888   */\n      tag_303\n      jump\t// in\n    tag_353:\n        /* \"#utility.yul\":7833:7839   */\n      0x0100\n        /* \"#utility.yul\":7826:7831   */\n      dup4\n        /* \"#utility.yul\":7822:7840   */\n      add\n        /* \"#utility.yul\":7815:7889   */\n      mstore\n        /* \"#utility.yul\":7745:7900   */\n      pop\n        /* \"#utility.yul\":5930:7907   */\n      swap3\n      swap2\n      pop\n      pop\n      jump\t// out\n        /* \"#utility.yul\":7913:8052   */\n    tag_318:\n        /* \"#utility.yul\":7959:7964   */\n      0x00\n        /* \"#utility.yul\":7997:8003   */\n      dup2\n        /* \"#utility.yul\":7984:8004   */\n      calldataload\n        /* \"#utility.yul\":7975:8004   */\n      swap1\n      pop\n        /* \"#utility.yul\":8013:8046   */\n      tag_355\n        /* \"#utility.yul\":8040:8045   */\n      dup2\n        /* \"#utility.yul\":8013:8046   */\n      tag_356\n      jump\t// in\n    tag_355:\n        /* \"#utility.yul\":7913:8052   */\n      swap3\n      swap2\n      pop\n      pop\n      jump\t// out\n        /* \"#utility.yul\":8058:8197   */\n    tag_321:\n        /* \"#utility.yul\":8104:8109   */\n      0x00\n        /* \"#utility.yul\":8142:8148   */\n      dup2\n        /* \"#utility.yul\":8129:8149   */\n      calldataload\n        /* \"#utility.yul\":8120:8149   */\n      swap1\n      pop\n        /* \"#utility.yul\":8158:8191   */\n      tag_358\n        /* \"#utility.yul\":8185:8190   */\n      dup2\n        /* \"#utility.yul\":8158:8191   */\n      tag_359\n      jump\t// in\n    tag_358:\n        /* \"#utility.yul\":8058:8197   */\n      swap3\n      swap2\n      pop\n      pop\n      jump\t// out\n        /* \"#utility.yul\":8203:8338   */\n    tag_360:\n        /* \"#utility.yul\":8247:8252   */\n      0x00\n        /* \"#utility.yul\":8285:8291   */\n      dup2\n        /* \"#utility.yul\":8272:8292   */\n      calldataload\n        /* \"#utility.yul\":8263:8292   */\n      swap1\n      pop\n        /* \"#utility.yul\":8301:8332   */\n      tag_362\n        /* \"#utility.yul\":8326:8331   */\n      dup2\n        /* \"#utility.yul\":8301:8332   */\n      tag_363\n      jump\t// in\n    tag_362:\n        /* \"#utility.yul\":8203:8338   */\n      swap3\n      swap2\n      pop\n      pop\n      jump\t// out\n        /* \"#utility.yul\":8344:8828   */\n    tag_23:\n        /* \"#utility.yul\":8417:8423   */\n      0x00\n        /* \"#utility.yul\":8425:8431   */\n      dup1\n        /* \"#utility.yul\":8474:8476   */\n      0x40\n        /* \"#utility.yul\":8462:8471   */\n      dup4\n        /* \"#utility.yul\":8453:8460   */\n      dup6\n        /* \"#utility.yul\":8449:8472   */\n      sub\n        /* \"#utility.yul\":8445:8477   */\n      slt\n        /* \"#utility.yul\":8442:8561   */\n      iszero\n      tag_365\n      jumpi\n        /* \"#utility.yul\":8480:8559   */\n      tag_366\n      tag_367\n      jump\t// in\n    tag_366:\n        /* \"#utility.yul\":8442:8561   */\n    tag_365:\n        /* \"#utility.yul\":8600:8601   */\n      0x00\n        /* \"#utility.yul\":8625:8686   */\n      tag_368\n        /* \"#utility.yul\":8678:8685   */\n      dup6\n        /* \"#utility.yul\":8669:8675   */\n      dup3\n        /* \"#utility.yul\":8658:8667   */\n      dup7\n        /* \"#utility.yul\":8654:8676   */\n      add\n        /* \"#utility.yul\":8625:8686   */\n      tag_289\n      jump\t// in\n    tag_368:\n        /* \"#utility.yul\":8615:8686   */\n      swap3\n      pop\n        /* \"#utility.yul\":8571:8696   */\n      pop\n        /* \"#utility.yul\":8735:8737   */\n      0x20\n        /* \"#utility.yul\":8761:8811   */\n      tag_369\n        /* \"#utility.yul\":8803:8810   */\n      dup6\n        /* \"#utility.yul\":8794:8800   */\n      dup3\n        /* \"#utility.yul\":8783:8792   */\n      dup7\n        /* \"#utility.yul\":8779:8801   */\n      add\n        /* \"#utility.yul\":8761:8811   */\n      tag_303\n      jump\t// in\n    tag_369:\n        /* \"#utility.yul\":8751:8811   */\n      swap2\n      pop\n        /* \"#utility.yul\":8706:8821   */\n      pop\n        /* \"#utility.yul\":8344:8828   */\n      swap3\n      pop\n      swap3\n      swap1\n      pop\n      jump\t// out\n        /* \"#utility.yul\":8834:9324   */\n    tag_37:\n        /* \"#utility.yul\":8910:8916   */\n      0x00\n        /* \"#utility.yul\":8918:8924   */\n      dup1\n        /* \"#utility.yul\":8967:8969   */\n      0x40\n        /* \"#utility.yul\":8955:8964   */\n      dup4\n        /* \"#utility.yul\":8946:8953   */\n      dup6\n        /* \"#utility.yul\":8942:8965   */\n      sub\n        /* \"#utility.yul\":8938:8970   */\n      slt\n        /* \"#utility.yul\":8935:9054   */\n      iszero\n      tag_371\n      jumpi\n        /* \"#utility.yul\":8973:9052   */\n      tag_372\n      tag_367\n      jump\t// in\n    tag_372:\n        /* \"#utility.yul\":8935:9054   */\n    tag_371:\n        /* \"#utility.yul\":9093:9094   */\n      0x00\n        /* \"#utility.yul\":9118:9171   */\n      tag_373\n        /* \"#utility.yul\":9163:9170   */\n      dup6\n        /* \"#utility.yul\":9154:9160   */\n      dup3\n        /* \"#utility.yul\":9143:9152   */\n      dup7\n        /* \"#utility.yul\":9139:9161   */\n      add\n        /* \"#utility.yul\":9118:9171   */\n      tag_285\n      jump\t// in\n    tag_373:\n        /* \"#utility.yul\":9108:9171   */\n      swap3\n      pop\n        /* \"#utility.yul\":9064:9181   */\n      pop\n        /* \"#utility.yul\":9220:9222   */\n      0x20\n        /* \"#utility.yul\":9246:9307   */\n      tag_374\n        /* \"#utility.yul\":9299:9306   */\n      dup6\n        /* \"#utility.yul\":9290:9296   */\n      dup3\n        /* \"#utility.yul\":9279:9288   */\n      dup7\n        /* \"#utility.yul\":9275:9297   */\n      add\n        /* \"#utility.yul\":9246:9307   */\n      tag_289\n      jump\t// in\n    tag_374:\n        /* \"#utility.yul\":9236:9307   */\n      swap2\n      pop\n        /* \"#utility.yul\":9191:9317   */\n      pop\n        /* \"#utility.yul\":8834:9324   */\n      swap3\n      pop\n      swap3\n      swap1\n      pop\n      jump\t// out\n        /* \"#utility.yul\":9330:9659   */\n    tag_17:\n        /* \"#utility.yul\":9389:9395   */\n      0x00\n        /* \"#utility.yul\":9438:9440   */\n      0x20\n        /* \"#utility.yul\":9426:9435   */\n      dup3\n        /* \"#utility.yul\":9417:9424   */\n      dup5\n        /* \"#utility.yul\":9413:9436   */\n      sub\n        /* \"#utility.yul\":9409:9441   */\n      slt\n        /* \"#utility.yul\":9406:9525   */\n      iszero\n      tag_376\n      jumpi\n        /* \"#utility.yul\":9444:9523   */\n      tag_377\n      tag_367\n      jump\t// in\n    tag_377:\n        /* \"#utility.yul\":9406:9525   */\n    tag_376:\n        /* \"#utility.yul\":9564:9565   */\n      0x00\n        /* \"#utility.yul\":9589:9642   */\n      tag_378\n        /* \"#utility.yul\":9634:9641   */\n      dup5\n        /* \"#utility.yul\":9625:9631   */\n      dup3\n        /* \"#utility.yul\":9614:9623   */\n      dup6\n        /* \"#utility.yul\":9610:9632   */\n      add\n        /* \"#utility.yul\":9589:9642   */\n      tag_318\n      jump\t// in\n    tag_378:\n        /* \"#utility.yul\":9579:9642   */\n      swap2\n      pop\n        /* \"#utility.yul\":9535:9652   */\n      pop\n        /* \"#utility.yul\":9330:9659   */\n      swap3\n      swap2\n      pop\n      pop\n      jump\t// out\n        /* \"#utility.yul\":9665:9994   */\n    tag_31:\n        /* \"#utility.yul\":9724:9730   */\n      0x00\n        /* \"#utility.yul\":9773:9775   */\n      0x20\n        /* \"#utility.yul\":9761:9770   */\n      dup3\n        /* \"#utility.yul\":9752:9759   */\n      dup5\n        /* \"#utility.yul\":9748:9771   */\n      sub\n        /* \"#utility.yul\":9744:9776   */\n      slt\n        /* \"#utility.yul\":9741:9860   */\n      iszero\n      tag_380\n      jumpi\n        /* \"#utility.yul\":9779:9858   */\n      tag_381\n      tag_367\n      jump\t// in\n    tag_381:\n        /* \"#utility.yul\":9741:9860   */\n    tag_380:\n        /* \"#utility.yul\":9899:9900   */\n      0x00\n        /* \"#utility.yul\":9924:9977   */\n      tag_382\n        /* \"#utility.yul\":9969:9976   */\n      dup5\n        /* \"#utility.yul\":9960:9966   */\n      dup3\n        /* \"#utility.yul\":9949:9958   */\n      dup6\n        /* \"#utility.yul\":9945:9967   */\n      add\n        /* \"#utility.yul\":9924:9977   */\n      tag_321\n      jump\t// in\n    tag_382:\n        /* \"#utility.yul\":9914:9977   */\n      swap2\n      pop\n        /* \"#utility.yul\":9870:9987   */\n      pop\n        /* \"#utility.yul\":9665:9994   */\n      swap3\n      swap2\n      pop\n      pop\n      jump\t// out\n        /* \"#utility.yul\":10000:11697   */\n    tag_41:\n        /* \"#utility.yul\":10152:10158   */\n      0x00\n        /* \"#utility.yul\":10160:10166   */\n      dup1\n        /* \"#utility.yul\":10168:10174   */\n      0x00\n        /* \"#utility.yul\":10176:10182   */\n      dup1\n        /* \"#utility.yul\":10184:10190   */\n      0x00\n        /* \"#utility.yul\":10192:10198   */\n      dup1\n        /* \"#utility.yul\":10200:10206   */\n      0x00\n        /* \"#utility.yul\":10208:10214   */\n      dup1\n        /* \"#utility.yul\":10216:10222   */\n      0x00\n        /* \"#utility.yul\":10265:10268   */\n      0x0120\n        /* \"#utility.yul\":10253:10262   */\n      dup11\n        /* \"#utility.yul\":10244:10251   */\n      dup13\n        /* \"#utility.yul\":10240:10263   */\n      sub\n        /* \"#utility.yul\":10236:10269   */\n      slt\n        /* \"#utility.yul\":10233:10353   */\n      iszero\n      tag_384\n      jumpi\n        /* \"#utility.yul\":10272:10351   */\n      tag_385\n      tag_367\n      jump\t// in\n    tag_385:\n        /* \"#utility.yul\":10233:10353   */\n    tag_384:\n        /* \"#utility.yul\":10392:10393   */\n      0x00\n        /* \"#utility.yul\":10417:10470   */\n      tag_386\n        /* \"#utility.yul\":10462:10469   */\n      dup13\n        /* \"#utility.yul\":10453:10459   */\n      dup3\n        /* \"#utility.yul\":10442:10451   */\n      dup14\n        /* \"#utility.yul\":10438:10460   */\n      add\n        /* \"#utility.yul\":10417:10470   */\n      tag_321\n      jump\t// in\n    tag_386:\n        /* \"#utility.yul\":10407:10470   */\n      swap10\n      pop\n        /* \"#utility.yul\":10363:10480   */\n      pop\n        /* \"#utility.yul\":10519:10521   */\n      0x20\n        /* \"#utility.yul\":10545:10598   */\n      tag_387\n        /* \"#utility.yul\":10590:10597   */\n      dup13\n        /* \"#utility.yul\":10581:10587   */\n      dup3\n        /* \"#utility.yul\":10570:10579   */\n      dup14\n        /* \"#utility.yul\":10566:10588   */\n      add\n        /* \"#utility.yul\":10545:10598   */\n      tag_321\n      jump\t// in\n    tag_387:\n        /* \"#utility.yul\":10535:10598   */\n      swap9\n      pop\n        /* \"#utility.yul\":10490:10608   */\n      pop\n        /* \"#utility.yul\":10647:10649   */\n      0x40\n        /* \"#utility.yul\":10673:10726   */\n      tag_388\n        /* \"#utility.yul\":10718:10725   */\n      dup13\n        /* \"#utility.yul\":10709:10715   */\n      dup3\n        /* \"#utility.yul\":10698:10707   */\n      dup14\n        /* \"#utility.yul\":10694:10716   */\n      add\n        /* \"#utility.yul\":10673:10726   */\n      tag_318\n      jump\t// in\n    tag_388:\n        /* \"#utility.yul\":10663:10726   */\n      swap8\n      pop\n        /* \"#utility.yul\":10618:10736   */\n      pop\n        /* \"#utility.yul\":10775:10777   */\n      0x60\n        /* \"#utility.yul\":10801:10854   */\n      tag_389\n        /* \"#utility.yul\":10846:10853   */\n      dup13\n        /* \"#utility.yul\":10837:10843   */\n      dup3\n        /* \"#utility.yul\":10826:10835   */\n      dup14\n        /* \"#utility.yul\":10822:10844   */\n      add\n        /* \"#utility.yul\":10801:10854   */\n      tag_318\n      jump\t// in\n    tag_389:\n        /* \"#utility.yul\":10791:10854   */\n      swap7\n      pop\n        /* \"#utility.yul\":10746:10864   */\n      pop\n        /* \"#utility.yul\":10931:10934   */\n      0x80\n        /* \"#utility.yul\":10920:10929   */\n      dup11\n        /* \"#utility.yul\":10916:10935   */\n      add\n        /* \"#utility.yul\":10903:10936   */\n      calldataload\n        /* \"#utility.yul\":10963:10981   */\n      0xffffffffffffffff\n        /* \"#utility.yul\":10955:10961   */\n      dup2\n        /* \"#utility.yul\":10952:10982   */\n      gt\n        /* \"#utility.yul\":10949:11066   */\n      iszero\n      tag_390\n      jumpi\n        /* \"#utility.yul\":10985:11064   */\n      tag_391\n      tag_392\n      jump\t// in\n    tag_391:\n        /* \"#utility.yul\":10949:11066   */\n    tag_390:\n        /* \"#utility.yul\":11090:11173   */\n      tag_393\n        /* \"#utility.yul\":11165:11172   */\n      dup13\n        /* \"#utility.yul\":11156:11162   */\n      dup3\n        /* \"#utility.yul\":11145:11154   */\n      dup14\n        /* \"#utility.yul\":11141:11163   */\n      add\n        /* \"#utility.yul\":11090:11173   */\n      tag_333\n      jump\t// in\n    tag_393:\n        /* \"#utility.yul\":11080:11173   */\n      swap6\n      pop\n        /* \"#utility.yul\":10874:11183   */\n      pop\n        /* \"#utility.yul\":11222:11225   */\n      0xa0\n        /* \"#utility.yul\":11249:11302   */\n      tag_394\n        /* \"#utility.yul\":11294:11301   */\n      dup13\n        /* \"#utility.yul\":11285:11291   */\n      dup3\n        /* \"#utility.yul\":11274:11283   */\n      dup14\n        /* \"#utility.yul\":11270:11292   */\n      add\n        /* \"#utility.yul\":11249:11302   */\n      tag_285\n      jump\t// in\n    tag_394:\n        /* \"#utility.yul\":11239:11302   */\n      swap5\n      pop\n        /* \"#utility.yul\":11193:11312   */\n      pop\n        /* \"#utility.yul\":11351:11354   */\n      0xc0\n        /* \"#utility.yul\":11378:11428   */\n      tag_395\n        /* \"#utility.yul\":11420:11427   */\n      dup13\n        /* \"#utility.yul\":11411:11417   */\n      dup3\n        /* \"#utility.yul\":11400:11409   */\n      dup14\n        /* \"#utility.yul\":11396:11418   */\n      add\n        /* \"#utility.yul\":11378:11428   */\n      tag_303\n      jump\t// in\n    tag_395:\n        /* \"#utility.yul\":11368:11428   */\n      swap4\n      pop\n        /* \"#utility.yul\":11322:11438   */\n      pop\n        /* \"#utility.yul\":11477:11480   */\n      0xe0\n        /* \"#utility.yul\":11504:11554   */\n      tag_396\n        /* \"#utility.yul\":11546:11553   */\n      dup13\n        /* \"#utility.yul\":11537:11543   */\n      dup3\n        /* \"#utility.yul\":11526:11535   */\n      dup14\n        /* \"#utility.yul\":11522:11544   */\n      add\n        /* \"#utility.yul\":11504:11554   */\n      tag_303\n      jump\t// in\n    tag_396:\n        /* \"#utility.yul\":11494:11554   */\n      swap3\n      pop\n        /* \"#utility.yul\":11448:11564   */\n      pop\n        /* \"#utility.yul\":11603:11606   */\n      0x0100\n        /* \"#utility.yul\":11630:11680   */\n      tag_397\n        /* \"#utility.yul\":11672:11679   */\n      dup13\n        /* \"#utility.yul\":11663:11669   */\n      dup3\n        /* \"#utility.yul\":11652:11661   */\n      dup14\n        /* \"#utility.yul\":11648:11670   */\n      add\n        /* \"#utility.yul\":11630:11680   */\n      tag_303\n      jump\t// in\n    tag_397:\n        /* \"#utility.yul\":11620:11680   */\n      swap2\n      pop\n        /* \"#utility.yul\":11574:11690   */\n      pop\n        /* \"#utility.yul\":10000:11697   */\n      swap3\n      swap6\n      swap9\n      pop\n      swap3\n      swap6\n      swap9\n      pop\n      swap3\n      swap6\n      swap9\n      jump\t// out\n        /* \"#utility.yul\":11703:12173   */\n    tag_56:\n        /* \"#utility.yul\":11769:11775   */\n      0x00\n        /* \"#utility.yul\":11777:11783   */\n      dup1\n        /* \"#utility.yul\":11826:11828   */\n      0x40\n        /* \"#utility.yul\":11814:11823   */\n      dup4\n        /* \"#utility.yul\":11805:11812   */\n      dup6\n        /* \"#utility.yul\":11801:11824   */\n      sub\n        /* \"#utility.yul\":11797:11829   */\n      slt\n        /* \"#utility.yul\":11794:11913   */\n      iszero\n      tag_399\n      jumpi\n        /* \"#utility.yul\":11832:11911   */\n      tag_400\n      tag_367\n      jump\t// in\n    tag_400:\n        /* \"#utility.yul\":11794:11913   */\n    tag_399:\n        /* \"#utility.yul\":11952:11953   */\n      0x00\n        /* \"#utility.yul\":11977:12028   */\n      tag_401\n        /* \"#utility.yul\":12020:12027   */\n      dup6\n        /* \"#utility.yul\":12011:12017   */\n      dup3\n        /* \"#utility.yul\":12000:12009   */\n      dup7\n        /* \"#utility.yul\":11996:12018   */\n      add\n        /* \"#utility.yul\":11977:12028   */\n      tag_360\n      jump\t// in\n    tag_401:\n        /* \"#utility.yul\":11967:12028   */\n      swap3\n      pop\n        /* \"#utility.yul\":11923:12038   */\n      pop\n        /* \"#utility.yul\":12077:12079   */\n      0x20\n        /* \"#utility.yul\":12103:12156   */\n      tag_402\n        /* \"#utility.yul\":12148:12155   */\n      dup6\n        /* \"#utility.yul\":12139:12145   */\n      dup3\n        /* \"#utility.yul\":12128:12137   */\n      dup7\n        /* \"#utility.yul\":12124:12146   */\n      add\n        /* \"#utility.yul\":12103:12156   */\n      tag_318\n      jump\t// in\n    tag_402:\n        /* \"#utility.yul\":12093:12156   */\n      swap2\n      pop\n        /* \"#utility.yul\":12048:12166   */\n      pop\n        /* \"#utility.yul\":11703:12173   */\n      swap3\n      pop\n      swap3\n      swap1\n      pop\n      jump\t// out\n        /* \"#utility.yul\":12179:12459   */\n    tag_403:\n        /* \"#utility.yul\":12310:12320   */\n      0x00\n        /* \"#utility.yul\":12345:12453   */\n      tag_405\n        /* \"#utility.yul\":12449:12452   */\n      dup4\n        /* \"#utility.yul\":12441:12447   */\n      dup4\n        /* \"#utility.yul\":12345:12453   */\n      tag_406\n      jump\t// in\n    tag_405:\n        /* \"#utility.yul\":12331:12453   */\n      swap1\n      pop\n        /* \"#utility.yul\":12179:12459   */\n      swap3\n      swap2\n      pop\n      pop\n      jump\t// out\n        /* \"#utility.yul\":12465:12741   */\n    tag_407:\n        /* \"#utility.yul\":12594:12604   */\n      0x00\n        /* \"#utility.yul\":12629:12735   */\n      tag_409\n        /* \"#utility.yul\":12731:12734   */\n      dup4\n        /* \"#utility.yul\":12723:12729   */\n      dup4\n        /* \"#utility.yul\":12629:12735   */\n      tag_410\n      jump\t// in\n    tag_409:\n        /* \"#utility.yul\":12615:12735   */\n      swap1\n      pop\n        /* \"#utility.yul\":12465:12741   */\n      swap3\n      swap2\n      pop\n      pop\n      jump\t// out\n        /* \"#utility.yul\":12747:13062   */\n    tag_411:\n        /* \"#utility.yul\":12884:12894   */\n      0x00\n        /* \"#utility.yul\":12905:13019   */\n      tag_413\n        /* \"#utility.yul\":13015:13018   */\n      dup4\n        /* \"#utility.yul\":13007:13013   */\n      dup4\n        /* \"#utility.yul\":12905:13019   */\n      tag_414\n      jump\t// in\n    tag_413:\n        /* \"#utility.yul\":13051:13055   */\n      0x40\n        /* \"#utility.yul\":13046:13049   */\n      dup4\n        /* \"#utility.yul\":13042:13056   */\n      add\n        /* \"#utility.yul\":13028:13056   */\n      swap1\n      pop\n        /* \"#utility.yul\":12747:13062   */\n      swap3\n      swap2\n      pop\n      pop\n      jump\t// out\n        /* \"#utility.yul\":13068:13379   */\n    tag_415:\n        /* \"#utility.yul\":13203:13213   */\n      0x00\n        /* \"#utility.yul\":13224:13336   */\n      tag_417\n        /* \"#utility.yul\":13332:13335   */\n      dup4\n        /* \"#utility.yul\":13324:13330   */\n      dup4\n        /* \"#utility.yul\":13224:13336   */\n      tag_418\n      jump\t// in\n    tag_417:\n        /* \"#utility.yul\":13368:13372   */\n      0x40\n        /* \"#utility.yul\":13363:13366   */\n      dup4\n        /* \"#utility.yul\":13359:13373   */\n      add\n        /* \"#utility.yul\":13345:13373   */\n      swap1\n      pop\n        /* \"#utility.yul\":13068:13379   */\n      swap3\n      swap2\n      pop\n      pop\n      jump\t// out\n        /* \"#utility.yul\":13385:13527   */\n    tag_419:\n        /* \"#utility.yul\":13488:13520   */\n      tag_421\n        /* \"#utility.yul\":13514:13519   */\n      dup2\n        /* \"#utility.yul\":13488:13520   */\n      tag_422\n      jump\t// in\n    tag_421:\n        /* \"#utility.yul\":13483:13486   */\n      dup3\n        /* \"#utility.yul\":13476:13521   */\n      mstore\n        /* \"#utility.yul\":13385:13527   */\n      pop\n      pop\n      jump\t// out\n        /* \"#utility.yul\":13533:13641   */\n    tag_423:\n        /* \"#utility.yul\":13610:13634   */\n      tag_425\n        /* \"#utility.yul\":13628:13633   */\n      dup2\n        /* \"#utility.yul\":13610:13634   */\n      tag_426\n      jump\t// in\n    tag_425:\n        /* \"#utility.yul\":13605:13608   */\n      dup3\n        /* \"#utility.yul\":13598:13635   */\n      mstore\n        /* \"#utility.yul\":13533:13641   */\n      pop\n      pop\n      jump\t// out\n        /* \"#utility.yul\":13647:13765   */\n    tag_427:\n        /* \"#utility.yul\":13734:13758   */\n      tag_429\n        /* \"#utility.yul\":13752:13757   */\n      dup2\n        /* \"#utility.yul\":13734:13758   */\n      tag_426\n      jump\t// in\n    tag_429:\n        /* \"#utility.yul\":13729:13732   */\n      dup3\n        /* \"#utility.yul\":13722:13759   */\n      mstore\n        /* \"#utility.yul\":13647:13765   */\n      pop\n      pop\n      jump\t// out\n        /* \"#utility.yul\":13837:14945   */\n    tag_430:\n        /* \"#utility.yul\":14018:14021   */\n      0x00\n        /* \"#utility.yul\":14041:14147   */\n      tag_432\n        /* \"#utility.yul\":14140:14146   */\n      dup4\n        /* \"#utility.yul\":14135:14138   */\n      dup6\n        /* \"#utility.yul\":14041:14147   */\n      tag_433\n      jump\t// in\n    tag_432:\n        /* \"#utility.yul\":14034:14147   */\n      swap4\n      pop\n        /* \"#utility.yul\":14173:14176   */\n      dup4\n        /* \"#utility.yul\":14218:14222   */\n      0x20\n        /* \"#utility.yul\":14210:14216   */\n      dup5\n        /* \"#utility.yul\":14206:14223   */\n      mul\n        /* \"#utility.yul\":14201:14204   */\n      dup6\n        /* \"#utility.yul\":14197:14224   */\n      add\n        /* \"#utility.yul\":14248:14338   */\n      tag_434\n        /* \"#utility.yul\":14332:14337   */\n      dup5\n        /* \"#utility.yul\":14248:14338   */\n      tag_435\n      jump\t// in\n    tag_434:\n        /* \"#utility.yul\":14361:14368   */\n      dup1\n        /* \"#utility.yul\":14392:14393   */\n      0x00\n        /* \"#utility.yul\":14377:14900   */\n    tag_436:\n        /* \"#utility.yul\":14402:14408   */\n      dup8\n        /* \"#utility.yul\":14399:14400   */\n      dup2\n        /* \"#utility.yul\":14396:14409   */\n      lt\n        /* \"#utility.yul\":14377:14900   */\n      iszero\n      tag_438\n      jumpi\n        /* \"#utility.yul\":14473:14482   */\n      dup5\n        /* \"#utility.yul\":14467:14471   */\n      dup5\n        /* \"#utility.yul\":14463:14483   */\n      sub\n        /* \"#utility.yul\":14458:14461   */\n      dup10\n        /* \"#utility.yul\":14451:14484   */\n      mstore\n        /* \"#utility.yul\":14518:14592   */\n      tag_439\n        /* \"#utility.yul\":14585:14591   */\n      dup3\n        /* \"#utility.yul\":14576:14583   */\n      dup5\n        /* \"#utility.yul\":14518:14592   */\n      tag_440\n      jump\t// in\n    tag_439:\n        /* \"#utility.yul\":14613:14739   */\n      tag_441\n        /* \"#utility.yul\":14734:14738   */\n      dup6\n        /* \"#utility.yul\":14719:14732   */\n      dup3\n        /* \"#utility.yul\":14613:14739   */\n      tag_403\n      jump\t// in\n    tag_441:\n        /* \"#utility.yul\":14605:14739   */\n      swap5\n      pop\n        /* \"#utility.yul\":14762:14856   */\n      tag_442\n        /* \"#utility.yul\":14849:14855   */\n      dup4\n        /* \"#utility.yul\":14762:14856   */\n      tag_443\n      jump\t// in\n    tag_442:\n        /* \"#utility.yul\":14752:14856   */\n      swap3\n      pop\n        /* \"#utility.yul\":14885:14889   */\n      0x20\n        /* \"#utility.yul\":14880:14883   */\n      dup11\n        /* \"#utility.yul\":14876:14890   */\n      add\n        /* \"#utility.yul\":14869:14890   */\n      swap10\n      pop\n        /* \"#utility.yul\":14437:14900   */\n      pop\n        /* \"#utility.yul\":14424:14425   */\n      0x01\n        /* \"#utility.yul\":14421:14422   */\n      dup2\n        /* \"#utility.yul\":14417:14426   */\n      add\n        /* \"#utility.yul\":14412:14426   */\n      swap1\n      pop\n        /* \"#utility.yul\":14377:14900   */\n      jump(tag_436)\n    tag_438:\n        /* \"#utility.yul\":14381:14395   */\n      pop\n        /* \"#utility.yul\":14916:14920   */\n      dup3\n        /* \"#utility.yul\":14909:14920   */\n      swap8\n      pop\n        /* \"#utility.yul\":14936:14939   */\n      dup8\n        /* \"#utility.yul\":14929:14939   */\n      swap5\n      pop\n        /* \"#utility.yul\":14023:14945   */\n      pop\n      pop\n      pop\n      pop\n        /* \"#utility.yul\":13837:14945   */\n      swap4\n      swap3\n      pop\n      pop\n      pop\n      jump\t// out\n        /* \"#utility.yul\":15017:16148   */\n    tag_444:\n        /* \"#utility.yul\":15186:15189   */\n      0x00\n        /* \"#utility.yul\":15215:15299   */\n      tag_446\n        /* \"#utility.yul\":15293:15298   */\n      dup3\n        /* \"#utility.yul\":15215:15299   */\n      tag_447\n      jump\t// in\n    tag_446:\n        /* \"#utility.yul\":15315:15421   */\n      tag_448\n        /* \"#utility.yul\":15414:15420   */\n      dup2\n        /* \"#utility.yul\":15409:15412   */\n      dup6\n        /* \"#utility.yul\":15315:15421   */\n      tag_433\n      jump\t// in\n    tag_448:\n        /* \"#utility.yul\":15308:15421   */\n      swap4\n      pop\n        /* \"#utility.yul\":15447:15450   */\n      dup4\n        /* \"#utility.yul\":15492:15496   */\n      0x20\n        /* \"#utility.yul\":15484:15490   */\n      dup3\n        /* \"#utility.yul\":15480:15497   */\n      mul\n        /* \"#utility.yul\":15475:15478   */\n      dup6\n        /* \"#utility.yul\":15471:15498   */\n      add\n        /* \"#utility.yul\":15522:15608   */\n      tag_449\n        /* \"#utility.yul\":15602:15607   */\n      dup6\n        /* \"#utility.yul\":15522:15608   */\n      tag_450\n      jump\t// in\n    tag_449:\n        /* \"#utility.yul\":15631:15638   */\n      dup1\n        /* \"#utility.yul\":15662:15663   */\n      0x00\n        /* \"#utility.yul\":15647:16103   */\n    tag_451:\n        /* \"#utility.yul\":15672:15678   */\n      dup6\n        /* \"#utility.yul\":15669:15670   */\n      dup2\n        /* \"#utility.yul\":15666:15679   */\n      lt\n        /* \"#utility.yul\":15647:16103   */\n      iszero\n      tag_453\n      jumpi\n        /* \"#utility.yul\":15743:15752   */\n      dup5\n        /* \"#utility.yul\":15737:15741   */\n      dup5\n        /* \"#utility.yul\":15733:15753   */\n      sub\n        /* \"#utility.yul\":15728:15731   */\n      dup10\n        /* \"#utility.yul\":15721:15754   */\n      mstore\n        /* \"#utility.yul\":15794:15800   */\n      dup2\n        /* \"#utility.yul\":15788:15801   */\n      mload\n        /* \"#utility.yul\":15822:15946   */\n      tag_454\n        /* \"#utility.yul\":15941:15945   */\n      dup6\n        /* \"#utility.yul\":15926:15939   */\n      dup3\n        /* \"#utility.yul\":15822:15946   */\n      tag_407\n      jump\t// in\n    tag_454:\n        /* \"#utility.yul\":15814:15946   */\n      swap5\n      pop\n        /* \"#utility.yul\":15969:16059   */\n      tag_455\n        /* \"#utility.yul\":16052:16058   */\n      dup4\n        /* \"#utility.yul\":15969:16059   */\n      tag_456\n      jump\t// in\n    tag_455:\n        /* \"#utility.yul\":15959:16059   */\n      swap3\n      pop\n        /* \"#utility.yul\":16088:16092   */\n      0x20\n        /* \"#utility.yul\":16083:16086   */\n      dup11\n        /* \"#utility.yul\":16079:16093   */\n      add\n        /* \"#utility.yul\":16072:16093   */\n      swap10\n      pop\n        /* \"#utility.yul\":15707:16103   */\n      pop\n        /* \"#utility.yul\":15694:15695   */\n      0x01\n        /* \"#utility.yul\":15691:15692   */\n      dup2\n        /* \"#utility.yul\":15687:15696   */\n      add\n        /* \"#utility.yul\":15682:15696   */\n      swap1\n      pop\n        /* \"#utility.yul\":15647:16103   */\n      jump(tag_451)\n    tag_453:\n        /* \"#utility.yul\":15651:15665   */\n      pop\n        /* \"#utility.yul\":16119:16123   */\n      dup3\n        /* \"#utility.yul\":16112:16123   */\n      swap8\n      pop\n        /* \"#utility.yul\":16139:16142   */\n      dup8\n        /* \"#utility.yul\":16132:16142   */\n      swap6\n      pop\n        /* \"#utility.yul\":15191:16148   */\n      pop\n      pop\n      pop\n      pop\n      pop\n        /* \"#utility.yul\":15017:16148   */\n      swap3\n      swap2\n      pop\n      pop\n      jump\t// out\n        /* \"#utility.yul\":16226:17179   */\n    tag_457:\n        /* \"#utility.yul\":16413:16416   */\n      0x00\n        /* \"#utility.yul\":16436:16545   */\n      tag_459\n        /* \"#utility.yul\":16538:16544   */\n      dup4\n        /* \"#utility.yul\":16533:16536   */\n      dup6\n        /* \"#utility.yul\":16436:16545   */\n      tag_460\n      jump\t// in\n    tag_459:\n        /* \"#utility.yul\":16429:16545   */\n      swap4\n      pop\n        /* \"#utility.yul\":16569:16662   */\n      tag_461\n        /* \"#utility.yul\":16656:16661   */\n      dup3\n        /* \"#utility.yul\":16569:16662   */\n      tag_462\n      jump\t// in\n    tag_461:\n        /* \"#utility.yul\":16685:16692   */\n      dup1\n        /* \"#utility.yul\":16716:16717   */\n      0x00\n        /* \"#utility.yul\":16701:17154   */\n    tag_463:\n        /* \"#utility.yul\":16726:16732   */\n      dup6\n        /* \"#utility.yul\":16723:16724   */\n      dup2\n        /* \"#utility.yul\":16720:16733   */\n      lt\n        /* \"#utility.yul\":16701:17154   */\n      iszero\n      tag_465\n      jumpi\n        /* \"#utility.yul\":16796:16873   */\n      tag_466\n        /* \"#utility.yul\":16866:16872   */\n      dup3\n        /* \"#utility.yul\":16857:16864   */\n      dup5\n        /* \"#utility.yul\":16796:16873   */\n      tag_467\n      jump\t// in\n    tag_466:\n        /* \"#utility.yul\":16893:17024   */\n      tag_468\n        /* \"#utility.yul\":17020:17023   */\n      dup9\n        /* \"#utility.yul\":17005:17018   */\n      dup3\n        /* \"#utility.yul\":16893:17024   */\n      tag_411\n      jump\t// in\n    tag_468:\n        /* \"#utility.yul\":16886:17024   */\n      swap8\n      pop\n        /* \"#utility.yul\":17047:17144   */\n      tag_469\n        /* \"#utility.yul\":17137:17143   */\n      dup4\n        /* \"#utility.yul\":17047:17144   */\n      tag_470\n      jump\t// in\n    tag_469:\n        /* \"#utility.yul\":17037:17144   */\n      swap3\n      pop\n        /* \"#utility.yul\":16761:17154   */\n      pop\n        /* \"#utility.yul\":16748:16749   */\n      0x01\n        /* \"#utility.yul\":16745:16746   */\n      dup2\n        /* \"#utility.yul\":16741:16750   */\n      add\n        /* \"#utility.yul\":16736:16750   */\n      swap1\n      pop\n        /* \"#utility.yul\":16701:17154   */\n      jump(tag_463)\n    tag_465:\n        /* \"#utility.yul\":16705:16719   */\n      pop\n        /* \"#utility.yul\":17170:17173   */\n      dup6\n        /* \"#utility.yul\":17163:17173   */\n      swap3\n      pop\n        /* \"#utility.yul\":16418:17179   */\n      pop\n      pop\n        /* \"#utility.yul\":16226:17179   */\n      swap4\n      swap3\n      pop\n      pop\n      pop\n      jump\t// out\n        /* \"#utility.yul\":17257:18233   */\n    tag_471:\n        /* \"#utility.yul\":17432:17435   */\n      0x00\n        /* \"#utility.yul\":17461:17548   */\n      tag_473\n        /* \"#utility.yul\":17542:17547   */\n      dup3\n        /* \"#utility.yul\":17461:17548   */\n      tag_474\n      jump\t// in\n    tag_473:\n        /* \"#utility.yul\":17564:17673   */\n      tag_475\n        /* \"#utility.yul\":17666:17672   */\n      dup2\n        /* \"#utility.yul\":17661:17664   */\n      dup6\n        /* \"#utility.yul\":17564:17673   */\n      tag_460\n      jump\t// in\n    tag_475:\n        /* \"#utility.yul\":17557:17673   */\n      swap4\n      pop\n        /* \"#utility.yul\":17697:17786   */\n      tag_476\n        /* \"#utility.yul\":17780:17785   */\n      dup4\n        /* \"#utility.yul\":17697:17786   */\n      tag_477\n      jump\t// in\n    tag_476:\n        /* \"#utility.yul\":17809:17816   */\n      dup1\n        /* \"#utility.yul\":17840:17841   */\n      0x00\n        /* \"#utility.yul\":17825:18208   */\n    tag_478:\n        /* \"#utility.yul\":17850:17856   */\n      dup4\n        /* \"#utility.yul\":17847:17848   */\n      dup2\n        /* \"#utility.yul\":17844:17857   */\n      lt\n        /* \"#utility.yul\":17825:18208   */\n      iszero\n      tag_480\n      jumpi\n        /* \"#utility.yul\":17926:17932   */\n      dup2\n        /* \"#utility.yul\":17920:17933   */\n      mload\n        /* \"#utility.yul\":17953:18082   */\n      tag_481\n        /* \"#utility.yul\":18078:18081   */\n      dup9\n        /* \"#utility.yul\":18063:18076   */\n      dup3\n        /* \"#utility.yul\":17953:18082   */\n      tag_415\n      jump\t// in\n    tag_481:\n        /* \"#utility.yul\":17946:18082   */\n      swap8\n      pop\n        /* \"#utility.yul\":18105:18198   */\n      tag_482\n        /* \"#utility.yul\":18191:18197   */\n      dup4\n        /* \"#utility.yul\":18105:18198   */\n      tag_483\n      jump\t// in\n    tag_482:\n        /* \"#utility.yul\":18095:18198   */\n      swap3\n      pop\n        /* \"#utility.yul\":17885:18208   */\n      pop\n        /* \"#utility.yul\":17872:17873   */\n      0x01\n        /* \"#utility.yul\":17869:17870   */\n      dup2\n        /* \"#utility.yul\":17865:17874   */\n      add\n        /* \"#utility.yul\":17860:17874   */\n      swap1\n      pop\n        /* \"#utility.yul\":17825:18208   */\n      jump(tag_478)\n    tag_480:\n        /* \"#utility.yul\":17829:17843   */\n      pop\n        /* \"#utility.yul\":18224:18227   */\n      dup6\n        /* \"#utility.yul\":18217:18227   */\n      swap4\n      pop\n        /* \"#utility.yul\":17437:18233   */\n      pop\n      pop\n      pop\n        /* \"#utility.yul\":17257:18233   */\n      swap3\n      swap2\n      pop\n      pop\n      jump\t// out\n        /* \"#utility.yul\":18239:18338   */\n    tag_484:\n        /* \"#utility.yul\":18310:18331   */\n      tag_486\n        /* \"#utility.yul\":18325:18330   */\n      dup2\n        /* \"#utility.yul\":18310:18331   */\n      tag_487\n      jump\t// in\n    tag_486:\n        /* \"#utility.yul\":18305:18308   */\n      dup3\n        /* \"#utility.yul\":18298:18332   */\n      mstore\n        /* \"#utility.yul\":18239:18338   */\n      pop\n      pop\n      jump\t// out\n        /* \"#utility.yul\":18344:18453   */\n    tag_488:\n        /* \"#utility.yul\":18425:18446   */\n      tag_490\n        /* \"#utility.yul\":18440:18445   */\n      dup2\n        /* \"#utility.yul\":18425:18446   */\n      tag_487\n      jump\t// in\n    tag_490:\n        /* \"#utility.yul\":18420:18423   */\n      dup3\n        /* \"#utility.yul\":18413:18447   */\n      mstore\n        /* \"#utility.yul\":18344:18453   */\n      pop\n      pop\n      jump\t// out\n        /* \"#utility.yul\":18459:18567   */\n    tag_491:\n        /* \"#utility.yul\":18536:18560   */\n      tag_493\n        /* \"#utility.yul\":18554:18559   */\n      dup2\n        /* \"#utility.yul\":18536:18560   */\n      tag_494\n      jump\t// in\n    tag_493:\n        /* \"#utility.yul\":18531:18534   */\n      dup3\n        /* \"#utility.yul\":18524:18561   */\n      mstore\n        /* \"#utility.yul\":18459:18567   */\n      pop\n      pop\n      jump\t// out\n        /* \"#utility.yul\":18573:18691   */\n    tag_495:\n        /* \"#utility.yul\":18660:18684   */\n      tag_497\n        /* \"#utility.yul\":18678:18683   */\n      dup2\n        /* \"#utility.yul\":18660:18684   */\n      tag_494\n      jump\t// in\n    tag_497:\n        /* \"#utility.yul\":18655:18658   */\n      dup3\n        /* \"#utility.yul\":18648:18685   */\n      mstore\n        /* \"#utility.yul\":18573:18691   */\n      pop\n      pop\n      jump\t// out\n        /* \"#utility.yul\":18697:19063   */\n    tag_498:\n        /* \"#utility.yul\":18839:18842   */\n      0x00\n        /* \"#utility.yul\":18860:18927   */\n      tag_500\n        /* \"#utility.yul\":18924:18926   */\n      0x13\n        /* \"#utility.yul\":18919:18922   */\n      dup4\n        /* \"#utility.yul\":18860:18927   */\n      tag_501\n      jump\t// in\n    tag_500:\n        /* \"#utility.yul\":18853:18927   */\n      swap2\n      pop\n        /* \"#utility.yul\":18936:19029   */\n      tag_502\n        /* \"#utility.yul\":19025:19028   */\n      dup3\n        /* \"#utility.yul\":18936:19029   */\n      tag_503\n      jump\t// in\n    tag_502:\n        /* \"#utility.yul\":19054:19056   */\n      0x20\n        /* \"#utility.yul\":19049:19052   */\n      dup3\n        /* \"#utility.yul\":19045:19057   */\n      add\n        /* \"#utility.yul\":19038:19057   */\n      swap1\n      pop\n        /* \"#utility.yul\":18697:19063   */\n      swap2\n      swap1\n      pop\n      jump\t// out\n        /* \"#utility.yul\":19069:19435   */\n    tag_504:\n        /* \"#utility.yul\":19211:19214   */\n      0x00\n        /* \"#utility.yul\":19232:19299   */\n      tag_506\n        /* \"#utility.yul\":19296:19298   */\n      0x10\n        /* \"#utility.yul\":19291:19294   */\n      dup4\n        /* \"#utility.yul\":19232:19299   */\n      tag_501\n      jump\t// in\n    tag_506:\n        /* \"#utility.yul\":19225:19299   */\n      swap2\n      pop\n        /* \"#utility.yul\":19308:19401   */\n      tag_507\n        /* \"#utility.yul\":19397:19400   */\n      dup3\n        /* \"#utility.yul\":19308:19401   */\n      tag_508\n      jump\t// in\n    tag_507:\n        /* \"#utility.yul\":19426:19428   */\n      0x20\n        /* \"#utility.yul\":19421:19424   */\n      dup3\n        /* \"#utility.yul\":19417:19429   */\n      add\n        /* \"#utility.yul\":19410:19429   */\n      swap1\n      pop\n        /* \"#utility.yul\":19069:19435   */\n      swap2\n      swap1\n      pop\n      jump\t// out\n        /* \"#utility.yul\":19441:19807   */\n    tag_509:\n        /* \"#utility.yul\":19583:19586   */\n      0x00\n        /* \"#utility.yul\":19604:19671   */\n      tag_511\n        /* \"#utility.yul\":19668:19670   */\n      0x15\n        /* \"#utility.yul\":19663:19666   */\n      dup4\n        /* \"#utility.yul\":19604:19671   */\n      tag_501\n      jump\t// in\n    tag_511:\n        /* \"#utility.yul\":19597:19671   */\n      swap2\n      pop\n        /* \"#utility.yul\":19680:19773   */\n      tag_512\n        /* \"#utility.yul\":19769:19772   */\n      dup3\n        /* \"#utility.yul\":19680:19773   */\n      tag_513\n      jump\t// in\n    tag_512:\n        /* \"#utility.yul\":19798:19800   */\n      0x20\n        /* \"#utility.yul\":19793:19796   */\n      dup3\n        /* \"#utility.yul\":19789:19801   */\n      add\n        /* \"#utility.yul\":19782:19801   */\n      swap1\n      pop\n        /* \"#utility.yul\":19441:19807   */\n      swap2\n      swap1\n      pop\n      jump\t// out\n        /* \"#utility.yul\":19813:20179   */\n    tag_514:\n        /* \"#utility.yul\":19955:19958   */\n      0x00\n        /* \"#utility.yul\":19976:20043   */\n      tag_516\n        /* \"#utility.yul\":20040:20042   */\n      0x0d\n        /* \"#utility.yul\":20035:20038   */\n      dup4\n        /* \"#utility.yul\":19976:20043   */\n      tag_501\n      jump\t// in\n    tag_516:\n        /* \"#utility.yul\":19969:20043   */\n      swap2\n      pop\n        /* \"#utility.yul\":20052:20145   */\n      tag_517\n        /* \"#utility.yul\":20141:20144   */\n      dup3\n        /* \"#utility.yul\":20052:20145   */\n      tag_518\n      jump\t// in\n    tag_517:\n        /* \"#utility.yul\":20170:20172   */\n      0x20\n        /* \"#utility.yul\":20165:20168   */\n      dup3\n        /* \"#utility.yul\":20161:20173   */\n      add\n        /* \"#utility.yul\":20154:20173   */\n      swap1\n      pop\n        /* \"#utility.yul\":19813:20179   */\n      swap2\n      swap1\n      pop\n      jump\t// out\n        /* \"#utility.yul\":20247:21937   */\n    tag_406:\n        /* \"#utility.yul\":20368:20371   */\n      0x00\n        /* \"#utility.yul\":20404:20408   */\n      0xc0\n        /* \"#utility.yul\":20399:20402   */\n      dup4\n        /* \"#utility.yul\":20395:20409   */\n      add\n        /* \"#utility.yul\":20485:20535   */\n      tag_520\n        /* \"#utility.yul\":20529:20533   */\n      0x00\n        /* \"#utility.yul\":20522:20527   */\n      dup5\n        /* \"#utility.yul\":20518:20534   */\n      add\n        /* \"#utility.yul\":20511:20516   */\n      dup5\n        /* \"#utility.yul\":20485:20535   */\n      tag_521\n      jump\t// in\n    tag_520:\n        /* \"#utility.yul\":20548:20611   */\n      tag_522\n        /* \"#utility.yul\":20605:20609   */\n      0x00\n        /* \"#utility.yul\":20600:20603   */\n      dup7\n        /* \"#utility.yul\":20596:20610   */\n      add\n        /* \"#utility.yul\":20582:20594   */\n      dup3\n        /* \"#utility.yul\":20548:20611   */\n      tag_423\n      jump\t// in\n    tag_522:\n        /* \"#utility.yul\":20419:20621   */\n      pop\n        /* \"#utility.yul\":20688:20738   */\n      tag_523\n        /* \"#utility.yul\":20732:20736   */\n      0x20\n        /* \"#utility.yul\":20725:20730   */\n      dup5\n        /* \"#utility.yul\":20721:20737   */\n      add\n        /* \"#utility.yul\":20714:20719   */\n      dup5\n        /* \"#utility.yul\":20688:20738   */\n      tag_524\n      jump\t// in\n    tag_523:\n        /* \"#utility.yul\":20751:20814   */\n      tag_525\n        /* \"#utility.yul\":20808:20812   */\n      0x20\n        /* \"#utility.yul\":20803:20806   */\n      dup7\n        /* \"#utility.yul\":20799:20813   */\n      add\n        /* \"#utility.yul\":20785:20797   */\n      dup3\n        /* \"#utility.yul\":20751:20814   */\n      tag_526\n      jump\t// in\n    tag_525:\n        /* \"#utility.yul\":20631:20824   */\n      pop\n        /* \"#utility.yul\":20891:20938   */\n      tag_527\n        /* \"#utility.yul\":20932:20936   */\n      0x40\n        /* \"#utility.yul\":20925:20930   */\n      dup5\n        /* \"#utility.yul\":20921:20937   */\n      add\n        /* \"#utility.yul\":20914:20919   */\n      dup5\n        /* \"#utility.yul\":20891:20938   */\n      tag_528\n      jump\t// in\n    tag_527:\n        /* \"#utility.yul\":20951:21008   */\n      tag_529\n        /* \"#utility.yul\":21002:21006   */\n      0x40\n        /* \"#utility.yul\":20997:21000   */\n      dup7\n        /* \"#utility.yul\":20993:21007   */\n      add\n        /* \"#utility.yul\":20979:20991   */\n      dup3\n        /* \"#utility.yul\":20951:21008   */\n      tag_484\n      jump\t// in\n    tag_529:\n        /* \"#utility.yul\":20834:21018   */\n      pop\n        /* \"#utility.yul\":21083:21133   */\n      tag_530\n        /* \"#utility.yul\":21127:21131   */\n      0x60\n        /* \"#utility.yul\":21120:21125   */\n      dup5\n        /* \"#utility.yul\":21116:21132   */\n      add\n        /* \"#utility.yul\":21109:21114   */\n      dup5\n        /* \"#utility.yul\":21083:21133   */\n      tag_531\n      jump\t// in\n    tag_530:\n        /* \"#utility.yul\":21146:21209   */\n      tag_532\n        /* \"#utility.yul\":21203:21207   */\n      0x60\n        /* \"#utility.yul\":21198:21201   */\n      dup7\n        /* \"#utility.yul\":21194:21208   */\n      add\n        /* \"#utility.yul\":21180:21192   */\n      dup3\n        /* \"#utility.yul\":21146:21209   */\n      tag_533\n      jump\t// in\n    tag_532:\n        /* \"#utility.yul\":21028:21219   */\n      pop\n        /* \"#utility.yul\":21296:21346   */\n      tag_534\n        /* \"#utility.yul\":21340:21344   */\n      0x80\n        /* \"#utility.yul\":21333:21338   */\n      dup5\n        /* \"#utility.yul\":21329:21345   */\n      add\n        /* \"#utility.yul\":21322:21327   */\n      dup5\n        /* \"#utility.yul\":21296:21346   */\n      tag_531\n      jump\t// in\n    tag_534:\n        /* \"#utility.yul\":21359:21422   */\n      tag_535\n        /* \"#utility.yul\":21416:21420   */\n      0x80\n        /* \"#utility.yul\":21411:21414   */\n      dup7\n        /* \"#utility.yul\":21407:21421   */\n      add\n        /* \"#utility.yul\":21393:21405   */\n      dup3\n        /* \"#utility.yul\":21359:21422   */\n      tag_533\n      jump\t// in\n    tag_535:\n        /* \"#utility.yul\":21229:21432   */\n      pop\n        /* \"#utility.yul\":21527:21639   */\n      tag_536\n        /* \"#utility.yul\":21633:21637   */\n      0xa0\n        /* \"#utility.yul\":21626:21631   */\n      dup5\n        /* \"#utility.yul\":21622:21638   */\n      add\n        /* \"#utility.yul\":21615:21620   */\n      dup5\n        /* \"#utility.yul\":21527:21639   */\n      tag_537\n      jump\t// in\n    tag_536:\n        /* \"#utility.yul\":21686:21689   */\n      dup6\n        /* \"#utility.yul\":21680:21684   */\n      dup4\n        /* \"#utility.yul\":21676:21690   */\n      sub\n        /* \"#utility.yul\":21669:21673   */\n      0xa0\n        /* \"#utility.yul\":21664:21667   */\n      dup8\n        /* \"#utility.yul\":21660:21674   */\n      add\n        /* \"#utility.yul\":21653:21691   */\n      mstore\n        /* \"#utility.yul\":21712:21899   */\n      tag_538\n        /* \"#utility.yul\":21894:21898   */\n      dup4\n        /* \"#utility.yul\":21880:21892   */\n      dup3\n        /* \"#utility.yul\":21866:21878   */\n      dup5\n        /* \"#utility.yul\":21712:21899   */\n      tag_457\n      jump\t// in\n    tag_538:\n        /* \"#utility.yul\":21704:21899   */\n      swap3\n      pop\n        /* \"#utility.yul\":21442:21910   */\n      pop\n      pop\n        /* \"#utility.yul\":21927:21931   */\n      dup1\n        /* \"#utility.yul\":21920:21931   */\n      swap2\n      pop\n        /* \"#utility.yul\":20373:21937   */\n      pop\n        /* \"#utility.yul\":20247:21937   */\n      swap3\n      swap2\n      pop\n      pop\n      jump\t// out\n        /* \"#utility.yul\":22005:23440   */\n    tag_410:\n        /* \"#utility.yul\":22124:22127   */\n      0x00\n        /* \"#utility.yul\":22160:22164   */\n      0xc0\n        /* \"#utility.yul\":22155:22158   */\n      dup4\n        /* \"#utility.yul\":22151:22165   */\n      add\n        /* \"#utility.yul\":22258:22262   */\n      0x00\n        /* \"#utility.yul\":22251:22256   */\n      dup4\n        /* \"#utility.yul\":22247:22263   */\n      add\n        /* \"#utility.yul\":22241:22264   */\n      mload\n        /* \"#utility.yul\":22277:22340   */\n      tag_540\n        /* \"#utility.yul\":22334:22338   */\n      0x00\n        /* \"#utility.yul\":22329:22332   */\n      dup7\n        /* \"#utility.yul\":22325:22339   */\n      add\n        /* \"#utility.yul\":22311:22323   */\n      dup3\n        /* \"#utility.yul\":22277:22340   */\n      tag_423\n      jump\t// in\n    tag_540:\n        /* \"#utility.yul\":22175:22350   */\n      pop\n        /* \"#utility.yul\":22434:22438   */\n      0x20\n        /* \"#utility.yul\":22427:22432   */\n      dup4\n        /* \"#utility.yul\":22423:22439   */\n      add\n        /* \"#utility.yul\":22417:22440   */\n      mload\n        /* \"#utility.yul\":22453:22516   */\n      tag_541\n        /* \"#utility.yul\":22510:22514   */\n      0x20\n        /* \"#utility.yul\":22505:22508   */\n      dup7\n        /* \"#utility.yul\":22501:22515   */\n      add\n        /* \"#utility.yul\":22487:22499   */\n      dup3\n        /* \"#utility.yul\":22453:22516   */\n      tag_526\n      jump\t// in\n    tag_541:\n        /* \"#utility.yul\":22360:22526   */\n      pop\n        /* \"#utility.yul\":22610:22614   */\n      0x40\n        /* \"#utility.yul\":22603:22608   */\n      dup4\n        /* \"#utility.yul\":22599:22615   */\n      add\n        /* \"#utility.yul\":22593:22616   */\n      mload\n        /* \"#utility.yul\":22629:22686   */\n      tag_542\n        /* \"#utility.yul\":22680:22684   */\n      0x40\n        /* \"#utility.yul\":22675:22678   */\n      dup7\n        /* \"#utility.yul\":22671:22685   */\n      add\n        /* \"#utility.yul\":22657:22669   */\n      dup3\n        /* \"#utility.yul\":22629:22686   */\n      tag_484\n      jump\t// in\n    tag_542:\n        /* \"#utility.yul\":22536:22696   */\n      pop\n        /* \"#utility.yul\":22778:22782   */\n      0x60\n        /* \"#utility.yul\":22771:22776   */\n      dup4\n        /* \"#utility.yul\":22767:22783   */\n      add\n        /* \"#utility.yul\":22761:22784   */\n      mload\n        /* \"#utility.yul\":22797:22860   */\n      tag_543\n        /* \"#utility.yul\":22854:22858   */\n      0x60\n        /* \"#utility.yul\":22849:22852   */\n      dup7\n        /* \"#utility.yul\":22845:22859   */\n      add\n        /* \"#utility.yul\":22831:22843   */\n      dup3\n        /* \"#utility.yul\":22797:22860   */\n      tag_533\n      jump\t// in\n    tag_543:\n        /* \"#utility.yul\":22706:22870   */\n      pop\n        /* \"#utility.yul\":22964:22968   */\n      0x80\n        /* \"#utility.yul\":22957:22962   */\n      dup4\n        /* \"#utility.yul\":22953:22969   */\n      add\n        /* \"#utility.yul\":22947:22970   */\n      mload\n        /* \"#utility.yul\":22983:23046   */\n      tag_544\n        /* \"#utility.yul\":23040:23044   */\n      0x80\n        /* \"#utility.yul\":23035:23038   */\n      dup7\n        /* \"#utility.yul\":23031:23045   */\n      add\n        /* \"#utility.yul\":23017:23029   */\n      dup3\n        /* \"#utility.yul\":22983:23046   */\n      tag_533\n      jump\t// in\n    tag_544:\n        /* \"#utility.yul\":22880:23056   */\n      pop\n        /* \"#utility.yul\":23154:23158   */\n      0xa0\n        /* \"#utility.yul\":23147:23152   */\n      dup4\n        /* \"#utility.yul\":23143:23159   */\n      add\n        /* \"#utility.yul\":23137:23160   */\n      mload\n        /* \"#utility.yul\":23207:23210   */\n      dup5\n        /* \"#utility.yul\":23201:23205   */\n      dup3\n        /* \"#utility.yul\":23197:23211   */\n      sub\n        /* \"#utility.yul\":23190:23194   */\n      0xa0\n        /* \"#utility.yul\":23185:23188   */\n      dup7\n        /* \"#utility.yul\":23181:23195   */\n      add\n        /* \"#utility.yul\":23174:23212   */\n      mstore\n        /* \"#utility.yul\":23233:23402   */\n      tag_545\n        /* \"#utility.yul\":23397:23401   */\n      dup3\n        /* \"#utility.yul\":23383:23395   */\n      dup3\n        /* \"#utility.yul\":23233:23402   */\n      tag_471\n      jump\t// in\n    tag_545:\n        /* \"#utility.yul\":23225:23402   */\n      swap2\n      pop\n        /* \"#utility.yul\":23066:23413   */\n      pop\n        /* \"#utility.yul\":23430:23434   */\n      dup1\n        /* \"#utility.yul\":23423:23434   */\n      swap2\n      pop\n        /* \"#utility.yul\":22129:23440   */\n      pop\n        /* \"#utility.yul\":22005:23440   */\n      swap3\n      swap2\n      pop\n      pop\n      jump\t// out\n        /* \"#utility.yul\":23514:24093   */\n    tag_414:\n        /* \"#utility.yul\":23669:23673   */\n      0x40\n        /* \"#utility.yul\":23664:23667   */\n      dup3\n        /* \"#utility.yul\":23660:23674   */\n      add\n        /* \"#utility.yul\":23747:23797   */\n      tag_547\n        /* \"#utility.yul\":23791:23795   */\n      0x00\n        /* \"#utility.yul\":23784:23789   */\n      dup4\n        /* \"#utility.yul\":23780:23796   */\n      add\n        /* \"#utility.yul\":23773:23778   */\n      dup4\n        /* \"#utility.yul\":23747:23797   */\n      tag_521\n      jump\t// in\n    tag_547:\n        /* \"#utility.yul\":23810:23873   */\n      tag_548\n        /* \"#utility.yul\":23867:23871   */\n      0x00\n        /* \"#utility.yul\":23862:23865   */\n      dup6\n        /* \"#utility.yul\":23858:23872   */\n      add\n        /* \"#utility.yul\":23844:23856   */\n      dup3\n        /* \"#utility.yul\":23810:23873   */\n      tag_423\n      jump\t// in\n    tag_548:\n        /* \"#utility.yul\":23684:23883   */\n      pop\n        /* \"#utility.yul\":23950:24000   */\n      tag_549\n        /* \"#utility.yul\":23994:23998   */\n      0x20\n        /* \"#utility.yul\":23987:23992   */\n      dup4\n        /* \"#utility.yul\":23983:23999   */\n      add\n        /* \"#utility.yul\":23976:23981   */\n      dup4\n        /* \"#utility.yul\":23950:24000   */\n      tag_531\n      jump\t// in\n    tag_549:\n        /* \"#utility.yul\":24013:24076   */\n      tag_550\n        /* \"#utility.yul\":24070:24074   */\n      0x20\n        /* \"#utility.yul\":24065:24068   */\n      dup6\n        /* \"#utility.yul\":24061:24075   */\n      add\n        /* \"#utility.yul\":24047:24059   */\n      dup3\n        /* \"#utility.yul\":24013:24076   */\n      tag_533\n      jump\t// in\n    tag_550:\n        /* \"#utility.yul\":23893:24086   */\n      pop\n        /* \"#utility.yul\":23638:24093   */\n      pop\n        /* \"#utility.yul\":23514:24093   */\n      pop\n      pop\n      jump\t// out\n        /* \"#utility.yul\":24167:24690   */\n    tag_418:\n        /* \"#utility.yul\":24320:24324   */\n      0x40\n        /* \"#utility.yul\":24315:24318   */\n      dup3\n        /* \"#utility.yul\":24311:24325   */\n      add\n        /* \"#utility.yul\":24415:24419   */\n      0x00\n        /* \"#utility.yul\":24408:24413   */\n      dup3\n        /* \"#utility.yul\":24404:24420   */\n      add\n        /* \"#utility.yul\":24398:24421   */\n      mload\n        /* \"#utility.yul\":24434:24497   */\n      tag_552\n        /* \"#utility.yul\":24491:24495   */\n      0x00\n        /* \"#utility.yul\":24486:24489   */\n      dup6\n        /* \"#utility.yul\":24482:24496   */\n      add\n        /* \"#utility.yul\":24468:24480   */\n      dup3\n        /* \"#utility.yul\":24434:24497   */\n      tag_423\n      jump\t// in\n    tag_552:\n        /* \"#utility.yul\":24335:24507   */\n      pop\n        /* \"#utility.yul\":24591:24595   */\n      0x20\n        /* \"#utility.yul\":24584:24589   */\n      dup3\n        /* \"#utility.yul\":24580:24596   */\n      add\n        /* \"#utility.yul\":24574:24597   */\n      mload\n        /* \"#utility.yul\":24610:24673   */\n      tag_553\n        /* \"#utility.yul\":24667:24671   */\n      0x20\n        /* \"#utility.yul\":24662:24665   */\n      dup6\n        /* \"#utility.yul\":24658:24672   */\n      add\n        /* \"#utility.yul\":24644:24656   */\n      dup3\n        /* \"#utility.yul\":24610:24673   */\n      tag_533\n      jump\t// in\n    tag_553:\n        /* \"#utility.yul\":24517:24683   */\n      pop\n        /* \"#utility.yul\":24289:24690   */\n      pop\n        /* \"#utility.yul\":24167:24690   */\n      pop\n      pop\n      jump\t// out\n        /* \"#utility.yul\":24754:27057   */\n    tag_554:\n        /* \"#utility.yul\":24881:24884   */\n      0x00\n        /* \"#utility.yul\":24917:24923   */\n      0x0120\n        /* \"#utility.yul\":24912:24915   */\n      dup4\n        /* \"#utility.yul\":24908:24924   */\n      add\n        /* \"#utility.yul\":24996:25046   */\n      tag_556\n        /* \"#utility.yul\":25040:25044   */\n      0x00\n        /* \"#utility.yul\":25033:25038   */\n      dup5\n        /* \"#utility.yul\":25029:25045   */\n      add\n        /* \"#utility.yul\":25022:25027   */\n      dup5\n        /* \"#utility.yul\":24996:25046   */\n      tag_531\n      jump\t// in\n    tag_556:\n        /* \"#utility.yul\":25059:25122   */\n      tag_557\n        /* \"#utility.yul\":25116:25120   */\n      0x00\n        /* \"#utility.yul\":25111:25114   */\n      dup7\n        /* \"#utility.yul\":25107:25121   */\n      add\n        /* \"#utility.yul\":25093:25105   */\n      dup3\n        /* \"#utility.yul\":25059:25122   */\n      tag_533\n      jump\t// in\n    tag_557:\n        /* \"#utility.yul\":24934:25132   */\n      pop\n        /* \"#utility.yul\":25206:25256   */\n      tag_558\n        /* \"#utility.yul\":25250:25254   */\n      0x20\n        /* \"#utility.yul\":25243:25248   */\n      dup5\n        /* \"#utility.yul\":25239:25255   */\n      add\n        /* \"#utility.yul\":25232:25237   */\n      dup5\n        /* \"#utility.yul\":25206:25256   */\n      tag_524\n      jump\t// in\n    tag_558:\n        /* \"#utility.yul\":25269:25332   */\n      tag_559\n        /* \"#utility.yul\":25326:25330   */\n      0x20\n        /* \"#utility.yul\":25321:25324   */\n      dup7\n        /* \"#utility.yul\":25317:25331   */\n      add\n        /* \"#utility.yul\":25303:25315   */\n      dup3\n        /* \"#utility.yul\":25269:25332   */\n      tag_526\n      jump\t// in\n    tag_559:\n        /* \"#utility.yul\":25142:25342   */\n      pop\n        /* \"#utility.yul\":25416:25466   */\n      tag_560\n        /* \"#utility.yul\":25460:25464   */\n      0x40\n        /* \"#utility.yul\":25453:25458   */\n      dup5\n        /* \"#utility.yul\":25449:25465   */\n      add\n        /* \"#utility.yul\":25442:25447   */\n      dup5\n        /* \"#utility.yul\":25416:25466   */\n      tag_524\n      jump\t// in\n    tag_560:\n        /* \"#utility.yul\":25479:25542   */\n      tag_561\n        /* \"#utility.yul\":25536:25540   */\n      0x40\n        /* \"#utility.yul\":25531:25534   */\n      dup7\n        /* \"#utility.yul\":25527:25541   */\n      add\n        /* \"#utility.yul\":25513:25525   */\n      dup3\n        /* \"#utility.yul\":25479:25542   */\n      tag_526\n      jump\t// in\n    tag_561:\n        /* \"#utility.yul\":25352:25552   */\n      pop\n        /* \"#utility.yul\":25618:25668   */\n      tag_562\n        /* \"#utility.yul\":25662:25666   */\n      0x60\n        /* \"#utility.yul\":25655:25660   */\n      dup5\n        /* \"#utility.yul\":25651:25667   */\n      add\n        /* \"#utility.yul\":25644:25649   */\n      dup5\n        /* \"#utility.yul\":25618:25668   */\n      tag_524\n      jump\t// in\n    tag_562:\n        /* \"#utility.yul\":25681:25744   */\n      tag_563\n        /* \"#utility.yul\":25738:25742   */\n      0x60\n        /* \"#utility.yul\":25733:25736   */\n      dup7\n        /* \"#utility.yul\":25729:25743   */\n      add\n        /* \"#utility.yul\":25715:25727   */\n      dup3\n        /* \"#utility.yul\":25681:25744   */\n      tag_526\n      jump\t// in\n    tag_563:\n        /* \"#utility.yul\":25562:25754   */\n      pop\n        /* \"#utility.yul\":25824:25874   */\n      tag_564\n        /* \"#utility.yul\":25868:25872   */\n      0x80\n        /* \"#utility.yul\":25861:25866   */\n      dup5\n        /* \"#utility.yul\":25857:25873   */\n      add\n        /* \"#utility.yul\":25850:25855   */\n      dup5\n        /* \"#utility.yul\":25824:25874   */\n      tag_565\n      jump\t// in\n    tag_564:\n        /* \"#utility.yul\":25887:25950   */\n      tag_566\n        /* \"#utility.yul\":25944:25948   */\n      0x80\n        /* \"#utility.yul\":25939:25942   */\n      dup7\n        /* \"#utility.yul\":25935:25949   */\n      add\n        /* \"#utility.yul\":25921:25933   */\n      dup3\n        /* \"#utility.yul\":25887:25950   */\n      tag_491\n      jump\t// in\n    tag_566:\n        /* \"#utility.yul\":25764:25960   */\n      pop\n        /* \"#utility.yul\":26032:26082   */\n      tag_567\n        /* \"#utility.yul\":26076:26080   */\n      0xa0\n        /* \"#utility.yul\":26069:26074   */\n      dup5\n        /* \"#utility.yul\":26065:26081   */\n      add\n        /* \"#utility.yul\":26058:26063   */\n      dup5\n        /* \"#utility.yul\":26032:26082   */\n      tag_524\n      jump\t// in\n    tag_567:\n        /* \"#utility.yul\":26095:26158   */\n      tag_568\n        /* \"#utility.yul\":26152:26156   */\n      0xa0\n        /* \"#utility.yul\":26147:26150   */\n      dup7\n        /* \"#utility.yul\":26143:26157   */\n      add\n        /* \"#utility.yul\":26129:26141   */\n      dup3\n        /* \"#utility.yul\":26095:26158   */\n      tag_526\n      jump\t// in\n    tag_568:\n        /* \"#utility.yul\":25970:26168   */\n      pop\n        /* \"#utility.yul\":26236:26286   */\n      tag_569\n        /* \"#utility.yul\":26280:26284   */\n      0xc0\n        /* \"#utility.yul\":26273:26278   */\n      dup5\n        /* \"#utility.yul\":26269:26285   */\n      add\n        /* \"#utility.yul\":26262:26267   */\n      dup5\n        /* \"#utility.yul\":26236:26286   */\n      tag_524\n      jump\t// in\n    tag_569:\n        /* \"#utility.yul\":26299:26362   */\n      tag_570\n        /* \"#utility.yul\":26356:26360   */\n      0xc0\n        /* \"#utility.yul\":26351:26354   */\n      dup7\n        /* \"#utility.yul\":26347:26361   */\n      add\n        /* \"#utility.yul\":26333:26345   */\n      dup3\n        /* \"#utility.yul\":26299:26362   */\n      tag_526\n      jump\t// in\n    tag_570:\n        /* \"#utility.yul\":26178:26372   */\n      pop\n        /* \"#utility.yul\":26456:26565   */\n      tag_571\n        /* \"#utility.yul\":26559:26563   */\n      0xe0\n        /* \"#utility.yul\":26552:26557   */\n      dup5\n        /* \"#utility.yul\":26548:26564   */\n      add\n        /* \"#utility.yul\":26541:26546   */\n      dup5\n        /* \"#utility.yul\":26456:26565   */\n      tag_572\n      jump\t// in\n    tag_571:\n        /* \"#utility.yul\":26612:26615   */\n      dup6\n        /* \"#utility.yul\":26606:26610   */\n      dup4\n        /* \"#utility.yul\":26602:26616   */\n      sub\n        /* \"#utility.yul\":26595:26599   */\n      0xe0\n        /* \"#utility.yul\":26590:26593   */\n      dup8\n        /* \"#utility.yul\":26586:26600   */\n      add\n        /* \"#utility.yul\":26579:26617   */\n      mstore\n        /* \"#utility.yul\":26638:26819   */\n      tag_573\n        /* \"#utility.yul\":26814:26818   */\n      dup4\n        /* \"#utility.yul\":26800:26812   */\n      dup3\n        /* \"#utility.yul\":26786:26798   */\n      dup5\n        /* \"#utility.yul\":26638:26819   */\n      tag_430\n      jump\t// in\n    tag_573:\n        /* \"#utility.yul\":26630:26819   */\n      swap3\n      pop\n        /* \"#utility.yul\":26382:26830   */\n      pop\n      pop\n        /* \"#utility.yul\":26899:26948   */\n      tag_574\n        /* \"#utility.yul\":26940:26946   */\n      0x0100\n        /* \"#utility.yul\":26933:26938   */\n      dup5\n        /* \"#utility.yul\":26929:26947   */\n      add\n        /* \"#utility.yul\":26922:26927   */\n      dup5\n        /* \"#utility.yul\":26899:26948   */\n      tag_528\n      jump\t// in\n    tag_574:\n        /* \"#utility.yul\":26961:27020   */\n      tag_575\n        /* \"#utility.yul\":27012:27018   */\n      0x0100\n        /* \"#utility.yul\":27007:27010   */\n      dup7\n        /* \"#utility.yul\":27003:27019   */\n      add\n        /* \"#utility.yul\":26989:27001   */\n      dup3\n        /* \"#utility.yul\":26961:27020   */\n      tag_484\n      jump\t// in\n    tag_575:\n        /* \"#utility.yul\":26840:27030   */\n      pop\n        /* \"#utility.yul\":27047:27051   */\n      dup1\n        /* \"#utility.yul\":27040:27051   */\n      swap2\n      pop\n        /* \"#utility.yul\":24886:27057   */\n      pop\n        /* \"#utility.yul\":24754:27057   */\n      swap3\n      swap2\n      pop\n      pop\n      jump\t// out\n        /* \"#utility.yul\":27121:29091   */\n    tag_576:\n        /* \"#utility.yul\":27246:27249   */\n      0x00\n        /* \"#utility.yul\":27282:27288   */\n      0x0120\n        /* \"#utility.yul\":27277:27280   */\n      dup4\n        /* \"#utility.yul\":27273:27289   */\n      add\n        /* \"#utility.yul\":27378:27382   */\n      0x00\n        /* \"#utility.yul\":27371:27376   */\n      dup4\n        /* \"#utility.yul\":27367:27383   */\n      add\n        /* \"#utility.yul\":27361:27384   */\n      mload\n        /* \"#utility.yul\":27397:27460   */\n      tag_578\n        /* \"#utility.yul\":27454:27458   */\n      0x00\n        /* \"#utility.yul\":27449:27452   */\n      dup7\n        /* \"#utility.yul\":27445:27459   */\n      add\n        /* \"#utility.yul\":27431:27443   */\n      dup3\n        /* \"#utility.yul\":27397:27460   */\n      tag_533\n      jump\t// in\n    tag_578:\n        /* \"#utility.yul\":27299:27470   */\n      pop\n        /* \"#utility.yul\":27561:27565   */\n      0x20\n        /* \"#utility.yul\":27554:27559   */\n      dup4\n        /* \"#utility.yul\":27550:27566   */\n      add\n        /* \"#utility.yul\":27544:27567   */\n      mload\n        /* \"#utility.yul\":27580:27643   */\n      tag_579\n        /* \"#utility.yul\":27637:27641   */\n      0x20\n        /* \"#utility.yul\":27632:27635   */\n      dup7\n        /* \"#utility.yul\":27628:27642   */\n      add\n        /* \"#utility.yul\":27614:27626   */\n      dup3\n        /* \"#utility.yul\":27580:27643   */\n      tag_526\n      jump\t// in\n    tag_579:\n        /* \"#utility.yul\":27480:27653   */\n      pop\n        /* \"#utility.yul\":27744:27748   */\n      0x40\n        /* \"#utility.yul\":27737:27742   */\n      dup4\n        /* \"#utility.yul\":27733:27749   */\n      add\n        /* \"#utility.yul\":27727:27750   */\n      mload\n        /* \"#utility.yul\":27763:27826   */\n      tag_580\n        /* \"#utility.yul\":27820:27824   */\n      0x40\n        /* \"#utility.yul\":27815:27818   */\n      dup7\n        /* \"#utility.yul\":27811:27825   */\n      add\n        /* \"#utility.yul\":27797:27809   */\n      dup3\n        /* \"#utility.yul\":27763:27826   */\n      tag_526\n      jump\t// in\n    tag_580:\n        /* \"#utility.yul\":27663:27836   */\n      pop\n        /* \"#utility.yul\":27919:27923   */\n      0x60\n        /* \"#utility.yul\":27912:27917   */\n      dup4\n        /* \"#utility.yul\":27908:27924   */\n      add\n        /* \"#utility.yul\":27902:27925   */\n      mload\n        /* \"#utility.yul\":27938:28001   */\n      tag_581\n        /* \"#utility.yul\":27995:27999   */\n      0x60\n        /* \"#utility.yul\":27990:27993   */\n      dup7\n        /* \"#utility.yul\":27986:28000   */\n      add\n        /* \"#utility.yul\":27972:27984   */\n      dup3\n        /* \"#utility.yul\":27938:28001   */\n      tag_526\n      jump\t// in\n    tag_581:\n        /* \"#utility.yul\":27846:28011   */\n      pop\n        /* \"#utility.yul\":28098:28102   */\n      0x80\n        /* \"#utility.yul\":28091:28096   */\n      dup4\n        /* \"#utility.yul\":28087:28103   */\n      add\n        /* \"#utility.yul\":28081:28104   */\n      mload\n        /* \"#utility.yul\":28117:28180   */\n      tag_582\n        /* \"#utility.yul\":28174:28178   */\n      0x80\n        /* \"#utility.yul\":28169:28172   */\n      dup7\n        /* \"#utility.yul\":28165:28179   */\n      add\n        /* \"#utility.yul\":28151:28163   */\n      dup3\n        /* \"#utility.yul\":28117:28180   */\n      tag_491\n      jump\t// in\n    tag_582:\n        /* \"#utility.yul\":28021:28190   */\n      pop\n        /* \"#utility.yul\":28279:28283   */\n      0xa0\n        /* \"#utility.yul\":28272:28277   */\n      dup4\n        /* \"#utility.yul\":28268:28284   */\n      add\n        /* \"#utility.yul\":28262:28285   */\n      mload\n        /* \"#utility.yul\":28298:28361   */\n      tag_583\n        /* \"#utility.yul\":28355:28359   */\n      0xa0\n        /* \"#utility.yul\":28350:28353   */\n      dup7\n        /* \"#utility.yul\":28346:28360   */\n      add\n        /* \"#utility.yul\":28332:28344   */\n      dup3\n        /* \"#utility.yul\":28298:28361   */\n      tag_526\n      jump\t// in\n    tag_583:\n        /* \"#utility.yul\":28200:28371   */\n      pop\n        /* \"#utility.yul\":28456:28460   */\n      0xc0\n        /* \"#utility.yul\":28449:28454   */\n      dup4\n        /* \"#utility.yul\":28445:28461   */\n      add\n        /* \"#utility.yul\":28439:28462   */\n      mload\n        /* \"#utility.yul\":28475:28538   */\n      tag_584\n        /* \"#utility.yul\":28532:28536   */\n      0xc0\n        /* \"#utility.yul\":28527:28530   */\n      dup7\n        /* \"#utility.yul\":28523:28537   */\n      add\n        /* \"#utility.yul\":28509:28521   */\n      dup3\n        /* \"#utility.yul\":28475:28538   */\n      tag_526\n      jump\t// in\n    tag_584:\n        /* \"#utility.yul\":28381:28548   */\n      pop\n        /* \"#utility.yul\":28635:28639   */\n      0xe0\n        /* \"#utility.yul\":28628:28633   */\n      dup4\n        /* \"#utility.yul\":28624:28640   */\n      add\n        /* \"#utility.yul\":28618:28641   */\n      mload\n        /* \"#utility.yul\":28688:28691   */\n      dup5\n        /* \"#utility.yul\":28682:28686   */\n      dup3\n        /* \"#utility.yul\":28678:28692   */\n      sub\n        /* \"#utility.yul\":28671:28675   */\n      0xe0\n        /* \"#utility.yul\":28666:28669   */\n      dup7\n        /* \"#utility.yul\":28662:28676   */\n      add\n        /* \"#utility.yul\":28655:28693   */\n      mstore\n        /* \"#utility.yul\":28714:28877   */\n      tag_585\n        /* \"#utility.yul\":28872:28876   */\n      dup3\n        /* \"#utility.yul\":28858:28870   */\n      dup3\n        /* \"#utility.yul\":28714:28877   */\n      tag_444\n      jump\t// in\n    tag_585:\n        /* \"#utility.yul\":28706:28877   */\n      swap2\n      pop\n        /* \"#utility.yul\":28558:28888   */\n      pop\n        /* \"#utility.yul\":28974:28980   */\n      0x0100\n        /* \"#utility.yul\":28967:28972   */\n      dup4\n        /* \"#utility.yul\":28963:28981   */\n      add\n        /* \"#utility.yul\":28957:28982   */\n      mload\n        /* \"#utility.yul\":28995:29054   */\n      tag_586\n        /* \"#utility.yul\":29046:29052   */\n      0x0100\n        /* \"#utility.yul\":29041:29044   */\n      dup7\n        /* \"#utility.yul\":29037:29053   */\n      add\n        /* \"#utility.yul\":29023:29035   */\n      dup3\n        /* \"#utility.yul\":28995:29054   */\n      tag_484\n      jump\t// in\n    tag_586:\n        /* \"#utility.yul\":28898:29064   */\n      pop\n        /* \"#utility.yul\":29081:29085   */\n      dup1\n        /* \"#utility.yul\":29074:29085   */\n      swap2\n      pop\n        /* \"#utility.yul\":27251:29091   */\n      pop\n        /* \"#utility.yul\":27121:29091   */\n      swap3\n      swap2\n      pop\n      pop\n      jump\t// out\n        /* \"#utility.yul\":29097:29205   */\n    tag_526:\n        /* \"#utility.yul\":29174:29198   */\n      tag_588\n        /* \"#utility.yul\":29192:29197   */\n      dup2\n        /* \"#utility.yul\":29174:29198   */\n      tag_589\n      jump\t// in\n    tag_588:\n        /* \"#utility.yul\":29169:29172   */\n      dup3\n        /* \"#utility.yul\":29162:29199   */\n      mstore\n        /* \"#utility.yul\":29097:29205   */\n      pop\n      pop\n      jump\t// out\n        /* \"#utility.yul\":29211:29329   */\n    tag_590:\n        /* \"#utility.yul\":29298:29322   */\n      tag_592\n        /* \"#utility.yul\":29316:29321   */\n      dup2\n        /* \"#utility.yul\":29298:29322   */\n      tag_589\n      jump\t// in\n    tag_592:\n        /* \"#utility.yul\":29293:29296   */\n      dup3\n        /* \"#utility.yul\":29286:29323   */\n      mstore\n        /* \"#utility.yul\":29211:29329   */\n      pop\n      pop\n      jump\t// out\n        /* \"#utility.yul\":29335:29443   */\n    tag_533:\n        /* \"#utility.yul\":29412:29436   */\n      tag_594\n        /* \"#utility.yul\":29430:29435   */\n      dup2\n        /* \"#utility.yul\":29412:29436   */\n      tag_595\n      jump\t// in\n    tag_594:\n        /* \"#utility.yul\":29407:29410   */\n      dup3\n        /* \"#utility.yul\":29400:29437   */\n      mstore\n        /* \"#utility.yul\":29335:29443   */\n      pop\n      pop\n      jump\t// out\n        /* \"#utility.yul\":29449:29671   */\n    tag_28:\n        /* \"#utility.yul\":29542:29546   */\n      0x00\n        /* \"#utility.yul\":29580:29582   */\n      0x20\n        /* \"#utility.yul\":29569:29578   */\n      dup3\n        /* \"#utility.yul\":29565:29583   */\n      add\n        /* \"#utility.yul\":29557:29583   */\n      swap1\n      pop\n        /* \"#utility.yul\":29593:29664   */\n      tag_597\n        /* \"#utility.yul\":29661:29662   */\n      0x00\n        /* \"#utility.yul\":29650:29659   */\n      dup4\n        /* \"#utility.yul\":29646:29663   */\n      add\n        /* \"#utility.yul\":29637:29643   */\n      dup5\n        /* \"#utility.yul\":29593:29664   */\n      tag_427\n      jump\t// in\n    tag_597:\n        /* \"#utility.yul\":29449:29671   */\n      swap3\n      swap2\n      pop\n      pop\n      jump\t// out\n        /* \"#utility.yul\":29677:29931   */\n    tag_34:\n        /* \"#utility.yul\":29786:29790   */\n      0x00\n        /* \"#utility.yul\":29824:29826   */\n      0x20\n        /* \"#utility.yul\":29813:29822   */\n      dup3\n        /* \"#utility.yul\":29809:29827   */\n      add\n        /* \"#utility.yul\":29801:29827   */\n      swap1\n      pop\n        /* \"#utility.yul\":29837:29924   */\n      tag_599\n        /* \"#utility.yul\":29921:29922   */\n      0x00\n        /* \"#utility.yul\":29910:29919   */\n      dup4\n        /* \"#utility.yul\":29906:29923   */\n      add\n        /* \"#utility.yul\":29897:29903   */\n      dup5\n        /* \"#utility.yul\":29837:29924   */\n      tag_419\n      jump\t// in\n    tag_599:\n        /* \"#utility.yul\":29677:29931   */\n      swap3\n      swap2\n      pop\n      pop\n      jump\t// out\n        /* \"#utility.yul\":29937:30159   */\n    tag_20:\n        /* \"#utility.yul\":30030:30034   */\n      0x00\n        /* \"#utility.yul\":30068:30070   */\n      0x20\n        /* \"#utility.yul\":30057:30066   */\n      dup3\n        /* \"#utility.yul\":30053:30071   */\n      add\n        /* \"#utility.yul\":30045:30071   */\n      swap1\n      pop\n        /* \"#utility.yul\":30081:30152   */\n      tag_601\n        /* \"#utility.yul\":30149:30150   */\n      0x00\n        /* \"#utility.yul\":30138:30147   */\n      dup4\n        /* \"#utility.yul\":30134:30151   */\n      add\n        /* \"#utility.yul\":30125:30131   */\n      dup5\n        /* \"#utility.yul\":30081:30152   */\n      tag_495\n      jump\t// in\n    tag_601:\n        /* \"#utility.yul\":29937:30159   */\n      swap3\n      swap2\n      pop\n      pop\n      jump\t// out\n        /* \"#utility.yul\":30165:30584   */\n    tag_88:\n        /* \"#utility.yul\":30331:30335   */\n      0x00\n        /* \"#utility.yul\":30369:30371   */\n      0x20\n        /* \"#utility.yul\":30358:30367   */\n      dup3\n        /* \"#utility.yul\":30354:30372   */\n      add\n        /* \"#utility.yul\":30346:30372   */\n      swap1\n      pop\n        /* \"#utility.yul\":30418:30427   */\n      dup2\n        /* \"#utility.yul\":30412:30416   */\n      dup2\n        /* \"#utility.yul\":30408:30428   */\n      sub\n        /* \"#utility.yul\":30404:30405   */\n      0x00\n        /* \"#utility.yul\":30393:30402   */\n      dup4\n        /* \"#utility.yul\":30389:30406   */\n      add\n        /* \"#utility.yul\":30382:30429   */\n      mstore\n        /* \"#utility.yul\":30446:30577   */\n      tag_603\n        /* \"#utility.yul\":30572:30576   */\n      dup2\n        /* \"#utility.yul\":30446:30577   */\n      tag_498\n      jump\t// in\n    tag_603:\n        /* \"#utility.yul\":30438:30577   */\n      swap1\n      pop\n        /* \"#utility.yul\":30165:30584   */\n      swap2\n      swap1\n      pop\n      jump\t// out\n        /* \"#utility.yul\":30590:31009   */\n    tag_227:\n        /* \"#utility.yul\":30756:30760   */\n      0x00\n        /* \"#utility.yul\":30794:30796   */\n      0x20\n        /* \"#utility.yul\":30783:30792   */\n      dup3\n        /* \"#utility.yul\":30779:30797   */\n      add\n        /* \"#utility.yul\":30771:30797   */\n      swap1\n      pop\n        /* \"#utility.yul\":30843:30852   */\n      dup2\n        /* \"#utility.yul\":30837:30841   */\n      dup2\n        /* \"#utility.yul\":30833:30853   */\n      sub\n        /* \"#utility.yul\":30829:30830   */\n      0x00\n        /* \"#utility.yul\":30818:30827   */\n      dup4\n        /* \"#utility.yul\":30814:30831   */\n      add\n        /* \"#utility.yul\":30807:30854   */\n      mstore\n        /* \"#utility.yul\":30871:31002   */\n      tag_605\n        /* \"#utility.yul\":30997:31001   */\n      dup2\n        /* \"#utility.yul\":30871:31002   */\n      tag_504\n      jump\t// in\n    tag_605:\n        /* \"#utility.yul\":30863:31002   */\n      swap1\n      pop\n        /* \"#utility.yul\":30590:31009   */\n      swap2\n      swap1\n      pop\n      jump\t// out\n        /* \"#utility.yul\":31015:31434   */\n    tag_98:\n        /* \"#utility.yul\":31181:31185   */\n      0x00\n        /* \"#utility.yul\":31219:31221   */\n      0x20\n        /* \"#utility.yul\":31208:31217   */\n      dup3\n        /* \"#utility.yul\":31204:31222   */\n      add\n        /* \"#utility.yul\":31196:31222   */\n      swap1\n      pop\n        /* \"#utility.yul\":31268:31277   */\n      dup2\n        /* \"#utility.yul\":31262:31266   */\n      dup2\n        /* \"#utility.yul\":31258:31278   */\n      sub\n        /* \"#utility.yul\":31254:31255   */\n      0x00\n        /* \"#utility.yul\":31243:31252   */\n      dup4\n        /* \"#utility.yul\":31239:31256   */\n      add\n        /* \"#utility.yul\":31232:31279   */\n      mstore\n        /* \"#utility.yul\":31296:31427   */\n      tag_607\n        /* \"#utility.yul\":31422:31426   */\n      dup2\n        /* \"#utility.yul\":31296:31427   */\n      tag_509\n      jump\t// in\n    tag_607:\n        /* \"#utility.yul\":31288:31427   */\n      swap1\n      pop\n        /* \"#utility.yul\":31015:31434   */\n      swap2\n      swap1\n      pop\n      jump\t// out\n        /* \"#utility.yul\":31440:31859   */\n    tag_101:\n        /* \"#utility.yul\":31606:31610   */\n      0x00\n        /* \"#utility.yul\":31644:31646   */\n      0x20\n        /* \"#utility.yul\":31633:31642   */\n      dup3\n        /* \"#utility.yul\":31629:31647   */\n      add\n        /* \"#utility.yul\":31621:31647   */\n      swap1\n      pop\n        /* \"#utility.yul\":31693:31702   */\n      dup2\n        /* \"#utility.yul\":31687:31691   */\n      dup2\n        /* \"#utility.yul\":31683:31703   */\n      sub\n        /* \"#utility.yul\":31679:31680   */\n      0x00\n        /* \"#utility.yul\":31668:31677   */\n      dup4\n        /* \"#utility.yul\":31664:31681   */\n      add\n        /* \"#utility.yul\":31657:31704   */\n      mstore\n        /* \"#utility.yul\":31721:31852   */\n      tag_609\n        /* \"#utility.yul\":31847:31851   */\n      dup2\n        /* \"#utility.yul\":31721:31852   */\n      tag_514\n      jump\t// in\n    tag_609:\n        /* \"#utility.yul\":31713:31852   */\n      swap1\n      pop\n        /* \"#utility.yul\":31440:31859   */\n      swap2\n      swap1\n      pop\n      jump\t// out\n        /* \"#utility.yul\":31865:32254   */\n    tag_103:\n        /* \"#utility.yul\":32016:32020   */\n      0x00\n        /* \"#utility.yul\":32054:32056   */\n      0x20\n        /* \"#utility.yul\":32043:32052   */\n      dup3\n        /* \"#utility.yul\":32039:32057   */\n      add\n        /* \"#utility.yul\":32031:32057   */\n      swap1\n      pop\n        /* \"#utility.yul\":32103:32112   */\n      dup2\n        /* \"#utility.yul\":32097:32101   */\n      dup2\n        /* \"#utility.yul\":32093:32113   */\n      sub\n        /* \"#utility.yul\":32089:32090   */\n      0x00\n        /* \"#utility.yul\":32078:32087   */\n      dup4\n        /* \"#utility.yul\":32074:32091   */\n      add\n        /* \"#utility.yul\":32067:32114   */\n      mstore\n        /* \"#utility.yul\":32131:32247   */\n      tag_611\n        /* \"#utility.yul\":32242:32246   */\n      dup2\n        /* \"#utility.yul\":32233:32239   */\n      dup5\n        /* \"#utility.yul\":32131:32247   */\n      tag_554\n      jump\t// in\n    tag_611:\n        /* \"#utility.yul\":32123:32247   */\n      swap1\n      pop\n        /* \"#utility.yul\":31865:32254   */\n      swap3\n      swap2\n      pop\n      pop\n      jump\t// out\n        /* \"#utility.yul\":32260:32482   */\n    tag_61:\n        /* \"#utility.yul\":32353:32357   */\n      0x00\n        /* \"#utility.yul\":32391:32393   */\n      0x20\n        /* \"#utility.yul\":32380:32389   */\n      dup3\n        /* \"#utility.yul\":32376:32394   */\n      add\n        /* \"#utility.yul\":32368:32394   */\n      swap1\n      pop\n        /* \"#utility.yul\":32404:32475   */\n      tag_613\n        /* \"#utility.yul\":32472:32473   */\n      0x00\n        /* \"#utility.yul\":32461:32470   */\n      dup4\n        /* \"#utility.yul\":32457:32474   */\n      add\n        /* \"#utility.yul\":32448:32454   */\n      dup5\n        /* \"#utility.yul\":32404:32475   */\n      tag_590\n      jump\t// in\n    tag_613:\n        /* \"#utility.yul\":32260:32482   */\n      swap3\n      swap2\n      pop\n      pop\n      jump\t// out\n        /* \"#utility.yul\":32488:32808   */\n    tag_47:\n        /* \"#utility.yul\":32603:32607   */\n      0x00\n        /* \"#utility.yul\":32641:32643   */\n      0x40\n        /* \"#utility.yul\":32630:32639   */\n      dup3\n        /* \"#utility.yul\":32626:32644   */\n      add\n        /* \"#utility.yul\":32618:32644   */\n      swap1\n      pop\n        /* \"#utility.yul\":32654:32725   */\n      tag_615\n        /* \"#utility.yul\":32722:32723   */\n      0x00\n        /* \"#utility.yul\":32711:32720   */\n      dup4\n        /* \"#utility.yul\":32707:32724   */\n      add\n        /* \"#utility.yul\":32698:32704   */\n      dup6\n        /* \"#utility.yul\":32654:32725   */\n      tag_590\n      jump\t// in\n    tag_615:\n        /* \"#utility.yul\":32735:32801   */\n      tag_616\n        /* \"#utility.yul\":32797:32799   */\n      0x20\n        /* \"#utility.yul\":32786:32795   */\n      dup4\n        /* \"#utility.yul\":32782:32800   */\n      add\n        /* \"#utility.yul\":32773:32779   */\n      dup5\n        /* \"#utility.yul\":32735:32801   */\n      tag_488\n      jump\t// in\n    tag_616:\n        /* \"#utility.yul\":32488:32808   */\n      swap4\n      swap3\n      pop\n      pop\n      pop\n      jump\t// out\n        /* \"#utility.yul\":32814:33419   */\n    tag_195:\n        /* \"#utility.yul\":33019:33023   */\n      0x00\n        /* \"#utility.yul\":33057:33059   */\n      0x60\n        /* \"#utility.yul\":33046:33055   */\n      dup3\n        /* \"#utility.yul\":33042:33060   */\n      add\n        /* \"#utility.yul\":33034:33060   */\n      swap1\n      pop\n        /* \"#utility.yul\":33070:33141   */\n      tag_618\n        /* \"#utility.yul\":33138:33139   */\n      0x00\n        /* \"#utility.yul\":33127:33136   */\n      dup4\n        /* \"#utility.yul\":33123:33140   */\n      add\n        /* \"#utility.yul\":33114:33120   */\n      dup7\n        /* \"#utility.yul\":33070:33141   */\n      tag_590\n      jump\t// in\n    tag_618:\n        /* \"#utility.yul\":33188:33197   */\n      dup2\n        /* \"#utility.yul\":33182:33186   */\n      dup2\n        /* \"#utility.yul\":33178:33198   */\n      sub\n        /* \"#utility.yul\":33173:33175   */\n      0x20\n        /* \"#utility.yul\":33162:33171   */\n      dup4\n        /* \"#utility.yul\":33158:33176   */\n      add\n        /* \"#utility.yul\":33151:33199   */\n      mstore\n        /* \"#utility.yul\":33216:33330   */\n      tag_619\n        /* \"#utility.yul\":33325:33329   */\n      dup2\n        /* \"#utility.yul\":33316:33322   */\n      dup6\n        /* \"#utility.yul\":33216:33330   */\n      tag_576\n      jump\t// in\n    tag_619:\n        /* \"#utility.yul\":33208:33330   */\n      swap1\n      pop\n        /* \"#utility.yul\":33340:33412   */\n      tag_620\n        /* \"#utility.yul\":33408:33410   */\n      0x40\n        /* \"#utility.yul\":33397:33406   */\n      dup4\n        /* \"#utility.yul\":33393:33411   */\n      add\n        /* \"#utility.yul\":33384:33390   */\n      dup5\n        /* \"#utility.yul\":33340:33412   */\n      tag_427\n      jump\t// in\n    tag_620:\n        /* \"#utility.yul\":32814:33419   */\n      swap5\n      swap4\n      pop\n      pop\n      pop\n      pop\n      jump\t// out\n        /* \"#utility.yul\":33425:33867   */\n    tag_151:\n        /* \"#utility.yul\":33574:33578   */\n      0x00\n        /* \"#utility.yul\":33612:33614   */\n      0x60\n        /* \"#utility.yul\":33601:33610   */\n      dup3\n        /* \"#utility.yul\":33597:33615   */\n      add\n        /* \"#utility.yul\":33589:33615   */\n      swap1\n      pop\n        /* \"#utility.yul\":33625:33696   */\n      tag_622\n        /* \"#utility.yul\":33693:33694   */\n      0x00\n        /* \"#utility.yul\":33682:33691   */\n      dup4\n        /* \"#utility.yul\":33678:33695   */\n      add\n        /* \"#utility.yul\":33669:33675   */\n      dup7\n        /* \"#utility.yul\":33625:33696   */\n      tag_590\n      jump\t// in\n    tag_622:\n        /* \"#utility.yul\":33706:33778   */\n      tag_623\n        /* \"#utility.yul\":33774:33776   */\n      0x20\n        /* \"#utility.yul\":33763:33772   */\n      dup4\n        /* \"#utility.yul\":33759:33777   */\n      add\n        /* \"#utility.yul\":33750:33756   */\n      dup6\n        /* \"#utility.yul\":33706:33778   */\n      tag_590\n      jump\t// in\n    tag_623:\n        /* \"#utility.yul\":33788:33860   */\n      tag_624\n        /* \"#utility.yul\":33856:33858   */\n      0x40\n        /* \"#utility.yul\":33845:33854   */\n      dup4\n        /* \"#utility.yul\":33841:33859   */\n      add\n        /* \"#utility.yul\":33832:33838   */\n      dup5\n        /* \"#utility.yul\":33788:33860   */\n      tag_427\n      jump\t// in\n    tag_624:\n        /* \"#utility.yul\":33425:33867   */\n      swap5\n      swap4\n      pop\n      pop\n      pop\n      pop\n      jump\t// out\n        /* \"#utility.yul\":33873:34645   */\n    tag_625:\n        /* \"#utility.yul\":33998:34002   */\n      0x00\n        /* \"#utility.yul\":34004:34010   */\n      dup1\n        /* \"#utility.yul\":34060:34071   */\n      dup4\n        /* \"#utility.yul\":34047:34072   */\n      calldataload\n        /* \"#utility.yul\":34160:34161   */\n      0x01\n        /* \"#utility.yul\":34154:34158   */\n      0x20\n        /* \"#utility.yul\":34150:34162   */\n      sub\n        /* \"#utility.yul\":34139:34147   */\n      dup5\n        /* \"#utility.yul\":34123:34137   */\n      calldatasize\n        /* \"#utility.yul\":34119:34148   */\n      sub\n        /* \"#utility.yul\":34115:34163   */\n      sub\n        /* \"#utility.yul\":34095:34113   */\n      dup2\n        /* \"#utility.yul\":34091:34164   */\n      slt\n        /* \"#utility.yul\":34081:34249   */\n      tag_627\n      jumpi\n        /* \"#utility.yul\":34168:34247   */\n      tag_628\n      tag_629\n      jump\t// in\n    tag_628:\n        /* \"#utility.yul\":34081:34249   */\n    tag_627:\n        /* \"#utility.yul\":34280:34298   */\n      dup1\n        /* \"#utility.yul\":34270:34278   */\n      dup5\n        /* \"#utility.yul\":34266:34299   */\n      add\n        /* \"#utility.yul\":34258:34299   */\n      swap3\n      pop\n        /* \"#utility.yul\":34332:34336   */\n      dup3\n        /* \"#utility.yul\":34319:34337   */\n      calldataload\n        /* \"#utility.yul\":34309:34337   */\n      swap2\n      pop\n        /* \"#utility.yul\":34360:34378   */\n      0xffffffffffffffff\n        /* \"#utility.yul\":34352:34358   */\n      dup3\n        /* \"#utility.yul\":34349:34379   */\n      gt\n        /* \"#utility.yul\":34346:34463   */\n      iszero\n      tag_630\n      jumpi\n        /* \"#utility.yul\":34382:34461   */\n      tag_631\n      tag_632\n      jump\t// in\n    tag_631:\n        /* \"#utility.yul\":34346:34463   */\n    tag_630:\n        /* \"#utility.yul\":34490:34492   */\n      0x20\n        /* \"#utility.yul\":34484:34488   */\n      dup4\n        /* \"#utility.yul\":34480:34493   */\n      add\n        /* \"#utility.yul\":34472:34493   */\n      swap3\n      pop\n        /* \"#utility.yul\":34547:34551   */\n      0x20\n        /* \"#utility.yul\":34539:34545   */\n      dup3\n        /* \"#utility.yul\":34535:34552   */\n      mul\n        /* \"#utility.yul\":34519:34533   */\n      calldatasize\n        /* \"#utility.yul\":34515:34553   */\n      sub\n        /* \"#utility.yul\":34509:34513   */\n      dup4\n        /* \"#utility.yul\":34505:34554   */\n      sgt\n        /* \"#utility.yul\":34502:34638   */\n      iszero\n      tag_633\n      jumpi\n        /* \"#utility.yul\":34557:34636   */\n      tag_634\n      tag_635\n      jump\t// in\n    tag_634:\n        /* \"#utility.yul\":34502:34638   */\n    tag_633:\n        /* \"#utility.yul\":34011:34645   */\n      pop\n        /* \"#utility.yul\":33873:34645   */\n      swap3\n      pop\n      swap3\n      swap1\n      pop\n      jump\t// out\n        /* \"#utility.yul\":34651:35426   */\n    tag_636:\n        /* \"#utility.yul\":34779:34783   */\n      0x00\n        /* \"#utility.yul\":34785:34791   */\n      dup1\n        /* \"#utility.yul\":34841:34852   */\n      dup4\n        /* \"#utility.yul\":34828:34853   */\n      calldataload\n        /* \"#utility.yul\":34941:34942   */\n      0x01\n        /* \"#utility.yul\":34935:34939   */\n      0x20\n        /* \"#utility.yul\":34931:34943   */\n      sub\n        /* \"#utility.yul\":34920:34928   */\n      dup5\n        /* \"#utility.yul\":34904:34918   */\n      calldatasize\n        /* \"#utility.yul\":34900:34929   */\n      sub\n        /* \"#utility.yul\":34896:34944   */\n      sub\n        /* \"#utility.yul\":34876:34894   */\n      dup2\n        /* \"#utility.yul\":34872:34945   */\n      slt\n        /* \"#utility.yul\":34862:35030   */\n      tag_638\n      jumpi\n        /* \"#utility.yul\":34949:35028   */\n      tag_639\n      tag_629\n      jump\t// in\n    tag_639:\n        /* \"#utility.yul\":34862:35030   */\n    tag_638:\n        /* \"#utility.yul\":35061:35079   */\n      dup1\n        /* \"#utility.yul\":35051:35059   */\n      dup5\n        /* \"#utility.yul\":35047:35080   */\n      add\n        /* \"#utility.yul\":35039:35080   */\n      swap3\n      pop\n        /* \"#utility.yul\":35113:35117   */\n      dup3\n        /* \"#utility.yul\":35100:35118   */\n      calldataload\n        /* \"#utility.yul\":35090:35118   */\n      swap2\n      pop\n        /* \"#utility.yul\":35141:35159   */\n      0xffffffffffffffff\n        /* \"#utility.yul\":35133:35139   */\n      dup3\n        /* \"#utility.yul\":35130:35160   */\n      gt\n        /* \"#utility.yul\":35127:35244   */\n      iszero\n      tag_640\n      jumpi\n        /* \"#utility.yul\":35163:35242   */\n      tag_641\n      tag_632\n      jump\t// in\n    tag_641:\n        /* \"#utility.yul\":35127:35244   */\n    tag_640:\n        /* \"#utility.yul\":35271:35273   */\n      0x20\n        /* \"#utility.yul\":35265:35269   */\n      dup4\n        /* \"#utility.yul\":35261:35274   */\n      add\n        /* \"#utility.yul\":35253:35274   */\n      swap3\n      pop\n        /* \"#utility.yul\":35328:35332   */\n      0x40\n        /* \"#utility.yul\":35320:35326   */\n      dup3\n        /* \"#utility.yul\":35316:35333   */\n      mul\n        /* \"#utility.yul\":35300:35314   */\n      calldatasize\n        /* \"#utility.yul\":35296:35334   */\n      sub\n        /* \"#utility.yul\":35290:35294   */\n      dup4\n        /* \"#utility.yul\":35286:35335   */\n      sgt\n        /* \"#utility.yul\":35283:35419   */\n      iszero\n      tag_642\n      jumpi\n        /* \"#utility.yul\":35338:35417   */\n      tag_643\n      tag_635\n      jump\t// in\n    tag_643:\n        /* \"#utility.yul\":35283:35419   */\n    tag_642:\n        /* \"#utility.yul\":34792:35426   */\n      pop\n        /* \"#utility.yul\":34651:35426   */\n      swap3\n      pop\n      swap3\n      swap1\n      pop\n      jump\t// out\n        /* \"#utility.yul\":35432:35830   */\n    tag_644:\n        /* \"#utility.yul\":35530:35534   */\n      0x00\n        /* \"#utility.yul\":35584:35595   */\n      dup3\n        /* \"#utility.yul\":35571:35596   */\n      calldataload\n        /* \"#utility.yul\":35684:35685   */\n      0x01\n        /* \"#utility.yul\":35678:35682   */\n      0xc0\n        /* \"#utility.yul\":35674:35686   */\n      sub\n        /* \"#utility.yul\":35663:35671   */\n      dup4\n        /* \"#utility.yul\":35647:35661   */\n      calldatasize\n        /* \"#utility.yul\":35643:35672   */\n      sub\n        /* \"#utility.yul\":35639:35687   */\n      sub\n        /* \"#utility.yul\":35619:35637   */\n      dup2\n        /* \"#utility.yul\":35615:35688   */\n      slt\n        /* \"#utility.yul\":35605:35773   */\n      tag_646\n      jumpi\n        /* \"#utility.yul\":35692:35771   */\n      tag_647\n      tag_629\n      jump\t// in\n    tag_647:\n        /* \"#utility.yul\":35605:35773   */\n    tag_646:\n        /* \"#utility.yul\":35804:35822   */\n      dup1\n        /* \"#utility.yul\":35794:35802   */\n      dup4\n        /* \"#utility.yul\":35790:35823   */\n      add\n        /* \"#utility.yul\":35782:35823   */\n      swap2\n      pop\n        /* \"#utility.yul\":35535:35830   */\n      pop\n        /* \"#utility.yul\":35432:35830   */\n      swap3\n      swap2\n      pop\n      pop\n      jump\t// out\n        /* \"#utility.yul\":35836:35965   */\n    tag_261:\n        /* \"#utility.yul\":35870:35876   */\n      0x00\n        /* \"#utility.yul\":35897:35917   */\n      tag_649\n      tag_650\n      jump\t// in\n    tag_649:\n        /* \"#utility.yul\":35887:35917   */\n      swap1\n      pop\n        /* \"#utility.yul\":35926:35959   */\n      tag_651\n        /* \"#utility.yul\":35954:35958   */\n      dup3\n        /* \"#utility.yul\":35946:35952   */\n      dup3\n        /* \"#utility.yul\":35926:35959   */\n      tag_652\n      jump\t// in\n    tag_651:\n        /* \"#utility.yul\":35836:35965   */\n      swap2\n      swap1\n      pop\n      jump\t// out\n        /* \"#utility.yul\":35971:36046   */\n    tag_650:\n        /* \"#utility.yul\":36004:36010   */\n      0x00\n        /* \"#utility.yul\":36037:36039   */\n      0x40\n        /* \"#utility.yul\":36031:36040   */\n      mload\n        /* \"#utility.yul\":36021:36040   */\n      swap1\n      pop\n        /* \"#utility.yul\":35971:36046   */\n      swap1\n      jump\t// out\n        /* \"#utility.yul\":36052:36393   */\n    tag_260:\n        /* \"#utility.yul\":36159:36163   */\n      0x00\n        /* \"#utility.yul\":36249:36267   */\n      0xffffffffffffffff\n        /* \"#utility.yul\":36241:36247   */\n      dup3\n        /* \"#utility.yul\":36238:36268   */\n      gt\n        /* \"#utility.yul\":36235:36291   */\n      iszero\n      tag_655\n      jumpi\n        /* \"#utility.yul\":36271:36289   */\n      tag_656\n      tag_657\n      jump\t// in\n    tag_656:\n        /* \"#utility.yul\":36235:36291   */\n    tag_655:\n        /* \"#utility.yul\":36321:36325   */\n      0x20\n        /* \"#utility.yul\":36313:36319   */\n      dup3\n        /* \"#utility.yul\":36309:36326   */\n      mul\n        /* \"#utility.yul\":36301:36326   */\n      swap1\n      pop\n        /* \"#utility.yul\":36381:36385   */\n      0x20\n        /* \"#utility.yul\":36375:36379   */\n      dup2\n        /* \"#utility.yul\":36371:36386   */\n      add\n        /* \"#utility.yul\":36363:36386   */\n      swap1\n      pop\n        /* \"#utility.yul\":36052:36393   */\n      swap2\n      swap1\n      pop\n      jump\t// out\n        /* \"#utility.yul\":36399:36743   */\n    tag_277:\n        /* \"#utility.yul\":36509:36513   */\n      0x00\n        /* \"#utility.yul\":36599:36617   */\n      0xffffffffffffffff\n        /* \"#utility.yul\":36591:36597   */\n      dup3\n        /* \"#utility.yul\":36588:36618   */\n      gt\n        /* \"#utility.yul\":36585:36641   */\n      iszero\n      tag_659\n      jumpi\n        /* \"#utility.yul\":36621:36639   */\n      tag_660\n      tag_657\n      jump\t// in\n    tag_660:\n        /* \"#utility.yul\":36585:36641   */\n    tag_659:\n        /* \"#utility.yul\":36671:36675   */\n      0x20\n        /* \"#utility.yul\":36663:36669   */\n      dup3\n        /* \"#utility.yul\":36659:36676   */\n      mul\n        /* \"#utility.yul\":36651:36676   */\n      swap1\n      pop\n        /* \"#utility.yul\":36731:36735   */\n      0x20\n        /* \"#utility.yul\":36725:36729   */\n      dup2\n        /* \"#utility.yul\":36721:36736   */\n      add\n        /* \"#utility.yul\":36713:36736   */\n      swap1\n      pop\n        /* \"#utility.yul\":36399:36743   */\n      swap2\n      swap1\n      pop\n      jump\t// out\n        /* \"#utility.yul\":36749:36943   */\n    tag_661:\n        /* \"#utility.yul\":36857:36861   */\n      0x00\n        /* \"#utility.yul\":36880:36886   */\n      dup2\n        /* \"#utility.yul\":36872:36886   */\n      swap1\n      pop\n        /* \"#utility.yul\":36904:36936   */\n      tag_663\n        /* \"#utility.yul\":36929:36935   */\n      dup3\n        /* \"#utility.yul\":36926:36927   */\n      0x05\n        /* \"#utility.yul\":36904:36936   */\n      tag_664\n      jump\t// in\n    tag_663:\n        /* \"#utility.yul\":36896:36936   */\n      swap1\n      pop\n        /* \"#utility.yul\":36749:36943   */\n      swap2\n      swap1\n      pop\n      jump\t// out\n        /* \"#utility.yul\":36948:37145   */\n    tag_665:\n        /* \"#utility.yul\":37059:37063   */\n      0x00\n        /* \"#utility.yul\":37082:37088   */\n      dup2\n        /* \"#utility.yul\":37074:37088   */\n      swap1\n      pop\n        /* \"#utility.yul\":37106:37138   */\n      tag_667\n        /* \"#utility.yul\":37131:37137   */\n      dup3\n        /* \"#utility.yul\":37128:37129   */\n      0x02\n        /* \"#utility.yul\":37106:37138   */\n      tag_664\n      jump\t// in\n    tag_667:\n        /* \"#utility.yul\":37098:37138   */\n      swap1\n      pop\n        /* \"#utility.yul\":36948:37145   */\n      swap2\n      swap1\n      pop\n      jump\t// out\n        /* \"#utility.yul\":37150:37284   */\n    tag_435:\n        /* \"#utility.yul\":37251:37255   */\n      0x00\n        /* \"#utility.yul\":37274:37277   */\n      dup2\n        /* \"#utility.yul\":37266:37277   */\n      swap1\n      pop\n        /* \"#utility.yul\":37150:37284   */\n      swap2\n      swap1\n      pop\n      jump\t// out\n        /* \"#utility.yul\":37290:37452   */\n    tag_450:\n        /* \"#utility.yul\":37387:37391   */\n      0x00\n        /* \"#utility.yul\":37410:37413   */\n      dup2\n        /* \"#utility.yul\":37402:37413   */\n      swap1\n      pop\n        /* \"#utility.yul\":37440:37444   */\n      0x20\n        /* \"#utility.yul\":37435:37438   */\n      dup3\n        /* \"#utility.yul\":37431:37445   */\n      add\n        /* \"#utility.yul\":37423:37445   */\n      swap1\n      pop\n        /* \"#utility.yul\":37290:37452   */\n      swap2\n      swap1\n      pop\n      jump\t// out\n        /* \"#utility.yul\":37458:37641   */\n    tag_670:\n        /* \"#utility.yul\":37549:37553   */\n      0x00\n        /* \"#utility.yul\":37572:37575   */\n      dup2\n        /* \"#utility.yul\":37564:37575   */\n      swap1\n      pop\n        /* \"#utility.yul\":37595:37598   */\n      dup2\n        /* \"#utility.yul\":37592:37593   */\n      0x00\n        /* \"#utility.yul\":37585:37599   */\n      mstore\n        /* \"#utility.yul\":37629:37633   */\n      0x20\n        /* \"#utility.yul\":37626:37627   */\n      0x00\n        /* \"#utility.yul\":37616:37634   */\n      keccak256\n        /* \"#utility.yul\":37608:37634   */\n      swap1\n      pop\n        /* \"#utility.yul\":37458:37641   */\n      swap2\n      swap1\n      pop\n      jump\t// out\n        /* \"#utility.yul\":37647:37784   */\n    tag_462:\n        /* \"#utility.yul\":37751:37755   */\n      0x00\n        /* \"#utility.yul\":37774:37777   */\n      dup2\n        /* \"#utility.yul\":37766:37777   */\n      swap1\n      pop\n        /* \"#utility.yul\":37647:37784   */\n      swap2\n      swap1\n      pop\n      jump\t// out\n        /* \"#utility.yul\":37790:37955   */\n    tag_477:\n        /* \"#utility.yul\":37890:37894   */\n      0x00\n        /* \"#utility.yul\":37913:37916   */\n      dup2\n        /* \"#utility.yul\":37905:37916   */\n      swap1\n      pop\n        /* \"#utility.yul\":37943:37947   */\n      0x20\n        /* \"#utility.yul\":37938:37941   */\n      dup3\n        /* \"#utility.yul\":37934:37948   */\n      add\n        /* \"#utility.yul\":37926:37948   */\n      swap1\n      pop\n        /* \"#utility.yul\":37790:37955   */\n      swap2\n      swap1\n      pop\n      jump\t// out\n        /* \"#utility.yul\":37961:38147   */\n    tag_674:\n        /* \"#utility.yul\":38055:38059   */\n      0x00\n        /* \"#utility.yul\":38078:38081   */\n      dup2\n        /* \"#utility.yul\":38070:38081   */\n      swap1\n      pop\n        /* \"#utility.yul\":38101:38104   */\n      dup2\n        /* \"#utility.yul\":38098:38099   */\n      0x00\n        /* \"#utility.yul\":38091:38105   */\n      mstore\n        /* \"#utility.yul\":38135:38139   */\n      0x20\n        /* \"#utility.yul\":38132:38133   */\n      0x00\n        /* \"#utility.yul\":38122:38140   */\n      keccak256\n        /* \"#utility.yul\":38114:38140   */\n      swap1\n      pop\n        /* \"#utility.yul\":37961:38147   */\n      swap2\n      swap1\n      pop\n      jump\t// out\n        /* \"#utility.yul\":38153:38297   */\n    tag_676:\n        /* \"#utility.yul\":38259:38265   */\n      0x00\n        /* \"#utility.yul\":38287:38290   */\n      dup3\n        /* \"#utility.yul\":38277:38290   */\n      swap1\n      pop\n        /* \"#utility.yul\":38153:38297   */\n      swap3\n      swap2\n      pop\n      pop\n      jump\t// out\n        /* \"#utility.yul\":38303:38447   */\n    tag_447:\n        /* \"#utility.yul\":38400:38406   */\n      0x00\n        /* \"#utility.yul\":38434:38439   */\n      dup2\n        /* \"#utility.yul\":38428:38440   */\n      mload\n        /* \"#utility.yul\":38418:38440   */\n      swap1\n      pop\n        /* \"#utility.yul\":38303:38447   */\n      swap2\n      swap1\n      pop\n      jump\t// out\n        /* \"#utility.yul\":38453:38591   */\n    tag_679:\n        /* \"#utility.yul\":38544:38550   */\n      0x00\n        /* \"#utility.yul\":38578:38583   */\n      dup2\n        /* \"#utility.yul\":38572:38584   */\n      sload\n        /* \"#utility.yul\":38562:38584   */\n      swap1\n      pop\n        /* \"#utility.yul\":38453:38591   */\n      swap2\n      swap1\n      pop\n      jump\t// out\n        /* \"#utility.yul\":38597:38744   */\n    tag_681:\n        /* \"#utility.yul\":38706:38712   */\n      0x00\n        /* \"#utility.yul\":38734:38737   */\n      dup3\n        /* \"#utility.yul\":38724:38737   */\n      swap1\n      pop\n        /* \"#utility.yul\":38597:38744   */\n      swap3\n      swap2\n      pop\n      pop\n      jump\t// out\n        /* \"#utility.yul\":38750:38897   */\n    tag_474:\n        /* \"#utility.yul\":38850:38856   */\n      0x00\n        /* \"#utility.yul\":38884:38889   */\n      dup2\n        /* \"#utility.yul\":38878:38890   */\n      mload\n        /* \"#utility.yul\":38868:38890   */\n      swap1\n      pop\n        /* \"#utility.yul\":38750:38897   */\n      swap2\n      swap1\n      pop\n      jump\t// out\n        /* \"#utility.yul\":38903:39044   */\n    tag_684:\n        /* \"#utility.yul\":38997:39003   */\n      0x00\n        /* \"#utility.yul\":39031:39036   */\n      dup2\n        /* \"#utility.yul\":39025:39037   */\n      sload\n        /* \"#utility.yul\":39015:39037   */\n      swap1\n      pop\n        /* \"#utility.yul\":38903:39044   */\n      swap2\n      swap1\n      pop\n      jump\t// out\n        /* \"#utility.yul\":39050:39197   */\n    tag_443:\n        /* \"#utility.yul\":39154:39158   */\n      0x00\n        /* \"#utility.yul\":39186:39190   */\n      0x20\n        /* \"#utility.yul\":39181:39184   */\n      dup3\n        /* \"#utility.yul\":39177:39191   */\n      add\n        /* \"#utility.yul\":39169:39191   */\n      swap1\n      pop\n        /* \"#utility.yul\":39050:39197   */\n      swap2\n      swap1\n      pop\n      jump\t// out\n        /* \"#utility.yul\":39203:39346   */\n    tag_456:\n        /* \"#utility.yul\":39303:39307   */\n      0x00\n        /* \"#utility.yul\":39335:39339   */\n      0x20\n        /* \"#utility.yul\":39330:39333   */\n      dup3\n        /* \"#utility.yul\":39326:39340   */\n      add\n        /* \"#utility.yul\":39318:39340   */\n      swap1\n      pop\n        /* \"#utility.yul\":39203:39346   */\n      swap2\n      swap1\n      pop\n      jump\t// out\n        /* \"#utility.yul\":39352:39502   */\n    tag_470:\n        /* \"#utility.yul\":39459:39463   */\n      0x00\n        /* \"#utility.yul\":39491:39495   */\n      0x40\n        /* \"#utility.yul\":39486:39489   */\n      dup3\n        /* \"#utility.yul\":39482:39496   */\n      add\n        /* \"#utility.yul\":39474:39496   */\n      swap1\n      pop\n        /* \"#utility.yul\":39352:39502   */\n      swap2\n      swap1\n      pop\n      jump\t// out\n        /* \"#utility.yul\":39508:39654   */\n    tag_483:\n        /* \"#utility.yul\":39611:39615   */\n      0x00\n        /* \"#utility.yul\":39643:39647   */\n      0x20\n        /* \"#utility.yul\":39638:39641   */\n      dup3\n        /* \"#utility.yul\":39634:39648   */\n      add\n        /* \"#utility.yul\":39626:39648   */\n      swap1\n      pop\n        /* \"#utility.yul\":39508:39654   */\n      swap2\n      swap1\n      pop\n      jump\t// out\n        /* \"#utility.yul\":39660:39864   */\n    tag_433:\n        /* \"#utility.yul\":39779:39790   */\n      0x00\n        /* \"#utility.yul\":39813:39819   */\n      dup3\n        /* \"#utility.yul\":39808:39811   */\n      dup3\n        /* \"#utility.yul\":39801:39820   */\n      mstore\n        /* \"#utility.yul\":39853:39857   */\n      0x20\n        /* \"#utility.yul\":39848:39851   */\n      dup3\n        /* \"#utility.yul\":39844:39858   */\n      add\n        /* \"#utility.yul\":39829:39858   */\n      swap1\n      pop\n        /* \"#utility.yul\":39660:39864   */\n      swap3\n      swap2\n      pop\n      pop\n      jump\t// out\n        /* \"#utility.yul\":39870:40077   */\n    tag_460:\n        /* \"#utility.yul\":39992:40003   */\n      0x00\n        /* \"#utility.yul\":40026:40032   */\n      dup3\n        /* \"#utility.yul\":40021:40024   */\n      dup3\n        /* \"#utility.yul\":40014:40033   */\n      mstore\n        /* \"#utility.yul\":40066:40070   */\n      0x20\n        /* \"#utility.yul\":40061:40064   */\n      dup3\n        /* \"#utility.yul\":40057:40071   */\n      add\n        /* \"#utility.yul\":40042:40071   */\n      swap1\n      pop\n        /* \"#utility.yul\":39870:40077   */\n      swap3\n      swap2\n      pop\n      pop\n      jump\t// out\n        /* \"#utility.yul\":40083:40252   */\n    tag_501:\n        /* \"#utility.yul\":40167:40178   */\n      0x00\n        /* \"#utility.yul\":40201:40207   */\n      dup3\n        /* \"#utility.yul\":40196:40199   */\n      dup3\n        /* \"#utility.yul\":40189:40208   */\n      mstore\n        /* \"#utility.yul\":40241:40245   */\n      0x20\n        /* \"#utility.yul\":40236:40239   */\n      dup3\n        /* \"#utility.yul\":40232:40246   */\n      add\n        /* \"#utility.yul\":40217:40246   */\n      swap1\n      pop\n        /* \"#utility.yul\":40083:40252   */\n      swap3\n      swap2\n      pop\n      pop\n      jump\t// out\n        /* \"#utility.yul\":40258:40380   */\n    tag_521:\n        /* \"#utility.yul\":40310:40315   */\n      0x00\n        /* \"#utility.yul\":40335:40374   */\n      tag_694\n        /* \"#utility.yul\":40370:40372   */\n      0x20\n        /* \"#utility.yul\":40365:40368   */\n      dup5\n        /* \"#utility.yul\":40361:40373   */\n      add\n        /* \"#utility.yul\":40356:40359   */\n      dup5\n        /* \"#utility.yul\":40335:40374   */\n      tag_285\n      jump\t// in\n    tag_694:\n        /* \"#utility.yul\":40326:40374   */\n      swap1\n      pop\n        /* \"#utility.yul\":40258:40380   */\n      swap3\n      swap2\n      pop\n      pop\n      jump\t// out\n        /* \"#utility.yul\":40386:41148   */\n    tag_572:\n        /* \"#utility.yul\":40498:40503   */\n      0x00\n        /* \"#utility.yul\":40505:40511   */\n      dup1\n        /* \"#utility.yul\":40561:40564   */\n      dup4\n        /* \"#utility.yul\":40548:40565   */\n      calldataload\n        /* \"#utility.yul\":40653:40654   */\n      0x01\n        /* \"#utility.yul\":40647:40651   */\n      0x20\n        /* \"#utility.yul\":40643:40655   */\n      sub\n        /* \"#utility.yul\":40632:40640   */\n      dup5\n        /* \"#utility.yul\":40616:40630   */\n      calldatasize\n        /* \"#utility.yul\":40612:40641   */\n      sub\n        /* \"#utility.yul\":40608:40656   */\n      sub\n        /* \"#utility.yul\":40588:40606   */\n      dup2\n        /* \"#utility.yul\":40584:40657   */\n      slt\n        /* \"#utility.yul\":40574:40742   */\n      tag_696\n      jumpi\n        /* \"#utility.yul\":40661:40740   */\n      tag_697\n      tag_698\n      jump\t// in\n    tag_697:\n        /* \"#utility.yul\":40574:40742   */\n    tag_696:\n        /* \"#utility.yul\":40784:40792   */\n      dup4\n        /* \"#utility.yul\":40764:40782   */\n      dup2\n        /* \"#utility.yul\":40760:40793   */\n      add\n        /* \"#utility.yul\":40751:40793   */\n      swap3\n      pop\n        /* \"#utility.yul\":40826:40831   */\n      dup3\n        /* \"#utility.yul\":40813:40832   */\n      calldataload\n        /* \"#utility.yul\":40803:40832   */\n      swap2\n      pop\n        /* \"#utility.yul\":40861:40865   */\n      0x20\n        /* \"#utility.yul\":40854:40859   */\n      dup4\n        /* \"#utility.yul\":40850:40866   */\n      add\n        /* \"#utility.yul\":40841:40866   */\n      swap3\n      pop\n        /* \"#utility.yul\":40889:40907   */\n      0xffffffffffffffff\n        /* \"#utility.yul\":40881:40887   */\n      dup3\n        /* \"#utility.yul\":40878:40908   */\n      gt\n        /* \"#utility.yul\":40875:40992   */\n      iszero\n      tag_699\n      jumpi\n        /* \"#utility.yul\":40911:40990   */\n      tag_700\n      tag_701\n      jump\t// in\n    tag_700:\n        /* \"#utility.yul\":40875:40992   */\n    tag_699:\n        /* \"#utility.yul\":41050:41054   */\n      0x20\n        /* \"#utility.yul\":41042:41048   */\n      dup3\n        /* \"#utility.yul\":41038:41055   */\n      mul\n        /* \"#utility.yul\":41022:41036   */\n      calldatasize\n        /* \"#utility.yul\":41018:41056   */\n      sub\n        /* \"#utility.yul\":41008:41016   */\n      dup5\n        /* \"#utility.yul\":41004:41057   */\n      sgt\n        /* \"#utility.yul\":41001:41141   */\n      iszero\n      tag_702\n      jumpi\n        /* \"#utility.yul\":41060:41139   */\n      tag_703\n      tag_704\n      jump\t// in\n    tag_703:\n        /* \"#utility.yul\":41001:41141   */\n    tag_702:\n        /* \"#utility.yul\":40512:41148   */\n      pop\n        /* \"#utility.yul\":40386:41148   */\n      swap3\n      pop\n      swap3\n      swap1\n      pop\n      jump\t// out\n        /* \"#utility.yul\":41154:41919   */\n    tag_537:\n        /* \"#utility.yul\":41269:41274   */\n      0x00\n        /* \"#utility.yul\":41276:41282   */\n      dup1\n        /* \"#utility.yul\":41332:41335   */\n      dup4\n        /* \"#utility.yul\":41319:41336   */\n      calldataload\n        /* \"#utility.yul\":41424:41425   */\n      0x01\n        /* \"#utility.yul\":41418:41422   */\n      0x20\n        /* \"#utility.yul\":41414:41426   */\n      sub\n        /* \"#utility.yul\":41403:41411   */\n      dup5\n        /* \"#utility.yul\":41387:41401   */\n      calldatasize\n        /* \"#utility.yul\":41383:41412   */\n      sub\n        /* \"#utility.yul\":41379:41427   */\n      sub\n        /* \"#utility.yul\":41359:41377   */\n      dup2\n        /* \"#utility.yul\":41355:41428   */\n      slt\n        /* \"#utility.yul\":41345:41513   */\n      tag_706\n      jumpi\n        /* \"#utility.yul\":41432:41511   */\n      tag_707\n      tag_698\n      jump\t// in\n    tag_707:\n        /* \"#utility.yul\":41345:41513   */\n    tag_706:\n        /* \"#utility.yul\":41555:41563   */\n      dup4\n        /* \"#utility.yul\":41535:41553   */\n      dup2\n        /* \"#utility.yul\":41531:41564   */\n      add\n        /* \"#utility.yul\":41522:41564   */\n      swap3\n      pop\n        /* \"#utility.yul\":41597:41602   */\n      dup3\n        /* \"#utility.yul\":41584:41603   */\n      calldataload\n        /* \"#utility.yul\":41574:41603   */\n      swap2\n      pop\n        /* \"#utility.yul\":41632:41636   */\n      0x20\n        /* \"#utility.yul\":41625:41630   */\n      dup4\n        /* \"#utility.yul\":41621:41637   */\n      add\n        /* \"#utility.yul\":41612:41637   */\n      swap3\n      pop\n        /* \"#utility.yul\":41660:41678   */\n      0xffffffffffffffff\n        /* \"#utility.yul\":41652:41658   */\n      dup3\n        /* \"#utility.yul\":41649:41679   */\n      gt\n        /* \"#utility.yul\":41646:41763   */\n      iszero\n      tag_708\n      jumpi\n        /* \"#utility.yul\":41682:41761   */\n      tag_709\n      tag_701\n      jump\t// in\n    tag_709:\n        /* \"#utility.yul\":41646:41763   */\n    tag_708:\n        /* \"#utility.yul\":41821:41825   */\n      0x40\n        /* \"#utility.yul\":41813:41819   */\n      dup3\n        /* \"#utility.yul\":41809:41826   */\n      mul\n        /* \"#utility.yul\":41793:41807   */\n      calldatasize\n        /* \"#utility.yul\":41789:41827   */\n      sub\n        /* \"#utility.yul\":41779:41787   */\n      dup5\n        /* \"#utility.yul\":41775:41828   */\n      sgt\n        /* \"#utility.yul\":41772:41912   */\n      iszero\n      tag_710\n      jumpi\n        /* \"#utility.yul\":41831:41910   */\n      tag_711\n      tag_704\n      jump\t// in\n    tag_711:\n        /* \"#utility.yul\":41772:41912   */\n    tag_710:\n        /* \"#utility.yul\":41283:41919   */\n      pop\n        /* \"#utility.yul\":41154:41919   */\n      swap3\n      pop\n      swap3\n      swap1\n      pop\n      jump\t// out\n        /* \"#utility.yul\":41925:42041   */\n    tag_528:\n        /* \"#utility.yul\":41974:41979   */\n      0x00\n        /* \"#utility.yul\":41999:42035   */\n      tag_713\n        /* \"#utility.yul\":42031:42033   */\n      0x20\n        /* \"#utility.yul\":42026:42029   */\n      dup5\n        /* \"#utility.yul\":42022:42034   */\n      add\n        /* \"#utility.yul\":42017:42020   */\n      dup5\n        /* \"#utility.yul\":41999:42035   */\n      tag_303\n      jump\t// in\n    tag_713:\n        /* \"#utility.yul\":41990:42035   */\n      swap1\n      pop\n        /* \"#utility.yul\":41925:42041   */\n      swap3\n      swap2\n      pop\n      pop\n      jump\t// out\n        /* \"#utility.yul\":42047:42169   */\n    tag_565:\n        /* \"#utility.yul\":42099:42104   */\n      0x00\n        /* \"#utility.yul\":42124:42163   */\n      tag_715\n        /* \"#utility.yul\":42159:42161   */\n      0x20\n        /* \"#utility.yul\":42154:42157   */\n      dup5\n        /* \"#utility.yul\":42150:42162   */\n      add\n        /* \"#utility.yul\":42145:42148   */\n      dup5\n        /* \"#utility.yul\":42124:42163   */\n      tag_307\n      jump\t// in\n    tag_715:\n        /* \"#utility.yul\":42115:42163   */\n      swap1\n      pop\n        /* \"#utility.yul\":42047:42169   */\n      swap3\n      swap2\n      pop\n      pop\n      jump\t// out\n        /* \"#utility.yul\":42175:42554   */\n    tag_440:\n        /* \"#utility.yul\":42260:42265   */\n      0x00\n        /* \"#utility.yul\":42315:42318   */\n      dup3\n        /* \"#utility.yul\":42302:42319   */\n      calldataload\n        /* \"#utility.yul\":42407:42408   */\n      0x01\n        /* \"#utility.yul\":42401:42405   */\n      0xc0\n        /* \"#utility.yul\":42397:42409   */\n      sub\n        /* \"#utility.yul\":42386:42394   */\n      dup4\n        /* \"#utility.yul\":42370:42384   */\n      calldatasize\n        /* \"#utility.yul\":42366:42395   */\n      sub\n        /* \"#utility.yul\":42362:42410   */\n      sub\n        /* \"#utility.yul\":42342:42360   */\n      dup2\n        /* \"#utility.yul\":42338:42411   */\n      slt\n        /* \"#utility.yul\":42328:42496   */\n      tag_717\n      jumpi\n        /* \"#utility.yul\":42415:42494   */\n      tag_718\n      tag_698\n      jump\t// in\n    tag_718:\n        /* \"#utility.yul\":42328:42496   */\n    tag_717:\n        /* \"#utility.yul\":42538:42546   */\n      dup3\n        /* \"#utility.yul\":42518:42536   */\n      dup2\n        /* \"#utility.yul\":42514:42547   */\n      add\n        /* \"#utility.yul\":42505:42547   */\n      swap2\n      pop\n        /* \"#utility.yul\":42266:42554   */\n      pop\n        /* \"#utility.yul\":42175:42554   */\n      swap3\n      swap2\n      pop\n      pop\n      jump\t// out\n        /* \"#utility.yul\":42560:42681   */\n    tag_467:\n        /* \"#utility.yul\":42647:42652   */\n      0x00\n        /* \"#utility.yul\":42672:42675   */\n      dup3\n        /* \"#utility.yul\":42663:42675   */\n      swap1\n      pop\n        /* \"#utility.yul\":42560:42681   */\n      swap3\n      swap2\n      pop\n      pop\n      jump\t// out\n        /* \"#utility.yul\":42687:42809   */\n    tag_524:\n        /* \"#utility.yul\":42739:42744   */\n      0x00\n        /* \"#utility.yul\":42764:42803   */\n      tag_721\n        /* \"#utility.yul\":42799:42801   */\n      0x20\n        /* \"#utility.yul\":42794:42797   */\n      dup5\n        /* \"#utility.yul\":42790:42802   */\n      add\n        /* \"#utility.yul\":42785:42788   */\n      dup5\n        /* \"#utility.yul\":42764:42803   */\n      tag_318\n      jump\t// in\n    tag_721:\n        /* \"#utility.yul\":42755:42803   */\n      swap1\n      pop\n        /* \"#utility.yul\":42687:42809   */\n      swap3\n      swap2\n      pop\n      pop\n      jump\t// out\n        /* \"#utility.yul\":42815:42937   */\n    tag_531:\n        /* \"#utility.yul\":42867:42872   */\n      0x00\n        /* \"#utility.yul\":42892:42931   */\n      tag_723\n        /* \"#utility.yul\":42927:42929   */\n      0x20\n        /* \"#utility.yul\":42922:42925   */\n      dup5\n        /* \"#utility.yul\":42918:42930   */\n      add\n        /* \"#utility.yul\":42913:42916   */\n      dup5\n        /* \"#utility.yul\":42892:42931   */\n      tag_321\n      jump\t// in\n    tag_723:\n        /* \"#utility.yul\":42883:42931   */\n      swap1\n      pop\n        /* \"#utility.yul\":42815:42937   */\n      swap3\n      swap2\n      pop\n      pop\n      jump\t// out\n        /* \"#utility.yul\":42943:43248   */\n    tag_145:\n        /* \"#utility.yul\":42983:42986   */\n      0x00\n        /* \"#utility.yul\":43002:43022   */\n      tag_725\n        /* \"#utility.yul\":43020:43021   */\n      dup3\n        /* \"#utility.yul\":43002:43022   */\n      tag_595\n      jump\t// in\n    tag_725:\n        /* \"#utility.yul\":42997:43022   */\n      swap2\n      pop\n        /* \"#utility.yul\":43036:43056   */\n      tag_726\n        /* \"#utility.yul\":43054:43055   */\n      dup4\n        /* \"#utility.yul\":43036:43056   */\n      tag_595\n      jump\t// in\n    tag_726:\n        /* \"#utility.yul\":43031:43056   */\n      swap3\n      pop\n        /* \"#utility.yul\":43190:43191   */\n      dup3\n        /* \"#utility.yul\":43122:43188   */\n      0xffffffffffffffffffffffffffffffffffffffffffffffffffffffffffffffff\n        /* \"#utility.yul\":43118:43192   */\n      sub\n        /* \"#utility.yul\":43115:43116   */\n      dup3\n        /* \"#utility.yul\":43112:43193   */\n      gt\n        /* \"#utility.yul\":43109:43216   */\n      iszero\n      tag_727\n      jumpi\n        /* \"#utility.yul\":43196:43214   */\n      tag_728\n      tag_729\n      jump\t// in\n    tag_728:\n        /* \"#utility.yul\":43109:43216   */\n    tag_727:\n        /* \"#utility.yul\":43240:43241   */\n      dup3\n        /* \"#utility.yul\":43237:43238   */\n      dup3\n        /* \"#utility.yul\":43233:43242   */\n      add\n        /* \"#utility.yul\":43226:43242   */\n      swap1\n      pop\n        /* \"#utility.yul\":42943:43248   */\n      swap3\n      swap2\n      pop\n      pop\n      jump\t// out\n        /* \"#utility.yul\":43254:43491   */\n    tag_121:\n        /* \"#utility.yul\":43292:43295   */\n      0x00\n        /* \"#utility.yul\":43311:43329   */\n      tag_731\n        /* \"#utility.yul\":43327:43328   */\n      dup3\n        /* \"#utility.yul\":43311:43329   */\n      tag_732\n      jump\t// in\n    tag_731:\n        /* \"#utility.yul\":43306:43329   */\n      swap2\n      pop\n        /* \"#utility.yul\":43343:43361   */\n      tag_733\n        /* \"#utility.yul\":43359:43360   */\n      dup4\n        /* \"#utility.yul\":43343:43361   */\n      tag_732\n      jump\t// in\n    tag_733:\n        /* \"#utility.yul\":43338:43361   */\n      swap3\n      pop\n        /* \"#utility.yul\":43433:43434   */\n      dup3\n        /* \"#utility.yul\":43427:43431   */\n      0xff\n        /* \"#utility.yul\":43423:43435   */\n      sub\n        /* \"#utility.yul\":43420:43421   */\n      dup3\n        /* \"#utility.yul\":43417:43436   */\n      gt\n        /* \"#utility.yul\":43414:43459   */\n      iszero\n      tag_734\n      jumpi\n        /* \"#utility.yul\":43439:43457   */\n      tag_735\n      tag_729\n      jump\t// in\n    tag_735:\n        /* \"#utility.yul\":43414:43459   */\n    tag_734:\n        /* \"#utility.yul\":43483:43484   */\n      dup3\n        /* \"#utility.yul\":43480:43481   */\n      dup3\n        /* \"#utility.yul\":43476:43485   */\n      add\n        /* \"#utility.yul\":43469:43485   */\n      swap1\n      pop\n        /* \"#utility.yul\":43254:43491   */\n      swap3\n      swap2\n      pop\n      pop\n      jump\t// out\n        /* \"#utility.yul\":43497:43845   */\n    tag_664:\n        /* \"#utility.yul\":43537:43544   */\n      0x00\n        /* \"#utility.yul\":43560:43580   */\n      tag_737\n        /* \"#utility.yul\":43578:43579   */\n      dup3\n        /* \"#utility.yul\":43560:43580   */\n      tag_595\n      jump\t// in\n    tag_737:\n        /* \"#utility.yul\":43555:43580   */\n      swap2\n      pop\n        /* \"#utility.yul\":43594:43614   */\n      tag_738\n        /* \"#utility.yul\":43612:43613   */\n      dup4\n        /* \"#utility.yul\":43594:43614   */\n      tag_595\n      jump\t// in\n    tag_738:\n        /* \"#utility.yul\":43589:43614   */\n      swap3\n      pop\n        /* \"#utility.yul\":43782:43783   */\n      dup2\n        /* \"#utility.yul\":43714:43780   */\n      0xffffffffffffffffffffffffffffffffffffffffffffffffffffffffffffffff\n        /* \"#utility.yul\":43710:43784   */\n      div\n        /* \"#utility.yul\":43707:43708   */\n      dup4\n        /* \"#utility.yul\":43704:43785   */\n      gt\n        /* \"#utility.yul\":43699:43700   */\n      dup3\n        /* \"#utility.yul\":43692:43701   */\n      iszero\n        /* \"#utility.yul\":43685:43702   */\n      iszero\n        /* \"#utility.yul\":43681:43786   */\n      and\n        /* \"#utility.yul\":43678:43809   */\n      iszero\n      tag_739\n      jumpi\n        /* \"#utility.yul\":43789:43807   */\n      tag_740\n      tag_729\n      jump\t// in\n    tag_740:\n        /* \"#utility.yul\":43678:43809   */\n    tag_739:\n        /* \"#utility.yul\":43837:43838   */\n      dup3\n        /* \"#utility.yul\":43834:43835   */\n      dup3\n        /* \"#utility.yul\":43830:43839   */\n      mul\n        /* \"#utility.yul\":43819:43839   */\n      swap1\n      pop\n        /* \"#utility.yul\":43497:43845   */\n      swap3\n      swap2\n      pop\n      pop\n      jump\t// out\n        /* \"#utility.yul\":43851:44667   */\n    tag_741:\n        /* \"#utility.yul\":43998:44001   */\n      dup2\n        /* \"#utility.yul\":43986:43996   */\n      dup4\n        /* \"#utility.yul\":43983:44002   */\n      lt\n        /* \"#utility.yul\":43980:44660   */\n      iszero\n      tag_743\n      jumpi\n        /* \"#utility.yul\":44089:44181   */\n      tag_744\n        /* \"#utility.yul\":44177:44180   */\n      dup3\n        /* \"#utility.yul\":44089:44181   */\n      tag_661\n      jump\t// in\n    tag_744:\n        /* \"#utility.yul\":44214:44313   */\n      tag_745\n        /* \"#utility.yul\":44302:44312   */\n      dup5\n        /* \"#utility.yul\":44214:44313   */\n      tag_661\n      jump\t// in\n    tag_745:\n        /* \"#utility.yul\":44348:44428   */\n      tag_746\n        /* \"#utility.yul\":44422:44427   */\n      dup4\n        /* \"#utility.yul\":44348:44428   */\n      tag_670\n      jump\t// in\n    tag_746:\n        /* \"#utility.yul\":44480:44492   */\n      dup2\n        /* \"#utility.yul\":44464:44478   */\n      dup2\n        /* \"#utility.yul\":44460:44493   */\n      add\n        /* \"#utility.yul\":44543:44555   */\n      dup4\n        /* \"#utility.yul\":44527:44541   */\n      dup3\n        /* \"#utility.yul\":44523:44556   */\n      add\n        /* \"#utility.yul\":44570:44650   */\n      tag_747\n        /* \"#utility.yul\":44640:44649   */\n      dup2\n        /* \"#utility.yul\":44627:44638   */\n      dup4\n        /* \"#utility.yul\":44570:44650   */\n      tag_748\n      jump\t// in\n    tag_747:\n        /* \"#utility.yul\":44003:44660   */\n      pop\n      pop\n      pop\n      pop\n      pop\n        /* \"#utility.yul\":43980:44660   */\n    tag_743:\n        /* \"#utility.yul\":43851:44667   */\n      pop\n      pop\n      pop\n      jump\t// out\n        /* \"#utility.yul\":44673:45504   */\n    tag_749:\n        /* \"#utility.yul\":44823:44826   */\n      dup2\n        /* \"#utility.yul\":44811:44821   */\n      dup4\n        /* \"#utility.yul\":44808:44827   */\n      lt\n        /* \"#utility.yul\":44805:45497   */\n      iszero\n      tag_751\n      jumpi\n        /* \"#utility.yul\":44914:45009   */\n      tag_752\n        /* \"#utility.yul\":45005:45008   */\n      dup3\n        /* \"#utility.yul\":44914:45009   */\n      tag_665\n      jump\t// in\n    tag_752:\n        /* \"#utility.yul\":45042:45144   */\n      tag_753\n        /* \"#utility.yul\":45133:45143   */\n      dup5\n        /* \"#utility.yul\":45042:45144   */\n      tag_665\n      jump\t// in\n    tag_753:\n        /* \"#utility.yul\":45179:45262   */\n      tag_754\n        /* \"#utility.yul\":45256:45261   */\n      dup4\n        /* \"#utility.yul\":45179:45262   */\n      tag_674\n      jump\t// in\n    tag_754:\n        /* \"#utility.yul\":45314:45326   */\n      dup2\n        /* \"#utility.yul\":45298:45312   */\n      dup2\n        /* \"#utility.yul\":45294:45327   */\n      add\n        /* \"#utility.yul\":45377:45389   */\n      dup4\n        /* \"#utility.yul\":45361:45375   */\n      dup3\n        /* \"#utility.yul\":45357:45390   */\n      add\n        /* \"#utility.yul\":45404:45487   */\n      tag_755\n        /* \"#utility.yul\":45477:45486   */\n      dup2\n        /* \"#utility.yul\":45464:45475   */\n      dup4\n        /* \"#utility.yul\":45404:45487   */\n      tag_756\n      jump\t// in\n    tag_755:\n        /* \"#utility.yul\":44828:45497   */\n      pop\n      pop\n      pop\n      pop\n      pop\n        /* \"#utility.yul\":44805:45497   */\n    tag_751:\n        /* \"#utility.yul\":44673:45504   */\n      pop\n      pop\n      pop\n      jump\t// out\n        /* \"#utility.yul\":45510:45606   */\n    tag_426:\n        /* \"#utility.yul\":45547:45554   */\n      0x00\n        /* \"#utility.yul\":45576:45600   */\n      tag_758\n        /* \"#utility.yul\":45594:45599   */\n      dup3\n        /* \"#utility.yul\":45576:45600   */\n      tag_759\n      jump\t// in\n    tag_758:\n        /* \"#utility.yul\":45565:45600   */\n      swap1\n      pop\n        /* \"#utility.yul\":45510:45606   */\n      swap2\n      swap1\n      pop\n      jump\t// out\n        /* \"#utility.yul\":45612:45716   */\n    tag_422:\n        /* \"#utility.yul\":45657:45664   */\n      0x00\n        /* \"#utility.yul\":45686:45710   */\n      tag_761\n        /* \"#utility.yul\":45704:45709   */\n      dup3\n        /* \"#utility.yul\":45686:45710   */\n      tag_759\n      jump\t// in\n    tag_761:\n        /* \"#utility.yul\":45675:45710   */\n      swap1\n      pop\n        /* \"#utility.yul\":45612:45716   */\n      swap2\n      swap1\n      pop\n      jump\t// out\n        /* \"#utility.yul\":45722:45812   */\n    tag_487:\n        /* \"#utility.yul\":45756:45763   */\n      0x00\n        /* \"#utility.yul\":45799:45804   */\n      dup2\n        /* \"#utility.yul\":45792:45805   */\n      iszero\n        /* \"#utility.yul\":45785:45806   */\n      iszero\n        /* \"#utility.yul\":45774:45806   */\n      swap1\n      pop\n        /* \"#utility.yul\":45722:45812   */\n      swap2\n      swap1\n      pop\n      jump\t// out\n        /* \"#utility.yul\":45818:45895   */\n    tag_494:\n        /* \"#utility.yul\":45855:45862   */\n      0x00\n        /* \"#utility.yul\":45884:45889   */\n      dup2\n        /* \"#utility.yul\":45873:45889   */\n      swap1\n      pop\n        /* \"#utility.yul\":45818:45895   */\n      swap2\n      swap1\n      pop\n      jump\t// out\n        /* \"#utility.yul\":45901:46019   */\n    tag_589:\n        /* \"#utility.yul\":45938:45945   */\n      0x00\n        /* \"#utility.yul\":45978:46012   */\n      0xffffffffffffffffffffffffffffffff\n        /* \"#utility.yul\":45971:45976   */\n      dup3\n        /* \"#utility.yul\":45967:46013   */\n      and\n        /* \"#utility.yul\":45956:46013   */\n      swap1\n      pop\n        /* \"#utility.yul\":45901:46019   */\n      swap2\n      swap1\n      pop\n      jump\t// out\n        /* \"#utility.yul\":46025:46151   */\n    tag_759:\n        /* \"#utility.yul\":46062:46069   */\n      0x00\n        /* \"#utility.yul\":46102:46144   */\n      0xffffffffffffffffffffffffffffffffffffffff\n        /* \"#utility.yul\":46095:46100   */\n      dup3\n        /* \"#utility.yul\":46091:46145   */\n      and\n        /* \"#utility.yul\":46080:46145   */\n      swap1\n      pop\n        /* \"#utility.yul\":46025:46151   */\n      swap2\n      swap1\n      pop\n      jump\t// out\n        /* \"#utility.yul\":46157:46234   */\n    tag_595:\n        /* \"#utility.yul\":46194:46201   */\n      0x00\n        /* \"#utility.yul\":46223:46228   */\n      dup2\n        /* \"#utility.yul\":46212:46228   */\n      swap1\n      pop\n        /* \"#utility.yul\":46157:46234   */\n      swap2\n      swap1\n      pop\n      jump\t// out\n        /* \"#utility.yul\":46240:46326   */\n    tag_732:\n        /* \"#utility.yul\":46275:46282   */\n      0x00\n        /* \"#utility.yul\":46315:46319   */\n      0xff\n        /* \"#utility.yul\":46308:46313   */\n      dup3\n        /* \"#utility.yul\":46304:46320   */\n      and\n        /* \"#utility.yul\":46293:46320   */\n      swap1\n      pop\n        /* \"#utility.yul\":46240:46326   */\n      swap2\n      swap1\n      pop\n      jump\t// out\n        /* \"#utility.yul\":46332:46530   */\n    tag_768:\n        /* \"#utility.yul\":46440:46523   */\n      tag_770\n        /* \"#utility.yul\":46521:46522   */\n      0x00\n        /* \"#utility.yul\":46515:46519   */\n      dup3\n        /* \"#utility.yul\":46440:46523   */\n      tag_771\n      jump\t// in\n    tag_770:\n        /* \"#utility.yul\":46332:46530   */\n      pop\n      jump\t// out\n        /* \"#utility.yul\":46536:46777   */\n    tag_748:\n        /* \"#utility.yul\":46624:46771   */\n    tag_773:\n        /* \"#utility.yul\":46641:46644   */\n      dup2\n        /* \"#utility.yul\":46634:46639   */\n      dup2\n        /* \"#utility.yul\":46631:46645   */\n      lt\n        /* \"#utility.yul\":46624:46771   */\n      iszero\n      tag_775\n      jumpi\n        /* \"#utility.yul\":46695:46761   */\n      tag_776\n        /* \"#utility.yul\":46759:46760   */\n      0x00\n        /* \"#utility.yul\":46752:46757   */\n      dup3\n        /* \"#utility.yul\":46695:46761   */\n      tag_777\n      jump\t// in\n    tag_776:\n        /* \"#utility.yul\":46668:46669   */\n      0x05\n        /* \"#utility.yul\":46661:46666   */\n      dup2\n        /* \"#utility.yul\":46657:46670   */\n      add\n        /* \"#utility.yul\":46648:46670   */\n      swap1\n      pop\n        /* \"#utility.yul\":46624:46771   */\n      jump(tag_773)\n    tag_775:\n        /* \"#utility.yul\":46536:46777   */\n      pop\n      pop\n      jump\t// out\n        /* \"#utility.yul\":46783:47030   */\n    tag_756:\n        /* \"#utility.yul\":46874:47024   */\n    tag_779:\n        /* \"#utility.yul\":46891:46894   */\n      dup2\n        /* \"#utility.yul\":46884:46889   */\n      dup2\n        /* \"#utility.yul\":46881:46895   */\n      lt\n        /* \"#utility.yul\":46874:47024   */\n      iszero\n      tag_781\n      jumpi\n        /* \"#utility.yul\":46945:47014   */\n      tag_782\n        /* \"#utility.yul\":47012:47013   */\n      0x00\n        /* \"#utility.yul\":47005:47010   */\n      dup3\n        /* \"#utility.yul\":46945:47014   */\n      tag_783\n      jump\t// in\n    tag_782:\n        /* \"#utility.yul\":46918:46919   */\n      0x02\n        /* \"#utility.yul\":46911:46916   */\n      dup2\n        /* \"#utility.yul\":46907:46920   */\n      add\n        /* \"#utility.yul\":46898:46920   */\n      swap1\n      pop\n        /* \"#utility.yul\":46874:47024   */\n      jump(tag_779)\n    tag_781:\n        /* \"#utility.yul\":46783:47030   */\n      pop\n      pop\n      jump\t// out\n        /* \"#utility.yul\":47036:47403   */\n    tag_784:\n        /* \"#utility.yul\":47141:47142   */\n      0x00\n        /* \"#utility.yul\":47137:47138   */\n      dup1\n        /* \"#utility.yul\":47131:47135   */\n      dup3\n        /* \"#utility.yul\":47127:47139   */\n      add\n        /* \"#utility.yul\":47120:47143   */\n      sstore\n        /* \"#utility.yul\":47174:47175   */\n      0x00\n        /* \"#utility.yul\":47170:47171   */\n      0x01\n        /* \"#utility.yul\":47164:47168   */\n      dup3\n        /* \"#utility.yul\":47160:47172   */\n      add\n        /* \"#utility.yul\":47153:47176   */\n      sstore\n        /* \"#utility.yul\":47186:47232   */\n      tag_786\n        /* \"#utility.yul\":47230:47231   */\n      0x00\n        /* \"#utility.yul\":47226:47227   */\n      0x02\n        /* \"#utility.yul\":47220:47224   */\n      dup4\n        /* \"#utility.yul\":47216:47228   */\n      add\n        /* \"#utility.yul\":47186:47232   */\n      tag_787\n      jump\t// in\n    tag_786:\n        /* \"#utility.yul\":47242:47288   */\n      tag_788\n        /* \"#utility.yul\":47286:47287   */\n      0x00\n        /* \"#utility.yul\":47282:47283   */\n      0x03\n        /* \"#utility.yul\":47276:47280   */\n      dup4\n        /* \"#utility.yul\":47272:47284   */\n      add\n        /* \"#utility.yul\":47242:47288   */\n      tag_787\n      jump\t// in\n    tag_788:\n        /* \"#utility.yul\":47298:47396   */\n      tag_789\n        /* \"#utility.yul\":47394:47395   */\n      0x00\n        /* \"#utility.yul\":47390:47391   */\n      0x04\n        /* \"#utility.yul\":47384:47388   */\n      dup4\n        /* \"#utility.yul\":47380:47392   */\n      add\n        /* \"#utility.yul\":47298:47396   */\n      tag_790\n      jump\t// in\n    tag_789:\n        /* \"#utility.yul\":47036:47403   */\n      pop\n      jump\t// out\n        /* \"#utility.yul\":47409:47582   */\n    tag_791:\n        /* \"#utility.yul\":47517:47518   */\n      0x00\n        /* \"#utility.yul\":47513:47514   */\n      dup1\n        /* \"#utility.yul\":47507:47511   */\n      dup3\n        /* \"#utility.yul\":47503:47515   */\n      add\n        /* \"#utility.yul\":47496:47519   */\n      sstore\n        /* \"#utility.yul\":47529:47575   */\n      tag_793\n        /* \"#utility.yul\":47573:47574   */\n      0x00\n        /* \"#utility.yul\":47569:47570   */\n      0x01\n        /* \"#utility.yul\":47563:47567   */\n      dup4\n        /* \"#utility.yul\":47559:47571   */\n      add\n        /* \"#utility.yul\":47529:47575   */\n      tag_787\n      jump\t// in\n    tag_793:\n        /* \"#utility.yul\":47409:47582   */\n      pop\n      jump\t// out\n        /* \"#utility.yul\":47588:47714   */\n    tag_794:\n        /* \"#utility.yul\":47638:47647   */\n      0x00\n        /* \"#utility.yul\":47671:47708   */\n      tag_796\n        /* \"#utility.yul\":47702:47707   */\n      dup3\n        /* \"#utility.yul\":47671:47708   */\n      tag_797\n      jump\t// in\n    tag_796:\n        /* \"#utility.yul\":47658:47708   */\n      swap1\n      pop\n        /* \"#utility.yul\":47588:47714   */\n      swap2\n      swap1\n      pop\n      jump\t// out\n        /* \"#utility.yul\":47720:47824   */\n    tag_798:\n        /* \"#utility.yul\":47764:47773   */\n      0x00\n        /* \"#utility.yul\":47797:47818   */\n      tag_800\n        /* \"#utility.yul\":47812:47817   */\n      dup3\n        /* \"#utility.yul\":47797:47818   */\n      tag_487\n      jump\t// in\n    tag_800:\n        /* \"#utility.yul\":47784:47818   */\n      swap1\n      pop\n        /* \"#utility.yul\":47720:47824   */\n      swap2\n      swap1\n      pop\n      jump\t// out\n        /* \"#utility.yul\":47830:47943   */\n    tag_801:\n        /* \"#utility.yul\":47880:47889   */\n      0x00\n        /* \"#utility.yul\":47913:47937   */\n      tag_803\n        /* \"#utility.yul\":47931:47936   */\n      dup3\n        /* \"#utility.yul\":47913:47937   */\n      tag_494\n      jump\t// in\n    tag_803:\n        /* \"#utility.yul\":47900:47937   */\n      swap1\n      pop\n        /* \"#utility.yul\":47830:47943   */\n      swap2\n      swap1\n      pop\n      jump\t// out\n        /* \"#utility.yul\":47949:48169   */\n    tag_132:\n        /* \"#utility.yul\":48057:48066   */\n      0x00\n        /* \"#utility.yul\":48091:48162   */\n      tag_805\n        /* \"#utility.yul\":48147:48161   */\n      calldatasize\n        /* \"#utility.yul\":48140:48145   */\n      dup4\n        /* \"#utility.yul\":48091:48162   */\n      tag_338\n      jump\t// in\n    tag_805:\n        /* \"#utility.yul\":48078:48162   */\n      swap1\n      pop\n        /* \"#utility.yul\":47949:48169   */\n      swap2\n      swap1\n      pop\n      jump\t// out\n        /* \"#utility.yul\":48175:48288   */\n    tag_806:\n        /* \"#utility.yul\":48225:48234   */\n      0x00\n        /* \"#utility.yul\":48258:48282   */\n      tag_808\n        /* \"#utility.yul\":48276:48281   */\n      dup3\n        /* \"#utility.yul\":48258:48282   */\n      tag_589\n      jump\t// in\n    tag_808:\n        /* \"#utility.yul\":48245:48282   */\n      swap1\n      pop\n        /* \"#utility.yul\":48175:48288   */\n      swap2\n      swap1\n      pop\n      jump\t// out\n        /* \"#utility.yul\":48294:48420   */\n    tag_797:\n        /* \"#utility.yul\":48344:48353   */\n      0x00\n        /* \"#utility.yul\":48377:48414   */\n      tag_810\n        /* \"#utility.yul\":48408:48413   */\n      dup3\n        /* \"#utility.yul\":48377:48414   */\n      tag_811\n      jump\t// in\n    tag_810:\n        /* \"#utility.yul\":48364:48414   */\n      swap1\n      pop\n        /* \"#utility.yul\":48294:48420   */\n      swap2\n      swap1\n      pop\n      jump\t// out\n        /* \"#utility.yul\":48426:48539   */\n    tag_811:\n        /* \"#utility.yul\":48476:48485   */\n      0x00\n        /* \"#utility.yul\":48509:48533   */\n      tag_813\n        /* \"#utility.yul\":48527:48532   */\n      dup3\n        /* \"#utility.yul\":48509:48533   */\n      tag_759\n      jump\t// in\n    tag_813:\n        /* \"#utility.yul\":48496:48533   */\n      swap1\n      pop\n        /* \"#utility.yul\":48426:48539   */\n      swap2\n      swap1\n      pop\n      jump\t// out\n        /* \"#utility.yul\":48545:48658   */\n    tag_814:\n        /* \"#utility.yul\":48595:48604   */\n      0x00\n        /* \"#utility.yul\":48628:48652   */\n      tag_816\n        /* \"#utility.yul\":48646:48651   */\n      dup3\n        /* \"#utility.yul\":48628:48652   */\n      tag_595\n      jump\t// in\n    tag_816:\n        /* \"#utility.yul\":48615:48652   */\n      swap1\n      pop\n        /* \"#utility.yul\":48545:48658   */\n      swap2\n      swap1\n      pop\n      jump\t// out\n        /* \"#utility.yul\":48664:49766   */\n    tag_817:\n        /* \"#utility.yul\":48874:48967   */\n      tag_819\n        /* \"#utility.yul\":48963:48966   */\n      dup4\n        /* \"#utility.yul\":48956:48961   */\n      dup4\n        /* \"#utility.yul\":48874:48967   */\n      tag_676\n      jump\t// in\n    tag_819:\n        /* \"#utility.yul\":48977:49062   */\n      tag_820\n        /* \"#utility.yul\":49055:49061   */\n      dup2\n        /* \"#utility.yul\":49049:49053   */\n      dup4\n        /* \"#utility.yul\":48977:49062   */\n      tag_821\n      jump\t// in\n    tag_820:\n        /* \"#utility.yul\":49086:49176   */\n      tag_822\n        /* \"#utility.yul\":49170:49175   */\n      dup4\n        /* \"#utility.yul\":49086:49176   */\n      tag_435\n      jump\t// in\n    tag_822:\n        /* \"#utility.yul\":49205:49284   */\n      tag_823\n        /* \"#utility.yul\":49279:49283   */\n      dup4\n        /* \"#utility.yul\":49205:49284   */\n      tag_670\n      jump\t// in\n    tag_823:\n        /* \"#utility.yul\":49314:49315   */\n      0x00\n        /* \"#utility.yul\":49340:49341   */\n      dup1\n        /* \"#utility.yul\":49325:49760   */\n    tag_824:\n        /* \"#utility.yul\":49350:49356   */\n      dup5\n        /* \"#utility.yul\":49347:49348   */\n      dup2\n        /* \"#utility.yul\":49344:49357   */\n      lt\n        /* \"#utility.yul\":49325:49760   */\n      iszero\n      tag_826\n      jumpi\n        /* \"#utility.yul\":49425:49502   */\n      tag_827\n        /* \"#utility.yul\":49495:49501   */\n      dup5\n        /* \"#utility.yul\":49488:49493   */\n      dup9\n        /* \"#utility.yul\":49425:49502   */\n      tag_644\n      jump\t// in\n    tag_827:\n        /* \"#utility.yul\":49516:49662   */\n      tag_828\n        /* \"#utility.yul\":49647:49661   */\n      dup2\n        /* \"#utility.yul\":49632:49645   */\n      dup5\n        /* \"#utility.yul\":49619:49630   */\n      dup7\n        /* \"#utility.yul\":49516:49662   */\n      tag_829\n      jump\t// in\n    tag_828:\n        /* \"#utility.yul\":49698:49700   */\n      0x20\n        /* \"#utility.yul\":49690:49696   */\n      dup6\n        /* \"#utility.yul\":49686:49701   */\n      add\n        /* \"#utility.yul\":49676:49701   */\n      swap5\n      pop\n        /* \"#utility.yul\":49747:49748   */\n      0x05\n        /* \"#utility.yul\":49734:49745   */\n      dup5\n        /* \"#utility.yul\":49730:49749   */\n      add\n        /* \"#utility.yul\":49715:49749   */\n      swap4\n      pop\n        /* \"#utility.yul\":49375:49760   */\n      pop\n        /* \"#utility.yul\":49371:49372   */\n      0x01\n        /* \"#utility.yul\":49368:49369   */\n      dup2\n        /* \"#utility.yul\":49364:49373   */\n      add\n        /* \"#utility.yul\":49359:49373   */\n      swap1\n      pop\n        /* \"#utility.yul\":49325:49760   */\n      jump(tag_824)\n    tag_826:\n        /* \"#utility.yul\":49329:49343   */\n      pop\n        /* \"#utility.yul\":48849:49766   */\n      pop\n      pop\n      pop\n      pop\n        /* \"#utility.yul\":48664:49766   */\n      pop\n      pop\n      pop\n      jump\t// out\n        /* \"#utility.yul\":49772:50827   */\n    tag_830:\n        /* \"#utility.yul\":49988:50084   */\n      tag_832\n        /* \"#utility.yul\":50080:50083   */\n      dup4\n        /* \"#utility.yul\":50073:50078   */\n      dup4\n        /* \"#utility.yul\":49988:50084   */\n      tag_681\n      jump\t// in\n    tag_832:\n        /* \"#utility.yul\":50094:50182   */\n      tag_833\n        /* \"#utility.yul\":50175:50181   */\n      dup2\n        /* \"#utility.yul\":50169:50173   */\n      dup4\n        /* \"#utility.yul\":50094:50182   */\n      tag_771\n      jump\t// in\n    tag_833:\n        /* \"#utility.yul\":50206:50299   */\n      tag_834\n        /* \"#utility.yul\":50293:50298   */\n      dup4\n        /* \"#utility.yul\":50206:50299   */\n      tag_462\n      jump\t// in\n    tag_834:\n        /* \"#utility.yul\":50328:50410   */\n      tag_835\n        /* \"#utility.yul\":50405:50409   */\n      dup4\n        /* \"#utility.yul\":50328:50410   */\n      tag_674\n      jump\t// in\n    tag_835:\n        /* \"#utility.yul\":50440:50441   */\n      0x00\n        /* \"#utility.yul\":50466:50467   */\n      dup1\n        /* \"#utility.yul\":50451:50821   */\n    tag_836:\n        /* \"#utility.yul\":50476:50482   */\n      dup5\n        /* \"#utility.yul\":50473:50474   */\n      dup2\n        /* \"#utility.yul\":50470:50483   */\n      lt\n        /* \"#utility.yul\":50451:50821   */\n      iszero\n      tag_838\n      jumpi\n        /* \"#utility.yul\":50551:50557   */\n      dup4\n        /* \"#utility.yul\":50571:50723   */\n      tag_839\n        /* \"#utility.yul\":50708:50722   */\n      dup2\n        /* \"#utility.yul\":50693:50706   */\n      dup5\n        /* \"#utility.yul\":50680:50691   */\n      dup7\n        /* \"#utility.yul\":50571:50723   */\n      tag_840\n      jump\t// in\n    tag_839:\n        /* \"#utility.yul\":50759:50761   */\n      0x40\n        /* \"#utility.yul\":50751:50757   */\n      dup6\n        /* \"#utility.yul\":50747:50762   */\n      add\n        /* \"#utility.yul\":50737:50762   */\n      swap5\n      pop\n        /* \"#utility.yul\":50808:50809   */\n      0x02\n        /* \"#utility.yul\":50795:50806   */\n      dup5\n        /* \"#utility.yul\":50791:50810   */\n      add\n        /* \"#utility.yul\":50776:50810   */\n      swap4\n      pop\n        /* \"#utility.yul\":50501:50821   */\n      pop\n        /* \"#utility.yul\":50497:50498   */\n      0x01\n        /* \"#utility.yul\":50494:50495   */\n      dup2\n        /* \"#utility.yul\":50490:50499   */\n      add\n        /* \"#utility.yul\":50485:50499   */\n      swap1\n      pop\n        /* \"#utility.yul\":50451:50821   */\n      jump(tag_836)\n    tag_838:\n        /* \"#utility.yul\":50455:50469   */\n      pop\n        /* \"#utility.yul\":49963:50827   */\n      pop\n      pop\n      pop\n      pop\n        /* \"#utility.yul\":49772:50827   */\n      pop\n      pop\n      pop\n      jump\t// out\n        /* \"#utility.yul\":50833:53166   */\n    tag_841:\n        /* \"#utility.yul\":51019:51020   */\n      0x00\n        /* \"#utility.yul\":51013:51017   */\n      dup2\n        /* \"#utility.yul\":51009:51021   */\n      add\n        /* \"#utility.yul\":51065:51066   */\n      0x00\n        /* \"#utility.yul\":51058:51063   */\n      dup4\n        /* \"#utility.yul\":51054:51067   */\n      add\n        /* \"#utility.yul\":51115:51127   */\n      dup1\n        /* \"#utility.yul\":51158:51200   */\n      tag_843\n        /* \"#utility.yul\":51186:51199   */\n      dup2\n        /* \"#utility.yul\":51158:51200   */\n      tag_844\n      jump\t// in\n    tag_843:\n        /* \"#utility.yul\":51141:51200   */\n      swap1\n      pop\n        /* \"#utility.yul\":51214:51292   */\n      tag_845\n        /* \"#utility.yul\":51278:51291   */\n      dup2\n        /* \"#utility.yul\":51266:51276   */\n      dup5\n        /* \"#utility.yul\":51214:51292   */\n      tag_846\n      jump\t// in\n    tag_845:\n        /* \"#utility.yul\":50976:51303   */\n      pop\n      pop\n      pop\n        /* \"#utility.yul\":51356:51357   */\n      0x01\n        /* \"#utility.yul\":51350:51354   */\n      dup2\n        /* \"#utility.yul\":51346:51358   */\n      add\n        /* \"#utility.yul\":51402:51404   */\n      0x20\n        /* \"#utility.yul\":51395:51400   */\n      dup4\n        /* \"#utility.yul\":51391:51405   */\n      add\n        /* \"#utility.yul\":51453:51465   */\n      dup1\n        /* \"#utility.yul\":51496:51538   */\n      tag_847\n        /* \"#utility.yul\":51524:51537   */\n      dup2\n        /* \"#utility.yul\":51496:51538   */\n      tag_848\n      jump\t// in\n    tag_847:\n        /* \"#utility.yul\":51479:51538   */\n      swap1\n      pop\n        /* \"#utility.yul\":51552:51630   */\n      tag_849\n        /* \"#utility.yul\":51616:51629   */\n      dup2\n        /* \"#utility.yul\":51604:51614   */\n      dup5\n        /* \"#utility.yul\":51552:51630   */\n      tag_850\n      jump\t// in\n    tag_849:\n        /* \"#utility.yul\":51313:51641   */\n      pop\n      pop\n      pop\n        /* \"#utility.yul\":51694:51695   */\n      0x01\n        /* \"#utility.yul\":51688:51692   */\n      dup2\n        /* \"#utility.yul\":51684:51696   */\n      add\n        /* \"#utility.yul\":51740:51742   */\n      0x40\n        /* \"#utility.yul\":51733:51738   */\n      dup4\n        /* \"#utility.yul\":51729:51743   */\n      add\n        /* \"#utility.yul\":51791:51803   */\n      dup1\n        /* \"#utility.yul\":51834:51873   */\n      tag_851\n        /* \"#utility.yul\":51859:51872   */\n      dup2\n        /* \"#utility.yul\":51834:51873   */\n      tag_852\n      jump\t// in\n    tag_851:\n        /* \"#utility.yul\":51817:51873   */\n      swap1\n      pop\n        /* \"#utility.yul\":51887:51960   */\n      tag_853\n        /* \"#utility.yul\":51946:51959   */\n      dup2\n        /* \"#utility.yul\":51934:51944   */\n      dup5\n        /* \"#utility.yul\":51887:51960   */\n      tag_854\n      jump\t// in\n    tag_853:\n        /* \"#utility.yul\":51651:51971   */\n      pop\n      pop\n      pop\n        /* \"#utility.yul\":52024:52025   */\n      0x02\n        /* \"#utility.yul\":52018:52022   */\n      dup2\n        /* \"#utility.yul\":52014:52026   */\n      add\n        /* \"#utility.yul\":52070:52072   */\n      0x60\n        /* \"#utility.yul\":52063:52068   */\n      dup4\n        /* \"#utility.yul\":52059:52073   */\n      add\n        /* \"#utility.yul\":52121:52133   */\n      dup1\n        /* \"#utility.yul\":52164:52206   */\n      tag_855\n        /* \"#utility.yul\":52192:52205   */\n      dup2\n        /* \"#utility.yul\":52164:52206   */\n      tag_856\n      jump\t// in\n    tag_855:\n        /* \"#utility.yul\":52147:52206   */\n      swap1\n      pop\n        /* \"#utility.yul\":52220:52298   */\n      tag_857\n        /* \"#utility.yul\":52284:52297   */\n      dup2\n        /* \"#utility.yul\":52272:52282   */\n      dup5\n        /* \"#utility.yul\":52220:52298   */\n      tag_858\n      jump\t// in\n    tag_857:\n        /* \"#utility.yul\":51981:52309   */\n      pop\n      pop\n      pop\n        /* \"#utility.yul\":52362:52363   */\n      0x03\n        /* \"#utility.yul\":52356:52360   */\n      dup2\n        /* \"#utility.yul\":52352:52364   */\n      add\n        /* \"#utility.yul\":52408:52411   */\n      0x80\n        /* \"#utility.yul\":52401:52406   */\n      dup4\n        /* \"#utility.yul\":52397:52412   */\n      add\n        /* \"#utility.yul\":52460:52472   */\n      dup1\n        /* \"#utility.yul\":52503:52545   */\n      tag_859\n        /* \"#utility.yul\":52531:52544   */\n      dup2\n        /* \"#utility.yul\":52503:52545   */\n      tag_856\n      jump\t// in\n    tag_859:\n        /* \"#utility.yul\":52486:52545   */\n      swap1\n      pop\n        /* \"#utility.yul\":52559:52637   */\n      tag_860\n        /* \"#utility.yul\":52623:52636   */\n      dup2\n        /* \"#utility.yul\":52611:52621   */\n      dup5\n        /* \"#utility.yul\":52559:52637   */\n      tag_858\n      jump\t// in\n    tag_860:\n        /* \"#utility.yul\":52319:52648   */\n      pop\n      pop\n      pop\n        /* \"#utility.yul\":52701:52702   */\n      0x04\n        /* \"#utility.yul\":52695:52699   */\n      dup2\n        /* \"#utility.yul\":52691:52703   */\n      add\n        /* \"#utility.yul\":52747:52750   */\n      0xa0\n        /* \"#utility.yul\":52740:52745   */\n      dup4\n        /* \"#utility.yul\":52736:52751   */\n      add\n        /* \"#utility.yul\":52814:52927   */\n      tag_861\n        /* \"#utility.yul\":52914:52926   */\n      dup2\n        /* \"#utility.yul\":52907:52912   */\n      dup6\n        /* \"#utility.yul\":52814:52927   */\n      tag_636\n      jump\t// in\n    tag_861:\n        /* \"#utility.yul\":52941:53148   */\n      tag_862\n        /* \"#utility.yul\":53134:53147   */\n      dup2\n        /* \"#utility.yul\":53119:53132   */\n      dup4\n        /* \"#utility.yul\":53107:53117   */\n      dup7\n        /* \"#utility.yul\":52941:53148   */\n      tag_863\n      jump\t// in\n    tag_862:\n        /* \"#utility.yul\":52658:53159   */\n      pop\n      pop\n      pop\n      pop\n        /* \"#utility.yul\":50833:53166   */\n      pop\n      pop\n      jump\t// out\n        /* \"#utility.yul\":53172:53993   */\n    tag_864:\n        /* \"#utility.yul\":53364:53365   */\n      0x00\n        /* \"#utility.yul\":53358:53362   */\n      dup2\n        /* \"#utility.yul\":53354:53366   */\n      add\n        /* \"#utility.yul\":53410:53411   */\n      0x00\n        /* \"#utility.yul\":53403:53408   */\n      dup4\n        /* \"#utility.yul\":53399:53412   */\n      add\n        /* \"#utility.yul\":53460:53472   */\n      dup1\n        /* \"#utility.yul\":53503:53545   */\n      tag_866\n        /* \"#utility.yul\":53531:53544   */\n      dup2\n        /* \"#utility.yul\":53503:53545   */\n      tag_844\n      jump\t// in\n    tag_866:\n        /* \"#utility.yul\":53486:53545   */\n      swap1\n      pop\n        /* \"#utility.yul\":53559:53637   */\n      tag_867\n        /* \"#utility.yul\":53623:53636   */\n      dup2\n        /* \"#utility.yul\":53611:53621   */\n      dup5\n        /* \"#utility.yul\":53559:53637   */\n      tag_846\n      jump\t// in\n    tag_867:\n        /* \"#utility.yul\":53321:53648   */\n      pop\n      pop\n      pop\n        /* \"#utility.yul\":53701:53702   */\n      0x01\n        /* \"#utility.yul\":53695:53699   */\n      dup2\n        /* \"#utility.yul\":53691:53703   */\n      add\n        /* \"#utility.yul\":53747:53749   */\n      0x20\n        /* \"#utility.yul\":53740:53745   */\n      dup4\n        /* \"#utility.yul\":53736:53750   */\n      add\n        /* \"#utility.yul\":53798:53810   */\n      dup1\n        /* \"#utility.yul\":53841:53883   */\n      tag_868\n        /* \"#utility.yul\":53869:53882   */\n      dup2\n        /* \"#utility.yul\":53841:53883   */\n      tag_856\n      jump\t// in\n    tag_868:\n        /* \"#utility.yul\":53824:53883   */\n      swap1\n      pop\n        /* \"#utility.yul\":53897:53975   */\n      tag_869\n        /* \"#utility.yul\":53961:53974   */\n      dup2\n        /* \"#utility.yul\":53949:53959   */\n      dup5\n        /* \"#utility.yul\":53897:53975   */\n      tag_858\n      jump\t// in\n    tag_869:\n        /* \"#utility.yul\":53658:53986   */\n      pop\n      pop\n      pop\n        /* \"#utility.yul\":53172:53993   */\n      pop\n      pop\n      jump\t// out\n        /* \"#utility.yul\":53999:57337   */\n    tag_870:\n        /* \"#utility.yul\":54181:54182   */\n      0x00\n        /* \"#utility.yul\":54175:54179   */\n      dup2\n        /* \"#utility.yul\":54171:54183   */\n      add\n        /* \"#utility.yul\":54227:54228   */\n      0x00\n        /* \"#utility.yul\":54220:54225   */\n      dup4\n        /* \"#utility.yul\":54216:54229   */\n      add\n        /* \"#utility.yul\":54277:54289   */\n      dup1\n        /* \"#utility.yul\":54320:54362   */\n      tag_872\n        /* \"#utility.yul\":54348:54361   */\n      dup2\n        /* \"#utility.yul\":54320:54362   */\n      tag_856\n      jump\t// in\n    tag_872:\n        /* \"#utility.yul\":54303:54362   */\n      swap1\n      pop\n        /* \"#utility.yul\":54376:54454   */\n      tag_873\n        /* \"#utility.yul\":54440:54453   */\n      dup2\n        /* \"#utility.yul\":54428:54438   */\n      dup5\n        /* \"#utility.yul\":54376:54454   */\n      tag_858\n      jump\t// in\n    tag_873:\n        /* \"#utility.yul\":54138:54465   */\n      pop\n      pop\n      pop\n        /* \"#utility.yul\":54518:54519   */\n      0x01\n        /* \"#utility.yul\":54512:54516   */\n      dup2\n        /* \"#utility.yul\":54508:54520   */\n      add\n        /* \"#utility.yul\":54564:54566   */\n      0x20\n        /* \"#utility.yul\":54557:54562   */\n      dup4\n        /* \"#utility.yul\":54553:54567   */\n      add\n        /* \"#utility.yul\":54615:54627   */\n      dup1\n        /* \"#utility.yul\":54658:54700   */\n      tag_874\n        /* \"#utility.yul\":54686:54699   */\n      dup2\n        /* \"#utility.yul\":54658:54700   */\n      tag_848\n      jump\t// in\n    tag_874:\n        /* \"#utility.yul\":54641:54700   */\n      swap1\n      pop\n        /* \"#utility.yul\":54714:54792   */\n      tag_875\n        /* \"#utility.yul\":54778:54791   */\n      dup2\n        /* \"#utility.yul\":54766:54776   */\n      dup5\n        /* \"#utility.yul\":54714:54792   */\n      tag_850\n      jump\t// in\n    tag_875:\n        /* \"#utility.yul\":54475:54803   */\n      pop\n      pop\n      pop\n        /* \"#utility.yul\":54856:54857   */\n      0x01\n        /* \"#utility.yul\":54850:54854   */\n      dup2\n        /* \"#utility.yul\":54846:54858   */\n      add\n        /* \"#utility.yul\":54902:54904   */\n      0x40\n        /* \"#utility.yul\":54895:54900   */\n      dup4\n        /* \"#utility.yul\":54891:54905   */\n      add\n        /* \"#utility.yul\":54953:54965   */\n      dup1\n        /* \"#utility.yul\":54996:55038   */\n      tag_876\n        /* \"#utility.yul\":55024:55037   */\n      dup2\n        /* \"#utility.yul\":54996:55038   */\n      tag_848\n      jump\t// in\n    tag_876:\n        /* \"#utility.yul\":54979:55038   */\n      swap1\n      pop\n        /* \"#utility.yul\":55052:55131   */\n      tag_877\n        /* \"#utility.yul\":55117:55130   */\n      dup2\n        /* \"#utility.yul\":55105:55115   */\n      dup5\n        /* \"#utility.yul\":55052:55131   */\n      tag_878\n      jump\t// in\n    tag_877:\n        /* \"#utility.yul\":54813:55142   */\n      pop\n      pop\n      pop\n        /* \"#utility.yul\":55195:55196   */\n      0x02\n        /* \"#utility.yul\":55189:55193   */\n      dup2\n        /* \"#utility.yul\":55185:55197   */\n      add\n        /* \"#utility.yul\":55241:55243   */\n      0x60\n        /* \"#utility.yul\":55234:55239   */\n      dup4\n        /* \"#utility.yul\":55230:55244   */\n      add\n        /* \"#utility.yul\":55292:55304   */\n      dup1\n        /* \"#utility.yul\":55335:55377   */\n      tag_879\n        /* \"#utility.yul\":55363:55376   */\n      dup2\n        /* \"#utility.yul\":55335:55377   */\n      tag_848\n      jump\t// in\n    tag_879:\n        /* \"#utility.yul\":55318:55377   */\n      swap1\n      pop\n        /* \"#utility.yul\":55391:55469   */\n      tag_880\n        /* \"#utility.yul\":55455:55468   */\n      dup2\n        /* \"#utility.yul\":55443:55453   */\n      dup5\n        /* \"#utility.yul\":55391:55469   */\n      tag_850\n      jump\t// in\n    tag_880:\n        /* \"#utility.yul\":55152:55480   */\n      pop\n      pop\n      pop\n        /* \"#utility.yul\":55533:55534   */\n      0x03\n        /* \"#utility.yul\":55527:55531   */\n      dup2\n        /* \"#utility.yul\":55523:55535   */\n      add\n        /* \"#utility.yul\":55579:55582   */\n      0x80\n        /* \"#utility.yul\":55572:55577   */\n      dup4\n        /* \"#utility.yul\":55568:55583   */\n      add\n        /* \"#utility.yul\":55631:55643   */\n      dup1\n        /* \"#utility.yul\":55674:55716   */\n      tag_881\n        /* \"#utility.yul\":55702:55715   */\n      dup2\n        /* \"#utility.yul\":55674:55716   */\n      tag_882\n      jump\t// in\n    tag_881:\n        /* \"#utility.yul\":55657:55716   */\n      swap1\n      pop\n        /* \"#utility.yul\":55730:55808   */\n      tag_883\n        /* \"#utility.yul\":55794:55807   */\n      dup2\n        /* \"#utility.yul\":55782:55792   */\n      dup5\n        /* \"#utility.yul\":55730:55808   */\n      tag_884\n      jump\t// in\n    tag_883:\n        /* \"#utility.yul\":55490:55819   */\n      pop\n      pop\n      pop\n        /* \"#utility.yul\":55872:55873   */\n      0x04\n        /* \"#utility.yul\":55866:55870   */\n      dup2\n        /* \"#utility.yul\":55862:55874   */\n      add\n        /* \"#utility.yul\":55918:55921   */\n      0xa0\n        /* \"#utility.yul\":55911:55916   */\n      dup4\n        /* \"#utility.yul\":55907:55922   */\n      add\n        /* \"#utility.yul\":55970:55982   */\n      dup1\n        /* \"#utility.yul\":56013:56055   */\n      tag_885\n        /* \"#utility.yul\":56041:56054   */\n      dup2\n        /* \"#utility.yul\":56013:56055   */\n      tag_848\n      jump\t// in\n    tag_885:\n        /* \"#utility.yul\":55996:56055   */\n      swap1\n      pop\n        /* \"#utility.yul\":56069:56147   */\n      tag_886\n        /* \"#utility.yul\":56133:56146   */\n      dup2\n        /* \"#utility.yul\":56121:56131   */\n      dup5\n        /* \"#utility.yul\":56069:56147   */\n      tag_850\n      jump\t// in\n    tag_886:\n        /* \"#utility.yul\":55829:56158   */\n      pop\n      pop\n      pop\n        /* \"#utility.yul\":56211:56212   */\n      0x04\n        /* \"#utility.yul\":56205:56209   */\n      dup2\n        /* \"#utility.yul\":56201:56213   */\n      add\n        /* \"#utility.yul\":56257:56260   */\n      0xc0\n        /* \"#utility.yul\":56250:56255   */\n      dup4\n        /* \"#utility.yul\":56246:56261   */\n      add\n        /* \"#utility.yul\":56309:56321   */\n      dup1\n        /* \"#utility.yul\":56352:56394   */\n      tag_887\n        /* \"#utility.yul\":56380:56393   */\n      dup2\n        /* \"#utility.yul\":56352:56394   */\n      tag_848\n      jump\t// in\n    tag_887:\n        /* \"#utility.yul\":56335:56394   */\n      swap1\n      pop\n        /* \"#utility.yul\":56408:56487   */\n      tag_888\n        /* \"#utility.yul\":56473:56486   */\n      dup2\n        /* \"#utility.yul\":56461:56471   */\n      dup5\n        /* \"#utility.yul\":56408:56487   */\n      tag_878\n      jump\t// in\n    tag_888:\n        /* \"#utility.yul\":56168:56498   */\n      pop\n      pop\n      pop\n        /* \"#utility.yul\":56551:56552   */\n      0x05\n        /* \"#utility.yul\":56545:56549   */\n      dup2\n        /* \"#utility.yul\":56541:56553   */\n      add\n        /* \"#utility.yul\":56597:56600   */\n      0xe0\n        /* \"#utility.yul\":56590:56595   */\n      dup4\n        /* \"#utility.yul\":56586:56601   */\n      add\n        /* \"#utility.yul\":56664:56774   */\n      tag_889\n        /* \"#utility.yul\":56761:56773   */\n      dup2\n        /* \"#utility.yul\":56754:56759   */\n      dup6\n        /* \"#utility.yul\":56664:56774   */\n      tag_625\n      jump\t// in\n    tag_889:\n        /* \"#utility.yul\":56788:56989   */\n      tag_890\n        /* \"#utility.yul\":56975:56988   */\n      dup2\n        /* \"#utility.yul\":56960:56973   */\n      dup4\n        /* \"#utility.yul\":56948:56958   */\n      dup7\n        /* \"#utility.yul\":56788:56989   */\n      tag_891\n      jump\t// in\n    tag_890:\n        /* \"#utility.yul\":56508:57000   */\n      pop\n      pop\n      pop\n      pop\n        /* \"#utility.yul\":57053:57054   */\n      0x06\n        /* \"#utility.yul\":57047:57051   */\n      dup2\n        /* \"#utility.yul\":57043:57055   */\n      add\n        /* \"#utility.yul\":57099:57102   */\n      0x0100\n        /* \"#utility.yul\":57092:57097   */\n      dup4\n        /* \"#utility.yul\":57088:57103   */\n      add\n        /* \"#utility.yul\":57151:57163   */\n      dup1\n        /* \"#utility.yul\":57194:57233   */\n      tag_892\n        /* \"#utility.yul\":57219:57232   */\n      dup2\n        /* \"#utility.yul\":57194:57233   */\n      tag_852\n      jump\t// in\n    tag_892:\n        /* \"#utility.yul\":57177:57233   */\n      swap1\n      pop\n        /* \"#utility.yul\":57247:57319   */\n      tag_893\n        /* \"#utility.yul\":57305:57318   */\n      dup2\n        /* \"#utility.yul\":57293:57303   */\n      dup5\n        /* \"#utility.yul\":57247:57319   */\n      tag_894\n      jump\t// in\n    tag_893:\n        /* \"#utility.yul\":57010:57330   */\n      pop\n      pop\n      pop\n        /* \"#utility.yul\":53999:57337   */\n      pop\n      pop\n      jump\t// out\n        /* \"#utility.yul\":57343:57624   */\n    tag_652:\n        /* \"#utility.yul\":57426:57453   */\n      tag_896\n        /* \"#utility.yul\":57448:57452   */\n      dup3\n        /* \"#utility.yul\":57426:57453   */\n      tag_897\n      jump\t// in\n    tag_896:\n        /* \"#utility.yul\":57418:57424   */\n      dup2\n        /* \"#utility.yul\":57414:57454   */\n      add\n        /* \"#utility.yul\":57556:57562   */\n      dup2\n        /* \"#utility.yul\":57544:57554   */\n      dup2\n        /* \"#utility.yul\":57541:57563   */\n      lt\n        /* \"#utility.yul\":57520:57538   */\n      0xffffffffffffffff\n        /* \"#utility.yul\":57508:57518   */\n      dup3\n        /* \"#utility.yul\":57505:57539   */\n      gt\n        /* \"#utility.yul\":57502:57564   */\n      or\n        /* \"#utility.yul\":57499:57587   */\n      iszero\n      tag_898\n      jumpi\n        /* \"#utility.yul\":57567:57585   */\n      tag_899\n      tag_657\n      jump\t// in\n    tag_899:\n        /* \"#utility.yul\":57499:57587   */\n    tag_898:\n        /* \"#utility.yul\":57607:57617   */\n      dup1\n        /* \"#utility.yul\":57603:57605   */\n      0x40\n        /* \"#utility.yul\":57596:57618   */\n      mstore\n        /* \"#utility.yul\":57386:57624   */\n      pop\n        /* \"#utility.yul\":57343:57624   */\n      pop\n      pop\n      jump\t// out\n        /* \"#utility.yul\":57630:57831   */\n    tag_160:\n        /* \"#utility.yul\":57669:57672   */\n      0x00\n        /* \"#utility.yul\":57692:57716   */\n      tag_901\n        /* \"#utility.yul\":57710:57715   */\n      dup3\n        /* \"#utility.yul\":57692:57716   */\n      tag_589\n      jump\t// in\n    tag_901:\n        /* \"#utility.yul\":57683:57716   */\n      swap2\n      pop\n        /* \"#utility.yul\":57738:57772   */\n      0xffffffffffffffffffffffffffffffff\n        /* \"#utility.yul\":57731:57736   */\n      dup3\n        /* \"#utility.yul\":57728:57773   */\n      eq\n        /* \"#utility.yul\":57725:57796   */\n      iszero\n      tag_902\n      jumpi\n        /* \"#utility.yul\":57776:57794   */\n      tag_903\n      tag_729\n      jump\t// in\n    tag_903:\n        /* \"#utility.yul\":57725:57796   */\n    tag_902:\n        /* \"#utility.yul\":57823:57824   */\n      0x01\n        /* \"#utility.yul\":57816:57821   */\n      dup3\n        /* \"#utility.yul\":57812:57825   */\n      add\n        /* \"#utility.yul\":57805:57825   */\n      swap1\n      pop\n        /* \"#utility.yul\":57630:57831   */\n      swap2\n      swap1\n      pop\n      jump\t// out\n        /* \"#utility.yul\":57837:58070   */\n    tag_81:\n        /* \"#utility.yul\":57876:57879   */\n      0x00\n        /* \"#utility.yul\":57899:57923   */\n      tag_905\n        /* \"#utility.yul\":57917:57922   */\n      dup3\n        /* \"#utility.yul\":57899:57923   */\n      tag_595\n      jump\t// in\n    tag_905:\n        /* \"#utility.yul\":57890:57923   */\n      swap2\n      pop\n        /* \"#utility.yul\":57945:58011   */\n      0xffffffffffffffffffffffffffffffffffffffffffffffffffffffffffffffff\n        /* \"#utility.yul\":57938:57943   */\n      dup3\n        /* \"#utility.yul\":57935:58012   */\n      eq\n        /* \"#utility.yul\":57932:58035   */\n      iszero\n      tag_906\n      jumpi\n        /* \"#utility.yul\":58015:58033   */\n      tag_907\n      tag_729\n      jump\t// in\n    tag_907:\n        /* \"#utility.yul\":57932:58035   */\n    tag_906:\n        /* \"#utility.yul\":58062:58063   */\n      0x01\n        /* \"#utility.yul\":58055:58060   */\n      dup3\n        /* \"#utility.yul\":58051:58064   */\n      add\n        /* \"#utility.yul\":58044:58064   */\n      swap1\n      pop\n        /* \"#utility.yul\":57837:58070   */\n      swap2\n      swap1\n      pop\n      jump\t// out\n        /* \"#utility.yul\":58076:58256   */\n    tag_908:\n        /* \"#utility.yul\":58124:58201   */\n      0x4e487b7100000000000000000000000000000000000000000000000000000000\n        /* \"#utility.yul\":58121:58122   */\n      0x00\n        /* \"#utility.yul\":58114:58202   */\n      mstore\n        /* \"#utility.yul\":58221:58225   */\n      0x00\n        /* \"#utility.yul\":58218:58219   */\n      0x04\n        /* \"#utility.yul\":58211:58226   */\n      mstore\n        /* \"#utility.yul\":58245:58249   */\n      0x24\n        /* \"#utility.yul\":58242:58243   */\n      0x00\n        /* \"#utility.yul\":58235:58250   */\n      revert\n        /* \"#utility.yul\":58262:58442   */\n    tag_729:\n        /* \"#utility.yul\":58310:58387   */\n      0x4e487b7100000000000000000000000000000000000000000000000000000000\n        /* \"#utility.yul\":58307:58308   */\n      0x00\n        /* \"#utility.yul\":58300:58388   */\n      mstore\n        /* \"#utility.yul\":58407:58411   */\n      0x11\n        /* \"#utility.yul\":58404:58405   */\n      0x04\n        /* \"#utility.yul\":58397:58412   */\n      mstore\n        /* \"#utility.yul\":58431:58435   */\n      0x24\n        /* \"#utility.yul\":58428:58429   */\n      0x00\n        /* \"#utility.yul\":58421:58436   */\n      revert\n        /* \"#utility.yul\":58448:58628   */\n    tag_74:\n        /* \"#utility.yul\":58496:58573   */\n      0x4e487b7100000000000000000000000000000000000000000000000000000000\n        /* \"#utility.yul\":58493:58494   */\n      0x00\n        /* \"#utility.yul\":58486:58574   */\n      mstore\n        /* \"#utility.yul\":58593:58597   */\n      0x32\n        /* \"#utility.yul\":58590:58591   */\n      0x04\n        /* \"#utility.yul\":58583:58598   */\n      mstore\n        /* \"#utility.yul\":58617:58621   */\n      0x24\n        /* \"#utility.yul\":58614:58615   */\n      0x00\n        /* \"#utility.yul\":58607:58622   */\n      revert\n        /* \"#utility.yul\":58634:58814   */\n    tag_657:\n        /* \"#utility.yul\":58682:58759   */\n      0x4e487b7100000000000000000000000000000000000000000000000000000000\n        /* \"#utility.yul\":58679:58680   */\n      0x00\n        /* \"#utility.yul\":58672:58760   */\n      mstore\n        /* \"#utility.yul\":58779:58783   */\n      0x41\n        /* \"#utility.yul\":58776:58777   */\n      0x04\n        /* \"#utility.yul\":58769:58784   */\n      mstore\n        /* \"#utility.yul\":58803:58807   */\n      0x24\n        /* \"#utility.yul\":58800:58801   */\n      0x00\n        /* \"#utility.yul\":58793:58808   */\n      revert\n        /* \"#utility.yul\":59070:59145   */\n    tag_917:\n        /* \"#utility.yul\":59113:59116   */\n      0x00\n        /* \"#utility.yul\":59134:59139   */\n      dup2\n        /* \"#utility.yul\":59127:59139   */\n      swap1\n      pop\n        /* \"#utility.yul\":59070:59145   */\n      swap2\n      swap1\n      pop\n      jump\t// out\n        /* \"#utility.yul\":59151:59223   */\n    tag_919:\n        /* \"#utility.yul\":59191:59194   */\n      0x00\n        /* \"#utility.yul\":59212:59217   */\n      dup2\n        /* \"#utility.yul\":59205:59217   */\n      swap1\n      pop\n        /* \"#utility.yul\":59151:59223   */\n      swap2\n      swap1\n      pop\n      jump\t// out\n        /* \"#utility.yul\":59229:59328   */\n    tag_921:\n        /* \"#utility.yul\":59272:59275   */\n      0x00\n        /* \"#utility.yul\":59293:59322   */\n      tag_923\n        /* \"#utility.yul\":59316:59321   */\n      dup3\n        /* \"#utility.yul\":59293:59322   */\n      tag_924\n      jump\t// in\n    tag_923:\n        /* \"#utility.yul\":59286:59322   */\n      swap1\n      pop\n        /* \"#utility.yul\":59229:59328   */\n      swap2\n      swap1\n      pop\n      jump\t// out\n        /* \"#utility.yul\":59334:59409   */\n    tag_925:\n        /* \"#utility.yul\":59377:59380   */\n      0x00\n        /* \"#utility.yul\":59398:59403   */\n      dup2\n        /* \"#utility.yul\":59391:59403   */\n      swap1\n      pop\n        /* \"#utility.yul\":59334:59409   */\n      swap2\n      swap1\n      pop\n      jump\t// out\n        /* \"#utility.yul\":59415:59490   */\n    tag_927:\n        /* \"#utility.yul\":59458:59461   */\n      0x00\n        /* \"#utility.yul\":59479:59484   */\n      dup2\n        /* \"#utility.yul\":59472:59484   */\n      swap1\n      pop\n        /* \"#utility.yul\":59415:59490   */\n      swap2\n      swap1\n      pop\n      jump\t// out\n        /* \"#utility.yul\":59496:59682   */\n    tag_844:\n        /* \"#utility.yul\":59541:59552   */\n      0x00\n        /* \"#utility.yul\":59590:59593   */\n      dup2\n        /* \"#utility.yul\":59577:59594   */\n      calldataload\n        /* \"#utility.yul\":59603:59636   */\n      tag_930\n        /* \"#utility.yul\":59630:59635   */\n      dup2\n        /* \"#utility.yul\":59603:59636   */\n      tag_288\n      jump\t// in\n    tag_930:\n        /* \"#utility.yul\":59670:59675   */\n      dup1\n        /* \"#utility.yul\":59646:59675   */\n      swap2\n      pop\n        /* \"#utility.yul\":59553:59682   */\n      pop\n        /* \"#utility.yul\":59496:59682   */\n      swap2\n      swap1\n      pop\n      jump\t// out\n        /* \"#utility.yul\":59688:59868   */\n    tag_852:\n        /* \"#utility.yul\":59730:59741   */\n      0x00\n        /* \"#utility.yul\":59779:59782   */\n      dup2\n        /* \"#utility.yul\":59766:59783   */\n      calldataload\n        /* \"#utility.yul\":59792:59822   */\n      tag_932\n        /* \"#utility.yul\":59816:59821   */\n      dup2\n        /* \"#utility.yul\":59792:59822   */\n      tag_306\n      jump\t// in\n    tag_932:\n        /* \"#utility.yul\":59856:59861   */\n      dup1\n        /* \"#utility.yul\":59832:59861   */\n      swap2\n      pop\n        /* \"#utility.yul\":59742:59868   */\n      pop\n        /* \"#utility.yul\":59688:59868   */\n      swap2\n      swap1\n      pop\n      jump\t// out\n        /* \"#utility.yul\":59874:60060   */\n    tag_882:\n        /* \"#utility.yul\":59919:59930   */\n      0x00\n        /* \"#utility.yul\":59968:59971   */\n      dup2\n        /* \"#utility.yul\":59955:59972   */\n      calldataload\n        /* \"#utility.yul\":59981:60014   */\n      tag_934\n        /* \"#utility.yul\":60008:60013   */\n      dup2\n        /* \"#utility.yul\":59981:60014   */\n      tag_310\n      jump\t// in\n    tag_934:\n        /* \"#utility.yul\":60048:60053   */\n      dup1\n        /* \"#utility.yul\":60024:60053   */\n      swap2\n      pop\n        /* \"#utility.yul\":59931:60060   */\n      pop\n        /* \"#utility.yul\":59874:60060   */\n      swap2\n      swap1\n      pop\n      jump\t// out\n        /* \"#utility.yul\":60066:60252   */\n    tag_848:\n        /* \"#utility.yul\":60111:60122   */\n      0x00\n        /* \"#utility.yul\":60160:60163   */\n      dup2\n        /* \"#utility.yul\":60147:60164   */\n      calldataload\n        /* \"#utility.yul\":60173:60206   */\n      tag_936\n        /* \"#utility.yul\":60200:60205   */\n      dup2\n        /* \"#utility.yul\":60173:60206   */\n      tag_356\n      jump\t// in\n    tag_936:\n        /* \"#utility.yul\":60240:60245   */\n      dup1\n        /* \"#utility.yul\":60216:60245   */\n      swap2\n      pop\n        /* \"#utility.yul\":60123:60252   */\n      pop\n        /* \"#utility.yul\":60066:60252   */\n      swap2\n      swap1\n      pop\n      jump\t// out\n        /* \"#utility.yul\":60258:60444   */\n    tag_856:\n        /* \"#utility.yul\":60303:60314   */\n      0x00\n        /* \"#utility.yul\":60352:60355   */\n      dup2\n        /* \"#utility.yul\":60339:60356   */\n      calldataload\n        /* \"#utility.yul\":60365:60398   */\n      tag_938\n        /* \"#utility.yul\":60392:60397   */\n      dup2\n        /* \"#utility.yul\":60365:60398   */\n      tag_359\n      jump\t// in\n    tag_938:\n        /* \"#utility.yul\":60432:60437   */\n      dup1\n        /* \"#utility.yul\":60408:60437   */\n      swap2\n      pop\n        /* \"#utility.yul\":60315:60444   */\n      pop\n        /* \"#utility.yul\":60258:60444   */\n      swap2\n      swap1\n      pop\n      jump\t// out\n        /* \"#utility.yul\":60450:60919   */\n    tag_821:\n        /* \"#utility.yul\":60570:60590   */\n      0x010000000000000000\n        /* \"#utility.yul\":60562:60568   */\n      dup3\n        /* \"#utility.yul\":60559:60591   */\n      gt\n        /* \"#utility.yul\":60556:60634   */\n      iszero\n      tag_940\n      jumpi\n        /* \"#utility.yul\":60606:60624   */\n      tag_941\n      tag_657\n      jump\t// in\n    tag_941:\n        /* \"#utility.yul\":60556:60634   */\n    tag_940:\n        /* \"#utility.yul\":60658:60736   */\n      tag_942\n        /* \"#utility.yul\":60730:60735   */\n      dup2\n        /* \"#utility.yul\":60658:60736   */\n      tag_679\n      jump\t// in\n    tag_942:\n        /* \"#utility.yul\":60788:60794   */\n      dup3\n        /* \"#utility.yul\":60781:60786   */\n      dup3\n        /* \"#utility.yul\":60774:60795   */\n      sstore\n        /* \"#utility.yul\":60805:60912   */\n      tag_943\n        /* \"#utility.yul\":60905:60911   */\n      dup4\n        /* \"#utility.yul\":60897:60903   */\n      dup3\n        /* \"#utility.yul\":60890:60895   */\n      dup5\n        /* \"#utility.yul\":60805:60912   */\n      tag_741\n      jump\t// in\n    tag_943:\n        /* \"#utility.yul\":60546:60919   */\n      pop\n        /* \"#utility.yul\":60450:60919   */\n      pop\n      pop\n      jump\t// out\n        /* \"#utility.yul\":60924:61402   */\n    tag_771:\n        /* \"#utility.yul\":61047:61067   */\n      0x010000000000000000\n        /* \"#utility.yul\":61039:61045   */\n      dup3\n        /* \"#utility.yul\":61036:61068   */\n      gt\n        /* \"#utility.yul\":61033:61111   */\n      iszero\n      tag_945\n      jumpi\n        /* \"#utility.yul\":61083:61101   */\n      tag_946\n      tag_657\n      jump\t// in\n    tag_946:\n        /* \"#utility.yul\":61033:61111   */\n    tag_945:\n        /* \"#utility.yul\":61135:61216   */\n      tag_947\n        /* \"#utility.yul\":61210:61215   */\n      dup2\n        /* \"#utility.yul\":61135:61216   */\n      tag_684\n      jump\t// in\n    tag_947:\n        /* \"#utility.yul\":61268:61274   */\n      dup3\n        /* \"#utility.yul\":61261:61266   */\n      dup3\n        /* \"#utility.yul\":61254:61275   */\n      sstore\n        /* \"#utility.yul\":61285:61395   */\n      tag_948\n        /* \"#utility.yul\":61388:61394   */\n      dup4\n        /* \"#utility.yul\":61380:61386   */\n      dup3\n        /* \"#utility.yul\":61373:61378   */\n      dup5\n        /* \"#utility.yul\":61285:61395   */\n      tag_749\n      jump\t// in\n    tag_948:\n        /* \"#utility.yul\":61023:61402   */\n      pop\n        /* \"#utility.yul\":60924:61402   */\n      pop\n      pop\n      jump\t// out\n        /* \"#utility.yul\":61407:61524   */\n    tag_701:\n        /* \"#utility.yul\":61516:61517   */\n      0x00\n        /* \"#utility.yul\":61513:61514   */\n      dup1\n        /* \"#utility.yul\":61506:61518   */\n      revert\n        /* \"#utility.yul\":61530:61647   */\n    tag_270:\n        /* \"#utility.yul\":61639:61640   */\n      0x00\n        /* \"#utility.yul\":61636:61637   */\n      dup1\n        /* \"#utility.yul\":61629:61641   */\n      revert\n        /* \"#utility.yul\":61653:61770   */\n    tag_632:\n        /* \"#utility.yul\":61762:61763   */\n      0x00\n        /* \"#utility.yul\":61759:61760   */\n      dup1\n        /* \"#utility.yul\":61752:61764   */\n      revert\n        /* \"#utility.yul\":61776:61893   */\n    tag_337:\n        /* \"#utility.yul\":61885:61886   */\n      0x00\n        /* \"#utility.yul\":61882:61883   */\n      dup1\n        /* \"#utility.yul\":61875:61887   */\n      revert\n        /* \"#utility.yul\":61899:62016   */\n    tag_314:\n        /* \"#utility.yul\":62008:62009   */\n      0x00\n        /* \"#utility.yul\":62005:62006   */\n      dup1\n        /* \"#utility.yul\":61998:62010   */\n      revert\n        /* \"#utility.yul\":62022:62139   */\n    tag_629:\n        /* \"#utility.yul\":62131:62132   */\n      0x00\n        /* \"#utility.yul\":62128:62129   */\n      dup1\n        /* \"#utility.yul\":62121:62133   */\n      revert\n        /* \"#utility.yul\":62145:62262   */\n    tag_704:\n        /* \"#utility.yul\":62254:62255   */\n      0x00\n        /* \"#utility.yul\":62251:62252   */\n      dup1\n        /* \"#utility.yul\":62244:62256   */\n      revert\n        /* \"#utility.yul\":62268:62385   */\n    tag_325:\n        /* \"#utility.yul\":62377:62378   */\n      0x00\n        /* \"#utility.yul\":62374:62375   */\n      dup1\n        /* \"#utility.yul\":62367:62379   */\n      revert\n        /* \"#utility.yul\":62391:62508   */\n    tag_264:\n        /* \"#utility.yul\":62500:62501   */\n      0x00\n        /* \"#utility.yul\":62497:62498   */\n      dup1\n        /* \"#utility.yul\":62490:62502   */\n      revert\n        /* \"#utility.yul\":62514:62631   */\n    tag_635:\n        /* \"#utility.yul\":62623:62624   */\n      0x00\n        /* \"#utility.yul\":62620:62621   */\n      dup1\n        /* \"#utility.yul\":62613:62625   */\n      revert\n        /* \"#utility.yul\":62637:62754   */\n    tag_392:\n        /* \"#utility.yul\":62746:62747   */\n      0x00\n        /* \"#utility.yul\":62743:62744   */\n      dup1\n        /* \"#utility.yul\":62736:62748   */\n      revert\n        /* \"#utility.yul\":62760:62877   */\n    tag_698:\n        /* \"#utility.yul\":62869:62870   */\n      0x00\n        /* \"#utility.yul\":62866:62867   */\n      dup1\n        /* \"#utility.yul\":62859:62871   */\n      revert\n        /* \"#utility.yul\":62883:63000   */\n    tag_367:\n        /* \"#utility.yul\":62992:62993   */\n      0x00\n        /* \"#utility.yul\":62989:62990   */\n      dup1\n        /* \"#utility.yul\":62982:62994   */\n      revert\n        /* \"#utility.yul\":63006:63108   */\n    tag_897:\n        /* \"#utility.yul\":63047:63053   */\n      0x00\n        /* \"#utility.yul\":63098:63100   */\n      0x1f\n        /* \"#utility.yul\":63094:63101   */\n      not\n        /* \"#utility.yul\":63089:63091   */\n      0x1f\n        /* \"#utility.yul\":63082:63087   */\n      dup4\n        /* \"#utility.yul\":63078:63092   */\n      add\n        /* \"#utility.yul\":63074:63102   */\n      and\n        /* \"#utility.yul\":63064:63102   */\n      swap1\n      pop\n        /* \"#utility.yul\":63006:63108   */\n      swap2\n      swap1\n      pop\n      jump\t// out\n        /* \"#utility.yul\":63114:63206   */\n    tag_963:\n        /* \"#utility.yul\":63146:63154   */\n      0x00\n        /* \"#utility.yul\":63193:63198   */\n      dup2\n        /* \"#utility.yul\":63190:63191   */\n      0x00\n        /* \"#utility.yul\":63186:63199   */\n      shl\n        /* \"#utility.yul\":63165:63199   */\n      swap1\n      pop\n        /* \"#utility.yul\":63114:63206   */\n      swap2\n      swap1\n      pop\n      jump\t// out\n        /* \"#utility.yul\":63212:63308   */\n    tag_965:\n        /* \"#utility.yul\":63246:63254   */\n      0x00\n        /* \"#utility.yul\":63295:63300   */\n      dup2\n        /* \"#utility.yul\":63290:63293   */\n      0x80\n        /* \"#utility.yul\":63286:63301   */\n      shl\n        /* \"#utility.yul\":63265:63301   */\n      swap1\n      pop\n        /* \"#utility.yul\":63212:63308   */\n      swap2\n      swap1\n      pop\n      jump\t// out\n        /* \"#utility.yul\":63314:63421   */\n    tag_967:\n        /* \"#utility.yul\":63358:63366   */\n      0x00\n        /* \"#utility.yul\":63408:63413   */\n      dup3\n        /* \"#utility.yul\":63402:63406   */\n      dup3\n        /* \"#utility.yul\":63398:63414   */\n      shl\n        /* \"#utility.yul\":63377:63414   */\n      swap1\n      pop\n        /* \"#utility.yul\":63314:63421   */\n      swap3\n      swap2\n      pop\n      pop\n      jump\t// out\n        /* \"#utility.yul\":63427:63529   */\n    tag_924:\n        /* \"#utility.yul\":63469:63477   */\n      0x00\n        /* \"#utility.yul\":63516:63521   */\n      dup2\n        /* \"#utility.yul\":63513:63514   */\n      0x00\n        /* \"#utility.yul\":63509:63522   */\n      shr\n        /* \"#utility.yul\":63488:63522   */\n      swap1\n      pop\n        /* \"#utility.yul\":63427:63529   */\n      swap2\n      swap1\n      pop\n      jump\t// out\n        /* \"#utility.yul\":63658:63922   */\n    tag_790:\n        /* \"#utility.yul\":63794:63795   */\n      0x00\n        /* \"#utility.yul\":63786:63792   */\n      dup3\n        /* \"#utility.yul\":63783:63796   */\n      eq\n        /* \"#utility.yul\":63773:63820   */\n      tag_972\n      jumpi\n        /* \"#utility.yul\":63800:63818   */\n      tag_973\n      tag_908\n      jump\t// in\n    tag_973:\n        /* \"#utility.yul\":63773:63820   */\n    tag_972:\n        /* \"#utility.yul\":63829:63916   */\n      tag_974\n        /* \"#utility.yul\":63911:63915   */\n      dup2\n        /* \"#utility.yul\":63829:63916   */\n      tag_768\n      jump\t// in\n    tag_974:\n        /* \"#utility.yul\":63658:63922   */\n      pop\n      pop\n      jump\t// out\n        /* \"#utility.yul\":63928:64143   */\n    tag_777:\n        /* \"#utility.yul\":64039:64040   */\n      0x00\n        /* \"#utility.yul\":64031:64037   */\n      dup3\n        /* \"#utility.yul\":64028:64041   */\n      eq\n        /* \"#utility.yul\":64018:64065   */\n      tag_976\n      jumpi\n        /* \"#utility.yul\":64045:64063   */\n      tag_977\n      tag_908\n      jump\t// in\n    tag_977:\n        /* \"#utility.yul\":64018:64065   */\n    tag_976:\n        /* \"#utility.yul\":64074:64137   */\n      tag_978\n        /* \"#utility.yul\":64132:64136   */\n      dup2\n        /* \"#utility.yul\":64074:64137   */\n      tag_784\n      jump\t// in\n    tag_978:\n        /* \"#utility.yul\":63928:64143   */\n      pop\n      pop\n      jump\t// out\n        /* \"#utility.yul\":64149:64370   */\n    tag_783:\n        /* \"#utility.yul\":64263:64264   */\n      0x00\n        /* \"#utility.yul\":64255:64261   */\n      dup3\n        /* \"#utility.yul\":64252:64265   */\n      eq\n        /* \"#utility.yul\":64242:64289   */\n      tag_980\n      jumpi\n        /* \"#utility.yul\":64269:64287   */\n      tag_981\n      tag_908\n      jump\t// in\n    tag_981:\n        /* \"#utility.yul\":64242:64289   */\n    tag_980:\n        /* \"#utility.yul\":64298:64364   */\n      tag_982\n        /* \"#utility.yul\":64359:64363   */\n      dup2\n        /* \"#utility.yul\":64298:64364   */\n      tag_791\n      jump\t// in\n    tag_982:\n        /* \"#utility.yul\":64149:64370   */\n      pop\n      pop\n      jump\t// out\n        /* \"#utility.yul\":64376:64565   */\n    tag_787:\n        /* \"#utility.yul\":64453:64485   */\n      tag_984\n      tag_985\n      jump\t// in\n    tag_984:\n        /* \"#utility.yul\":64494:64559   */\n      tag_986\n        /* \"#utility.yul\":64552:64558   */\n      dup2\n        /* \"#utility.yul\":64544:64550   */\n      dup5\n        /* \"#utility.yul\":64538:64542   */\n      dup5\n        /* \"#utility.yul\":64494:64559   */\n      tag_987\n      jump\t// in\n    tag_986:\n        /* \"#utility.yul\":64429:64565   */\n      pop\n        /* \"#utility.yul\":64376:64565   */\n      pop\n      pop\n      jump\t// out\n        /* \"#utility.yul\":64571:64740   */\n    tag_503:\n        /* \"#utility.yul\":64711:64732   */\n      0x414c52454144595f494e495449414c495a454400000000000000000000000000\n        /* \"#utility.yul\":64707:64708   */\n      0x00\n        /* \"#utility.yul\":64699:64705   */\n      dup3\n        /* \"#utility.yul\":64695:64709   */\n      add\n        /* \"#utility.yul\":64688:64733   */\n      mstore\n        /* \"#utility.yul\":64571:64740   */\n      pop\n      jump\t// out\n        /* \"#utility.yul\":64746:64912   */\n    tag_508:\n        /* \"#utility.yul\":64886:64904   */\n      0x4f523a204f55545f4f465f494e44455800000000000000000000000000000000\n        /* \"#utility.yul\":64882:64883   */\n      0x00\n        /* \"#utility.yul\":64874:64880   */\n      dup3\n        /* \"#utility.yul\":64870:64884   */\n      add\n        /* \"#utility.yul\":64863:64905   */\n      mstore\n        /* \"#utility.yul\":64746:64912   */\n      pop\n      jump\t// out\n        /* \"#utility.yul\":64918:65089   */\n    tag_513:\n        /* \"#utility.yul\":65058:65081   */\n      0x4f523a20414c52454144595f5355424d49545445440000000000000000000000\n        /* \"#utility.yul\":65054:65055   */\n      0x00\n        /* \"#utility.yul\":65046:65052   */\n      dup3\n        /* \"#utility.yul\":65042:65056   */\n      add\n        /* \"#utility.yul\":65035:65082   */\n      mstore\n        /* \"#utility.yul\":64918:65089   */\n      pop\n      jump\t// out\n        /* \"#utility.yul\":65095:65258   */\n    tag_518:\n        /* \"#utility.yul\":65235:65250   */\n      0x4f523a20494e565f4e4f4e434500000000000000000000000000000000000000\n        /* \"#utility.yul\":65231:65232   */\n      0x00\n        /* \"#utility.yul\":65223:65229   */\n      dup3\n        /* \"#utility.yul\":65219:65233   */\n      add\n        /* \"#utility.yul\":65212:65251   */\n      mstore\n        /* \"#utility.yul\":65095:65258   */\n      pop\n      jump\t// out\n        /* \"#utility.yul\":65264:65522   */\n    tag_992:\n        /* \"#utility.yul\":65322:65328   */\n      0x00\n        /* \"#utility.yul\":65351:65385   */\n      0xffffffffffffffffffffffffffffffff\n        /* \"#utility.yul\":65406:65428   */\n      tag_994\n        /* \"#utility.yul\":65419:65427   */\n      dup5\n        /* \"#utility.yul\":65406:65428   */\n      tag_963\n      jump\t// in\n    tag_994:\n        /* \"#utility.yul\":65394:65428   */\n      swap4\n      pop\n        /* \"#utility.yul\":65461:65465   */\n      dup1\n        /* \"#utility.yul\":65457:65466   */\n      not\n        /* \"#utility.yul\":65450:65455   */\n      dup4\n        /* \"#utility.yul\":65446:65467   */\n      and\n        /* \"#utility.yul\":65437:65467   */\n      swap3\n      pop\n        /* \"#utility.yul\":65510:65514   */\n      dup1\n        /* \"#utility.yul\":65500:65508   */\n      dup5\n        /* \"#utility.yul\":65496:65515   */\n      and\n        /* \"#utility.yul\":65489:65494   */\n      dup4\n        /* \"#utility.yul\":65486:65516   */\n      or\n        /* \"#utility.yul\":65476:65516   */\n      swap2\n      pop\n        /* \"#utility.yul\":65329:65522   */\n      pop\n        /* \"#utility.yul\":65264:65522   */\n      swap3\n      swap2\n      pop\n      pop\n      jump\t// out\n        /* \"#utility.yul\":65528:65821   */\n    tag_995:\n        /* \"#utility.yul\":65587:65593   */\n      0x00\n        /* \"#utility.yul\":65616:65682   */\n      0xffffffffffffffffffffffffffffffff00000000000000000000000000000000\n        /* \"#utility.yul\":65703:65727   */\n      tag_997\n        /* \"#utility.yul\":65718:65726   */\n      dup5\n        /* \"#utility.yul\":65703:65727   */\n      tag_965\n      jump\t// in\n    tag_997:\n        /* \"#utility.yul\":65691:65727   */\n      swap4\n      pop\n        /* \"#utility.yul\":65760:65764   */\n      dup1\n        /* \"#utility.yul\":65756:65765   */\n      not\n        /* \"#utility.yul\":65749:65754   */\n      dup4\n        /* \"#utility.yul\":65745:65766   */\n      and\n        /* \"#utility.yul\":65736:65766   */\n      swap3\n      pop\n        /* \"#utility.yul\":65809:65813   */\n      dup1\n        /* \"#utility.yul\":65799:65807   */\n      dup5\n        /* \"#utility.yul\":65795:65814   */\n      and\n        /* \"#utility.yul\":65788:65793   */\n      dup4\n        /* \"#utility.yul\":65785:65815   */\n      or\n        /* \"#utility.yul\":65775:65815   */\n      swap2\n      pop\n        /* \"#utility.yul\":65594:65821   */\n      pop\n        /* \"#utility.yul\":65528:65821   */\n      swap3\n      swap2\n      pop\n      pop\n      jump\t// out\n        /* \"#utility.yul\":65827:66053   */\n    tag_998:\n        /* \"#utility.yul\":65884:65890   */\n      0x00\n        /* \"#utility.yul\":65913:65916   */\n      0xff\n        /* \"#utility.yul\":65937:65959   */\n      tag_1000\n        /* \"#utility.yul\":65950:65958   */\n      dup5\n        /* \"#utility.yul\":65937:65959   */\n      tag_963\n      jump\t// in\n    tag_1000:\n        /* \"#utility.yul\":65925:65959   */\n      swap4\n      pop\n        /* \"#utility.yul\":65992:65996   */\n      dup1\n        /* \"#utility.yul\":65988:65997   */\n      not\n        /* \"#utility.yul\":65981:65986   */\n      dup4\n        /* \"#utility.yul\":65977:65998   */\n      and\n        /* \"#utility.yul\":65968:65998   */\n      swap3\n      pop\n        /* \"#utility.yul\":66041:66045   */\n      dup1\n        /* \"#utility.yul\":66031:66039   */\n      dup5\n        /* \"#utility.yul\":66027:66046   */\n      and\n        /* \"#utility.yul\":66020:66025   */\n      dup4\n        /* \"#utility.yul\":66017:66047   */\n      or\n        /* \"#utility.yul\":66007:66047   */\n      swap2\n      pop\n        /* \"#utility.yul\":65891:66053   */\n      pop\n        /* \"#utility.yul\":65827:66053   */\n      swap3\n      swap2\n      pop\n      pop\n      jump\t// out\n        /* \"#utility.yul\":66059:66321   */\n    tag_1001:\n        /* \"#utility.yul\":66117:66123   */\n      0x00\n        /* \"#utility.yul\":66146:66182   */\n      0xff00000000000000000000000000000000\n        /* \"#utility.yul\":66203:66227   */\n      tag_1003\n        /* \"#utility.yul\":66218:66226   */\n      dup5\n        /* \"#utility.yul\":66203:66227   */\n      tag_965\n      jump\t// in\n    tag_1003:\n        /* \"#utility.yul\":66191:66227   */\n      swap4\n      pop\n        /* \"#utility.yul\":66260:66264   */\n      dup1\n        /* \"#utility.yul\":66256:66265   */\n      not\n        /* \"#utility.yul\":66249:66254   */\n      dup4\n        /* \"#utility.yul\":66245:66266   */\n      and\n        /* \"#utility.yul\":66236:66266   */\n      swap3\n      pop\n        /* \"#utility.yul\":66309:66313   */\n      dup1\n        /* \"#utility.yul\":66299:66307   */\n      dup5\n        /* \"#utility.yul\":66295:66314   */\n      and\n        /* \"#utility.yul\":66288:66293   */\n      dup4\n        /* \"#utility.yul\":66285:66315   */\n      or\n        /* \"#utility.yul\":66275:66315   */\n      swap2\n      pop\n        /* \"#utility.yul\":66124:66321   */\n      pop\n        /* \"#utility.yul\":66059:66321   */\n      swap3\n      swap2\n      pop\n      pop\n      jump\t// out\n        /* \"#utility.yul\":66327:66593   */\n    tag_1004:\n        /* \"#utility.yul\":66385:66391   */\n      0x00\n        /* \"#utility.yul\":66414:66456   */\n      0xffffffffffffffffffffffffffffffffffffffff\n        /* \"#utility.yul\":66477:66499   */\n      tag_1006\n        /* \"#utility.yul\":66490:66498   */\n      dup5\n        /* \"#utility.yul\":66477:66499   */\n      tag_963\n      jump\t// in\n    tag_1006:\n        /* \"#utility.yul\":66465:66499   */\n      swap4\n      pop\n        /* \"#utility.yul\":66532:66536   */\n      dup1\n        /* \"#utility.yul\":66528:66537   */\n      not\n        /* \"#utility.yul\":66521:66526   */\n      dup4\n        /* \"#utility.yul\":66517:66538   */\n      and\n        /* \"#utility.yul\":66508:66538   */\n      swap3\n      pop\n        /* \"#utility.yul\":66581:66585   */\n      dup1\n        /* \"#utility.yul\":66571:66579   */\n      dup5\n        /* \"#utility.yul\":66567:66586   */\n      and\n        /* \"#utility.yul\":66560:66565   */\n      dup4\n        /* \"#utility.yul\":66557:66587   */\n      or\n        /* \"#utility.yul\":66547:66587   */\n      swap2\n      pop\n        /* \"#utility.yul\":66392:66593   */\n      pop\n        /* \"#utility.yul\":66327:66593   */\n      swap3\n      swap2\n      pop\n      pop\n      jump\t// out\n        /* \"#utility.yul\":66599:66889   */\n    tag_1007:\n        /* \"#utility.yul\":66657:66663   */\n      0x00\n        /* \"#utility.yul\":66686:66752   */\n      0xffffffffffffffffffffffffffffffffffffffffffffffffffffffffffffffff\n        /* \"#utility.yul\":66773:66795   */\n      tag_1009\n        /* \"#utility.yul\":66786:66794   */\n      dup5\n        /* \"#utility.yul\":66773:66795   */\n      tag_963\n      jump\t// in\n    tag_1009:\n        /* \"#utility.yul\":66761:66795   */\n      swap4\n      pop\n        /* \"#utility.yul\":66828:66832   */\n      dup1\n        /* \"#utility.yul\":66824:66833   */\n      not\n        /* \"#utility.yul\":66817:66822   */\n      dup4\n        /* \"#utility.yul\":66813:66834   */\n      and\n        /* \"#utility.yul\":66804:66834   */\n      swap3\n      pop\n        /* \"#utility.yul\":66877:66881   */\n      dup1\n        /* \"#utility.yul\":66867:66875   */\n      dup5\n        /* \"#utility.yul\":66863:66882   */\n      and\n        /* \"#utility.yul\":66856:66861   */\n      dup4\n        /* \"#utility.yul\":66853:66883   */\n      or\n        /* \"#utility.yul\":66843:66883   */\n      swap2\n      pop\n        /* \"#utility.yul\":66664:66889   */\n      pop\n        /* \"#utility.yul\":66599:66889   */\n      swap3\n      swap2\n      pop\n      pop\n      jump\t// out\n        /* \"#utility.yul\":66895:67288   */\n    tag_1010:\n        /* \"#utility.yul\":66964:66970   */\n      0x00\n        /* \"#utility.yul\":67014:67015   */\n      0x08\n        /* \"#utility.yul\":67002:67012   */\n      dup4\n        /* \"#utility.yul\":66998:67016   */\n      mul\n        /* \"#utility.yul\":67037:67134   */\n      tag_1012\n        /* \"#utility.yul\":67067:67133   */\n      0xffffffffffffffffffffffffffffffffffffffffffffffffffffffffffffffff\n        /* \"#utility.yul\":67056:67065   */\n      dup3\n        /* \"#utility.yul\":67037:67134   */\n      tag_967\n      jump\t// in\n    tag_1012:\n        /* \"#utility.yul\":67155:67194   */\n      tag_1013\n        /* \"#utility.yul\":67185:67193   */\n      dup7\n        /* \"#utility.yul\":67174:67183   */\n      dup4\n        /* \"#utility.yul\":67155:67194   */\n      tag_967\n      jump\t// in\n    tag_1013:\n        /* \"#utility.yul\":67143:67194   */\n      swap6\n      pop\n        /* \"#utility.yul\":67227:67231   */\n      dup1\n        /* \"#utility.yul\":67223:67232   */\n      not\n        /* \"#utility.yul\":67216:67221   */\n      dup5\n        /* \"#utility.yul\":67212:67233   */\n      and\n        /* \"#utility.yul\":67203:67233   */\n      swap4\n      pop\n        /* \"#utility.yul\":67276:67280   */\n      dup1\n        /* \"#utility.yul\":67266:67274   */\n      dup7\n        /* \"#utility.yul\":67262:67281   */\n      and\n        /* \"#utility.yul\":67255:67260   */\n      dup5\n        /* \"#utility.yul\":67252:67282   */\n      or\n        /* \"#utility.yul\":67242:67282   */\n      swap3\n      pop\n        /* \"#utility.yul\":66971:67288   */\n      pop\n      pop\n        /* \"#utility.yul\":66895:67288   */\n      swap4\n      swap3\n      pop\n      pop\n      pop\n      jump\t// out\n        /* \"#utility.yul\":67294:67556   */\n    tag_846:\n        /* \"#utility.yul\":67404:67443   */\n      tag_1015\n        /* \"#utility.yul\":67435:67442   */\n      dup3\n        /* \"#utility.yul\":67404:67443   */\n      tag_794\n      jump\t// in\n    tag_1015:\n        /* \"#utility.yul\":67465:67549   */\n      tag_1016\n        /* \"#utility.yul\":67507:67548   */\n      tag_1017\n        /* \"#utility.yul\":67531:67547   */\n      dup3\n        /* \"#utility.yul\":67507:67548   */\n      tag_917\n      jump\t// in\n    tag_1017:\n        /* \"#utility.yul\":67500:67504   */\n      dup4\n        /* \"#utility.yul\":67494:67505   */\n      sload\n        /* \"#utility.yul\":67465:67549   */\n      tag_1004\n      jump\t// in\n    tag_1016:\n        /* \"#utility.yul\":67459:67463   */\n      dup3\n        /* \"#utility.yul\":67452:67550   */\n      sstore\n        /* \"#utility.yul\":67370:67556   */\n      pop\n        /* \"#utility.yul\":67294:67556   */\n      pop\n      pop\n      jump\t// out\n        /* \"#utility.yul\":67562:67953   */\n    tag_891:\n        /* \"#utility.yul\":67766:67947   */\n      tag_1019\n        /* \"#utility.yul\":67939:67946   */\n      dup4\n        /* \"#utility.yul\":67930:67937   */\n      dup4\n        /* \"#utility.yul\":67924:67928   */\n      dup4\n        /* \"#utility.yul\":67766:67947   */\n      tag_817\n      jump\t// in\n    tag_1019:\n        /* \"#utility.yul\":67562:67953   */\n      pop\n      pop\n      pop\n      jump\t// out\n        /* \"#utility.yul\":67959:68362   */\n    tag_863:\n        /* \"#utility.yul\":68169:68356   */\n      tag_1021\n        /* \"#utility.yul\":68348:68355   */\n      dup4\n        /* \"#utility.yul\":68339:68346   */\n      dup4\n        /* \"#utility.yul\":68333:68337   */\n      dup4\n        /* \"#utility.yul\":68169:68356   */\n      tag_830\n      jump\t// in\n    tag_1021:\n        /* \"#utility.yul\":67959:68362   */\n      pop\n      pop\n      pop\n      jump\t// out\n        /* \"#utility.yul\":68368:68614   */\n    tag_894:\n        /* \"#utility.yul\":68472:68505   */\n      tag_1023\n        /* \"#utility.yul\":68497:68504   */\n      dup3\n        /* \"#utility.yul\":68472:68505   */\n      tag_798\n      jump\t// in\n    tag_1023:\n        /* \"#utility.yul\":68527:68607   */\n      tag_1024\n        /* \"#utility.yul\":68568:68606   */\n      tag_1025\n        /* \"#utility.yul\":68589:68605   */\n      dup3\n        /* \"#utility.yul\":68568:68606   */\n      tag_919\n      jump\t// in\n    tag_1025:\n        /* \"#utility.yul\":68561:68565   */\n      dup4\n        /* \"#utility.yul\":68555:68566   */\n      sload\n        /* \"#utility.yul\":68527:68607   */\n      tag_998\n      jump\t// in\n    tag_1024:\n        /* \"#utility.yul\":68521:68525   */\n      dup3\n        /* \"#utility.yul\":68514:68608   */\n      sstore\n        /* \"#utility.yul\":68438:68614   */\n      pop\n        /* \"#utility.yul\":68368:68614   */\n      pop\n      pop\n      jump\t// out\n        /* \"#utility.yul\":68620:68882   */\n    tag_884:\n        /* \"#utility.yul\":68730:68769   */\n      tag_1027\n        /* \"#utility.yul\":68761:68768   */\n      dup3\n        /* \"#utility.yul\":68730:68769   */\n      tag_801\n      jump\t// in\n    tag_1027:\n        /* \"#utility.yul\":68791:68875   */\n      tag_1028\n        /* \"#utility.yul\":68833:68874   */\n      tag_1029\n        /* \"#utility.yul\":68857:68873   */\n      dup3\n        /* \"#utility.yul\":68833:68874   */\n      tag_921\n      jump\t// in\n    tag_1029:\n        /* \"#utility.yul\":68826:68830   */\n      dup4\n        /* \"#utility.yul\":68820:68831   */\n      sload\n        /* \"#utility.yul\":68791:68875   */\n      tag_1007\n      jump\t// in\n    tag_1028:\n        /* \"#utility.yul\":68785:68789   */\n      dup3\n        /* \"#utility.yul\":68778:68876   */\n      sstore\n        /* \"#utility.yul\":68696:68882   */\n      pop\n        /* \"#utility.yul\":68620:68882   */\n      pop\n      pop\n      jump\t// out\n        /* \"#utility.yul\":68888:69156   */\n    tag_149:\n        /* \"#utility.yul\":69030:69150   */\n      tag_1031\n        /* \"#utility.yul\":69142:69149   */\n      dup3\n        /* \"#utility.yul\":69136:69140   */\n      dup3\n        /* \"#utility.yul\":69030:69150   */\n      tag_870\n      jump\t// in\n    tag_1031:\n        /* \"#utility.yul\":68888:69156   */\n      pop\n      pop\n      jump\t// out\n        /* \"#utility.yul\":69162:69424   */\n    tag_850:\n        /* \"#utility.yul\":69272:69311   */\n      tag_1033\n        /* \"#utility.yul\":69303:69310   */\n      dup3\n        /* \"#utility.yul\":69272:69311   */\n      tag_806\n      jump\t// in\n    tag_1033:\n        /* \"#utility.yul\":69333:69417   */\n      tag_1034\n        /* \"#utility.yul\":69375:69416   */\n      tag_1035\n        /* \"#utility.yul\":69399:69415   */\n      dup3\n        /* \"#utility.yul\":69375:69416   */\n      tag_925\n      jump\t// in\n    tag_1035:\n        /* \"#utility.yul\":69368:69372   */\n      dup4\n        /* \"#utility.yul\":69362:69373   */\n      sload\n        /* \"#utility.yul\":69333:69417   */\n      tag_992\n      jump\t// in\n    tag_1034:\n        /* \"#utility.yul\":69327:69331   */\n      dup3\n        /* \"#utility.yul\":69320:69418   */\n      sstore\n        /* \"#utility.yul\":69238:69424   */\n      pop\n        /* \"#utility.yul\":69162:69424   */\n      pop\n      pop\n      jump\t// out\n        /* \"#utility.yul\":69430:69692   */\n    tag_858:\n        /* \"#utility.yul\":69540:69579   */\n      tag_1037\n        /* \"#utility.yul\":69571:69578   */\n      dup3\n        /* \"#utility.yul\":69540:69579   */\n      tag_814\n      jump\t// in\n    tag_1037:\n        /* \"#utility.yul\":69601:69685   */\n      tag_1038\n        /* \"#utility.yul\":69643:69684   */\n      tag_1039\n        /* \"#utility.yul\":69667:69683   */\n      dup3\n        /* \"#utility.yul\":69643:69684   */\n      tag_927\n      jump\t// in\n    tag_1039:\n        /* \"#utility.yul\":69636:69640   */\n      dup4\n        /* \"#utility.yul\":69630:69641   */\n      sload\n        /* \"#utility.yul\":69601:69685   */\n      tag_1007\n      jump\t// in\n    tag_1038:\n        /* \"#utility.yul\":69595:69599   */\n      dup3\n        /* \"#utility.yul\":69588:69686   */\n      sstore\n        /* \"#utility.yul\":69506:69692   */\n      pop\n        /* \"#utility.yul\":69430:69692   */\n      pop\n      pop\n      jump\t// out\n        /* \"#utility.yul\":69698:69946   */\n    tag_854:\n        /* \"#utility.yul\":69803:69836   */\n      tag_1041\n        /* \"#utility.yul\":69828:69835   */\n      dup3\n        /* \"#utility.yul\":69803:69836   */\n      tag_798\n      jump\t// in\n    tag_1041:\n        /* \"#utility.yul\":69858:69939   */\n      tag_1042\n        /* \"#utility.yul\":69900:69938   */\n      tag_1043\n        /* \"#utility.yul\":69921:69937   */\n      dup3\n        /* \"#utility.yul\":69900:69938   */\n      tag_919\n      jump\t// in\n    tag_1043:\n        /* \"#utility.yul\":69893:69897   */\n      dup4\n        /* \"#utility.yul\":69887:69898   */\n      sload\n        /* \"#utility.yul\":69858:69939   */\n      tag_1001\n      jump\t// in\n    tag_1042:\n        /* \"#utility.yul\":69852:69856   */\n      dup3\n        /* \"#utility.yul\":69845:69940   */\n      sstore\n        /* \"#utility.yul\":69769:69946   */\n      pop\n        /* \"#utility.yul\":69698:69946   */\n      pop\n      pop\n      jump\t// out\n        /* \"#utility.yul\":69952:70216   */\n    tag_878:\n        /* \"#utility.yul\":70063:70102   */\n      tag_1045\n        /* \"#utility.yul\":70094:70101   */\n      dup3\n        /* \"#utility.yul\":70063:70102   */\n      tag_806\n      jump\t// in\n    tag_1045:\n        /* \"#utility.yul\":70124:70209   */\n      tag_1046\n        /* \"#utility.yul\":70167:70208   */\n      tag_1047\n        /* \"#utility.yul\":70191:70207   */\n      dup3\n        /* \"#utility.yul\":70167:70208   */\n      tag_925\n      jump\t// in\n    tag_1047:\n        /* \"#utility.yul\":70160:70164   */\n      dup4\n        /* \"#utility.yul\":70154:70165   */\n      sload\n        /* \"#utility.yul\":70124:70209   */\n      tag_995\n      jump\t// in\n    tag_1046:\n        /* \"#utility.yul\":70118:70122   */\n      dup3\n        /* \"#utility.yul\":70111:70210   */\n      sstore\n        /* \"#utility.yul\":70029:70216   */\n      pop\n        /* \"#utility.yul\":69952:70216   */\n      pop\n      pop\n      jump\t// out\n        /* \"#utility.yul\":70222:70538   */\n    tag_829:\n        /* \"#utility.yul\":70370:70376   */\n      dup2\n        /* \"#utility.yul\":70367:70399   */\n      iszero\n      tag_1049\n      jumpi\n        /* \"#utility.yul\":70379:70397   */\n      tag_1050\n      tag_908\n      jump\t// in\n    tag_1050:\n        /* \"#utility.yul\":70367:70399   */\n    tag_1049:\n        /* \"#utility.yul\":70408:70532   */\n      tag_1051\n        /* \"#utility.yul\":70524:70531   */\n      dup4\n        /* \"#utility.yul\":70518:70522   */\n      dup3\n        /* \"#utility.yul\":70408:70532   */\n      tag_841\n      jump\t// in\n    tag_1051:\n        /* \"#utility.yul\":70222:70538   */\n      pop\n      pop\n      pop\n      jump\t// out\n        /* \"#utility.yul\":70544:70872   */\n    tag_840:\n        /* \"#utility.yul\":70698:70704   */\n      dup2\n        /* \"#utility.yul\":70695:70727   */\n      iszero\n      tag_1053\n      jumpi\n        /* \"#utility.yul\":70707:70725   */\n      tag_1054\n      tag_908\n      jump\t// in\n    tag_1054:\n        /* \"#utility.yul\":70695:70727   */\n    tag_1053:\n        /* \"#utility.yul\":70736:70866   */\n      tag_1055\n        /* \"#utility.yul\":70858:70865   */\n      dup4\n        /* \"#utility.yul\":70852:70856   */\n      dup3\n        /* \"#utility.yul\":70736:70866   */\n      tag_864\n      jump\t// in\n    tag_1055:\n        /* \"#utility.yul\":70544:70872   */\n      pop\n      pop\n      pop\n      jump\t// out\n        /* \"#utility.yul\":70878:71147   */\n    tag_987:\n        /* \"#utility.yul\":70988:71027   */\n      tag_1057\n        /* \"#utility.yul\":71019:71026   */\n      dup4\n        /* \"#utility.yul\":70988:71027   */\n      tag_814\n      jump\t// in\n    tag_1057:\n        /* \"#utility.yul\":71049:71140   */\n      tag_1058\n        /* \"#utility.yul\":71098:71139   */\n      tag_1059\n        /* \"#utility.yul\":71122:71138   */\n      dup3\n        /* \"#utility.yul\":71098:71139   */\n      tag_927\n      jump\t// in\n    tag_1059:\n        /* \"#utility.yul\":71090:71096   */\n      dup5\n        /* \"#utility.yul\":71083:71087   */\n      dup5\n        /* \"#utility.yul\":71077:71088   */\n      sload\n        /* \"#utility.yul\":71049:71140   */\n      tag_1010\n      jump\t// in\n    tag_1058:\n        /* \"#utility.yul\":71043:71047   */\n      dup3\n        /* \"#utility.yul\":71036:71141   */\n      sstore\n        /* \"#utility.yul\":70954:71147   */\n      pop\n        /* \"#utility.yul\":70878:71147   */\n      pop\n      pop\n      pop\n      jump\t// out\n        /* \"#utility.yul\":71153:71275   */\n    tag_288:\n        /* \"#utility.yul\":71226:71250   */\n      tag_1061\n        /* \"#utility.yul\":71244:71249   */\n      dup2\n        /* \"#utility.yul\":71226:71250   */\n      tag_426\n      jump\t// in\n    tag_1061:\n        /* \"#utility.yul\":71219:71224   */\n      dup2\n        /* \"#utility.yul\":71216:71251   */\n      eq\n        /* \"#utility.yul\":71206:71269   */\n      tag_1062\n      jumpi\n        /* \"#utility.yul\":71265:71266   */\n      0x00\n        /* \"#utility.yul\":71262:71263   */\n      dup1\n        /* \"#utility.yul\":71255:71267   */\n      revert\n        /* \"#utility.yul\":71206:71269   */\n    tag_1062:\n        /* \"#utility.yul\":71153:71275   */\n      pop\n      jump\t// out\n        /* \"#utility.yul\":71281:71419   */\n    tag_292:\n        /* \"#utility.yul\":71362:71394   */\n      tag_1064\n        /* \"#utility.yul\":71388:71393   */\n      dup2\n        /* \"#utility.yul\":71362:71394   */\n      tag_422\n      jump\t// in\n    tag_1064:\n        /* \"#utility.yul\":71355:71360   */\n      dup2\n        /* \"#utility.yul\":71352:71395   */\n      eq\n        /* \"#utility.yul\":71342:71413   */\n      tag_1065\n      jumpi\n        /* \"#utility.yul\":71409:71410   */\n      0x00\n        /* \"#utility.yul\":71406:71407   */\n      dup1\n        /* \"#utility.yul\":71399:71411   */\n      revert\n        /* \"#utility.yul\":71342:71413   */\n    tag_1065:\n        /* \"#utility.yul\":71281:71419   */\n      pop\n      jump\t// out\n        /* \"#utility.yul\":71425:71541   */\n    tag_306:\n        /* \"#utility.yul\":71495:71516   */\n      tag_1067\n        /* \"#utility.yul\":71510:71515   */\n      dup2\n        /* \"#utility.yul\":71495:71516   */\n      tag_487\n      jump\t// in\n    tag_1067:\n        /* \"#utility.yul\":71488:71493   */\n      dup2\n        /* \"#utility.yul\":71485:71517   */\n      eq\n        /* \"#utility.yul\":71475:71535   */\n      tag_1068\n      jumpi\n        /* \"#utility.yul\":71531:71532   */\n      0x00\n        /* \"#utility.yul\":71528:71529   */\n      dup1\n        /* \"#utility.yul\":71521:71533   */\n      revert\n        /* \"#utility.yul\":71475:71535   */\n    tag_1068:\n        /* \"#utility.yul\":71425:71541   */\n      pop\n      jump\t// out\n        /* \"#utility.yul\":71547:71669   */\n    tag_310:\n        /* \"#utility.yul\":71620:71644   */\n      tag_1070\n        /* \"#utility.yul\":71638:71643   */\n      dup2\n        /* \"#utility.yul\":71620:71644   */\n      tag_494\n      jump\t// in\n    tag_1070:\n        /* \"#utility.yul\":71613:71618   */\n      dup2\n        /* \"#utility.yul\":71610:71645   */\n      eq\n        /* \"#utility.yul\":71600:71663   */\n      tag_1071\n      jumpi\n        /* \"#utility.yul\":71659:71660   */\n      0x00\n        /* \"#utility.yul\":71656:71657   */\n      dup1\n        /* \"#utility.yul\":71649:71661   */\n      revert\n        /* \"#utility.yul\":71600:71663   */\n    tag_1071:\n        /* \"#utility.yul\":71547:71669   */\n      pop\n      jump\t// out\n        /* \"#utility.yul\":71675:71797   */\n    tag_356:\n        /* \"#utility.yul\":71748:71772   */\n      tag_1073\n        /* \"#utility.yul\":71766:71771   */\n      dup2\n        /* \"#utility.yul\":71748:71772   */\n      tag_589\n      jump\t// in\n    tag_1073:\n        /* \"#utility.yul\":71741:71746   */\n      dup2\n        /* \"#utility.yul\":71738:71773   */\n      eq\n        /* \"#utility.yul\":71728:71791   */\n      tag_1074\n      jumpi\n        /* \"#utility.yul\":71787:71788   */\n      0x00\n        /* \"#utility.yul\":71784:71785   */\n      dup1\n        /* \"#utility.yul\":71777:71789   */\n      revert\n        /* \"#utility.yul\":71728:71791   */\n    tag_1074:\n        /* \"#utility.yul\":71675:71797   */\n      pop\n      jump\t// out\n        /* \"#utility.yul\":71803:71925   */\n    tag_359:\n        /* \"#utility.yul\":71876:71900   */\n      tag_1076\n        /* \"#utility.yul\":71894:71899   */\n      dup2\n        /* \"#utility.yul\":71876:71900   */\n      tag_595\n      jump\t// in\n    tag_1076:\n        /* \"#utility.yul\":71869:71874   */\n      dup2\n        /* \"#utility.yul\":71866:71901   */\n      eq\n        /* \"#utility.yul\":71856:71919   */\n      tag_1077\n      jumpi\n        /* \"#utility.yul\":71915:71916   */\n      0x00\n        /* \"#utility.yul\":71912:71913   */\n      dup1\n        /* \"#utility.yul\":71905:71917   */\n      revert\n        /* \"#utility.yul\":71856:71919   */\n    tag_1077:\n        /* \"#utility.yul\":71803:71925   */\n      pop\n      jump\t// out\n        /* \"#utility.yul\":71931:72049   */\n    tag_363:\n        /* \"#utility.yul\":72002:72024   */\n      tag_1079\n        /* \"#utility.yul\":72018:72023   */\n      dup2\n        /* \"#utility.yul\":72002:72024   */\n      tag_732\n      jump\t// in\n    tag_1079:\n        /* \"#utility.yul\":71995:72000   */\n      dup2\n        /* \"#utility.yul\":71992:72025   */\n      eq\n        /* \"#utility.yul\":71982:72043   */\n      tag_1080\n      jumpi\n        /* \"#utility.yul\":72039:72040   */\n      0x00\n        /* \"#utility.yul\":72036:72037   */\n      dup1\n        /* \"#utility.yul\":72029:72041   */\n      revert\n        /* \"#utility.yul\":71982:72043   */\n    tag_1080:\n        /* \"#utility.yul\":71931:72049   */\n      pop\n      jump\t// out\n        /* \"#utility.yul\":72055:72128   */\n    tag_985:\n        /* \"#utility.yul\":72100:72103   */\n      0x00\n        /* \"#utility.yul\":72055:72128   */\n      swap1\n      jump\t// out\n\n    auxdata: 0xa2646970667358221220e1c8ad0a337ce17598bdb48973e84640870d2eb397559e67d63c4c5097394a3564736f6c63430008070033\n}\n",
				"bytecode": {
					"linkReferences": {},
					"object": "608060405234801561001057600080fd5b506136ea806100206000396000f3fe608060405234801561001057600080fd5b50600436106100a95760003560e01c8063889cc58b11610071578063889cc58b1461016457806389b8036114610180578063adec8b73146101b1578063b75b518c146101e1578063f461e54f146101eb578063f53d2ead14610207576100a9565b80630e53fb48146100ae57806330206bcc146100de5780633fd2c16a146100fa578063402e474914610118578063485cc95514610148575b600080fd5b6100c860048036038101906100c39190611ace565b610225565b6040516100d59190612328565b60405180910390f35b6100f860048036038101906100f39190611a4e565b610266565b005b61010261040b565b60405161010f91906122f2565b60405180910390f35b610132600480360381019061012d9190611afb565b610431565b60405161013f919061230d565b60405180910390f35b610162600480360381019061015d9190611a8e565b610470565b005b61017e60048036038101906101799190611b28565b6105e2565b005b61019a60048036038101906101959190611afb565b6109b6565b6040516101a8929190612400565b60405180910390f35b6101cb60048036038101906101c69190611ace565b610a4d565b6040516101d89190612328565b60405180910390f35b6101e9610a65565b005b61020560048036038101906102009190611c0e565b610b2e565b005b61020f610f5c565b60405161021c91906123e5565b60405180910390f35b600060076000836fffffffffffffffffffffffffffffffff166fffffffffffffffffffffffffffffffff168152602001908152602001600020549050919050565b600460009054906101000a900473ffffffffffffffffffffffffffffffffffffffff1673ffffffffffffffffffffffffffffffffffffffff163373ffffffffffffffffffffffffffffffffffffffff16146102c057600080fd5b801561032e576003829080600181540180825580915050600190039060005260206000200160009091909190916101000a81548173ffffffffffffffffffffffffffffffffffffffff021916908373ffffffffffffffffffffffffffffffffffffffff160217905550610407565b60005b600380549050811015610405578273ffffffffffffffffffffffffffffffffffffffff166003828154811061036957610368612fe8565b5b9060005260206000200160009054906101000a900473ffffffffffffffffffffffffffffffffffffffff1673ffffffffffffffffffffffffffffffffffffffff1614156103f257600381815481106103c4576103c3612fe8565b5b9060005260206000200160006101000a81549073ffffffffffffffffffffffffffffffffffffffff02191690555b80806103fd90612f41565b915050610331565b505b5050565b600460009054906101000a900473ffffffffffffffffffffffffffffffffffffffff1681565b6003818154811061044157600080fd5b906000526020600020016000915054906101000a900473ffffffffffffffffffffffffffffffffffffffff1681565b600073ffffffffffffffffffffffffffffffffffffffff16600460009054906101000a900473ffffffffffffffffffffffffffffffffffffffff1673ffffffffffffffffffffffffffffffffffffffff161480156104fb5750600073ffffffffffffffffffffffffffffffffffffffff168273ffffffffffffffffffffffffffffffffffffffff1614155b61053a576040517f08c379a000000000000000000000000000000000000000000000000000000000815260040161053190612343565b60405180910390fd5b81600460006101000a81548173ffffffffffffffffffffffffffffffffffffffff021916908373ffffffffffffffffffffffffffffffffffffffff1602179055506003819080600181540180825580915050600190039060005260206000200160009091909190916101000a81548173ffffffffffffffffffffffffffffffffffffffff021916908373ffffffffffffffffffffffffffffffffffffffff1602179055505050565b600460009054906101000a900473ffffffffffffffffffffffffffffffffffffffff1673ffffffffffffffffffffffffffffffffffffffff163373ffffffffffffffffffffffffffffffffffffffff161461063c57600080fd5b801561064b5761064a610f7e565b5b6000896001901b9050600060025490506000828216146106a0576040517f08c379a000000000000000000000000000000000000000000000000000000000815260040161069790612383565b60405180910390fd5b818117600281905550600560009054906101000a90046fffffffffffffffffffffffffffffffff166fffffffffffffffffffffffffffffffff16886fffffffffffffffffffffffffffffffff161461072d576040517f08c379a0000000000000000000000000000000000000000000000000000000008152600401610724906123a3565b60405180910390fd5b505060007fffffffffffffffffffffffffffffffffffffffffffffffffffffffffffffff008660405160200161076391906123c3565b6040516020818303038152906040528051906020012060001c169050831561078d57806006819055505b600080808054905090505b80821080156107d457506107d383600084815481106107ba576107b9612fe8565b5b9060005260206000200154610fd390919063ffffffff16565b5b156107ea57816107e390612f41565b9150610798565b808210156108da578a600161081c6000858154811061080c5761080b612fe8565b5b9060005260206000200154611003565b6108269190612900565b60ff16106108a257600080600654149050600061086c6006546000868154811061085357610852612fe8565b5b9060005260206000200154610fd390919063ffffffff16565b9050818015610879575080155b806108815750865b1561089b5761089a8c8b61089490612b75565b8b61100d565b5b50506108d5565b600082815481106108b6576108b5612fe8565b5b90600052602060002001600081546108cd90612f41565b919050819055505b61096d565b60018b14156108fc576108f78a896108f190612b75565b8961100d565b61096c565b600060018461090b91906128aa565b9080600181540180825580915050600190039060005260206000200160009091909190915055600188908060018154018082558091505060019003906000526020600020906007020160009091909190915081816109699190613513565b50505b5b7fbbf23e6bd8173d3423fb94a419f7193574bdca2f2b640364201f708b6a13cbe88a8a896040516109a093929190612467565b60405180910390a1505050505050505050505050565b600080600460009054906101000a900473ffffffffffffffffffffffffffffffffffffffff1673ffffffffffffffffffffffffffffffffffffffff163373ffffffffffffffffffffffffffffffffffffffff1614610a1357600080fd5b600080846001901b6002541614159050600560009054906101000a90046fffffffffffffffffffffffffffffffff16819250925050915091565b60076020528060005260406000206000915090505481565b600460009054906101000a900473ffffffffffffffffffffffffffffffffffffffff1673ffffffffffffffffffffffffffffffffffffffff163373ffffffffffffffffffffffffffffffffffffffff1614610abf57600080fd5b610ac7610f7e565b6005600081819054906101000a90046fffffffffffffffffffffffffffffffff1680929190610af590612f08565b91906101000a8154816fffffffffffffffffffffffffffffffff02191690836fffffffffffffffffffffffffffffffff16021790555050565b600460009054906101000a900473ffffffffffffffffffffffffffffffffffffffff1673ffffffffffffffffffffffffffffffffffffffff163373ffffffffffffffffffffffffffffffffffffffff1614610b8857600080fd5b600080610b978460ff16611215565b915091508115610f56576000610bac82611348565b60405180610120016040529081600082015481526020016001820160009054906101000a90046fffffffffffffffffffffffffffffffff166fffffffffffffffffffffffffffffffff166fffffffffffffffffffffffffffffffff1681526020016001820160109054906101000a90046fffffffffffffffffffffffffffffffff166fffffffffffffffffffffffffffffffff166fffffffffffffffffffffffffffffffff1681526020016002820160009054906101000a90046fffffffffffffffffffffffffffffffff166fffffffffffffffffffffffffffffffff166fffffffffffffffffffffffffffffffff168152602001600382015481526020016004820160009054906101000a90046fffffffffffffffffffffffffffffffff166fffffffffffffffffffffffffffffffff166fffffffffffffffffffffffffffffffff1681526020016004820160109054906101000a90046fffffffffffffffffffffffffffffffff166fffffffffffffffffffffffffffffffff166fffffffffffffffffffffffffffffffff16815260200160058201805480602002602001604051908101604052809291908181526020016000905b82821015610f2357838290600052602060002090600502016040518060c00160405290816000820160009054906101000a900473ffffffffffffffffffffffffffffffffffffffff1673ffffffffffffffffffffffffffffffffffffffff1673ffffffffffffffffffffffffffffffffffffffff1681526020016001820160009054906101000a90046fffffffffffffffffffffffffffffffff166fffffffffffffffffffffffffffffffff166fffffffffffffffffffffffffffffffff1681526020016001820160109054906101000a900460ff16151515158152602001600282015481526020016003820154815260200160048201805480602002602001604051908101604052809291908181526020016000905b82821015610f0c57838290600052602060002090600202016040518060400160405290816000820160009054906101000a900473ffffffffffffffffffffffffffffffffffffffff1673ffffffffffffffffffffffffffffffffffffffff1673ffffffffffffffffffffffffffffffffffffffff16815260200160018201548152505081526020019060010190610e7a565b505050508152505081526020019060010190610d63565b5050505081526020016006820160009054906101000a900460ff1615151515815250509050610f548482600061100d565b505b50505050565b600560009054906101000a90046fffffffffffffffffffffffffffffffff1681565b600260009055600080610f9191906113ba565b60016000610f9f91906113db565b6006600090557f131fc6443e37553a3c958042fd059569756675c2d859c083e17ec4928c3c70fb60405160405180910390a1565b6000817fffffffffffffffffffffffffffffffffffffffffffffffffffffffffffffff0084161415905092915050565b6000819050919050565b816080015160076000856fffffffffffffffffffffffffffffffff166fffffffffffffffffffffffffffffffff1681526020019081526020016000208190555060005b60038054905081101561119657600073ffffffffffffffffffffffffffffffffffffffff166003828154811061108957611088612fe8565b5b9060005260206000200160009054906101000a900473ffffffffffffffffffffffffffffffffffffffff1673ffffffffffffffffffffffffffffffffffffffff1614156110d557611183565b600381815481106110e9576110e8612fe8565b5b9060005260206000200160009054906101000a900473ffffffffffffffffffffffffffffffffffffffff1673ffffffffffffffffffffffffffffffffffffffff1663ad5eb1ab8585856040518463ffffffff1660e01b815260040161115093929190612429565b600060405180830381600087803b15801561116a57600080fd5b505af115801561117e573d6000803e3d6000fd5b505050505b808061118e90612f41565b915050611050565b5061119f610f7e565b81610100015115611210576005600081819054906101000a90046fffffffffffffffffffffffffffffffff16809291906111d890612f08565b91906101000a8154816fffffffffffffffffffffffffffffffff02191690836fffffffffffffffffffffffffffffffff160217905550505b505050565b600080600080805490509050600181141561126357836112526000808154811061124257611241612fe8565b5b9060005260206000200154611003565b60ff16101560009250925050611343565b60008114156112995760007fffffffffffffffffffffffffffffffffffffffffffffffffffffffffffffffff9250925050611343565b60008060008060005b85811015611323576112d1600082815481106112c1576112c0612fe8565b5b9060005260206000200154611003565b60ff1691508261ffff168261ffff1610611312578261ffff168261ffff16141561130657836112ff90612f41565b9350611311565b809450819250600093505b5b8061131c90612f41565b90506112a2565b50878261ffff16101580156113385750600083145b849650965050505050505b915091565b60006001805490508210611391576040517f08c379a000000000000000000000000000000000000000000000000000000000815260040161138890612363565b60405180910390fd5b600182815481106113a5576113a4612fe8565b5b90600052602060002090600702019050919050565b50805460008255906000526020600020908101906113d891906113ff565b50565b50805460008255600702906000526020600020908101906113fc919061141c565b50565b5b80821115611418576000816000905550600101611400565b5090565b5b80821115611512576000808201600090556001820160006101000a8154906fffffffffffffffffffffffffffffffff02191690556001820160106101000a8154906fffffffffffffffffffffffffffffffff02191690556002820160006101000a8154906fffffffffffffffffffffffffffffffff021916905560038201600090556004820160006101000a8154906fffffffffffffffffffffffffffffffff02191690556004820160106101000a8154906fffffffffffffffffffffffffffffffff02191690556005820160006114f59190611516565b6006820160006101000a81549060ff02191690555060070161141d565b5090565b5080546000825560050290600052602060002090810190611537919061153a565b50565b5b808211156115cb57600080820160006101000a81549073ffffffffffffffffffffffffffffffffffffffff02191690556001820160006101000a8154906fffffffffffffffffffffffffffffffff02191690556001820160106101000a81549060ff0219169055600282016000905560038201600090556004820160006115c291906115cf565b5060050161153b565b5090565b50805460008255600202906000526020600020908101906115f091906115f3565b50565b5b8082111561163557600080820160006101000a81549073ffffffffffffffffffffffffffffffffffffffff02191690556001820160009055506002016115f4565b5090565b600061164c611647846125b1565b61258c565b9050808382526020820190508285602086028201111561166f5761166e613182565b5b60005b858110156116bd57813567ffffffffffffffff8111156116955761169461315f565b5b8086016116a289826117e7565b85526020850194506020840193505050600181019050611672565b5050509392505050565b60006116da6116d5846125dd565b61258c565b905080838252602082019050828560408602820111156116fd576116fc613182565b5b60005b8581101561172d578161171388826118a3565b845260208401935060408301925050600181019050611700565b5050509392505050565b6000813590506117468161360e565b92915050565b60008135905061175b81613625565b92915050565b600082601f8301126117765761177561315f565b5b8135611786848260208601611639565b91505092915050565b600082601f8301126117a4576117a361315f565b5b81356117b48482602086016116c7565b91505092915050565b6000813590506117cc8161363c565b92915050565b6000813590506117e181613653565b92915050565b600060c082840312156117fd576117fc61316e565b5b61180760c061258c565b9050600061181784828501611737565b600083015250602061182b84828501611a0f565b602083015250604061183f848285016117bd565b604083015250606061185384828501611a24565b606083015250608061186784828501611a24565b60808301525060a082013567ffffffffffffffff81111561188b5761188a61317d565b5b6118978482850161178f565b60a08301525092915050565b6000604082840312156118b9576118b861316e565b5b6118c3604061258c565b905060006118d384828501611737565b60008301525060206118e784828501611a24565b60208301525092915050565b6000610120828403121561190a57611909613169565b5b81905092915050565b6000610120828403121561192a5761192961316e565b5b61193561012061258c565b9050600061194584828501611a24565b600083015250602061195984828501611a0f565b602083015250604061196d84828501611a0f565b604083015250606061198184828501611a0f565b6060830152506080611995848285016117d2565b60808301525060a06119a984828501611a0f565b60a08301525060c06119bd84828501611a0f565b60c08301525060e082013567ffffffffffffffff8111156119e1576119e061317d565b5b6119ed84828501611761565b60e083015250610100611a02848285016117bd565b6101008301525092915050565b600081359050611a1e8161366a565b92915050565b600081359050611a3381613681565b92915050565b600081359050611a4881613698565b92915050565b60008060408385031215611a6557611a64613196565b5b6000611a738582860161174c565b9250506020611a84858286016117bd565b9150509250929050565b60008060408385031215611aa557611aa4613196565b5b6000611ab385828601611737565b9250506020611ac48582860161174c565b9150509250929050565b600060208284031215611ae457611ae3613196565b5b6000611af284828501611a0f565b91505092915050565b600060208284031215611b1157611b10613196565b5b6000611b1f84828501611a24565b91505092915050565b60008060008060008060008060006101208a8c031215611b4b57611b4a613196565b5b6000611b598c828d01611a24565b9950506020611b6a8c828d01611a24565b9850506040611b7b8c828d01611a0f565b9750506060611b8c8c828d01611a0f565b96505060808a013567ffffffffffffffff811115611bad57611bac61318c565b5b611bb98c828d016118f3565b95505060a0611bca8c828d01611737565b94505060c0611bdb8c828d016117bd565b93505060e0611bec8c828d016117bd565b925050610100611bfe8c828d016117bd565b9150509295985092959850929598565b60008060408385031215611c2557611c24613196565b5b6000611c3385828601611a39565b9250506020611c4485828601611a0f565b9150509250929050565b6000611c5a8383611f3f565b905092915050565b6000611c6e8383611ffa565b905092915050565b6000611c828383612083565b60408301905092915050565b6000611c9a83836120c2565b60408301905092915050565b611caf81612a1f565b82525050565b611cbe81612a0d565b82525050565b611ccd81612a0d565b82525050565b6000611cdf838561270b565b935083602084028501611cf184612637565b8060005b87811015611d35578484038952611d0c8284612849565b611d168582611c4e565b9450611d21836126d7565b925060208a01995050600181019050611cf5565b50829750879450505050509392505050565b6000611d52826126a0565b611d5c818561270b565b935083602082028501611d6e85612641565b8060005b85811015611daa5784840389528151611d8b8582611c62565b9450611d96836126e4565b925060208a01995050600181019050611d72565b50829750879550505050505092915050565b6000611dc8838561271c565b9350611dd382612666565b8060005b85811015611e0c57611de98284612871565b611df38882611c76565b9750611dfe836126f1565b925050600181019050611dd7565b5085925050509392505050565b6000611e24826126c1565b611e2e818561271c565b9350611e3983612670565b8060005b83811015611e6a578151611e518882611c8e565b9750611e5c836126fe565b925050600181019050611e3d565b5085935050505092915050565b611e8081612a31565b82525050565b611e8f81612a31565b82525050565b611e9e81612a3d565b82525050565b611ead81612a3d565b82525050565b6000611ec060138361272d565b9150611ecb82613252565b602082019050919050565b6000611ee360108361272d565b9150611eee8261327b565b602082019050919050565b6000611f0660158361272d565b9150611f11826132a4565b602082019050919050565b6000611f29600d8361272d565b9150611f34826132cd565b602082019050919050565b600060c08301611f52600084018461273e565b611f5f6000860182611cb5565b50611f6d602084018461287c565b611f7a60208601826122c5565b50611f88604084018461281b565b611f956040860182611e77565b50611fa36060840184612893565b611fb060608601826122e3565b50611fbe6080840184612893565b611fcb60808601826122e3565b50611fd960a08401846127b8565b85830360a0870152611fec838284611dbc565b925050508091505092915050565b600060c0830160008301516120126000860182611cb5565b50602083015161202560208601826122c5565b5060408301516120386040860182611e77565b50606083015161204b60608601826122e3565b50608083015161205e60808601826122e3565b5060a083015184820360a08601526120768282611e19565b9150508091505092915050565b60408201612094600083018361273e565b6120a16000850182611cb5565b506120af6020830183612893565b6120bc60208501826122e3565b50505050565b6040820160008201516120d86000850182611cb5565b5060208201516120eb60208501826122e3565b50505050565b600061012083016121056000840184612893565b61211260008601826122e3565b50612120602084018461287c565b61212d60208601826122c5565b5061213b604084018461287c565b61214860408601826122c5565b50612156606084018461287c565b61216360608601826122c5565b506121716080840184612832565b61217e6080860182611e95565b5061218c60a084018461287c565b61219960a08601826122c5565b506121a760c084018461287c565b6121b460c08601826122c5565b506121c260e0840184612755565b85830360e08701526121d5838284611cd3565b925050506121e761010084018461281b565b6121f5610100860182611e77565b508091505092915050565b60006101208301600083015161221960008601826122e3565b50602083015161222c60208601826122c5565b50604083015161223f60408601826122c5565b50606083015161225260608601826122c5565b5060808301516122656080860182611e95565b5060a083015161227860a08601826122c5565b5060c083015161228b60c08601826122c5565b5060e083015184820360e08601526122a38282611d47565b9150506101008301516122ba610100860182611e77565b508091505092915050565b6122ce81612a47565b82525050565b6122dd81612a47565b82525050565b6122ec81612a83565b82525050565b60006020820190506123076000830184611cc4565b92915050565b60006020820190506123226000830184611ca6565b92915050565b600060208201905061233d6000830184611ea4565b92915050565b6000602082019050818103600083015261235c81611eb3565b9050919050565b6000602082019050818103600083015261237c81611ed6565b9050919050565b6000602082019050818103600083015261239c81611ef9565b9050919050565b600060208201905081810360008301526123bc81611f1c565b9050919050565b600060208201905081810360008301526123dd81846120f1565b905092915050565b60006020820190506123fa60008301846122d4565b92915050565b600060408201905061241560008301856122d4565b6124226020830184611e86565b9392505050565b600060608201905061243e60008301866122d4565b81810360208301526124508185612200565b905061245f6040830184611cc4565b949350505050565b600060608201905061247c60008301866122d4565b61248960208301856122d4565b6124966040830184611cc4565b949350505050565b600080833560016020038436030381126124bb576124ba613173565b5b80840192508235915067ffffffffffffffff8211156124dd576124dc613164565b5b6020830192506020820236038313156124f9576124f8613187565b5b509250929050565b6000808335600160200384360303811261251e5761251d613173565b5b80840192508235915067ffffffffffffffff8211156125405761253f613164565b5b60208301925060408202360383131561255c5761255b613187565b5b509250929050565b60008235600160c0038336030381126125805761257f613173565b5b80830191505092915050565b60006125966125a7565b90506125a28282612ed7565b919050565b6000604051905090565b600067ffffffffffffffff8211156125cc576125cb613017565b5b602082029050602081019050919050565b600067ffffffffffffffff8211156125f8576125f7613017565b5b602082029050602081019050919050565b6000819050612619826005612937565b9050919050565b6000819050612630826002612937565b9050919050565b6000819050919050565b6000819050602082019050919050565b60008190508160005260206000209050919050565b6000819050919050565b6000819050602082019050919050565b60008190508160005260206000209050919050565b600082905092915050565b600081519050919050565b600081549050919050565b600082905092915050565b600081519050919050565b600081549050919050565b6000602082019050919050565b6000602082019050919050565b6000604082019050919050565b6000602082019050919050565b600082825260208201905092915050565b600082825260208201905092915050565b600082825260208201905092915050565b600061274d6020840184611737565b905092915050565b6000808335600160200384360303811261277257612771613191565b5b83810192508235915060208301925067ffffffffffffffff82111561279a5761279961315a565b5b6020820236038413156127b0576127af613178565b5b509250929050565b600080833560016020038436030381126127d5576127d4613191565b5b83810192508235915060208301925067ffffffffffffffff8211156127fd576127fc61315a565b5b60408202360384131561281357612812613178565b5b509250929050565b600061282a60208401846117bd565b905092915050565b600061284160208401846117d2565b905092915050565b60008235600160c00383360303811261286557612864613191565b5b82810191505092915050565b600082905092915050565b600061288b6020840184611a0f565b905092915050565b60006128a26020840184611a24565b905092915050565b60006128b582612a83565b91506128c083612a83565b9250827fffffffffffffffffffffffffffffffffffffffffffffffffffffffffffffffff038211156128f5576128f4612fb9565b5b828201905092915050565b600061290b82612a8d565b915061291683612a8d565b92508260ff0382111561292c5761292b612fb9565b5b828201905092915050565b600061294282612a83565b915061294d83612a83565b9250817fffffffffffffffffffffffffffffffffffffffffffffffffffffffffffffffff048311821515161561298657612985612fb9565b5b828202905092915050565b818310156129ca576129a282612609565b6129ab84612609565b6129b483612651565b8181018382016129c48183612aa8565b50505050505b505050565b81831015612a08576129e082612620565b6129e984612620565b6129f283612680565b818101838201612a028183612acb565b50505050505b505050565b6000612a1882612a63565b9050919050565b6000612a2a82612a63565b9050919050565b60008115159050919050565b6000819050919050565b60006fffffffffffffffffffffffffffffffff82169050919050565b600073ffffffffffffffffffffffffffffffffffffffff82169050919050565b6000819050919050565b600060ff82169050919050565b612aa5600082613124565b50565b5b81811015612ac757612abc6000826131fe565b600581019050612aa9565b5050565b5b81811015612aea57612adf60008261321c565b600281019050612acc565b5050565b60008082015560006001820155612b0960006002830161323a565b612b1760006003830161323a565b612b256000600483016131e0565b50565b600080820155612b3c60006001830161323a565b50565b6000612b4a82612b9a565b9050919050565b6000612b5c82612a31565b9050919050565b6000612b6e82612a3d565b9050919050565b6000612b813683611913565b9050919050565b6000612b9382612a47565b9050919050565b6000612ba582612bac565b9050919050565b6000612bb782612a63565b9050919050565b6000612bc982612a83565b9050919050565b612bda8383612695565b612be481836130ee565b612bed83612637565b612bf683612651565b6000805b84811015612c2f57612c0c8488612564565b612c178184866135ad565b60208501945060058401935050600181019050612bfa565b5050505050505050565b612c4383836126b6565b612c4d8183613124565b612c5683612666565b612c5f83612680565b6000805b84811015612c8f5783612c778184866135cb565b60408501945060028401935050600181019050612c63565b5050505050505050565b600081016000830180612cab81613080565b9050612cb7818461348a565b505050600181016020830180612ccc816130c2565b9050612cd88184613521565b505050600181016040830180612ced81613096565b9050612cf98184613567565b505050600281016060830180612d0e816130d8565b9050612d1a8184613544565b505050600381016080830180612d2f816130d8565b9050612d3b8184613544565b5050506004810160a08301612d508185612501565b612d5b8183866134bd565b505050505050565b600081016000830180612d7581613080565b9050612d81818461348a565b505050600181016020830180612d96816130d8565b9050612da28184613544565b5050505050565b600081016000830180612dbb816130d8565b9050612dc78184613544565b505050600181016020830180612ddc816130c2565b9050612de88184613521565b505050600181016040830180612dfd816130c2565b9050612e09818461358a565b505050600281016060830180612e1e816130c2565b9050612e2a8184613521565b505050600381016080830180612e3f816130ac565b9050612e4b81846134f0565b5050506004810160a0830180612e60816130c2565b9050612e6c8184613521565b5050506004810160c0830180612e81816130c2565b9050612e8d818461358a565b5050506005810160e08301612ea2818561249e565b612ead8183866134ad565b5050505060068101610100830180612ec481613096565b9050612ed081846134cd565b5050505050565b612ee08261319b565b810181811067ffffffffffffffff82111715612eff57612efe613017565b5b80604052505050565b6000612f1382612a47565b91506fffffffffffffffffffffffffffffffff821415612f3657612f35612fb9565b5b600182019050919050565b6000612f4c82612a83565b91507fffffffffffffffffffffffffffffffffffffffffffffffffffffffffffffffff821415612f7f57612f7e612fb9565b5b600182019050919050565b7f4e487b7100000000000000000000000000000000000000000000000000000000600052600060045260246000fd5b7f4e487b7100000000000000000000000000000000000000000000000000000000600052601160045260246000fd5b7f4e487b7100000000000000000000000000000000000000000000000000000000600052603260045260246000fd5b7f4e487b7100000000000000000000000000000000000000000000000000000000600052604160045260246000fd5b6000819050919050565b6000819050919050565b6000613065826131d3565b9050919050565b6000819050919050565b6000819050919050565b6000813561308d8161360e565b80915050919050565b600081356130a38161363c565b80915050919050565b600081356130b981613653565b80915050919050565b600081356130cf8161366a565b80915050919050565b600081356130e581613681565b80915050919050565b6801000000000000000082111561310857613107613017565b5b613111816126ab565b82825561311f838284612991565b505050565b6801000000000000000082111561313e5761313d613017565b5b613147816126cc565b8282556131558382846129cf565b505050565b600080fd5b600080fd5b600080fd5b600080fd5b600080fd5b600080fd5b600080fd5b600080fd5b600080fd5b600080fd5b600080fd5b600080fd5b600080fd5b6000601f19601f8301169050919050565b60008160001b9050919050565b60008160801b9050919050565b600082821b905092915050565b60008160001c9050919050565b600082146131f1576131f0612f8a565b5b6131fa81612a9a565b5050565b6000821461320f5761320e612f8a565b5b61321881612aee565b5050565b6000821461322d5761322c612f8a565b5b61323681612b28565b5050565b6132426136af565b61324d8184846135e9565b505050565b7f414c52454144595f494e495449414c495a454400000000000000000000000000600082015250565b7f4f523a204f55545f4f465f494e44455800000000000000000000000000000000600082015250565b7f4f523a20414c52454144595f5355424d49545445440000000000000000000000600082015250565b7f4f523a20494e565f4e4f4e434500000000000000000000000000000000000000600082015250565b60006fffffffffffffffffffffffffffffffff613312846131ac565b9350801983169250808416831791505092915050565b60007fffffffffffffffffffffffffffffffff00000000000000000000000000000000613354846131b9565b9350801983169250808416831791505092915050565b600060ff613377846131ac565b9350801983169250808416831791505092915050565b600070ff000000000000000000000000000000006133aa846131b9565b9350801983169250808416831791505092915050565b600073ffffffffffffffffffffffffffffffffffffffff6133e0846131ac565b9350801983169250808416831791505092915050565b60007fffffffffffffffffffffffffffffffffffffffffffffffffffffffffffffffff613422846131ac565b9350801983169250808416831791505092915050565b6000600883026134687fffffffffffffffffffffffffffffffffffffffffffffffffffffffffffffffff826131c6565b61347286836131c6565b95508019841693508086168417925050509392505050565b61349382612b3f565b6134a661349f82613046565b83546133c0565b8255505050565b6134b8838383612bd0565b505050565b6134c8838383612c39565b505050565b6134d682612b51565b6134e96134e282613050565b835461336a565b8255505050565b6134f982612b63565b61350c6135058261305a565b83546133f6565b8255505050565b61351d8282612da9565b5050565b61352a82612b88565b61353d6135368261306c565b83546132f6565b8255505050565b61354d82612bbe565b61356061355982613076565b83546133f6565b8255505050565b61357082612b51565b61358361357c82613050565b835461338d565b8255505050565b61359382612b88565b6135a661359f8261306c565b8354613328565b8255505050565b81156135bc576135bb612f8a565b5b6135c68382612c99565b505050565b81156135da576135d9612f8a565b5b6135e48382612d63565b505050565b6135f283612bbe565b6136066135fe82613076565b848454613438565b825550505050565b61361781612a0d565b811461362257600080fd5b50565b61362e81612a1f565b811461363957600080fd5b50565b61364581612a31565b811461365057600080fd5b50565b61365c81612a3d565b811461366757600080fd5b50565b61367381612a47565b811461367e57600080fd5b50565b61368a81612a83565b811461369557600080fd5b50565b6136a181612a8d565b81146136ac57600080fd5b50565b60009056fea2646970667358221220e1c8ad0a337ce17598bdb48973e84640870d2eb397559e67d63c4c5097394a3564736f6c63430008070033",
					"opcodes": "PUSH1 0x80 PUSH1 0x40 MSTORE CALLVALUE DUP1 ISZERO PUSH2 0x10 JUMPI PUSH1 0x0 DUP1 REVERT JUMPDEST POP PUSH2 0x36EA DUP1 PUSH2 0x20 PUSH1 0x0 CODECOPY PUSH1 0x0 RETURN INVALID PUSH1 0x80 PUSH1 0x40 MSTORE CALLVALUE DUP1 ISZERO PUSH2 0x10 JUMPI PUSH1 0x0 DUP1 REVERT JUMPDEST POP PUSH1 0x4 CALLDATASIZE LT PUSH2 0xA9 JUMPI PUSH1 0x0 CALLDATALOAD PUSH1 0xE0 SHR DUP1 PUSH4 0x889CC58B GT PUSH2 0x71 JUMPI DUP1 PUSH4 0x889CC58B EQ PUSH2 0x164 JUMPI DUP1 PUSH4 0x89B80361 EQ PUSH2 0x180 JUMPI DUP1 PUSH4 0xADEC8B73 EQ PUSH2 0x1B1 JUMPI DUP1 PUSH4 0xB75B518C EQ PUSH2 0x1E1 JUMPI DUP1 PUSH4 0xF461E54F EQ PUSH2 0x1EB JUMPI DUP1 PUSH4 0xF53D2EAD EQ PUSH2 0x207 JUMPI PUSH2 0xA9 JUMP JUMPDEST DUP1 PUSH4 0xE53FB48 EQ PUSH2 0xAE JUMPI DUP1 PUSH4 0x30206BCC EQ PUSH2 0xDE JUMPI DUP1 PUSH4 0x3FD2C16A EQ PUSH2 0xFA JUMPI DUP1 PUSH4 0x402E4749 EQ PUSH2 0x118 JUMPI DUP1 PUSH4 0x485CC955 EQ PUSH2 0x148 JUMPI JUMPDEST PUSH1 0x0 DUP1 REVERT JUMPDEST PUSH2 0xC8 PUSH1 0x4 DUP1 CALLDATASIZE SUB DUP2 ADD SWAP1 PUSH2 0xC3 SWAP2 SWAP1 PUSH2 0x1ACE JUMP JUMPDEST PUSH2 0x225 JUMP JUMPDEST PUSH1 0x40 MLOAD PUSH2 0xD5 SWAP2 SWAP1 PUSH2 0x2328 JUMP JUMPDEST PUSH1 0x40 MLOAD DUP1 SWAP2 SUB SWAP1 RETURN JUMPDEST PUSH2 0xF8 PUSH1 0x4 DUP1 CALLDATASIZE SUB DUP2 ADD SWAP1 PUSH2 0xF3 SWAP2 SWAP1 PUSH2 0x1A4E JUMP JUMPDEST PUSH2 0x266 JUMP JUMPDEST STOP JUMPDEST PUSH2 0x102 PUSH2 0x40B JUMP JUMPDEST PUSH1 0x40 MLOAD PUSH2 0x10F SWAP2 SWAP1 PUSH2 0x22F2 JUMP JUMPDEST PUSH1 0x40 MLOAD DUP1 SWAP2 SUB SWAP1 RETURN JUMPDEST PUSH2 0x132 PUSH1 0x4 DUP1 CALLDATASIZE SUB DUP2 ADD SWAP1 PUSH2 0x12D SWAP2 SWAP1 PUSH2 0x1AFB JUMP JUMPDEST PUSH2 0x431 JUMP JUMPDEST PUSH1 0x40 MLOAD PUSH2 0x13F SWAP2 SWAP1 PUSH2 0x230D JUMP JUMPDEST PUSH1 0x40 MLOAD DUP1 SWAP2 SUB SWAP1 RETURN JUMPDEST PUSH2 0x162 PUSH1 0x4 DUP1 CALLDATASIZE SUB DUP2 ADD SWAP1 PUSH2 0x15D SWAP2 SWAP1 PUSH2 0x1A8E JUMP JUMPDEST PUSH2 0x470 JUMP JUMPDEST STOP JUMPDEST PUSH2 0x17E PUSH1 0x4 DUP1 CALLDATASIZE SUB DUP2 ADD SWAP1 PUSH2 0x179 SWAP2 SWAP1 PUSH2 0x1B28 JUMP JUMPDEST PUSH2 0x5E2 JUMP JUMPDEST STOP JUMPDEST PUSH2 0x19A PUSH1 0x4 DUP1 CALLDATASIZE SUB DUP2 ADD SWAP1 PUSH2 0x195 SWAP2 SWAP1 PUSH2 0x1AFB JUMP JUMPDEST PUSH2 0x9B6 JUMP JUMPDEST PUSH1 0x40 MLOAD PUSH2 0x1A8 SWAP3 SWAP2 SWAP1 PUSH2 0x2400 JUMP JUMPDEST PUSH1 0x40 MLOAD DUP1 SWAP2 SUB SWAP1 RETURN JUMPDEST PUSH2 0x1CB PUSH1 0x4 DUP1 CALLDATASIZE SUB DUP2 ADD SWAP1 PUSH2 0x1C6 SWAP2 SWAP1 PUSH2 0x1ACE JUMP JUMPDEST PUSH2 0xA4D JUMP JUMPDEST PUSH1 0x40 MLOAD PUSH2 0x1D8 SWAP2 SWAP1 PUSH2 0x2328 JUMP JUMPDEST PUSH1 0x40 MLOAD DUP1 SWAP2 SUB SWAP1 RETURN JUMPDEST PUSH2 0x1E9 PUSH2 0xA65 JUMP JUMPDEST STOP JUMPDEST PUSH2 0x205 PUSH1 0x4 DUP1 CALLDATASIZE SUB DUP2 ADD SWAP1 PUSH2 0x200 SWAP2 SWAP1 PUSH2 0x1C0E JUMP JUMPDEST PUSH2 0xB2E JUMP JUMPDEST STOP JUMPDEST PUSH2 0x20F PUSH2 0xF5C JUMP JUMPDEST PUSH1 0x40 MLOAD PUSH2 0x21C SWAP2 SWAP1 PUSH2 0x23E5 JUMP JUMPDEST PUSH1 0x40 MLOAD DUP1 SWAP2 SUB SWAP1 RETURN JUMPDEST PUSH1 0x0 PUSH1 0x7 PUSH1 0x0 DUP4 PUSH16 0xFFFFFFFFFFFFFFFFFFFFFFFFFFFFFFFF AND PUSH16 0xFFFFFFFFFFFFFFFFFFFFFFFFFFFFFFFF AND DUP2 MSTORE PUSH1 0x20 ADD SWAP1 DUP2 MSTORE PUSH1 0x20 ADD PUSH1 0x0 KECCAK256 SLOAD SWAP1 POP SWAP2 SWAP1 POP JUMP JUMPDEST PUSH1 0x4 PUSH1 0x0 SWAP1 SLOAD SWAP1 PUSH2 0x100 EXP SWAP1 DIV PUSH20 0xFFFFFFFFFFFFFFFFFFFFFFFFFFFFFFFFFFFFFFFF AND PUSH20 0xFFFFFFFFFFFFFFFFFFFFFFFFFFFFFFFFFFFFFFFF AND CALLER PUSH20 0xFFFFFFFFFFFFFFFFFFFFFFFFFFFFFFFFFFFFFFFF AND EQ PUSH2 0x2C0 JUMPI PUSH1 0x0 DUP1 REVERT JUMPDEST DUP1 ISZERO PUSH2 0x32E JUMPI PUSH1 0x3 DUP3 SWAP1 DUP1 PUSH1 0x1 DUP2 SLOAD ADD DUP1 DUP3 SSTORE DUP1 SWAP2 POP POP PUSH1 0x1 SWAP1 SUB SWAP1 PUSH1 0x0 MSTORE PUSH1 0x20 PUSH1 0x0 KECCAK256 ADD PUSH1 0x0 SWAP1 SWAP2 SWAP1 SWAP2 SWAP1 SWAP2 PUSH2 0x100 EXP DUP2 SLOAD DUP2 PUSH20 0xFFFFFFFFFFFFFFFFFFFFFFFFFFFFFFFFFFFFFFFF MUL NOT AND SWAP1 DUP4 PUSH20 0xFFFFFFFFFFFFFFFFFFFFFFFFFFFFFFFFFFFFFFFF AND MUL OR SWAP1 SSTORE POP PUSH2 0x407 JUMP JUMPDEST PUSH1 0x0 JUMPDEST PUSH1 0x3 DUP1 SLOAD SWAP1 POP DUP2 LT ISZERO PUSH2 0x405 JUMPI DUP3 PUSH20 0xFFFFFFFFFFFFFFFFFFFFFFFFFFFFFFFFFFFFFFFF AND PUSH1 0x3 DUP3 DUP2 SLOAD DUP2 LT PUSH2 0x369 JUMPI PUSH2 0x368 PUSH2 0x2FE8 JUMP JUMPDEST JUMPDEST SWAP1 PUSH1 0x0 MSTORE PUSH1 0x20 PUSH1 0x0 KECCAK256 ADD PUSH1 0x0 SWAP1 SLOAD SWAP1 PUSH2 0x100 EXP SWAP1 DIV PUSH20 0xFFFFFFFFFFFFFFFFFFFFFFFFFFFFFFFFFFFFFFFF AND PUSH20 0xFFFFFFFFFFFFFFFFFFFFFFFFFFFFFFFFFFFFFFFF AND EQ ISZERO PUSH2 0x3F2 JUMPI PUSH1 0x3 DUP2 DUP2 SLOAD DUP2 LT PUSH2 0x3C4 JUMPI PUSH2 0x3C3 PUSH2 0x2FE8 JUMP JUMPDEST JUMPDEST SWAP1 PUSH1 0x0 MSTORE PUSH1 0x20 PUSH1 0x0 KECCAK256 ADD PUSH1 0x0 PUSH2 0x100 EXP DUP2 SLOAD SWAP1 PUSH20 0xFFFFFFFFFFFFFFFFFFFFFFFFFFFFFFFFFFFFFFFF MUL NOT AND SWAP1 SSTORE JUMPDEST DUP1 DUP1 PUSH2 0x3FD SWAP1 PUSH2 0x2F41 JUMP JUMPDEST SWAP2 POP POP PUSH2 0x331 JUMP JUMPDEST POP JUMPDEST POP POP JUMP JUMPDEST PUSH1 0x4 PUSH1 0x0 SWAP1 SLOAD SWAP1 PUSH2 0x100 EXP SWAP1 DIV PUSH20 0xFFFFFFFFFFFFFFFFFFFFFFFFFFFFFFFFFFFFFFFF AND DUP2 JUMP JUMPDEST PUSH1 0x3 DUP2 DUP2 SLOAD DUP2 LT PUSH2 0x441 JUMPI PUSH1 0x0 DUP1 REVERT JUMPDEST SWAP1 PUSH1 0x0 MSTORE PUSH1 0x20 PUSH1 0x0 KECCAK256 ADD PUSH1 0x0 SWAP2 POP SLOAD SWAP1 PUSH2 0x100 EXP SWAP1 DIV PUSH20 0xFFFFFFFFFFFFFFFFFFFFFFFFFFFFFFFFFFFFFFFF AND DUP2 JUMP JUMPDEST PUSH1 0x0 PUSH20 0xFFFFFFFFFFFFFFFFFFFFFFFFFFFFFFFFFFFFFFFF AND PUSH1 0x4 PUSH1 0x0 SWAP1 SLOAD SWAP1 PUSH2 0x100 EXP SWAP1 DIV PUSH20 0xFFFFFFFFFFFFFFFFFFFFFFFFFFFFFFFFFFFFFFFF AND PUSH20 0xFFFFFFFFFFFFFFFFFFFFFFFFFFFFFFFFFFFFFFFF AND EQ DUP1 ISZERO PUSH2 0x4FB JUMPI POP PUSH1 0x0 PUSH20 0xFFFFFFFFFFFFFFFFFFFFFFFFFFFFFFFFFFFFFFFF AND DUP3 PUSH20 0xFFFFFFFFFFFFFFFFFFFFFFFFFFFFFFFFFFFFFFFF AND EQ ISZERO JUMPDEST PUSH2 0x53A JUMPI PUSH1 0x40 MLOAD PUSH32 0x8C379A000000000000000000000000000000000000000000000000000000000 DUP2 MSTORE PUSH1 0x4 ADD PUSH2 0x531 SWAP1 PUSH2 0x2343 JUMP JUMPDEST PUSH1 0x40 MLOAD DUP1 SWAP2 SUB SWAP1 REVERT JUMPDEST DUP2 PUSH1 0x4 PUSH1 0x0 PUSH2 0x100 EXP DUP2 SLOAD DUP2 PUSH20 0xFFFFFFFFFFFFFFFFFFFFFFFFFFFFFFFFFFFFFFFF MUL NOT AND SWAP1 DUP4 PUSH20 0xFFFFFFFFFFFFFFFFFFFFFFFFFFFFFFFFFFFFFFFF AND MUL OR SWAP1 SSTORE POP PUSH1 0x3 DUP2 SWAP1 DUP1 PUSH1 0x1 DUP2 SLOAD ADD DUP1 DUP3 SSTORE DUP1 SWAP2 POP POP PUSH1 0x1 SWAP1 SUB SWAP1 PUSH1 0x0 MSTORE PUSH1 0x20 PUSH1 0x0 KECCAK256 ADD PUSH1 0x0 SWAP1 SWAP2 SWAP1 SWAP2 SWAP1 SWAP2 PUSH2 0x100 EXP DUP2 SLOAD DUP2 PUSH20 0xFFFFFFFFFFFFFFFFFFFFFFFFFFFFFFFFFFFFFFFF MUL NOT AND SWAP1 DUP4 PUSH20 0xFFFFFFFFFFFFFFFFFFFFFFFFFFFFFFFFFFFFFFFF AND MUL OR SWAP1 SSTORE POP POP POP JUMP JUMPDEST PUSH1 0x4 PUSH1 0x0 SWAP1 SLOAD SWAP1 PUSH2 0x100 EXP SWAP1 DIV PUSH20 0xFFFFFFFFFFFFFFFFFFFFFFFFFFFFFFFFFFFFFFFF AND PUSH20 0xFFFFFFFFFFFFFFFFFFFFFFFFFFFFFFFFFFFFFFFF AND CALLER PUSH20 0xFFFFFFFFFFFFFFFFFFFFFFFFFFFFFFFFFFFFFFFF AND EQ PUSH2 0x63C JUMPI PUSH1 0x0 DUP1 REVERT JUMPDEST DUP1 ISZERO PUSH2 0x64B JUMPI PUSH2 0x64A PUSH2 0xF7E JUMP JUMPDEST JUMPDEST PUSH1 0x0 DUP10 PUSH1 0x1 SWAP1 SHL SWAP1 POP PUSH1 0x0 PUSH1 0x2 SLOAD SWAP1 POP PUSH1 0x0 DUP3 DUP3 AND EQ PUSH2 0x6A0 JUMPI PUSH1 0x40 MLOAD PUSH32 0x8C379A000000000000000000000000000000000000000000000000000000000 DUP2 MSTORE PUSH1 0x4 ADD PUSH2 0x697 SWAP1 PUSH2 0x2383 JUMP JUMPDEST PUSH1 0x40 MLOAD DUP1 SWAP2 SUB SWAP1 REVERT JUMPDEST DUP2 DUP2 OR PUSH1 0x2 DUP2 SWAP1 SSTORE POP PUSH1 0x5 PUSH1 0x0 SWAP1 SLOAD SWAP1 PUSH2 0x100 EXP SWAP1 DIV PUSH16 0xFFFFFFFFFFFFFFFFFFFFFFFFFFFFFFFF AND PUSH16 0xFFFFFFFFFFFFFFFFFFFFFFFFFFFFFFFF AND DUP9 PUSH16 0xFFFFFFFFFFFFFFFFFFFFFFFFFFFFFFFF AND EQ PUSH2 0x72D JUMPI PUSH1 0x40 MLOAD PUSH32 0x8C379A000000000000000000000000000000000000000000000000000000000 DUP2 MSTORE PUSH1 0x4 ADD PUSH2 0x724 SWAP1 PUSH2 0x23A3 JUMP JUMPDEST PUSH1 0x40 MLOAD DUP1 SWAP2 SUB SWAP1 REVERT JUMPDEST POP POP PUSH1 0x0 PUSH32 0xFFFFFFFFFFFFFFFFFFFFFFFFFFFFFFFFFFFFFFFFFFFFFFFFFFFFFFFFFFFFFF00 DUP7 PUSH1 0x40 MLOAD PUSH1 0x20 ADD PUSH2 0x763 SWAP2 SWAP1 PUSH2 0x23C3 JUMP JUMPDEST PUSH1 0x40 MLOAD PUSH1 0x20 DUP2 DUP4 SUB SUB DUP2 MSTORE SWAP1 PUSH1 0x40 MSTORE DUP1 MLOAD SWAP1 PUSH1 0x20 ADD KECCAK256 PUSH1 0x0 SHR AND SWAP1 POP DUP4 ISZERO PUSH2 0x78D JUMPI DUP1 PUSH1 0x6 DUP2 SWAP1 SSTORE POP JUMPDEST PUSH1 0x0 DUP1 DUP1 DUP1 SLOAD SWAP1 POP SWAP1 POP JUMPDEST DUP1 DUP3 LT DUP1 ISZERO PUSH2 0x7D4 JUMPI POP PUSH2 0x7D3 DUP4 PUSH1 0x0 DUP5 DUP2 SLOAD DUP2 LT PUSH2 0x7BA JUMPI PUSH2 0x7B9 PUSH2 0x2FE8 JUMP JUMPDEST JUMPDEST SWAP1 PUSH1 0x0 MSTORE PUSH1 0x20 PUSH1 0x0 KECCAK256 ADD SLOAD PUSH2 0xFD3 SWAP1 SWAP2 SWAP1 PUSH4 0xFFFFFFFF AND JUMP JUMPDEST JUMPDEST ISZERO PUSH2 0x7EA JUMPI DUP2 PUSH2 0x7E3 SWAP1 PUSH2 0x2F41 JUMP JUMPDEST SWAP2 POP PUSH2 0x798 JUMP JUMPDEST DUP1 DUP3 LT ISZERO PUSH2 0x8DA JUMPI DUP11 PUSH1 0x1 PUSH2 0x81C PUSH1 0x0 DUP6 DUP2 SLOAD DUP2 LT PUSH2 0x80C JUMPI PUSH2 0x80B PUSH2 0x2FE8 JUMP JUMPDEST JUMPDEST SWAP1 PUSH1 0x0 MSTORE PUSH1 0x20 PUSH1 0x0 KECCAK256 ADD SLOAD PUSH2 0x1003 JUMP JUMPDEST PUSH2 0x826 SWAP2 SWAP1 PUSH2 0x2900 JUMP JUMPDEST PUSH1 0xFF AND LT PUSH2 0x8A2 JUMPI PUSH1 0x0 DUP1 PUSH1 0x6 SLOAD EQ SWAP1 POP PUSH1 0x0 PUSH2 0x86C PUSH1 0x6 SLOAD PUSH1 0x0 DUP7 DUP2 SLOAD DUP2 LT PUSH2 0x853 JUMPI PUSH2 0x852 PUSH2 0x2FE8 JUMP JUMPDEST JUMPDEST SWAP1 PUSH1 0x0 MSTORE PUSH1 0x20 PUSH1 0x0 KECCAK256 ADD SLOAD PUSH2 0xFD3 SWAP1 SWAP2 SWAP1 PUSH4 0xFFFFFFFF AND JUMP JUMPDEST SWAP1 POP DUP2 DUP1 ISZERO PUSH2 0x879 JUMPI POP DUP1 ISZERO JUMPDEST DUP1 PUSH2 0x881 JUMPI POP DUP7 JUMPDEST ISZERO PUSH2 0x89B JUMPI PUSH2 0x89A DUP13 DUP12 PUSH2 0x894 SWAP1 PUSH2 0x2B75 JUMP JUMPDEST DUP12 PUSH2 0x100D JUMP JUMPDEST JUMPDEST POP POP PUSH2 0x8D5 JUMP JUMPDEST PUSH1 0x0 DUP3 DUP2 SLOAD DUP2 LT PUSH2 0x8B6 JUMPI PUSH2 0x8B5 PUSH2 0x2FE8 JUMP JUMPDEST JUMPDEST SWAP1 PUSH1 0x0 MSTORE PUSH1 0x20 PUSH1 0x0 KECCAK256 ADD PUSH1 0x0 DUP2 SLOAD PUSH2 0x8CD SWAP1 PUSH2 0x2F41 JUMP JUMPDEST SWAP2 SWAP1 POP DUP2 SWAP1 SSTORE POP JUMPDEST PUSH2 0x96D JUMP JUMPDEST PUSH1 0x1 DUP12 EQ ISZERO PUSH2 0x8FC JUMPI PUSH2 0x8F7 DUP11 DUP10 PUSH2 0x8F1 SWAP1 PUSH2 0x2B75 JUMP JUMPDEST DUP10 PUSH2 0x100D JUMP JUMPDEST PUSH2 0x96C JUMP JUMPDEST PUSH1 0x0 PUSH1 0x1 DUP5 PUSH2 0x90B SWAP2 SWAP1 PUSH2 0x28AA JUMP JUMPDEST SWAP1 DUP1 PUSH1 0x1 DUP2 SLOAD ADD DUP1 DUP3 SSTORE DUP1 SWAP2 POP POP PUSH1 0x1 SWAP1 SUB SWAP1 PUSH1 0x0 MSTORE PUSH1 0x20 PUSH1 0x0 KECCAK256 ADD PUSH1 0x0 SWAP1 SWAP2 SWAP1 SWAP2 SWAP1 SWAP2 POP SSTORE PUSH1 0x1 DUP9 SWAP1 DUP1 PUSH1 0x1 DUP2 SLOAD ADD DUP1 DUP3 SSTORE DUP1 SWAP2 POP POP PUSH1 0x1 SWAP1 SUB SWAP1 PUSH1 0x0 MSTORE PUSH1 0x20 PUSH1 0x0 KECCAK256 SWAP1 PUSH1 0x7 MUL ADD PUSH1 0x0 SWAP1 SWAP2 SWAP1 SWAP2 SWAP1 SWAP2 POP DUP2 DUP2 PUSH2 0x969 SWAP2 SWAP1 PUSH2 0x3513 JUMP JUMPDEST POP POP JUMPDEST JUMPDEST PUSH32 0xBBF23E6BD8173D3423FB94A419F7193574BDCA2F2B640364201F708B6A13CBE8 DUP11 DUP11 DUP10 PUSH1 0x40 MLOAD PUSH2 0x9A0 SWAP4 SWAP3 SWAP2 SWAP1 PUSH2 0x2467 JUMP JUMPDEST PUSH1 0x40 MLOAD DUP1 SWAP2 SUB SWAP1 LOG1 POP POP POP POP POP POP POP POP POP POP POP POP JUMP JUMPDEST PUSH1 0x0 DUP1 PUSH1 0x4 PUSH1 0x0 SWAP1 SLOAD SWAP1 PUSH2 0x100 EXP SWAP1 DIV PUSH20 0xFFFFFFFFFFFFFFFFFFFFFFFFFFFFFFFFFFFFFFFF AND PUSH20 0xFFFFFFFFFFFFFFFFFFFFFFFFFFFFFFFFFFFFFFFF AND CALLER PUSH20 0xFFFFFFFFFFFFFFFFFFFFFFFFFFFFFFFFFFFFFFFF AND EQ PUSH2 0xA13 JUMPI PUSH1 0x0 DUP1 REVERT JUMPDEST PUSH1 0x0 DUP1 DUP5 PUSH1 0x1 SWAP1 SHL PUSH1 0x2 SLOAD AND EQ ISZERO SWAP1 POP PUSH1 0x5 PUSH1 0x0 SWAP1 SLOAD SWAP1 PUSH2 0x100 EXP SWAP1 DIV PUSH16 0xFFFFFFFFFFFFFFFFFFFFFFFFFFFFFFFF AND DUP2 SWAP3 POP SWAP3 POP POP SWAP2 POP SWAP2 JUMP JUMPDEST PUSH1 0x7 PUSH1 0x20 MSTORE DUP1 PUSH1 0x0 MSTORE PUSH1 0x40 PUSH1 0x0 KECCAK256 PUSH1 0x0 SWAP2 POP SWAP1 POP SLOAD DUP2 JUMP JUMPDEST PUSH1 0x4 PUSH1 0x0 SWAP1 SLOAD SWAP1 PUSH2 0x100 EXP SWAP1 DIV PUSH20 0xFFFFFFFFFFFFFFFFFFFFFFFFFFFFFFFFFFFFFFFF AND PUSH20 0xFFFFFFFFFFFFFFFFFFFFFFFFFFFFFFFFFFFFFFFF AND CALLER PUSH20 0xFFFFFFFFFFFFFFFFFFFFFFFFFFFFFFFFFFFFFFFF AND EQ PUSH2 0xABF JUMPI PUSH1 0x0 DUP1 REVERT JUMPDEST PUSH2 0xAC7 PUSH2 0xF7E JUMP JUMPDEST PUSH1 0x5 PUSH1 0x0 DUP2 DUP2 SWAP1 SLOAD SWAP1 PUSH2 0x100 EXP SWAP1 DIV PUSH16 0xFFFFFFFFFFFFFFFFFFFFFFFFFFFFFFFF AND DUP1 SWAP3 SWAP2 SWAP1 PUSH2 0xAF5 SWAP1 PUSH2 0x2F08 JUMP JUMPDEST SWAP2 SWAP1 PUSH2 0x100 EXP DUP2 SLOAD DUP2 PUSH16 0xFFFFFFFFFFFFFFFFFFFFFFFFFFFFFFFF MUL NOT AND SWAP1 DUP4 PUSH16 0xFFFFFFFFFFFFFFFFFFFFFFFFFFFFFFFF AND MUL OR SWAP1 SSTORE POP POP JUMP JUMPDEST PUSH1 0x4 PUSH1 0x0 SWAP1 SLOAD SWAP1 PUSH2 0x100 EXP SWAP1 DIV PUSH20 0xFFFFFFFFFFFFFFFFFFFFFFFFFFFFFFFFFFFFFFFF AND PUSH20 0xFFFFFFFFFFFFFFFFFFFFFFFFFFFFFFFFFFFFFFFF AND CALLER PUSH20 0xFFFFFFFFFFFFFFFFFFFFFFFFFFFFFFFFFFFFFFFF AND EQ PUSH2 0xB88 JUMPI PUSH1 0x0 DUP1 REVERT JUMPDEST PUSH1 0x0 DUP1 PUSH2 0xB97 DUP5 PUSH1 0xFF AND PUSH2 0x1215 JUMP JUMPDEST SWAP2 POP SWAP2 POP DUP2 ISZERO PUSH2 0xF56 JUMPI PUSH1 0x0 PUSH2 0xBAC DUP3 PUSH2 0x1348 JUMP JUMPDEST PUSH1 0x40 MLOAD DUP1 PUSH2 0x120 ADD PUSH1 0x40 MSTORE SWAP1 DUP2 PUSH1 0x0 DUP3 ADD SLOAD DUP2 MSTORE PUSH1 0x20 ADD PUSH1 0x1 DUP3 ADD PUSH1 0x0 SWAP1 SLOAD SWAP1 PUSH2 0x100 EXP SWAP1 DIV PUSH16 0xFFFFFFFFFFFFFFFFFFFFFFFFFFFFFFFF AND PUSH16 0xFFFFFFFFFFFFFFFFFFFFFFFFFFFFFFFF AND PUSH16 0xFFFFFFFFFFFFFFFFFFFFFFFFFFFFFFFF AND DUP2 MSTORE PUSH1 0x20 ADD PUSH1 0x1 DUP3 ADD PUSH1 0x10 SWAP1 SLOAD SWAP1 PUSH2 0x100 EXP SWAP1 DIV PUSH16 0xFFFFFFFFFFFFFFFFFFFFFFFFFFFFFFFF AND PUSH16 0xFFFFFFFFFFFFFFFFFFFFFFFFFFFFFFFF AND PUSH16 0xFFFFFFFFFFFFFFFFFFFFFFFFFFFFFFFF AND DUP2 MSTORE PUSH1 0x20 ADD PUSH1 0x2 DUP3 ADD PUSH1 0x0 SWAP1 SLOAD SWAP1 PUSH2 0x100 EXP SWAP1 DIV PUSH16 0xFFFFFFFFFFFFFFFFFFFFFFFFFFFFFFFF AND PUSH16 0xFFFFFFFFFFFFFFFFFFFFFFFFFFFFFFFF AND PUSH16 0xFFFFFFFFFFFFFFFFFFFFFFFFFFFFFFFF AND DUP2 MSTORE PUSH1 0x20 ADD PUSH1 0x3 DUP3 ADD SLOAD DUP2 MSTORE PUSH1 0x20 ADD PUSH1 0x4 DUP3 ADD PUSH1 0x0 SWAP1 SLOAD SWAP1 PUSH2 0x100 EXP SWAP1 DIV PUSH16 0xFFFFFFFFFFFFFFFFFFFFFFFFFFFFFFFF AND PUSH16 0xFFFFFFFFFFFFFFFFFFFFFFFFFFFFFFFF AND PUSH16 0xFFFFFFFFFFFFFFFFFFFFFFFFFFFFFFFF AND DUP2 MSTORE PUSH1 0x20 ADD PUSH1 0x4 DUP3 ADD PUSH1 0x10 SWAP1 SLOAD SWAP1 PUSH2 0x100 EXP SWAP1 DIV PUSH16 0xFFFFFFFFFFFFFFFFFFFFFFFFFFFFFFFF AND PUSH16 0xFFFFFFFFFFFFFFFFFFFFFFFFFFFFFFFF AND PUSH16 0xFFFFFFFFFFFFFFFFFFFFFFFFFFFFFFFF AND DUP2 MSTORE PUSH1 0x20 ADD PUSH1 0x5 DUP3 ADD DUP1 SLOAD DUP1 PUSH1 0x20 MUL PUSH1 0x20 ADD PUSH1 0x40 MLOAD SWAP1 DUP2 ADD PUSH1 0x40 MSTORE DUP1 SWAP3 SWAP2 SWAP1 DUP2 DUP2 MSTORE PUSH1 0x20 ADD PUSH1 0x0 SWAP1 JUMPDEST DUP3 DUP3 LT ISZERO PUSH2 0xF23 JUMPI DUP4 DUP3 SWAP1 PUSH1 0x0 MSTORE PUSH1 0x20 PUSH1 0x0 KECCAK256 SWAP1 PUSH1 0x5 MUL ADD PUSH1 0x40 MLOAD DUP1 PUSH1 0xC0 ADD PUSH1 0x40 MSTORE SWAP1 DUP2 PUSH1 0x0 DUP3 ADD PUSH1 0x0 SWAP1 SLOAD SWAP1 PUSH2 0x100 EXP SWAP1 DIV PUSH20 0xFFFFFFFFFFFFFFFFFFFFFFFFFFFFFFFFFFFFFFFF AND PUSH20 0xFFFFFFFFFFFFFFFFFFFFFFFFFFFFFFFFFFFFFFFF AND PUSH20 0xFFFFFFFFFFFFFFFFFFFFFFFFFFFFFFFFFFFFFFFF AND DUP2 MSTORE PUSH1 0x20 ADD PUSH1 0x1 DUP3 ADD PUSH1 0x0 SWAP1 SLOAD SWAP1 PUSH2 0x100 EXP SWAP1 DIV PUSH16 0xFFFFFFFFFFFFFFFFFFFFFFFFFFFFFFFF AND PUSH16 0xFFFFFFFFFFFFFFFFFFFFFFFFFFFFFFFF AND PUSH16 0xFFFFFFFFFFFFFFFFFFFFFFFFFFFFFFFF AND DUP2 MSTORE PUSH1 0x20 ADD PUSH1 0x1 DUP3 ADD PUSH1 0x10 SWAP1 SLOAD SWAP1 PUSH2 0x100 EXP SWAP1 DIV PUSH1 0xFF AND ISZERO ISZERO ISZERO ISZERO DUP2 MSTORE PUSH1 0x20 ADD PUSH1 0x2 DUP3 ADD SLOAD DUP2 MSTORE PUSH1 0x20 ADD PUSH1 0x3 DUP3 ADD SLOAD DUP2 MSTORE PUSH1 0x20 ADD PUSH1 0x4 DUP3 ADD DUP1 SLOAD DUP1 PUSH1 0x20 MUL PUSH1 0x20 ADD PUSH1 0x40 MLOAD SWAP1 DUP2 ADD PUSH1 0x40 MSTORE DUP1 SWAP3 SWAP2 SWAP1 DUP2 DUP2 MSTORE PUSH1 0x20 ADD PUSH1 0x0 SWAP1 JUMPDEST DUP3 DUP3 LT ISZERO PUSH2 0xF0C JUMPI DUP4 DUP3 SWAP1 PUSH1 0x0 MSTORE PUSH1 0x20 PUSH1 0x0 KECCAK256 SWAP1 PUSH1 0x2 MUL ADD PUSH1 0x40 MLOAD DUP1 PUSH1 0x40 ADD PUSH1 0x40 MSTORE SWAP1 DUP2 PUSH1 0x0 DUP3 ADD PUSH1 0x0 SWAP1 SLOAD SWAP1 PUSH2 0x100 EXP SWAP1 DIV PUSH20 0xFFFFFFFFFFFFFFFFFFFFFFFFFFFFFFFFFFFFFFFF AND PUSH20 0xFFFFFFFFFFFFFFFFFFFFFFFFFFFFFFFFFFFFFFFF AND PUSH20 0xFFFFFFFFFFFFFFFFFFFFFFFFFFFFFFFFFFFFFFFF AND DUP2 MSTORE PUSH1 0x20 ADD PUSH1 0x1 DUP3 ADD SLOAD DUP2 MSTORE POP POP DUP2 MSTORE PUSH1 0x20 ADD SWAP1 PUSH1 0x1 ADD SWAP1 PUSH2 0xE7A JUMP JUMPDEST POP POP POP POP DUP2 MSTORE POP POP DUP2 MSTORE PUSH1 0x20 ADD SWAP1 PUSH1 0x1 ADD SWAP1 PUSH2 0xD63 JUMP JUMPDEST POP POP POP POP DUP2 MSTORE PUSH1 0x20 ADD PUSH1 0x6 DUP3 ADD PUSH1 0x0 SWAP1 SLOAD SWAP1 PUSH2 0x100 EXP SWAP1 DIV PUSH1 0xFF AND ISZERO ISZERO ISZERO ISZERO DUP2 MSTORE POP POP SWAP1 POP PUSH2 0xF54 DUP5 DUP3 PUSH1 0x0 PUSH2 0x100D JUMP JUMPDEST POP JUMPDEST POP POP POP POP JUMP JUMPDEST PUSH1 0x5 PUSH1 0x0 SWAP1 SLOAD SWAP1 PUSH2 0x100 EXP SWAP1 DIV PUSH16 0xFFFFFFFFFFFFFFFFFFFFFFFFFFFFFFFF AND DUP2 JUMP JUMPDEST PUSH1 0x2 PUSH1 0x0 SWAP1 SSTORE PUSH1 0x0 DUP1 PUSH2 0xF91 SWAP2 SWAP1 PUSH2 0x13BA JUMP JUMPDEST PUSH1 0x1 PUSH1 0x0 PUSH2 0xF9F SWAP2 SWAP1 PUSH2 0x13DB JUMP JUMPDEST PUSH1 0x6 PUSH1 0x0 SWAP1 SSTORE PUSH32 0x131FC6443E37553A3C958042FD059569756675C2D859C083E17EC4928C3C70FB PUSH1 0x40 MLOAD PUSH1 0x40 MLOAD DUP1 SWAP2 SUB SWAP1 LOG1 JUMP JUMPDEST PUSH1 0x0 DUP2 PUSH32 0xFFFFFFFFFFFFFFFFFFFFFFFFFFFFFFFFFFFFFFFFFFFFFFFFFFFFFFFFFFFFFF00 DUP5 AND EQ ISZERO SWAP1 POP SWAP3 SWAP2 POP POP JUMP JUMPDEST PUSH1 0x0 DUP2 SWAP1 POP SWAP2 SWAP1 POP JUMP JUMPDEST DUP2 PUSH1 0x80 ADD MLOAD PUSH1 0x7 PUSH1 0x0 DUP6 PUSH16 0xFFFFFFFFFFFFFFFFFFFFFFFFFFFFFFFF AND PUSH16 0xFFFFFFFFFFFFFFFFFFFFFFFFFFFFFFFF AND DUP2 MSTORE PUSH1 0x20 ADD SWAP1 DUP2 MSTORE PUSH1 0x20 ADD PUSH1 0x0 KECCAK256 DUP2 SWAP1 SSTORE POP PUSH1 0x0 JUMPDEST PUSH1 0x3 DUP1 SLOAD SWAP1 POP DUP2 LT ISZERO PUSH2 0x1196 JUMPI PUSH1 0x0 PUSH20 0xFFFFFFFFFFFFFFFFFFFFFFFFFFFFFFFFFFFFFFFF AND PUSH1 0x3 DUP3 DUP2 SLOAD DUP2 LT PUSH2 0x1089 JUMPI PUSH2 0x1088 PUSH2 0x2FE8 JUMP JUMPDEST JUMPDEST SWAP1 PUSH1 0x0 MSTORE PUSH1 0x20 PUSH1 0x0 KECCAK256 ADD PUSH1 0x0 SWAP1 SLOAD SWAP1 PUSH2 0x100 EXP SWAP1 DIV PUSH20 0xFFFFFFFFFFFFFFFFFFFFFFFFFFFFFFFFFFFFFFFF AND PUSH20 0xFFFFFFFFFFFFFFFFFFFFFFFFFFFFFFFFFFFFFFFF AND EQ ISZERO PUSH2 0x10D5 JUMPI PUSH2 0x1183 JUMP JUMPDEST PUSH1 0x3 DUP2 DUP2 SLOAD DUP2 LT PUSH2 0x10E9 JUMPI PUSH2 0x10E8 PUSH2 0x2FE8 JUMP JUMPDEST JUMPDEST SWAP1 PUSH1 0x0 MSTORE PUSH1 0x20 PUSH1 0x0 KECCAK256 ADD PUSH1 0x0 SWAP1 SLOAD SWAP1 PUSH2 0x100 EXP SWAP1 DIV PUSH20 0xFFFFFFFFFFFFFFFFFFFFFFFFFFFFFFFFFFFFFFFF AND PUSH20 0xFFFFFFFFFFFFFFFFFFFFFFFFFFFFFFFFFFFFFFFF AND PUSH4 0xAD5EB1AB DUP6 DUP6 DUP6 PUSH1 0x40 MLOAD DUP5 PUSH4 0xFFFFFFFF AND PUSH1 0xE0 SHL DUP2 MSTORE PUSH1 0x4 ADD PUSH2 0x1150 SWAP4 SWAP3 SWAP2 SWAP1 PUSH2 0x2429 JUMP JUMPDEST PUSH1 0x0 PUSH1 0x40 MLOAD DUP1 DUP4 SUB DUP2 PUSH1 0x0 DUP8 DUP1 EXTCODESIZE ISZERO DUP1 ISZERO PUSH2 0x116A JUMPI PUSH1 0x0 DUP1 REVERT JUMPDEST POP GAS CALL ISZERO DUP1 ISZERO PUSH2 0x117E JUMPI RETURNDATASIZE PUSH1 0x0 DUP1 RETURNDATACOPY RETURNDATASIZE PUSH1 0x0 REVERT JUMPDEST POP POP POP POP JUMPDEST DUP1 DUP1 PUSH2 0x118E SWAP1 PUSH2 0x2F41 JUMP JUMPDEST SWAP2 POP POP PUSH2 0x1050 JUMP JUMPDEST POP PUSH2 0x119F PUSH2 0xF7E JUMP JUMPDEST DUP2 PUSH2 0x100 ADD MLOAD ISZERO PUSH2 0x1210 JUMPI PUSH1 0x5 PUSH1 0x0 DUP2 DUP2 SWAP1 SLOAD SWAP1 PUSH2 0x100 EXP SWAP1 DIV PUSH16 0xFFFFFFFFFFFFFFFFFFFFFFFFFFFFFFFF AND DUP1 SWAP3 SWAP2 SWAP1 PUSH2 0x11D8 SWAP1 PUSH2 0x2F08 JUMP JUMPDEST SWAP2 SWAP1 PUSH2 0x100 EXP DUP2 SLOAD DUP2 PUSH16 0xFFFFFFFFFFFFFFFFFFFFFFFFFFFFFFFF MUL NOT AND SWAP1 DUP4 PUSH16 0xFFFFFFFFFFFFFFFFFFFFFFFFFFFFFFFF AND MUL OR SWAP1 SSTORE POP POP JUMPDEST POP POP POP JUMP JUMPDEST PUSH1 0x0 DUP1 PUSH1 0x0 DUP1 DUP1 SLOAD SWAP1 POP SWAP1 POP PUSH1 0x1 DUP2 EQ ISZERO PUSH2 0x1263 JUMPI DUP4 PUSH2 0x1252 PUSH1 0x0 DUP1 DUP2 SLOAD DUP2 LT PUSH2 0x1242 JUMPI PUSH2 0x1241 PUSH2 0x2FE8 JUMP JUMPDEST JUMPDEST SWAP1 PUSH1 0x0 MSTORE PUSH1 0x20 PUSH1 0x0 KECCAK256 ADD SLOAD PUSH2 0x1003 JUMP JUMPDEST PUSH1 0xFF AND LT ISZERO PUSH1 0x0 SWAP3 POP SWAP3 POP POP PUSH2 0x1343 JUMP JUMPDEST PUSH1 0x0 DUP2 EQ ISZERO PUSH2 0x1299 JUMPI PUSH1 0x0 PUSH32 0xFFFFFFFFFFFFFFFFFFFFFFFFFFFFFFFFFFFFFFFFFFFFFFFFFFFFFFFFFFFFFFFF SWAP3 POP SWAP3 POP POP PUSH2 0x1343 JUMP JUMPDEST PUSH1 0x0 DUP1 PUSH1 0x0 DUP1 PUSH1 0x0 JUMPDEST DUP6 DUP2 LT ISZERO PUSH2 0x1323 JUMPI PUSH2 0x12D1 PUSH1 0x0 DUP3 DUP2 SLOAD DUP2 LT PUSH2 0x12C1 JUMPI PUSH2 0x12C0 PUSH2 0x2FE8 JUMP JUMPDEST JUMPDEST SWAP1 PUSH1 0x0 MSTORE PUSH1 0x20 PUSH1 0x0 KECCAK256 ADD SLOAD PUSH2 0x1003 JUMP JUMPDEST PUSH1 0xFF AND SWAP2 POP DUP3 PUSH2 0xFFFF AND DUP3 PUSH2 0xFFFF AND LT PUSH2 0x1312 JUMPI DUP3 PUSH2 0xFFFF AND DUP3 PUSH2 0xFFFF AND EQ ISZERO PUSH2 0x1306 JUMPI DUP4 PUSH2 0x12FF SWAP1 PUSH2 0x2F41 JUMP JUMPDEST SWAP4 POP PUSH2 0x1311 JUMP JUMPDEST DUP1 SWAP5 POP DUP2 SWAP3 POP PUSH1 0x0 SWAP4 POP JUMPDEST JUMPDEST DUP1 PUSH2 0x131C SWAP1 PUSH2 0x2F41 JUMP JUMPDEST SWAP1 POP PUSH2 0x12A2 JUMP JUMPDEST POP DUP8 DUP3 PUSH2 0xFFFF AND LT ISZERO DUP1 ISZERO PUSH2 0x1338 JUMPI POP PUSH1 0x0 DUP4 EQ JUMPDEST DUP5 SWAP7 POP SWAP7 POP POP POP POP POP POP JUMPDEST SWAP2 POP SWAP2 JUMP JUMPDEST PUSH1 0x0 PUSH1 0x1 DUP1 SLOAD SWAP1 POP DUP3 LT PUSH2 0x1391 JUMPI PUSH1 0x40 MLOAD PUSH32 0x8C379A000000000000000000000000000000000000000000000000000000000 DUP2 MSTORE PUSH1 0x4 ADD PUSH2 0x1388 SWAP1 PUSH2 0x2363 JUMP JUMPDEST PUSH1 0x40 MLOAD DUP1 SWAP2 SUB SWAP1 REVERT JUMPDEST PUSH1 0x1 DUP3 DUP2 SLOAD DUP2 LT PUSH2 0x13A5 JUMPI PUSH2 0x13A4 PUSH2 0x2FE8 JUMP JUMPDEST JUMPDEST SWAP1 PUSH1 0x0 MSTORE PUSH1 0x20 PUSH1 0x0 KECCAK256 SWAP1 PUSH1 0x7 MUL ADD SWAP1 POP SWAP2 SWAP1 POP JUMP JUMPDEST POP DUP1 SLOAD PUSH1 0x0 DUP3 SSTORE SWAP1 PUSH1 0x0 MSTORE PUSH1 0x20 PUSH1 0x0 KECCAK256 SWAP1 DUP2 ADD SWAP1 PUSH2 0x13D8 SWAP2 SWAP1 PUSH2 0x13FF JUMP JUMPDEST POP JUMP JUMPDEST POP DUP1 SLOAD PUSH1 0x0 DUP3 SSTORE PUSH1 0x7 MUL SWAP1 PUSH1 0x0 MSTORE PUSH1 0x20 PUSH1 0x0 KECCAK256 SWAP1 DUP2 ADD SWAP1 PUSH2 0x13FC SWAP2 SWAP1 PUSH2 0x141C JUMP JUMPDEST POP JUMP JUMPDEST JUMPDEST DUP1 DUP3 GT ISZERO PUSH2 0x1418 JUMPI PUSH1 0x0 DUP2 PUSH1 0x0 SWAP1 SSTORE POP PUSH1 0x1 ADD PUSH2 0x1400 JUMP JUMPDEST POP SWAP1 JUMP JUMPDEST JUMPDEST DUP1 DUP3 GT ISZERO PUSH2 0x1512 JUMPI PUSH1 0x0 DUP1 DUP3 ADD PUSH1 0x0 SWAP1 SSTORE PUSH1 0x1 DUP3 ADD PUSH1 0x0 PUSH2 0x100 EXP DUP2 SLOAD SWAP1 PUSH16 0xFFFFFFFFFFFFFFFFFFFFFFFFFFFFFFFF MUL NOT AND SWAP1 SSTORE PUSH1 0x1 DUP3 ADD PUSH1 0x10 PUSH2 0x100 EXP DUP2 SLOAD SWAP1 PUSH16 0xFFFFFFFFFFFFFFFFFFFFFFFFFFFFFFFF MUL NOT AND SWAP1 SSTORE PUSH1 0x2 DUP3 ADD PUSH1 0x0 PUSH2 0x100 EXP DUP2 SLOAD SWAP1 PUSH16 0xFFFFFFFFFFFFFFFFFFFFFFFFFFFFFFFF MUL NOT AND SWAP1 SSTORE PUSH1 0x3 DUP3 ADD PUSH1 0x0 SWAP1 SSTORE PUSH1 0x4 DUP3 ADD PUSH1 0x0 PUSH2 0x100 EXP DUP2 SLOAD SWAP1 PUSH16 0xFFFFFFFFFFFFFFFFFFFFFFFFFFFFFFFF MUL NOT AND SWAP1 SSTORE PUSH1 0x4 DUP3 ADD PUSH1 0x10 PUSH2 0x100 EXP DUP2 SLOAD SWAP1 PUSH16 0xFFFFFFFFFFFFFFFFFFFFFFFFFFFFFFFF MUL NOT AND SWAP1 SSTORE PUSH1 0x5 DUP3 ADD PUSH1 0x0 PUSH2 0x14F5 SWAP2 SWAP1 PUSH2 0x1516 JUMP JUMPDEST PUSH1 0x6 DUP3 ADD PUSH1 0x0 PUSH2 0x100 EXP DUP2 SLOAD SWAP1 PUSH1 0xFF MUL NOT AND SWAP1 SSTORE POP PUSH1 0x7 ADD PUSH2 0x141D JUMP JUMPDEST POP SWAP1 JUMP JUMPDEST POP DUP1 SLOAD PUSH1 0x0 DUP3 SSTORE PUSH1 0x5 MUL SWAP1 PUSH1 0x0 MSTORE PUSH1 0x20 PUSH1 0x0 KECCAK256 SWAP1 DUP2 ADD SWAP1 PUSH2 0x1537 SWAP2 SWAP1 PUSH2 0x153A JUMP JUMPDEST POP JUMP JUMPDEST JUMPDEST DUP1 DUP3 GT ISZERO PUSH2 0x15CB JUMPI PUSH1 0x0 DUP1 DUP3 ADD PUSH1 0x0 PUSH2 0x100 EXP DUP2 SLOAD SWAP1 PUSH20 0xFFFFFFFFFFFFFFFFFFFFFFFFFFFFFFFFFFFFFFFF MUL NOT AND SWAP1 SSTORE PUSH1 0x1 DUP3 ADD PUSH1 0x0 PUSH2 0x100 EXP DUP2 SLOAD SWAP1 PUSH16 0xFFFFFFFFFFFFFFFFFFFFFFFFFFFFFFFF MUL NOT AND SWAP1 SSTORE PUSH1 0x1 DUP3 ADD PUSH1 0x10 PUSH2 0x100 EXP DUP2 SLOAD SWAP1 PUSH1 0xFF MUL NOT AND SWAP1 SSTORE PUSH1 0x2 DUP3 ADD PUSH1 0x0 SWAP1 SSTORE PUSH1 0x3 DUP3 ADD PUSH1 0x0 SWAP1 SSTORE PUSH1 0x4 DUP3 ADD PUSH1 0x0 PUSH2 0x15C2 SWAP2 SWAP1 PUSH2 0x15CF JUMP JUMPDEST POP PUSH1 0x5 ADD PUSH2 0x153B JUMP JUMPDEST POP SWAP1 JUMP JUMPDEST POP DUP1 SLOAD PUSH1 0x0 DUP3 SSTORE PUSH1 0x2 MUL SWAP1 PUSH1 0x0 MSTORE PUSH1 0x20 PUSH1 0x0 KECCAK256 SWAP1 DUP2 ADD SWAP1 PUSH2 0x15F0 SWAP2 SWAP1 PUSH2 0x15F3 JUMP JUMPDEST POP JUMP JUMPDEST JUMPDEST DUP1 DUP3 GT ISZERO PUSH2 0x1635 JUMPI PUSH1 0x0 DUP1 DUP3 ADD PUSH1 0x0 PUSH2 0x100 EXP DUP2 SLOAD SWAP1 PUSH20 0xFFFFFFFFFFFFFFFFFFFFFFFFFFFFFFFFFFFFFFFF MUL NOT AND SWAP1 SSTORE PUSH1 0x1 DUP3 ADD PUSH1 0x0 SWAP1 SSTORE POP PUSH1 0x2 ADD PUSH2 0x15F4 JUMP JUMPDEST POP SWAP1 JUMP JUMPDEST PUSH1 0x0 PUSH2 0x164C PUSH2 0x1647 DUP5 PUSH2 0x25B1 JUMP JUMPDEST PUSH2 0x258C JUMP JUMPDEST SWAP1 POP DUP1 DUP4 DUP3 MSTORE PUSH1 0x20 DUP3 ADD SWAP1 POP DUP3 DUP6 PUSH1 0x20 DUP7 MUL DUP3 ADD GT ISZERO PUSH2 0x166F JUMPI PUSH2 0x166E PUSH2 0x3182 JUMP JUMPDEST JUMPDEST PUSH1 0x0 JUMPDEST DUP6 DUP2 LT ISZERO PUSH2 0x16BD JUMPI DUP2 CALLDATALOAD PUSH8 0xFFFFFFFFFFFFFFFF DUP2 GT ISZERO PUSH2 0x1695 JUMPI PUSH2 0x1694 PUSH2 0x315F JUMP JUMPDEST JUMPDEST DUP1 DUP7 ADD PUSH2 0x16A2 DUP10 DUP3 PUSH2 0x17E7 JUMP JUMPDEST DUP6 MSTORE PUSH1 0x20 DUP6 ADD SWAP5 POP PUSH1 0x20 DUP5 ADD SWAP4 POP POP POP PUSH1 0x1 DUP2 ADD SWAP1 POP PUSH2 0x1672 JUMP JUMPDEST POP POP POP SWAP4 SWAP3 POP POP POP JUMP JUMPDEST PUSH1 0x0 PUSH2 0x16DA PUSH2 0x16D5 DUP5 PUSH2 0x25DD JUMP JUMPDEST PUSH2 0x258C JUMP JUMPDEST SWAP1 POP DUP1 DUP4 DUP3 MSTORE PUSH1 0x20 DUP3 ADD SWAP1 POP DUP3 DUP6 PUSH1 0x40 DUP7 MUL DUP3 ADD GT ISZERO PUSH2 0x16FD JUMPI PUSH2 0x16FC PUSH2 0x3182 JUMP JUMPDEST JUMPDEST PUSH1 0x0 JUMPDEST DUP6 DUP2 LT ISZERO PUSH2 0x172D JUMPI DUP2 PUSH2 0x1713 DUP9 DUP3 PUSH2 0x18A3 JUMP JUMPDEST DUP5 MSTORE PUSH1 0x20 DUP5 ADD SWAP4 POP PUSH1 0x40 DUP4 ADD SWAP3 POP POP PUSH1 0x1 DUP2 ADD SWAP1 POP PUSH2 0x1700 JUMP JUMPDEST POP POP POP SWAP4 SWAP3 POP POP POP JUMP JUMPDEST PUSH1 0x0 DUP2 CALLDATALOAD SWAP1 POP PUSH2 0x1746 DUP2 PUSH2 0x360E JUMP JUMPDEST SWAP3 SWAP2 POP POP JUMP JUMPDEST PUSH1 0x0 DUP2 CALLDATALOAD SWAP1 POP PUSH2 0x175B DUP2 PUSH2 0x3625 JUMP JUMPDEST SWAP3 SWAP2 POP POP JUMP JUMPDEST PUSH1 0x0 DUP3 PUSH1 0x1F DUP4 ADD SLT PUSH2 0x1776 JUMPI PUSH2 0x1775 PUSH2 0x315F JUMP JUMPDEST JUMPDEST DUP2 CALLDATALOAD PUSH2 0x1786 DUP5 DUP3 PUSH1 0x20 DUP7 ADD PUSH2 0x1639 JUMP JUMPDEST SWAP2 POP POP SWAP3 SWAP2 POP POP JUMP JUMPDEST PUSH1 0x0 DUP3 PUSH1 0x1F DUP4 ADD SLT PUSH2 0x17A4 JUMPI PUSH2 0x17A3 PUSH2 0x315F JUMP JUMPDEST JUMPDEST DUP2 CALLDATALOAD PUSH2 0x17B4 DUP5 DUP3 PUSH1 0x20 DUP7 ADD PUSH2 0x16C7 JUMP JUMPDEST SWAP2 POP POP SWAP3 SWAP2 POP POP JUMP JUMPDEST PUSH1 0x0 DUP2 CALLDATALOAD SWAP1 POP PUSH2 0x17CC DUP2 PUSH2 0x363C JUMP JUMPDEST SWAP3 SWAP2 POP POP JUMP JUMPDEST PUSH1 0x0 DUP2 CALLDATALOAD SWAP1 POP PUSH2 0x17E1 DUP2 PUSH2 0x3653 JUMP JUMPDEST SWAP3 SWAP2 POP POP JUMP JUMPDEST PUSH1 0x0 PUSH1 0xC0 DUP3 DUP5 SUB SLT ISZERO PUSH2 0x17FD JUMPI PUSH2 0x17FC PUSH2 0x316E JUMP JUMPDEST JUMPDEST PUSH2 0x1807 PUSH1 0xC0 PUSH2 0x258C JUMP JUMPDEST SWAP1 POP PUSH1 0x0 PUSH2 0x1817 DUP5 DUP3 DUP6 ADD PUSH2 0x1737 JUMP JUMPDEST PUSH1 0x0 DUP4 ADD MSTORE POP PUSH1 0x20 PUSH2 0x182B DUP5 DUP3 DUP6 ADD PUSH2 0x1A0F JUMP JUMPDEST PUSH1 0x20 DUP4 ADD MSTORE POP PUSH1 0x40 PUSH2 0x183F DUP5 DUP3 DUP6 ADD PUSH2 0x17BD JUMP JUMPDEST PUSH1 0x40 DUP4 ADD MSTORE POP PUSH1 0x60 PUSH2 0x1853 DUP5 DUP3 DUP6 ADD PUSH2 0x1A24 JUMP JUMPDEST PUSH1 0x60 DUP4 ADD MSTORE POP PUSH1 0x80 PUSH2 0x1867 DUP5 DUP3 DUP6 ADD PUSH2 0x1A24 JUMP JUMPDEST PUSH1 0x80 DUP4 ADD MSTORE POP PUSH1 0xA0 DUP3 ADD CALLDATALOAD PUSH8 0xFFFFFFFFFFFFFFFF DUP2 GT ISZERO PUSH2 0x188B JUMPI PUSH2 0x188A PUSH2 0x317D JUMP JUMPDEST JUMPDEST PUSH2 0x1897 DUP5 DUP3 DUP6 ADD PUSH2 0x178F JUMP JUMPDEST PUSH1 0xA0 DUP4 ADD MSTORE POP SWAP3 SWAP2 POP POP JUMP JUMPDEST PUSH1 0x0 PUSH1 0x40 DUP3 DUP5 SUB SLT ISZERO PUSH2 0x18B9 JUMPI PUSH2 0x18B8 PUSH2 0x316E JUMP JUMPDEST JUMPDEST PUSH2 0x18C3 PUSH1 0x40 PUSH2 0x258C JUMP JUMPDEST SWAP1 POP PUSH1 0x0 PUSH2 0x18D3 DUP5 DUP3 DUP6 ADD PUSH2 0x1737 JUMP JUMPDEST PUSH1 0x0 DUP4 ADD MSTORE POP PUSH1 0x20 PUSH2 0x18E7 DUP5 DUP3 DUP6 ADD PUSH2 0x1A24 JUMP JUMPDEST PUSH1 0x20 DUP4 ADD MSTORE POP SWAP3 SWAP2 POP POP JUMP JUMPDEST PUSH1 0x0 PUSH2 0x120 DUP3 DUP5 SUB SLT ISZERO PUSH2 0x190A JUMPI PUSH2 0x1909 PUSH2 0x3169 JUMP JUMPDEST JUMPDEST DUP2 SWAP1 POP SWAP3 SWAP2 POP POP JUMP JUMPDEST PUSH1 0x0 PUSH2 0x120 DUP3 DUP5 SUB SLT ISZERO PUSH2 0x192A JUMPI PUSH2 0x1929 PUSH2 0x316E JUMP JUMPDEST JUMPDEST PUSH2 0x1935 PUSH2 0x120 PUSH2 0x258C JUMP JUMPDEST SWAP1 POP PUSH1 0x0 PUSH2 0x1945 DUP5 DUP3 DUP6 ADD PUSH2 0x1A24 JUMP JUMPDEST PUSH1 0x0 DUP4 ADD MSTORE POP PUSH1 0x20 PUSH2 0x1959 DUP5 DUP3 DUP6 ADD PUSH2 0x1A0F JUMP JUMPDEST PUSH1 0x20 DUP4 ADD MSTORE POP PUSH1 0x40 PUSH2 0x196D DUP5 DUP3 DUP6 ADD PUSH2 0x1A0F JUMP JUMPDEST PUSH1 0x40 DUP4 ADD MSTORE POP PUSH1 0x60 PUSH2 0x1981 DUP5 DUP3 DUP6 ADD PUSH2 0x1A0F JUMP JUMPDEST PUSH1 0x60 DUP4 ADD MSTORE POP PUSH1 0x80 PUSH2 0x1995 DUP5 DUP3 DUP6 ADD PUSH2 0x17D2 JUMP JUMPDEST PUSH1 0x80 DUP4 ADD MSTORE POP PUSH1 0xA0 PUSH2 0x19A9 DUP5 DUP3 DUP6 ADD PUSH2 0x1A0F JUMP JUMPDEST PUSH1 0xA0 DUP4 ADD MSTORE POP PUSH1 0xC0 PUSH2 0x19BD DUP5 DUP3 DUP6 ADD PUSH2 0x1A0F JUMP JUMPDEST PUSH1 0xC0 DUP4 ADD MSTORE POP PUSH1 0xE0 DUP3 ADD CALLDATALOAD PUSH8 0xFFFFFFFFFFFFFFFF DUP2 GT ISZERO PUSH2 0x19E1 JUMPI PUSH2 0x19E0 PUSH2 0x317D JUMP JUMPDEST JUMPDEST PUSH2 0x19ED DUP5 DUP3 DUP6 ADD PUSH2 0x1761 JUMP JUMPDEST PUSH1 0xE0 DUP4 ADD MSTORE POP PUSH2 0x100 PUSH2 0x1A02 DUP5 DUP3 DUP6 ADD PUSH2 0x17BD JUMP JUMPDEST PUSH2 0x100 DUP4 ADD MSTORE POP SWAP3 SWAP2 POP POP JUMP JUMPDEST PUSH1 0x0 DUP2 CALLDATALOAD SWAP1 POP PUSH2 0x1A1E DUP2 PUSH2 0x366A JUMP JUMPDEST SWAP3 SWAP2 POP POP JUMP JUMPDEST PUSH1 0x0 DUP2 CALLDATALOAD SWAP1 POP PUSH2 0x1A33 DUP2 PUSH2 0x3681 JUMP JUMPDEST SWAP3 SWAP2 POP POP JUMP JUMPDEST PUSH1 0x0 DUP2 CALLDATALOAD SWAP1 POP PUSH2 0x1A48 DUP2 PUSH2 0x3698 JUMP JUMPDEST SWAP3 SWAP2 POP POP JUMP JUMPDEST PUSH1 0x0 DUP1 PUSH1 0x40 DUP4 DUP6 SUB SLT ISZERO PUSH2 0x1A65 JUMPI PUSH2 0x1A64 PUSH2 0x3196 JUMP JUMPDEST JUMPDEST PUSH1 0x0 PUSH2 0x1A73 DUP6 DUP3 DUP7 ADD PUSH2 0x174C JUMP JUMPDEST SWAP3 POP POP PUSH1 0x20 PUSH2 0x1A84 DUP6 DUP3 DUP7 ADD PUSH2 0x17BD JUMP JUMPDEST SWAP2 POP POP SWAP3 POP SWAP3 SWAP1 POP JUMP JUMPDEST PUSH1 0x0 DUP1 PUSH1 0x40 DUP4 DUP6 SUB SLT ISZERO PUSH2 0x1AA5 JUMPI PUSH2 0x1AA4 PUSH2 0x3196 JUMP JUMPDEST JUMPDEST PUSH1 0x0 PUSH2 0x1AB3 DUP6 DUP3 DUP7 ADD PUSH2 0x1737 JUMP JUMPDEST SWAP3 POP POP PUSH1 0x20 PUSH2 0x1AC4 DUP6 DUP3 DUP7 ADD PUSH2 0x174C JUMP JUMPDEST SWAP2 POP POP SWAP3 POP SWAP3 SWAP1 POP JUMP JUMPDEST PUSH1 0x0 PUSH1 0x20 DUP3 DUP5 SUB SLT ISZERO PUSH2 0x1AE4 JUMPI PUSH2 0x1AE3 PUSH2 0x3196 JUMP JUMPDEST JUMPDEST PUSH1 0x0 PUSH2 0x1AF2 DUP5 DUP3 DUP6 ADD PUSH2 0x1A0F JUMP JUMPDEST SWAP2 POP POP SWAP3 SWAP2 POP POP JUMP JUMPDEST PUSH1 0x0 PUSH1 0x20 DUP3 DUP5 SUB SLT ISZERO PUSH2 0x1B11 JUMPI PUSH2 0x1B10 PUSH2 0x3196 JUMP JUMPDEST JUMPDEST PUSH1 0x0 PUSH2 0x1B1F DUP5 DUP3 DUP6 ADD PUSH2 0x1A24 JUMP JUMPDEST SWAP2 POP POP SWAP3 SWAP2 POP POP JUMP JUMPDEST PUSH1 0x0 DUP1 PUSH1 0x0 DUP1 PUSH1 0x0 DUP1 PUSH1 0x0 DUP1 PUSH1 0x0 PUSH2 0x120 DUP11 DUP13 SUB SLT ISZERO PUSH2 0x1B4B JUMPI PUSH2 0x1B4A PUSH2 0x3196 JUMP JUMPDEST JUMPDEST PUSH1 0x0 PUSH2 0x1B59 DUP13 DUP3 DUP14 ADD PUSH2 0x1A24 JUMP JUMPDEST SWAP10 POP POP PUSH1 0x20 PUSH2 0x1B6A DUP13 DUP3 DUP14 ADD PUSH2 0x1A24 JUMP JUMPDEST SWAP9 POP POP PUSH1 0x40 PUSH2 0x1B7B DUP13 DUP3 DUP14 ADD PUSH2 0x1A0F JUMP JUMPDEST SWAP8 POP POP PUSH1 0x60 PUSH2 0x1B8C DUP13 DUP3 DUP14 ADD PUSH2 0x1A0F JUMP JUMPDEST SWAP7 POP POP PUSH1 0x80 DUP11 ADD CALLDATALOAD PUSH8 0xFFFFFFFFFFFFFFFF DUP2 GT ISZERO PUSH2 0x1BAD JUMPI PUSH2 0x1BAC PUSH2 0x318C JUMP JUMPDEST JUMPDEST PUSH2 0x1BB9 DUP13 DUP3 DUP14 ADD PUSH2 0x18F3 JUMP JUMPDEST SWAP6 POP POP PUSH1 0xA0 PUSH2 0x1BCA DUP13 DUP3 DUP14 ADD PUSH2 0x1737 JUMP JUMPDEST SWAP5 POP POP PUSH1 0xC0 PUSH2 0x1BDB DUP13 DUP3 DUP14 ADD PUSH2 0x17BD JUMP JUMPDEST SWAP4 POP POP PUSH1 0xE0 PUSH2 0x1BEC DUP13 DUP3 DUP14 ADD PUSH2 0x17BD JUMP JUMPDEST SWAP3 POP POP PUSH2 0x100 PUSH2 0x1BFE DUP13 DUP3 DUP14 ADD PUSH2 0x17BD JUMP JUMPDEST SWAP2 POP POP SWAP3 SWAP6 SWAP9 POP SWAP3 SWAP6 SWAP9 POP SWAP3 SWAP6 SWAP9 JUMP JUMPDEST PUSH1 0x0 DUP1 PUSH1 0x40 DUP4 DUP6 SUB SLT ISZERO PUSH2 0x1C25 JUMPI PUSH2 0x1C24 PUSH2 0x3196 JUMP JUMPDEST JUMPDEST PUSH1 0x0 PUSH2 0x1C33 DUP6 DUP3 DUP7 ADD PUSH2 0x1A39 JUMP JUMPDEST SWAP3 POP POP PUSH1 0x20 PUSH2 0x1C44 DUP6 DUP3 DUP7 ADD PUSH2 0x1A0F JUMP JUMPDEST SWAP2 POP POP SWAP3 POP SWAP3 SWAP1 POP JUMP JUMPDEST PUSH1 0x0 PUSH2 0x1C5A DUP4 DUP4 PUSH2 0x1F3F JUMP JUMPDEST SWAP1 POP SWAP3 SWAP2 POP POP JUMP JUMPDEST PUSH1 0x0 PUSH2 0x1C6E DUP4 DUP4 PUSH2 0x1FFA JUMP JUMPDEST SWAP1 POP SWAP3 SWAP2 POP POP JUMP JUMPDEST PUSH1 0x0 PUSH2 0x1C82 DUP4 DUP4 PUSH2 0x2083 JUMP JUMPDEST PUSH1 0x40 DUP4 ADD SWAP1 POP SWAP3 SWAP2 POP POP JUMP JUMPDEST PUSH1 0x0 PUSH2 0x1C9A DUP4 DUP4 PUSH2 0x20C2 JUMP JUMPDEST PUSH1 0x40 DUP4 ADD SWAP1 POP SWAP3 SWAP2 POP POP JUMP JUMPDEST PUSH2 0x1CAF DUP2 PUSH2 0x2A1F JUMP JUMPDEST DUP3 MSTORE POP POP JUMP JUMPDEST PUSH2 0x1CBE DUP2 PUSH2 0x2A0D JUMP JUMPDEST DUP3 MSTORE POP POP JUMP JUMPDEST PUSH2 0x1CCD DUP2 PUSH2 0x2A0D JUMP JUMPDEST DUP3 MSTORE POP POP JUMP JUMPDEST PUSH1 0x0 PUSH2 0x1CDF DUP4 DUP6 PUSH2 0x270B JUMP JUMPDEST SWAP4 POP DUP4 PUSH1 0x20 DUP5 MUL DUP6 ADD PUSH2 0x1CF1 DUP5 PUSH2 0x2637 JUMP JUMPDEST DUP1 PUSH1 0x0 JUMPDEST DUP8 DUP2 LT ISZERO PUSH2 0x1D35 JUMPI DUP5 DUP5 SUB DUP10 MSTORE PUSH2 0x1D0C DUP3 DUP5 PUSH2 0x2849 JUMP JUMPDEST PUSH2 0x1D16 DUP6 DUP3 PUSH2 0x1C4E JUMP JUMPDEST SWAP5 POP PUSH2 0x1D21 DUP4 PUSH2 0x26D7 JUMP JUMPDEST SWAP3 POP PUSH1 0x20 DUP11 ADD SWAP10 POP POP PUSH1 0x1 DUP2 ADD SWAP1 POP PUSH2 0x1CF5 JUMP JUMPDEST POP DUP3 SWAP8 POP DUP8 SWAP5 POP POP POP POP POP SWAP4 SWAP3 POP POP POP JUMP JUMPDEST PUSH1 0x0 PUSH2 0x1D52 DUP3 PUSH2 0x26A0 JUMP JUMPDEST PUSH2 0x1D5C DUP2 DUP6 PUSH2 0x270B JUMP JUMPDEST SWAP4 POP DUP4 PUSH1 0x20 DUP3 MUL DUP6 ADD PUSH2 0x1D6E DUP6 PUSH2 0x2641 JUMP JUMPDEST DUP1 PUSH1 0x0 JUMPDEST DUP6 DUP2 LT ISZERO PUSH2 0x1DAA JUMPI DUP5 DUP5 SUB DUP10 MSTORE DUP2 MLOAD PUSH2 0x1D8B DUP6 DUP3 PUSH2 0x1C62 JUMP JUMPDEST SWAP5 POP PUSH2 0x1D96 DUP4 PUSH2 0x26E4 JUMP JUMPDEST SWAP3 POP PUSH1 0x20 DUP11 ADD SWAP10 POP POP PUSH1 0x1 DUP2 ADD SWAP1 POP PUSH2 0x1D72 JUMP JUMPDEST POP DUP3 SWAP8 POP DUP8 SWAP6 POP POP POP POP POP POP SWAP3 SWAP2 POP POP JUMP JUMPDEST PUSH1 0x0 PUSH2 0x1DC8 DUP4 DUP6 PUSH2 0x271C JUMP JUMPDEST SWAP4 POP PUSH2 0x1DD3 DUP3 PUSH2 0x2666 JUMP JUMPDEST DUP1 PUSH1 0x0 JUMPDEST DUP6 DUP2 LT ISZERO PUSH2 0x1E0C JUMPI PUSH2 0x1DE9 DUP3 DUP5 PUSH2 0x2871 JUMP JUMPDEST PUSH2 0x1DF3 DUP9 DUP3 PUSH2 0x1C76 JUMP JUMPDEST SWAP8 POP PUSH2 0x1DFE DUP4 PUSH2 0x26F1 JUMP JUMPDEST SWAP3 POP POP PUSH1 0x1 DUP2 ADD SWAP1 POP PUSH2 0x1DD7 JUMP JUMPDEST POP DUP6 SWAP3 POP POP POP SWAP4 SWAP3 POP POP POP JUMP JUMPDEST PUSH1 0x0 PUSH2 0x1E24 DUP3 PUSH2 0x26C1 JUMP JUMPDEST PUSH2 0x1E2E DUP2 DUP6 PUSH2 0x271C JUMP JUMPDEST SWAP4 POP PUSH2 0x1E39 DUP4 PUSH2 0x2670 JUMP JUMPDEST DUP1 PUSH1 0x0 JUMPDEST DUP4 DUP2 LT ISZERO PUSH2 0x1E6A JUMPI DUP2 MLOAD PUSH2 0x1E51 DUP9 DUP3 PUSH2 0x1C8E JUMP JUMPDEST SWAP8 POP PUSH2 0x1E5C DUP4 PUSH2 0x26FE JUMP JUMPDEST SWAP3 POP POP PUSH1 0x1 DUP2 ADD SWAP1 POP PUSH2 0x1E3D JUMP JUMPDEST POP DUP6 SWAP4 POP POP POP POP SWAP3 SWAP2 POP POP JUMP JUMPDEST PUSH2 0x1E80 DUP2 PUSH2 0x2A31 JUMP JUMPDEST DUP3 MSTORE POP POP JUMP JUMPDEST PUSH2 0x1E8F DUP2 PUSH2 0x2A31 JUMP JUMPDEST DUP3 MSTORE POP POP JUMP JUMPDEST PUSH2 0x1E9E DUP2 PUSH2 0x2A3D JUMP JUMPDEST DUP3 MSTORE POP POP JUMP JUMPDEST PUSH2 0x1EAD DUP2 PUSH2 0x2A3D JUMP JUMPDEST DUP3 MSTORE POP POP JUMP JUMPDEST PUSH1 0x0 PUSH2 0x1EC0 PUSH1 0x13 DUP4 PUSH2 0x272D JUMP JUMPDEST SWAP2 POP PUSH2 0x1ECB DUP3 PUSH2 0x3252 JUMP JUMPDEST PUSH1 0x20 DUP3 ADD SWAP1 POP SWAP2 SWAP1 POP JUMP JUMPDEST PUSH1 0x0 PUSH2 0x1EE3 PUSH1 0x10 DUP4 PUSH2 0x272D JUMP JUMPDEST SWAP2 POP PUSH2 0x1EEE DUP3 PUSH2 0x327B JUMP JUMPDEST PUSH1 0x20 DUP3 ADD SWAP1 POP SWAP2 SWAP1 POP JUMP JUMPDEST PUSH1 0x0 PUSH2 0x1F06 PUSH1 0x15 DUP4 PUSH2 0x272D JUMP JUMPDEST SWAP2 POP PUSH2 0x1F11 DUP3 PUSH2 0x32A4 JUMP JUMPDEST PUSH1 0x20 DUP3 ADD SWAP1 POP SWAP2 SWAP1 POP JUMP JUMPDEST PUSH1 0x0 PUSH2 0x1F29 PUSH1 0xD DUP4 PUSH2 0x272D JUMP JUMPDEST SWAP2 POP PUSH2 0x1F34 DUP3 PUSH2 0x32CD JUMP JUMPDEST PUSH1 0x20 DUP3 ADD SWAP1 POP SWAP2 SWAP1 POP JUMP JUMPDEST PUSH1 0x0 PUSH1 0xC0 DUP4 ADD PUSH2 0x1F52 PUSH1 0x0 DUP5 ADD DUP5 PUSH2 0x273E JUMP JUMPDEST PUSH2 0x1F5F PUSH1 0x0 DUP7 ADD DUP3 PUSH2 0x1CB5 JUMP JUMPDEST POP PUSH2 0x1F6D PUSH1 0x20 DUP5 ADD DUP5 PUSH2 0x287C JUMP JUMPDEST PUSH2 0x1F7A PUSH1 0x20 DUP7 ADD DUP3 PUSH2 0x22C5 JUMP JUMPDEST POP PUSH2 0x1F88 PUSH1 0x40 DUP5 ADD DUP5 PUSH2 0x281B JUMP JUMPDEST PUSH2 0x1F95 PUSH1 0x40 DUP7 ADD DUP3 PUSH2 0x1E77 JUMP JUMPDEST POP PUSH2 0x1FA3 PUSH1 0x60 DUP5 ADD DUP5 PUSH2 0x2893 JUMP JUMPDEST PUSH2 0x1FB0 PUSH1 0x60 DUP7 ADD DUP3 PUSH2 0x22E3 JUMP JUMPDEST POP PUSH2 0x1FBE PUSH1 0x80 DUP5 ADD DUP5 PUSH2 0x2893 JUMP JUMPDEST PUSH2 0x1FCB PUSH1 0x80 DUP7 ADD DUP3 PUSH2 0x22E3 JUMP JUMPDEST POP PUSH2 0x1FD9 PUSH1 0xA0 DUP5 ADD DUP5 PUSH2 0x27B8 JUMP JUMPDEST DUP6 DUP4 SUB PUSH1 0xA0 DUP8 ADD MSTORE PUSH2 0x1FEC DUP4 DUP3 DUP5 PUSH2 0x1DBC JUMP JUMPDEST SWAP3 POP POP POP DUP1 SWAP2 POP POP SWAP3 SWAP2 POP POP JUMP JUMPDEST PUSH1 0x0 PUSH1 0xC0 DUP4 ADD PUSH1 0x0 DUP4 ADD MLOAD PUSH2 0x2012 PUSH1 0x0 DUP7 ADD DUP3 PUSH2 0x1CB5 JUMP JUMPDEST POP PUSH1 0x20 DUP4 ADD MLOAD PUSH2 0x2025 PUSH1 0x20 DUP7 ADD DUP3 PUSH2 0x22C5 JUMP JUMPDEST POP PUSH1 0x40 DUP4 ADD MLOAD PUSH2 0x2038 PUSH1 0x40 DUP7 ADD DUP3 PUSH2 0x1E77 JUMP JUMPDEST POP PUSH1 0x60 DUP4 ADD MLOAD PUSH2 0x204B PUSH1 0x60 DUP7 ADD DUP3 PUSH2 0x22E3 JUMP JUMPDEST POP PUSH1 0x80 DUP4 ADD MLOAD PUSH2 0x205E PUSH1 0x80 DUP7 ADD DUP3 PUSH2 0x22E3 JUMP JUMPDEST POP PUSH1 0xA0 DUP4 ADD MLOAD DUP5 DUP3 SUB PUSH1 0xA0 DUP7 ADD MSTORE PUSH2 0x2076 DUP3 DUP3 PUSH2 0x1E19 JUMP JUMPDEST SWAP2 POP POP DUP1 SWAP2 POP POP SWAP3 SWAP2 POP POP JUMP JUMPDEST PUSH1 0x40 DUP3 ADD PUSH2 0x2094 PUSH1 0x0 DUP4 ADD DUP4 PUSH2 0x273E JUMP JUMPDEST PUSH2 0x20A1 PUSH1 0x0 DUP6 ADD DUP3 PUSH2 0x1CB5 JUMP JUMPDEST POP PUSH2 0x20AF PUSH1 0x20 DUP4 ADD DUP4 PUSH2 0x2893 JUMP JUMPDEST PUSH2 0x20BC PUSH1 0x20 DUP6 ADD DUP3 PUSH2 0x22E3 JUMP JUMPDEST POP POP POP POP JUMP JUMPDEST PUSH1 0x40 DUP3 ADD PUSH1 0x0 DUP3 ADD MLOAD PUSH2 0x20D8 PUSH1 0x0 DUP6 ADD DUP3 PUSH2 0x1CB5 JUMP JUMPDEST POP PUSH1 0x20 DUP3 ADD MLOAD PUSH2 0x20EB PUSH1 0x20 DUP6 ADD DUP3 PUSH2 0x22E3 JUMP JUMPDEST POP POP POP POP JUMP JUMPDEST PUSH1 0x0 PUSH2 0x120 DUP4 ADD PUSH2 0x2105 PUSH1 0x0 DUP5 ADD DUP5 PUSH2 0x2893 JUMP JUMPDEST PUSH2 0x2112 PUSH1 0x0 DUP7 ADD DUP3 PUSH2 0x22E3 JUMP JUMPDEST POP PUSH2 0x2120 PUSH1 0x20 DUP5 ADD DUP5 PUSH2 0x287C JUMP JUMPDEST PUSH2 0x212D PUSH1 0x20 DUP7 ADD DUP3 PUSH2 0x22C5 JUMP JUMPDEST POP PUSH2 0x213B PUSH1 0x40 DUP5 ADD DUP5 PUSH2 0x287C JUMP JUMPDEST PUSH2 0x2148 PUSH1 0x40 DUP7 ADD DUP3 PUSH2 0x22C5 JUMP JUMPDEST POP PUSH2 0x2156 PUSH1 0x60 DUP5 ADD DUP5 PUSH2 0x287C JUMP JUMPDEST PUSH2 0x2163 PUSH1 0x60 DUP7 ADD DUP3 PUSH2 0x22C5 JUMP JUMPDEST POP PUSH2 0x2171 PUSH1 0x80 DUP5 ADD DUP5 PUSH2 0x2832 JUMP JUMPDEST PUSH2 0x217E PUSH1 0x80 DUP7 ADD DUP3 PUSH2 0x1E95 JUMP JUMPDEST POP PUSH2 0x218C PUSH1 0xA0 DUP5 ADD DUP5 PUSH2 0x287C JUMP JUMPDEST PUSH2 0x2199 PUSH1 0xA0 DUP7 ADD DUP3 PUSH2 0x22C5 JUMP JUMPDEST POP PUSH2 0x21A7 PUSH1 0xC0 DUP5 ADD DUP5 PUSH2 0x287C JUMP JUMPDEST PUSH2 0x21B4 PUSH1 0xC0 DUP7 ADD DUP3 PUSH2 0x22C5 JUMP JUMPDEST POP PUSH2 0x21C2 PUSH1 0xE0 DUP5 ADD DUP5 PUSH2 0x2755 JUMP JUMPDEST DUP6 DUP4 SUB PUSH1 0xE0 DUP8 ADD MSTORE PUSH2 0x21D5 DUP4 DUP3 DUP5 PUSH2 0x1CD3 JUMP JUMPDEST SWAP3 POP POP POP PUSH2 0x21E7 PUSH2 0x100 DUP5 ADD DUP5 PUSH2 0x281B JUMP JUMPDEST PUSH2 0x21F5 PUSH2 0x100 DUP7 ADD DUP3 PUSH2 0x1E77 JUMP JUMPDEST POP DUP1 SWAP2 POP POP SWAP3 SWAP2 POP POP JUMP JUMPDEST PUSH1 0x0 PUSH2 0x120 DUP4 ADD PUSH1 0x0 DUP4 ADD MLOAD PUSH2 0x2219 PUSH1 0x0 DUP7 ADD DUP3 PUSH2 0x22E3 JUMP JUMPDEST POP PUSH1 0x20 DUP4 ADD MLOAD PUSH2 0x222C PUSH1 0x20 DUP7 ADD DUP3 PUSH2 0x22C5 JUMP JUMPDEST POP PUSH1 0x40 DUP4 ADD MLOAD PUSH2 0x223F PUSH1 0x40 DUP7 ADD DUP3 PUSH2 0x22C5 JUMP JUMPDEST POP PUSH1 0x60 DUP4 ADD MLOAD PUSH2 0x2252 PUSH1 0x60 DUP7 ADD DUP3 PUSH2 0x22C5 JUMP JUMPDEST POP PUSH1 0x80 DUP4 ADD MLOAD PUSH2 0x2265 PUSH1 0x80 DUP7 ADD DUP3 PUSH2 0x1E95 JUMP JUMPDEST POP PUSH1 0xA0 DUP4 ADD MLOAD PUSH2 0x2278 PUSH1 0xA0 DUP7 ADD DUP3 PUSH2 0x22C5 JUMP JUMPDEST POP PUSH1 0xC0 DUP4 ADD MLOAD PUSH2 0x228B PUSH1 0xC0 DUP7 ADD DUP3 PUSH2 0x22C5 JUMP JUMPDEST POP PUSH1 0xE0 DUP4 ADD MLOAD DUP5 DUP3 SUB PUSH1 0xE0 DUP7 ADD MSTORE PUSH2 0x22A3 DUP3 DUP3 PUSH2 0x1D47 JUMP JUMPDEST SWAP2 POP POP PUSH2 0x100 DUP4 ADD MLOAD PUSH2 0x22BA PUSH2 0x100 DUP7 ADD DUP3 PUSH2 0x1E77 JUMP JUMPDEST POP DUP1 SWAP2 POP POP SWAP3 SWAP2 POP POP JUMP JUMPDEST PUSH2 0x22CE DUP2 PUSH2 0x2A47 JUMP JUMPDEST DUP3 MSTORE POP POP JUMP JUMPDEST PUSH2 0x22DD DUP2 PUSH2 0x2A47 JUMP JUMPDEST DUP3 MSTORE POP POP JUMP JUMPDEST PUSH2 0x22EC DUP2 PUSH2 0x2A83 JUMP JUMPDEST DUP3 MSTORE POP POP JUMP JUMPDEST PUSH1 0x0 PUSH1 0x20 DUP3 ADD SWAP1 POP PUSH2 0x2307 PUSH1 0x0 DUP4 ADD DUP5 PUSH2 0x1CC4 JUMP JUMPDEST SWAP3 SWAP2 POP POP JUMP JUMPDEST PUSH1 0x0 PUSH1 0x20 DUP3 ADD SWAP1 POP PUSH2 0x2322 PUSH1 0x0 DUP4 ADD DUP5 PUSH2 0x1CA6 JUMP JUMPDEST SWAP3 SWAP2 POP POP JUMP JUMPDEST PUSH1 0x0 PUSH1 0x20 DUP3 ADD SWAP1 POP PUSH2 0x233D PUSH1 0x0 DUP4 ADD DUP5 PUSH2 0x1EA4 JUMP JUMPDEST SWAP3 SWAP2 POP POP JUMP JUMPDEST PUSH1 0x0 PUSH1 0x20 DUP3 ADD SWAP1 POP DUP2 DUP2 SUB PUSH1 0x0 DUP4 ADD MSTORE PUSH2 0x235C DUP2 PUSH2 0x1EB3 JUMP JUMPDEST SWAP1 POP SWAP2 SWAP1 POP JUMP JUMPDEST PUSH1 0x0 PUSH1 0x20 DUP3 ADD SWAP1 POP DUP2 DUP2 SUB PUSH1 0x0 DUP4 ADD MSTORE PUSH2 0x237C DUP2 PUSH2 0x1ED6 JUMP JUMPDEST SWAP1 POP SWAP2 SWAP1 POP JUMP JUMPDEST PUSH1 0x0 PUSH1 0x20 DUP3 ADD SWAP1 POP DUP2 DUP2 SUB PUSH1 0x0 DUP4 ADD MSTORE PUSH2 0x239C DUP2 PUSH2 0x1EF9 JUMP JUMPDEST SWAP1 POP SWAP2 SWAP1 POP JUMP JUMPDEST PUSH1 0x0 PUSH1 0x20 DUP3 ADD SWAP1 POP DUP2 DUP2 SUB PUSH1 0x0 DUP4 ADD MSTORE PUSH2 0x23BC DUP2 PUSH2 0x1F1C JUMP JUMPDEST SWAP1 POP SWAP2 SWAP1 POP JUMP JUMPDEST PUSH1 0x0 PUSH1 0x20 DUP3 ADD SWAP1 POP DUP2 DUP2 SUB PUSH1 0x0 DUP4 ADD MSTORE PUSH2 0x23DD DUP2 DUP5 PUSH2 0x20F1 JUMP JUMPDEST SWAP1 POP SWAP3 SWAP2 POP POP JUMP JUMPDEST PUSH1 0x0 PUSH1 0x20 DUP3 ADD SWAP1 POP PUSH2 0x23FA PUSH1 0x0 DUP4 ADD DUP5 PUSH2 0x22D4 JUMP JUMPDEST SWAP3 SWAP2 POP POP JUMP JUMPDEST PUSH1 0x0 PUSH1 0x40 DUP3 ADD SWAP1 POP PUSH2 0x2415 PUSH1 0x0 DUP4 ADD DUP6 PUSH2 0x22D4 JUMP JUMPDEST PUSH2 0x2422 PUSH1 0x20 DUP4 ADD DUP5 PUSH2 0x1E86 JUMP JUMPDEST SWAP4 SWAP3 POP POP POP JUMP JUMPDEST PUSH1 0x0 PUSH1 0x60 DUP3 ADD SWAP1 POP PUSH2 0x243E PUSH1 0x0 DUP4 ADD DUP7 PUSH2 0x22D4 JUMP JUMPDEST DUP2 DUP2 SUB PUSH1 0x20 DUP4 ADD MSTORE PUSH2 0x2450 DUP2 DUP6 PUSH2 0x2200 JUMP JUMPDEST SWAP1 POP PUSH2 0x245F PUSH1 0x40 DUP4 ADD DUP5 PUSH2 0x1CC4 JUMP JUMPDEST SWAP5 SWAP4 POP POP POP POP JUMP JUMPDEST PUSH1 0x0 PUSH1 0x60 DUP3 ADD SWAP1 POP PUSH2 0x247C PUSH1 0x0 DUP4 ADD DUP7 PUSH2 0x22D4 JUMP JUMPDEST PUSH2 0x2489 PUSH1 0x20 DUP4 ADD DUP6 PUSH2 0x22D4 JUMP JUMPDEST PUSH2 0x2496 PUSH1 0x40 DUP4 ADD DUP5 PUSH2 0x1CC4 JUMP JUMPDEST SWAP5 SWAP4 POP POP POP POP JUMP JUMPDEST PUSH1 0x0 DUP1 DUP4 CALLDATALOAD PUSH1 0x1 PUSH1 0x20 SUB DUP5 CALLDATASIZE SUB SUB DUP2 SLT PUSH2 0x24BB JUMPI PUSH2 0x24BA PUSH2 0x3173 JUMP JUMPDEST JUMPDEST DUP1 DUP5 ADD SWAP3 POP DUP3 CALLDATALOAD SWAP2 POP PUSH8 0xFFFFFFFFFFFFFFFF DUP3 GT ISZERO PUSH2 0x24DD JUMPI PUSH2 0x24DC PUSH2 0x3164 JUMP JUMPDEST JUMPDEST PUSH1 0x20 DUP4 ADD SWAP3 POP PUSH1 0x20 DUP3 MUL CALLDATASIZE SUB DUP4 SGT ISZERO PUSH2 0x24F9 JUMPI PUSH2 0x24F8 PUSH2 0x3187 JUMP JUMPDEST JUMPDEST POP SWAP3 POP SWAP3 SWAP1 POP JUMP JUMPDEST PUSH1 0x0 DUP1 DUP4 CALLDATALOAD PUSH1 0x1 PUSH1 0x20 SUB DUP5 CALLDATASIZE SUB SUB DUP2 SLT PUSH2 0x251E JUMPI PUSH2 0x251D PUSH2 0x3173 JUMP JUMPDEST JUMPDEST DUP1 DUP5 ADD SWAP3 POP DUP3 CALLDATALOAD SWAP2 POP PUSH8 0xFFFFFFFFFFFFFFFF DUP3 GT ISZERO PUSH2 0x2540 JUMPI PUSH2 0x253F PUSH2 0x3164 JUMP JUMPDEST JUMPDEST PUSH1 0x20 DUP4 ADD SWAP3 POP PUSH1 0x40 DUP3 MUL CALLDATASIZE SUB DUP4 SGT ISZERO PUSH2 0x255C JUMPI PUSH2 0x255B PUSH2 0x3187 JUMP JUMPDEST JUMPDEST POP SWAP3 POP SWAP3 SWAP1 POP JUMP JUMPDEST PUSH1 0x0 DUP3 CALLDATALOAD PUSH1 0x1 PUSH1 0xC0 SUB DUP4 CALLDATASIZE SUB SUB DUP2 SLT PUSH2 0x2580 JUMPI PUSH2 0x257F PUSH2 0x3173 JUMP JUMPDEST JUMPDEST DUP1 DUP4 ADD SWAP2 POP POP SWAP3 SWAP2 POP POP JUMP JUMPDEST PUSH1 0x0 PUSH2 0x2596 PUSH2 0x25A7 JUMP JUMPDEST SWAP1 POP PUSH2 0x25A2 DUP3 DUP3 PUSH2 0x2ED7 JUMP JUMPDEST SWAP2 SWAP1 POP JUMP JUMPDEST PUSH1 0x0 PUSH1 0x40 MLOAD SWAP1 POP SWAP1 JUMP JUMPDEST PUSH1 0x0 PUSH8 0xFFFFFFFFFFFFFFFF DUP3 GT ISZERO PUSH2 0x25CC JUMPI PUSH2 0x25CB PUSH2 0x3017 JUMP JUMPDEST JUMPDEST PUSH1 0x20 DUP3 MUL SWAP1 POP PUSH1 0x20 DUP2 ADD SWAP1 POP SWAP2 SWAP1 POP JUMP JUMPDEST PUSH1 0x0 PUSH8 0xFFFFFFFFFFFFFFFF DUP3 GT ISZERO PUSH2 0x25F8 JUMPI PUSH2 0x25F7 PUSH2 0x3017 JUMP JUMPDEST JUMPDEST PUSH1 0x20 DUP3 MUL SWAP1 POP PUSH1 0x20 DUP2 ADD SWAP1 POP SWAP2 SWAP1 POP JUMP JUMPDEST PUSH1 0x0 DUP2 SWAP1 POP PUSH2 0x2619 DUP3 PUSH1 0x5 PUSH2 0x2937 JUMP JUMPDEST SWAP1 POP SWAP2 SWAP1 POP JUMP JUMPDEST PUSH1 0x0 DUP2 SWAP1 POP PUSH2 0x2630 DUP3 PUSH1 0x2 PUSH2 0x2937 JUMP JUMPDEST SWAP1 POP SWAP2 SWAP1 POP JUMP JUMPDEST PUSH1 0x0 DUP2 SWAP1 POP SWAP2 SWAP1 POP JUMP JUMPDEST PUSH1 0x0 DUP2 SWAP1 POP PUSH1 0x20 DUP3 ADD SWAP1 POP SWAP2 SWAP1 POP JUMP JUMPDEST PUSH1 0x0 DUP2 SWAP1 POP DUP2 PUSH1 0x0 MSTORE PUSH1 0x20 PUSH1 0x0 KECCAK256 SWAP1 POP SWAP2 SWAP1 POP JUMP JUMPDEST PUSH1 0x0 DUP2 SWAP1 POP SWAP2 SWAP1 POP JUMP JUMPDEST PUSH1 0x0 DUP2 SWAP1 POP PUSH1 0x20 DUP3 ADD SWAP1 POP SWAP2 SWAP1 POP JUMP JUMPDEST PUSH1 0x0 DUP2 SWAP1 POP DUP2 PUSH1 0x0 MSTORE PUSH1 0x20 PUSH1 0x0 KECCAK256 SWAP1 POP SWAP2 SWAP1 POP JUMP JUMPDEST PUSH1 0x0 DUP3 SWAP1 POP SWAP3 SWAP2 POP POP JUMP JUMPDEST PUSH1 0x0 DUP2 MLOAD SWAP1 POP SWAP2 SWAP1 POP JUMP JUMPDEST PUSH1 0x0 DUP2 SLOAD SWAP1 POP SWAP2 SWAP1 POP JUMP JUMPDEST PUSH1 0x0 DUP3 SWAP1 POP SWAP3 SWAP2 POP POP JUMP JUMPDEST PUSH1 0x0 DUP2 MLOAD SWAP1 POP SWAP2 SWAP1 POP JUMP JUMPDEST PUSH1 0x0 DUP2 SLOAD SWAP1 POP SWAP2 SWAP1 POP JUMP JUMPDEST PUSH1 0x0 PUSH1 0x20 DUP3 ADD SWAP1 POP SWAP2 SWAP1 POP JUMP JUMPDEST PUSH1 0x0 PUSH1 0x20 DUP3 ADD SWAP1 POP SWAP2 SWAP1 POP JUMP JUMPDEST PUSH1 0x0 PUSH1 0x40 DUP3 ADD SWAP1 POP SWAP2 SWAP1 POP JUMP JUMPDEST PUSH1 0x0 PUSH1 0x20 DUP3 ADD SWAP1 POP SWAP2 SWAP1 POP JUMP JUMPDEST PUSH1 0x0 DUP3 DUP3 MSTORE PUSH1 0x20 DUP3 ADD SWAP1 POP SWAP3 SWAP2 POP POP JUMP JUMPDEST PUSH1 0x0 DUP3 DUP3 MSTORE PUSH1 0x20 DUP3 ADD SWAP1 POP SWAP3 SWAP2 POP POP JUMP JUMPDEST PUSH1 0x0 DUP3 DUP3 MSTORE PUSH1 0x20 DUP3 ADD SWAP1 POP SWAP3 SWAP2 POP POP JUMP JUMPDEST PUSH1 0x0 PUSH2 0x274D PUSH1 0x20 DUP5 ADD DUP5 PUSH2 0x1737 JUMP JUMPDEST SWAP1 POP SWAP3 SWAP2 POP POP JUMP JUMPDEST PUSH1 0x0 DUP1 DUP4 CALLDATALOAD PUSH1 0x1 PUSH1 0x20 SUB DUP5 CALLDATASIZE SUB SUB DUP2 SLT PUSH2 0x2772 JUMPI PUSH2 0x2771 PUSH2 0x3191 JUMP JUMPDEST JUMPDEST DUP4 DUP2 ADD SWAP3 POP DUP3 CALLDATALOAD SWAP2 POP PUSH1 0x20 DUP4 ADD SWAP3 POP PUSH8 0xFFFFFFFFFFFFFFFF DUP3 GT ISZERO PUSH2 0x279A JUMPI PUSH2 0x2799 PUSH2 0x315A JUMP JUMPDEST JUMPDEST PUSH1 0x20 DUP3 MUL CALLDATASIZE SUB DUP5 SGT ISZERO PUSH2 0x27B0 JUMPI PUSH2 0x27AF PUSH2 0x3178 JUMP JUMPDEST JUMPDEST POP SWAP3 POP SWAP3 SWAP1 POP JUMP JUMPDEST PUSH1 0x0 DUP1 DUP4 CALLDATALOAD PUSH1 0x1 PUSH1 0x20 SUB DUP5 CALLDATASIZE SUB SUB DUP2 SLT PUSH2 0x27D5 JUMPI PUSH2 0x27D4 PUSH2 0x3191 JUMP JUMPDEST JUMPDEST DUP4 DUP2 ADD SWAP3 POP DUP3 CALLDATALOAD SWAP2 POP PUSH1 0x20 DUP4 ADD SWAP3 POP PUSH8 0xFFFFFFFFFFFFFFFF DUP3 GT ISZERO PUSH2 0x27FD JUMPI PUSH2 0x27FC PUSH2 0x315A JUMP JUMPDEST JUMPDEST PUSH1 0x40 DUP3 MUL CALLDATASIZE SUB DUP5 SGT ISZERO PUSH2 0x2813 JUMPI PUSH2 0x2812 PUSH2 0x3178 JUMP JUMPDEST JUMPDEST POP SWAP3 POP SWAP3 SWAP1 POP JUMP JUMPDEST PUSH1 0x0 PUSH2 0x282A PUSH1 0x20 DUP5 ADD DUP5 PUSH2 0x17BD JUMP JUMPDEST SWAP1 POP SWAP3 SWAP2 POP POP JUMP JUMPDEST PUSH1 0x0 PUSH2 0x2841 PUSH1 0x20 DUP5 ADD DUP5 PUSH2 0x17D2 JUMP JUMPDEST SWAP1 POP SWAP3 SWAP2 POP POP JUMP JUMPDEST PUSH1 0x0 DUP3 CALLDATALOAD PUSH1 0x1 PUSH1 0xC0 SUB DUP4 CALLDATASIZE SUB SUB DUP2 SLT PUSH2 0x2865 JUMPI PUSH2 0x2864 PUSH2 0x3191 JUMP JUMPDEST JUMPDEST DUP3 DUP2 ADD SWAP2 POP POP SWAP3 SWAP2 POP POP JUMP JUMPDEST PUSH1 0x0 DUP3 SWAP1 POP SWAP3 SWAP2 POP POP JUMP JUMPDEST PUSH1 0x0 PUSH2 0x288B PUSH1 0x20 DUP5 ADD DUP5 PUSH2 0x1A0F JUMP JUMPDEST SWAP1 POP SWAP3 SWAP2 POP POP JUMP JUMPDEST PUSH1 0x0 PUSH2 0x28A2 PUSH1 0x20 DUP5 ADD DUP5 PUSH2 0x1A24 JUMP JUMPDEST SWAP1 POP SWAP3 SWAP2 POP POP JUMP JUMPDEST PUSH1 0x0 PUSH2 0x28B5 DUP3 PUSH2 0x2A83 JUMP JUMPDEST SWAP2 POP PUSH2 0x28C0 DUP4 PUSH2 0x2A83 JUMP JUMPDEST SWAP3 POP DUP3 PUSH32 0xFFFFFFFFFFFFFFFFFFFFFFFFFFFFFFFFFFFFFFFFFFFFFFFFFFFFFFFFFFFFFFFF SUB DUP3 GT ISZERO PUSH2 0x28F5 JUMPI PUSH2 0x28F4 PUSH2 0x2FB9 JUMP JUMPDEST JUMPDEST DUP3 DUP3 ADD SWAP1 POP SWAP3 SWAP2 POP POP JUMP JUMPDEST PUSH1 0x0 PUSH2 0x290B DUP3 PUSH2 0x2A8D JUMP JUMPDEST SWAP2 POP PUSH2 0x2916 DUP4 PUSH2 0x2A8D JUMP JUMPDEST SWAP3 POP DUP3 PUSH1 0xFF SUB DUP3 GT ISZERO PUSH2 0x292C JUMPI PUSH2 0x292B PUSH2 0x2FB9 JUMP JUMPDEST JUMPDEST DUP3 DUP3 ADD SWAP1 POP SWAP3 SWAP2 POP POP JUMP JUMPDEST PUSH1 0x0 PUSH2 0x2942 DUP3 PUSH2 0x2A83 JUMP JUMPDEST SWAP2 POP PUSH2 0x294D DUP4 PUSH2 0x2A83 JUMP JUMPDEST SWAP3 POP DUP2 PUSH32 0xFFFFFFFFFFFFFFFFFFFFFFFFFFFFFFFFFFFFFFFFFFFFFFFFFFFFFFFFFFFFFFFF DIV DUP4 GT DUP3 ISZERO ISZERO AND ISZERO PUSH2 0x2986 JUMPI PUSH2 0x2985 PUSH2 0x2FB9 JUMP JUMPDEST JUMPDEST DUP3 DUP3 MUL SWAP1 POP SWAP3 SWAP2 POP POP JUMP JUMPDEST DUP2 DUP4 LT ISZERO PUSH2 0x29CA JUMPI PUSH2 0x29A2 DUP3 PUSH2 0x2609 JUMP JUMPDEST PUSH2 0x29AB DUP5 PUSH2 0x2609 JUMP JUMPDEST PUSH2 0x29B4 DUP4 PUSH2 0x2651 JUMP JUMPDEST DUP2 DUP2 ADD DUP4 DUP3 ADD PUSH2 0x29C4 DUP2 DUP4 PUSH2 0x2AA8 JUMP JUMPDEST POP POP POP POP POP JUMPDEST POP POP POP JUMP JUMPDEST DUP2 DUP4 LT ISZERO PUSH2 0x2A08 JUMPI PUSH2 0x29E0 DUP3 PUSH2 0x2620 JUMP JUMPDEST PUSH2 0x29E9 DUP5 PUSH2 0x2620 JUMP JUMPDEST PUSH2 0x29F2 DUP4 PUSH2 0x2680 JUMP JUMPDEST DUP2 DUP2 ADD DUP4 DUP3 ADD PUSH2 0x2A02 DUP2 DUP4 PUSH2 0x2ACB JUMP JUMPDEST POP POP POP POP POP JUMPDEST POP POP POP JUMP JUMPDEST PUSH1 0x0 PUSH2 0x2A18 DUP3 PUSH2 0x2A63 JUMP JUMPDEST SWAP1 POP SWAP2 SWAP1 POP JUMP JUMPDEST PUSH1 0x0 PUSH2 0x2A2A DUP3 PUSH2 0x2A63 JUMP JUMPDEST SWAP1 POP SWAP2 SWAP1 POP JUMP JUMPDEST PUSH1 0x0 DUP2 ISZERO ISZERO SWAP1 POP SWAP2 SWAP1 POP JUMP JUMPDEST PUSH1 0x0 DUP2 SWAP1 POP SWAP2 SWAP1 POP JUMP JUMPDEST PUSH1 0x0 PUSH16 0xFFFFFFFFFFFFFFFFFFFFFFFFFFFFFFFF DUP3 AND SWAP1 POP SWAP2 SWAP1 POP JUMP JUMPDEST PUSH1 0x0 PUSH20 0xFFFFFFFFFFFFFFFFFFFFFFFFFFFFFFFFFFFFFFFF DUP3 AND SWAP1 POP SWAP2 SWAP1 POP JUMP JUMPDEST PUSH1 0x0 DUP2 SWAP1 POP SWAP2 SWAP1 POP JUMP JUMPDEST PUSH1 0x0 PUSH1 0xFF DUP3 AND SWAP1 POP SWAP2 SWAP1 POP JUMP JUMPDEST PUSH2 0x2AA5 PUSH1 0x0 DUP3 PUSH2 0x3124 JUMP JUMPDEST POP JUMP JUMPDEST JUMPDEST DUP2 DUP2 LT ISZERO PUSH2 0x2AC7 JUMPI PUSH2 0x2ABC PUSH1 0x0 DUP3 PUSH2 0x31FE JUMP JUMPDEST PUSH1 0x5 DUP2 ADD SWAP1 POP PUSH2 0x2AA9 JUMP JUMPDEST POP POP JUMP JUMPDEST JUMPDEST DUP2 DUP2 LT ISZERO PUSH2 0x2AEA JUMPI PUSH2 0x2ADF PUSH1 0x0 DUP3 PUSH2 0x321C JUMP JUMPDEST PUSH1 0x2 DUP2 ADD SWAP1 POP PUSH2 0x2ACC JUMP JUMPDEST POP POP JUMP JUMPDEST PUSH1 0x0 DUP1 DUP3 ADD SSTORE PUSH1 0x0 PUSH1 0x1 DUP3 ADD SSTORE PUSH2 0x2B09 PUSH1 0x0 PUSH1 0x2 DUP4 ADD PUSH2 0x323A JUMP JUMPDEST PUSH2 0x2B17 PUSH1 0x0 PUSH1 0x3 DUP4 ADD PUSH2 0x323A JUMP JUMPDEST PUSH2 0x2B25 PUSH1 0x0 PUSH1 0x4 DUP4 ADD PUSH2 0x31E0 JUMP JUMPDEST POP JUMP JUMPDEST PUSH1 0x0 DUP1 DUP3 ADD SSTORE PUSH2 0x2B3C PUSH1 0x0 PUSH1 0x1 DUP4 ADD PUSH2 0x323A JUMP JUMPDEST POP JUMP JUMPDEST PUSH1 0x0 PUSH2 0x2B4A DUP3 PUSH2 0x2B9A JUMP JUMPDEST SWAP1 POP SWAP2 SWAP1 POP JUMP JUMPDEST PUSH1 0x0 PUSH2 0x2B5C DUP3 PUSH2 0x2A31 JUMP JUMPDEST SWAP1 POP SWAP2 SWAP1 POP JUMP JUMPDEST PUSH1 0x0 PUSH2 0x2B6E DUP3 PUSH2 0x2A3D JUMP JUMPDEST SWAP1 POP SWAP2 SWAP1 POP JUMP JUMPDEST PUSH1 0x0 PUSH2 0x2B81 CALLDATASIZE DUP4 PUSH2 0x1913 JUMP JUMPDEST SWAP1 POP SWAP2 SWAP1 POP JUMP JUMPDEST PUSH1 0x0 PUSH2 0x2B93 DUP3 PUSH2 0x2A47 JUMP JUMPDEST SWAP1 POP SWAP2 SWAP1 POP JUMP JUMPDEST PUSH1 0x0 PUSH2 0x2BA5 DUP3 PUSH2 0x2BAC JUMP JUMPDEST SWAP1 POP SWAP2 SWAP1 POP JUMP JUMPDEST PUSH1 0x0 PUSH2 0x2BB7 DUP3 PUSH2 0x2A63 JUMP JUMPDEST SWAP1 POP SWAP2 SWAP1 POP JUMP JUMPDEST PUSH1 0x0 PUSH2 0x2BC9 DUP3 PUSH2 0x2A83 JUMP JUMPDEST SWAP1 POP SWAP2 SWAP1 POP JUMP JUMPDEST PUSH2 0x2BDA DUP4 DUP4 PUSH2 0x2695 JUMP JUMPDEST PUSH2 0x2BE4 DUP2 DUP4 PUSH2 0x30EE JUMP JUMPDEST PUSH2 0x2BED DUP4 PUSH2 0x2637 JUMP JUMPDEST PUSH2 0x2BF6 DUP4 PUSH2 0x2651 JUMP JUMPDEST PUSH1 0x0 DUP1 JUMPDEST DUP5 DUP2 LT ISZERO PUSH2 0x2C2F JUMPI PUSH2 0x2C0C DUP5 DUP9 PUSH2 0x2564 JUMP JUMPDEST PUSH2 0x2C17 DUP2 DUP5 DUP7 PUSH2 0x35AD JUMP JUMPDEST PUSH1 0x20 DUP6 ADD SWAP5 POP PUSH1 0x5 DUP5 ADD SWAP4 POP POP PUSH1 0x1 DUP2 ADD SWAP1 POP PUSH2 0x2BFA JUMP JUMPDEST POP POP POP POP POP POP POP POP JUMP JUMPDEST PUSH2 0x2C43 DUP4 DUP4 PUSH2 0x26B6 JUMP JUMPDEST PUSH2 0x2C4D DUP2 DUP4 PUSH2 0x3124 JUMP JUMPDEST PUSH2 0x2C56 DUP4 PUSH2 0x2666 JUMP JUMPDEST PUSH2 0x2C5F DUP4 PUSH2 0x2680 JUMP JUMPDEST PUSH1 0x0 DUP1 JUMPDEST DUP5 DUP2 LT ISZERO PUSH2 0x2C8F JUMPI DUP4 PUSH2 0x2C77 DUP2 DUP5 DUP7 PUSH2 0x35CB JUMP JUMPDEST PUSH1 0x40 DUP6 ADD SWAP5 POP PUSH1 0x2 DUP5 ADD SWAP4 POP POP PUSH1 0x1 DUP2 ADD SWAP1 POP PUSH2 0x2C63 JUMP JUMPDEST POP POP POP POP POP POP POP POP JUMP JUMPDEST PUSH1 0x0 DUP2 ADD PUSH1 0x0 DUP4 ADD DUP1 PUSH2 0x2CAB DUP2 PUSH2 0x3080 JUMP JUMPDEST SWAP1 POP PUSH2 0x2CB7 DUP2 DUP5 PUSH2 0x348A JUMP JUMPDEST POP POP POP PUSH1 0x1 DUP2 ADD PUSH1 0x20 DUP4 ADD DUP1 PUSH2 0x2CCC DUP2 PUSH2 0x30C2 JUMP JUMPDEST SWAP1 POP PUSH2 0x2CD8 DUP2 DUP5 PUSH2 0x3521 JUMP JUMPDEST POP POP POP PUSH1 0x1 DUP2 ADD PUSH1 0x40 DUP4 ADD DUP1 PUSH2 0x2CED DUP2 PUSH2 0x3096 JUMP JUMPDEST SWAP1 POP PUSH2 0x2CF9 DUP2 DUP5 PUSH2 0x3567 JUMP JUMPDEST POP POP POP PUSH1 0x2 DUP2 ADD PUSH1 0x60 DUP4 ADD DUP1 PUSH2 0x2D0E DUP2 PUSH2 0x30D8 JUMP JUMPDEST SWAP1 POP PUSH2 0x2D1A DUP2 DUP5 PUSH2 0x3544 JUMP JUMPDEST POP POP POP PUSH1 0x3 DUP2 ADD PUSH1 0x80 DUP4 ADD DUP1 PUSH2 0x2D2F DUP2 PUSH2 0x30D8 JUMP JUMPDEST SWAP1 POP PUSH2 0x2D3B DUP2 DUP5 PUSH2 0x3544 JUMP JUMPDEST POP POP POP PUSH1 0x4 DUP2 ADD PUSH1 0xA0 DUP4 ADD PUSH2 0x2D50 DUP2 DUP6 PUSH2 0x2501 JUMP JUMPDEST PUSH2 0x2D5B DUP2 DUP4 DUP7 PUSH2 0x34BD JUMP JUMPDEST POP POP POP POP POP POP JUMP JUMPDEST PUSH1 0x0 DUP2 ADD PUSH1 0x0 DUP4 ADD DUP1 PUSH2 0x2D75 DUP2 PUSH2 0x3080 JUMP JUMPDEST SWAP1 POP PUSH2 0x2D81 DUP2 DUP5 PUSH2 0x348A JUMP JUMPDEST POP POP POP PUSH1 0x1 DUP2 ADD PUSH1 0x20 DUP4 ADD DUP1 PUSH2 0x2D96 DUP2 PUSH2 0x30D8 JUMP JUMPDEST SWAP1 POP PUSH2 0x2DA2 DUP2 DUP5 PUSH2 0x3544 JUMP JUMPDEST POP POP POP POP POP JUMP JUMPDEST PUSH1 0x0 DUP2 ADD PUSH1 0x0 DUP4 ADD DUP1 PUSH2 0x2DBB DUP2 PUSH2 0x30D8 JUMP JUMPDEST SWAP1 POP PUSH2 0x2DC7 DUP2 DUP5 PUSH2 0x3544 JUMP JUMPDEST POP POP POP PUSH1 0x1 DUP2 ADD PUSH1 0x20 DUP4 ADD DUP1 PUSH2 0x2DDC DUP2 PUSH2 0x30C2 JUMP JUMPDEST SWAP1 POP PUSH2 0x2DE8 DUP2 DUP5 PUSH2 0x3521 JUMP JUMPDEST POP POP POP PUSH1 0x1 DUP2 ADD PUSH1 0x40 DUP4 ADD DUP1 PUSH2 0x2DFD DUP2 PUSH2 0x30C2 JUMP JUMPDEST SWAP1 POP PUSH2 0x2E09 DUP2 DUP5 PUSH2 0x358A JUMP JUMPDEST POP POP POP PUSH1 0x2 DUP2 ADD PUSH1 0x60 DUP4 ADD DUP1 PUSH2 0x2E1E DUP2 PUSH2 0x30C2 JUMP JUMPDEST SWAP1 POP PUSH2 0x2E2A DUP2 DUP5 PUSH2 0x3521 JUMP JUMPDEST POP POP POP PUSH1 0x3 DUP2 ADD PUSH1 0x80 DUP4 ADD DUP1 PUSH2 0x2E3F DUP2 PUSH2 0x30AC JUMP JUMPDEST SWAP1 POP PUSH2 0x2E4B DUP2 DUP5 PUSH2 0x34F0 JUMP JUMPDEST POP POP POP PUSH1 0x4 DUP2 ADD PUSH1 0xA0 DUP4 ADD DUP1 PUSH2 0x2E60 DUP2 PUSH2 0x30C2 JUMP JUMPDEST SWAP1 POP PUSH2 0x2E6C DUP2 DUP5 PUSH2 0x3521 JUMP JUMPDEST POP POP POP PUSH1 0x4 DUP2 ADD PUSH1 0xC0 DUP4 ADD DUP1 PUSH2 0x2E81 DUP2 PUSH2 0x30C2 JUMP JUMPDEST SWAP1 POP PUSH2 0x2E8D DUP2 DUP5 PUSH2 0x358A JUMP JUMPDEST POP POP POP PUSH1 0x5 DUP2 ADD PUSH1 0xE0 DUP4 ADD PUSH2 0x2EA2 DUP2 DUP6 PUSH2 0x249E JUMP JUMPDEST PUSH2 0x2EAD DUP2 DUP4 DUP7 PUSH2 0x34AD JUMP JUMPDEST POP POP POP POP PUSH1 0x6 DUP2 ADD PUSH2 0x100 DUP4 ADD DUP1 PUSH2 0x2EC4 DUP2 PUSH2 0x3096 JUMP JUMPDEST SWAP1 POP PUSH2 0x2ED0 DUP2 DUP5 PUSH2 0x34CD JUMP JUMPDEST POP POP POP POP POP JUMP JUMPDEST PUSH2 0x2EE0 DUP3 PUSH2 0x319B JUMP JUMPDEST DUP2 ADD DUP2 DUP2 LT PUSH8 0xFFFFFFFFFFFFFFFF DUP3 GT OR ISZERO PUSH2 0x2EFF JUMPI PUSH2 0x2EFE PUSH2 0x3017 JUMP JUMPDEST JUMPDEST DUP1 PUSH1 0x40 MSTORE POP POP POP JUMP JUMPDEST PUSH1 0x0 PUSH2 0x2F13 DUP3 PUSH2 0x2A47 JUMP JUMPDEST SWAP2 POP PUSH16 0xFFFFFFFFFFFFFFFFFFFFFFFFFFFFFFFF DUP3 EQ ISZERO PUSH2 0x2F36 JUMPI PUSH2 0x2F35 PUSH2 0x2FB9 JUMP JUMPDEST JUMPDEST PUSH1 0x1 DUP3 ADD SWAP1 POP SWAP2 SWAP1 POP JUMP JUMPDEST PUSH1 0x0 PUSH2 0x2F4C DUP3 PUSH2 0x2A83 JUMP JUMPDEST SWAP2 POP PUSH32 0xFFFFFFFFFFFFFFFFFFFFFFFFFFFFFFFFFFFFFFFFFFFFFFFFFFFFFFFFFFFFFFFF DUP3 EQ ISZERO PUSH2 0x2F7F JUMPI PUSH2 0x2F7E PUSH2 0x2FB9 JUMP JUMPDEST JUMPDEST PUSH1 0x1 DUP3 ADD SWAP1 POP SWAP2 SWAP1 POP JUMP JUMPDEST PUSH32 0x4E487B7100000000000000000000000000000000000000000000000000000000 PUSH1 0x0 MSTORE PUSH1 0x0 PUSH1 0x4 MSTORE PUSH1 0x24 PUSH1 0x0 REVERT JUMPDEST PUSH32 0x4E487B7100000000000000000000000000000000000000000000000000000000 PUSH1 0x0 MSTORE PUSH1 0x11 PUSH1 0x4 MSTORE PUSH1 0x24 PUSH1 0x0 REVERT JUMPDEST PUSH32 0x4E487B7100000000000000000000000000000000000000000000000000000000 PUSH1 0x0 MSTORE PUSH1 0x32 PUSH1 0x4 MSTORE PUSH1 0x24 PUSH1 0x0 REVERT JUMPDEST PUSH32 0x4E487B7100000000000000000000000000000000000000000000000000000000 PUSH1 0x0 MSTORE PUSH1 0x41 PUSH1 0x4 MSTORE PUSH1 0x24 PUSH1 0x0 REVERT JUMPDEST PUSH1 0x0 DUP2 SWAP1 POP SWAP2 SWAP1 POP JUMP JUMPDEST PUSH1 0x0 DUP2 SWAP1 POP SWAP2 SWAP1 POP JUMP JUMPDEST PUSH1 0x0 PUSH2 0x3065 DUP3 PUSH2 0x31D3 JUMP JUMPDEST SWAP1 POP SWAP2 SWAP1 POP JUMP JUMPDEST PUSH1 0x0 DUP2 SWAP1 POP SWAP2 SWAP1 POP JUMP JUMPDEST PUSH1 0x0 DUP2 SWAP1 POP SWAP2 SWAP1 POP JUMP JUMPDEST PUSH1 0x0 DUP2 CALLDATALOAD PUSH2 0x308D DUP2 PUSH2 0x360E JUMP JUMPDEST DUP1 SWAP2 POP POP SWAP2 SWAP1 POP JUMP JUMPDEST PUSH1 0x0 DUP2 CALLDATALOAD PUSH2 0x30A3 DUP2 PUSH2 0x363C JUMP JUMPDEST DUP1 SWAP2 POP POP SWAP2 SWAP1 POP JUMP JUMPDEST PUSH1 0x0 DUP2 CALLDATALOAD PUSH2 0x30B9 DUP2 PUSH2 0x3653 JUMP JUMPDEST DUP1 SWAP2 POP POP SWAP2 SWAP1 POP JUMP JUMPDEST PUSH1 0x0 DUP2 CALLDATALOAD PUSH2 0x30CF DUP2 PUSH2 0x366A JUMP JUMPDEST DUP1 SWAP2 POP POP SWAP2 SWAP1 POP JUMP JUMPDEST PUSH1 0x0 DUP2 CALLDATALOAD PUSH2 0x30E5 DUP2 PUSH2 0x3681 JUMP JUMPDEST DUP1 SWAP2 POP POP SWAP2 SWAP1 POP JUMP JUMPDEST PUSH9 0x10000000000000000 DUP3 GT ISZERO PUSH2 0x3108 JUMPI PUSH2 0x3107 PUSH2 0x3017 JUMP JUMPDEST JUMPDEST PUSH2 0x3111 DUP2 PUSH2 0x26AB JUMP JUMPDEST DUP3 DUP3 SSTORE PUSH2 0x311F DUP4 DUP3 DUP5 PUSH2 0x2991 JUMP JUMPDEST POP POP POP JUMP JUMPDEST PUSH9 0x10000000000000000 DUP3 GT ISZERO PUSH2 0x313E JUMPI PUSH2 0x313D PUSH2 0x3017 JUMP JUMPDEST JUMPDEST PUSH2 0x3147 DUP2 PUSH2 0x26CC JUMP JUMPDEST DUP3 DUP3 SSTORE PUSH2 0x3155 DUP4 DUP3 DUP5 PUSH2 0x29CF JUMP JUMPDEST POP POP POP JUMP JUMPDEST PUSH1 0x0 DUP1 REVERT JUMPDEST PUSH1 0x0 DUP1 REVERT JUMPDEST PUSH1 0x0 DUP1 REVERT JUMPDEST PUSH1 0x0 DUP1 REVERT JUMPDEST PUSH1 0x0 DUP1 REVERT JUMPDEST PUSH1 0x0 DUP1 REVERT JUMPDEST PUSH1 0x0 DUP1 REVERT JUMPDEST PUSH1 0x0 DUP1 REVERT JUMPDEST PUSH1 0x0 DUP1 REVERT JUMPDEST PUSH1 0x0 DUP1 REVERT JUMPDEST PUSH1 0x0 DUP1 REVERT JUMPDEST PUSH1 0x0 DUP1 REVERT JUMPDEST PUSH1 0x0 DUP1 REVERT JUMPDEST PUSH1 0x0 PUSH1 0x1F NOT PUSH1 0x1F DUP4 ADD AND SWAP1 POP SWAP2 SWAP1 POP JUMP JUMPDEST PUSH1 0x0 DUP2 PUSH1 0x0 SHL SWAP1 POP SWAP2 SWAP1 POP JUMP JUMPDEST PUSH1 0x0 DUP2 PUSH1 0x80 SHL SWAP1 POP SWAP2 SWAP1 POP JUMP JUMPDEST PUSH1 0x0 DUP3 DUP3 SHL SWAP1 POP SWAP3 SWAP2 POP POP JUMP JUMPDEST PUSH1 0x0 DUP2 PUSH1 0x0 SHR SWAP1 POP SWAP2 SWAP1 POP JUMP JUMPDEST PUSH1 0x0 DUP3 EQ PUSH2 0x31F1 JUMPI PUSH2 0x31F0 PUSH2 0x2F8A JUMP JUMPDEST JUMPDEST PUSH2 0x31FA DUP2 PUSH2 0x2A9A JUMP JUMPDEST POP POP JUMP JUMPDEST PUSH1 0x0 DUP3 EQ PUSH2 0x320F JUMPI PUSH2 0x320E PUSH2 0x2F8A JUMP JUMPDEST JUMPDEST PUSH2 0x3218 DUP2 PUSH2 0x2AEE JUMP JUMPDEST POP POP JUMP JUMPDEST PUSH1 0x0 DUP3 EQ PUSH2 0x322D JUMPI PUSH2 0x322C PUSH2 0x2F8A JUMP JUMPDEST JUMPDEST PUSH2 0x3236 DUP2 PUSH2 0x2B28 JUMP JUMPDEST POP POP JUMP JUMPDEST PUSH2 0x3242 PUSH2 0x36AF JUMP JUMPDEST PUSH2 0x324D DUP2 DUP5 DUP5 PUSH2 0x35E9 JUMP JUMPDEST POP POP POP JUMP JUMPDEST PUSH32 0x414C52454144595F494E495449414C495A454400000000000000000000000000 PUSH1 0x0 DUP3 ADD MSTORE POP JUMP JUMPDEST PUSH32 0x4F523A204F55545F4F465F494E44455800000000000000000000000000000000 PUSH1 0x0 DUP3 ADD MSTORE POP JUMP JUMPDEST PUSH32 0x4F523A20414C52454144595F5355424D49545445440000000000000000000000 PUSH1 0x0 DUP3 ADD MSTORE POP JUMP JUMPDEST PUSH32 0x4F523A20494E565F4E4F4E434500000000000000000000000000000000000000 PUSH1 0x0 DUP3 ADD MSTORE POP JUMP JUMPDEST PUSH1 0x0 PUSH16 0xFFFFFFFFFFFFFFFFFFFFFFFFFFFFFFFF PUSH2 0x3312 DUP5 PUSH2 0x31AC JUMP JUMPDEST SWAP4 POP DUP1 NOT DUP4 AND SWAP3 POP DUP1 DUP5 AND DUP4 OR SWAP2 POP POP SWAP3 SWAP2 POP POP JUMP JUMPDEST PUSH1 0x0 PUSH32 0xFFFFFFFFFFFFFFFFFFFFFFFFFFFFFFFF00000000000000000000000000000000 PUSH2 0x3354 DUP5 PUSH2 0x31B9 JUMP JUMPDEST SWAP4 POP DUP1 NOT DUP4 AND SWAP3 POP DUP1 DUP5 AND DUP4 OR SWAP2 POP POP SWAP3 SWAP2 POP POP JUMP JUMPDEST PUSH1 0x0 PUSH1 0xFF PUSH2 0x3377 DUP5 PUSH2 0x31AC JUMP JUMPDEST SWAP4 POP DUP1 NOT DUP4 AND SWAP3 POP DUP1 DUP5 AND DUP4 OR SWAP2 POP POP SWAP3 SWAP2 POP POP JUMP JUMPDEST PUSH1 0x0 PUSH17 0xFF00000000000000000000000000000000 PUSH2 0x33AA DUP5 PUSH2 0x31B9 JUMP JUMPDEST SWAP4 POP DUP1 NOT DUP4 AND SWAP3 POP DUP1 DUP5 AND DUP4 OR SWAP2 POP POP SWAP3 SWAP2 POP POP JUMP JUMPDEST PUSH1 0x0 PUSH20 0xFFFFFFFFFFFFFFFFFFFFFFFFFFFFFFFFFFFFFFFF PUSH2 0x33E0 DUP5 PUSH2 0x31AC JUMP JUMPDEST SWAP4 POP DUP1 NOT DUP4 AND SWAP3 POP DUP1 DUP5 AND DUP4 OR SWAP2 POP POP SWAP3 SWAP2 POP POP JUMP JUMPDEST PUSH1 0x0 PUSH32 0xFFFFFFFFFFFFFFFFFFFFFFFFFFFFFFFFFFFFFFFFFFFFFFFFFFFFFFFFFFFFFFFF PUSH2 0x3422 DUP5 PUSH2 0x31AC JUMP JUMPDEST SWAP4 POP DUP1 NOT DUP4 AND SWAP3 POP DUP1 DUP5 AND DUP4 OR SWAP2 POP POP SWAP3 SWAP2 POP POP JUMP JUMPDEST PUSH1 0x0 PUSH1 0x8 DUP4 MUL PUSH2 0x3468 PUSH32 0xFFFFFFFFFFFFFFFFFFFFFFFFFFFFFFFFFFFFFFFFFFFFFFFFFFFFFFFFFFFFFFFF DUP3 PUSH2 0x31C6 JUMP JUMPDEST PUSH2 0x3472 DUP7 DUP4 PUSH2 0x31C6 JUMP JUMPDEST SWAP6 POP DUP1 NOT DUP5 AND SWAP4 POP DUP1 DUP7 AND DUP5 OR SWAP3 POP POP POP SWAP4 SWAP3 POP POP POP JUMP JUMPDEST PUSH2 0x3493 DUP3 PUSH2 0x2B3F JUMP JUMPDEST PUSH2 0x34A6 PUSH2 0x349F DUP3 PUSH2 0x3046 JUMP JUMPDEST DUP4 SLOAD PUSH2 0x33C0 JUMP JUMPDEST DUP3 SSTORE POP POP POP JUMP JUMPDEST PUSH2 0x34B8 DUP4 DUP4 DUP4 PUSH2 0x2BD0 JUMP JUMPDEST POP POP POP JUMP JUMPDEST PUSH2 0x34C8 DUP4 DUP4 DUP4 PUSH2 0x2C39 JUMP JUMPDEST POP POP POP JUMP JUMPDEST PUSH2 0x34D6 DUP3 PUSH2 0x2B51 JUMP JUMPDEST PUSH2 0x34E9 PUSH2 0x34E2 DUP3 PUSH2 0x3050 JUMP JUMPDEST DUP4 SLOAD PUSH2 0x336A JUMP JUMPDEST DUP3 SSTORE POP POP POP JUMP JUMPDEST PUSH2 0x34F9 DUP3 PUSH2 0x2B63 JUMP JUMPDEST PUSH2 0x350C PUSH2 0x3505 DUP3 PUSH2 0x305A JUMP JUMPDEST DUP4 SLOAD PUSH2 0x33F6 JUMP JUMPDEST DUP3 SSTORE POP POP POP JUMP JUMPDEST PUSH2 0x351D DUP3 DUP3 PUSH2 0x2DA9 JUMP JUMPDEST POP POP JUMP JUMPDEST PUSH2 0x352A DUP3 PUSH2 0x2B88 JUMP JUMPDEST PUSH2 0x353D PUSH2 0x3536 DUP3 PUSH2 0x306C JUMP JUMPDEST DUP4 SLOAD PUSH2 0x32F6 JUMP JUMPDEST DUP3 SSTORE POP POP POP JUMP JUMPDEST PUSH2 0x354D DUP3 PUSH2 0x2BBE JUMP JUMPDEST PUSH2 0x3560 PUSH2 0x3559 DUP3 PUSH2 0x3076 JUMP JUMPDEST DUP4 SLOAD PUSH2 0x33F6 JUMP JUMPDEST DUP3 SSTORE POP POP POP JUMP JUMPDEST PUSH2 0x3570 DUP3 PUSH2 0x2B51 JUMP JUMPDEST PUSH2 0x3583 PUSH2 0x357C DUP3 PUSH2 0x3050 JUMP JUMPDEST DUP4 SLOAD PUSH2 0x338D JUMP JUMPDEST DUP3 SSTORE POP POP POP JUMP JUMPDEST PUSH2 0x3593 DUP3 PUSH2 0x2B88 JUMP JUMPDEST PUSH2 0x35A6 PUSH2 0x359F DUP3 PUSH2 0x306C JUMP JUMPDEST DUP4 SLOAD PUSH2 0x3328 JUMP JUMPDEST DUP3 SSTORE POP POP POP JUMP JUMPDEST DUP2 ISZERO PUSH2 0x35BC JUMPI PUSH2 0x35BB PUSH2 0x2F8A JUMP JUMPDEST JUMPDEST PUSH2 0x35C6 DUP4 DUP3 PUSH2 0x2C99 JUMP JUMPDEST POP POP POP JUMP JUMPDEST DUP2 ISZERO PUSH2 0x35DA JUMPI PUSH2 0x35D9 PUSH2 0x2F8A JUMP JUMPDEST JUMPDEST PUSH2 0x35E4 DUP4 DUP3 PUSH2 0x2D63 JUMP JUMPDEST POP POP POP JUMP JUMPDEST PUSH2 0x35F2 DUP4 PUSH2 0x2BBE JUMP JUMPDEST PUSH2 0x3606 PUSH2 0x35FE DUP3 PUSH2 0x3076 JUMP JUMPDEST DUP5 DUP5 SLOAD PUSH2 0x3438 JUMP JUMPDEST DUP3 SSTORE POP POP POP POP JUMP JUMPDEST PUSH2 0x3617 DUP2 PUSH2 0x2A0D JUMP JUMPDEST DUP2 EQ PUSH2 0x3622 JUMPI PUSH1 0x0 DUP1 REVERT JUMPDEST POP JUMP JUMPDEST PUSH2 0x362E DUP2 PUSH2 0x2A1F JUMP JUMPDEST DUP2 EQ PUSH2 0x3639 JUMPI PUSH1 0x0 DUP1 REVERT JUMPDEST POP JUMP JUMPDEST PUSH2 0x3645 DUP2 PUSH2 0x2A31 JUMP JUMPDEST DUP2 EQ PUSH2 0x3650 JUMPI PUSH1 0x0 DUP1 REVERT JUMPDEST POP JUMP JUMPDEST PUSH2 0x365C DUP2 PUSH2 0x2A3D JUMP JUMPDEST DUP2 EQ PUSH2 0x3667 JUMPI PUSH1 0x0 DUP1 REVERT JUMPDEST POP JUMP JUMPDEST PUSH2 0x3673 DUP2 PUSH2 0x2A47 JUMP JUMPDEST DUP2 EQ PUSH2 0x367E JUMPI PUSH1 0x0 DUP1 REVERT JUMPDEST POP JUMP JUMPDEST PUSH2 0x368A DUP2 PUSH2 0x2A83 JUMP JUMPDEST DUP2 EQ PUSH2 0x3695 JUMPI PUSH1 0x0 DUP1 REVERT JUMPDEST POP JUMP JUMPDEST PUSH2 0x36A1 DUP2 PUSH2 0x2A8D JUMP JUMPDEST DUP2 EQ PUSH2 0x36AC JUMPI PUSH1 0x0 DUP1 REVERT JUMPDEST POP JUMP JUMPDEST PUSH1 0x0 SWAP1 JUMP INVALID LOG2 PUSH5 0x6970667358 0x22 SLT KECCAK256 0xE1 0xC8 0xAD EXP CALLER PUSH29 0xE17598BDB48973E84640870D2EB397559E67D63C4C5097394A3564736F PUSH13 0x63430008070033000000000000 "
				},
				"gasEstimates": {
					"creation": {
						"codeDepositCost": "2811600",
						"executionCost": "3069",
						"totalCost": "2814669"
					},
					"external": {
						"ORACLE_MASTER()": "2559",
						"PUSHABLES(uint256)": "5023",
						"addRemovePushable(address,bool)": "infinite",
						"clearReporting()": "infinite",
						"eraNonce()": "2581",
						"erasToBlockHashes(uint128)": "2815",
						"getReportBlockHash(uint128)": "2799",
						"initialize(address,address)": "infinite",
						"isReported(uint256)": "7190",
						"reportPara(uint256,uint256,uint128,uint128,(uint256,uint128,uint128,uint128,bytes32,uint128,uint128,(address,uint128,bool,uint256,uint256,(address,uint256)[])[],bool),address,bool,bool,bool)": "infinite",
						"softenQuorum(uint8,uint128)": "infinite"
					},
					"internal": {
						"_clearReporting()": "infinite",
						"_getQuorumReport(uint256)": "infinite",
						"_getStakeReport(uint256)": "infinite",
						"_push(uint128,struct Types.OracleData memory,address)": "infinite"
					}
				},
				"methodIdentifiers": {
					"ORACLE_MASTER()": "3fd2c16a",
					"PUSHABLES(uint256)": "402e4749",
					"addRemovePushable(address,bool)": "30206bcc",
					"clearReporting()": "b75b518c",
					"eraNonce()": "f53d2ead",
					"erasToBlockHashes(uint128)": "adec8b73",
					"getReportBlockHash(uint128)": "0e53fb48",
					"initialize(address,address)": "485cc955",
					"isReported(uint256)": "89b80361",
					"reportPara(uint256,uint256,uint128,uint128,(uint256,uint128,uint128,uint128,bytes32,uint128,uint128,(address,uint128,bool,uint256,uint256,(address,uint256)[])[],bool),address,bool,bool,bool)": "889cc58b",
					"softenQuorum(uint8,uint128)": "f461e54f"
				}
			},
			"storageLayout": {
				"storage": [
					{
						"astId": 468,
						"contract": "contracts/Oracle.sol:Oracle",
						"label": "currentReportVariants",
						"offset": 0,
						"slot": "0",
						"type": "t_array(t_uint256)dyn_storage"
					},
					{
						"astId": 472,
						"contract": "contracts/Oracle.sol:Oracle",
						"label": "currentReports",
						"offset": 0,
						"slot": "1",
						"type": "t_array(t_struct(OracleData)1231_storage)dyn_storage"
					},
					{
						"astId": 474,
						"contract": "contracts/Oracle.sol:Oracle",
						"label": "currentReportBitmask",
						"offset": 0,
						"slot": "2",
						"type": "t_uint256"
					},
					{
						"astId": 477,
						"contract": "contracts/Oracle.sol:Oracle",
						"label": "PUSHABLES",
						"offset": 0,
						"slot": "3",
						"type": "t_array(t_address_payable)dyn_storage"
					},
					{
						"astId": 479,
						"contract": "contracts/Oracle.sol:Oracle",
						"label": "ORACLE_MASTER",
						"offset": 0,
						"slot": "4",
						"type": "t_address"
					},
					{
						"astId": 481,
						"contract": "contracts/Oracle.sol:Oracle",
						"label": "eraNonce",
						"offset": 0,
						"slot": "5",
						"type": "t_uint128"
					},
					{
						"astId": 483,
						"contract": "contracts/Oracle.sol:Oracle",
						"label": "currentVetoReportVariant",
						"offset": 0,
						"slot": "6",
						"type": "t_uint256"
					},
					{
						"astId": 487,
						"contract": "contracts/Oracle.sol:Oracle",
						"label": "erasToBlockHashes",
						"offset": 0,
						"slot": "7",
						"type": "t_mapping(t_uint128,t_bytes32)"
					}
				],
				"types": {
					"t_address": {
						"encoding": "inplace",
						"label": "address",
						"numberOfBytes": "20"
					},
					"t_address_payable": {
						"encoding": "inplace",
						"label": "address payable",
						"numberOfBytes": "20"
					},
					"t_array(t_address_payable)dyn_storage": {
						"base": "t_address_payable",
						"encoding": "dynamic_array",
						"label": "address payable[]",
						"numberOfBytes": "32"
					},
					"t_array(t_struct(CollatorData)1210_storage)dyn_storage": {
						"base": "t_struct(CollatorData)1210_storage",
						"encoding": "dynamic_array",
						"label": "struct Types.CollatorData[]",
						"numberOfBytes": "32"
					},
					"t_array(t_struct(DelegationsData)1195_storage)dyn_storage": {
						"base": "t_struct(DelegationsData)1195_storage",
						"encoding": "dynamic_array",
						"label": "struct Types.DelegationsData[]",
						"numberOfBytes": "32"
					},
					"t_array(t_struct(OracleData)1231_storage)dyn_storage": {
						"base": "t_struct(OracleData)1231_storage",
						"encoding": "dynamic_array",
						"label": "struct Types.OracleData[]",
						"numberOfBytes": "32"
					},
					"t_array(t_uint256)dyn_storage": {
						"base": "t_uint256",
						"encoding": "dynamic_array",
						"label": "uint256[]",
						"numberOfBytes": "32"
					},
					"t_bool": {
						"encoding": "inplace",
						"label": "bool",
						"numberOfBytes": "1"
					},
					"t_bytes32": {
						"encoding": "inplace",
						"label": "bytes32",
						"numberOfBytes": "32"
					},
					"t_mapping(t_uint128,t_bytes32)": {
						"encoding": "mapping",
						"key": "t_uint128",
						"label": "mapping(uint128 => bytes32)",
						"numberOfBytes": "32",
						"value": "t_bytes32"
					},
					"t_struct(CollatorData)1210_storage": {
						"encoding": "inplace",
						"label": "struct Types.CollatorData",
						"members": [
							{
								"astId": 1197,
								"contract": "contracts/Oracle.sol:Oracle",
								"label": "collatorAccount",
								"offset": 0,
								"slot": "0",
								"type": "t_address"
							},
							{
								"astId": 1199,
								"contract": "contracts/Oracle.sol:Oracle",
								"label": "points",
								"offset": 0,
								"slot": "1",
								"type": "t_uint128"
							},
							{
								"astId": 1201,
								"contract": "contracts/Oracle.sol:Oracle",
								"label": "active",
								"offset": 16,
								"slot": "1",
								"type": "t_bool"
							},
							{
								"astId": 1203,
								"contract": "contracts/Oracle.sol:Oracle",
								"label": "bond",
								"offset": 0,
								"slot": "2",
								"type": "t_uint256"
							},
							{
								"astId": 1205,
								"contract": "contracts/Oracle.sol:Oracle",
								"label": "delegationsTotal",
								"offset": 0,
								"slot": "3",
								"type": "t_uint256"
							},
							{
								"astId": 1209,
								"contract": "contracts/Oracle.sol:Oracle",
								"label": "topActiveDelegations",
								"offset": 0,
								"slot": "4",
								"type": "t_array(t_struct(DelegationsData)1195_storage)dyn_storage"
							}
						],
						"numberOfBytes": "160"
					},
					"t_struct(DelegationsData)1195_storage": {
						"encoding": "inplace",
						"label": "struct Types.DelegationsData",
						"members": [
							{
								"astId": 1192,
								"contract": "contracts/Oracle.sol:Oracle",
								"label": "ownerAccount",
								"offset": 0,
								"slot": "0",
								"type": "t_address"
							},
							{
								"astId": 1194,
								"contract": "contracts/Oracle.sol:Oracle",
								"label": "amount",
								"offset": 0,
								"slot": "1",
								"type": "t_uint256"
							}
						],
						"numberOfBytes": "64"
					},
					"t_struct(OracleData)1231_storage": {
						"encoding": "inplace",
						"label": "struct Types.OracleData",
						"members": [
							{
								"astId": 1212,
								"contract": "contracts/Oracle.sol:Oracle",
								"label": "totalStaked",
								"offset": 0,
								"slot": "0",
								"type": "t_uint256"
							},
							{
								"astId": 1214,
								"contract": "contracts/Oracle.sol:Oracle",
								"label": "totalSelected",
								"offset": 0,
								"slot": "1",
								"type": "t_uint128"
							},
							{
								"astId": 1216,
								"contract": "contracts/Oracle.sol:Oracle",
								"label": "orbitersCount",
								"offset": 16,
								"slot": "1",
								"type": "t_uint128"
							},
							{
								"astId": 1218,
								"contract": "contracts/Oracle.sol:Oracle",
								"label": "round",
								"offset": 0,
								"slot": "2",
								"type": "t_uint128"
							},
							{
								"astId": 1220,
								"contract": "contracts/Oracle.sol:Oracle",
								"label": "blockHash",
								"offset": 0,
								"slot": "3",
								"type": "t_bytes32"
							},
							{
								"astId": 1222,
								"contract": "contracts/Oracle.sol:Oracle",
								"label": "blockNumber",
								"offset": 0,
								"slot": "4",
								"type": "t_uint128"
							},
							{
								"astId": 1224,
								"contract": "contracts/Oracle.sol:Oracle",
								"label": "awarded",
								"offset": 16,
								"slot": "4",
								"type": "t_uint128"
							},
							{
								"astId": 1228,
								"contract": "contracts/Oracle.sol:Oracle",
								"label": "collators",
								"offset": 0,
								"slot": "5",
								"type": "t_array(t_struct(CollatorData)1210_storage)dyn_storage"
							},
							{
								"astId": 1230,
								"contract": "contracts/Oracle.sol:Oracle",
								"label": "finalize",
								"offset": 0,
								"slot": "6",
								"type": "t_bool"
							}
						],
						"numberOfBytes": "224"
					},
					"t_uint128": {
						"encoding": "inplace",
						"label": "uint128",
						"numberOfBytes": "16"
					},
					"t_uint256": {
						"encoding": "inplace",
						"label": "uint256",
						"numberOfBytes": "32"
					}
				}
			},
			"userdoc": {
				"kind": "user",
				"methods": {
					"clearReporting()": {
						"notice": "Clear data about current reporting, allowed to call only by oracle master contract"
					},
					"initialize(address,address)": {
						"notice": "Initialize oracle contract"
					},
					"isReported(uint256)": {
						"notice": "Returns true if member is already reported"
					},
					"reportPara(uint256,uint256,uint128,uint128,(uint256,uint128,uint128,uint128,bytes32,uint128,uint128,(address,uint128,bool,uint256,uint256,(address,uint256)[])[],bool),address,bool,bool,bool)": {
						"notice": "Accept oracle report data, allowed to call only by oracle master contract"
					},
					"softenQuorum(uint8,uint128)": {
						"notice": "Change quorum threshold, allowed to call only by oracle master contract"
					}
				},
				"version": 1
			}
		}
	}
}